:100000000C94B9030C94F1030C94F1030C94F103D8
:100010000C94F1030C94F1030C94F1030C94F10390
:100020000C94F1030C94F1030C949A270C9472280D
:100030000C944F270C94F1030C94F1030C94F103EE
:100040000C94F1030C94F1030C94F1030C94F10360
:100050000C94F1030C9476270C94F1030C94F103A7
:100060000C94F1030C94F1030C94F1030C94F10340
:100070000C94F1030C94F1030C94F1030C94F10330
:100080000C94F1030C94F1030C94F1030C94F10320
:100090000C94F1030C94F1030C94F1030C94F10310
:1000A0000C94F1030C94F1030C94F1030501090283
:1000B000A10185020901A1000509190129081500FE
:1000C0002501950875018102050109300931158165
:1000D000257F95027508810609381581257F9501D0
:1000E00075088106050C0A38021581257F95017572
:1000F000088106C0C005010980A101850319012AF4
:10010000B700150126B700950175108100C0050CD8
:100110000901A101850419012AA002150126A002E6
:10012000950175108100C005010906A1018506052C
:100130000719E029E71500250195087501810205D9
:1001400007190029EF1500250195F07501810205B9
:10015000081901290595057501910295017503910D
:1001600001C00660FF0961A1010962150026FF00B8
:100170009520750881020963150026FF00952075FA
:10018000089102C005010906A101050719E029E748
:1001900015002501950875018102950175088101F9
:1001A0000507190029FF150026FF0095067508812F
:1001B000000508190129059505750191029501753C
:1001C000039101C009025B00030100A0FA090400C9
:1001D0000001030101000921110100012240000773
:1001E0000581030800010904010002030000000961
:1001F00021110100012222000705820320000107CE
:1002000005030320000109040200010300000009A6
:10021000211101000122B60007058403200001120C
:10022000010002000000085A44602201000102009F
:10023000010A0344005A0036003000000010034B4E
:100240000042004400460061006E0073000000049C
:10025000030904165C1E001F002000210022002359
:100260000024002500260027002D002E0000002A73
:10027000002B00000014001A000800150017001CD5
:100280000018000C00120013002F0030003100395C
:1002900000000004001600070009000A000B000D12
:1002A000000E000F003300340028000000E10000C1
:1002B000001D001B0006001900050011001000368B
:1002C00000370038000000E5000000E000E3000017
:1002D00000E2002C0000002C0000002C000000E6D2
:1002E00000E70000000151E40035003A003B003C0B
:1002F000003D003E003F00400041004200430044FA
:1003000000450001004C0001000000C25CC35CC558
:100310005CC65CC75CC85CC95CCA5C0100010001CA
:10032000000100005C01000000010001000100016B
:1003300000010001000100010001000100010001B5
:100340000000000100010001000100BD5CBF5CBEB7
:100350005CC05C010001000100010000000100011F
:100360000001000100000001000100000001000088
:100370000001000000010001000100010001000176
:100380000001000100010001000100010001000165
:100390000001000100010001000100010001000056
:1003A0000001000100010001000100010001000145
:1003B0000001000100010001000100010000000136
:1003C0000001000100010001000100010001000125
:1003D0000001000100010000000100010001000116
:1003E0000001000100010001000100010001000105
:1003F00000000001000100010001000000010001F7
:1004000000000001000000010000000100010001E7
:1004100000010001000100010001000100010001D4
:1004200000010001000100010001000100010001C4
:1004300000010001000000010001000100010001B5
:1004400000010001000100010001000100010001A4
:100450000001000000010001000100010001000195
:100460000001000100010001000100010000000185
:100470000001000100010001000100010001000174
:100480000001000100010000000100010001000165
:100490000000000100010000000100000001000058
:1004A000000100010001000100010022232526288F
:1004B000292A2C2D2F3032333536383A3B3D3E40F9
:1004C00042434547494A4C4E5051535557595A5C3F
:1004D0005E6062646668696B6D6F71737577797B56
:1004E0007D7F81838587898A8C8E90929496989A55
:1004F0009C9E9FA1A3A5A7A8AAACAEAFB1B3B4B66A
:10050000B8B9BBBCBEBFC1C2C3C5C6C7C9CACBCCC4
:10051000CDCED0D1D2D2D3D4D5D6D7D7D8D9D9DA97
:10052000DADBDBDBDCDCDCDCDCDDDDDDDDDCDCDC0C
:10053000DCDCDBDBDBDADAD9D9D8D7D7D6D5D4D334
:10054000D2D2D1D0CECDCCCBCAC9C7C6C5C3C2C109
:10055000BFBEBCBBB9B8B6B4B3B1AFAEACAAA8A766
:10056000A5A3A19F9E9C9A98969492908E8C8A891E
:10057000878583817F7D7B79777573716F6D6B69FB
:1005800068666462605E5C5A5957555351504E4CD0
:100590004A4947454342403E3D3B3A38363533327F
:1005A000302F2D2C2A292826252322FFAA7F5540CB
:1005B0000001010101010101010102020202020226
:1005C00002020203030303030303030404040404F9
:1005D00004040505050505060606060607070707C0
:1005E0000708080808090909090A0A0A0B0B0B0C75
:1005F0000C0C0D0D0D0E0E0E0F0F0F101011111112
:100600001212131314141515161617171818191992
:100610001A1A1B1B1C1D1D1E1E1F202021222223F7
:100620002424252626272829292A2B2C2D2D2E2F38
:1006300030313232333435363738393A3B3C3D3E4F
:100640003F404142434445464748494A4C4D4E4F3E
:1006500050515354555658595A5B5D5E5F61626400
:10066000656668696B6C6D6F7072737577787A7B8D
:100670007D7E8082838587888A8C8E8F91939596E4
:10068000989A9C9EA0A2A3A5A7A9ABADAFB1B3B504
:10069000B7BABCBEC0C2C4C6C9CBCDCFD1D4D6D8E0
:1006A000DBDDDFE2E4E7E9EBEEF0F3F5F8FAFDFF7E
:1006B00000047F3F1F643214643214783C1E1E1401
:1006C0000A0500000000000000000000000000001B
:1006D000000000000000000000000000000000001A
:1006E0000000000000007E0F00D4FFFFFFC70000E5
:1006F000007800000000000000002A2B2800000005
:1007000000000000000000000000000000290000C0
:1007100000002C1E3420212224342627252E362D9D
:100720003738271E1F202122232425263333362E37
:1007300037381F0405060708090A0B0C0D0E0F10A9
:100740001112131415161718191A1B1C1D2F3130EE
:10075000232D350405060708090A0B0C0D0E0F1092
:100760001112131415161718191A1B1C1D2F3130CE
:10077000354C11241FBECFEFDAE0DEBFCDBF04B68B
:1007800003FE18C08091EB029091EC02A091ED0263
:10079000B091EE028730904BA740B04B59F41092C5
:1007A000EB021092EC021092ED021092EE02E0E0E9
:1007B000F8E3099511E0A0E0B1E0ECE3F4E502C054
:1007C00005900D92A639B107D9F722E0A6E9B1E06C
:1007D00001C01D92AB3EB207E1F70E947E210C944E
:1007E000B5290C94000081FD02C02A9A08952A9828
:1007F0000895E82F2FE0929FE00D11248E2F87702F
:1008000041E001C0440F8A95EAF7E695E695E69542
:1008100083E0E89FF0011124E658FD4F30E020E02E
:1008200070E05191DF011197CB01022E02C0969525
:1008300087950A94E2F7817081958527842385271F
:100840008C932F5F3F4F2330310559F70895E82FE0
:100850002FE0929FE00D11249E2F9770E695E6956C
:10086000E69583E0E89FF0011124E658FD4F50E043
:1008700040E080E0219130E0092E02C036952795B6
:100880000A94E2F721703327042E01C0220F0A9444
:10089000EAF7822B4F5F5F4F4330510559F70895B8
:1008A0008091B4029091B302981301C008958F5FB4
:1008B0008770FACF90911A019923C1F09091B002FC
:1008C00097FF14C0E82FE695E695E695803FF8F48B
:1008D000F0E0E856FE4F877021E030E001C0220FC3
:1008E0008A95EAF78281822B82830895AAE9B1E092
:1008F000EFEF90E02D91821751F0EF3F19F42111A5
:1009000001C0E92F9F5F9630A9F7EF3F09F40895E2
:100910000E2E000CFF0BE856FE4FE6CF90911A0109
:100920009923E1F09091B00297FF18C0E82FE69567
:10093000E695E695803FF0F4F0E0E856FE4F8770CC
:1009400021E030E0A90102C0440F551F8A95E2F76B
:10095000CA0180959281892382830895EAE9F1E0B2
:100960009191891303C0DF0111971C9251E0E03A85
:10097000F507B1F70895982F90958091AB028923E0
:100980008093AB0208958091AC0281111092AC0269
:1009900008959091B00292FF06C0282F2871283048
:1009A000F9F4877F846093FF06C0282F28712831CF
:1009B000F1F4877E84612091B10220FF06C0382FB8
:1009C00038713830D9F4877F816021FF06C0282F25
:1009D00028712831D1F4877E816194FD877E089546
:1009E000282F24712430F9F68B7F8860DCCF282FE4
:1009F0002471243101F78B7E8861DDCF382F31716E
:100A0000313019F78E7F8860E0CF282F2171213196
:100A100021F78E7E8861E1CFCF93DF93EC01803E9A
:100A2000910509F460C050F58133910509F4A6C021
:100A300090F48932910509F49AC08A9709F4A5C007
:100A4000C130D10509F462C0CE010497813A910505
:100A500008F055C05BC089339105F1F182389105EA
:100A6000D9F1C59709F47CC0C83AD10508F094C003
:100A7000C53AD10528F3A497D06448C0843E9105B7
:100A800009F453C068F4823E9105E1F1833E91057B
:100A900009F440C0CE01805E9109089780F536C008
:100AA000863E910509F44CC0873E910509F44DC07E
:100AB000811523E5920708F09AC0811532E5930766
:100AC00008F000C18F3F910511F008F074C0803F1D
:100AD000910550F2D0651AC08091B0028370B1F0D8
:100AE000C0EED0E013C08091B00280FD15C190919E
:100AF000B10290FF0BC0C3EED0E084FF07C0D0E08E
:100B0000C0E004C08091B00282FDF5CFCE01DF913C
:100B1000CF9108958091B00282FD01C19091B10200
:100B200090FDDECF84FFF2CFEACF8091B10281FF4A
:100B3000EDCF8091B002C7EED0E084FDE0CFE6CFEC
:100B40008091B00283FDF7CFE1CF8091B00283FDA9
:100B5000E9C09091B10291FFE5CFC4EED0E0D6CFCD
:100B60008091B00285FFD2CFC9E2D0E0CFCF809193
:100B7000B00285FFCBCFC5E3D0E0C8CF8091B002F3
:100B800086FFC4CFCAE2D0E0C1CF8091B00286FF19
:100B9000BDCFC1E3D0E0BACFCF3BD10508F07ACFCB
:100BA000C85AD0E0CC0FDD1FC959DE4F0990D8815B
:100BB000C02DD464ABCFC11581E5D80798F4C11519
:100BC00020E5D20708F061C0C11530E2D30708F470
:100BD0009DCFCE0190548115904108F090CFDF70E9
:100BE000D06A94CFDC2FCC27C16FD06A8FCF81150C
:100BF00039E59307A0F5C11588E5D80708F07AC054
:100C0000C11525E5D207C8F4C11534E5D30708F0AE
:100C10006CC09E012370332781E090E002C0880FF2
:100C2000991F2A95E2F7C695C69520E2C29FE0017A
:100C30001124C82BD92BDA6869CFCE0195558F3F87
:100C4000910511F008F05BCF8C2F0E94C904C82FCA
:100C5000D0E0DC2FCC27CC27DF71D06257CF8115B5
:100C60003AE5930708F44BC090568115904208F07E
:100C700046CF8D2F8F710E94C90490E0982F88274E
:100C800088279F718C2BEC01E8CF9E0174E036958C
:100C900027957A95E1F723708C2F8695869583703A
:100CA00030E2839FC0011124922BC37021E030E019
:100CB00002C0220F331FCA95E2F7822B932BEC015F
:100CC000DC6824CF9C012370332781E090E002C0D0
:100CD000880F991F2A95E2F7C695C69520E2C29F14
:100CE000E0011124C82BD92BEBCFDC2FCC27C46F0C
:100CF000D06A0CCFDC2FCC27C06FD06A07CF8F70A3
:100D00000E94C90434E0D695C7953A95E1F7CF70B3
:100D10009C2FEC01D069FACEC9E3D0E0F7CEC2EE49
:100D2000D0E0F4CEC6EED0E0F1CE80E00895F894A5
:100D3000E82FE295EF70F0E041A18F7021E030E004
:100D4000B90102C0660F771F8A95E2F7CB01962F93
:100D50009095942391A392A1892B82A378940895CE
:100D600008958091980280FD14C081FD14C082FD19
:100D700016C080919A02882381F08E3180F420E59C
:100D8000829FC00111246EE170E00E94DF28862F4F
:100D9000089584E1089588E2089588E0089580E543
:100DA00008958091980280FD16C081FD16C082FDD5
:100DB00016C0809199028823A1F0883280F428E03F
:100DC000829FC001112468E270E00E94DF28862F14
:100DD000672B39F0089582E0089584E0089588E053
:100DE000089581E00895E0E1E80FE031E0F5F0E0FA
:100DF000E954F64D0C9415290E94B1068195809313
:100E00009E0208950E94B106FACF0E94B106819514
:100E100080939D0208950E94B106FACF0E94D106E8
:100E200080939F0208950E94D1068195F9CF0E9478
:100E3000D10681958093A00208950E94D106FACF31
:100E4000845F990B21E030E001C0220F8A95EAF718
:100E500080919C02822B80939C020895809198023D
:100E60008160809398020895809198028260F9CF02
:100E7000809198028460F5CF40919D02803F59F4A3
:100E800080919E0287FF0DC010929E0241110BC0FF
:100E900010929A0208C0813F81F480919E02181638
:100EA0009CF3442381F080919F029091A002892BB2
:100EB00009F05AC0109299020895823F49F447FF01
:100EC000F0CF10929D0280919E028111ECCFE0CF75
:100ED000833F19F41416ACF3E4CF90919F02893F3D
:100EE00029F41916F4F610929F02DBCF8A3F19F409
:100EF00097FFD7CFF8CF9091A0028B3F29F497FFAF
:100F0000D0CF1092A002CDCF8C3F19F41916CCF39C
:100F1000C8CF9CE0980F953090F4845F990B21E046
:100F200030E0B90102C0660F771F8A95E2F7CB0166
:100F3000809590919C02892380939C02B2CF8D3F33
:100F400031F4809198028E7F80939802AACF8E3FD1
:100F500021F4809198028D7FF7CF8F3F09F0A1CFC8
:100F6000809198028B7FF0CF08956F927F928F923D
:100F70009F92AF92BF92CF92DF92EF92FF920F9328
:100F80001F93CF93DF93B82EA62E8901E42FF0E0B4
:100F9000E055FA4F611119C0E4918E2F2E2FD80120
:100FA00011962C931197EC9312968C93DF91CF911D
:100FB0001F910F91FF90EF90DF90CF90BF90AF9077
:100FC0009F908F907F906F900895E62EF12C249142
:100FD00086E0B89E60011124CFEFD0E0C601BE01CB
:100FE0000E94CB288B2D90E0880F991F35E5369F06
:100FF000A001379F500D1124841B950B982F990F3A
:10100000980FAE014E195F09249FD001259FB00DA6
:101010001124EB2FA99E50011124AB2CBB24AE014F
:101020004A195B09249F5001259FB00C11248B2D78
:101030003E01691A71086E9C40016F9C900C7E9C69
:10104000900C1124892C9924C819D9092C9FA0012E
:101050002D9F500D112463307105D1F09CEFC916FE
:1010600093E0D90670F461307105B1F0623071051A
:10107000B9F0FFEFCF16D10408F091CF8B2FE52FF9
:101080008ECF6430710579F066307105B9F387CF82
:10109000EB2D822F2B2F83CFE22F2B2D8B2F7FCF6A
:1010A000852FE22FF7CF822F252F79CF8091A602AF
:1010B000982F9E7F29F4817082608093A602089504
:1010C0008A34E8F381708864F8CFFA0181110994B9
:1010D000FB01FDCFEF92FF920F931F93CF93DF930E
:1010E000CDB7DEB728970FB6F894DEBF0FBECDBFE1
:1010F0008630E8F581113CC0909180009F7D9093EF
:1011000080002E98A0918600B0918700282F30E0B3
:101110000E942A2969837A838B839C8325E030E0AF
:1011200040E050E00E94F32889019A0180918600F6
:10113000909187006CE070E00E94CB2860177107E7
:10114000E8F0C80169E070E00E94CB2870938B0042
:1011500060938A0028960FB6F894DEBF0FBECDBF0D
:10116000DF91CF911F910F91FF90EF90089585E04F
:1011700090918000906290938000C4CF809186000F
:1011800090918700E0908600F0908700E0918600C3
:10119000F091870066E070E00E94CB28060F171FD1
:1011A000211D311DD901C80125E0880F991FAA1FF3
:1011B000BB1F2A95D1F789839A83AB83BC83C70170
:1011C00066E070E00E94CB289F0150E040E0260FCF
:1011D000371F411D511D69817A818B819C810E943D
:1011E000F32829833A834B835C83E0918600F09156
:1011F0008700CA01B9010E94BB28DF019B01AC0135
:101200000E9440296D837E838F8398879B01AC0168
:1012100069817A818B819C810E94BB2869837A8352
:101220008B839C83DC01CB013FE0B695A795979516
:1012300087953A95D1F7409186005091870070E0EC
:1012400060E0481759076A077B0720F48091860001
:1012500090918700BC017ACF282F220F220F220FF6
:101260009091A1029770922B9093A102987F21E018
:1012700009F420E09091A10220FB90F99093A10243
:101280000C946A08E0915802F0915902309721F0CD
:101290000190F081E02D099480E008952091EC0107
:1012A0003091ED012817390771F09093ED0180938B
:1012B000EC01E0915802F0915902309721F006803C
:1012C000F781E02D099408952091EA013091EB0116
:1012D0002817390771F09093EB018093EA01E091B0
:1012E0005802F0915902309721F00084F185E02DE9
:1012F000099408952FB7F89480913C0290913D0293
:10130000A0913E02B0913F022FBF08950E947A093A
:1013100020919D0230919E02232B21F0809339026F
:1013200090933A0220919F023091A002232B21F04A
:101330008093370290933802E0915802F09159025D
:10134000309749F082E080939B020480F581E02D84
:101350008BE992E0099408959C014FB7F89480912D
:101360003C0290913D02A0913E02B0913F024FBFDE
:10137000821B930B08958091E90108950895FC0163
:10138000CB012091C4013091C5012617370790F099
:10139000009729F42091E8002E772093E80040E0A0
:1013A000009751F4411108C08091E80082FF31C0DC
:1013B00080E00895C901F3CF209140022223A9F1D2
:1013C0002530A9F12091E80023FD2DC02091E800EF
:1013D00022FDEACF2091E80020FFE2CF3091F30018
:1013E0002091F200009719F02830310558F041E0C3
:1013F0002830310509F040E02091E8002E77209355
:10140000E800CECF41914093F10001972F5F3F4F0D
:10141000E9CF80914002882341F0853041F08091EE
:10142000E80083FFC1CF81E0089582E0089583E062
:1014300008958091BE0187FF13C08091E80082FF6C
:1014400006C08091E8008B778093E80004C080910B
:1014500040028111F2CF0895809140028823D9F390
:101460008091E80080FFF8CF8091E8008E77ECCF84
:101470002091E4003091E50095E6A9012091EC006F
:10148000822F817020FF06C08091E80080FF06C097
:1014900080E008952091E80022FD1AC0809140026A
:1014A000882389F0853089F08091EB0085FD0FC09D
:1014B0002091E4003091E50042175307F9F2915072
:1014C000E1F684E0089582E0089583E0089581E0E4
:1014D0000895E8EDF0E080818E7F80831092E20035
:1014E0001092DA001092E100A0EEB0E08C918160E1
:1014F0008C9380818F77808319BCA7EDB0E08C91AD
:101500008E7F8C9380818F7E80831092BD010895A1
:10151000EF92FF920F931F93CF937C018B010E9458
:10152000380AC82F811117C08091E80085FD0BC0D3
:101530008091E8008E778093E8000E94380A882323
:1015400099F3C82F08C0F70181917F018093F100C2
:101550000150110949F78C2FCF911F910F91FF90E6
:10156000EF900895982F9093E900242F762F50E064
:10157000891731F07091EC002091ED005091F0004E
:1015800021FD06C09F5F973071F78093E9000895B1
:101590003091EB003E7F3093EB003091ED003D7FCA
:1015A0003093ED003091EB0031603093EB0070939D
:1015B000EC002093ED005093F0002091EE0027FD09
:1015C000E1CF0895CF92DF92EF92FF920F931F9396
:1015D000CF93DF93C8EDD0E088818F7E8883E7EDDD
:1015E000F0E080818160808384E082BF81E080932D
:1015F000BD0188818E7F888302EE10E0F8011082A1
:101600001092DA0081EEC82ED12CF601108288816A
:101610008F77888388818068888388818F7D88839D
:1016200019BC109240021092BC0110922502109237
:10163000BB0190EEE92EF12CF70180818B7F808336
:1016400088818160888342E060E080E00E94B20A85
:10165000F60180818E7F8083F801808181608083A4
:10166000808188608083F70180818E7F808388817C
:1016700080618883DF91CF911F910F91FF90EF9050
:10168000DF90CF9008958091A60280FD0AC0E1EF1F
:10169000F1E0118210821282339652E0E132F507B6
:1016A000C1F76A9A3EB13B7F2EB124604FB7F894E0
:1016B00081EF91E0FC010196508168E02EB90000B5
:1016C00000C057FF3EB9550F000000C000C000C069
:1016D0003EB900C06A9591F752E08132950751F703
:1016E0004FBF8FE594E00197F1F700C00000089527
:1016F000EF92FF920F931F93CF93DF93EC0101EFD3
:1017000011E0F12CE12C9C816091A8028091A7024C
:1017100028E0E216F104FCF49923F9F098014091D5
:10172000A9020E94B5078FEFE81AF80A0D5F1F4F54
:1017300020E1E216F10439F70E94430B8C8190E01E
:101740000196817099278C83DF91CF911F910F9122
:10175000FF90EF900895992309F3980140E0E1CFBD
:10176000EF92FF921F93CF93DF93EC0181EFE82E6E
:1017700081E0F82E10E08C8197014091A9026091E0
:10178000A802810F0E94B507115F83E0E80EF11CEB
:10179000103F89F70E94430B9A818C8190FF08C00B
:1017A0008F5F8C83DF91CF911F91FF90EF90089511
:1017B0008150F7CFCF92DF92EF92FF920F931F935A
:1017C000CF93DF93FC018281DD24DA9480FD02C097
:1017D000DD24D394C1EFD1E010E000E0198218823B
:1017E0001A8294E0E92EF12CC12C8091F0018C0D2D
:1017F0008131CCF18F70082E000C990B8017910766
:1018000091F48091A9028E9DA0018F9D500D11240D
:1018100055954795559547959E016091A8028091F1
:10182000A7020E94B507CD0CF1E0EF1AF108E9F626
:101830000F5F1F4F23960031110581F60E94430B65
:101840008091F00191E0D91212C0882399F0815063
:101850008093F001DF91CF911F910F91FF90EF9056
:10186000DF90CF90089587FFC6CF805FC4CF8F5F92
:101870008F70EECF8FE0ECCF0F931F93CF93DF935A
:10188000C1EFD1E0FE01118210821282339682E014
:10189000E132F807C1F710E000E08091EF01082E77
:1018A000000C990B081719078CF180910201082E82
:1018B000000C990B801791074CF19E014091A902F1
:1018C0006091A8028091A7020E94B5070F5F1F4F89
:1018D00023960031110509F70E94430B8091010105
:1018E0009091EF01980F9093EF0120910201280F42
:1018F00020930201121614F49F301CF081958093FE
:101900000101DF91CF911F910F91089519821882E3
:101910001A82DCCFCF92DF92EF92FF920F931F9348
:10192000CF93DF93CDB7DEB72E970FB6F894DEBF17
:101930000FBECDBF8D879E87AD85BE8514961C9149
:10194000212F30E0D9010E942A299B01AC010E947D
:10195000402969837A838B839C83E0E2F0E0E11B7A
:10196000F109A5E5B0E09B01AC010E94402969871F
:101970007A878B879C879F01DF010E9422299B0128
:10198000AC010E944B296D837E838F8398879B01D6
:10199000AC0189819A81AB81BC81280F391F4A1F14
:1019A0005B1F69857A858B859C850E94F328F22EC2
:1019B000422F50E099E29F1508F442C0A3E02A9F0D
:1019C0009001112435952795122F109591EFC92E6E
:1019D00091E0D92E00E085E5E82EEF188E2D01FD6F
:1019E0008F2D9601412F6091A8020E94B5070F5FCD
:1019F000B3E0CB0ED11C003189F70E94430BED857B
:101A0000FE85948181E0992319F0903219F48FEFCB
:101A10008093000180910001890FAD85BE851496E9
:101A20008C932E960FB6F894DEBF0FBECDBFDF911C
:101A3000CF911F910F91FF90EF90DF90CF9008957D
:101A400085E590E0841B950B9C01220F331F280F26
:101A5000391F37FFB7CF2F5F3F4FB4CF9091A6020A
:101A600090FF0CC0E1EFF1E0818360834283339605
:101A700092E0E132F907C1F70C94430B08950F93FC
:101A80001F93CF93DF9300D00F92CDB7DEB78C01B9
:101A90008091EE0181110AC09E012F5F3F4F4FEFF1
:101AA0006FEF0E94B5078A818093EE01F80164818F
:101AB000613049F06230F1F08091EE0140E0662340
:101AC00031F040E019C06091EE0140E080E00E94FA
:101AD0002E0DF801848190E0019663E070E00E9491
:101AE000DF2884830F900F900F90DF91CF911F918B
:101AF0000F9108954091EE0180E060E0E8CFCF9330
:101B0000DF9300D00F92CDB7DEB79091A60290FF81
:101B10000FC09E012F5F3F4F0E94B5074B81698127
:101B20008A810F900F900F90DF91CF910C942E0D22
:101B30000F900F900F90DF91CF910895CF93DF9387
:101B4000EC01EC81F0E0E555FB4F4491E6EAF2E070
:101B5000628181810E947F0D8C818F5F8C83DF91F8
:101B6000CF910895CF93DF93EC01E6EAF2E0438151
:101B700062818C810E947F0D8C818F5F8C83DF91CD
:101B8000CF91089581E08093E00080E28093D800B7
:101B90001092C9008FE19EE40197F1F700C00000A8
:101BA00087E090EBDC018093EB029093EC02A09332
:101BB000ED02B093EE0288E19CE00FB6F894A89590
:101BC000809360000FBE90936000FFCFCF93DF93B0
:101BD000D82FC92F80911A018823C1F18091B002BA
:101BE00087FF34C060E284E08093E9008FEF90913A
:101BF000E800815095FD06C095ED9A95F1F700003B
:101C00008111F5CF8091E80085FF1DC080911A01F8
:101C100070E050E040E0811104C050E040E068E036
:101C200070E08D2F9C2F0E94880A8091E8008E77AB
:101C30008093E80080E2ED2FFC2FA9ECB1E0019049
:101C40000D928A95E1F7DF91CF91089568E081E0E8
:101C5000CBCF24E02093E9002FEF3091E800215012
:101C600035FD06C035ED3A95F1F700002111F5CFAD
:101C70002091E80025FF0BC050E040E066E070E0F6
:101C80000E94880A8091E8008E778093E80008958A
:101C90008093C6017093C8016093C7018091400290
:101CA0008430F9F48093E9008FEF9091E80081503F
:101CB00095FD06C095ED9A95F1F700008111F5CFDD
:101CC0008091E80085FF0DC050E040E063E070E0E7
:101CD00086EC91E00E94880A8091E8008E778093DC
:101CE000E8000895BC0183E00C94480EBC0184E038
:101CF0000C94480E4F925F926F927F928F929F92B8
:101D0000AF92BF92CF92DF92EF92FF920F931F9309
:101D1000CF93DF9310E000E036E9632E712CE801E9
:101D2000CC0FDD1F58011CC0F60185909490692DE1
:101D3000C7010E946729682DC70101960E94672983
:101D400022E0C20ED11C32E0E30EF11C4E145F04FF
:101D500059F76E968FE0A80EB11CC615D70581F015
:101D6000C501880F991F9C012D5A3D4F69017E01C5
:101D700038E2E30EF11C2E0186E4480E511CD4CF4C
:101D80003E0126E9620E711C055B1F4F0C3231E0EB
:101D9000130729F6DF91CF911F910F91FF90EF90DC
:101DA000DF90CF90BF90AF909F908F907F906F907B
:101DB0005F904F900895682F86E090E00C9467291B
:101DC000CF93C82F6FEF811162E283E290E00E940F
:101DD00067296FEFC11164E084E290E00E946729F7
:101DE0006FEFC11165E285E290E0CF910C94672915
:101DF000CF93DF93C0E8D2E060E0CE010E94672974
:101E00002196C11584E0D807B9F7DF91CF910895E5
:101E100080E00E94E00E60E087E290E00E94672987
:101E200060E086E290E00E9467290E947A0E0E949C
:101E3000F80E81E00C94E00ECF9384E090E00E94D5
:101E40005329C82F82E290E00E945329982F8C2FAB
:101E5000CF91089583E290E00E945329823289F461
:101E600084E290E00E945329843059F485E290E0A6
:101E70000E94532991E0853209F090E0892F81700A
:101E8000089580E0FCCF0F931F93CF93DF93C42F6F
:101E9000D0E0CC0FDD1F2EE1629FC00DD11D1124BB
:101EA00036E9839FC00DD11D1124CE0188960E9472
:101EB0005329082F10E0102F0027CE0189960E9489
:101EC00053299801282BC901DF91CF911F910F91C0
:101ED0000895462F672F843030F4753020F44F304A
:101EE00010F40C94430F90E080E00895DF92EF929D
:101EF000FF920F931F93CF93DF937C010091AE026B
:101F00008091AD02082BC7E0D0E010E0DC2EC801C4
:101F10000C2E02C0959587950A94E2F780FD0CC0BF
:101F20002197A0F7D12C8D2DDF91CF911F910F918B
:101F3000FF90EF90DF900895B7018C2F0E94690FFA
:101F40000E940C05019761F3EECF0F931F93CF937F
:101F5000FC01828100811181882389F0662379F058
:101F6000C8010E94760FC82F682FC8010E94F9038C
:101F7000B8018C2FCF911F910F910C94690FC8015C
:101F80000E942704C82FF4CFCF93DF93D82FC92FF7
:101F90000E94760F6D2F7C2F0E94690FDF91CF91E9
:101FA0000C940C050E94C40F282F92959F709630B8
:101FB00091F060F4925F9F70923030F481E0203FA6
:101FC00081F030F4283E30F080E008959A5FF3CF3E
:101FD000243FD1F7089581E0283EE0F3213FA1F7A7
:101FE000F9CF08958091AB029091B202892B809332
:101FF00098019091AC029923A1F0892B80939801CC
:1020000080911A018823D9F18091B00287FF37C0EF
:102010008EE1EAE9F1E090E0815098F591110E949B
:10202000C30440E250E06AE572E088E991E00E9472
:10203000A829892B59F180E2E8E9F1E0AAE5B2E0AC
:1020400001900D928A95E1F7E0915802F0915902C2
:102050003097E1F080911A01882359F08091B00205
:1020600087FF07C0809198018093990186E0809353
:1020700098010280F381E02D88E991E0099486E0DF
:10208000C8CF2191222341F29F5FC6CF0895CF93FD
:10209000C82F882309F4AEC08238C1F40E944209D7
:1020A00081FDA8C089E30E945A040E94F20F2FEF1D
:1020B00031EE84E0215030408040E1F700C0000064
:1020C00089E30E948E04CF910C94F20F8338A1F41F
:1020D0000E94420980FD8EC083E50E945A040E943E
:1020E000F20F9FEF21EE34E0915020403040E1F7B5
:1020F00000C0000083E5E5CF8438A1F40E944209C6
:1021000082FD78C087E40E945A040E94F20F8FEF8C
:1021100091EE24E0815090402040E1F700C00000A3
:1021200087E4CFCF8CEF8C0F813A90F580911A0124
:10213000882301F18091B00287FF1CC0EC2FE69547
:10214000E695E695F0E0E856FE4F828190E04C2F50
:10215000477021E030E002C0220F331F4A95E2F7BA
:1021600082239323892B81F08C2F0E948E040E945E
:10217000F20F0AC0EAE9F1E080EA91E02191C2178A
:1021800099F38E179F07D1F78C2F0E945A049BCF8B
:1021900080E28C0F883068F4C77021E030E001C025
:1021A000220FCA95EAF78091AB02822B8093AB0293
:1021B0008ACF8BE58C0F833038F42C2F2452330BCD
:1021C000C901CF910C944E09E8E5EC0FE73150F4CA
:1021D000F0E0EE0FFF1FE959FE4F80819181CF9112
:1021E0000C946409C03F30F08C2F0E94F306CF910D
:1021F0000C948609CF910895882309F452C082383F
:1022000071F40E94420981FF4CC089E30E945A0484
:102210000E94F20F89E30E948E040C94F20F83381F
:1022200059F40E94420980FF3CC083E50E945A0491
:102230000E94F20F83E5EFCF843859F40E944209DF
:1022400082FF2FC087E40E945A040E94F20F87E4A5
:10225000E2CF9CEF980F913AF0F290E2980F98300D
:1022600050F4877091E001C0990F8A95EAF7892FA1
:102270000E94BB04D2CF9BE5980F933020F490E0EE
:1022800080E00C944E0998E5980F973120F490E087
:1022900080E00C946409803F20F00E943C070C947D
:1022A000860908950F931F93CF93C82F10E000E085
:1022B000893311F400E510E08C2F0E9447100115BE
:1022C000110531F48C2FCF911F910F910C94FC10BC
:1022D0008FE99FE00197F1F700C00000015011095C
:1022E000EECF882339F09091AB02892B8093AB021B
:1022F0000C94F20F0895882321F00E94BB040C94E3
:10230000F20F0895FF920F931F93CF93DF93C62F81
:10231000D42F122F8823A9F06093A2020E947A0979
:102320009093B9018093B801C77081E001C0880F14
:10233000CA95EAF7DF91CF911F910F91FF900C940E
:1023400071118091A202681334C08091B8019091FC
:10235000B9010E94AC09883C910558F500E20D0FC7
:10236000CD17A9F0C770FF24F3948F2D01C0880FFB
:10237000CA95EAF70E947B11083048F48D2F8770C8
:1023800001C0FF0C8A95EAF78F2D0E947111812FF1
:102390000E9452110830A0F4D77081E001C0880F6C
:1023A000DA95EAF7DF91CF911F910F91FF900C948E
:1023B0007B11C77081E001C0880FCA95EAF7F2CFA0
:1023C000DF91CF911F910F91FF90089590E080E0F1
:1023D0000E944E0990E080E00E9464091092B202CF
:1023E0000E94F20F86E0EBE9F2E0DF011D928A9590
:1023F000E9F710929A0210929902109298020C94A6
:1024000086091092AB0280911A01EAE9F1E0882373
:1024100059F08091B00287FF07C08EE1DF011D9265
:102420008A95E9F70C94E61186E0F8CF1F93CF93D5
:10243000DF93CDB7DEB7AA970FB6F894DEBF0FBE15
:10244000CDBF8EEB91E0FC0101962091F10020833D
:1024500021E0863C9207B9F78091BF01893009F4E9
:1024600056C0C8F4823009F4B3C0833009F482C086
:10247000813071F18091E80083FF84C28091BE01B8
:102480009091BF019A3008F07DC2E92FF0E0E95346
:10249000F64D0C9415298A3009F489C08B3051F718
:1024A0008091BE01813231F78091C2019091C301C8
:1024B000892B01F78091E800877F8093E8000E94D4
:1024C000190A8091C00180931A010E940112D2CF93
:1024D0008091BE01813A71F68091E800877F8093F8
:1024E000E8008091C2019091C301892B61F460E200
:1024F00089EC91E070E00E94BF098091E8008B7741
:102500008093E800B7CF60E090E080E0F3CF809167
:10251000BE01813209F0AECF8091C2019091C3011A
:102520008D7F892B09F0A6CF8091E800877F80936B
:10253000E8008091E80082FF18C09091F30080913C
:10254000F200029731F48091F100813011F0863071
:1025500021F48091F1008093E9018091E8008B776C
:102560008093E8000E94190A85CF80914002811172
:10257000E0CF80CF8091BE01813A09F07BCF80917E
:10258000C2019091C301892B09F074CF8091E800BA
:10259000877F8093E8008091E80080FFFCCF8091E6
:1025A0001A018093F1008091E8008E77D9CF809155
:1025B000BE01813209F05ECF8091E800877F809371
:1025C000E8000E94190A8091C1018093BA0152CF9C
:1025D0008091BE01813A09F04DCF8091E800877F5C
:1025E0008093E8008091E80080FFFCCF8091BA01E1
:1025F000D8CF803899F0823809F0C4C18091C201E7
:102600008F70873008F0BEC18093E9008091EB00A5
:1026100085FB882780F91092E90006C08091BB01F4
:1026200090912502911182609091E800977F90939C
:10263000E8008093F1001092F1008091E8008E771D
:102640009DC1882309F48BC1823009F09BC1809120
:10265000C00181118EC18091C2018F702FEF280FB0
:10266000263008F08FC18093E9002091EB0020FF15
:1026700080C1933031F48091EB0080628093EB0055
:1026800078C19091EB0090619093EB0021E030E0F5
:1026900001C0220F8A95EAF72093EA001092EA001F
:1026A0008091EB008860EACF81116CC11091C0016C
:1026B0001F778091E3008078812B8093E3008091E5
:1026C000E800877F8093E8000E94190A8091E80063
:1026D00080FFFCCF8091E30080688093E30082E07C
:1026E000111183E0809340024DC18058823008F080
:1026F00049C14091C0015091C1014C3D83E0580750
:1027000099F583E08A838AE289834FB7F894DE01E2
:10271000139620E03EE051E2E32FF0E050935700A3
:10272000849120FF03C082958F703F5F8F708A3045
:10273000C8F0895C90E08D939D932F5F243161F701
:102740004FBF8091E800877F8093E8006AE270E0E5
:10275000CE0101960E94BF098091E8008B7780939B
:10276000E80010C1805DE6CF8091C2019091C30165
:10277000252F33272330310509F44AC078F521305D
:10278000310509F479C08BE590E0E4ECF1E022300A
:10279000310509F0F7C02091E800277F2093E80079
:1027A0002091C4013091C5018217930708F49C0160
:1027B00040E02115310509F064C0411162C08091EB
:1027C000E80082FDC9CF80914002882329F285303C
:1027D00019F28091E80083FFF2CFBECF213231059C
:1027E00009F43BC02232310509F0CCC08330910599
:1027F00008F0C8C0FC01EE0FFF1FEE5DFE4F019018
:10280000F081E02D815E9E4FDC018C9190E011C043
:10281000CA019927413089F082309105B1F0892BA6
:1028200009F0B0C0EFE4F2E0E4918E2F90E0EFE425
:10283000F2E0009709F4A6C0AECFEDE3F2E0E49138
:102840008E2F90E0EDE3F2E0F4CFE1E3F2E0E491EB
:102850008E2F90E0E1E3F2E0ECCF8330910508F0B9
:1028600091C0880F991FFC01E85DFE4F0190F08137
:10287000E02D89E090E08FCF82E190E0EFE1F2E09F
:102880008ACF80914002882309F466CF853009F40D
:1028900063CF8091E80083FD5FCF8091E80082FDE7
:1028A0008ECF8091E80080FF84CF9091F3008091DB
:1028B000F2002115310519F08830910550F041E002
:1028C000089709F040E08091E8008E778093E80057
:1028D00070CF44914093F100319621503109019617
:1028E000E8CF803809F04EC08091E800877F809360
:1028F000E8008091BC018093F1009FCE811142C01D
:102900001091C0011230F0F58091E800877F80932C
:10291000E8001093BC010E94190A112311F084E011
:1029200005C08091E30087FDFACF81E080934002EB
:1029300042E061EC81E00E94B20A42E261EC84E094
:102940000E94B20A42E261EC82E00E94B20A42E2D4
:1029500060EC83E00E94B20A8091400213C0809133
:10296000C001813079F481E0933009F080E08093F8
:1029700025021092E9008091E800877F8093E800AB
:102980000E94190A8091E80083FF0AC08091E80044
:10299000877F8093E8008091EB0080628093EB005A
:1029A000AA960FB6F894DEBF0FBECDBFDF91CF91D0
:1029B0001F9108958093AD020C94E6118093AE02AE
:1029C0000C94E61121E030E001C0220F8A95EAF76D
:1029D0008091AE02822B0C94DE1421E030E001C025
:1029E000220F8A95EAF720958091AE0282230C94FB
:1029F000DE149091AF02809589238093AF02282F37
:102A0000277091F4282F082E000C330B9217130611
:102A100059F09091B10292FD07C0859585958595F5
:102A20000E94ED141092AF020895CF93C091B102AD
:102A3000C2FB992790F9981799F080FBC2F9C093CF
:102A4000B1026091B00284E090E00E9467296C2F8F
:102A500082E290E00E94672982E0CF910C94F91401
:102A6000CF9108958091AE02982F9670963019F408
:102A700088600C94DE14877FFCCF4F925F926F9238
:102A80007F928F929F92AF92BF92CF92DF92EF92FE
:102A9000FF920F931F93CF93DF93CDB7DEB72A97A3
:102AA0000FB6F894DEBF0FBECDBFFE0131968AE0AF
:102AB000DF011D928A95E9F793E5E92E91E0F92E61
:102AC0008F0128E5622E21E0722E2F01AA24A39403
:102AD000B12C47E6842E41E0942EF70181917F01CD
:102AE0008F3F09F445C0F894E82FE295EF70F0E0CD
:102AF00021A18F70A50102C0440F551F8A95E2F7EE
:102B0000CA01922F982B91A392A18095892382A329
:102B1000789400C0E8E5F1E021E030E0D12CC12C50
:102B200041914F3F09F45DC0A42FA295AF70A05E04
:102B3000B0E08C9190E04F7002C0959587954A95D2
:102B4000E2F780FD4EC0C901C82AD92A220F331FDF
:102B50008E169F0629F7F701319780818F3F11F07C
:102B60000E94970650EA5A95F1F7D801CD92DC926F
:102B70000E5F1F4F6E147F0409F0AFCF4AE050E0A4
:102B8000B2018EE492E00E94A8299C0111E0892BF9
:102B900009F410E0232B41F18AE0F201AEE4B2E047
:102BA00001900D928A95E1F781E0809343020E94A3
:102BB0007A09909342028093410280914102909160
:102BC00042020E94AC09059798F08AE0EEE4F2E038
:102BD000A4E4B2E001900D928A95E1F710924302CD
:102BE00007C080E090E0B0CF809143028111E5CF33
:102BF000812F2A960FB6F894DEBF0FBECDBFDF91AE
:102C0000CF911F910F91FF90EF90DF90CF90BF90E9
:102C1000AF909F908F907F906F905F904F900895AE
:102C20000F931F93CF93DF938B01D82FC92F0E944F
:102C30005608A8016D2F7C2F88E090E0DF91CF919E
:102C40001F910F910C947929E6EAF2E083E08083EA
:102C500011828FEF82838383148263E070E08FEFB1
:102C60009FEF0C941016CF93DF9300D000D0CDB718
:102C7000DEB78091AA02833018F48F5F8093AA0296
:102C80008091A6029091A702A091A802B091A902FA
:102C900089839A83AB83BC83BC01CD010F900F90D5
:102CA0000F900F90DF91CF910C941016CF93DF937C
:102CB00000D000D0CDB7DEB78091AA02882319F0EA
:102CC00081508093AA028091A6029091A702A091C0
:102CD000A802B091A90289839A83AB83BC83BC010B
:102CE000CD010F900F900F900F90DF91CF910C942A
:102CF00010167F928F929F92AF92BF92CF92DF92E7
:102D0000EF92FF920F931F93CF93DF9300D000D0E9
:102D100000D00F92CDB7DEB7182FF62E042FE22E7B
:102D20009091A60290FF81C0E92FE695AE2FB0E00A
:102D3000A25DBE4F8C918093A4029E7F9230B9F524
:102D40009E012F5F3F4F812F0E94B5074B81698104
:102D50008A810E942E0D1093A702F092A802009380
:102D6000A902EE2009F461C08091A6029091A70209
:102D7000A091A802B091A9028C839D83AE83BF83EA
:102D8000BC01CD0127960FB6F894DEBF0FBECDBFB4
:102D9000DF91CF911F910F91FF90EF90DF90CF9037
:102DA000BF90AF909F908F907F900C9410168230C0
:102DB00019F40091A902CFCF863019F41091A7021F
:102DC000CACF8930D9F3893131F6E9512E2F2170DC
:102DD000722EE695F0E0E555FA4F8590949099248F
:102DE00031EFC32E31E0D32EB12CA12CC50124E04C
:102DF000969587952A95E1F7711013C0810F96017A
:102E0000402F6F2D0E94B507A80CB91CB3E0CB0E64
:102E1000D11C21E2C21622E0D20641F70E94430BE8
:102E20009ACFA12FA81B8A2FEACF27960FB6F89426
:102E3000DEBF0FBECDBFDF91CF911F910F91FF90ED
:102E4000EF90DF90CF90BF90AF909F908F907F904A
:102E50000895E6EAF2E0818121E043816281885FA2
:102E60000C947916E6EAF2E0818121E043816281E7
:102E700088500C947916E6EAF2E0628128E0620F4D
:102E800008F46FEF21E0438181810C947916E6EA22
:102E9000F2E0628128E0621B08F460E021E04381F7
:102EA00081810C947916E6EAF2E0438128E0420F32
:102EB00008F44FEF21E0628181810C947916E6EAF3
:102EC000F2E0438128E0421B08F440E021E0628107
:102ED00081810C94791669EE7EEF90E080E00E948B
:102EE000852960E082E090E00E94672960E083E04D
:102EF00090E00E9467291092AD0260E084E090E0CB
:102F00000E94672960E082E290E00E94672960E009
:102F100085E090E00E94672960E086E090E00E94F2
:102F200067296FEF87E090E00E94672940E050E05A
:102F3000BA0188E090E00E94792960E08DE090E09D
:102F40000E94672940E050E0BA0188E190E00E94C9
:102F5000792960E087E190E00E94672940E050E035
:102F6000BA018CE190E00E94792970E060E080E293
:102F700090E00E94852940E050E0BA0188E190E0AD
:102F80000E94792980E00E94E00E0E94080F40E034
:102F900050E0BA018FE090E00E94792940E050E0D3
:102FA000BA0183E190E00C94792990E080E00E94DE
:102FB0006129893E9E4F11F40C942A0F80E00895F8
:102FC0000E94D51781110AC00E946B178091A1023F
:102FD000847089628093A1020E94DB0E86E090E0FB
:102FE0000E9453298093A102803320F08770886269
:102FF0008093A1029091A102892F817090FF04C05B
:10300000892F8695869586950C946A086091A6020C
:10301000669570E04BE050E083E091E00E949B29D0
:10302000892B19F481E08093A5020E947A0990937C
:103030003202809331020895CF93DF9300D000D005
:10304000CDB7DEB79091A60290FF45C08823E1F18D
:103050008532E0F58F77880F9091A6029170892BC9
:103060008093A602662381F08091A6029091A70228
:10307000A091A802B091A90289839A83AB83BC83F3
:10308000BC01CD010E9410166091A602669570E009
:103090004BE050E083E091E00E949B29892BC1F036
:1030A0001092A50281E08093340220E04091A902B1
:1030B0006091A8028091A7020F900F900F900F903F
:1030C000DF91CF910C94791681E0C5CF84E2C3CF14
:1030D0000E940618E7CF0F900F900F900F90DF918E
:1030E000CF9108958091A60286958F5F853208F072
:1030F00081E061E00C941C189091A60296958FEFE8
:10310000890F913009F484E261E00C941C189091CD
:10311000A60290FF07C09695981720F0961710F416
:103120000C94721861E00C941C183F924F925F92BD
:103130006F927F928F929F92AF92BF92CF92DF92C7
:10314000EF92FF920F931F93CF93DF93CDB7DEB72C
:1031500028970FB6F894DEBF0FBECDBF7C01DC010F
:103160009C9111968C91119713962D913C91232B44
:1031700021F089238F3F09F057C628960FB6F8949F
:10318000DEBF0FBECDBFDF91CF911F910F91FF909A
:10319000EF90DF90CF90BF90AF909F908F907F90F7
:1031A0006F905F904F903F900895980122513F4556
:1031B0002031310508F0E6C58FEF93E00E945329D6
:1031C000025140E8842E42E0942E882399F18091A8
:1031D000AF02877091F2F7018281882371F28091AA
:1031E000B10282FDCACF82E028960FB6F894DEBF06
:1031F0000FBECDBFDF91CF911F910F91FF90EF9048
:10320000DF90CF90BF90AF909F908F907F906F9006
:103210005F904F903F900C94F9148114B4E09B069A
:10322000B1F2C4010E945329811101C00150EFEF96
:103230008E1A9E0A0111F1CF80911B0190911C0101
:10324000A0911D01B0911E0189839A83AB83BC8339
:10325000442443943AE0332E84010F5F1F4FC4018E
:103260000E94532989831A82882309F4B0CF9FEFE3
:10327000980F933010F58A834982F2E08F0E911CEB
:10328000C8010E9453298B83882309F4A0CF8E01A3
:103290000F5F1F4FD8012C912223F1F2213009F04A
:1032A00047C011969C91119712968C91913039F4E8
:1032B0000E5F1F4F0E94521108C04801E8CF9230A4
:1032C00039F40E5F1F4F0E9447100F5F1F4FE2CF70
:1032D000933029F40E5F1F4F0E94FC10F6CF9430FC
:1032E00019F00F5F1F4FF1CF0E5F1F4F20E030E04E
:1032F000A8014F5F5F4F8053990B8A30910560F0B2
:103300002115310511F38FE99FE00197F1F700C016
:10331000000021503109F4CF329EB001339E700D70
:1033200011249C01260F371FF80181818A01E0CF0B
:10333000E22FF0E0EE50F94F5490822F869586955B
:10334000869590E0FC01EE51F94FE4912770F0E092
:10335000022E02C0F595E7950A94E2F73F01A1E03D
:103360006A227724FC01EE52F94FA490B12C022E70
:1033700002C0B594A7940A94E2F7B1E0AB22BB2453
:10338000FC01EE53F94FC490D12C02C0D594C794E0
:103390002A95E2F7E1E0CE22DD246114710419F0F0
:1033A00081EE0E944710A114B10419F086EE0E942C
:1033B0004710852D0E945211AB2819F086EE0E940D
:1033C000FC10672819F081EE0E94FC10CD2809F44A
:1033D0007CCF8CE26FCF81E00E94E2140E94321514
:1033E000F6CE81E00E94ED14F9CF82E0F5CF0F3BDD
:1033F000BCE51B0709F46DC0003CECE51E0709F4B1
:103400008BC0033FFCE51F0709F4B4C008F098C067
:10341000083D3CE5130709F4A9C028E241E0093D55
:103420009CE5190709F4A4C026E241EE61EE073DD0
:10343000ACE51A0709F497C08111C4C40631ECE564
:103440001E0709F086C19091AB02882309F477C169
:10345000892F8A7A91E009F490E09093A302811178
:103460006CC189E20E945A040E94F20FB0CE85E03E
:103470000E942C098091A1020E94DB0EA8CE80E060
:10348000F7CF8091A102982F987F09F43FC0885010
:103490008093A102887F91E009F490E08091A102DD
:1034A00090FB80F913C08091A102982F9695969574
:1034B0009695883240F49F5F990F990F990F877006
:1034C000892B8093A1028091A10281608093A10247
:1034D0001BC08091A10280FF09C08E7F8093A10252
:1034E0000E94DB0E80E00E946A0871CE8091A102EA
:1034F00080FD6DCE81608093A102813019F489E056
:103500008093A1028091A1020E94DB0E8091A10212
:10351000869586958695E7CF9091A102892F86950D
:10352000869586958F5F8F719770863020F4880F0F
:10353000880F880F982B9093A1028091A102AACFA7
:10354000053FBCE51B07D1F027E245EE66EE063FDE
:10355000ECE51E0741F027E245EE64EE043FFCE592
:103560001F0709F069CF0E94821131CE27E245EE94
:1035700065EEF9CF26E241EE60EEF5CF26E241EEB0
:1035800062EEF1CF98012A5F3C452930310508F4FD
:103590002BC40631FCE51F0709F455CF05C0053AD9
:1035A000BDE51B0709F420C40A35BDE51B0709F07A
:1035B000B0C181E0CCC1F801E350FC458091B0027C
:1035C0008160E331F10530F5EF52F64D0C94152989
:1035D00003302DE5120778F40A3F3CE5130708F4A1
:1035E00013C4F801EB5FFC45E830F10510F5EC5130
:1035F000F64D0C94152901368DE5180709F496C08F
:103600009091B002892F8E7F90FF8160053A1D4511
:1036100009F0FAC38093B002F7C38091B0028260D0
:10362000F9CF8091B0028460F5CF8091B0028860BC
:10363000F1CF8091B10281608093B102E5C38091A6
:10364000B1028260F9CF8091B0028061E3CF8091B6
:10365000B0028062DFCF8091B0028064DBCF0E9435
:1036600001128091B0028068D5CF8091B0028C6049
:10367000D1CF8091B1028360DFCF8091B0028E7F85
:10368000C9CF8091B0028D7FC5CF8091B0028B7F72
:10369000C1CF8091B002877FBDCF8091B1028E7F74
:1036A000CBCF8091B1028D7FC7CF8091B0028F7E4A
:1036B000B1CF8091B0028F7DADCF8091B0028F7B72
:1036C000A9CF0E9401128091B0028F77A3CF809181
:1036D000B002837F9FCF8091B1028C7FADCF80916C
:1036E000B00282FB992790F921E0922790FB82F9A2
:1036F00090FB83F98FCF8091B102982F90959170B4
:103700008E7F892B90FB81F997CF0E9401129091B7
:10371000B002892F97FB87F980587CCF61E08EE05B
:1037200090E00E94672970C360E0F9CF9091B002E9
:10373000892F8F7E94FF80616DCF85E393CE80913A
:10374000A302811104C089E20E948E048DCE85E31C
:10375000FBCF8091AB028272063DACE51A0778F48C
:10376000023CBCE51B0778F0F801E35CFC45E33163
:10377000F10508F050C0E451F64D0C9415290D35B3
:103780001D4509F424CDD70112968C911297CD9046
:10379000DC90882309F4EDC0C6010E94760F182F33
:1037A000682FC6010E94F903B601812F0E94690F9C
:1037B0000E940C058C01F7019280858082942FE095
:1037C00082228091AF028770C1F0C92C9920B1F09C
:1037D000812F807F803421F080E2800F883068F074
:1037E0008091B10282FD09C082E00E94F9148091AB
:1037F000AF028770CC24C3948111C12C812F829594
:103800008F70A82EB12C8C3008F020C1F501E1504A
:10381000F64D0C9415298091A60280FF21C08E7F61
:103820008093A6028091A6029091A702A091A8027F
:10383000B091A9028D839E83AF83B887BC01CD016F
:103840000E9410161092A5029FEFA0E7B2E09150DF
:10385000A040B040E1F700C000000E94430BB7CC8D
:1038600081608093A60261E086950E941C18AFCC0F
:103870004CE758E162E778E10E946508A8CC42E78E
:1038800058E16CE778E1F8CF42E357E169E277E18C
:10389000F3CF49E257E162E377E1EECF47E457E146
:1038A0006BE377E1E9CF4BE357E167E477E1E4CFFE
:1038B0004FE557E163E577E1DFCF43E557E16FE59A
:1038C00077E1DACF46E556E163E376E1D5CF43E32E
:1038D00056E166E576E1D0CF61E081E0C6CF65E0F4
:1038E00082E00E94871873CC68E086E0FACF6EE031
:1038F00089E0F7CF64E18FE0F4CF67E185E1F1CFB4
:1039000061E088E1B2CF62E289E1EBCF61E083E27E
:10391000ACCF0B35EDE51E0758F40115FCE51F078C
:10392000C9F00E3D1C4509F02ECF0E946B174FCCFD
:103930000B353DE51307D9F00C351D4509F023CFB4
:103940008091B10282FB882780F991E089270E944B
:10395000151519CF0E9401129FEFA4E3BCE091500E
:10396000A040B040E1F700C000000E94C20D80E01E
:10397000EECFC6010E942704182F16CFF12FFF703B
:10398000DF2E107F19F0D29490EFD9229920B9F050
:10399000DD2069F080E2800F883010F0011109C04D
:1039A0008091AB028D298093AB020E94F20F802F91
:1039B0004BC08091B2028D298093B202F6CF802F46
:1039C0000E94FC10DD2009F441C080E2800F8830A5
:1039D00010F0011104C08D2D0E94BB0406C0D094CC
:1039E0008091B2028D218093B2020E94F20F2EC00C
:1039F000212F2F70D22E107F103219F0D29480EF29
:103A0000D822002381F0013009F488C0992009F4FC
:103A100092C0882009F488C0F701858180FFC7CF54
:103A20008F70858381C02091B10222FF54C09920FC
:103A300009F44AC0DD2039F08091AB028D298093D2
:103A4000AB020E94F20F80E00E94471038E0A31AF8
:103A5000B10884E0A816B10420F40E9442090E9433
:103A6000F303CC20B1F08091AF0280FD12C0D701EA
:103A700012961C928595859585950E94E214C70142
:103A80000E9495188091AF028595859585950E9435
:103A9000ED1460E0C70128960FB6F894DEBF0FBEA4
:103AA000CDBFDF91CF911F910F91FF90EF90DF90ED
:103AB000CF90BF90AF909F908F907F906F905F90CE
:103AC0004F903F900C94A50F80E00E94FC10DD20E9
:103AD00009F4BCCF80CF9920A1F09091AC028D2D3C
:103AE000892B811003C00E947111B0CF31E0831285
:103AF000FACF22FDABCF981709F4A8CF8093AC0280
:103B0000A5CF811006C00E94C3048D2D0E947B1199
:103B10009DCF81E0881609F499CFF5CF992031F037
:103B200095E0981508F492CF8D2DDDCFA4E0A8156F
:103B300008F48CCFEACF882041F3093349F4FFEF32
:103B400027EE33E0F15020403040E1F700C00000A4
:103B5000802F0E94FC107ACF812F869586958370E6
:103B600061F0813009F072CFC8019370911002C0EA
:103B700090E080E00E94640969CFC80193709110C1
:103B800002C090E080E00E944E0960CF802F992013
:103B900029F00E94F3060E94860958CF0E943C0734
:103BA000FACF812F8370A1F5911050CF802F82958D
:103BB00086958770880F880F402F4F70082E01C0A0
:103BC000440F0A94EAF7202F207104FF07C02FE06A
:103BD00030E001C0220F8A95EAF7209516951695D8
:103BE0001370123081F0822F842B133031F08091CA
:103BF000AD02113029F0242B82230E94DA1426CF43
:103C0000842B822BFACF242B8091AD028227F5CF13
:103C1000992061F110FF1ACF802F829586958770C9
:103C2000880F880F402F4F70082E01C0440F0A9450
:103C3000EAF7202F207104FF07C02FE030E001C019
:103C4000220F8A95EAF72095169516951370123073
:103C500099F0822F842B133031F08091AE02113015
:103C600041F0242B82230E94DE14F0CE11FFEECE11
:103C7000D3CF842B822BF7CF242B8091AE028227C7
:103C8000F2CF1F70992029F0812F0E94E214802F1B
:103C90002ACF802F0E947B11812F0E94ED14D6CE57
:103CA000023F81F160F4003FB9F0013F81F09920BB
:103CB00009F458C081107BCE812F8F7127C0033F3C
:103CC00041F1043FA1F78091B10282FF2DC0812F05
:103CD0008F71992011F31AC0992079F084E088152A
:103CE00008F4B4CE1F7181E090E001C0880F1A95EE
:103CF000EAF79091AE028927B6CF95E0981508F4BF
:103D0000A5CEF0CF812F8F719110C7CF0E94E21402
:103D10009DCE80E0992009F4A6CF1F7181E001C0FB
:103D2000880F1A95EAF79FCF992089F01F71812F8C
:103D30000E94E2148091B10282FD07C0A8E01A9FA0
:103D4000C001112483608093AF02812FDFCF81E017
:103D50000E94F914B1E0B81508F078CE82E00E9414
:103D6000F91474CE882059F0093309F0F1CEEFEF41
:103D7000F7EE23E0E150F0402040E1F7E7CE812F5D
:103D80008F718BCF0031BFE51B0709F424CB0131C4
:103D9000EFE51E0709F429CB0E3BFCE51F0709F4EC
:103DA00082CB08F024CB0C3B3CE5130709F467CB2E
:103DB0000D3B9CE5190709F464CB0B3BACE51A07F6
:103DC00009F455CB1092A20201362DE5120761F0DD
:103DD00008F0E5CB06319CE5190708F0D3CB02309B
:103DE000ACE51A0708F4E0CB0E941C0F9093B102D7
:103DF0008093B0020631ECE51E0708F0E9CB0230F3
:103E0000FCE51F0708F0D7CB6091B0021091B1021A
:103E100084E090E00E946729612F82E290E00E9496
:103E200067290E940112D3C961E0C7010E94A50F52
:103E30008C01D70112968C918111B7C90031FFE531
:103E40001F0709F4CECA01312FE5120709F0D9CABC
:103E500082E0C8CA1F93CF93DF938091EA02807FEC
:103E6000A9F48091E702882389F08091B402C0917F
:103E7000B3027091E5026091E602A091E802B09170
:103E8000E902D62FD72316E0C81304C0DF91CF91E3
:103E90001F91089590E0109711F0DF3F19F40196FB
:103EA0008770F2CF189F9001199F300D1124F901EE
:103EB000EB54FD4F41816413F2CF40814713EFCFA4
:103EC00042814111ECCF438154814A1B5B0B483C3A
:103ED000510528F78091EA028F7080618093EA0291
:103EE000F901E654FD4F80818F708061808385EEFB
:103EF00092E00E949518DF91CF911F910C9450048D
:103F00008F929F92AF92BF92DF92EF92FF920F93A8
:103F10001F93CF93DF93CDB7DEB72B970FB6F894EF
:103F2000DEBF0FBECDBF8C0185E0F801DE01179624
:103F300001900D928A95E1F7F801E280A380B480A8
:103F400085EE882E82E0982E9091E5028091E6021F
:103F50002091E8023091E9022115310529F0482F1E
:103F600049234F3F09F028C1EE2009F433C1F8017D
:103F7000808191810E94D20FF82E882309F42AC1F2
:103F800086E0F801A5EEB2E001900D928A95E1F786
:103F90000E942A1F21C0D090EA024D2D407F283C6C
:103FA000310508F0A8C0F80121814111C3C0FE2CE1
:103FB000281325C08081891322C0E11020C08D2DD7
:103FC0008F7080618093EA0285EE92E00E949518DE
:103FD0008091EA02F80185838F2D2B960FB6F89415
:103FE000DEBF0FBECDBFDF91CF911F910F91FF902C
:103FF000EF90DF90BF90AF909F908F9008953F819A
:10400000AB2829F0822F83238F3F09F090C080E0F6
:10401000F82FF170DF2EE091B4024091B30256E028
:1040200080FD1CC0EE20C1F28091EA028160809385
:10403000EA02F12CD1CF8E2F90E05E9FF001112487
:10404000EB54FD4F6181261306C06081361303C017
:104050006281E612E7CF0196E82FE770E413EBCF19
:104060008F8198850E94C40F292F22952F7090323E
:1040700060F0225F2F70223078F49F7051F0F801C9
:104080009581907F31F4D12C0AC09F7011F0882364
:10409000D1F3805E8830B8F3C8010E949518FD2CDA
:1040A0009BCFF801808191810E94D20F882309F46F
:1040B00091C0EE2009F48EC08091EA02803270F047
:1040C0008091E5029091E6029A8389831B82BD82EA
:1040D000AC82DE82CE0101960E94951886E0F8013E
:1040E000A5EEB2E001900D928A95E1F70E942A1F99
:1040F000FF24F39471CF411132C085EE92E00E940B
:10410000951886E0F40111928A95E9F792CFF801AB
:10411000808191810E94D20F8111E0CF8091EA02CB
:1041200081608093EA02C8010E94951855CF81E012
:104130008E256ECF2813B5CFF80180818913B1CFBA
:10414000E110AFCFD582C8010E94951886E0F80132
:10415000A5EEB2E001900D928A95E1F73DCFF8010E
:10416000218182139ECFF801808189139ACFE110BB
:1041700098CFD582C8010E94951886E0F40111926B
:104180008A95E9F729CFF80121818213C0CFF80180
:1041900080818913BCCF8091EA0280FDD7CF982F10
:1041A000907FA1F28583903F71F2982F907F905F6E
:1041B0008F70892B8583C7CFF090E702A501421B42
:1041C000530B9A01F110E7CE283C3105B0F6FE2CD6
:1041D000E110D9CFC8010E9495188ACF1F93CF93C1
:1041E000DF93CDB7DEB767970FB6F894DEBF0FBE8B
:1041F000CDBF342F4B8B252F5C8B962F6D8B7E8BF9
:104200008F8B4E895F8961111092B2021A8A3D87A5
:104210002E879F87598B488B86E0FE013D96DE01F5
:10422000179601900D928A95E1F7CE0107960E94AC
:10423000801F882389F016E08091B4029091B30228
:10424000891349C067960FB6F894DEBF0FBECDBF85
:10425000DF91CF911F91089586E0FE013796DE0130
:10426000119601900D928A95E1F79F8188852091A2
:10427000B3024091B4026A857B85672BE1F2892302
:104280008F3FC9F230E0C90101968770992748171E
:10429000190671F40E9401121092B3021092B40236
:1042A00086E0E5EEF2E0DF011D928A95E9F7C3CFE3
:1042B00096E0929FD001939FB00D1124AB54BD4F57
:1042C000FE01319601900D929A95E1F78093B30229
:1042D0000E945004B0CF819FC00111248B549D4F88
:1042E0000E94801F882309F4ADCF8091B40290E032
:1042F0000196877099278093B4029ECFCDB7DEB721
:10430000A4970FB6F894DEBF0FBECDBF84B7877FEA
:1043100084BF0FB6F894A89580916000886180935F
:104320006000109260000FBE80E890E00FB6F89435
:1043300080936100909361000FBE85B7806885BF50
:1043400085B7806885BF85E996E090939701809353
:1043500096010E94690A0E94E20A8091E20084604C
:104360008093E200789480914002882399F08091B4
:10437000E9001091EC001795112717958F70182BF5
:104380001092E9008091E80083FD0E9416121F70D0
:104390001093E90082E084BD93E095BD9AEF97BD4C
:1043A00080936E000E942A0F811102C00E94080FA4
:1043B00003E511E0A8E5EA2EA1E0FA2ED8018D91DF
:1043C0008D018F3F11F00E949706E016F106B1F7BC
:1043D00008E511E0F7E6EF2EF1E0FF2EF8018191FC
:1043E0008F018F3F11F00E949706E016F106B1F79A
:1043F0008AE0E4E4F2E0DF01282F1D922A95E9F734
:10440000EEE4F2E0DF011D928A95E9F70E94D517EC
:10441000811102C00E946B1782E090E00E94532934
:10442000809326020E941C0F9093B1028093B002E9
:104430000E943D15EFE3FCE93197F1F700C0000061
:104440000E943D158091440280FF08C06FEF7FEF0E
:1044500090E080E00E9485290E94C20D83E090E0F8
:104460000E9453290E94DA14229A2A9A269A2E9898
:1044700082E28093800089E1809381008FEF9FEF3B
:1044800090938700809386000E94E0170E94E017B7
:1044900080912102811133C00E94D517811104C07F
:1044A0000E946B170E94241688E090E00E945B290E
:1044B0006093A6027093A7028093A8029093A9022A
:1044C0006E7F71F40E94241688E090E00E945B29C0
:1044D0006093A6027093A7028093A8029093A9020A
:1044E0000E9456081092A5028091A60280FF04C087
:1044F00060E086950E941C1881E0809321028EE086
:1045000091E0909359028093580268E1862E912C95
:1045100070E4772EEEE4AE2EE2E0BE2E80914002F3
:10452000FF24F39400E112E1853009F4E5C10E9413
:104530003D15882359F08FB7F89440913C02509173
:104540003D0260913E0270913F028FBF54E4E52E20
:1045500052E0F52EE7E2F2E0D70110E000E0702F24
:104560008D919D91219131912817390709F4E9C165
:104570002827392760E0CC24C394D12CA6014223FC
:104580005323452B09F4D7C169837A8396012823E5
:10459000392391E0232B09F490E09B830E947A0950
:1045A0008160782F9D838C8349815A816B81892F0B
:1045B0000E94EE20000F111FF801E95DFD4F808180
:1045C00091818C259D25918380838091A5028823EC
:1045D000D1F18091A402E091A602E695E81BE09358
:1045E0003302823009F0C4C1F0E0E254F94FE491A3
:1045F0000E2F10E02EE9C22E2DE0D22E8091340233
:10460000882361F0109234020E947A09909332025A
:104610008093310210923602109235020E947A097C
:104620002091310230913202821B930B8F3F9F47C2
:1046300050F4200F311F309332022093310281E376
:1046400092E0F601099586E0EBE9F2E0DE011196D1
:1046500001900D928A95E1F7C0909D02D0909E0244
:1046600000919F021091A00210929D0210929E0252
:1046700010929F021092A0028C2D8D2909F448C03F
:104680008091390290913A020E94AC099C0180917C
:104690009A02882309F4FEC325313105C8F18F3F02
:1046A00019F08F5F80939A02CC2059F00E94B106D6
:1046B0009FEF1C140CF491E0899F802D11248093AE
:1046C0009D02DD2059F00E94B1069FEF1D140CF4ED
:1046D00091E0899F802D112480939E0230919D024C
:1046E0003323B1F020919E02222391F045EB340355
:1046F000C0011124992309F499C190939D0255EBAF
:10470000250390011124332309F494C130939E02B0
:10471000802F812B09F448C0809137029091380294
:104720000E94AC099C0180919902882309F4ADC3D1
:1047300021353105C8F18F3F19F08F5F80939902C1
:10474000002359F00E94D1069FEF10160CF491E05F
:10475000899F802D112480939F02112359F00E947C
:10476000D1069FEF11160CF491E0899F802D112442
:104770008093A00230919F022091A0023323A1F0E8
:10478000222391F045EB3403C0011124992309F44D
:1047900055C190939F0255EB2503900111243323BB
:1047A00009F450C13093A00280919D0290919E0225
:1047B000892B90919F02892B9091A002892B11F057
:1047C0000E94860986E0FE013196ABE9B2E00190D5
:1047D0000D928A95E1F70E94420990913B02891758
:1047E00021F080933B020E94F303809140028430C9
:1047F00009F094CE83E08093E9008091E80082FF85
:104800008DCE8091E80090E085FF0CC00E94380AB0
:1048100050E2C52ED12C8E010F5F1F4F882309F463
:104820001FC191E08091E8008B778093E800992385
:1048300009F474CEE981E150E33108F0B1C1F0E050
:10484000E55FF54D0C94152980914002843009F400
:1048500043C080E00E946A0880E00E94F303109247
:10486000A50280912402811116C0F0922402809149
:10487000A602982F9170909323028E7F8093A602B8
:10488000FFEF20E732E0F15020403040E1F700C078
:1048900000000E94430B109222020FB6F894A895D4
:1048A000809260000FBE7092600083B7817F846049
:1048B00083BF83B7816083BF7894889583B78E7FE9
:1048C00083BF0FB6F894A8958091600088618093AB
:1048D0006000109260000FBE80912502882361F075
:1048E0000E943D15E4E4F2E081919191892B09F059
:1048F000B6C2AE16BF06C1F780914002853009F4FA
:10490000A3CF0E9401120E94E0170E9442090E9458
:10491000F3031092240280912302882349F08091AE
:10492000A60281608093A60260E086950E941C1812
:104930000E940618FCCD6F5FCC0CDD1C6F3009F0B7
:104940001DCE0F5F1F4F0530110509F008CE8FEF08
:1049500089838A831B820E947A098160782F9D83D4
:104960008C8349815A816B81892F0E94EE202DCE44
:10497000853109F447C068F4893061F18F30B1F1B5
:104980008630E9F000ED17E060EBC62E66E0D62E2B
:1049900035CE833209F441C004EF11E078E7C72E29
:1049A0007BE0D72E843209F429CE08E210E09AE8A1
:1049B000C92E9CE0D92E883109F420CEE3CFF0E057
:1049C000E554F94FE4910E2F10E082EBC82E8DE0F4
:1049D000D82E14CEE695F0E0E854F94FE4910E2F6E
:1049E00010E0B0EBCB2EBBE0DB2E08CEE695F0E07E
:1049F000EB54F94FE4910E2F10E0AAEDCA2EABE074
:104A0000DA2EFCCDF0E0EE54F94FE4910E2F10E0D9
:104A1000FCE3CF2EFCE0DF2EF1CDE0EBF6E00591DC
:104A20001491EFE3CE2EEDE0DE2EE8CD81E0809311
:104A30009D0265CE81E080939E026ACE81E08093E4
:104A40009F02A9CE81E08093A002AECE8091F100BA
:104A5000D8018D938D01B1E0CB1AD10809F4E1CED4
:104A60008091E80085FDF2CF8091E8008B778093FC
:104A7000E8000E94380A882399F3D3CE1A8289E08D
:104A80008B833AC08A81823001F1833009F45AC0A5
:104A9000813009F085C08FB7F89420913C023091A5
:104AA0003D0240913E0250913F0229A33AA34BA3FD
:104AB0005CA38FBF69A17AA18BA19CA10E941B2935
:104AC0006B837C838D839E8317C086E290E00E9477
:104AD000532990E0B0E0A0E0CC24D82EE92EFA2EA5
:104AE00087E290E00E9453291B821C82C82ADC24A2
:104AF000CD24DC24DE82CD8280914002843009F016
:104B00000DCD1091E9008091EC001F7087958827EA
:104B10008795182B82E08093E9008091E80080FF60
:104B20000DC050E040E060E270E0CE0101960E94CE
:104B3000880A8091E8008E778093E8001F701093B8
:104B4000E900ECCCFE013196D7018C9111969C9135
:104B5000B2E0EB0EF11C928383833296AE14BF0455
:104B600099F7CACF8A818230D9F42B813C814D815B
:104B70005E8129A33AA34BA35CA3CA01B9010E9499
:104B80001B296B017C0187E290E00E94672999272D
:104B90008F2D7E2D6D2D86E290E00E946729ACCF8F
:104BA0008FEF8983A9CF4C816B818A810E94430F4B
:104BB0009827892798279E838D839ECFED80FE803E
:104BC000FE24EF24FE248A810B813EE1039F8001B5
:104BD000112446E9849F000D111D11248C8190E061
:104BE000880F991F080F191F6F2DC80188960E9402
:104BF00067296E2DC8018996D0CF0E947A0E7CCF8E
:104C00008A81893061F48B8155E0859FC001112430
:104C10006FEF70E00E94CB28862F0E942C098A81BA
:104C20008238D1F1F8F4803831F1813809F064CF5D
:104C300060E08B810E941C189B818091A6029111DB
:104C400023C08E7F8093A6021092A5028FEF90E77B
:104C5000A2E081509040A040E1F700C000000E9417
:104C6000430B4ACF833809F047CF20E04091A90297
:104C70006C818B8106C020E04B816091A8028091FD
:104C8000A7020E94791638CF81608093A60260E067
:104C900086950E941C1830CF8B818093AA022CCF5E
:104CA0008A81893059F08A30C1F0813821F1B8F415
:104CB000803809F021CF8091A902E2CE8091A10233
:104CC000869586958695BFEF8B9FC001112465E080
:104CD00070E00E94CB286B830FCF1B820DCF8238F0
:104CE00091F0833809F008CF8091A7028B838091DF
:104CF000A8028C8301CF8091A60280FF02C0869516
:104D0000BFCE80E0BDCE8091AA02BACE8091A10232
:104D10000E94DB0E2091A6023091A7024091A802CA
:104D20005091A90229A33AA34BA35CA3CA01B901DC
:104D30000E941016E1CE80E18A83DECE81E08A8374
:104D400080E89ECECA80DB80DC24CD24DC248C81EC
:104D50007601E80EF11C8E010B5F1F4FC6018058D3
:104D60009D4FEC14FD0409F4C7CE30E8C31631E0C2
:104D7000D30648F40E945329D8018D938D01BFEFCB
:104D8000CB1ADB0AEBCF80E0F7CF0A811B8110271B
:104D900001271027FE0131966F018C817F01E80EFB
:104DA000F11CC80180589D4FCE14DF0409F4A4CE35
:104DB0000038F1E01F0728F4D60114966C910E9488
:104DC00067290F5F1F4FBFEFCB1ADB0AEACF0E94A4
:104DD000F80E92CE84E0B0CFCA80DB80DC24CD24F4
:104DE000DC248C817601E80EF11C8E010B5F1F4FD5
:104DF000C6018896CE14DF0409F47ECEE8E5CE160F
:104E0000E2E0DE0648F40E945329D8018D938D011B
:104E1000BFEFCB1ADB0AECCF80E0F7CF0A811B8112
:104E2000102701271027FE0131966F018C817F0129
:104E3000E80EF11CC8018896EC14FD0409F45CCE60
:104E40000835F2E01F0728F4D60114966C910E94F1
:104E500067290F5F1F4FBFEFCB1ADB0AEBCF09BDEE
:104E600019BD09B400FEFDCF8091D8008F7D8093DD
:104E7000D8008091E00082608093E0008091E000A3
:104E800081FDFCCF0E94011237CD2B30310508F097
:104E900054CC8ACC2B30310508F003CC39CC1F928E
:104EA0001FB61F9211248F939F93AF93BF9380914E
:104EB0002202811113C080913C0290913D02A09189
:104EC0003E02B0913F024196A11DB11D80933C026C
:104ED00090933D02A0933E02B0933F02BF91AF91E9
:104EE0009F918F911F901FBE1F90189578941F92CD
:104EF0001FB61F9211248F939F93AF93BF938091FE
:104F00003C0290913D02A0913E02B0913F02019679
:104F1000A11DB11D80933C0290933D02A0933E02DF
:104F2000B0933F02BF91AF919F918F911F901FBE91
:104F30001F9018951F920F920FB60F9211242F9366
:104F40003F934F935F936F937F938F939F93AF9311
:104F5000BF93EF93FF938091E10082FF09C080919E
:104F6000E20082FF05C08091E1008B7F8093E10029
:104F70008091DA0080FF24C08091D80080FF20C09B
:104F80008091DA008E7F8093DA008091D90080FFD3
:104F90009BC080E189BD82E189BD09B400FEFDCFDF
:104FA00081E0809340028091BD01811109C00E947F
:104FB000690A0E94E20A8091E20084608093E20024
:104FC0008091E10080FF17C08091E20080FF13C054
:104FD0008091E2008E7F8093E2008091E200806108
:104FE0008093E2008091D80080628093D80019BC41
:104FF00085E0809340028091E10084FF29C0809188
:10500000E20084FF25C080E189BD82E189BD09B449
:1050100000FEFDCF8091D8008F7D8093D8008091D5
:10502000E1008F7E8093E1008091E2008F7E80938B
:10503000E2008091E20081608093E2008091BC01F7
:10504000882309F447C084E08093400280914002A5
:105050008091E10083FF27C08091E20083FF23C09D
:105060008091E100877F8093E10082E0809340029D
:105070001092BC018091E1008E7F8093E1008091CD
:10508000E2008E7F8093E2008091E2008061809355
:10509000E20042E060E080E00E94B20A8091F0000D
:1050A00088608093F000FF91EF91BF91AF919F9145
:1050B0008F917F916F915F914F913F912F910F90C1
:1050C0000FBE0F901F90189519BC109240021092BD
:1050D000BD0176CF8091E30087FD02C081E0B4CFAF
:1050E00083E0B2CF1F920F920FB60F921124FF925E
:1050F0000F931F932F933F934F935F936F937F93E0
:105100008F939F93AF93BF93CF93DF93EF93FF93CF
:1051100009EE10E0F8018081C091EC00C795CC2722
:10512000C7958F70FC2EF82A1082C0EFD0E08881DE
:10513000877F888378940E941612F80110828881F4
:1051400088608883CF2DCF70C083FF91EF91DF916E
:10515000CF91BF91AF919F918F917F916F915F910F
:105160004F913F912F911F910F91FF900F900FBE84
:105170000F901F901895DB018F939F930E944029F9
:10518000BF91AF91A29F800D911DA39F900DB29FE3
:10519000900D11240895AA1BBB1B51E107C0AA1F43
:1051A000BB1FA617B70710F0A61BB70B881F991FC8
:1051B0005A95A9F780959095BC01CD01089597FB6C
:1051C000072E16F4009407D077FD09D00E94CB2853
:1051D00007FC05D03EF4909581959F4F08957095FA
:1051E00061957F4F0895A1E21A2EAA1BBB1BFD01FA
:1051F0000DC0AA1FBB1FEE1FFF1FA217B307E407B6
:10520000F50720F0A21BB30BE40BF50B661F771F0D
:10521000881F991F1A9469F76095709580959095ED
:105220009B01AC01BD01CF010895EE0FFF1F05905A
:10523000F491E02D09946927962769277827872715
:10524000782708950E942A29332312F48A1B9B0B86
:105250000C943B29A29FB001B39FC001A39F700D86
:10526000811D1124911DB29F700D811D1124911D6E
:1052700008950E942A29B7FF0895821B930B089571
:105280000E942A29A59F900DB49F900DA49F800D88
:10529000911D11240895B7FF0C9440290E944029C4
:1052A000821B930B0895F999FECF92BD81BDF89AA8
:1052B000992780B50895A6E1B0E044E050E00C9451
:1052C0008D29A8E1B0E042E050E00C948D29262F12
:1052D000F999FECF92BD81BDF89A019700B40216EC
:1052E00039F01FBA20BD0FB6F894FA9AF99A0FBE9A
:1052F00008950396272F0E9468290E946729252F69
:105300000E946829242F0C9468290196272F0E9457
:1053100068290C946729DC01CB01FC01F999FECFC7
:1053200006C0F2BDE1BDF89A319600B40D9241502D
:105330005040B8F70895FC014150504030F00190C2
:105340000616D1F73197CF01089588279927089538
:10535000FB01DC0104C08D910190801921F44150C2
:105360005040C8F7881B990B0895F894FFCFFC06AE
:10537000020705070B072007200720072007200743
:105380000E07130717071D072E0734073807F912F2
:105390002113C2142113C21454137513C2147114AF
:1053A0007E140D1B111B151B231B271B2B1B2F1BD7
:1053B000351B3D1B411B451B491B551B591B5D1BC9
:1053C000611B671B851B6F1B1F1B4D1B511B391B53
:1053D0006B1B7B1B8E1B941B381C3F1C441C491CE5
:1053E0004E1C531C581C5D1C621C671C6C1C6F1CE3
:1053F000741C771C7A1C7D1C801C831C861CBE1CA4
:10540000BE1CF81CF81CAC1DC61D261D261DD11D7A
:10541000411E501E501E3E254225B225D325DE25B5
:10542000FD25002650268626D025D0259B269E26A3
:0C543000A226C526E726EA26EC260E2759
:10543C0001010201191A1B1C1D1E1F202122BB0970
:10544C00E60D290E720E760EBE090100000000401A
:10545C0022B684016201AC00D601EF010F020001FB
:10546C00020202020606060909090909090F0F0FB3
:10547C000F0F0F15151518191919191919191919BB
:10548C001923249091929395F0F1C6676637943165
:10549C00303534979633F4E200E900EA00B500B6F3
:1054AC0000B700CD008301CC008A01920194012148
:1054BC0002230224022502260227022A02B300B488
:0654CC00006F00700000FB
:00000001FF
