:100000000C94DF020C9417030C9417030C94170341
:100010000C9417030C9417030C9417030C941703F8
:100020000C9417030C9417030C9465200C9438213E
:100030000C94BC1A0C9417030C9417030C9417031C
:100040000C9417030C9417030C9417030C941703C8
:100050000C9417030C94561B0C9417030C94170361
:100060000C9417030C9417030C9417030C941703A8
:100070000C9417030C9417030C9417030C94170398
:100080000C9417030C9417030C9417030C94170388
:100090000C9417030C9417030C9417030C94170378
:1000A0000C9417030C9417030C94170329003A00BF
:1000B0003B003C003D004200430044004500460038
:1000C000470048004B0035001E001F0020002100A3
:1000D000260027002D002E00530054005500560026
:1000E0002B0014001A0008001500120013002F0046
:1000F00030005F0060006100570039000400160006
:10010000070009000F003300340028005C005D0088
:100110005E000000E10000001D001B00060036002C
:1001200037003800E50059005A005B005800E00035
:10013000E300E20051004F00E600E40001515000EE
:100140002C006200630000003E003F0040004100C0
:10015000220023002400250017001C0018000C00BA
:100160000A0000002A004C00310052000B000D0074
:100170000E0019000500110010004E00005C010087
:100180000100010001000100010001000100AA00BE
:10019000A900AB004A000100C25CC35CC95CCA5C38
:1001A0000100010001000100010001000100010047
:1001B0000100BF5CBE5CBD5C0100010001000100EC
:1001C0000100010001000100010001000100010027
:1001D0000100010001000100010001000100010017
:1001E0000100000001000000010001000100010009
:1001F00001000100010001000100010001000100F7
:1002000001000100010001000100010001000100E6
:1002100001000100010000000100010001000100D7
:10022000C55CC65CC75CC85C010001000100010040
:10023000010000004C00A8000100010001000100C5
:10024000010001000100010001004D00010001005A
:100250000100010001000100010001000100010096
:100260000100010001000100010001000100010086
:100270000100010001000100010001000100010076
:100280000100010001000100010001000100010066
:100290000100010001000100010001000100010056
:1002A0000100010001000100010001000100010046
:1002B0000100000001000000010001000100010038
:1002C0000100010001000100010001000100010026
:1002D0000100010001000100010001000100010016
:1002E0000100010001000000010001000100010007
:1002F00001000100010001000100010001000100F6
:1003000001000000010001000100010001000100E6
:1003100001000100010001000100010001000100D5
:1003200001000100010001000100010001000100C5
:1003300001000100010001000100010001000100B5
:1003400001000100010001000100010001000100A5
:100350000100010001000100010001000100010095
:100360000100010001000100010001000100010085
:100370000100010001000100010001000100010075
:100380000100000001000000010001000100010067
:100390000100010001000100010001000100010055
:1003A0000100010001000100010001000100010045
:1003B0000100010001000000010001000100010036
:1003C0000100010001000100010001000100010025
:1003D0000100000001000100010001000100010016
:1003E0000100010001000100010001000000000007
:1003F000000000002A2B2800000000000000000080
:100400000000000000000029000000002C1E342025
:10041000212224342627252E362D3738271E1F204B
:100420002122232425263333362E37381F04050690
:100430000708090A0B0C0D0E0F10111213141516D4
:100440001718191A1B1C1D2F3130232D35040506D2
:100450000708090A0B0C0D0E0F10111213141516B4
:100460001718191A1B1C1D2F3130354C00000000C5
:10047000000000000000000000000000000000007C
:10048000000000000000000000000000000000006C
:100490007E0F00D4FFFFFFC7000000780A0344006E
:1004A0005A003900360000000E0344005A00540080
:1004B00045004300480000000403090409025B00F2
:1004C000030100A0FA090400000103010100092151
:1004D0001101000122400007058103080001090401
:1004E0000100020300000009211101000122220085
:1004F000070582032000010705030320000109040A
:100500000200010300000009211101000122320054
:100510000705840320000112010002000000085AB0
:100520004496DB0100010200010660FF0961A101A0
:100530000962150026FF00952075088102096315E0
:100540000026FF00952075089102C005010980A1D1
:1005500001850319012AB700150126B70095017519
:10056000108100C0050C0901A101850419012AA010
:1005700002150126A002950175108100C005010930
:1005800006A101050719E029E71500250195087561
:100590000181029501750881010507190029FF15E0
:1005A0000026FF0095067508810005081901290538
:1005B000950575019102950175039101C000112403
:1005C0001FBECFEFDAE0DEBFCDBF04B603FE18C01A
:1005D0008091780290917902A0917A02B0917B0289
:1005E0008730904BA740B04B59F41092780210928C
:1005F000790210927A0210927B02E0E0F8E309950A
:1006000011E0A0E0B1E0E6ECF7E402C005900D9245
:10061000A639B107D9F722E0A6E9B1E001C01D92E1
:10062000A837B207E1F70E948B120C94A9230C940F
:10063000000081E0089581E008950C941B03089563
:100640000C941F031F93CF93DF9300D000D00F9221
:10065000CDB7DEB749835A836B8330919901898185
:100660009A8131111DC06623B9F02223A9F00E949E
:100670006909182F682F89819A810E94120969815E
:100680007A81812F0F900F900F900F900F90DF9134
:10069000CF911F910C9431180E944009182FEFCF71
:1006A0000E94690969817A81EDCFFC01262F408182
:1006B00051816281738184810C94220381E00895C9
:1006C000CF93DF93D82FC92F60E00E9455036D2F81
:1006D0007C2FDF91CF910C942003E1E0F0E0DF016B
:1006E00002C0AA0FBB1F6A95E2F7BD01DF0102C07D
:1006F000AA0FBB1F4A95E2F76A2B01C0EE0F2A959D
:10070000EAF7962F9823961302C08E2B0895E09552
:100710008E230895242F462F682F8091C1010E94B7
:100720006D030C94CF080C9428110C942B11089590
:100730000E9468080E9497032FEF84E39CE02150F9
:1007400080409040E1F700C000000C947A1B0F93AA
:100750001F93CF93DF938C0161E00E945503EC015E
:10076000B8010E94FB14882309F441C0B801CE01EE
:100770000E941D038823D9F1B801CE010E947B138A
:100780008823A9F1B801CE010E948E19882379F13E
:10079000B801CE010E947716882349F1B801CE0135
:1007A0000E94F818882319F1F8018281882361F0EA
:1007B000CA35FDE5DF0721F170F4C115ECE5DE0770
:1007C000A1F0CE3DDC45C9F0C801DF91CF911F916A
:1007D0000F910C941903CB358DE5D807A1F0CC35DA
:1007E000DD4591F70E94890DEFCF0E94980380E0CC
:1007F000DF91CF911F910F9108950E94420EF7CF84
:100800000E94920DE1CF0E94950DDECF0E94A01AAA
:1008100080E00E94B3130C9413050E94B3120E944F
:1008200016050C94A41ADF92EF92FF920F931F9378
:10083000CF93DF93E82FF0E0E451FC4FD490282FC2
:1008400026952695269530E0F901E457FB4F049153
:10085000877010E0082E02C0159507950A94E2F7FC
:1008600001701127F901E458FB4FE490F12C082E98
:1008700002C0F594E7940A94E2F791E0E922FF249C
:10088000F901E459FB4FC491D0E002C0D595C7955A
:100890008A95E2F7C170DD270115110519F081EE87
:1008A0000E946F05E114F10419F086EE0E946F05B5
:1008B0008D2D0E94F205EF2819F086EE0E94B305F7
:1008C000012B19F081EE0E94B305CD2B51F08CE283
:1008D000DF91CF911F910F91FF90EF90DF900C94DB
:1008E000F205DF91CF911F910F91FF90EF90DF9074
:1008F0000895EF92FF920F931F93CF93DF93EC0134
:10090000162F0AE08881882309F456C0813009F047
:1009100050C089818130A1F47E0182E0E80EF11C93
:100920008A810E94F205E7012196812F882351F3E5
:10093000EFE9FFE03197F1F700C000008150F6CFFA
:10094000823041F47E01E2E0EE0EF11C8A810E94C9
:100950006F05E9CF833041F47E01F2E0EF0EF11C28
:100960008A810E94B305DFCF843011F02196DCCF5D
:100970002A81229680E090E0AE014F5F5F4F2053C6
:10098000330B2A30310550F0009771F2EFE9FFE0A8
:100990003197F1F700C000000197F6CF089FB00132
:1009A000099F700D1124C901860F971F2981EA0143
:1009B000E3CF0E941304B8CFDF91CF911F910F9125
:1009C000FF90EF90089560E00C94790408950C94E2
:1009D000E60481E00895CF93C82F0E94E90488239C
:1009E00059F09C2F9095C0FD09C0289A91FF08C02E
:1009F0002A9A92FF07C0299ACF9108952898F6CF96
:100A00002A98F7CF2998F8CF209A289A229A2A9ADA
:100A1000219A299A0895CF93C82F0E94E7048C2F1A
:100A2000CF910C94EB0480E00C940B050E94ED191F
:100A30000C940B050E94ED1990919801981721F0E4
:100A4000809398010C940B050895EF92FF920F93F9
:100A50001F93CF93DF93CDB7DEB72B970FB6F894E4
:100A6000DEBF0FBECDBF042F4F83152F5887698778
:100A70007A878B87EA84FB8461110E94D70C1E82DF
:100A800085E0FE013796DE01119601900D928A9560
:100A9000E1F7EF28A9F449815A816B817C818D812E
:100AA0009E810E94F60B2B960FB6F894DEBF0FBE08
:100AB000CDBFDF91CF911F910F91FF90EF900895DF
:100AC00010231F3F41F3CE0101960E945E03811166
:100AD000E2CFE9CFFC01808191810C949609CF93FC
:100AE000C82F8823F1F18CEF8C0F813AA0F46C2F82
:100AF00080910201909103010E94421A882329F0FB
:100B00008C2F0E94970C0E94F70C8C2F0E94900C47
:100B1000CF910C94F70C80E28C0F883048F4C770AA
:100B200081E001C0880FCA95EAF70E94B80CF0CFA7
:100B30008BE58C0F833038F42C2F2452330BC901F2
:100B4000CF910C94041AC85AC73158F4EC2FF0E036
:100B5000EE0FFF1FEB5EFE4F80819181CF910C94D1
:100B60001A1ACF910895882329F19CEF980F913A92
:100B700020F40E94970C0C94F70C90E2980F983098
:100B800050F4877091E001C0990F8A95EAF7892F98
:100B90000E94BE0CF0CF9BE5980F933020F490E0BC
:100BA00080E00C94041A885A873120F490E080E0A9
:100BB0000C941A1A08951F93CF93DF93182FEB010B
:100BC0000E946F05209731F4812FDF91CF911F9103
:100BD0000C94B3058FE99FE00197F1F700C0000086
:100BE0002197F0CF70E060E0893311F460E570E0A8
:100BF0000C94DB05882321F00E94B80C0C94F70CB0
:100C00000895882321F00E94BE0C0C94F70C0895DF
:100C1000CF92DF92EF92FF920F931F93CF93DF93C8
:100C20007C01D62FC72FFC011281058102950F7020
:100C30000E94AE0CD82E8823B9F0D12E1123A1F03A
:100C40008C2F807F803421F080E28D0F8830C0F1BE
:100C50008091450282FD34C082E00E94580D0E94BE
:100C6000AE0C91E0D82ED926CC2EC2948FE0C822AB
:100C7000F8E0CF1609F400C1FC1508F44DC023E0DC
:100C80002C1500F18C2F807FCF7031E03C1508F0DF
:100C900056C0803211F0C295C07FDD2309F47EC0BA
:100CA000D13009F4B1C0112309F4B9C0002309F40B
:100CB000B0C0F701858180FF55C08F708583A9C0C2
:100CC000D12CD2CF84E0C81609F4BAC02C2D2850FC
:100CD000330B2430310520F40E94ED190E940B05DE
:100CE000DD2009F499C10E94AA0C80FD95C1F7018D
:100CF00012820E94A40C0E94E008C7010E942C08E6
:100D00000E94A40CDF91CF911F910F91FF90EF9063
:100D1000DF90CF900C94EB0899E0C91609F415C147
:100D200086E08C0D8F70823088F6D23F09F01CC1AE
:100D30008C2F8F71111115C10E94E008C7CF882335
:100D400011F0C295C07F112399F0CC2359F080E2B5
:100D50008D0F883010F0D11107C08C2F0E94B80C75
:100D60000E94F70C8D2F28C08C2F0E94C90CF8CF41
:100D70008D2F0E94B305CC2309F4A8CF80E28D0FFC
:100D8000883010F0D11104C08C2F0E94BE0C03C01B
:100D90008C2F0E94CF0C0E94F70C98CF80914502B7
:100DA00082FF14C0112359F0CC2329F08C2F0E940C
:100DB000B80C0E94F70C80E00E946F0587CF80E09E
:100DC0000E94B305CC2309F481CFDECF112381F03B
:100DD000011106C00E94DA0C8C2B0E94FA0576CF16
:100DE0000130C1F70E94DA0C8C2B0E94E00C6ECF10
:100DF000011106C00E94ED0C8C2F0E94010666CFE7
:100E0000013009F463CFF6CF112329F0063008F042
:100E10005DCF8C2FE2CF053008F058CFEDCF002307
:100E200059F3D93349F4FFEF27EE33E0F150204076
:100E30003040E1F700C000008D2F0E94B30546CF7F
:100E40008C2F86958695837069F0813009F03ECFAE
:100E50008D2F9C2F9370111102C090E080E00E94B2
:100E60001A1A34CF8D2F9C2F9370111102C090E06D
:100E700080E00E94041A2ACF8C2F837089F511110B
:100E800025CF9D2F929596959770990F990F4D2F7D
:100E90004F70092E01C0440F0A94EAF78D2F80711C
:100EA000D4FF08C02FE030E001C0220F9A95EAF786
:100EB000822F8095C695C695C370842BC23051F0A1
:100EC000C33059F0C13019F00E94C108FFCE0E9412
:100ED000BC08FCCE0E94C608F9CE0E94BA08F6CE25
:100EE000112339F1C0FFF2CE4D2F42954695477040
:100EF000440F440F8D2F8F70042E01C0880F0A9469
:100F0000EAF72D2F2071D4FF07C02FE030E001C099
:100F1000220F4A95EAF72095C695C695C370822B95
:100F2000C23069F0C33071F0C13031F00E9407095E
:100F3000CDCEC1FFCBCED8CF0E940209C7CE0E9432
:100F40000C09C4CE0E94CF08C1CECF70112329F066
:100F50008C2F0E94E0088D2F40CF8D2F0E9401061C
:100F60008C2F0E94EB08B2CED33F60F4D03FB9F093
:100F7000D13F81F0112309F43FC00111F3CE8C2F32
:100F80008F71DACED33FC9F0D43FA1F780914502EB
:100F900082FF1DC08C2F8F71112319F3CDCE112329
:100FA00041F0053008F092CE8C2F8F710E94F70827
:100FB0008DCE063008F08ACEF7CF112329F08C2F82
:100FC0008F710E94D80882CE0E94D5087FCE11234F
:100FD00049F0CF718C2F0E94E00863E08C2F0E94B3
:100FE0003D0D74CE81E00E94580D023008F46ECEA3
:100FF00082E00E94580D6ACE002359F0D93309F0DF
:101000001BCF8FEF97EEE3E081509040E040E1F797
:1010100011CF8C2F8F71A5CFDF91CF911F910F91A1
:10102000FF90EF90DF90CF9008950F931F93CF9391
:10103000DF93EC01688179818A810E94A2098C0189
:101040000E9411090E94B908B801CE01DF91CF9129
:101050001F910F910C940806CF93DF93EC019881B8
:1010600089812B813C81232B19F089238F3F59F4EF
:10107000DF91CF910895CE010E941508CE01DF9136
:10108000CF910C946003CE010E94A7038111F3CF8E
:101090000E94AE0C882361F38A81882349F38091F2
:1010A000450282FDE5CF82E0DF91CF910C94580D8F
:1010B00090E080E00E94041A90E080E00E941A1AFA
:1010C0000E94D70C0C94F70C0E949E0C0C945808AC
:1010D0000E94C60C0C946408282F92959F7096303D
:1010E00091F060F4925F9F70923030F481E0203F85
:1010F00081F030F4283E30F080E008959A5FF3CF1D
:10110000243FD1F7089581E0283EE0F3213FA1F785
:10111000F9CF0895FC01808191810E9496090C9479
:101120006C08CF93DF9300D000D00F92CDB7DEB71D
:101130000F900F900F900F900F90DF91CF91089527
:10114000CF93DF9300D000D000D0CDB7DEB7269686
:101150000FB6F894DEBF0FBECDBFDF91CF910895DB
:1011600008950C94B0080E94B1088093C2010C94B9
:10117000580808950C94B3089091C201892B0C94DF
:10118000B3089091C20189230C94B3089091C201D5
:1011900089270C94B3080C94B0080C94CB080E94D7
:1011A000CD088093C1010C94580880E00C94CF08BE
:1011B00091E001C0990F8A95EAF7892F0C94CF0826
:1011C00021E030E001C0220F8A95EAF78091C10149
:1011D000822B0C94CF0821E030E001C0220F8A95C9
:1011E000EAF720958091C10182230C94CF0821E079
:1011F00030E001C0220F8A95EAF78091C101822771
:101200000C94CF089091C101892B0C94CF08909138
:10121000C10189230C94CF089091C10189270C94B6
:10122000CF080895E82F2DE0929FE00D11248E2F16
:10123000877041E001C0440F8A95EAF7E695E6958C
:10124000E69583E0E89FF0011124E656FE4F30E07A
:1012500020E070E05191DF011197CB01022E02C016
:10126000969587950A94E2F7817081958527842366
:1012700085278C932F5F3F4F2330310559F7089511
:10128000E82F2DE0929FE00D11249E2F9770E69598
:10129000E695E69583E0E89FF0011124E656FE4FBF
:1012A00050E040E080E0219130E0092E02C0369508
:1012B00027950A94E2F721703327042E01C0220FEC
:1012C0000A94EAF7822B4F5F5F4F4330510559F77D
:1012D0000895DF92EF92FF920F931F93CF93DF93C6
:1012E0007C010091C1018091C201082BC7E0D0E0D0
:1012F00010E0DC2EC8010C2E02C0959587950A944B
:10130000E2F780FD0CC02197A0F7D12C8D2DDF9145
:10131000CF911F910F91FF90EF90DF900895B7014B
:101320008C2F0E941410019771F3F0CFCF93DF93AD
:10133000D82FC92F0E9469096D2F7C2FDF91CF9183
:101340000C9414101F93CF93DF93162FD72F9091E7
:101350009901992339F0862F972FDF91CF911F9113
:101360000C949609882391F0862F972F0E94690983
:10137000C82F682F812F9D2F0E941209612F7D2F6A
:101380008C2FDF91CF911F910C941410862F972FE3
:101390000E944009C82FF2CF1F93CF93DF93E091B3
:1013A000C30116E08091C4018E1304C0DF91CF9178
:1013B0001F910895CE2FD0E01E9FF0011124EB5312
:1013C000FE4F4081518162817381848195810E94A9
:1013D000A0082196EC2FE770E5CF4091F5015091E0
:1013E000F6016091F7017091F8018091F9019091F7
:1013F000FA010C94A008FF920F931F93CF93DF93F1
:101400008091FA01807FD1F48091F7018823B1F0B7
:101410008091C3011091C4017091F5016091F601B2
:10142000A091F801B091F901062F0723C0910001A6
:10143000D091010196E0F92E181306C0DF91CF91EB
:101440001F910F91FF90089590E0109711F00F3FBA
:1014500019F401968770F0CFF89E9001F99E300D37
:101460001124F901EB53FE4F41816413F2CF408107
:101470004713EFCF42814111ECCF438154814A1B86
:101480005B0B4C175D0728F78091FA018F70806124
:101490008093FA01F901E653FE4F80818F708061DD
:1014A000808385EF91E00E942C08DF91CF911F91FE
:1014B0000F91FF900C94CC09AF92BF92CF92DF9224
:1014C000EF92FF920F931F93CF93DF93CDB7DEB7C9
:1014D0002B970FB6F894DEBF0FBECDBF8C0185E011
:1014E000F801DE01179601900D928A95E1F7D80177
:1014F0001296EC9012971396CD90DC9085EFA82E63
:1015000081E0B82E2091F5019091F6014091F8010B
:101510005091F9014115510529F0892F82238F3F00
:1015200009F04DC1EE2009F45DC1C8010E948A088E
:10153000F82E882309F456C186E0F801A5EFB1E042
:1015400001900D928A95E1F785EF91E00E946A057E
:101550000E94FB0903C18091FA01E82FE07F461742
:10156000570708F0ABC0D80111963C911197E111D3
:10157000E1C0FE2C391325C09C91921322C0E110CA
:1015800020C08F7080618093FA010E94ED0985EF81
:1015900091E00E942C088091FA01F80185838F2D3B
:1015A0002B960FB6F894DEBF0FBECDBFDF91CF9163
:1015B0001F910F91FF90EF90DF90CF90BF90AF9071
:1015C00008952F81CD2829F0832F82238F3F09F0A2
:1015D000AEC080E0F82FF170DF2EE091C3014091A2
:1015E000C40156E080FD1CC0EE20C9F28091FA01D2
:1015F00081608093FA01F12CD2CF8E2F90E05E9F14
:10160000F0011124EB53FE4F6181361306C0608157
:10161000621303C06281E612E7CF0196E82FE770FC
:10162000E413EBCF8F8198850E949609292F22958C
:101630002F70903268F0225F2F70223080F49F70FC
:1016400059F0D80115969C91907F31F4D12C0AC0A5
:101650009F7011F08823D1F3805E8830B8F3C80101
:101660000E942C08FD2C9BCFC8010E948A08882369
:1016700009F4B8C0EE2009F4B5C08091FA018032B7
:1016800070F02091F5013091F6013A8329831B8295
:10169000DD82CC828E83CE0101960E942C0886E0EA
:1016A000F801A5EFB1E001900D928A95E1F70E9453
:1016B000FB090E94ED09FF24F39471CFE11151C0A1
:1016C0004F81588569857A858B850E94910885EFC1
:1016D00091E00E942C0886E0D5011D928A95E9F7D9
:1016E0000E94ED0988CF86E0F801A5EFB1E00190F6
:1016F0000D928A95E1F753CFC8010E948A088111A3
:10170000CECF8091FA0181608093FA01C8010E94D6
:101710002C0845CF4F81588569857A858B850E9435
:10172000910886E0D5011D928A95E9F717C081E0FE
:101730008E2550CF391398CFF8019081921394CF12
:10174000E11092CF8583C8010E942C0886E0F80141
:10175000A5EFB1E001900D928A95E1F70E94ED09A5
:101760001ECFF801318193137FCFF801908192133E
:101770007BCFE11079CF8583C8010E942C0886E0D9
:10178000D5011D928A95E9F70ACFD80111968C915F
:101790009813B2CFF80180818213AECF8091FA0105
:1017A00080FDA1CF982F907F09F49DCF8583903F36
:1017B00051F2982F907F905F8F70892BC3CFF0905C
:1017C000F701F601E41BF50BAF0160910001709188
:1017D0000101F110C0CE4617570708F09BCFFE2C31
:1017E000E110D3CFC8010E942C0865CF1F93CF937F
:1017F000DF93CDB7DEB72C970FB6F894DEBF0FBEE0
:10180000CDBF4F83588769877A878B879C87CE01A6
:1018100007960E945C0A882369F08A859B85892B3C
:1018200039F058854F81852F84238F3F09F071C08F
:1018300016E05FC086E0FE013796DE01119601904A
:101840000D928A95E1F78F8198852091C40140918E
:10185000C3016A857B85672B59F389238F3F41F349
:1018600030E0C9010196877099274817190671F46D
:101870000E9468081092C4011092C30186E0E5EF4F
:10188000F1E0DF011D928A95E9F7D2CF96E0929FB1
:10189000D001939FB00D1124AB53BE4FFE01319682
:1018A00001900D929A95E1F78093C4010E94CC09B2
:1018B000BFCF819FC00111248B539E4F0E945C0AB1
:1018C0008823E9F0E091C3011E9FF0011124EB533E
:1018D000FE4F4081518162817381848195810E9494
:1018E000A0088091C30190E00196877099278093AA
:1018F000C3018091C3019091C4018913DACF2C9662
:101900000FB6F894DEBF0FBECDBFDF91CF911F9110
:10191000089569857A858B859C850E94A00888CF6B
:10192000682F80910201909103010C947C1A682F1A
:1019300080910201909103010C947E1A8091020122
:10194000909103010C94801A8091030285958595EE
:101950008595089580910302877008959091030200
:10196000977081E009F480E0089580910E02089557
:1019700090910E02982B90930E020895982F9095B7
:1019800080910E02892380930E02089510920E0218
:10199000089590910D02982B90930D020895982F21
:1019A000909580910D02892380930D0208951092E5
:1019B0000D02089580910402089508950C94DD0CA1
:1019C0009091450292FD08C090910402981721F071
:1019D000809304020C94DE0C089580910402882305
:1019E00029F01092040280E00C94DE0C0895CF934D
:1019F000DF93E0910201F091030180910E02808358
:101A0000E0910201F0910301808190910D02892BF8
:101A1000808390910402992381F0E0910201F0917A
:101A200003018081892B80838091020190910301C1
:101A30000E94301A81110E94ED0CC0910201D091D8
:101A4000030148E050E06BEF71E0CE010E945A23A1
:101A5000892B69F088E0FE01ABEFB1E001900D92B7
:101A60008A95E1F7CE01DF91CF910C94F919DF91BE
:101A7000CF91089508950C943A0D9091450292FDEE
:101A800010C098E0899F90011124622B609303029B
:101A90000E94E008809103028595859585950C94B8
:101AA0003B0D0C94E0081092030280E00C943B0D77
:101AB000909103028095892380930302282F277039
:101AC00091F4282F082E000C330B9217130659F0AF
:101AD0009091450292FD07C08595859585950E9458
:101AE000EB080C94530D08959091450292FB222728
:101AF00020F9281769F080FB92F9909345028091B4
:101B00004402909145020E94BF0D82E00C94580D52
:101B100008958091450282FB882780F991E089270A
:101B20000C94740D81E00C94740D80E00C94740D91
:101B30006FEF7FEF90E080E00C94932390E080E0E3
:101B40000E946F23893E9E4F11F40C948B1480E009
:101B5000089582E090E00C94672383E090E00C9479
:101B60006723CF9384E090E00E946723C82F82E22E
:101B700090E00E946723982F8C2FCF910895CF93E8
:101B8000682FC92F84E090E00E9475236C2F82E2B9
:101B900090E0CF910C947523AB01BC018FE090E0F5
:101BA0000C948723AB01BC0183E190E00C94872364
:101BB00060E070E0CB010C94D20D60E070E0CB01EE
:101BC0000E94CC0D0C94D80D69EE7EEF90E080E081
:101BD0000E94932360E082E090E00E94752360E021
:101BE00083E090E00E9475231092C20160E084E0DF
:101BF00090E00E94752360E082E290E00E947523ED
:101C000060E085E090E00E94752360E086E090E06F
:101C10000E9475236FEF87E090E00E94752340E0FB
:101C200050E0BA0188E090E00E94872360E08DE0F8
:101C300090E00E94752340E050E0BA0188E190E016
:101C40000E94872360E087E190E00E94752340E0D6
:101C500050E0BA018CE190E00E94872370E060E0E0
:101C600080E290E00E94932340E050E0BA0188E1D6
:101C700090E00E94872380E00E94A4140E94DF1459
:101C80000C94DD0D0C94E40D682F8EE090E00C9424
:101C900075230E94271B6093230270932402809374
:101CA00025029093260260931F0270932002809376
:101CB000210290932202089585B7806885BF85B779
:101CC000806885BF0895089508950C94640E089562
:101CD0000C94670E0E945C0E83EF90E10E94E31962
:101CE0000E94630E0C94650E81E008950C94740EAE
:101CF000089508950E94780E0C94790E0E940D119B
:101D00000E9404050C947B140E94121B0E94EE1486
:101D10000E94E2110E947E0E0E94B3120C94680E83
:101D20007F928F929F92AF92BF92CF92DF92EF926B
:101D3000FF920F931F93CF93DF9300D000D00F92A9
:101D4000CDB7DEB70E94F711B82E81110E94490E5F
:101D50005FE0852E52E0952E10E000E0702E802F7F
:101D60000E942D117C01F401C190D1904F01C81641
:101D7000D90609F452C08091270281FD0E943611D4
:101D8000C6018E259F25A12CCC24C394D12C9C0167
:101D90002C213D21232BD9F10E94760E8823A9F016
:101DA000A9827A82EC20FD2081E0EF2809F480E00E
:101DB0008B830E941B1B8160782F9D838C834981BC
:101DC0005A816B81892F0E942505000F111FF80190
:101DD000E15FFD4F808191818C259D2591838083DA
:101DE00081E0B11001C080E00F900F900F900F9034
:101DF0000F90DF91CF911F910F91FF90EF90DF90A7
:101E0000CF90BF90AF909F908F907F900895A394B4
:101E1000CC0CDD1CFDE0AF12BACF0F5F1F4F0830B6
:101E2000110509F09BCF8FEF89838A831B820E9463
:101E30001B1B8160782F9D838C8349815A816B8124
:101E4000892F0E942505CCCF0E94900E0E947A1403
:101E50000C941A05CF93DF930E941810EC018115A2
:101E600022E5920708F054C0811531E5930708F088
:101E7000AEC08F3B9105B8F4883A910508F099C03F
:101E8000853A910568F4049738F481E0219709F0C8
:101E900080E0C82F80E0D82FCE01DF91CF91089548
:101EA000A497D064F9CFC11590E5D907A0F4C11566
:101EB00020E4D20708F088C0C83ED10530F4C03E07
:101EC000D10550F7D0E0C0E0E7CFCE019A9581155B
:101ED0009F4110F3F7CF9E01F4E036952795FA95D0
:101EE000E1F723708C2F86958695837030E2839F6F
:101EF000C0011124922BC37021E030E002C0220FF8
:101F0000331FCA95E2F7822B932BEC01DC68C4CF18
:101F1000C11586E5D80730F5C11595E5D90708F054
:101F20006AC0C11524E5D207C0F48C2F869586952A
:101F30009E0123703327C115D34508F04DC0C1E081
:101F4000D0E002C0CC0FDD1F2A95E2F720E2829F8D
:101F5000C0011124C82BD92BD9CFDC2FCC27C46FBB
:101F6000D06A9ACFC1153AE5D30788F4C11589E53F
:101F7000D80708F04BC0CE0198558F3F910511F05E
:101F800008F0A0CFDC2FCC27C06FD06A85CFCE0160
:101F900090568115904208F095CF8D2F8F710E9439
:101FA000B01090E0982F882788279F718C2BEC0128
:101FB0002BC0C85AD0E0CC0FDD1FCD5BDE4F09909F
:101FC000D881C02DD46468CFDF70D06A65CFD82F98
:101FD000CC27C16FD06A60CFC1E0D0E002C0CC0F87
:101FE000DD1F2A95E2F730E2839FC0011124C82B40
:101FF000D92BDA6851CF8C2F0E94B010C82FD0E0B7
:10200000DC2FCC27CC27DF71D06246CF8C2F8F708E
:102010000E94B01034E0D695C7953A95E1F7CF709D
:102020009C2FEC01D06938CF0E9431180C942A0FF4
:10203000803E910599F1C8F48133910509F476C089
:1020400048F48932910509F46AC08A32910509F48D
:1020500074C0089589339105D1F082389105B9F0A3
:102060008533910509F454C00895843E910599F192
:1020700038F4823E9105F9F0833E910509F1089507
:10208000863E910599F1873E9105B9F10895209119
:1020900044022370A1F080EE90E008952091440264
:1020A00020FD52C03091450230FF09C024FF4FC0CF
:1020B00090E080E004C02091440222FDF7CF089513
:1020C0002091440222FD46C03091450230FDE3CF0D
:1020D00024FFF5CFEDCF2091450221FFF0CF809175
:1020E000440284FDE5CF87EE90E0089520914402FC
:1020F00023FFE5CF24FDDCCFF6CF2091440223FD62
:102100002CC03091450231FFE3CF84EE90E008957A
:102110002091440225FFD3CF89E290E008952091D9
:10212000440225FFCCCF85E390E00895209144023E
:1021300026FFC5CF8AE290E008952091440226FF51
:10214000BECF81E390E0089589E390E0089583EEA7
:1021500090E0089582EE90E0089586EE90E0089574
:102160009091440292FF06C0282F28712830F9F47C
:10217000877F846093FF06C0282F28712831F1F4EF
:10218000877E84612091450220FF06C0382F387178
:102190003830D9F4877F816021FF06C0282F28714D
:1021A0002831D1F4877E816194FD877E0895282FA0
:1021B00024712430F9F68B7F8860DCCF282F2471BE
:1021C000243101F78B7E8861DDCF382F31713130BA
:1021D00019F78E7F8860E0CF282F2171213121F7F8
:1021E0008E7E8861E1CF80E008950C94980D0E9466
:1021F000F7118FE39CE90197F1F700C000000E94FE
:10220000F71180E00E942D1180FF04C00E94F5109C
:102210000C947A1B08950C94F7100E949E0D811166
:1022200002C00E94420E0E94A90D809327020E94C4
:10223000B10D90934502809344020E940B110E94BD
:10224000AD0D0E94BA088091C1010C94CD0808958B
:102250000C94271108950C942A11E82FF0E0EE0F4A
:10226000FF1FEA5AFD4F808191810895089580EA09
:102270008A95F1F7089500C008950C943711F894E9
:10228000E82FE295EF70F0E041A18F7021E030E09F
:10229000B90102C0660F771F8A95E2F7CB01962F2E
:1022A0009095942391A392A1892B82A37894089569
:1022B000CF93DF93CEE7D1E089918F3F11F00E9459
:1022C0003F1181E0C638D807B9F7C1E7D1E089915D
:1022D0008F3F11F00E943F1181E0CE37D807B9F748
:1022E000DF91CF910895AF92BF92DF92EF92FF926C
:1022F0000F931F93CF93DF93EC01D62E062F10E0A0
:10230000C80182589E4F7C01FC0180818F3F09F4F7
:102310004FC0F894E82FE295EF70F0E091A18F7034
:1023200021E030E001C0220F8A95EAF7892F822B45
:1023300081A382A12095282322A378940E943B1197
:10234000E1E7F1E06EE771E041E050E0B12CA12C53
:1023500021912F3F81F0A22FA295AF70A05EB0E037
:102360008C9190E02F7002C0959587952A95E2F7A1
:102370009A0180FF02C020E030E0A22AB32A440F75
:10238000551F6E177F0721F7F70180818F3F11F0EE
:102390000E943F1161E0A114B10409F460E08D2DA9
:1023A0000E943D11000F111FC00FD11FB982A882DA
:1023B000DF91CF911F910F91FF90EF90DF90BF9031
:1023C000AF9008950E94581180E1E6E5F2E0DF0148
:1023D000982F1D929A95E9F7E6E4F2E0DF011D924D
:1023E0008A95E9F788E00E9445120C949303FF92C6
:1023F0000F931F93CF93DF93CDB7DEB760970FB6E0
:10240000F894DEBF0FBECDBFFE01319680E1DF0143
:102410001D928A95E9F710E0FE2E0F2F612F8F2D68
:10242000902F0E9473111F5F1830C1F740E150E0F8
:102430006F2D702F86E492E00E945A239C0111E0D8
:10244000892B09F410E0232B49F080E1EF2DF02FC8
:10245000A6E4B2E001900D928A95E1F7212F48E0C1
:1024600066E572E086E492E00E9446120E949503BF
:10247000812F60960FB6F894DEBF0FBECDBFDF91FF
:10248000CF911F910F91FF9008950895FF920F93A0
:102490001F93CF93DF93F82E092F162FD72FC42F1A
:1024A000222349F081E080932A020E941B1B909313
:1024B00029028093280280912A028823A1F080912A
:1024C0002802909129020E94471B059760F0EF2D8A
:1024D000F02FA12FBD2F90E080E0D0E08C179D075A
:1024E00044F010922A02DF91CF911F910F91FF903B
:1024F0000895219131912D933D930196EFCF0E9444
:10250000401D0E94840E0C944C1D0E94501D0E9480
:10251000240F0C946A1D0E94BB1A0E94271D0E9462
:102520006A0E0E947F120E9485120E947A0EFBCFD3
:1025300086E090E00C946723682F86E090E00C948E
:102540007523809166020C949C12E6E6F2E080818D
:102550008470896280830C949C12809166028695B7
:102560008695869508950E949E0D811104C00E9453
:10257000420E0E94A5120E94981280936602803338
:1025800020F0877088628093660290916602892F9E
:10259000817090FF04C0892F8695869586950C944E
:1025A000B31380916602982F9695969596958832EA
:1025B00040F49F5F990F990F990F8770892B809333
:1025C0006602809166028160809366020E949C127E
:1025D000809166028695869586950C94B3138091BA
:1025E0006602982F987F79F0885080936602887FE2
:1025F00091E009F490E08091660290FB80F980936D
:1026000066020E949C128091660286958695869548
:102610000C94B3138091660280FD13C08160809397
:102620006602813019F489E0809366028091660227
:102630000E949C12809166028695869586950C94E0
:10264000B31308958091660280FF08C08E7F809347
:1026500066020E949C1280E00C94B313089580914E
:10266000660280FD0C9422130C940A13909166026A
:10267000892F8695869586958F5F8F7197708630A6
:1026800020F4880F880F880F982B90936602809112
:102690006602887F91E009F490E08091660290FBE9
:1026A00080F9809366020E949C1280916602869552
:1026B000869586950C94B313863008F085E090914A
:1026C00066029770282F220F220F220F922B9093D1
:1026D0006602987F21E009F420E09091660220FBD9
:1026E00090F9909366020C94B3130E945C1380914E
:1026F00066020C949C129C01FB018281882361F18B
:102700002E3BFCE53F07F9F060F42C3BECE53E077F
:10271000A9F02D3BFCE53F0799F02B3B3C4549F0E8
:1027200008952F3BECE53E0789F0203C3C4589F0BD
:10273000089585E00E94751380E0089580E0FACF47
:102740000E94EF12F9CF0E94D112F6CF0E942F13F0
:10275000F3CF0E943613F0CF81E00895269A2E9889
:1027600008952E980895EF92FF920F931F93CF93A1
:10277000DF93CDB7DEB728970FB6F894DEBF0FBE54
:10278000CDBF8983863008F03FC081113FC0809162
:1027900080008F7D809380000E94B113A0918600FD
:1027A000B09187009981292F30E00E9440236983EE
:1027B0007A838B839C8325E030E040E050E00E94E8
:1027C000112389019A0180918600909187006CE025
:1027D00070E00E94FD2260177107F0F0C80169E007
:1027E00070E00E94FD2270938B0060938A0028960F
:1027F0000FB6F894DEBF0FBECDBFDF91CF911F9112
:102800000F91FF90EF90089585E08983809180007B
:10281000806280938000C2CF809186009091870073
:10282000E0908600F0908700E0918600F0918700AC
:1028300066E070E00E94FD22060F171F211D311D6A
:10284000D901C80125E0880F991FAA1FBB1F2A952F
:10285000D1F789839A83AB83BC83C70166E070E0BC
:102860000E94FD229F0150E040E0260F371F411DCE
:10287000511D69817A818B819C810E94112329835A
:102880003A834B835C83E0918600F0918700CA0114
:10289000B9010E94ED22DF019B01AC010E944F2390
:1028A0006D837E838F8398879B01AC0169817A81D8
:1028B0008B819C810E94ED2269837A838B839C8328
:1028C000DC01CB013FE0B695A795979587953A95A2
:1028D000D1F7409186005091870070E060E0481782
:1028E00059076A077B0720F4809186009091870042
:1028F000BC0179CF08950E94AE1382E280938000DC
:1029000089E1809381008FEF9FEF90938700809300
:1029100086000C94B31283E290E00E946723823217
:1029200089F484E290E00E946723843059F485E2C0
:1029300090E00E94672391E0853209F090E0892FB2
:102940008170089580E0FCCFCF93C82F6FEF811185
:1029500062E283E290E00E9475236FEFC11164E0B0
:1029600084E290E00E9475236FEFC11165E285E279
:1029700090E0CF910C9475230895CF93DF9300D00E
:1029800000D0CDB7DEB786E290E00E946723282F03
:1029900030E050E040E0CA01B9010F900F900F9075
:1029A0000F90DF91CF9108950895CF93C62F0E9485
:1029B000D4146C2F86E290E0CF910C94752380E0C4
:1029C0000E94A41460E070E0CB010E94D5140E9424
:1029D000B3170E94881881E00C94A4140E94BC14C0
:1029E0000E94BD140E94D4140E948B14811102C055
:1029F0000C94DF140895CF939C01FB01C281CC237A
:102A000001F182519F45409720F58EEE820F0E9482
:102A10009818C0E08C2FCF91089581E00E94E008C3
:102A200043E062E081E00E948A03F3CF81E00E94EC
:102A3000EB0843E062E081E00E948A03EBCF82E092
:102A4000F6CF80319F4591F321313F45C1F3C1E07D
:102A5000E1CF2031EFE53E0701F382E021313F4530
:102A6000E9F2D8CF2FEFFC0120830895CF93DF93B5
:102A7000EC018881893029F08A3079F0DF91CF919B
:102A800008950E94AD122FEF829FC001112465E0CE
:102A900070E00E94FD226983F1CF1982EFCFFC0123
:102AA0008081893061F4818125E0829FC0011124F9
:102AB0006FEF70E00E94FD22862F0C945C13089546
:102AC000EF92FF920F931F93CF93DF93CDB7DEB7B3
:102AD0002E970FB6F894DEBF0FBECDBF8D839E83B9
:102AE000162F8D819E81DC01ED91CD01E150E33106
:102AF00008F0F8C0F0E0E555FC4D0C943323ED816F
:102B0000FE81118289E08283612F8D819E812E96C4
:102B10000FB6F894DEBF0FBECDBFDF91CF911F91EE
:102B20000F91FF90EF900C94051CAD81BE81119622
:102B30008C91823099F0833011F1813081F50E94BF
:102B4000271B0E9439236F83788789879A87ED81B5
:102B5000FE816283738384839583D6CF0E94BD14E4
:102B60000E9439236B877C878D879E87AD81BE81CC
:102B700012966D937D938D939C931597C5CFED80A1
:102B8000FE8000E0802F0E942D11F7019283838345
:102B90000F5FF2E0EF0EF11C0830A1F7B5CF612F07
:102BA0008D819E810E943215AFCFAD81BE8111967D
:102BB0008C911197823099F712968D919D910D907D
:102BC000BC91A02D89839A83AB83BC83BC01CD01CA
:102BD0000E9439230E94D51497CFED81FE81438155
:102BE000628181810E948517982789279827AD8166
:102BF000BE8115969C938E93149786CFED81FE81AE
:102C000024813581322723273227438162818181C4
:102C10000E949E1779CF0E94B31776CF0E944F155E
:102C200073CF0E94361570CF0E94A1126DCF0E9403
:102C30003E18AD81BE8111968C9366CF0E944018DC
:102C4000982789279827ED81FE81928381835CCF25
:102C5000AD81BE8113966C91139770E011968D91A2
:102C60009C911297AD014C5F5F4F98278927982759
:102C70000E94431849CFED81FE81638170E081811C
:102C80009281AF014C5F5F4F9827892798270E9458
:102C900066183ACF0E94881837CF0E947317C9CFA1
:102CA000ED81FE81638170E081819281AF014C5F93
:102CB0005F4F9827892798270E94EC1725CFAD8171
:102CC000BE8113966C91139770E011968D919C9133
:102CD0001297AD014C5F5F4F9827892798270E9474
:102CE0000F1812CF8FEFED81FE8180830DCFCF9330
:102CF000DF93EC01FB018281882309F4F2C0C13625
:102D0000FDE5DF0749F048F5C631ECE5DE07E0F404
:102D1000C230FCE5DF07F0F00E94B10D9093450250
:102D200080934402C631ECE5DE0748F5C230FCE58D
:102D3000DF07C0F480914402909145020E94BF0DCC
:102D40000E94680880E006C09E012A5F3C45293049
:102D5000310510F3DF91CF910895C53A9DE5D9076C
:102D6000C9F7DACFFE01E350FC458091440281604F
:102D7000E331F10528F5E254FC4D0C943323C330C4
:102D80008DE5D80770F4CA3F9CE5D90798F2FE019B
:102D9000EB5FFC45E830F10510F5EF52FC4D0C946B
:102DA0003323C136EDE5DE0709F494C09091440267
:102DB000892F8E7F90FF8160C53ADD4509F0BACF3B
:102DC00080934402B7CF809144028260F9CF809112
:102DD00044028460F5CF809144028860F1CF8091F5
:102DE0004502816080934502A5CF809145028260B3
:102DF000F9CF809144028061E3CF809144028062E8
:102E0000DFCF809144028064DBCF0E94680880910C
:102E100044028068D5CF809144028C60D1CF8091EC
:102E200045028360DFCF809144028E7FC9CF8091BD
:102E300044028D7FC5CF809144028B7FC1CF8091AA
:102E40004402877FBDCF809145028E7FCBCF80919A
:102E500045028D7FC7CF809144028F7EB1CF809194
:102E600044028F7DADCF809144028F7BA9CF0E9419
:102E70006808809144028F77A3CF80914402837FBA
:102E80009FCF809145028C7FADCF8091440282FB21
:102E9000992790F921E0922790FB82F990FB83F922
:102EA0008FCF80914502982F909591708E7F892BBE
:102EB00090FB81F997CF0E94680890914402892F76
:102EC00097FB87F980587CCF81E00E94440E32CF77
:102ED00080E0FBCF90914402892F8F7E94FF806128
:102EE0006FCF81E037CF84E0089550E0440F551F45
:102EF0009AE1699F400D511D112490ED899F400D6D
:102F0000511D1124CA01879608950F931F93CF93E3
:102F1000DF930E9475178C010E946723C82FD0E0B1
:102F2000DC2FCC27C80101960E9467239E01282B25
:102F3000C901DF91CF911F910F9108950F931F93B6
:102F4000CF93DF93122F032F0E947517EC01602F90
:102F50000E947523612FCE010196DF91CF911F91C1
:102F60000F910C947523AF92BF92CF92DF92FF9294
:102F70000F931F93CF93DF93B12CA12C00E0650139
:102F800010E013C0FE01259134914F2D612F802F49
:102F90000E949E172296F3948DE0F812F3CF8DE0F5
:102FA000C80ED11C1F5F183039F0E601CC0FDD1FB1
:102FB000C455DF4FF12CE6CF0F5F88E6A80EB11C99
:102FC0000430E9F6DF91CF911F910F91FF90DF90D0
:102FD000CF90BF90AF900895EF92FF920F931F9301
:102FE000CF93DF938C01EA017A01E60EF71EC80148
:102FF0008796CE15DF0539F4DF91CF911F910F91A0
:10300000FF90EF900895003423E0120730F40E94FF
:10301000672389930F5F1F4FEACF80E0FACFEF92CB
:10302000FF920F931F93CF93DF938C01EA017A01F4
:10303000E60EF71EC8018796CE15DF0539F4DF913D
:10304000CF911F910F91FF90EF900895003423E0EE
:10305000120718F468810E94752321960F5F1F4F95
:10306000E9CF462F672F843030F4783020F44D308C
:1030700010F40C94851790E080E0089580E10895A5
:1030800089E990E00895EF92FF920F931F93CF93F9
:10309000DF938C01EA017A01E60EF71EC801895917
:1030A0009C4FCE15DF0539F4DF91CF911F910F9121
:1030B000FF90EF9008950939110530F40E946723BD
:1030C00089930F5F1F4FEACF80E0FACFEF92FF9214
:1030D0000F931F93CF93DF938C01EA017A01E60EE1
:1030E000F71EC80189599C4FCE15DF0539F4DF91D1
:1030F000CF911F910F91FF90EF900895093911051D
:1031000018F468810E94752321960F5F1F4FE9CF45
:10311000CF93DF93C7E6D3E060E0CE010E94752332
:103120002196C11584E0D807B9F7DF91CF910895B2
:10313000DF92EF92FF920F931F93CF93DF9300D014
:1031400000D0CDB7DEB7F82E8FE08F1540F08FEFAF
:1031500093E00E94672307E613E08823C1F00F90F5
:103160000F900F900F90DF91CF911F910F91FF90D3
:10317000EF90DF900895011584E0180781F3C801EE
:103180000E946723811101C0FA940F5F1F4FF11055
:10319000F2CF8091110190911201A0911301B09191
:1031A000140189839A83AB83BC83DD24D394780193
:1031B0008FEFE81AF80AC8010E94672389831A82F0
:1031C000882369F29FEF980F933080F48A83D98225
:1031D0000E5F1F4FC7010E9467238B83882309F46A
:1031E000BECFCE0101960E94E304E1CF8701F9CF63
:1031F000CF93DF93EB0186319C4511F50E94B50C0E
:103200009A81992399F08A7A91E009F490E0909359
:103210002B02811109C089E20E94900C0E94F70CD8
:1032200080E0DF91CF91089585E3F6CF80912B0266
:10323000811104C089E20E94970CF0CF85E3FBCF97
:1032400081E0EFCF0F931F93CF93DF93C42FD22F43
:10325000FC0182818823C9F040932E020E941B1B2F
:1032600090932D0280932C0280E28C0F883008F01E
:1032700050C0C77081E001C0880FCA95EAF7DF919E
:10328000CF911F910F910C94FA0510912E021413F7
:1032900035C080912C0290912D020E94471B883CE2
:1032A000910560F5C0E2CD0F1D17B9F080E2810FE6
:1032B000883040F4177081E001C0880F1A95EAF752
:1032C0000E940106C83048F481E09D2F977001C02C
:1032D000880F9A95EAF70E94FA05802F0E94F2055E
:1032E000C830B8F4D77081E001C0880FDA95EAF7EA
:1032F000DF91CF911F910F910C94010680E28C0F0A
:10330000883038F4C77081E001C0880FCA95EAF7A9
:10331000EFCFDF91CF911F910F9108950F939C01F3
:10332000CB01233F4CE53407A1F190F4283DFCE5A7
:103330003F0749F1293D4CE53407E9F1273D3C457C
:10334000C1F0FC0182818823E1F110922E0219C0A4
:10335000253FFCE53F0719F1263F4CE5340729F1ED
:10336000243F3C4571F707E225EE44EE64EF7CE52F
:1033700005C006E221EE41EE67ED7CE50E942219D0
:1033800080E00F91089507E225EE45EE68ED7CE5BB
:10339000F5CF06E221EE40EE63EF7CE5EFCF06E2EB
:1033A00021EE42EE65EF7CE5E9CF07E225EE46EE41
:1033B00066EF7CE5E3CF08E221E045EE69ED7CE5D0
:1033C000DDCF81E0DECF9093970180939601089541
:1033D00090933402809333020895E0913302F09188
:1033E0003402309721F00190F081E02D099480E0C3
:1033F0000895E0913302F0913402309721F0028079
:10340000F381E02D09940895209131023091320228
:103410002817390771F09093320280933102E091BE
:103420003302F0913402309721F00680F781E02DCD
:103430000994089520912F023091300228173907FE
:1034400071F09093300280932F02E0913302F0915B
:103450003402309721F00084F185E02D099408951D
:10346000AC019C012E5F3F4F485F5F4F80E0241707
:10347000350709F40895F90191919F019923B9F352
:103480008F5FF5CF9C01662351F0FC013296285FD7
:103490003F4F8191861729F0E217F307D1F780E0BB
:1034A000089581E008959C01FC0132968FEF90E031
:1034B0004191461751F08F3F19F4411101C0892FF6
:1034C0009F5F9630A9F78F3F09F40895280F311DAB
:1034D00087FD3A95F901628308959C01FC013296BB
:1034E000285F3F4F8191861303C0DF0111971C9223
:1034F000E217F307B9F708950C94531A0C946D1A58
:10350000FC01329686E0DF011D928A95E9F7089565
:1035100008950C94881A8F5F809335020C94891A51
:1035200083E0809335020C94891A0C948B1A81E005
:10353000809335020C94891A0C94971A0895089573
:103540000C949F1A089508950C949E1ACF930E948C
:10355000A21A0E94F7110E94A31AC0E08C2F0E94A9
:103560002D11892B31F4CF5FC830C1F780E0CF91A6
:10357000089581E0FCCF08951F921FB61F92112479
:103580008F939F93AF93BF9380913602811113C0A5
:103590008091670290916802A0916902B0916A02DD
:1035A0004196A11DB11D8093670290936802A0937C
:1035B0006902B0936A02BF91AF919F918F911F9062
:1035C0001FBE1F90189580916F02843031F10E94C8
:1035D00006041092360288E190E020E40FB6F894D9
:1035E000A895809360000FBE2093600083B7817F11
:1035F000846083BF83B7816083BF7894889583B7E5
:103600008E7F83BF0FB6F894A89580916000886183
:1036100080936000109260000FBE08950E946808B9
:103620000C940D0482E084BD93E095BD9AEF97BDA4
:1036300080936E0008952FB7F8948091670290915F
:103640006802A0916902B0916A022FBF0895CF93DA
:10365000DF9300D000D0CDB7DEB78FB7F8942091BC
:103660006702309168024091690250916A02298391
:103670003A834B835C838FBF69817A818B819C8184
:103680000F900F900F900F90DF91CF9108959C01B4
:103690004FB7F8948091670290916802A0916902F7
:1036A000B0916A024FBF821B930B089578941F92CA
:1036B0001FB61F9211248F939F93AF93BF93809156
:1036C000670290916802A0916902B0916A02019626
:1036D000A11DB11D8093670290936802A0936902B7
:1036E000B0936A02BF91AF919F918F911F901FBEBF
:1036F0001F90189581E08093E00080E28093D800CD
:103700001092C9008FE19EE40197F1F700C000001C
:1037100087E090EBDC018093780290937902A0938C
:103720007A02B0937B0288E19CE00FB6F894A895EA
:10373000809360000FBE90936000FFCF80914202A3
:1037400008950895CF93DF93D82FC92F81E08093F8
:10375000E9008FEF9091E800815095FD06C095ED4E
:103760009A95F1F700008111F5CF8091E80085FF6F
:1037700016C050E040E068E070E08D2F9C2F0E9462
:10378000131E8091E8008E778093E80088E0ED2F8B
:10379000FC2FAAE3B2E001900D928A95E1F7DF9148
:1037A000CF91089580933702709339026093380265
:1037B00080916F028430F9F48093E9008FEF90914B
:1037C000E800815095FD06C095ED9A95F1F700004F
:1037D0008111F5CF8091E80085FF0DC050E040E0F9
:1037E00063E070E087E392E00E94131E8091E8009E
:1037F0008E778093E8000895BC0184E00C94D21B7E
:10380000BC0183E00C94D21B0895CF93603211F574
:1038100020916F022430F1F42091E900C091EC0076
:10382000C795CC27C7952F70C22B22E02093E900C3
:103830002091E80020FF0BC050E040E060E270E023
:103840000E94131E8091E8008E778093E800CF706D
:10385000C093E900CF91089580916E02811109C053
:103860000E94EA1F0E9447208091E20084608093BA
:10387000E200089510926E0208950C94971A6091D8
:103880006B0281E0611101C080E00C94901A90916C
:103890006F0281E0943009F080E060916B020C943B
:1038A000951A42E061EC81E00E94661F42E261EC01
:1038B00084E00E94661F42E261EC82E00E94661F83
:1038C00042E260EC83E00E94661F90916F0281E00B
:1038D000943009F080E060916B020C948B1A809117
:1038E0007102893089F148F4823009F49FC0833035
:1038F00009F45AC0813041F008958A3009F486C035
:103900008B3009F46CC0089580917002813A09F0FF
:103910004AC08091E800877F8093E800809174021C
:1039200090917502892B61F468E08AE392E070E07F
:103930000E94B11E8091E8008B778093E800089583
:1039400060E090E080E0F3CF80917002813259F521
:1039500080917402909175028D7F892B21F5809161
:10396000E800877F8093E8008091E80082FF17C01D
:103970009091F3008091F200029731F48091F10070
:10398000813011F0863021F48091F1008093420261
:103990008091E8008B778093E8000C949A1F8091C7
:1039A0006F028111E1CF089580917002813AD9F7B9
:1039B0008091740290917502892BA9F78091E8009B
:1039C000877F8093E8008091E80080FFFCCF8091A2
:1039D00010018093F1008091E8008E77DCCF809118
:1039E0007002813201F78091740290917502892BE7
:1039F000D1F68091E800877F8093E8000E949A1FAB
:103A000080917202809310010C946808809170027A
:103A1000813249F68091E800877F8093E8000E9418
:103A20009A1F8091730280934302089580917002DF
:103A3000813A09F0B8CF8091E800877F8093E80051
:103A40008091E80080FFFCCF80914302C2CF84B711
:103A5000877F84BF0FB6F894A89580916000886135
:103A600080936000109260000FBE80E890E00FB677
:103A7000F89480936100909361000FBE0C949C1A9F
:103A80000E94EA1F0E944720E2EEF0E080818460FD
:103A9000808378940C94D32284E091E00C94E8190C
:103AA00080916F028530A9F480916F02853011F00A
:103AB0000C940E1B0E94E31A80916D028823A1F3DF
:103AC0000E94A61A882381F30E94FD1D0E946808A7
:103AD000EBCF0895CF93DF93CDB7DEB7A0970FB6A6
:103AE000F894DEBF0FBECDBF80916F02843009F520
:103AF00083E08093E9008091E80082FF1AC0809102
:103B0000E80090E085FF09C050E040E060E270E02E
:103B1000CE0101960E94621E91E08091E8008B77B1
:103B20008093E800992329F060E2CE0101960E947B
:103B30006015A0960FB6F894DEBF0FBECDBFDF9123
:103B4000CF9108950C94A41DFC01CB01DA012F2F15
:103B5000332723303105D1F070F42130310509F4D9
:103B600047C02230310569F48BE590E02CEB34E05E
:103B70002D933C93089521323105E9F0223231052D
:103B800039F190E080E030E020E0F2CFCF019927DA
:103B9000E13059F08230910559F0E8EBF4E0892BDF
:103BA00081F7849190E09F01E3CFE8EAF4E0F9CF58
:103BB000ECE9F4E0F6CF6330710518F7880F991F30
:103BC000FC01E157FE4F2081318189E090E0D0CFA8
:103BD00063307105B0F6FB01EE0FFF1FE757FE4F94
:103BE000208131818A579E4FFC01808190E0C0CFB7
:103BF00082E190E027E135E0BBCF80E189BD82E141
:103C000089BD09B400FEFDCF8091D8008F7D8093DF
:103C1000D8008091E00082608093E0008091E00015
:103C200081FDFCCF0895AF92BF92CF92DF92FF92B9
:103C30000F931F93CF93DF936C01EB018A010E94D6
:103C4000B91FF82E811123C00115110539F0F801B3
:103C500080819181C81BD90BC80ED91EB12CA12C13
:103C60002097A9F08091E80085FD22C08091E800AE
:103C70008E778093E80001151105A1F0F80180818D
:103C800091818A0D9B1D9183808385E0F82E8F2D75
:103C9000DF91CF911F910F91FF90DF90CF90BF9058
:103CA000AF9008950E94B91F8823D1F2F82EEFCF6C
:103CB000F60181916F018093F1002197FFEFAF1A18
:103CC000BF0ACECFAF92BF92CF92DF92FF920F93F7
:103CD0001F93CF93DF936C01EB018A010E94B91F00
:103CE000F82E811123C00115110539F0F8018081EA
:103CF0009181C81BD90BC80ED91EB12CA12C2097BD
:103D0000A9F08091E80085FD22C08091E8008B77C2
:103D10008093E80001151105A1F0F80180819181DF
:103D20008A0D9B1D9183808385E0F82E8F2DDF9176
:103D3000CF911F910F91FF90DF90CF90BF90AF90E8
:103D400008950E94B91F8823D1F2F82EEFCF8091F9
:103D5000F100F60181936F012197FFEFAF1ABF0ABF
:103D6000CECFFC01CB01209176023091770226174D
:103D7000370790F0009729F42091E8002E772093E0
:103D8000E80040E0009751F4411108C08091E8003C
:103D900082FF31C080E00895C901F3CF20916F0206
:103DA0002223A9F12530A9F12091E80023FD2DC09F
:103DB0002091E80022FDEACF2091E80020FFE2CF29
:103DC0003091F3002091F200009719F0283031056E
:103DD00058F041E02830310509F040E02091E8003A
:103DE0002E772093E800CECF41914093F1000197C8
:103DF0002F5F3F4FE9CF80916F02882341F08530DC
:103E000041F08091E80083FFC1CF81E0089582E016
:103E1000089583E00895FC01CB0120917602309152
:103E200077022617370790F0009729F42091E800D1
:103E30002E772093E80040E0009751F4411108C02C
:103E40008091E80082FF32C080E00895C901F3CF7D
:103E500020916F022223B1F12530B1F12091E800C9
:103E600023FD2EC02091E80022FDEACF2091E8003A
:103E700020FFE2CF3091F3002091F200009719F07B
:103E80002830310558F041E02830310509F040E094
:103E90002091E8002E772093E800CECF4491409304
:103EA000F100319601972F5F3F4FE8CF80916F026D
:103EB000882341F0853041F08091E80083FFC0CF36
:103EC00081E0089582E0089583E00895982F973067
:103ED00028F08F708093E90081E008959093E900C5
:103EE000242F762F50E0981731F07091EC0020913C
:103EF000ED005091F00021FD02C09F5FE8CF3091AE
:103F0000EB003E7F3093EB003091ED003D7F30932E
:103F1000ED003091EB0031603093EB007093EC00DA
:103F20002093ED005093F0002091EE0027FDE5CFA7
:103F300080E008958091700287FF13C08091E800AF
:103F400082FF06C08091E8008B778093E80004C070
:103F500080916F028111F2CF089580916F028823C2
:103F6000D9F38091E80080FFF8CF8091E8008E7748
:103F7000ECCF2091E4003091E50095E6A901209175
:103F8000EC00822F817020FF06C08091E80080FF46
:103F900006C080E008952091E80022FD1AC08091BB
:103FA0006F02882389F0853089F08091EB0085FDD0
:103FB0000FC02091E4003091E50042175307F9F259
:103FC0009150E1F684E0089582E0089583E0089539
:103FD00081E008950E9458200E946020E0EEF0E009
:103FE000808181608083E8EDF0E080818F7780833D
:103FF00019BCA7EDB0E08C918E7F8C9380818F7E71
:10400000808310926E0208950F931F93CF93DF93D6
:104010000E9458200E946020C8EDD0E088818F77F0
:10402000888388818068888388818F7D888319BC94
:1040300010926F0210926B0210926D0210926C023D
:1040400000EE10E0F80180818B7F808388818160A1
:10405000888342E060E080E00E94661FE1EEF0E0CD
:1040600080818E7F8083E2EEF0E0808181608083BA
:10407000808188608083F80180818E7F8083888141
:1040800080618883DF91CF911F910F910895E8EDB2
:10409000F0E080818F7E8083E7EDF0E080818160B9
:1040A000808384E082BF81E080936E020C940420C0
:1040B000E8EDF0E080818E7F80831092E200089529
:1040C0001092DA001092E10008951F920F920FB63D
:1040D0000F9211242F933F934F935F936F937F938E
:1040E0008F939F93AF93BF93EF93FF938091E100E2
:1040F00082FF0BC08091E20082FF07C08091E10047
:104100008B7F8093E1000E94D2228091DA0080FFB1
:1041100019C08091D80080FF15C08091DA008E7F91
:104120008093DA008091D90080FF94C080E189BD3E
:1041300082E189BD09B400FEFDCF81E080936F026A
:104140000E942C1C8091E10080FF19C08091E20048
:1041500080FF15C08091E2008E7F8093E200809105
:10416000E20080618093E2008091D80080628093B9
:10417000D80019BC85E080936F020E943F1C80919B
:10418000E10084FF29C08091E20084FF25C080E126
:1041900089BD82E189BD09B400FEFDCF8091D800C0
:1041A0008F7D8093D8008091E1008F7E8093E10025
:1041B0008091E2008F7E8093E2008091E200816036
:1041C0008093E20080916B02882309F449C084E067
:1041D00080936F020E94471C8091E10083FF29C0F9
:1041E0008091E20083FF25C08091E100877F80936A
:1041F000E10082E080936F0210926B028091E100F7
:104200008E7F8093E1008091E2008E7F8093E200B8
:104210008091E20080618093E20042E060E080E013
:104220000E94661F8091F00088608093F0000E94D9
:104230003D1CFF91EF91BF91AF919F918F917F9125
:104240006F915F914F913F912F910F900FBE0F9003
:104250001F90189519BC10926F020E943A1C72CFE1
:104260008091E30087FD02C081E0B2CF83E0B0CF50
:104270001F920F920FB60F921124FF920F931F936C
:104280002F933F934F935F936F937F938F939F935E
:10429000AF93BF93CF93DF93EF93FF9309EE10E0BB
:1042A000F8018081C091EC00C795CC27C7958F702D
:1042B000FC2EF82A1082C0EFD0E08881877F8883A7
:1042C00078940E948121F801108288818860888317
:1042D000CF2DCF70C083FF91EF91DF91CF91BF9130
:1042E000AF919F918F917F916F915F914F913F918E
:1042F0002F911F910F91FF900F900FBE0F901F9065
:1043000018951F93CF93DF93CDB7DEB7AA970FB65B
:10431000F894DEBF0FBECDBF80E792E0FC010196AE
:104320002091F100208322E088379207B9F70E949C
:104330006F1C8091E80083FF1DC1809170029091F5
:1043400071029A3008F016C1E92FF0E0E752FC4DF7
:104350000C943323803899F0823809F00BC1809196
:1043600074028F70873008F005C18093E900809156
:10437000EB0085FB882780F91092E90006C0809148
:104380006C0290916D02911182609091E800977F8C
:104390009093E8008093F1001092F1008091E80082
:1043A0008E77E4C0882309F4D2C0823009F0E2C0DD
:1043B000809172028111D5C0809174028F702FEFAD
:1043C000280F263008F0D6C08093E9002091EB003A
:1043D00020FFC7C0933031F48091EB00806280935E
:1043E000EB00BFC09091EB0090619093EB0021E057
:1043F00030E001C0220F8A95EAF72093EA0010927C
:10440000EA008091EB008860EACF8111B3C010917F
:1044100072021F778091E3008078812B8093E30004
:104420008091E800877F8093E8000E949A1F809126
:10443000E80080FFFCCF8091E30080688093E30078
:1044400082E0111183E080936F0294C08058823023
:1044500008F090C080917202909173028C3D23E02D
:10446000920799F583E08A838AE289834FB7F894AB
:10447000DE01139620E03EE051E2E32FF0E050939E
:104480005700849120FF03C082958F703F5F8F702B
:104490008A30C8F0895C90E08D939D932F5F243122
:1044A00061F74FBF8091E800877F8093E8006AE260
:1044B00070E0CE0101960E94B11E8091E8008B77DA
:1044C0008093E80057C0805DE6CF609174027091E0
:1044D0007502AE014F5F5F4F0E94A21DBC01892B88
:1044E00009F448C08091E800877F8093E8008981C3
:1044F0009A810E940B1FE1CF8038E1F58091E8009E
:10450000877F8093E80080916B028093F10046CF13
:10451000811130C090917202923060F58091E80074
:10452000877F8093E80090936B020E949A1F80918E
:104530006B02882311F084E005C08091E30087FDC1
:10454000FACF81E080936F020E94511C13C08091CA
:104550007202813079F481E0933009F080E0809339
:104560006D021092E9008091E800877F8093E80057
:104570000E949A1F8091E80083FF0AC08091E800A2
:10458000877F8093E8008091EB0080628093EB004E
:10459000AA960FB6F894DEBF0FBECDBFDF91CF91C4
:1045A0001F9108950895CF9380916F02882399F009
:1045B0008091E900C091EC00C795CC27C7958F701A
:1045C000C82B1092E9008091E80083FD0E948121B0
:1045D000CF70C093E900CF910895DB018F939F9333
:1045E0000E944F23BF91AF91A29F800D911DA39F69
:1045F000900DB29F900D11240895AA1BBB1B51E191
:1046000007C0AA1FBB1FA617B70710F0A61BB70B42
:10461000881F991F5A95A9F780959095BC01CD01E7
:104620000895A1E21A2EAA1BBB1BFD010DC0AA1FF3
:10463000BB1FEE1FFF1FA217B307E407F50720F00B
:10464000A21BB30BE40BF50B661F771F881F991F86
:104650001A9469F760957095809590959B01AC01CF
:10466000BD01CF010895EE0FFF1F0590F491E02DDD
:104670000994692796276927782787277827089537
:10468000A29FB001B39FC001A39F700D811D112493
:10469000911DB29F700D811D1124911D08950E94DE
:1046A0004023A59F900DB49F900DA49F800D911D58
:1046B00011240895FB01DC0104C08D910190801943
:1046C00021F441505040C8F7881B990B0895F9997F
:1046D000FECF92BD81BDF89A992780B50895A8E1D3
:1046E000B0E042E050E00C949B23262FF999FECFD6
:1046F00092BD81BDF89A019700B4021639F01FBA35
:1047000020BD0FB6F894FA9AF99A0FBE0895039651
:10471000272F0E9476230E947523252F0E9476233F
:10472000242F0C9476230196272F0E9476230C9435
:104730007523DC01CB01FC01F999FECF06C0F2BD67
:10474000E1BDF89A319600B40D9241505040B8F74F
:104750000895F894FFCF7F159515D515ED15FE1525
:104760000B160E16111614167216721617161E1642
:1047700028163B164A164D1650165F16E316E71616
:10478000EB16F916FD16011705170B171317171758
:104790001B171F172B172F17331737173D175B17CB
:1047A0004517F516231727170F17411751176417C9
:1047B0006817AA21D221BA22D221BA2205222622A2
:0647C000BA227C228822CF
:1047C600C80005029E1BA21B041C001CFC1BA11B8F
:1047D6000100000000E200E900EA00B500B600B7FB
:1047E60000CD008301CC008A0192019401210223AD
:1047F6000224022502260227022A02B300B4006F11
:10480600007000E200E900EA00B500B600B700CD8E
:10481600008301CC008A0192019401210223022423
:10482600022502260227022A02B300B4006F007096
:104836000066F1F4F5F6F797343590919293373395
:10484600C6F0959496674022327D0529054B05CE24
:0648560004E70407050061
:00000001FF
