:100000000C94FB030C9442040C9442040C944204A0
:100010000C9442040C9442040C9442040C94420448
:100020000C9442040C9442040C9422260C94FA265C
:100030000C94D7250C9442040C9442040C94420472
:100040000C9442040C9442040C9442040C94420418
:100050000C9442040C94FE250C9442040C9442042B
:100060000C9442040C9442040C9442040C944204F8
:100070000C9442040C9442040C9442040C944204E8
:100080000C9442040C9442040C9442040C944204D8
:100090000C9442040C9442040C9442040C944204C8
:1000A0000C9442040C9442040C944204050109028D
:1000B000A10185020901A1000509190129081500FE
:1000C0002501950875018102050109300931158165
:1000D000257F95027508810609381581257F9501D0
:1000E00075088106050C0A38021581257F95017572
:1000F000088106C0C005010980A101850319012AF4
:10010000B700150126B700950175108100C0050CD8
:100110000901A101850419012AA002150126A002E6
:10012000950175108100C005010906A1018506052C
:100130000719E029E71500250195087501810205D9
:1001400007190029EF1500250195F07501810205B9
:10015000081901290595057501910295017503910D
:1001600001C00660FF0961A1010962150026FF00B8
:100170009520750881020963150026FF00952075FA
:10018000089102C005010906A101050719E029E748
:1001900015002501950875018102950175088101F9
:1001A0000507190029FF150026FF0095067508812F
:1001B000000508190129059505750191029501753C
:1001C000039101C009025B00030100A0FA090400C9
:1001D0000001030101000921110100012240000773
:1001E00005810308000A0904010002030000000958
:1001F00021110100012222000705820320000107CE
:1002000005030320000109040200010300000009A6
:10021000211101000122B6000705840320000A1203
:10022000010002000000085A4415100100010200FC
:1002300001140365006E0064006C006500730073B8
:10024000003800300000000E0364007A007400657E
:10025000006300680000000403090429003A003B21
:10026000003C003D003E003F004000410042004392
:1002700000440045004600470035001E001F0020D6
:100280000021002200230024002500260027002D45
:10029000002E002A0048002B0014001A0008001548
:1002A0000017001C0018000C00120013002F003073
:1002B0000031004900390004001600070009000A57
:1002C000000B000D000E000F003300340028004A20
:1002D000004B00E1001D001B000600190005001185
:1002E000001000360037003800E5004C004D004E8D
:1002F00000E000E300E2003100000000002C00E616
:1003000000E7006500E4005000520051004F00017A
:1003100000010001000100010001000100010001D5
:1003200000010001000100010001000100010001C5
:1003300000010001000100010001000100010001B5
:1003400000010001000100010001000100010001A5
:100350000001000100010001000100010001000195
:100360000001000100010001000100010001000185
:100370000001000100010001000100010001000175
:100380000001000100010001000100010001000165
:100390000001000100010001000100010001000155
:1003A0000001000100010001000100010000000047
:1003B0000001000100010001000100010001000135
:1003C0000001000100010001000100010001000125
:1003D0000001000100010001000100010001000115
:1003E0000001000100010001000100010001000105
:1003F00000010001000100010001000100010001F5
:1004000000010001000100010001000100010001E4
:1004100000010001000100010001000100010001D4
:1004200000010001000100010001000100010001C4
:1004300000010001000100010001000100010001B4
:1004400000010001000100010001000100010001A4
:100450000001000100010001000100010001000194
:100460000000000000010001000100010001000186
:100470000001000100010001000100010001000174
:100480000001000100010001000100010001000164
:100490000001000100010001000100010001000154
:1004A0000001000100010001000100010001000144
:1004B0000001000100010001000100010001000134
:1004C0000001000100010001000100010001000124
:1004D0000001000100010001000100010001000114
:1004E0000001000100010001000100010001000104
:1004F00000010001000100010001000100010001F4
:1005000000010001000100010001000100010001E3
:1005100000010001000000000001000100010001D5
:10052000000100010001000100010022232526280E
:10053000292A2C2D2F3032333536383A3B3D3E4078
:1005400042434547494A4C4E5051535557595A5CBE
:100550005E6062646668696B6D6F71737577797BD5
:100560007D7F81838587898A8C8E90929496989AD4
:100570009C9E9FA1A3A5A7A8AAACAEAFB1B3B4B6E9
:10058000B8B9BBBCBEBFC1C2C3C5C6C7C9CACBCC44
:10059000CDCED0D1D2D2D3D4D5D6D7D7D8D9D9DA17
:1005A000DADBDBDBDCDCDCDCDCDDDDDDDDDCDCDC8C
:1005B000DCDCDBDBDBDADAD9D9D8D7D7D6D5D4D3B4
:1005C000D2D2D1D0CECDCCCBCAC9C7C6C5C3C2C189
:1005D000BFBEBCBBB9B8B6B4B3B1AFAEACAAA8A7E6
:1005E000A5A3A19F9E9C9A98969492908E8C8A899E
:1005F000878583817F7D7B79777573716F6D6B697B
:1006000068666462605E5C5A5957555351504E4C4F
:100610004A4947454342403E3D3B3A3836353332FE
:10062000302F2D2C2A292826252322FFAA7F55404A
:1006300000010101010101010101020202020202A5
:100640000202020303030303030303040404040478
:10065000040405050505050606060606070707073F
:100660000708080808090909090A0A0A0B0B0B0CF4
:100670000C0C0D0D0D0E0E0E0F0F0F101011111191
:100680001212131314141515161617171818191912
:100690001A1A1B1B1C1D1D1E1E1F20202122222377
:1006A0002424252626272829292A2B2C2D2D2E2FB8
:1006B00030313232333435363738393A3B3C3D3ECF
:1006C0003F404142434445464748494A4C4D4E4FBE
:1006D00050515354555658595A5B5D5E5F61626480
:1006E000656668696B6C6D6F7072737577787A7B0D
:1006F0007D7E8082838587888A8C8E8F9193959664
:10070000989A9C9EA0A2A3A5A7A9ABADAFB1B3B583
:10071000B7BABCBEC0C2C4C6C9CBCDCFD1D4D6D85F
:10072000DBDDDFE2E4E7E9EBEEF0F3F5F8FAFDFFFD
:100730001E0F0500047F3F1F643214643214783C9E
:100740001E1E140A0500000000000000000000004A
:100750000000000000000000000000000000000099
:100760000000000000000000007E0F00D4FFFFFF2B
:10077000C70000007800000000000000002A2B28BD
:100780000000000000000000000000000000000069
:1007900029000000002C1E34202122243426272585
:1007A0002E362D3738271E1F2021222324252633BD
:1007B00033362E37381F0405060708090A0B0C0DBF
:1007C0000E0F101112131415161718191A1B1C1DD1
:1007D0002F3130232D350405060708090A0B0C0DAF
:1007E0000E0F101112131415161718191A1B1C1DB1
:1007F0002F3130354C0011241FBECFEFDAE0DEBFC1
:10080000CDBF04B603FE27C080919F039091A00343
:10081000A091A103B091A2038730904BA740B04BA9
:10082000D1F410929F031092A0031092A103109292
:10083000A20314BE84B7877F84BF0FB6F894A8952F
:1008400080916000886180936000109260000FBE0C
:10085000E0E0F8E3099523E0A0EAB1E001C01D92D1
:10086000AF39B207E1F711E0A0E0B1E0EEE8F2E560
:1008700002C005900D92A03AB107D9F70E947A20E4
:100880000C94DE280C94000081FD02C0769A089535
:1008900076980895E82F2FE0929FE00D11248E2F77
:1008A000877041E001C0440F8A95EAF7E695E69526
:1008B000E69583E0E89FF0011124E85DFC4F30E00D
:1008C00020E070E05191DF011197CB01022E02C0B0
:1008D000969587950A94E2F7817081958527842300
:1008E00085278C932F5F3F4F2330310559F70895AB
:1008F000E82F2FE0929FE00D11249E2F9770E69530
:10090000E695E69583E0E89FF0011124E85DFC4F51
:1009100050E040E080E0219130E0092E02C03695A1
:1009200027950A94E2F721703327042E01C0220F85
:100930000A94EAF7822B4F5F5F4F4330510559F716
:1009400008958091680390916703981301C00895FA
:100950008F5F8770FACF90911E019923E1F09091FB
:10096000640397FF18C0E82FE695E695E695803F6B
:10097000F0F4F0E0EE55FE4F877021E030E0A90181
:1009800002C0440F551F8A95E2F7CA0180959281F3
:10099000892382830895E4EAF1E09191891303C0E9
:1009A000DF0111971C9251E0EA3AF507B1F708957B
:1009B000982F909580915F03892380935F0308951A
:1009C00080916003811110926003089580915F030C
:1009D00090916603892B90914C03892B8093A201FF
:1009E000909160039923A1F0892B8093A2018091BB
:1009F0001E01882341F18091640387FF24C08EE1AA
:100A0000E4EAF1E090E0815000F591110E94E004E9
:100A1000E0912603F09127033097E1F080911E01C9
:100A2000882359F08091640387FF07C08091A20159
:100A30008093A30186E08093A2010280F381E02DE0
:100A400082EA91E0099486E0DBCF21912223D9F25A
:100A50009F5FD9CF0895882339F090915F03892B48
:100A600080935F030C94E6040895882321F00E948C
:100A7000D8040C94E60408959091640392FF06C094
:100A8000282F28712830F9F4877F846093FF06C0EF
:100A9000282F28712831F1F4877E84612091650325
:100AA00020FF06C0382F38713830D9F4877F816035
:100AB00021FF06C0282F28712831D1F4877E81615B
:100AC00094FD877E0895282F24712430F9F68B7FBA
:100AD0008860DCCF282F2471243101F78B7E886158
:100AE000DDCF382F3171313019F78E7F8860E0CF3C
:100AF000282F2171213121F78E7E8861E1CFCF939C
:100B0000DF93EC01803E910509F460C050F581331C
:100B1000910509F4A6C090F48932910509F49AC0B0
:100B20008A9709F4A5C0C130D10509F462C0CE018D
:100B30000497813A910508F055C05BC0893391054F
:100B4000F1F182389105D9F1C59709F47CC0C83A12
:100B5000D10508F094C0C53AD10528F3A497D06414
:100B600048C0843E910509F453C068F4823E910563
:100B7000E1F1833E910509F440C0CE01805E910908
:100B8000089780F536C0863E910509F44CC0873E33
:100B9000910509F44DC0811523E5920708F09AC02C
:100BA000811532E5930708F000C18F3F910511F0E0
:100BB00008F074C0803F910550F2D0651AC0809152
:100BC00064038370B1F0C0EED0E013C08091640381
:100BD00080FD15C19091650390FF0BC0C3EED0E07E
:100BE00084FF07C0D0E0C0E004C08091640382FDB0
:100BF000F5CFCE01DF91CF9108958091640382FDFE
:100C000001C19091650390FDDECF84FFF2CFEACF62
:100C10008091650381FFEDCF80916403C7EED0E042
:100C200084FDE0CFE6CF8091640383FDF7CFE1CF71
:100C30008091640383FDE9C09091650391FFE5CF46
:100C4000C4EED0E0D6CF8091640385FFD2CFC9E255
:100C5000D0E0CFCF8091640385FFCBCFC5E3D0E058
:100C6000C8CF8091640386FFC4CFCAE2D0E0C1CF71
:100C70008091640386FFBDCFC1E3D0E0BACFCF3B04
:100C8000D10508F07ACFC85AD0E0CC0FDD1FCE587E
:100C9000DE4F0990D881C02DD464ABCFC11581E55A
:100CA000D80798F4C11520E5D20708F061C0C11536
:100CB00030E2D30708F49DCFCE01905481159041C6
:100CC00008F090CFDF70D06A94CFDC2FCC27C16FB3
:100CD000D06A8FCF811539E59307A0F5C11588E556
:100CE000D80708F07AC0C11525E5D207C8F4C115A8
:100CF00034E5D30708F06CC09E012370332781E0F0
:100D000090E002C0880F991F2A95E2F7C695C69514
:100D100020E2C29FE0011124C82BD92BDA6869CFE9
:100D2000CE0195558F3F910511F008F05BCF8C2FC8
:100D30000E943C05C82FD0E0DC2FCC27CC27DF71E8
:100D4000D06257CF81153AE5930708F44BC090560F
:100D50008115904208F046CF8D2F8F710E943C057F
:100D600090E0982F882788279F718C2BEC01E8CF83
:100D70009E0174E0369527957A95E1F723708C2FC4
:100D800086958695837030E2839FC0011124922B53
:100D9000C37021E030E002C0220F331FCA95E2F792
:100DA000822B932BEC01DC6824CF9C01237033272A
:100DB00081E090E002C0880F991F2A95E2F7C6955E
:100DC000C69520E2C29FE0011124C82BD92BEBCF9E
:100DD000DC2FCC27C46FD06A0CCFDC2FCC27C06FA0
:100DE000D06A07CF8F700E943C0534E0D695C79536
:100DF0003A95E1F7CF709C2FEC01D069FACEC9E3A8
:100E0000D0E0F7CEC2EED0E0F4CEC6EED0E0F1CE28
:100E100080E00895F894E82FE295EF70F0E041A1AA
:100E20008F7021E030E0B90102C0660F771F8A950C
:100E3000E2F7CB01962F9095942391A392A1892B51
:100E400082A378940895089580914D0380FD14C085
:100E500081FD14C082FD16C080914F03882381F06C
:100E6000843180F422E3829FC001112464E170E0A8
:100E70000E947127862F08958CE0089589E10895D6
:100E800085E0089582E3089580914D0380FD16C0AA
:100E900081FD16C082FD16C080914E038823A1F00B
:100EA000883280F428E0829FC001112468E270E05B
:100EB0000E947127862F672B39F0089582E00895EC
:100EC00084E0089588E0089581E00895E0E1E80F66
:100ED000E031E0F5F0E0E052F74D0C9485270E94F8
:100EE000240781958093530308950E942407FACF25
:100EF0000E94240781958093520308950E9424073D
:100F0000FACF0E9444078093540308950E94440737
:100F10008195F9CF0E9444078195809355030895E8
:100F20000E944407FACF845F990B21E030E001C0B2
:100F3000220F8A95EAF780915103822B8093510307
:100F4000089580914D03816080934D0308958091B1
:100F50004D038260F9CF80914D038460F5CF4091BD
:100F60005203803F59F48091530387FF0DC01092C4
:100F7000530341110BC010924F0308C0813F81F40D
:100F80008091530318169CF3442381F080915403FD
:100F900090915503892B09F05AC010924E03089581
:100FA000823F49F447FFF0CF1092520380915303E0
:100FB0008111ECCFE0CF833F19F41416ACF3E4CFEA
:100FC00090915403893F29F41916F4F610925403B2
:100FD000DBCF8A3F19F497FFD7CFF8CF9091550315
:100FE0008B3F29F497FFD0CF10925503CDCF8C3F84
:100FF00019F41916CCF3C8CF9CE0980F953090F4F3
:10100000845F990B21E030E0B90102C0660F771FC1
:101010008A95E2F7CB0180959091510389238093C3
:101020005103B2CF8D3F31F480914D038E7F809379
:101030004D03AACF8E3F21F480914D038D7FF7CFD2
:101040008F3F09F0A1CF80914D038B7FF0CF0895A2
:10105000AF92BF92CF92DF92EF92FF920F931F93C6
:10106000CF93DF93082F162FE901433808F042E8A9
:10107000E42FF0E0E05DF94F111111C0E4913E2F33
:101080002E2F2983E8833A83DF91CF911F910F910F
:10109000FF90EF90DF90CF90BF90AF900895E12E3A
:1010A000F12C249146E0049F50011124CC24CA94D1
:1010B000D12CC501B6010E945D27802F90E0880FDA
:1010C000991F35E5369FA001379F500D1124841BD1
:1010D000950BF82FFF0FF80FA6014E195F09249FFB
:1010E000C001259F900D1124E92F1F9FA0011124FD
:1010F000452F5527D601A41BB50B2A9FA0012B9F76
:10110000500D1124352F86010F1B11090E9DD001A2
:101110000F9DB00D1E9DB00D1124AB2FBB27CA1A19
:10112000DB0A2C9DD0012D9DB00D1124633071057B
:10113000D1F0FCEFAF16F3E0BF0670F4613071053B
:10114000B1F062307105B9F04FEFA416B10408F0A8
:1011500098CF392FEB2F95CF6430710579F0663039
:101160007105B9F38ECFE52F322F292F8ACFE22FC9
:10117000252F392F86CF3B2FE22FF7CF322F2B2F62
:1011800080CF80915A03982F9E7F61F48170826096
:1011900080935A0380915D03833818F082E880932E
:1011A0005D0308958635B0F381708465F1CFFA014F
:1011B00081110994FB01FDCFE0912603F0912703F3
:1011C000309721F00190F081E02D099480E008959E
:1011D0002091F6013091F7012817390771F09093AB
:1011E000F7018093F601E0912603F09127033097F1
:1011F00021F00680F781E02D099408952091F401F3
:101200003091F5012817390771F09093F50180931B
:10121000F401E0912603F0912703309721F0008438
:10122000F185E02D099408959C0180911E01882389
:10123000C1F08091640387FF14C0862F8695869540
:101240008695603FF8F4F901E80FF11D677021E021
:1012500030E001C0220F6A95EAF78281822B8283F7
:101260000895F90132968FEF90E04191641751F0A3
:101270008F3F19F4411101C0892F9F5F9630A9F764
:101280008F3F09F40895280F311D87FD3A95F90124
:10129000628308952FB7F894809106039091070315
:1012A000A0910803B09109032FBF08950E944A0935
:1012B0002091520330915303232B21F08093F602A7
:1012C0009093F7022091540330915503232B21F082
:1012D0008093F4029093F502E0912603F0912703A6
:1012E000309749F082E0809350030480F581E02D2F
:1012F00080E593E009940895CF93C82F882309F4DB
:101300006BC08CEF8C0F813AA8F580911E01882369
:1013100001F18091640387FF1CC0EC2FE695E695F0
:10132000E695F0E0EE55FE4F828190E04C2F47703D
:1013300021E030E002C0220F331F4A95E2F78223FA
:101340009323892B79F08C2F0E94AB040E94E60432
:1013500009C0E4EAF1E08191C817A9F321E0EA3A73
:10136000F207C9F76C2F82EA91E00E941409CF912D
:101370000C94E60480E28C0F883068F4C77021E09A
:1013800030E001C0220FCA95EAF780915F03822BFB
:1013900080935F03ECCF8BE58C0F833038F42C2FD8
:1013A0002452330BC901CF910C94E808E8E5EC0F07
:1013B000E73150F4F0E0EE0FFF1FEE58FE4F808152
:1013C0009181CF910C94FE08C03F30F08C2F0E9489
:1013D0006607CF910C945609CF910895882361F147
:1013E0009CEF980F913A20F40E94AB040C94E60411
:1013F00090E2980F983050F4877091E001C0990FF7
:101400008A95EAF7892F0E94D804F0CF9BE5980FC0
:10141000933020F490E080E00C94E80898E5980F71
:10142000973120F490E080E00C94FE08803F20F09B
:101430000E94AF070C945609089590E080E00E9446
:10144000E80890E080E00E94FE0810926603109287
:101450004C030E94E60486E0E0E5F3E0DF011D9224
:101460008A95E9F710924F0310924E0310924D03A4
:101470000C945609809361030C941D0A80936203B7
:101480000C941D0A21E030E001C0220F8A95EAF792
:1014900080916203822B0C943E0A21E030E001C06F
:1014A000220F8A95EAF720958091620382230C949B
:1014B0003E0A909163038095892380936303282FCC
:1014C000277091F4282F082E000C330B9217130667
:1014D00059F09091650392FD07C085958595859596
:1014E0000E944D0A1092630308959C014FB7F8942F
:1014F0008091060390910703A0910803B09109031E
:101500004FBF821B930B08958091F30108950895B6
:10151000FC01CB012091CE013091CF012617370776
:1015200090F0009729F42091E8002E772093E800AE
:1015300040E0009751F4411108C08091E80082FF1B
:1015400031C080E00895C901F3CF20910A0322231E
:10155000A9F12530A9F12091E80023FD2DC02091AB
:10156000E80022FDEACF2091E80020FFE2CF309191
:10157000F3002091F200009719F02830310558F05F
:1015800041E02830310509F040E02091E8002E7755
:101590002093E800CECF41914093F10001972F5F57
:1015A0003F4FE9CF80910A03882341F0853041F015
:1015B0008091E80083FFC1CF81E0089582E0089523
:1015C00083E008958091C80187FF13C08091E800EF
:1015D00082FF06C08091E8008B778093E80004C00A
:1015E00080910A038111F2CF089580910A03882324
:1015F000D9F38091E80080FFF8CF8091E8008E77E2
:10160000ECCF2091E4003091E50095E6A90120910E
:10161000EC00822F817020FF06C08091E80080FFDF
:1016200006C080E008952091E80022FD1AC0809154
:101630000A03882389F0853089F08091EB0085FDCD
:101640000FC02091E4003091E50042175307F9F2F2
:101650009150E1F684E0089582E0089583E00895D2
:1016600081E00895E8EDF0E080818E7F8083109224
:10167000E2001092DA001092E100A0EEB0E08C914E
:1016800081608C9380818F77808319BCA7EDB0E057
:101690008C918E7F8C9380818F7E80831092C70186
:1016A0000895EF92FF920F931F93CF937C018B01CC
:1016B0000E94010BC82F811117C08091E80085FDA1
:1016C0000BC08091E8008E778093E8000E94010BA8
:1016D000882399F3C82F08C0F70181917F01809377
:1016E000F1000150110949F78C2FCF911F910F91F3
:1016F000FF90EF90089580916203982F9670963036
:1017000019F488600C943E0A877FFCCF982F909341
:10171000E900242F762F50E0891731F07091EC000A
:101720002091ED005091F00021FD06C09F5F9730A1
:1017300071F78093E90008953091EB003E7F30937C
:10174000EB003091ED003D7F3093ED003091EB00E8
:1017500031603093EB007093EC002093ED005093D8
:10176000F0002091EE0027FDE1CF0895CF92DF92A7
:10177000EF92FF920F931F93CF93DF93C8EDD0E0CA
:1017800088818F7E8883E7EDF0E0808181608083AF
:1017900084E082BF81E08093C70188818E7F888347
:1017A00002EE10E0F80110821092DA0081EEC82EED
:1017B000D12CF601108288818F7788838881806898
:1017C000888388818F7D888319BC10920A031092C8
:1017D000C6011092ED021092C50190EEE92EF12C97
:1017E000F70180818B7F808388818160888342E0DC
:1017F00060E080E00E94860BF60180818E7F80830E
:10180000F801808181608083808188608083F70116
:1018100080818E7F8083888180618883DF91CF91F2
:101820001F910F91FF90EF90DF90CF9008950F934D
:101830001F93CF93C82F10E000E0893311F400E527
:1018400010E08C2F0E947C090115110531F48C2FBA
:10185000CF911F910F910C94EE098FE99FE00197B2
:10186000F1F700C0000001501109EECFFF920F9375
:101870001F93CF93DF93C62FD42F122F8823A9F065
:10188000609356030E944A099093C3018093C2015A
:10189000C77081E001C0880FCA95EAF7DF91CF9148
:1018A0001F910F91FF900C942B05809156036813A4
:1018B00034C08091C2019091C3010E94750A883C96
:1018C000910558F500E20D0FCD17A9F0C770FF2460
:1018D000F3948F2D01C0880FCA95EAF70E94350551
:1018E000083048F48D2F877001C0FF0C8A95EAF705
:1018F0008F2D0E942B05812F0E94170C0830A0F419
:10190000D77081E001C0880FDA95EAF7DF91CF91B7
:101910001F910F91FF900C943505C77081E001C0B5
:10192000880FCA95EAF7F2CFDF91CF911F910F91FF
:10193000FF90089580915A0380FD0AC0E1E9F2E02A
:10194000118210821282339652E0EB3EF507C1F706
:10195000879A31B33F7721B320684FB7F89481E974
:1019600092E0FC010196508168E021BB000000C0BC
:1019700057FF31BB550F000000C000C000C031BB95
:1019800000C06A9591F752E08B3E950751F74FBF23
:101990008FE594E00197F1F700C000000895EF9201
:1019A000FF921F93CF93DF93EC0181E9E82E82E051
:1019B000F82E10E08C81970140915D0360915C03EB
:1019C000810F0E942808185F83E0E80EF11C103F89
:1019D00089F70E949A0C9A818C8190FF08C08F5FD2
:1019E0008C83DF91CF911F91FF90EF9008958150EC
:1019F000F7CFCF92DF92EF92FF920F931F93CF9387
:101A0000DF93FC018281DD24DA9480FD02C0DD24B5
:101A1000D39401E912E0D0E0C0E0F8011182108215
:101A2000128294E0E92EF12CC12C809190028C0D51
:101A30008F31E4F16EE10E944F27892F082E000CB0
:101A4000990B8C179D0791F480915D038E9DA001E9
:101A50008F9D500D112455954795559547959801A3
:101A600060915C0380915B030E942808CD0CF1E03B
:101A7000EF1AF108D1F621960D5F1F4FCE31D10537
:101A800061F60E949A0C8091900291E0D91212C0E6
:101A90008823B1F0815080939002DF91CF911F9104
:101AA0000F91FF90EF90DF90CF90089587FFC6CF02
:101AB000825EC4CF90E00196BE010E947127EBCFF9
:101AC0008DE1E9CF0F931F93CF93DF93C1E9D2E06C
:101AD000FE01118210821282339682E0EB3EF807FB
:101AE000C1F710E000E080918F02082E000C990BE6
:101AF000081719078CF180910601082E000C990B2C
:101B0000801791074CF19E0140915D0360915C0349
:101B100080915B030E9428080F5F1F4F23960E31B0
:101B2000110509F70E949A0C8091050190918F028E
:101B3000980F90938F0220910601280F20930601A1
:101B4000121614F49D311CF0819580930501DF91EC
:101B5000CF911F910F910895198218821A82DCCFBC
:101B6000CF92DF92EF92FF920F931F93CF93DF9369
:101B7000CDB7DEB72E970FB6F894DEBF0FBECDBF40
:101B80008D879E87AD85BE8514961C91212F30E0F0
:101B9000D9010E94CF289B01AC010E949A28698339
:101BA0007A838B839C83E0E2F0E0E11BF109A5E5F9
:101BB000B0E09B01AC010E949A2869877A878B87E5
:101BC0009C879F01DF010E9492279B01AC010E942C
:101BD000A5286D837E838F8398879B01AC018981C3
:101BE0009A81AB81BC81280F391F4A1F5B1F698511
:101BF0007A858B859C850E94AD28F22E422F50E07D
:101C000099E29F1508F442C0A3E02A9F9001112495
:101C100035952795122F109591E9C92E92E0D92E6E
:101C200000E085E5E82EEF188E2D01FD8F2D960141
:101C3000412F60915C030E9428080F5FB3E0CB0E38
:101C4000D11C0E3189F70E949A0CED85FE85948196
:101C500081E0992319F0903219F48FEF80930401F9
:101C600080910401890FAD85BE8514968C932E96C4
:101C70000FB6F894DEBF0FBECDBFDF91CF911F919D
:101C80000F91FF90EF90DF90CF90089585E590E061
:101C9000841B950B9C01220F331F280F391F37FF20
:101CA000B7CF2F5F3F4FB4CFEF92FF920F931F93A9
:101CB000CF93DF93EC0101E912E0F12CE12C9C8140
:101CC00060915C0380915B032FE0E216F104FCF469
:101CD0009923F9F0980140915D030E9428088FEF45
:101CE000E81AF80A0D5F1F4F2EE1E216F10439F7EA
:101CF0000E949A0C8C8190E00196817099278C83C8
:101D0000DF91CF911F910F91FF90EF90089599234C
:101D100009F3980140E0E1CF90915A0390FF0CC085
:101D2000E1E9F2E0818360834283339692E0EB3E07
:101D3000F907C1F70C949A0C08950F931F93CF9352
:101D4000DF9300D00F92CDB7DEB78C0180918E0269
:101D500081110AC09E012F5F3F4F42E86FEF0E9442
:101D600028088A8180938E02F8016481613049F0ED
:101D70006230F1F080918E0240E0662331F040E065
:101D800019C060918E0240E080E00E948C0EF80144
:101D9000848190E0019663E070E00E947127848363
:101DA0000F900F900F90DF91CF911F910F91089599
:101DB00040918E0280E060E0E8CFCF93DF9300D0C7
:101DC0000F92CDB7DEB790915A0390FF0FC09E01DE
:101DD0002F5F3F4F0E9428084B8169818A810F90B5
:101DE0000F900F90DF91CF910C948C0E0F900F906D
:101DF0000F90DF91CF910895CF93DF93EC01EC81A9
:101E0000F0E0E55DFA4F4491EAE5F3E0628181811B
:101E10000E94DD0E8C818F5F8C83DF91CF910895BE
:101E2000CF93DF93EC01EAE5F3E0438162818C819B
:101E30000E94DD0E8C818F5F8C83DF91CF9108959E
:101E400081E08093E00080E28093D8001092C90086
:101E50008FE19EE40197F1F700C0000087E090EB6E
:101E6000DC0180939F039093A003A093A103B09300
:101E7000A20388E19CE00FB6F894A89580936000D7
:101E80000FBE90936000FFCFCF93DF93D82FC92F61
:101E900080911E018823C1F18091640387FF34C0C3
:101EA00060E284E08093E9008FEF9091E800815038
:101EB00095FD06C095ED9A95F1F700008111F5CFDB
:101EC0008091E80085FF1DC080911E0170E050E008
:101ED00040E0811104C050E040E068E070E08D2FE8
:101EE0009C2F0E94510B8091E8008E778093E80030
:101EF00080E2ED2FFC2FA3EDB1E001900D928A95C9
:101F0000E1F7DF91CF91089568E081E0CBCF24E045
:101F10002093E9002FEF3091E800215035FD06C0F5
:101F200035ED3A95F1F700002111F5CF2091E80049
:101F300025FF0BC050E040E066E070E00E94510BCE
:101F40008091E8008E778093E80008958093D00117
:101F50007093D2016093D10180910A038430F9F427
:101F60008093E9008FEF9091E800815095FD06C0C5
:101F700095ED9A95F1F700008111F5CF8091E80079
:101F800085FF0DC050E040E063E070E080ED91E03F
:101F90000E94510B8091E8008E778093E8000895AD
:101FA000BC0183E00C94A60FBC0184E00C94A60F46
:101FB000CF93C0916503C2FB992790F9981799F0C8
:101FC00080FBC2F9C09365036091640384E090E0F4
:101FD0000E9447286C2F82E290E00E94472882E00E
:101FE000CF910C94590ACF9108954F925F926F92BE
:101FF0007F928F929F92AF92BF92CF92DF92EF9299
:10200000FF920F931F93CF93DF9310E000E034EB28
:10201000632E712CE801CC0FDD1F58011CC0F601A6
:1020200085909490692DC7010E944728682DC701AB
:1020300001960E94472822E0C20ED11C32E0E30E36
:10204000F11C4E145F0459F76E968FE0A80EB11C78
:10205000C615D70581F0C501880F991F9C01255A27
:102060003D4F69017E0137E2E30EF11C2E0185E44C
:10207000480E511CD4CF3E0124EB620E711C065A4F
:102080001F4F083631E0130729F6DF91CF911F91DA
:102090000F91FF90EF90DF90CF90BF90AF909F9007
:1020A0008F907F906F905F904F900895CF93C82F3F
:1020B0006FEF811162E283E290E00E9447286FEFA8
:1020C000C11163E084E290E00E9447286FEFC111E4
:1020D00069E085E290E0CF910C944728CF93DF939D
:1020E000C7EFD2E060E0CE010E9447282196C115DB
:1020F00084E0D807B9F7DF91CF91089580E00E947E
:10210000561060E086E290E00E9447280E94F50F9A
:102110000E946E1081E00C945610CF9384E090E002
:102120000E943328C82F82E290E00E943328982F23
:102130008C2FCF91089583E290E00E943328823261
:1021400089F484E290E00E943328833059F485E2D8
:1021500090E00E94332891E0893009F090E0892FC7
:102160008170089580E0FCCF0F931F93CF93DF938E
:10217000C42FD0E0CC0FDD1F2EE1629FC00DD11D1A
:10218000112434EB839FC00DD11D1124CE018796FD
:102190000E943328082F10E0102F0027CE018896C8
:1021A0000E9433289801282BC901DF91CF911F91FC
:1021B0000F910895462F672F843030F4763020F445
:1021C0004F3010F40C94B41090E080E00895DF924A
:1021D000EF92FF920F931F93CF93DF937C010091B7
:1021E000620380916103082BC7E0D0E010E0DC2E91
:1021F000C8010C2E02C0959587950A94E2F780FDE0
:102200000CC02197A0F7D12C8D2DDF91CF911F917C
:102210000F91FF90EF90DF900895B7018C2F0E94EF
:10222000DA100E947F05019761F3EECF0F931F93A1
:10223000CF93FC01828100811181882389F066237C
:1022400079F0C8010E94E710C82F682FC8010E94CA
:102250004A04B8018C2FCF911F910F910C94DA1082
:10226000C8010E947804C82FF4CFCF93DF93D82FF2
:10227000C92F0E94E7106D2F7C2F0E94DA10DF918A
:10228000CF910C947F050E943511282F892F8F70D4
:10229000392F32953F70903C80F43A30B0F43430AE
:1022A00020F4323090F480E008953630E1F781E098
:1022B000283E88F0213FB9F70EC03C3011F03F3086
:1022C00091F7869586958695089581E0203F39F0AF
:1022D00018F4283E40F70895243F29F7FCCF0895CD
:1022E00010925F0380911E01E4EAF1E0882359F027
:1022F0008091640387FF07C08EE1DF011D928A95FC
:10230000E9F70C941D0A86E0F8CF1F93CF93DF9373
:10231000CDB7DEB7AA970FB6F894DEBF0FBECDBF1C
:1023200088EC91E0FC0101962091F100208321E0EE
:10233000803D9207B9F78091C901893009F456C0F0
:10234000C8F4823009F4B3C0833009F482C081300C
:1023500071F18091E80083FF84C28091C80190915F
:10236000C9019A3008F07DC2E92FF0E0E051F74D45
:102370000C9485278A3009F489C08B3051F78091FD
:10238000C801813231F78091CC019091CD01892B28
:1023900001F78091E800877F8093E8000E94E20ABD
:1023A0008091CA0180931E010E947011D2CF80914A
:1023B000C801813A71F68091E800877F8093E80038
:1023C0008091CC019091CD01892B61F460E283ED85
:1023D00091E070E00E94880A8091E8008B778093FA
:1023E000E800B7CF60E090E080E0F3CF8091C801D3
:1023F000813209F0AECF8091CC019091CD018D7FDB
:10240000892B09F0A6CF8091E800877F8093E800B0
:102410008091E80082FF18C09091F3008091F20053
:10242000029731F48091F100813011F0863021F46F
:102430008091F1008093F3018091E8008B77809385
:10244000E8000E94E20A85CF80910A038111E0CF63
:1024500080CF8091C801813A09F07BCF8091CC0177
:102460009091CD01892B09F074CF8091E800877F8E
:102470008093E8008091E80080FFFCCF80911E01EE
:102480008093F1008091E8008E77D9CF8091C801C8
:10249000813209F05ECF8091E800877F8093E80069
:1024A0000E94E20A8091CB018093C40152CF8091B7
:1024B000C801813A09F04DCF8091E800877F809371
:1024C000E8008091E80080FFFCCF8091C401D8CF64
:1024D000803899F0823809F0C4C18091CC018F70A6
:1024E000873008F0BEC18093E9008091EB0085FB46
:1024F000882780F91092E90006C08091C50190916B
:10250000ED02911182609091E800977F9093E8002E
:102510008093F1001092F1008091E8008E779DC1C8
:10252000882309F48BC1823009F09BC18091CA01D4
:1025300081118EC18091CC018F702FEF280F263032
:1025400008F08FC18093E9002091EB0020FF80C14B
:10255000933031F48091EB0080628093EB0078C17E
:102560009091EB0090619093EB0021E030E001C08E
:10257000220F8A95EAF72093EA001092EA008091F0
:10258000EB008860EACF81116CC11091CA011F77FE
:102590008091E3008078812B8093E3008091E800B4
:1025A000877F8093E8000E94E20A8091E80080FF24
:1025B000FCCF8091E30080688093E30082E01111FA
:1025C00083E080930A034DC18058823008F049C1EE
:1025D0004091CA015091CB014C3D83E0580799F5D9
:1025E00083E08A838AE289834FB7F894DE011396E9
:1025F00020E03EE051E2E32FF0E050935700849159
:1026000020FF03C082958F703F5F8F708A30C8F0C3
:10261000895C90E08D939D932F5F243161F74FBFCC
:102620008091E800877F8093E8006AE270E0CE0145
:1026300001960E94880A8091E8008B778093E800D9
:1026400010C1805DE6CF8091CC019091CD01252F06
:1026500033272330310509F44AC078F5213031059C
:1026600009F479C08BE590E0E4ECF1E0223031052B
:1026700009F0F7C02091E800277F2093E80020911F
:10268000CE013091CF018217930708F49C0140E0FE
:102690002115310509F064C0411162C08091E80044
:1026A00082FDC9CF80910A03882329F2853019F26F
:1026B0008091E80083FFF2CFBECF2132310509F4CB
:1026C0003BC02232310509F0CCC08330910508F0BF
:1026D000C8C0FC01EE0FFF1FEA5DFE4F0190F081C4
:1026E000E02D8D5D9E4FDC018C9190E011C0CA0100
:1026F0009927413089F082309105B1F0892B09F09A
:10270000B0C0E7E5F2E0E4918E2F90E0E7E5F2E07B
:10271000009709F4A6C0AECFE7E4F2E0E4918E2F73
:1027200090E0E7E4F2E0F4CFE1E3F2E0E4918E2F11
:1027300090E0E1E3F2E0ECCF8330910508F091C046
:10274000880F991FFC01E45DFE4F0190F081E02DA0
:1027500089E090E08FCF82E190E0EFE1F2E08ACF74
:1027600080910A03882309F466CF853009F463CF8A
:102770008091E80083FD5FCF8091E80082FD8ECFDD
:102780008091E80080FF84CF9091F3008091F20067
:102790002115310519F08830910550F041E0089776
:1027A00009F040E08091E8008E778093E80070CFD8
:1027B00044914093F1003196215031090196E8CFC0
:1027C000803809F04EC08091E800877F8093E80050
:1027D0008091C6018093F1009FCE811142C010917B
:1027E000CA011230F0F58091E800877F8093E800FD
:1027F0001093C6010E94E20A112311F084E005C083
:102800008091E30087FDFACF81E080930A0342E0E4
:1028100061EC81E00E94860B42E261EC84E00E9460
:10282000860B42E261EC82E00E94860B42E260ECA1
:1028300083E00E94860B80910A0313C08091CA0135
:10284000813079F481E0933009F080E08093ED02EB
:102850001092E9008091E800877F8093E8000E9451
:10286000E20A8091E80083FF0AC08091E800877F38
:102870008093E8008091EB0080628093EB00AA9641
:102880000FB6F894DEBF0FBECDBFDF91CF911F9181
:1028900008950F931F93CF93DF938B01D82FC92FE8
:1028A0000E94C108A8016D2F7C2F88E090E0DF9185
:1028B000CF911F910F910C945928EAE5F3E08DE038
:1028C000808311828FEF828382E883838AE084830E
:1028D0006DE070E08FEF92E80C944914CF93DF9392
:1028E00000D000D0CDB7DEB780915E03833018F4FE
:1028F0008F5F80935E0380915A0390915B03A09158
:102900005C03B0915D0389839A83AB83BC83BC0174
:10291000CD010F900F900F900F90DF91CF910C94FD
:102920004914CF93DF9300D000D0CDB7DEB78091AC
:102930005E03882319F0815080935E0380915A03CF
:1029400090915B03A0915C03B0915D0389839A83AE
:10295000AB83BC83BC01CD010F900F900F900F9003
:10296000DF91CF910C9449145F926F927F928F9276
:102970009F92AF92BF92CF92DF92EF92FF920F930E
:102980001F93CF93DF9300D000D000D00F92CDB72C
:10299000DEB7182F762E042F622E90915A0390FFE7
:1029A00083C0E92FE695AE2FB0E0AE5CBE4F8C91B0
:1029B000809358039E7F9230C9F59E012F5F3F4F51
:1029C000812F0E9428084B8169818A810E948C0E88
:1029D00010935B0370925C0300935D03662009F41F
:1029E00063C080915A0390915B03A0915C03B09106
:1029F0005D038C839D83AE83BF83BC01CD0127968D
:102A00000FB6F894DEBF0FBECDBFDF91CF911F91FF
:102A10000F91FF90EF90DF90CF90BF90AF909F907D
:102A20008F907F906F905F900C944914823019F4CE
:102A300000915D03CDCF863019F410915B03C8CFB0
:102A40008930D9F3893121F6E9518E2F8170582EC2
:102A5000E695F0E0E55DF94FA590B490BB2481E9DF
:102A6000E82E82E0F82ED12CC12C9EE1892E912CEB
:102A7000C601B4010E945D27812F511013C0860F3B
:102A80009701402F672D0E942808CA0CDB1C93E099
:102A9000E90EF11CABEEEA16A2E0FA0649F70E9435
:102AA0009A0C96CF861BECCF27960FB6F894DEBF14
:102AB0000FBECDBFDF91CF911F910F91FF90EF908F
:102AC000DF90CF90BF90AF909F908F907F906F904E
:102AD0005F900895EAE5F3E0818121E0438162811E
:102AE000865F0C94B414EAE5F3E0818121E0438130
:102AF00062818A500C94B414EAE5F3E062812AE022
:102B0000620F08F46FEF21E0438181810C94B414CB
:102B1000EAE5F3E062812AE0621B08F460E021E06C
:102B2000438181810C94B414EAE5F3E043812AE007
:102B3000420F08F44FEF21E0628181810C94B414BC
:102B4000EAE5F3E043812AE0421B08F440E021E09B
:102B5000628181810C94B41469EE7EEF90E080E094
:102B60000E94652860E082E090E00E94472860E0D3
:102B700083E090E00E9447281092610360E084E0C7
:102B800090E00E94472860E082E290E00E9447289F
:102B900060E085E090E00E94472860E086E090E0F9
:102BA0000E9447286FEF87E090E00E94472840E0AE
:102BB00050E0BA0188E090E00E94592860E08DE082
:102BC00090E00E94472840E050E0BA0188E190E0A0
:102BD0000E94592860E087E190E00E94472840E089
:102BE00050E0BA018CE190E00E94592870E060E06A
:102BF00080E290E00E94652840E050E0BA0188E160
:102C000090E00E94592880E00E9456100E947E1099
:102C100040E050E0BA018FE090E00E94592840E087
:102C200050E0BA0183E190E00C94592890E080E0F4
:102C30000E944128893E9E4F11F40C949B1080E025
:102C400008954F925F926F927F928F929F92AF9270
:102C5000BF92CF92DF92EF92FF920F931F93CF9389
:102C6000DF93CDB7DEB72C970FB6F894DEBF0FBE5B
:102C7000CDBFFE0131968CE0DF011D928A95E9F708
:102C80009DE5E92E91E0F92E8F0123E6622E21E0E9
:102C9000722E2F01AA24A394B12C42E7842E41E086
:102CA000942EF70181917F018F3F09F445C0F8947C
:102CB000E82FE295EF70F0E021A18F70A50102C02E
:102CC000440F551F8A95E2F7CA01922F982B91A3C2
:102CD00092A18095892382A3789400C0E3E6F1E075
:102CE00021E030E0D12CC12C41914F3F09F45DC06F
:102CF000A42FA295AF70A05EB0E08C9190E04F70D1
:102D000002C0959587954A95E2F780FD4EC0C901AE
:102D1000C82AD92A220F331F8E169F0629F7F701DA
:102D2000319780818F3F11F00E940A0750EA5A952F
:102D3000F1F7D801CD92DC920E5F1F4F6E147F0425
:102D400009F0AFCF4CE050E0B2018AE193E00E947D
:102D500026289C0111E0892B09F410E0232B41F176
:102D60008CE0F201AAE1B3E001900D928A95E1F7BF
:102D700081E080930D030E944A0990930C03809395
:102D80000B0380910B0390910C030E94750A059729
:102D900098F08CE0EAE1F3E0AEE0B3E001900D9250
:102DA0008A95E1F710920D0307C080E090E0B0CF64
:102DB00080910D038111E5CF812F2C960FB6F894E9
:102DC000DEBF0FBECDBFDF91CF911F910F91FF905E
:102DD000EF90DF90CF90BF90AF909F908F907F90BB
:102DE0006F905F904F9008954F925F926F927F9295
:102DF0008F929F92AF92BF92CF92DF92EF92FF920B
:102E00000F931F93CF93DF93FC016280448081E096
:102E10008483EBE2F5E07490EAEAF5E0E491C8EF30
:102E2000D1E091E9E92E92E0F92E2EE8C22E22E0BF
:102E3000D22E32E0A32EBB24B39488248A94912C02
:102E400055245A94E7190E2F10E082E0861530F0D1
:102E500080915B03888380915C038983411021C04A
:102E60001B821A8297014A81698188810E94280801
:102E7000259683E0E80EF11CCC16DD0631F7DF91D4
:102E8000CF911F910F91FF90EF90DF90CF90BF9067
:102E9000AF909F908F907F906F905F904F900C9429
:102EA0009A0C8B818823E9F081508B83859DC0012A
:102EB00011246C8170E00E945D27FB01FF27E55D16
:102EC000FA4F8491E82FE719E59DC0011124B8015C
:102ED0000E945D2780915D03689FB00111247A8371
:102EE000C1CF0E940928AC0190915D03969591583D
:102EF0009A9D90019B9D300D1124232F332742175B
:102F000053070CF0AFCF82E0861588F40E940928A1
:102F1000B4010E94712788830E94092820915C03D4
:102F20002695622F70E00E947127280F29831A824C
:102F300080915D03893C20F088EC8C838B8392CF59
:102F40008431D8F784E1F9CFCF93DF9300D000D05C
:102F5000CDB7DEB790915A0390FF4CC08823E1F1C2
:102F60008B32E0F58F77880F90915A039170892BFF
:102F700080935A03662381F080915A0390915B03FA
:102F8000A0915C03B0915D0389839A83AB83BC837A
:102F9000BC01CD010E94491460915A03669570E00E
:102FA0004BE050E087E091E00E941928892BC1F0A6
:102FB0001092590381E08093F10220E040915D037B
:102FC00060915C0380915B030F900F900F900F90C6
:102FD000DF91CF910C94B41481E0C5CF8AE2C3CFC6
:102FE00081E0809359030E944A099093EF028093F5
:102FF000EE02E0CF0F900F900F900F90DF91CF91E6
:10300000089580915A0386958F5F8B3208F081E096
:1030100061E00C94A41790915A0396958FEF890F55
:10302000913009F48AE261E00C94A41790915A035C
:1030300090FF07C09695981720F0961710F40C94FF
:10304000011861E00C94A4173F924F925F926F9227
:103050007F928F929F92AF92BF92CF92DF92EF9228
:10306000FF920F931F93CF93DF93CDB7DEB72897CF
:103070000FB6F894DEBF0FBECDBF7C01DC019C9182
:1030800011968C91119713962D913C91232B21F041
:1030900089238F3F09F0A5C528960FB6F894DEBFA7
:1030A0000FBECDBFDF91CF911F910F91FF90EF9099
:1030B000DF90CF90BF90AF909F908F907F906F9058
:1030C0005F904F903F900895980122513F452031E5
:1030D000310508F02CC58FEF93E00E943328025190
:1030E00047EF842E42E0942E8823A1F18091630360
:1030F000877091F2D70112968C91882369F28091A2
:10310000650382FDC9CF82E028960FB6F894DEBF32
:103110000FBECDBFDF91CF911F910F91FF90EF9028
:10312000DF90CF90BF90AF909F908F907F906F90E7
:103130005F904F903F900C94590A8114B4E09B0625
:10314000A9F2C4010E943328811101C00150EFEFA0
:103150008E1A9E0A0111F1CF80911F0190912001DA
:10316000A0912101B091220189839A83AB83BC8312
:10317000442443943AE0332E84010F5F1F4FC4016F
:103180000E94332889831A82882309F4AFCF9FEFE6
:10319000980F933010F58A834982F2E08F0E911CCC
:1031A000C8010E9433288B83882309F49FCF8E01A6
:1031B0000F5F1F4FD8012C912223F1F211969C91A1
:1031C0001197213009F045C012968C91913039F455
:1031D0000E5F1F4F0E94170C08C04801E8CF9230C5
:1031E00039F40E5F1F4F0E947C090F5F1F4FE2CF23
:1031F000933029F40E5F1F4F0E94EE09F6CF9430F2
:1032000019F00F5F1F4FF1CF0E5F1F4F20E030E02E
:10321000B8016F5F7F4FF80141818053990B8A306D
:10322000910560F02115310501F38FE99FE00197C9
:10323000F1F700C0000021503109F4CF329EF001B7
:10324000339EF00D11249C012E0F3F1F842F8B0104
:10325000DFCFE22FF0E0EB58F84F5490822F8695A5
:103260008695869590E0FC01EB59F84FE491277024
:10327000F0E0022E02C0F595E7950A94E2F73F01CF
:10328000A1E06A227724FC01EB5AF84FA490B12CFC
:10329000022E02C0B594A7940A94E2F7B1E0AB22E3
:1032A000BB24FC01EB5BF84FC490D12C02C0D59439
:1032B000C7942A95E2F7E1E0CE22DD24611471047F
:1032C00019F081EE0E947C09A114B10419F086EE78
:1032D0000E947C09852D0E94170CAB2819F086EE00
:1032E0000E94EE09672819F081EE0E94EE09CD28B0
:1032F00009F47BCF8CE26ECF81E00E94420A0E94EB
:103300007B0BF4CE81E00E944D0AF9CF82E0F5CF2D
:10331000053FBCE51B07D1F027E245EE66EE063F10
:10332000ECE51E0741F027E245EE64EE043FFCE5C4
:103330001F0709F021C40E94360CD8CE27E245EEC3
:1033400065EEF9CF26E241EE60EEF5CF26E241EEE2
:1033500062EEF1CF01368DE5180709F422C48091A1
:103360005F038272063D2CE5120708F0D0C0023CD4
:103370003CE5130708F4D6C0F801E35CFC45E331F3
:10338000F10508F021C1E650F74D0C948527F801AE
:10339000E350FC45809164038160E331F10528F539
:1033A000E35FF64D0C9485270330BDE51B0778F4E9
:1033B0000A3FECE51E0708F404C4F801EB5FFC4586
:1033C000E830F105E8F4E05EF64D0C94852701360F
:1033D0001D4509F0F6C390916403892F8F7E94FFF9
:1033E000806103C080916403826080936403E9C3B9
:1033F000809164038460F9CF809164038860F5CF85
:1034000080916503816080936503DBC380916503D0
:103410008260F9CF809164038061E7CF809164037B
:103420008062E3CF809164038064DFCF0E947011DB
:10343000809164038068D9CF809164038C60D5CF7C
:10344000809165038360DFCF809164038E7FCDCF51
:10345000809164038D7FC9CF809164038B7FC5CF3A
:1034600080916403877FC1CF809165038E7FCBCF2E
:10347000809165038D7FC7CF809164038F7EB5CF28
:10348000809164038F7DB1CF809164038F7BADCF3A
:103490000E947011809164038F77A7CF809164039D
:1034A000837FA3CF809165038C7FADCF8091640330
:1034B00082FB992790F921E0922790FB82F990FBFB
:1034C00083F993CF80916503982F909591708E7FAB
:1034D000892B90FB81F997CF0E9470119091640322
:1034E000892F97FB87F9805880CF61E08EE090E0CC
:1034F0000E94472866C360E0F9CF8091570381118D
:1035000004C089E20E94AB0499C385E3FBCF0D356B
:10351000100709F4D7C00A35EDE51E0709F4F7C016
:1035200008F0D3C001152CE5120709F4E0C00E3DE8
:103530001C4509F4E9C0F7018281C080D18088234D
:1035400009F4E9C0C6010E94E710182F682FC601D0
:103550000E944A04B601812F0E94DA100E947F0562
:103560008C01D70112969C90129715968C9082949C
:103570002FE08222809163038770C1F0C92C9920CB
:10358000B1F0812F807F803421F080E2800F88307D
:1035900068F08091650382FD09C082E00E94590AAB
:1035A000809163038770CC24C3948111C12C812F37
:1035B00082958F70A82EB12C8C3008F01CC1F501BB
:1035C000E85DF64D0C94852780915A0380FF21C059
:1035D0008E7F80935A0380915A0390915B03A09150
:1035E0005C03B0915D038D839E83AF83B887BC017C
:1035F000CD010E944914109259039FEFA0E7B2E059
:103600009150A040B040E1F700C000000E949A0C29
:103610006DCD816080935A0361E086950E94A41766
:1036200065CD4BE058E161E078E10E94D7085ECDBE
:1036300041E058E16BE078E1F8CF43E755E16AE615
:1036400075E1F3CF4AE655E163E775E1EECF48E86F
:1036500055E16CE775E1E9CF4CE755E168E875E1C4
:10366000E4CF40EA55E164E975E1DFCF44E955E193
:1036700060EA75E1DACF41E954E16EE674E1D5CF55
:103680004EE654E161E974E1D0CF61E081E0C6CF5C
:1036900065E082E00E94161829CD68E086E0FACF46
:1036A0006EE089E0F7CF64E18FE0F4CF67E185E178
:1036B000F1CF61E088E1B2CF62E289E1EBCF61E076
:1036C00083E2ACCF6AE285E2E5CF0B358DE51807E2
:1036D00001F10C351D4509F02ECF8091650382FB69
:1036E000882780F991E089270E94D80F24CF0E9473
:1036F0007011AFEFB4E3ECE0A150B040E040E1F76F
:1037000000C000000E94200F0E94AC15EFCC81E0A9
:10371000EBCF80E0E9CFC6010E947804182F1ACFC2
:10372000B12FBF70DB2E107F19F0D29490EFD92209
:103730009920B9F0DD2069F080E2800F883010F028
:10374000011109C080915F038D2980935F030E945E
:10375000E604802F4EC0809166038D298093660316
:10376000F6CF802F0E94EE09DD2009F444C080E2EC
:10377000800F883010F0011104C08D2D0E94D804F4
:1037800006C0D094809166038D21809366030E94C9
:10379000E60431C0E12FEF70DE2E107F103219F0F9
:1037A000D29480EFD822002399F0013009F48BC025
:1037B000992009F495C0882009F48BC0D70115968B
:1037C0008C91159780FFC5CF8F7015968C9381C013
:1037D0002091650322FF54C0992009F44AC0DD20DE
:1037E00039F080915F038D2980935F030E94E60486
:1037F00080E00E947C0938E0A31AB10884E0A81692
:10380000B10420F40E94DC080E944404CC20B1F0F2
:103810008091630380FD12C0D70112961C9285959A
:10382000859585950E94420AC7010E9424188091BF
:1038300063038595859585950E944D0A60E0C701D3
:1038400028960FB6F894DEBF0FBECDBFDF91CF91A3
:103850001F910F91FF90EF90DF90CF90BF90AF90AE
:103860009F908F907F906F905F904F903F900C94BF
:10387000161180E00E94EE09DD2009F4BCCF7DCF57
:103880009920A1F0909160038D2D892B811003C0A8
:103890000E942B05B0CFF1E08F12FACF22FDABCF03
:1038A000981709F4A8CF80936003A5CF811006C0B4
:1038B0000E94E0048D2D0E9435059DCF21E08216E7
:1038C00009F499CFF5CF992031F035E0381508F497
:1038D00092CF8D2DDDCF84E0881508F48CCFEACF10
:1038E000882041F3093349F4BFEFE7EEF3E0B1502C
:1038F000E040F040E1F700C00000802F0E94EE0998
:103900007ACF812F86958695837061F0813009F09A
:1039100072CFC8019370911002C090E080E00E94C5
:10392000FE0869CFC8019370911002C090E080E05A
:103930000E94E80860CF802F992029F00E94660736
:103940000E94560958CF0E94AF07FACF812F83708B
:10395000A1F5911050CF802F829586958770880FA2
:10396000880F402F4F70082E01C0440F0A94EAF7C9
:10397000202F207104FF07C02FE030E001C0220F8C
:103980008A95EAF72095169516951370123081F0F6
:10399000822F842B133031F080916103113029F094
:1039A000242B82230E943A0A26CF842B822BFACF23
:1039B000242B809161038227F5CF992061F110FFBC
:1039C0001ACF802F829586958770880F880F402F99
:1039D0004F70082E01C0440F0A94EAF7202F20717F
:1039E00004FF07C02FE030E001C0220F8A95EAF7FC
:1039F0002095169516951370123099F0822F842B0E
:103A0000133031F080916203113041F0242B822376
:103A10000E943E0AF0CE11FFEECED3CF842B822B34
:103A2000F7CF242B809162038227F2CF1F70992059
:103A300029F0812F0E94420A802F2ACF802F0E94D6
:103A40003505812F0E944D0AD6CE023F81F160F4E8
:103A5000003FB9F0013F81F0992009F458C081106E
:103A600078CE812F8F7127C0033F41F1043FA1F72A
:103A70008091650382FF2DC0812F8F71992011F3F2
:103A80001AC0992079F024E0281508F4B4CE1F71EB
:103A900081E090E001C0880F1A95EAF790916203E7
:103AA0008927B6CF35E0381508F4A5CEF0CF812FA1
:103AB0008F719110C7CF0E94420A9DCE80E099205D
:103AC00009F4A6CF1F7181E001C0880F1A95EAF7AB
:103AD0009FCF992089F01F71812F0E94420A809107
:103AE000650382FD07C0A8E01A9FC001112483600E
:103AF00080936303812FDFCF81E00E94590AB1E0F8
:103B0000B81508F078CE82E00E94590A74CE882059
:103B100059F0093309F0F1CEEFEFF7EE23E0E15071
:103B2000F0402040E1F7E7CE812F8F718BCF00313D
:103B3000BFE51B0709F4E0CB0131EFE51E0709F4EF
:103B4000E5CB033FFCE51F0709F4FCCB08F0E0CB15
:103B5000083D3CE5130709F4F1CB28E241E0093DBB
:103B60009CE5190709F4ECCB26E241EE61EE073D36
:103B7000ACE51A0709F4DFCB882309F448C010929A
:103B8000560303302DE5120708F0E4CB0A3F3CE56D
:103B9000130738F4980122503C452431310508F0D0
:103BA00050C00E948D10909365038093640306318A
:103BB0009CE5190708F0F8CB0230ACE51A0708F0CD
:103BC000E6CB609164031091650384E090E00E946D
:103BD0004728612F82E290E00E9447280E947011DE
:103BE00085CA61E0C7010E9416118C01D7011296A7
:103BF0008C91811169CA0031FFE51F0709F482CB5E
:103C000001312FE5120709F09CCF82E07CCB063111
:103C10001C4509F090CC90915F03882309F46DCC8A
:103C2000892F8A7A91E009F490E09093570369E232
:103C3000811165E382EA91E00E9414090E94E60482
:103C400055CA0631ECE51E0731F389CB1F93CF939C
:103C5000DF9380919E03807FA9F480919B0388234A
:103C600089F080916803C091670370919903609116
:103C70009A03A0919C03B0919D03D62FD72316E001
:103C8000C81304C0DF91CF911F91089590E0109761
:103C900011F0DF3F19F401968770F2CF189F900161
:103CA000199F300D1124F901E759FC4F418164132C
:103CB000F2CF40814713EFCF42814111ECCF4381D6
:103CC00054814A1B5B0B483C510528F780919E03A9
:103CD0008F70806180939E03F901E259FC4F8081CF
:103CE0008F708061808389E993E00E942418DF91BE
:103CF000CF911F910C94A1048F929F92AF92BF928B
:103D0000DF92EF92FF920F931F93CF93DF93CDB784
:103D1000DEB72B970FB6F894DEBF0FBECDBF8C0178
:103D200085E0F801DE01179601900D928A95E1F782
:103D3000F801E280A380B48089E9882E83E0982E80
:103D40009091990380919A0320919C0330919D0357
:103D50002115310529F0482F49234F3F09F028C18B
:103D6000EE2009F433C1F801808191810E94431152
:103D7000F82E882309F42AC186E0F801A9E9B3E006
:103D800001900D928A95E1F70E94261E21C0D090E5
:103D90009E034D2D407F283C310508F0A8C0F80156
:103DA00021814111C3C0FE2C281325C080818913B5
:103DB00022C0E11020C08D2D8F70806180939E0302
:103DC00089E993E00E94241880919E03F80185837D
:103DD0008F2D2B960FB6F894DEBF0FBECDBFDF91AF
:103DE000CF911F910F91FF90EF90DF90BF90AF9018
:103DF0009F908F9008953F81AB2829F0822F8323D5
:103E00008F3F09F090C080E0F82FF170DF2EE09135
:103E100068034091670356E080FD1CC0EE20C1F2AC
:103E200080919E03816080939E03F12CD1CF8E2FD1
:103E300090E05E9FF0011124E759FC4F6181261349
:103E400006C06081361303C06281E612E7CF019697
:103E5000E82FE770E413EBCF8F8198850E9435112E
:103E6000292F22952F70903260F0225F2F70223020
:103E700078F49F7051F0F8019581907F31F4D12C46
:103E80000AC09F7011F08823D1F3805E8830B8F3A8
:103E9000C8010E942418FD2C9BCFF80180819181DC
:103EA0000E944311882309F491C0EE2009F48EC0CA
:103EB00080919E03803270F08091990390919A03D3
:103EC0009A8389831B82BD82AC82DE82CE010196F9
:103ED0000E94241886E0F801A9E9B3E001900D9250
:103EE0008A95E1F70E94261EFF24F39471CF4111B9
:103EF00032C089E993E00E94241886E0F40111920F
:103F00008A95E9F792CFF801808191810E9443114F
:103F10008111E0CF80919E03816080939E03C80150
:103F20000E94241855CF81E08E256ECF2813B5CF7F
:103F3000F80180818913B1CFE110AFCFD582C801DC
:103F40000E94241886E0F801A9E9B3E001900D92DF
:103F50008A95E1F73DCFF801218182139ECFF801C8
:103F6000808189139ACFE11098CFD582C8010E9431
:103F7000241886E0F40111928A95E9F729CFF80117
:103F800021818213C0CFF80180818913BCCF809139
:103F90009E0380FDD7CF982F907FA1F28583903F1D
:103FA00071F2982F907F905F8F70892B8583C7CF98
:103FB000F0909B03A501421B530B9A01F110E7CE31
:103FC000283C3105B0F6FE2CE110D9CFC8010E9483
:103FD00024188ACF1F93CF93DF93CDB7DEB76797AF
:103FE0000FB6F894DEBF0FBECDBF342F4B8B252FFD
:103FF0005C8B962F6D8B7E8B8F8B4E895F896111C9
:10400000109266031A8A3D872E879F87598B488BAB
:1040100086E0FE013D96DE01179601900D928A958D
:10402000E1F7CE0107960E947C1E882389F016E0F6
:104030008091680390916703891349C067960FB612
:10404000F894DEBF0FBECDBFDF91CF911F910895D1
:1040500086E0FE013796DE01119601900D928A9559
:10406000E1F79F81888520916703409168036A8505
:104070007B85672BE1F289238F3FC9F230E0C901CC
:104080000196877099274817190671F40E947011DC
:10409000109267031092680386E0E9E9F3E0DF011C
:1040A0001D928A95E9F7C3CF96E0929FD001939F26
:1040B000B00D1124A759BC4FFE01319601900D920D
:1040C0009A95E1F7809367030E94A104B0CF819F86
:1040D000C001112487599C4F0E947C1E882309F43B
:1040E000ADCF8091680390E0019687709927809307
:1040F00068039ECFCDB7DEB7A9970FB6F894DEBFA1
:104100000FBECDBF84B7877F84BF0FB6F894A89544
:1041100080916000886180936000109260000FBE03
:1041200080E890E00FB6F89480936100909361006E
:104130000FBE85B7806885BF85B7806885BF88E07A
:1041400097E09093A1018093A0010E94320B0E94FE
:10415000B60B8091E20084608093E20078948091B5
:104160000A03882399F08091E9001091EC001795DB
:10417000112717958F70182B1092E9008091E80095
:1041800083FD0E9485111F701093E90082E084BDB9
:1041900093E095BD9AEF97BD80936E000E949B10AF
:1041A000811102C00E947E100DE511E0A3E6EA2E07
:1041B000A1E0FA2ED8018D918D018F3F11F00E9460
:1041C0000A07E016F106B1F703E611E0F2E7EF2E79
:1041D000F1E0FF2EF80181918F018F3F11F00E94D5
:1041E0000A07E016F106B1F78CE0EEE0F3E0DF013C
:1041F000282F1D922A95E9F7EAE1F3E0DF011D92ED
:104200008A95E9F70E941616811102C00E94AC152A
:1042100082E090E00E9433288093F9020E948D1082
:1042200090936503809364030E942116EFE3FCE9F9
:104230003197F1F700C000000E94211680910E0313
:1042400080FF08C06FEF7FEF90E080E00E9465285C
:104250000E94200F83E090E00E9433280E943A0AD7
:104260006E9A769A8091EB02811133C00E941616E5
:10427000811104C00E94AC150E945D1488E090E09A
:104280000E943B2860935A0370935B0380935C0306
:1042900090935D036E7F71F40E945D1488E090E05E
:1042A0000E943B2860935A0370935B0380935C03E6
:1042B00090935D030E94C1081092590380915A03A4
:1042C00080FF04C060E086950E94A41781E080937F
:1042D000EB0282E191E0909327038093260368E14B
:1042E000862E912C70E4772EEAE1AE2EE3E0BE2E0E
:1042F00080910A0300E112E1853009F4C7C10E94F0
:104300002116882359F08FB7F894409106035091F5
:10431000070360910803709109038FBF5EE0E52EEB
:1043200053E0F52EEAEFF2E0D70110E000E0702F45
:104330008D919D91219131912817390709F4B8C1C8
:104340002827392760E0CC24C394D12CA9014C2123
:104350005D21452B09F4A6C169837A839C012C2138
:104360003D2191E0232B09F490E09B830E944A09B0
:104370008160782F9D838C8349815A816B81892F3D
:104380000E94EA1F000F111FF801E650FD4F8081C7
:1043900091818C259D259183808380915903882369
:1043A000D1F180915803E0915A03E695E81BE09320
:1043B000F002823009F093C1F0E0EF5BF84FE49136
:1043C0000E2F10E09CEFC92E9EE0D92E8091F102B5
:1043D000882361F01092F1020E944A099093EF0243
:1043E0008093EE021092F3021092F2020E944A09A8
:1043F0002091EE023091EF02821B930B8F3F9F477B
:1044000050F4200F311F3093EF022093EE028EEE16
:1044100092E0F601099586E0E0E5F3E0DE01119611
:1044200001900D928A95E1F7C0905203D09053030A
:1044300000915403109155031092520310925303AC
:1044400010925403109255038C2D8D2909F448C005
:104450008091F6029091F7020E94750A9C0180916A
:104460004F03882309F49EC323333105C8F18F3FDE
:1044700019F08F5F80934F03CC2059F00E942407DE
:104480009FEF1C140CF491E0899F802D11248093E0
:104490005203DD2059F00E9424079FEF1D140CF4F5
:1044A00091E0899F802D1124809353033091520312
:1044B0003323B1F020915303222391F045EB3403D1
:1044C000C0011124992309F47AC19093520355EB4A
:1044D000250390011124332309F475C1309353034C
:1044E000802F812B09F448C08091F4029091F5024D
:1044F0000E94750A9C0180914E03882309F44DC3E4
:1045000025363105C8F18F3F19F08F5F80934E0338
:10451000002359F00E9444079FEF10160CF491E01D
:10452000899F802D112480935403112359F00E94F8
:1045300044079FEF11160CF491E0899F802D112400
:104540008093550330915403209155033323A1F0F8
:10455000222391F045EB3403C0011124992309F47F
:1045600036C19093540355EB250390011124332356
:1045700009F431C130935503809152039091530354
:10458000892B90915403892B90915503892B11F01D
:104590000E94560986E0FE013196A0E5B3E0019045
:1045A0000D928A95E1F70E94DC089091F802891734
:1045B00031F00E94DC088093F8020E94440480914C
:1045C0000A03843009F094CE83E08093E90080915F
:1045D000E80082FF8DCE8091E80090E085FF0CC05E
:1045E0000E94010B30E2C32ED12C8E010F5F1F4FB2
:1045F000882309F4FEC091E08091E8008B778093D6
:10460000E800992309F474CEE981E150E33108F020
:104610006EC1F0E0EC5CF64D0C94852780910A03A6
:10462000843021F180E00E9444041092EC020FB625
:10463000F894A895809260000FBE7092600083B7D6
:10464000817F846083BF83B7816083BF78948895BE
:1046500083B78E7F83BF0FB6F894A89580916000D2
:10466000886180936000109260000FBE8091ED021F
:10467000882361F00E942116EEE0F3E08191919190
:10468000892B09F06BC2AE16BF06C1F780910A03F1
:10469000853009F4C3CF0E9470110E94DC080E948B
:1046A00044042DCE6F5FCC0CDD1C6F3009F04ECE74
:1046B0000F5F1F4F0630110509F039CE8FEF89A328
:1046C0008AA31BA20E944A098160782F9DA38CA314
:1046D00049A15AA16BA1892F0E94EA1F5ECE08E270
:1046E00010E050EBC52E5DE0D52E883109F46ECE7A
:1046F000E8F48F3009F447C060F4863069F18930FE
:1047000009F435C000ED17E083E2C82E87E0D82E0B
:104710005DCE8531B9F7F0E0EB5CF84FE4910E2FF8
:1047200010E0E2E6CE2EEDE0DE2E50CE04EF11E0FA
:1047300044E5C42E4EE0D42E843209F447CE8532AF
:1047400071F18332F9F6E3E3F7E0059114917DE925
:10475000C72E7EE0D72E3ACEF0E0E25CF84FE4912F
:104760000E2F10E0B0E1CB2EBFE0DB2E2FCEE69572
:10477000F0E0E55CF84FE4910E2F10E0AFECCA2EAC
:10478000ACE0DA2E23CEE695F0E0E85CF84FE49159
:104790000E2F10E0F9EFCF2EFCE0DF2E17CE8E2F7C
:1047A00063E00E944327E92FF0E0E05DF84FE491D9
:1047B0000E2F10E064EFC62E66E1D62E07CE81E004
:1047C0008093520384CE81E08093530389CE81E0AD
:1047D00080935403C8CE81E080935503CDCE809161
:1047E000F100D8018D938D01B1E0CB1AD10809F405
:1047F00002CF8091E80085FDF2CF8091E8008B77B1
:104800008093E8000E94010B882399F3F4CE1A826A
:1048100089E0F9C08A81823009F4B6C1833009F495
:1048200042C0813009F063C08FB7F894209106032D
:104830003091070340910803509109032EA33FA331
:1048400048A759A78FBF6EA17FA188A599A50E94EF
:104850008B276B837C838D839E8380910A038430B6
:1048600009F046CD1091E9008091EC001F7087950A
:1048700088278795182B82E08093E9008091E800D3
:1048800080FF0DC050E040E060E270E0CE01019694
:104890000E94510B8091E8008E778093E8001F7092
:1048A0001093E90025CDFE013196D7018C91119628
:1048B0009C91B2E0EB0EF11C928383833296AE148E
:1048C000BF0499F7CACF8A81823089F42B813C8159
:1048D0004D815E812EA33FA348A759A7CA01B90104
:1048E0000E948B2786E290E00E944728B6CF8FEF88
:1048F0008983B3CF4C816B818A810E94B410982741
:10490000892798279E838D83A8CFED80FE80FE2483
:10491000EF24FE248A810B813EE1039F8001112454
:1049200044EB849F000D111D11248C8190E0880FB1
:10493000991F080F191F6F2DC80187960E944728DD
:104940006E2DC8018896D0CF0E94F50F86CF8A8140
:104950008238D1F1F8F4803831F1813809F07DCF17
:1049600060E08B810E94A4179B8180915A03911172
:1049700023C08E7F80935A03109259035FEF80E724
:1049800092E0515080409040E1F700C000000E944A
:104990009A0C63CF833809F060CF20E040915D032B
:1049A0006C818B8106C020E04B8160915C0380911B
:1049B0005B030E94B41451CF816080935A0360E07E
:1049C00086950E94A41749CF8B8180935E0345CFC3
:1049D0008A818238E1F058F4803899F0813809F002
:1049E0003CCF80915A0380FF10C086950CC083385D
:1049F00009F033CF80915B038B8380915C038C83C0
:104A00002CCF80915D038B8328CF80E0FCCF8091F9
:104A10005E03F9CF20915A0330915B0340915C0310
:104A200050915D032EA33FA348A759A7CA01B9011E
:104A30000E94491412CF80E18A830FCF81E08A83DC
:104A4000E7CECA80DB80DC24CD24DC248C81760197
:104A5000E80EF11C8E010B5F1F4FC60189509D4F60
:104A6000EC14FD0409F4F9CE39E0C31631E0D306A5
:104A700048F40E943328D8018D938D01BFEFCB1AE3
:104A8000DB0AEBCF80E0F7CF0A811B8110270127DB
:104A90001027FE0131966F018C817F01E80EF11C19
:104AA000C80189509D4FCE14DF0409F4D6CE0930D9
:104AB000F1E01F0728F4D60114966C910E94472854
:104AC0000F5F1F4FBFEFCB1ADB0AEACF0E946E10B9
:104AD000C4CE84E0B1CFCA80DB80DC24CD24DC24CA
:104AE0008C817601E80EF11C8E010B5F1F4FC60111
:104AF0008796CE14DF0409F4B0CEE0EDCE16E2E0E6
:104B0000DE0648F40E943328D8018D938D01BFEF53
:104B1000CB1ADB0AECCF80E0F7CF0A811B8110278C
:104B200001271027FE0131966F018C817F01E80E6D
:104B3000F11CC8018796EC14FD0409F48ECE003DEB
:104B4000F2E01F0728F4D60114966C910E944728C2
:104B50000F5F1F4FBFEFCB1ADB0AEBCF09BD19BDAB
:104B600009B400FEFDCF8091D8008F7D8093D800DE
:104B70008091E00082608093E0008091E00081FD00
:104B8000FCCF0E94701182CD86E290E00E94332813
:104B90001B821C821D828E8360CE2D32314008F034
:104BA000B4CCEACC2D32314008F063CC99CC1F92C2
:104BB0001FB61F9211248F939F93AF93BF93809141
:104BC000EC02811113C08091060390910703A0911C
:104BD0000803B09109034196A11DB11D80930603FE
:104BE00090930703A0930803B0930903BF91AF917B
:104BF0009F918F911F901FBE1F90189578941F92C0
:104C00001FB61F9211248F939F93AF93BF938091F0
:104C1000060390910703A0910803B0910903019640
:104C2000A11DB11D8093060390930703A093080371
:104C3000B0930903BF91AF919F918F911F901FBEB9
:104C40001F9018951F920F920FB60F9211242F9359
:104C50003F934F935F936F937F938F939F93AF9304
:104C6000BF93EF93FF938091E10082FF09C0809191
:104C7000E20082FF05C08091E1008B7F8093E1001C
:104C80008091DA0080FF24C08091D80080FF20C08E
:104C90008091DA008E7F8093DA008091D90080FFC6
:104CA0009BC080E189BD82E189BD09B400FEFDCFD2
:104CB00081E080930A038091C701811109C00E949D
:104CC000320B0E94B60B8091E20084608093E20078
:104CD0008091E10080FF17C08091E20080FF13C047
:104CE0008091E2008E7F8093E2008091E2008061FB
:104CF0008093E2008091D80080628093D80019BC34
:104D000085E080930A038091E10084FF29C08091AF
:104D1000E20084FF25C080E189BD82E189BD09B43C
:104D200000FEFDCF8091D8008F7D8093D8008091C8
:104D3000E1008F7E8093E1008091E2008F7E80937E
:104D4000E2008091E20081608093E2008091C601E0
:104D5000882309F447C084E080930A0380910A0302
:104D60008091E10083FF27C08091E20083FF23C090
:104D70008091E100877F8093E10082E080930A03C5
:104D80001092C6018091E1008E7F8093E1008091B6
:104D9000E2008E7F8093E2008091E2008061809348
:104DA000E20042E060E080E00E94860B8091F0002B
:104DB00088608093F000FF91EF91BF91AF919F9138
:104DC0008F917F916F915F914F913F912F910F90B4
:104DD0000FBE0F901F90189519BC10920A031092E5
:104DE000C70176CF8091E30087FD02C081E0B4CF98
:104DF00083E0B2CF1F920F920FB60F921124FF9251
:104E00000F931F932F933F934F935F936F937F93D2
:104E10008F939F93AF93BF93CF93DF93EF93FF93C2
:104E200009EE10E0F8018081C091EC00C795CC2715
:104E3000C7958F70FC2EF82A1082C0EFD0E08881D1
:104E4000877F888378940E948511F8011082888179
:104E500088608883CF2DCF70C083FF91EF91DF9161
:104E6000CF91BF91AF919F918F917F916F915F9102
:104E70004F913F912F911F910F91FF900F900FBE77
:104E80000F901F901895991B79E004C0991F9617F1
:104E900008F0961B881F7A95C9F78095089587FBBF
:104EA000082E062687FD819567FD61950E944327A0
:104EB0000EF4919507FC81950895AA1BBB1B51E147
:104EC00007C0AA1FBB1FA617B70710F0A61BB70B7A
:104ED000881F991F5A95A9F780959095BC01CD011F
:104EE000089597FB072E16F4009407D077FD09D09C
:104EF0000E945D2707FC05D03EF4909581959F4F59
:104F00000895709561957F4F0895EE0FFF1F0590EE
:104F1000F491E02D09946927962769277827872738
:104F2000782708950E94CF28332312F48A1B9B0B05
:104F30000C949C270E94CF28B7FF0895821B930BE7
:104F40000895CF92DF92EF92FF92CF93DF93CDB788
:104F5000DEB72A970FB6F894DEBF0FBECDBF8987A4
:104F60009A87A985BA852D913D914D915C912983B0
:104F70003A834B835C83232B242B252B41F424E29F
:104F800039ED4BE557E029833A834B835C83698194
:104F90007A818B819C812DE133EF41E050E00E94CA
:104FA0007B2869017A01A7EAB1E49B01AC010E9468
:104FB0009A2869837A838B839C83ACEEB4EFA70134
:104FC00096010E94A8289B01AC0189819A81AB813E
:104FD000BC81820F931FA41FB51FB7FF03C00197A9
:104FE000A109B048E985FA8580839183A283B383C0
:104FF0009F772A960FB6F894DEBF0FBECDBFDF9124
:10500000CF91FF90EF90DF90CF9008950E94A1275D
:10501000089580E091E00E94A1270895B0E0A0E00B
:105020008093000190930101A0930201B0930301CA
:105030000895FC014150504030F001900616D1F720
:105040003197CF010895882799270895FB01DC0146
:1050500004C08D910190801921F441505040C8F74F
:10506000881B990B0895F999FECF92BD81BDF89ADE
:10507000992780B50895A6E1B0E044E050E00C9493
:105080006D28A8E1B0E042E050E00C946D28262F96
:10509000F999FECF92BD81BDF89A019700B402162E
:1050A00039F01FBA20BD0FB6F894FA9AF99A0FBEDC
:1050B00008950396272F0E9448280E944728252FED
:1050C0000E944828242F0C9448280196272F0E94DC
:1050D00048280C944728DC01CB01FC01F999FECF4C
:1050E00006C0F2BDE1BDF89A319600B40D92415070
:1050F0005040B8F70895052E97FB1EF400940E94C7
:10510000922857FD07D00E94AD2807FC03D04EF42B
:105110000C94922850954095309521953F4F4F4FD4
:105120005F4F089590958095709561957F4F8F4F53
:105130009F4F08950E94CF28A59F900DB49F900D7A
:10514000A49F800D911D11240895B7FF0C949A28F7
:105150000E949A28821B930B0895A1E21A2EAA1B83
:10516000BB1BFD010DC0AA1FBB1FEE1FFF1FA21717
:10517000B307E407F50720F0A21BB30BE40BF50B14
:10518000661F771F881F991F1A9469F7609570959D
:10519000809590959B01AC01BD01CF010895A29F20
:1051A000B001B39FC001A39F700D811D1124911DFB
:1051B000B29F700D811D1124911D0895F894FFCFA9
:1051C0006F07750778077E07930793079307930781
:1051D0009307810786078A079007A107A707AB07F0
:1051E00068129012311490123114C312E412311467
:1051F000E013ED13111B181B1D1B221B271B2C1B5F
:10520000311B361B3B1B401B451B481B4D1B501BBA
:10521000531B561B591B5C1B5F1BF219F819FC1919
:105220000A1A0E1A121A161A1C1A241A281A2C1ADA
:10523000301A3C1A401A441A481A4E1A6C1A561A56
:10524000061A341A381A201A521A621A751A7B1A58
:10525000901B901BCA1BCA1B811C9B1CFB1BFB1BAE
:10526000A61C161D251D251D07240A2463247A2447
:105270008524A424A724E8240A25772477241B2541
:0E5280001E2521254425662569256B258D25D3
:10528E000100000001010201191A1B1C1D1E1F2026
:10529E002122840A440F870FD00FD40F870A0100F2
:1052AE000000004022B684016201AC00D601EF017D
:1052BE000F02000102020202060606090909090987
:1052CE00090F0F0F0F0F0F15151518191919191999
:1052DE00191919191923242525252525253031328B
:1052EE003337359091929395949697346667F5F48B
:1052FE00F1F0E200E900EA00B500B600B700CD001B
:10530E008301CC008A01920194012102230224021E
:10531E002502260227022A02B300B4006F00700095
:00000001FF
