:100000000C9418030C945F030C945F030C945F032F
:100010000C945F030C945F030C945F030C945F03D8
:100020000C945F030C945F030C945F030C94EA2818
:100030000C9494290C949F280C945F030C945F03F8
:100040000C945F030C945F030C9430280C94C62826
:100050000C945F030C945F030C945F030C945F0398
:100060000C945F030C945F030C945F030C945F0388
:100070000C945F0305010902A10185020901A10099
:100080000509190129081500250195087501810246
:100090000501093009311581257F95027508810612
:1000A00009381581257F950175088106050C0A38E8
:1000B000021581257F950175088106C0C0050109DB
:1000C00080A101850319012AB700150126B7009503
:1000D0000175108100C0050C0901A10185041901F9
:1000E0002AA002150126A002950175108100C00505
:1000F000010906A1018506050719E029E715002574
:10010000019508750181020507190029EF150025E1
:100110000195F075018102050819012905950575FC
:10012000019102950175039101C00660FF0961A16B
:10013000010962150026FF009520750881020963F8
:10014000150026FF00952075089102C005010906DB
:10015000A101050719E029E715002501950875019A
:1001600081029501750881010507190029FF150015
:1001700026FF0095067508810005081901290595D7
:100180000575019102950175039101C009025B009B
:10019000030100A0FA090400000103010100092184
:1001A000110100012240000705810308000A09042B
:1001B00001000203000000092111010001222200B8
:1001C000070582032000010705030320000109043D
:1001D0000200010300000009211101000122B60004
:1001E0000705840320000A12010002000000080332
:1001F000A1060001000102000118034B0042004467
:10020000005000410044002D004D004B00490049C2
:1002100000000010034B0042004400660061006EC5
:100220000073000000040309042900E000E2002A32
:100230000053005400550056005F006000610057F5
:10024000005C005D005E00570059005A005B0058DA
:10025000006200620063005800010001000100011B
:100260000001000100010001000100010001000186
:100270000001000100010001000100010001000176
:100280000001000100010001000100010001000166
:100290000001000100010001000100010001000156
:1002A0000001000100010001000100010001000146
:1002B0000001000100010001000100010001000136
:1002C0000001000100010001000100010001000126
:1002D0000001000100010001000100010001000116
:1002E000000100010001000100000000000000000A
:1002F0000000000001010203040506080A0C0F11AA
:1003000014181C2024292E33393F464C535B626A53
:100310007179818A929AA2AAB2B9C1C8CFD5DCE11B
:10032000E7EBF0F4F7FAFCFDFEFFFEFDFCFAF7F454
:10033000F0EBE7E1DCD5CFC8C1B9B2AAA29A928AA4
:100340008179716A625B534C463F39332E292420F0
:100350001C1814110F0C0A08060504030201010001
:100360000000000000000000002223252628292A82
:100370002C2D2F3032333536383A3B3D3E40424308
:100380004547494A4C4E5051535557595A5C5E6047
:1003900062646668696B6D6F71737577797B7D7F59
:1003A00081838587898A8C8E90929496989A9C9E58
:1003B0009FA1A3A5A7A8AAACAEAFB1B3B4B6B8B974
:1003C000BBBCBEBFC1C2C3C5C6C7C9CACBCCCDCEDC
:1003D000D0D1D2D2D3D4D5D6D7D7D8D9D9DADADBBF
:1003E000DBDBDCDCDCDCDCDDDDDDDDDCDCDCDCDC4B
:1003F000DBDBDBDADAD9D9D8D7D7D6D5D4D3D2D28A
:10040000D1D0CECDCCCBCAC9C7C6C5C3C2C1BFBE71
:10041000BCBBB9B8B6B4B3B1AFAEACAAA8A7A5A3DC
:10042000A19F9E9C9A98969492908E8C8A8987859B
:1004300083817F7D7B79777573716F6D6B6968667A
:100440006462605E5C5A5957555351504E4C4A494C
:1004500047454342403E3D3B3A3836353332302FF4
:100460002D2C2A292826252322FFAA7F554000016A
:100470000101010101010101020202020202020264
:100480000203030303030303030404040404040436
:1004900005050505050606060606070707070708FA
:1004A000080808090909090A0A0A0B0B0B0C0C0CAD
:1004B0000D0D0D0E0E0E0F0F0F1010111111121247
:1004C00013131414151516161717181819191A1AC4
:1004D0001B1B1C1D1D1E1E1F202021222223242425
:1004E000252626272829292A2B2C2D2D2E2F303161
:1004F0003232333435363738393A3B3C3D3E3F4073
:100500004142434445464748494A4C4D4E4F50515D
:100510005354555658595A5B5D5E5F616264656617
:1005200068696B6C6D6F7072737577787A7B7D7E9E
:100530008082838587888A8C8E8F91939596989AEE
:100540009C9EA0A2A3A5A7A9ABADAFB1B3B5B7BA06
:10055000BCBEC0C2C4C6C9CBCDCFD1D4D6D8DBDDDA
:10056000DFE2E4E7E9EBEEF0F3F5F8FAFDFF000473
:100570007F3F1F643214643214783C1E1E140A0537
:10058000000000000000000000000000000000006B
:10059000000000000000000000000000000000005B
:1005A000000000007E0F00D4FFFFFFC700000078AE
:1005B00000000000000000002A2B280000000000BE
:1005C0000000000000000000000000290000000002
:1005D0002C1E3420212224342627252E362D373870
:1005E000271E1F202122232425263333362E373879
:1005F0001F0405060708090A0B0C0D0E0F10111237
:10060000131415161718191A1B1C1D2F3130232D02
:10061000350405060708090A0B0C0D0E0F10111200
:10062000131415161718191A1B1C1D2F3130354CB1
:1006300011241FBECFEFD4E0DEBFCDBF04B603FE52
:1006400027C08091AE029091AF02A091B002B0910C
:10065000B1028730904BA740B04BD1F41092AE025C
:100660001092AF021092B0021092B10214BE84B781
:10067000877F84BF0FB6F894A89580916000886149
:1006800080936000109260000FBEE0E0F8E30995EF
:1006900022E0A2E9B1E001C01D92AE3AB207E1F753
:1006A00011E0A0E0B1E0E0EFF6E502C005900D92A8
:1006B000A239B107D9F70E940C220C94C92A0C94D4
:1006C000000080FD02C02C9A08952C980895262FD2
:1006D000990F990F890F982F977041E001C0440F2F
:1006E0009A95EAF786958695869590E063E070E0A6
:1006F0000E94E629FC01E35BFD4F90E080E0622F61
:1007000070E05191DF0111979B01082E02C03695D0
:1007100027950A94E2F72170219525272423252780
:100720002C9301968330910561F70895990F990FE5
:10073000890FA82FA77086958695869590E063E02F
:1007400070E00E94E629FC01E35BFD4F50E040E0D1
:1007500080E0219130E00A2E02C0369527950A9458
:10076000E2F721703327042E01C0220F0A94EAF722
:10077000822B4F5F5F4F4330510559F708958091A9
:10078000770290917602981301C008958F5F877069
:10079000FACF909121019923C1F09091730297FFB4
:1007A00014C0E82FE695E695E695803FF8F4F0E072
:1007B000EC56FE4F877021E030E001C0220F8A9591
:1007C000EAF78281822B82830895A6E9B1E0EFEFF8
:1007D00090E02D91821751F0EF3F19F4211101C0E3
:1007E000E92F9F5F9630A9F7EF3F09F408950E2E89
:1007F000000CFF0BEC56FE4FE6CF909121019923A0
:10080000E1F09091730297FF18C0E82FE695E69506
:10081000E695803FF0F4F0E0EC56FE4F877021E063
:1008200030E0A90102C0440F551F8A95E2F7CA01C2
:1008300080959281892382830895E6E9F1E0919180
:10084000891303C0DF0111971C9251E0EC39F507C1
:10085000B1F70895982F909580916E028923809327
:100860006E02089580916F02811110926F020895B7
:1008700080916E0290917502892B90915602892B7E
:100880008093940190916F029923A1F0892B80931A
:10089000940180912101882341F18091730287FFA7
:1008A00024C08EE1E6E9F1E090E0815000F591117D
:1008B0000E943204E0914B02F0914C023097E1F03B
:1008C00080912101882359F08091730287FF07C02E
:1008D000809194018093950186E080939401028039
:1008E000F381E02D84E991E0099486E0DBCF21914A
:1008F0002223D9F29F5FD9CF0895882339F09091B0
:100900006E02892B80936E020C943804089588231C
:1009100021F00E942A040C943804089590917302E7
:1009200092FF06C0282F28712830F9F4877F846051
:1009300093FF06C0282F28712831F1F4877E846147
:100940002091740220FF06C0382F38713830D9F456
:10095000877F816021FF06C0282F28712831D1F4BC
:10096000877E816194FD877E0895282F247124302D
:10097000F9F68B7F8860DCCF282F2471243101F7B2
:100980008B7E8861DDCF382F3171313019F78E7F42
:100990008860E0CF282F2171213121F78E7E886178
:1009A000E1CFCF93DF93EC01803E910509F45FC066
:1009B00050F58133910509F4A5C090F48932910571
:1009C00009F499C08A9709F4A4C0C130D10509F48B
:1009D00061C0CE010497813A910508F054C05AC015
:1009E00089339105E9F182389105D1F1C59709F470
:1009F0007BC0C83AD10508F093C0C53AD10528F3A9
:100A0000A497D06447C0843E910509F452C068F4AD
:100A1000823E9105D9F1833E910509F43FC0CE0194
:100A2000805E9109089778F535C0863E910509F4F6
:100A30004BC0873E910509F44CC08115934508F0E1
:100A40009AC0C11582E5D80708F005C1CF3FD1058E
:100A500011F008F074C0C03FD10558F2D0651AC03B
:100A6000809173028370B1F0C0EED0E013C080912A
:100A7000730280FD1DC19091740290FF0BC0C3EE04
:100A8000D0E084FF07C0D0E0C0E004C080917302D2
:100A900082FDF5CFCE01DF91CF9108958091730251
:100AA00082FD09C19091740290FDDECF84FFF2CFE8
:100AB000EACF8091740281FFEDCF80917302C7EE7F
:100AC000D0E084FDE0CFE6CF8091730283FDF7CFC5
:100AD000E1CF8091730283FDF1C09091740291FF88
:100AE000E5CFC4EED0E0D6CF8091730285FFD2CFA0
:100AF000C9E2D0E0CFCF8091730285FFCBCFC5E3B1
:100B0000D0E0C8CF8091730286FFC4CFCAE2D0E0A4
:100B1000C1CF8091730286FFBDCFC1E3D0E0BACFD1
:100B2000CF3BD10508F07BCFC85AD0E0CC0FDD1FFA
:100B3000CC59DE4F0990D881C02DD464ABCFC115FC
:100B400021E5D20798F4C11580E5D80708F064C004
:100B5000C11520E2D20708F49DCFCE019054811533
:100B6000904108F090CFDF70D06A94CFDC2FCC2773
:100B7000C16FD06A8FCFC11589E5D807B0F5C1150F
:100B800028E5D20708F081C0C11585E5D807D8F45B
:100B9000C11524E5D20708F073C09E0123703327E6
:100BA00081E090E002C0880F991F2A95E2F7C69570
:100BB000C695D0E0B5E0CC0FDD1FBA95E1F7C82BA4
:100BC000D92BDA6867CFCE0195558F3F910511F08B
:100BD00008F059CF8C2F0E948E04C82FD0E0DC2F54
:100BE000CC27CC27DF71D06255CFC1158AE5D80755
:100BF00008F450C0CE0190568115904208F043CFC2
:100C00008D2F8F710E948E0490E0982F882788275F
:100C10009F718C2BEC01E7CF9E01E4E03695279580
:100C2000EA95E1F723708C2F86958695837090E086
:100C3000F5E0880F991FFA95E1F7922BC37021E038
:100C400030E002C0220F331FCA95E2F7822B932BAC
:100C5000EC01DC681FCF9E012370332781E090E018
:100C600002C0880F991F2A95E2F7C695C695D0E075
:100C700075E0CC0FDD1F7A95E1F7C82BD92BE9CFB2
:100C8000DC2FCC27C46FD06A05CFDC2FCC27C06FF8
:100C9000D06A00CF8C2F8F700E948E0434E0D695DE
:100CA000C7953A95E1F7CF709C2FEC01D069F2CE51
:100CB000C9E3D0E0EFCEC2EED0E0ECCEC6EED0E09D
:100CC000E9CE80E00895F894E82FE295EF70F0E027
:100CD00041A18F7021E030E0B90102C0660F771F9B
:100CE0008A95E2F7CB01962F9095942391A392A138
:100CF000892B82A37894089508958091570280FFEC
:100D000014C080911E0190E065E070E00E94E62929
:100D1000BC01759567957595679560387105C8F53F
:100D200061157105C1F1862F089581FF0BC0809177
:100D30001E0190E065E070E00E94E629BC01759517
:100D40006795EBCF82FF09C080911E0190E065E0BE
:100D500070E00E94E629BC01E0CF8091590288230F
:100D6000A9F020911D0160911E0170E0821710F022
:100D7000CB01EDCF90E00E94E62965E070E00E9493
:100D8000E629622F70E00E940B2AC7CF65E070E071
:100D9000CACF8FE7089581E008958091570280FFC0
:100DA0000CC060911C0170E075956795759567950D
:100DB0006115710559F1862F089581FF06C0609174
:100DC0001C0170E075956795F3CF60911C0170E090
:100DD00082FD0CC0609158026623A9F020911B018E
:100DE00080911C0190E0621730F0BC016038710501
:100DF000F8F28FE7089570E00E94E629622F70E014
:100E00000E940B2AF3CF61E070E0D5CF81E0089516
:100E1000E0E1E80FE031E0F5F0E0E553F54D0C944A
:100E20001F2A0E947D06819580935D0208950E948D
:100E30007D06FACF0E947D06819580935C0208951D
:100E40000E947D06FACF0E94CD0680935E0208952F
:100E50000E94CD068195F9CF0E94CD0681958093A1
:100E60005F0208950E94CD06FACF845F990B21E0BE
:100E700030E001C0220F8A95EAF780915B02822B55
:100E800080935B020895809157028160809357029E
:100E90000895809157028260F9CF80915702846053
:100EA000F5CF40915C02803F59F480915D0287FF4D
:100EB0000DC010925D0241110BC01092590208C082
:100EC000813F81F480915D0218169CF3442381F0E8
:100ED00080915E0290915F02892B09F05AC01092B6
:100EE00058020895823F49F447FFF0CF10925C0208
:100EF00080915D028111ECCFE0CF833F19F414168D
:100F0000ACF3E4CF90915E02893F29F41916F4F610
:100F100010925E02DBCF8A3F19F497FFD7CFF8CF4C
:100F200090915F028B3F29F497FFD0CF10925F0220
:100F3000CDCF8C3F19F41916CCF3C8CF9CE0980F95
:100F4000953090F4845F990B21E030E0B90102C044
:100F5000660F771F8A95E2F7CB01809590915B022F
:100F6000892380935B02B2CF8D3F31F48091570289
:100F70008E7F80935702AACF8E3F21F48091570233
:100F80008D7FF7CF8F3F09F0A1CF809157028B7FE4
:100F9000F0CF08959F92AF92BF92CF92DF92EF92DF
:100FA000FF920F931F93CF93DF938901E42FF0E01B
:100FB000E259FB4F611113C03491232F432FF801E5
:100FC000418330832283DF91CF911F910F91FF9056
:100FD000EF90DF90CF90BF90AF909F900895282F13
:100FE00030E0C62FD0E04491C42ED12CC90166E078
:100FF00070E00E94E6297C01EFEFF0E0BF010E9463
:10100000F729DB01220F331FCB0165E570E00E9459
:10101000E629281B390BA22EAA0CA20ECF018C1B8D
:101020009D0BB6010E94E629392F992EB12CC501DE
:10103000BE010E94E629892F90E0BF01681B790B51
:10104000CB01B6010E94E629292FCF018A199B09FD
:10105000BE010E94E629892F90E0BF01681B790B31
:10106000CB01B6010E94E629A330B105C1F07CEFA7
:10107000E71673E0F70668F4A130B105A1F0129706
:10108000B1F08FEFE816F10408F099CF232F392F34
:1010900096CFA430B10571F01697C1F390CF322FDF
:1010A000242F492D8CCF342F422F292D88CF292F43
:1010B000342FF7CF242F492F82CF80916902982FA8
:1010C0009E7F29F4817082608093690208958A343A
:1010D000E8F381708864F8CFFA0181110994FB016B
:1010E000FDCF0F931F93CF93DF9300D000D000D09C
:1010F000CDB7DEB78C0180918600909187006CE0BF
:1011000070E00E94F7296017710788F0C80169E054
:1011100070E00E94F729CB0126960FB6F894DEBF47
:101120000FBECDBFDF91CF911F910F910895809198
:1011300086009091870020918600309187003E8341
:101140002D832091860030918700E6E0F0E0BF011A
:101150000E94F729C801B0E0A0E0860F971FA11DEB
:10116000B11DAC01BD0185E0440F551F661F771FFF
:101170008A95D1F749835A836B837C838D819E81C5
:10118000BF010E94F72950E040E0260F371F411DA4
:10119000511D69817A818B819C810E94A72A2983B4
:1011A0003A834B835C8360918600709187007E83D5
:1011B0006D83CA01B9010E948E2AED81FE819F01D3
:1011C00050E040E00E948E2A29813A814B815C8167
:1011D0000E948E2A69837A838B839C83AB01BC0136
:1011E0009FE076956795579547959A95D1F78091A9
:1011F000860090918700B0E0A0E084179507A607CD
:10120000B70720F44091860050918700CA0184CF2F
:10121000CF93DF9300D000D0CDB7DEB7863088F50E
:10122000811130C090918000977F909380002F981B
:101230002091860030918700A90170E060E0498329
:101240005A836B837C83282F30E050E040E0698133
:101250007A818B819C810E948E2A25E030E040E0DB
:1012600050E00E94A72AC9010E94710890938D0046
:1012700080938C000F900F900F900F90DF91CF9183
:10128000089585E090918000986090938000D0CF81
:10129000282F220F220F220F909164029770922B19
:1012A00090936402987F21E009F420E09091640219
:1012B00020FB90F9909364020C940809E0914B0292
:1012C000F0914C02309721F00190F081E02D0994CB
:1012D00080E008952091E5013091E6012817390753
:1012E00071F09093E6018093E501E0914B02F0915B
:1012F0004C02309721F00680F781E02D0994089583
:101300002091E3013091E4012817390771F090939F
:10131000E4018093E301E0914B02F0914C0230979D
:1013200021F00084F185E02D099408952FB7F894F9
:101330008091370290913802A0913902B0913A021F
:101340002FBF08950E94960920915C0230915D02A2
:10135000232B21F080932D0290932E0220915E0288
:1013600030915F02232B21F080932B0290932C026B
:10137000E0914B02F0914C02309749F082E080936B
:101380005A020480F581E02D8AE592E009940895DF
:10139000882309F452C0823871F40E945E0981FFEB
:1013A0004CC089E30E94C9030E94380489E30E946B
:1013B000FD030C943804833859F40E945E0980FFC1
:1013C0003CC083E50E94C9030E94380483E5EFCF47
:1013D000843859F40E945E0982FF2FC087E40E947E
:1013E000C9030E94380487E4E2CF9CEF980F913A3A
:1013F000F0F290E2980F983050F4877091E001C0BD
:10140000990F8A95EAF7892F0E942A04D2CF9BE58B
:10141000980F933020F490E080E00C946A0998E5EE
:10142000980F973120F490E080E00C948009803F81
:1014300020F00E9451070C94A209089590E080E0EA
:101440000E946A0990E080E00E9480091092750273
:10145000109256020E94380486E0EAE5F2E0DF01CD
:101460001D928A95E9F71092590210925802109233
:1014700057020C94A209809370020C941E0A809368
:1014800071020C941E0A21E030E001C0220F8A95FF
:10149000EAF780917102822B0C943F0A21E030E040
:1014A00001C0220F8A95EAF720958091710282236C
:1014B0000C943F0A90917202809589238093720266
:1014C000282F277091F4282F082E000C330B921729
:1014D000130659F09091740292FD07C08595859589
:1014E00085950E944E0A1092720208959C014FB792
:1014F000F8948091370290913802A0913902B0910E
:101500003A024FBF821B930B08958091E201089528
:101510000895FC01CB012091BD013091BE01261739
:10152000370790F0009729F42091E8002E77209358
:10153000E80040E0009751F4411108C08091E800B4
:1015400082FF30C080E00895C901F3CF20913B02B3
:101550002223A1F12530A1F12091E80023FD2CC028
:101560002091E80022FDEACF2091E80020FFE2CFA1
:101570002091F20030E0009719F02830310558F042
:1015800041E02830310509F040E02091E8002E7755
:101590002093E800CFCF41914093F10001972F5F56
:1015A0003F4FE9CF80913B02882341F0853041F0E5
:1015B0008091E80083FFC2CF81E0089582E0089522
:1015C00083E008958091B70187FF13C08091E80000
:1015D00082FF06C08091E8008B778093E80004C00A
:1015E00080913B028111F2CF089580913B028823C4
:1015F000D9F38091E80080FFF8CF8091E8008E77E2
:10160000ECCF2091E4003091E50095E6A90120910E
:10161000EC00822F817020FF06C08091E80080FFDF
:1016200006C080E008952091E80022FD1AC0809154
:101630003B02882389F0853089F08091EB0085FD9D
:101640000FC02091E4003091E50042175307F9F2F2
:101650009150E1F684E0089582E0089583E00895D2
:1016600081E00895EF92FF920F931F93CF937C0137
:101670008B010E94010BC82F811117C08091E800D7
:1016800085FD0BC08091E8008E778093E8000E9472
:10169000010B882399F3C82F08C0F70181917F01BE
:1016A0008093F1000150110949F78C2FCF911F91C0
:1016B0000F91FF90EF90089580917102982F96708E
:1016C000963019F488600C943F0A877FFCCF982FDE
:1016D0009093E900242F762F50E0891731F0709114
:1016E000EC002091ED005091F00021FD06C09F5FBD
:1016F000953071F78093E90008953091EB003E7FBB
:101700003093EB003091ED003D7F3093ED00309150
:10171000EB0031603093EB007093EC002093ED0010
:101720005093F0002091EE0027FDE1CF08958091C5
:10173000690280FD0AC0EAEEF1E011821082128295
:10174000339652E0EA31F507C1F7259A35B13F7D6E
:1017500025B120624FB7F8948AEE91E0FC01019622
:10176000508168E025B9000000C057FF35B9550F1A
:10177000000000C000C000C035B900C06A9591F7F4
:1017800052E08A31950751F74FBF8FE594E00197FA
:10179000F1F700C000000895EF92FF920F931F939E
:1017A000CF93DF93EC010AEE11E0F12CE12C9C8148
:1017B00060916B0280916A0228E0E216F104FCF469
:1017C0009923F9F0980140916C020E94CA078FEFAB
:1017D000E81AF80A0D5F1F4F20E1E216F10439F70D
:1017E0000E94970B8C8190E00196817099278C83E1
:1017F000DF91CF911F910F91FF90EF900895992362
:1018000009F3980140E0E1CFEF92FF921F93CF934D
:10181000DF93EC018AEEE82E81E0F82E10E08C8157
:10182000970140916C0260916B02810F0E94CA0780
:10183000115F83E0E80EF11C103F89F70E94970BBF
:101840009A818C8190FF08C08F5F8C83DF91CF914C
:101850001F91FF90EF9008958150F7CFCF92DF92C4
:10186000EF92FF920F931F93CF93DF93FC0182813E
:10187000DD24DA9480FD02C0DD24D394CAEED1E0E9
:1018800010E000E0198218821A8294E0E92EF12C0F
:10189000C12C8091E9018C0D8131CCF18F70082E23
:1018A000000C990B8017910791F480916C0290E0E5
:1018B000B7010E94E629AC01559547955595479586
:1018C0009E0160916B0280916A020E94CA07CD0C52
:1018D000F1E0EF1AF108E9F60F5F1F4F2396003190
:1018E000110581F60E94970B8091E90191E0D912D0
:1018F00012C0882399F081508093E901DF91CF9144
:101900001F910F91FF90EF90DF90CF90089587FF88
:10191000C6CF805FC4CF8F5F8F70EECF8FE0ECCFEC
:101920000F931F93CF93DF93CAEED1E0FE01118294
:1019300010821282339682E0EA31F807C1F710E094
:1019400000E08091E801082E000C990B0817190798
:101950008CF180910301082E000C990B80179107E0
:101960004CF19E0140916C0260916B0280916A0281
:101970000E94CA070F5F1F4F23960031110509F718
:101980000E94970B809102019091E801980F90932B
:10199000E80120910301280F20930301121614F48B
:1019A0009F301CF0819580930201DF91CF911F91B0
:1019B0000F910895198218821A82DCCFCF92DF929C
:1019C000EF92FF920F931F93CF93DF93CDB7DEB7C4
:1019D0002A970FB6F894DEBF0FBECDBF8C01DC0195
:1019E0001496BC91BD832B2F30E050E040E029835A
:1019F0003A834B835C83CA01B9010E948E2A2981F4
:101A00003A814B815C810E948E2A69837A838B8321
:101A10009C8380E290E04D81841B91099C01990F89
:101A2000440B550B2D833E834F83588725E530E0CB
:101A300040E050E069817A818B819C810E948E2AEE
:101A40007B018A8799872D813E814F815885CA0104
:101A5000B9010E948E2A2D813E814F8158850E94B6
:101A60008E2A6D837E838F8398879B01AC01898149
:101A70009A81AB81BC81280F391F4A1F5B1FB701B8
:101A80008A8599850E94A72AD22E822F90E0A9E20A
:101A9000A21708F449C063E070E00E94E629AC0197
:101AA00097FF02C04F5F5F4F55954795B42FB09594
:101AB000B9838AEEE82E81E0F82E1D8285E5C82ED6
:101AC000CD182D818C2D21FD8D2D9701498160919F
:101AD0006B020E94CA073D813F5F3D8343E0E40EF5
:101AE000F11C303171F70E94970BD80114969C912C
:101AF00081E0992319F0903219F48FEF809301015E
:101B000080910101890FF80184832A960FB6F89419
:101B1000DEBF0FBECDBFDF91CF911F910F91FF9020
:101B2000EF90DF90CF90089525E530E0F901E81BB4
:101B3000F90BCF0163E070E00E94E629AC0197FF4A
:101B400002C04F5F5F4F55954795F42FF095F9838D
:101B5000B0CF9091690290FF0CC0EAEEF1E0818372
:101B600060834283339692E0EA31F907C1F70C941F
:101B7000970B08950F931F93CF93DF9300D00F928D
:101B8000CDB7DEB78C018091E70181110AC09E01BB
:101B90002F5F3F4F4FEF6FEF0E94CA078A818093FC
:101BA000E701F8016481613049F06230F1F0809121
:101BB000E70140E0662331F040E019C06091E701A1
:101BC00040E080E00E94A90DF801848190E0019638
:101BD00063E070E00E940B2A84830F900F900F90B7
:101BE000DF91CF911F910F9108954091E70180E01F
:101BF00060E0E8CFCF93DF9300D00F92CDB7DEB790
:101C00009091690290FF0FC09E012F5F3F4F0E948D
:101C1000CA074B8169818A810F900F900F90DF91E5
:101C2000CF910C94A90D0F900F900F90DF91CF9151
:101C30000895CF93DF93EC01EC81F0E0E759FC4F7E
:101C40004491E9E6F2E0628181810E94FA0D8C8183
:101C50008F5F8C83DF91CF910895CF93DF93EC0159
:101C6000E9E6F2E0438162818C810E94FA0D8C8169
:101C70008F5F8C83DF91CF91089581E08093E000A6
:101C800080E28093D8001092C9008FE19EE4019712
:101C9000F1F700C0000087E090EBDC018093AE021A
:101CA0009093AF02A093B002B093B10288E19CE0A0
:101CB0000FB6F894A895809360000FBE90936000D3
:101CC000FFCFCF93DF93D82FC92F80912101882395
:101CD000C1F18091730287FF34C060E284E0809399
:101CE000E9008FEF9091E800815095FD06C095EDD9
:101CF0009A95F1F700008111F5CF8091E80085FFFA
:101D00001DC08091210170E050E040E0811104C0CD
:101D100050E040E068E070E08D2F9C2F0E94320B75
:101D20008091E8008E778093E80080E2ED2FFC2F11
:101D3000A2ECB1E001900D928A95E1F7DF91CF918D
:101D4000089568E081E0CBCF24E02093E9002FEFF5
:101D50003091E800215035FD06C035ED3A95F1F798
:101D600000002111F5CF2091E80025FF0BC050E0C5
:101D700040E066E070E00E94320B8091E8008E77D0
:101D80008093E80008958093BF017093C101609330
:101D9000C00180913B028430F9F48093E9008FEF19
:101DA0009091E800815095FD06C095ED9A95F1F768
:101DB00000008111F5CF8091E80085FF0DC050E053
:101DC00040E063E070E08FEB91E00E94320B809185
:101DD000E8008E778093E8000895BC0183E00C94BE
:101DE000C30EBC0184E00C94C30ECF93C091740267
:101DF000C2FB992790F9981799F080FBC2F9C0931C
:101E000074026091730284E090E00E945A2A6C2F61
:101E100082E290E00E945A2A82E0CF910C945A0A02
:101E2000CF9108954F925F926F927F928F929F927F
:101E3000AF92BF92CF92DF92EF92FF920F931F93D8
:101E4000CF93DF93D0E0C0E030E3A32EB12C8E011E
:101E500083E0000F111F8A95E1F73E01660C771CA5
:101E6000660C771C1DC0F60185909490692DC70102
:101E70000E945A2A682DC70101960E945A2A22E020
:101E8000C20ED11C32E0E30EF11C4E145F0459F770
:101E9000085F1F4F84E0680E711CA016B10681F028
:101EA000C301880F991F9C01275D3D4F690178018F
:101EB00037E2E30EF11C28018FE2480E511CD3CF0C
:101EC00020E3A20EB11C2696C831D10509F0BFCF80
:101ED000DF91CF911F910F91FF90EF90DF90CF9006
:101EE000BF90AF909F908F907F906F905F904F903A
:101EF0000895682F86E090E00C945A2A809164023D
:101F000081FD10C08260809364020E94790F10925C
:101F10001F0210921E0210921D0280916F008160BC
:101F200080936F0008958091640281FF11C08D7FBE
:101F3000809364020E94790F80916F008E7F80935E
:101F40006F00809164028695869586950C940809A9
:101F50000895CF93C82F6FEF811162E283E290E082
:101F60000E945A2A6FEFC11163E084E290E00E9460
:101F70005A2A6FEFC11169E085E290E0CF910C948D
:101F80005A2ACF93DF93C7EED0E060E0CE010E94E3
:101F90005A2A2196C11584E0D807B9F7DF91CF916D
:101FA000089580E00E94A90F60E086E290E00E9420
:101FB0005A2A0E94120F0E94C10F81E00C94A90FAF
:101FC000CF9384E090E00E94462AC82F82E290E0FE
:101FD0000E94462A982F8C2FCF91089583E290E09B
:101FE0000E94462A823289F484E290E00E94462AC6
:101FF000833059F485E290E00E94462A91E08930CE
:1020000009F090E0892F8170089580E0FCCF0F9354
:102010001F93CF93DF93C62FD0E093E0CC0FDD1F4B
:102020009A95E1F750E0440F551FC40FD51F90E07B
:1020300060E370E00E94E629C80FD91FCE018796A1
:102040000E94462A082F10E0102F0027CE01889604
:102050000E94462A9801282BC901DF91CF911F9138
:102060000F910895462F672F763030F4982F942BD8
:10207000943010F40C94071090E080E00895DF9203
:10208000EF92FF920F931F93CF93DF937C01009108
:10209000710280917002082BC7E0D0E010E0DC2EC6
:1020A000C8010C2E02C0959587950A94E2F780FD31
:1020B0000CC02197A0F7D12C8D2DDF91CF911F91CE
:1020C0000F91FF90EF90DF900895B7018C2F0E9441
:1020D00032100E94D104019761F3EECF0F931F934A
:1020E000CF93FC01828100811181882389F06623CE
:1020F00079F0C8010E943F10C82F682FC8010E94C4
:102100006703B8018C2FCF911F910F910C9432105F
:10211000C8010E949603C82FF4CFCF93DF93D82F26
:10212000C92F0E943F106D2F7C2F0E943210DF912B
:10213000CF910C94D1040E948D10282F892F8F707D
:10214000392F32953F70903C80F43A30B0F43430FF
:1021500020F4323090F480E008953630E1F781E0E9
:10216000283E88F0213FB9F70EC03C3011F03F30D7
:1021700091F7869586958695089581E0203F39F000
:1021800018F4283E40F70895243F29F7FCCF08951E
:1021900010926E0280912101E6E9F1E0882359F066
:1021A0008091730287FF07C08EE1DF011D928A953F
:1021B000E9F70C941E0A86E0F8CF1F93CF93DF93C4
:1021C000CDB7DEB7AA970FB6F894DEBF0FBECDBF6E
:1021D00087EB91E0FC0101962091F100208321E042
:1021E0008F3B9207B9F78091B801893009F456C046
:1021F000C8F4823009F4B1C0833009F480C0813062
:1022000071F18091E80083FF81C28091B7019091C4
:10221000B8019A3008F07AC2E92FF0E0E552F54DA6
:102220000C941F2A8A3009F487C08B3051F78091B3
:10223000B701813231F78091BB019091BC01892BAC
:1022400001F78091E800877F8093E8000E94E20A0E
:102250008091B901809321010E94C810D2CF809152
:10226000B701813A71F68091E800877F8093E8009A
:102270008091BB019091BC01892B61F460E282ECFA
:1022800091E070E00E94890A8091E8008B7780934A
:10229000E800B7CF60E090E080E0F3CF8091B70135
:1022A000813209F0AECF8091BB019091BC018D7F4E
:1022B000892B09F0A6CF8091E800877F8093E80002
:1022C0008091E80082FF16C08091F200823031F4E4
:1022D0008091F100813011F0863021F48091F1007D
:1022E0008093E2018091E8008B778093E8000E9460
:1022F000E20A87CF80913B028111E2CF82CF8091A9
:10230000B701813A09F07DCF8091BB019091BC016A
:10231000892B09F076CF8091E800877F8093E800D1
:102320008091E80080FFFCCF809121018093F10033
:102330008091E8008E77D9CF8091B701813209F082
:1023400060CF8091E800877F8093E8000E94E20AD6
:102350008091BA018093B60154CF8091B701813A40
:1023600009F04FCF8091E800877F8093E80080914B
:10237000E80080FFFCCF8091B601D8CF803899F07B
:10238000823809F0C3C18091BB018F70853008F09D
:10239000BDC18093E9008091EB0085FB882780F91F
:1023A0001092E90006C080911A02909124029111C6
:1023B00082609091E800977F9093E8008093F1000D
:1023C0001092F1008091E8008E779CC1882309F477
:1023D0008AC1823009F09AC18091B90181118DC101
:1023E0008091BB018F702FEF280F243008F08EC131
:1023F0008093E9002091EB0020FF7FC1933031F4FE
:102400008091EB0080628093EB0077C19091EB00AC
:1024100090619093EB0021E030E001C0220F8A959B
:10242000EAF72093EA001092EA008091EB008860BE
:10243000EACF81116BC11091B9011F778091E30040
:102440008078812B8093E3008091E800877F8093E0
:10245000E8000E94E20A8091E80080FFFCCF8091B2
:10246000E30080688093E30082E0111183E08093B1
:102470003B024CC18058823008F048C14091B901FC
:102480005091BA014C3D83E0580799F583E08A8367
:102490008AE289834FB7F894DE01139620E03EE08C
:1024A00051E2E32FF0E050935700849120FF03C0E6
:1024B00082958F703F5F8F708A30C8F0895C90E0A2
:1024C0008D939D932F5F243161F74FBF8091E8007A
:1024D000877F8093E8006AE270E0CE0101960E9457
:1024E000890A8091E8008B778093E8000FC1805DB6
:1024F000E6CF8091BB019091BC01252F332723307B
:10250000310509F44AC078F52130310509F479C064
:102510008BE590E0ECE8F1E02230310509F0F6C0FF
:102520002091E800277F2093E8002091BD013091A1
:10253000BE018217930708F49C0140E02115310584
:1025400009F064C0411162C08091E80082FDC9CFEA
:1025500080913B02882329F2853019F28091E800AE
:1025600083FFF2CFBECF2132310509F43BC02232C6
:10257000310509F0CBC08330910508F0C7C0FC01DC
:10258000EE0FFF1FE75DFE4F0190F081E02D8A5DA9
:102590009E4FDC018C9190E011C0CA019927413017
:1025A00089F082309105B1F0892B09F0AFC0E5E2E6
:1025B000F2E0E4918E2F90E0E5E2F2E0009709F47A
:1025C000A5C0AECFE3E1F2E0E4918E2F90E0E3E12D
:1025D000F2E0F4CFE9EFF1E0E4918E2F90E0E9EF43
:1025E000F1E0ECCF8330910508F090C0880F991F7F
:1025F000FC01E15DFE4F0190F081E02D89E090E06B
:102600008FCF82E190E0E7EEF1E08ACF80913B024C
:10261000882309F466CF853009F463CF8091E80000
:1026200083FD5FCF8091E80082FD8ECF8091E8002E
:1026300080FF84CF8091F20090E02115310519F0E0
:102640008830910550F041E0089709F040E0809112
:10265000E8008E778093E80071CF44914093F100B9
:102660003196215031090196E8CF803809F04EC0EB
:102670008091E800877F8093E80080911B0280931F
:10268000F100A0CE811142C01091B9011230F0F5D5
:102690008091E800877F8093E80010931B020E94DE
:1026A000E20A112311F084E005C08091E30087FD68
:1026B000FACF81E080933B0242E061EC81E00E942E
:1026C000670B42E261EC84E00E94670B42E261EC3E
:1026D00082E00E94670B42E260EC83E00E94670B9D
:1026E00080913B0213C08091B901813079F481E07F
:1026F000933009F080E0809324021092E9008091E9
:10270000E800877F8093E8000E94E20A8091E80059
:1027100083FF0AC08091E800877F8093E800809162
:10272000EB0080628093EB00AA960FB6F894DEBFB0
:102730000FBECDBFDF91CF911F9108950F931F93CF
:10274000CF93DF938B01D82FC92F0E945D08A8017A
:102750006D2F7C2F88E090E0DF91CF911F910F913A
:102760000C946C2AE9E6F2E083E0808311828FEF1B
:1027700082838383148263E070E08FEF9FEF0C9479
:102780009E13CF93DF9300D000D0CDB7DEB78091FA
:102790006D02833018F48F5F80936D02809169021F
:1027A00090916A02A0916B02B0916C0289839A8326
:1027B000AB83BC83BC01CD010F900F900F900F90A5
:1027C000DF91CF910C949E13CF93DF9300D000D074
:1027D000CDB7DEB780916D02882319F081508093C8
:1027E0006D028091690290916A02A0916B02B09192
:1027F0006C0289839A83AB83BC83BC01CD010F90AB
:102800000F900F900F90DF91CF910C949E137F92B9
:102810008F929F92AF92BF92CF92DF92EF92FF92F0
:102820000F931F93CF93DF9300D000D000D00F926F
:10283000CDB7DEB7182FF62E042FE22E9091690245
:1028400090FF81C0E92FE695AE2FB0E0AB5CBE4FA4
:102850008C91809367029E7F9230B9F59E012F5F25
:102860003F4F812F0E94CA074B8169818A810E9454
:10287000A90D10936A02F0926B0200936C02EE2095
:1028800009F461C08091690290916A02A0916B0283
:10289000B0916C028C839D83AE83BF83BC01CD015C
:1028A00027960FB6F894DEBF0FBECDBFDF91CF9154
:1028B0001F910F91FF90EF90DF90CF90BF90AF905E
:1028C0009F908F907F900C949E13823019F400910A
:1028D0006C02CFCF863019F410916A02CACF8930CA
:1028E000D9F3893131F6E9512E2F2170722EE695F8
:1028F000F0E0E759FB4F8590949099243AEEC32E6F
:1029000031E0D32EB12CA12CC50124E096958795FA
:102910002A95E1F7711013C0810F9601402F6F2D9A
:102920000E94CA07A80CB91CB3E0CB0ED11C2AE147
:10293000C21622E0D20641F70E94970B9ACFA12F30
:10294000A81B8A2FEACF27960FB6F894DEBF0FBEDA
:10295000CDBFDF91CF911F910F91FF90EF90DF904E
:10296000CF90BF90AF909F908F907F900895E9E6B1
:10297000F2E0818121E043816281885F0C94071439
:10298000E9E6F2E0818121E04381628188500C9484
:102990000714E9E6F2E0628128E0620F08F46FEFC5
:1029A00021E0438181810C940714E9E6F2E0628121
:1029B00028E0621B08F460E021E0438181810C94EF
:1029C0000714E9E6F2E0438128E0420F08F44FEFF4
:1029D00021E0628181810C940714E9E6F2E04381F1
:1029E00028E0421B08F440E021E0628181810C94E0
:1029F000071469EE7EEF90E080E00E94782A60E0A4
:102A000082E090E00E945A2A60E083E090E00E9419
:102A10005A2A1092700260E084E090E00E945A2AE4
:102A200060E082E290E00E945A2A60E085E090E057
:102A30000E945A2A60E086E090E00E945A2A6FEFD6
:102A400087E090E00E945A2A40E050E0BA0188E016
:102A500090E00E946C2A60E08DE090E00E945A2A8B
:102A600040E050E0BA0188E190E00E946C2A60E00A
:102A700087E190E00E945A2A40E050E0BA018CE1E0
:102A800090E00E946C2A70E060E080E290E00E949A
:102A9000782A40E050E0BA0188E190E00E946C2A78
:102AA00080E00E94A90F0E94D10F40E050E0BA01DF
:102AB0008FE090E00E946C2A40E050E0BA0183E190
:102AC00090E00C946C2AEBEFE80FEF3308F06CC049
:102AD000F0E0EB51F54D0C941F2A0E94F91481E0AF
:102AE000089580913002807F8093300281E080934E
:102AF000630208950E94C8102FEF84E39CE02150E8
:102B000080409040E1F700C000000E943D0E90918F
:102B10003002892F8E7F90FF81608093300280FD8C
:102B2000DECF817F80933002DACF90913002892FFF
:102B30008D7F91FF82608093300281FFD0CF8091A2
:102B400030028160EFCF90913002892F8B7F92FF0E
:102B500084608093300282FDF2CFC1CF9091300229
:102B6000892F877F93FF88608093300283FDE7CFB2
:102B7000B6CF0E94C81090917302892F97FB87F9F6
:102B8000805880937302ABCF81E00E943B0A0E9481
:102B9000C810A5CF895391E001C0990F8A95EAF733
:102BA000892FF3CF8D51F7CF80E00895CF93C82FB1
:102BB000882309F487C08238C1F40E945E0981FD30
:102BC00081C089E30E94C9030E9438042FEF31EECF
:102BD00084E0215030408040E1F700C0000089E3EC
:102BE0000E94FD03CF910C9438048338A1F40E9415
:102BF0005E0980FD67C083E50E94C9030E94380416
:102C00009FEF21EE34E0915020403040E1F700C0CA
:102C1000000083E5E5CF8438A1F40E945E0982FDBF
:102C200051C087E40E94C9030E9438048FEF91EEDF
:102C300024E0815090402040E1F700C0000087E48C
:102C4000CFCF8CEF8C0F813A08F0DEC08091630209
:102C5000813079F0823049F18111A2C080916E02F9
:102C6000823209F09FC08C2F0E94631581112AC007
:102C700099C080916E028232B1F3C43171F030F4A8
:102C8000CB3089F0C03161F080E005C0C93229F055
:102C900081E0C833C9F78170E9CF10926302F4CFA5
:102CA00082E08093630281E0F6CFCF3409F470C0F4
:102CB000C0F4C83248F4CE3188F5C73009F455C0A5
:102CC000C43121F0CF910895C932E1F780916202B9
:102CD0008823C1F310926202109261021092600286
:102CE000F1CFC13509F456C081E0C23519F086EF45
:102CF000C03541F7E0916002F0916102309711F325
:102D00002081082E000C990B820F911D8F3F910599
:102D100009F00CF441C08FEF8083D4CFCD51C09324
:102D20006202C430E1F068F4C230B1F08EE191E0AB
:102D3000C33069F080E291E0C13049F01092620244
:102D4000C1CFC53079F08BE191E0C630B9F79093EF
:102D5000610280936002B6CF8FE191E0F8CF8DE100
:102D600091E0F5CF8CE191E0F2CF8EE180932001EC
:102D700082E380931F018AE080931E0184E18093A7
:102D80001D0188E080931C0188E280931B019ACF8B
:102D90008AE0B0CF8FEFAECF97FFBECF108292CF39
:102DA0001092630280912101882301F180917302C6
:102DB00087FF1CC0EC2FE695E695E695F0E0EC5613
:102DC000FE4F828190E04C2F477021E030E002C03E
:102DD000220F331F4A95E2F782239323892B81F038
:102DE0008C2F0E94FD030E9438040AC0E6E9F1E03E
:102DF0008CE991E02191C21799F38E179F07D1F7C3
:102E00008C2F0E94C903EECE80E28C0F883068F4CC
:102E1000C77021E030E001C0220FCA95EAF7809127
:102E20006E02822B80936E02DDCE8BE58C0F833099
:102E300038F42C2F2452330BC901CF910C946A091A
:102E4000E8E5EC0FE73150F4F0E0EE0FFF1FEC592E
:102E5000FE4F80819181CF910C948009C03F08F48E
:102E600031CF8C2F0E940807CF910C94A2090F93A9
:102E70001F93CF93C82F10E000E0893311F400E5D1
:102E800010E08C2F0E94D6150115110531F48C2FFE
:102E9000CF911F910F910C94C8098FE99FE0019782
:102EA000F1F700C0000001501109EECFFF920F931F
:102EB0001F93CF93DF93C62FD42F122F8823A9F00F
:102EC000609365020E9496099093B5018093B401C6
:102ED000C77081E001C0880FCA95EAF7DF91CF91F2
:102EE0001F910F91FF900C947D04809165026813EF
:102EF00034C08091B4019091B5010E94760A883C5B
:102F0000910558F500E20D0FCD17A9F0C770FF2409
:102F1000F3948F2D01C0880FCA95EAF70E948704A9
:102F2000083048F48D2F877001C0FF0C8A95EAF7AE
:102F30008F2D0E947D04812F0E9437170830A0F446
:102F4000D77081E001C0880FDA95EAF7DF91CF9161
:102F50001F910F91FF900C948704C77081E001C00E
:102F6000880FCA95EAF7F2CFDF91CF911F910F91A9
:102F7000FF90089590E080E00E94542A893E9E4F81
:102F800011F40C94EE0F80E008950E94BA1781119D
:102F90000AC00E94F914809164028470896280934F
:102FA00064020E94790F86E090E00E94462A809396
:102FB0006402803320F0877088628093640290916D
:102FC0006402892F817090FF04C0892F86958695B1
:102FD00086950C9408095F926F927F928F929F92D0
:102FE000AF92BF92CF92DF92EF92FF920F931F9317
:102FF000CF93DF9300D000D000D0CDB7DEB71A82D8
:103000001982FE01339684E0DF011D928A95E9F76B
:103010008AE5E82E81E0F82E8E010F5F1F4F90E6C3
:10302000C92E91E0D92E3801AA24A394B12C34E6FC
:10303000832E31E0932EF70181917F018F3F09F4B8
:1030400040C0F894E82FE295EF70F0E021A18F7076
:10305000A50102C0440F551F8A95E2F7CA01922FBD
:10306000982B91A392A18095892382A3789400C084
:10307000E0E6F1E031E0512C21912F3F09F45AC0F4
:10308000A22FA295AF70A05EB0E08C9190E02F705F
:1030900002C0959587952A95E2F780FD4BC0832F56
:1030A000582A330F8E169F0639F7F7013197808122
:1030B0008F3F11F00E94630650EA5A95F1F7D8014C
:1030C0005C920F5F1F4FCE14DF0409F0B4CF46E0CF
:1030D00050E0B30185E492E00E94392A9C0111E09E
:1030E000892B09F410E0232B39F186E0F301A5E4E4
:1030F000B2E001900D928A95E1F781E080933E0263
:103100000E94960990933D0280933C0280913C027C
:1031100090913D020E94760A059790F086E0E5E4E2
:10312000F2E0AFE3B2E001900D928A95E1F71092E0
:103130003E0206C080E0B4CF80913E028111E6CF0E
:10314000812F26960FB6F894DEBF0FBECDBFDF915C
:10315000CF911F910F91FF90EF90DF90CF90BF9094
:10316000AF909F908F907F906F905F900895609147
:103170006902669570E04BE050E084E091E00E94C7
:103180002C2A892B19F481E0809368020E94960909
:1031900090932602809325020895CF93DF9300D069
:1031A00000D0CDB7DEB79091690290FF45C088236B
:1031B000E1F18532E0F58F77880F90916902917087
:1031C000892B80936902662381F080916902909136
:1031D0006A02A0916B02B0916C0289839A83AB83DF
:1031E000BC83BC01CD010E949E136091690266956B
:1031F00070E04BE050E084E091E00E942C2A892BA3
:10320000C1F01092680281E08093280220E0409192
:103210006C0260916B0280916A020F900F900F9088
:103220000F90DF91CF910C94071481E0C5CF84E219
:10323000C3CF0E94B718E7CF0F900F900F900F9059
:10324000DF91CF9108958091690286958F5F8532D5
:1032500008F081E061E00C94CD1890916902969598
:103260008FEF890F913009F484E261E00C94CD185E
:103270009091690290FF07C09695981720F09617D5
:1032800010F40C94231961E00C94CD184F925F92C6
:103290006F927F928F929F92AF92BF92CF92DF9266
:1032A000EF92FF920F931F93CF93DF93CDB7DEB7CB
:1032B00028970FB6F894DEBF0FBECDBF7C01DC01AE
:1032C0009C9111968C91119713962D913C91232BE3
:1032D00021F089238F3F09F0CAC528960FB6F894CC
:1032E000DEBF0FBECDBFDF91CF911F910F91FF9039
:1032F000EF90DF90CF90BF90AF909F908F907F9096
:103300006F905F904F900895980122513F45203172
:10331000310508F098C58FEF93E00E94462A0251CC
:1033200037EE832E912C882399F180917202877059
:10333000A1F2D70112968C91882379F280917402C0
:1033400082FDCBCF82E028960FB6F894DEBF0FBE89
:10335000CDBFDF91CF911F910F91FF90EF90DF9044
:10336000CF90BF90AF909F908F907F906F905F9025
:103370004F900C945A0A8114B4E09B06B1F2C40138
:103380000E94462A811101C00150EFEF8E1A9E0A59
:103390000111F1CF8091220190912301A09124018C
:1033A000B091250189839A83AB83BC8344244394E1
:1033B00084010F5F1F4FC4010E94462A89831A822D
:1033C000882309F4B2CF9FEF980F933010F58A83CA
:1033D0004982F2E08F0E911CC8010E94462A8B831D
:1033E000882309F4A2CF8E010F5F1F4FD8018C9163
:1033F0008823F1F211969C911197813009F046C013
:1034000012968C91913039F40E5F1F4F0E9437173E
:1034100008C04801E8CF923039F40E5F1F4F0E9478
:10342000D6150F5F1F4FE2CF933029F40E5F1F4F69
:103430000E94C809F6CF943019F00F5F1F4FF1CFEB
:103440000E5F1F4F20E030E0D8011196F801418156
:10345000682F6053770BFB016A30710560F021150E
:103460003105F9F28FE99FE00197F1F700C0000004
:1034700021503109F4CFC9016AE070E00E94E629C9
:103480009F01280F391F842F8D01DECFE82FF0E038
:10349000E055FA4F5490282F26952695269530E032
:1034A000F901E056FA4FE4918770F0E0082E02C06F
:1034B000F595E7950A94E2F73F0191E069227724B8
:1034C000F901E057FA4FA490B12C082E02C0B59430
:1034D000A7940A94E2F7A1E0AA22BB24F901E058DC
:1034E000FA4FC490D12C02C0D594C7948A95E2F7C4
:1034F000B1E0CB22DD246114710419F081EE0E9449
:10350000D615A114B10419F086EE0E94D615852DAA
:103510000E943717AB2819F086EE0E94C809672869
:1035200019F081EE0E94C809CD2809F47ACF8CE207
:103530006DCF81E00E94430A0E945C0BF6CE81E0D1
:103540000E944E0AF9CF82E0F5CF82E0F9CF85E004
:103550000E944809809164020E94790FE6CE80E0C3
:10356000F7CF80916402982F987F79F088508093EC
:103570006402887F91E009F490E08091640290FBFE
:1035800080F9809364020E94790F8091640286958D
:10359000869586950E940809C8CE80916402982F6E
:1035A000969596959695883240F49F5F990F990F5E
:1035B000990F8770892B80936402809164028160E7
:1035C000E0CF8091640280FF07C08E7F8093640209
:1035D0000E94790F80E0DECF8160809364028130A9
:1035E00019F489E08093640280916402CCCF9091B9
:1035F0006402892F8695869586958F5F8F71977067
:10360000863020F4880F880F880F982B90936402DF
:1036100080916402AECF8091640281FF03C00E945A
:10362000930F83CE0E947E0F80CE053F7CE5170767
:10363000F1F027E245EE66EE063F9CE5190741F002
:1036400027E245EE64EE043FACE51A0709F03BC4FF
:103650000E9456176ACE26E241EE61EEF9CF27E2CC
:1036600045EE65EEF5CF26E241EE60EEF1CF26E2C3
:1036700041EE62EEEDCF0136FDE51F0709F436C4D9
:1036800080916E028272063D9CE5190708F0D2C057
:10369000023CACE51A0708F4D8C0F801E35CFC452D
:1036A000E331F10508F023C1EC5DF44D0C941F2AC1
:1036B000F801E350FC45809173028160E331F1052C
:1036C00028F5E95CF44D0C941F2A03306DE51607CC
:1036D00078F40A3F7CE5170708F418C4F801EB5F9B
:1036E000FC45E830F105E8F4E65BF44D0C941F2A44
:1036F00001361D4509F00AC490917302892F8F7E0F
:1037000094FF806103C08091730282608093730292
:10371000FDC3809173028460F9CF80917302886049
:10372000F5CF80917402816080937402EFC3809121
:1037300074028260F9CF809173028061E7CF80913B
:1037400073028062E3CF809173028064DFCF0E94B6
:10375000C810809173028068D9CF809173028C6009
:10376000D5CF809174028360DFCF809173028E7F0A
:10377000CDCF809173028D7FC9CF809173028B7FF3
:10378000C5CF80917302877FC1CF809174028E7FF5
:10379000CBCF809174028D7FC7CF809173028F7ED3
:1037A000B5CF809173028F7DB1CF809173028F7BF3
:1037B000ADCF0E94C810809173028F77A7CF809100
:1037C0007302837FA3CF809174028C7FADCF8091F1
:1037D000730282FB992790F921E0922790FB82F9EE
:1037E00090FB83F993CF80917402982F90959170FC
:1037F0008E7F892B90FB81F997CF0E94C810909102
:103800007302892F97FB87F9805880CF61E08EE0A3
:1038100090E00E945A2A7AC360E0F9CF85E399C309
:1038200080916602811104C089E20E94FD0393C366
:1038300085E3FBCF0D35100709F477CD0A35ADE5EB
:103840001A0709F4F2C008F0CEC00115ECE51E0716
:1038500009F4DBC00E3D1C4509F4E4C0F701828188
:10386000C080D180882309F4E4C0C6010E943F10C3
:10387000182F682FC6010E946703B601812F0E948E
:1038800032100E94D1048C01D70112969C9012979D
:1038900015968C9082942FE082228091720287701C
:1038A000C1F0C92C9920B1F0812F807F803421F0A4
:1038B00080E2800F883068F08091740282FD09C038
:1038C00082E00E945A0A809172028770CC24C394CD
:1038D0008111C12C812F82958F70A82EB12C8C3034
:1038E00008F017C1F501EE5AF44D0C941F2A80918F
:1038F000690280FF1FC08E7F809369026091690218
:1039000070916A0280916B0290916C026D837E834C
:103910008F8398870E949E13109268027FEF80E742
:1039200092E0715080409040E1F700C000000E949A
:10393000970BFBCC81608093690261E086950E94C1
:10394000CD18F3CC4DE259E163E279E10E946C08B5
:10395000ECCC43E259E16DE279E1F8CF40EC54E17F
:1039600067EB74E1F3CF47EB54E160EC74E1EECF29
:1039700045ED54E169EC74E1E9CF49EC54E165EDC2
:1039800074E1E4CF4DEE54E161EE74E1DFCF41EE3E
:1039900054E16DEE74E1DACF44EE53E161EC73E192
:1039A000D5CF41EC53E164EE73E1D0CF61E081E02B
:1039B000C6CF65E082E00E943819B7CC68E086E0A7
:1039C000FACF6EE089E0F7CF64E18FE0F4CF67E1F2
:1039D00085E1F1CF61E088E1B2CF62E289E1EBCF2E
:1039E00061E083E2ACCF0B352DE5120701F10C3518
:1039F0001D4509F033CF8091740282FB882780F93E
:103A000091E089270E94F50E29CF0E94C8106FEF20
:103A100074E38CE0615070408040E1F700C000002A
:103A20000E943D0E0E94F91480CC81E0EBCF80E033
:103A3000E9CFC6010E949603182F1FCFB12FBF7088
:103A4000DB2E107F19F0D29490EFD9229920B9F093
:103A5000DD2069F080E2800F883010F0011109C08C
:103A600080916E028D2980936E020E943804802F0F
:103A70004EC0809175028D2980937502F6CF802FFC
:103A80000E94C809DD2009F444C080E2800F88301C
:103A900010F0011104C08D2D0E942A0406C0D0949C
:103AA000809175028D21809375020E94380431C087
:103AB000E12FEF70DE2E107F103219F0D29480EFDC
:103AC000D822002399F0013009F489C0992009F423
:103AD00093C0882009F489C0D70115968C91159759
:103AE00080FFC5CF8F7015968C937FC02091740294
:103AF00022FF52C0992009F448C0DD2039F080919E
:103B00006E028D2980936E020E94380480E00E942C
:103B1000D615A8E0AA1AB108B4E0AB16B10420F497
:103B20000E945E090E946103CC20A9F0809172027C
:103B300080FD11C0F70112828595859585950E94BB
:103B4000430AC7010E9446198091720285958595A6
:103B500085950E944E0A60E0C70128960FB6F8943A
:103B6000DEBF0FBECDBFDF91CF911F910F91FF90B0
:103B7000EF90DF90CF90BF90AF909F908F907F900D
:103B80006F905F904F900C946E1080E00E94C80977
:103B9000DD2009F4BECF7FCF9920A1F090916F0274
:103BA0008D2D892B811003C00E947D04B2CFF1E0DE
:103BB0008F12FACF22FDADCF981709F4AACF8093C8
:103BC0006F02A7CF811006C00E9432048D2D0E9483
:103BD00087049FCF21E0821609F49BCFF5CF99206F
:103BE00031F035E0381508F494CF8D2DDDCF64E049
:103BF000681508F48ECFEACF882041F3093349F4E1
:103C0000BFEFE7EEF3E0B150E040F040E1F700C075
:103C10000000802F0E94C8097CCF812F8695869551
:103C2000837061F0813009F074CFC80193709110F6
:103C300002C090E080E00E9480096BCFC8019370C1
:103C4000911002C090E080E00E946A0962CF802F4C
:103C5000992029F00E9408070E94A2095ACF0E94C9
:103C60005107FACF812F8370A1F5911052CF802F89
:103C7000829586958770880F880F402F4F70082E89
:103C800001C0440F0A94EAF7202F207104FF07C0F7
:103C90002FE030E001C0220F8A95EAF720951695B3
:103CA00016951370123081F0822F842B133031F06F
:103CB00080917002113029F0242B82230E943B0A4C
:103CC00028CF842B822BFACF242B8091700282275D
:103CD000F5CF992061F110FF1CCF802F829586953A
:103CE0008770880F880F402F4F70082E01C0440F37
:103CF0000A94EAF7202F207104FF07C02FE030E07C
:103D000001C0220F8A95EAF7209516951695137033
:103D1000123099F0822F842B133031F08091710290
:103D2000113041F0242B82230E943F0AF2CE11FF72
:103D3000F0CED3CF842B822BF7CF242B809171022E
:103D40008227F2CF1F70992029F0812F0E94430A09
:103D5000802F2ACF802F0E948704812F0E944E0A35
:103D6000D8CE023F81F160F4003FB9F0013F81F00D
:103D7000992009F458C081107ACE812F8F7127C005
:103D8000033F41F1043FA1F78091740282FF2DC0EF
:103D9000812F8F71992011F31AC0992079F024E0B6
:103DA000281508F4B6CE1F7181E090E001C0880F9D
:103DB0001A95EAF7909171028927B6CF35E0381548
:103DC00008F4A7CEF0CF812F8F719110C7CF0E943A
:103DD000430A9FCE80E0992009F4A6CF1F7181E0AD
:103DE00001C0880F1A95EAF79FCF992089F01F71BB
:103DF000812F0E94430A8091740282FD07C0812FA7
:103E0000880F880F880F836080937202812FDFCF25
:103E100081E00E945A0A61E0681508F07ACE82E0DB
:103E20000E945A0A76CE882059F0093309F0F1CE63
:103E30007FEF87EE93E0715080409040E1F7E7CE4E
:103E4000812F8F718BCF0031FFE51F0709F471CBF4
:103E500001312FE5120709F476CBF801EB5BFC4545
:103E6000E730F105C0F4E25AF44D0C941F2A61E0EA
:103E7000C7010E946E108C01D70112968C9181119E
:103E800043CA00313FE5130709F459CB01316FE50F
:103E9000160709F45ACB033FECE51E0709F4E3CB00
:103EA00008F0C3CB083D2CE5120709F4D8CB28E273
:103EB00041E0093D3CE5130709F4D3CB073D6CE530
:103EC000160709F4C8CB882389F1109265020330E4
:103ED000BDE51B0708F0CFCB0A3FECE51E0730F429
:103EE000980122503C4524313105C0F50E94E00F75
:103EF000909374028093730206312CE5120708F048
:103F0000E4CB02303CE5130708F0D2CB609173029A
:103F10001091740284E090E00E945A2A612F82E29C
:103F200090E00E945A2A0E94C810FFC906311C4521
:103F300009F094CC90916E02882309F471CC892FFA
:103F40008A7A91E009F490E090936602811166CC40
:103F500089E20E94C9030E943804E7C90631ECE5F2
:103F60001E0741F38DCB1F93CF93DF938091AD025A
:103F7000807FA1F48091AA02882381F020917702AA
:103F8000D0917602C091A8024091A902A091AB0203
:103F9000B091AC02142F1C23D21304C0DF91CF9137
:103FA0001F91089530E0109711F01F3F21F42F5F0B
:103FB0003F4F2770F1CFC90166E070E00E94E6290B
:103FC000FC01E858FD4F81814813F1CF80818C13AB
:103FD000EECF82818111EBCF838194818A1B9B0B71
:103FE000883C910520F78091AD028F7080618093AD
:103FF000AD02C90166E070E00E94E629FC01E358C9
:10400000FD4F90819F709061908388EA92E00E94BA
:104010004619DF91CF911F910C94BF038F929F920D
:10402000AF92BF92DF92EF92FF920F931F93CF93C5
:10403000DF93CDB7DEB72B970FB6F894DEBF0FBE78
:10404000CDBF8C0185E0F801DE01179601900D923D
:104050008A95E1F7F801E280A380B48088EA882E8F
:1040600082E0982E9091A8028091A9022091AB0243
:104070003091AC022115310529F0482F49234F3FDB
:1040800009F029C1EE2009F434C1F8018081918141
:104090000E949B10F82E882309F42BC186E0F801BA
:1040A000A8EAB2E001900D928A95E1F70E94B31F51
:1040B00021C0D090AD025D2D507F283C310508F025
:1040C000A9C0F80141815111C4C0FE2C481325C07C
:1040D0008081891322C0E11020C08D2D8F708061F6
:1040E0008093AD0288EA92E00E9446198091AD0269
:1040F000F80185838F2D2B960FB6F894DEBF0FBE87
:10410000CDBFDF91CF911F910F91FF90EF90DF9086
:10411000BF90AF909F908F900895AF81AB2829F00A
:10412000842F8A238F3F09F091C080E0F82FF1702F
:10413000DF2E20917702B091760280FD1EC0EE2026
:10414000C9F28091AD0281608093AD02F12CD2CF93
:1041500030E0C90166E070E00E94E629FC01E85801
:10416000FD4F8181481306C08081A81303C082815E
:10417000E812E5CF2F5F3F4F27702B13E9CF8F81D8
:1041800098850E948D10292F22952F70903260F013
:10419000225F2F70223078F49F7051F0F8019581E2
:1041A000907F31F4D12C0AC09F7011F08823D1F395
:1041B000805E8830B8F3C8010E944619FD2C9ACF62
:1041C000F801808191810E949B10882309F491C09D
:1041D000EE2009F48EC08091AD02803270F08091A3
:1041E000A8029091A9029A8389831B82BD82AC8226
:1041F000DE82CE0101960E94461986E0F801A8EA07
:10420000B2E001900D928A95E1F70E94B31FFF245E
:10421000F39470CF511132C088EA92E00E9446199F
:1042200086E0F40111928A95E9F790CFF801808138
:1042300091810E949B108111E0CF8091AD0281603D
:104240008093AD02C8010E94461954CF81E08E25AB
:104250006DCF4813B5CFF80180818913B1CFE1103C
:10426000AFCFD582C8010E94461986E0F801A8EABE
:10427000B2E001900D928A95E1F73CCFF8012181DF
:1042800082139ECFF801808189139ACFE11098CFD5
:10429000D582C8010E94461986E0F40111928A95E0
:1042A000E9F728CFF80121818213C0CFF80180817E
:1042B0008913BCCF8091AD0280FDD7CF982F907F1E
:1042C000A1F28583903F71F2982F907F905F8F705D
:1042D000892B8583C7CFF090AA02A501421B530BFF
:1042E0009A01F110E6CE283C3105B0F6FE2CE11023
:1042F000D9CFC8010E9446198ACFCF93DF93CDB79B
:10430000DEB767970FB6F894DEBF0FBECDBF342F70
:104310004B8B252F5C8B962F6D8B7E8B8F8B4E89D5
:104320005F896111109275021A8A3D872E879F87D7
:10433000598B488B86E0FE013D96DE011796019071
:104340000D928A95E1F7CE0107960E940E20811109
:1043500016C086E0FE013796DE01119601900D929F
:104360008A95E1F72F8198858091760240917702B6
:104370006A857B85672B19F092239F3FB1F5809169
:1043800077029091760289131CC067960FB6F89455
:10439000DEBF0FBECDBFDF91CF91089566E070E024
:1043A0000E94E629DC01A858BD4F86E0FE01319647
:1043B00001900D928A95E1F7209376020E94BF0347
:1043C000DECF90E066E070E00E94E62988589D4FBD
:1043D0000E940E208823C9F28091770290E0019616
:1043E0008770992780937702CACF90E09C012F5F56
:1043F0003F4F277033274217130681F60E94C810DB
:10440000109276021092770286E0E8EAF2E0DF018D
:104410001D928A95E9F7B3CFCDB7DEB7A9970FB64E
:10442000F894DEBF0FBECDBF84B7877F84BF0FB6C1
:10443000F894A89580916000886180936000109244
:1044400060000FBE80E890E00FB6F89480936100A2
:10445000909361000FBE81E696E090939301809364
:1044600092011092E2001092E1008091E0008160E0
:104470008093E0008091D8008F778093D80019BC9A
:104480008091630081608093630010921C02809190
:1044900063008E7F8093630081E080931C02109202
:1044A000E2001092E1008091D8008F778093D800CD
:1044B0008091D80080688093D8008091D8008F7D4B
:1044C0008093D80084E089BD86E089BD89B5282F16
:1044D0002170622E80FFFACF10923B0210921B02D5
:1044E0001092240210921A0242E060E080E00E94E2
:1044F000670B8091E1008E7F8093E1008091E20064
:1045000081608093E2008091E20088608093E20005
:104510008091E0008E7F8093E0008091E2008460D3
:104520008093E200789480913B02882399F08091F7
:10453000E9001091EC001795112717958F70182B33
:104540001092E9008091E80083FD0E94DD101F7049
:104550001093E90082E084BD93E095BD9AEF97BD8A
:1045600080936E000E94EE0F811102C00E94D10F55
:104570000AE511E060E6E62E61E0F62ED8018D91A5
:104580008D018F3F11F00E946306E016F106B1F72E
:1045900084E60E94630685E60E94630683E30E9428
:1045A000630682E30E94630686E0EFE3F2E0DF0148
:1045B000282F1D922A95E9F7E5E4F2E0DF011D922C
:1045C0008A95E9F70E94BA17811102C00E94F91476
:1045D00082E090E00E94462A809330020E94E00F21
:1045E00090937402809373020E94EB17EFE3FCE94F
:1045F0003197F1F700C000000E94EB1780913F0255
:1046000080FF08C06FEF7FEF90E080E00E94782A83
:104610000E943D0E83E090E00E94462A0E943B0AE1
:10462000249A2C9A279A2F988AE08093800089E117
:10463000809381008FEF9FEF909387008093860097
:104640000E94C5178091640281FF0BC010921F0267
:1046500010921E0210921D0280916F008160809363
:104660006F000E94C51780912002811133C00E9403
:10467000BA17811104C00E94F9140E94B21388E095
:1046800090E00E944E2A6093690270936A028093C0
:104690006B0290936C026E7F71F40E94B21388E0FB
:1046A00090E00E944E2A6093690270936A028093A0
:1046B0006B0290936C020E945D08109268028091D8
:1046C000690280FF04C060E086950E94CD1881E0F9
:1046D000809320028FE091E090934C0280934B02F4
:1046E00038E1C32ED12C40E4742E55E4A52E52E0BF
:1046F000B52E80913B02FF24F39404E016E0853050
:1047000009F49CC10E94EB17882359F08FB7F894E5
:1047100040913702509138026091390270913A020B
:104720008FBFAFE3B2E0E1E3F2E010E000E0302F52
:104730008D919191981709F4A5C1292F282790E010
:10474000FF24F394422F4F2109F497C199833A83B0
:104750008F2191E009F490E09B830E94960981608B
:10476000782F9D838C8349815A816B81892F0E9488
:104770007D21F801EF5CFD4F80818F258083809142
:1047800068028823D1F180916702E0916902E69581
:10479000E81BE0932702823009F08BC1F0E0E45877
:1047A000FA4FE4910E2F10E029E1E22E2EE0F22ED6
:1047B00080912802882361F0109228020E949609B5
:1047C000909326028093250210922A0210922902C9
:1047D0000E9496092091250230912602821B930B9C
:1047E0008F3F9F4750F4200F311F309326022093B4
:1047F000250285E292E0F701099586E0EAE5F2E01C
:10480000DE01119601900D928A95E1F7E0905C022D
:10481000F0905D0210915E0200915F0210925C02C6
:1048200010925D0210925E0210925F028E2D8F290F
:1048300091F080912D0290912E020E94760AFC0147
:1048400020915902222309F492C180911F018E17F1
:104850001F0608F49BC1812F802B09F44DC0809165
:104860002B0290912C020E94760A9C0180915802A2
:10487000882309F4F0C32536310508F43DC08F3F85
:1048800019F08F5F80935802112351F00E94CD06DA
:104890006FEF11160CF461E00E94DD2980935E0237
:1048A000002351F00E94CD066FEF10160CF461E06A
:1048B0000E94DD2980935F0280915E0220915F0259
:1048C0008823D1F02223C1F0082E000C990B65EB50
:1048D00070E00E94E629992309F49BC190935E023F
:1048E000822F220F990B65EB70E00E94E629992335
:1048F00009F493C190935F0280915C0290915D02F4
:10490000892B90915E02892B90915F02892B11F087
:104910000E94A20986E0FE013196AAE5B2E001906C
:104920000D928A95E1F70E945E0990912F028917F6
:1049300031F00E945E0980932F020E9461038091F2
:104940003B02843009F0D5CE83E08093E90080916A
:10495000E80082FFCECE8091E80090E085FF06C09F
:104960000E94010B882309F45CC1962D8091E80018
:104970008B778093E800992309F4BBCEE981E1505D
:10498000E33108F0D6C1F0E0EB59F44D0C941F2A46
:1049900080913B02843009F443C080E00E94080902
:1049A00080E00E94610310926802809123028111CD
:1049B00016C0F092230280916902982F9170909313
:1049C00022028E7F80936902FFEF20E732E0F150F0
:1049D00020403040E1F700C000000E94970B109289
:1049E00021020FB6F894A895C09260000FBE709295
:1049F000600083B7817F846083BF83B7816083BF9A
:104A00007894889583B78E7F83BF0FB6F894A89566
:104A100080916000886180936000109260000FBEFA
:104A200080912402882351F00E94EB17EFE3F2E01B
:104A300081918111F1C2AE16BF06D1F780913B0280
:104A4000853009F4A5CF0E94C8100E94C5170E94A6
:104A50005E090E9461031092230280912202882342
:104A600049F08091690281608093690260E08695D7
:104A70000E94CD180E94B71845CE9F5FFF0C94305E
:104A800009F060CE0F5F1F4F0630110509F04FCEC1
:104A90008FEF89A38AA31BA20E9496098160782FB9
:104AA0009DA38CA349A15AA16BA1892F0E947D21AE
:104AB00066CE853109F447C068F4893061F18F30E2
:104AC000B1F18630E9F000ED17E06CE7E62E66E024
:104AD000F62E6ECE833209F441C004EF11E07CEC77
:104AE000E72E7BE0F72E843209F462CE08E210E074
:104AF0009EEDE92E9CE0F92E883109F459CEE3CFE2
:104B0000F0E0E758FA4FE4910E2F10E08DE2E82E26
:104B10008EE0F82E4DCEE695F0E0EA58FA4FE4919B
:104B20000E2F10E0B4E0EB2EBCE0FB2E41CEE6955C
:104B3000F0E0ED58FA4FE4910E2F10E0AEE2EA2ECD
:104B4000ACE0FA2E35CEF0E0E059FA4FE4910E2FAA
:104B500010E0F0E9EF2EFCE0FF2E2ACEEEE6F5E0C5
:104B600005911491EAEBEE2EEDE0FE2E21CE809120
:104B7000200190E06AE070E00E94E6298E179F070E
:104B800008F069CE2F5F2093590202C02F3FD1F762
:104B9000EE2051F00E947D066FEF1E140CF461E0D0
:104BA0000E94DD2980935C02FF2051F00E947D0667
:104BB0006FEF1F140CF461E00E94DD2980935D0209
:104BC00080915C02882309F446CE20915D02222365
:104BD00009F441CE082E000C990B65EB70E00E94A1
:104BE000E629992371F090935C02822F220F990B92
:104BF00065EB70E00E94E629992339F090935D02FD
:104C00002ACE81E080935C02F0CF81E080935D0248
:104C100022CE81E080935E0263CE81E080935F02CA
:104C20006BCE00E210E09E012F5F3F4F7901809133
:104C3000E80085FD0AC08091E8008B778093E8004A
:104C40000E94010B882399F390CE8091F100D70147
:104C50008D937D010150110951F787CE1A8289E0A9
:104C60008B8323C08A81823009F4ECC1833009F43C
:104C700042C0813009F05DC08FB7F89420913702AF
:104C8000309138024091390250913A022EA33FA34D
:104C900048A759A78FBF6EA17FA188A599A50E949B
:104CA000252A6B837C838D839E8380913B02843095
:104CB00009F01FCD8091E9001091EC0017951127A4
:104CC00017958F70182B82E08093E9008091E8009F
:104CD00080FF0DC050E040E060E270E0CE01019640
:104CE0000E94320B8091E8008E778093E8001F705D
:104CF0001093E900FECC86E0EFE3F2E0DE011396CC
:104D000001900D928A95E1F7D0CF8A81823089F4A3
:104D10008B819C81AD81BE818EA39FA3A8A7B9A7DB
:104D2000BC01CD010E94252A86E290E00E945A2A09
:104D3000BCCF8FEF8983B9CF4C816B818A810E9470
:104D400007109827892798279E838D83AECFED8003
:104D5000FE80FE24EF24FE248A8190E060E370E070
:104D60000E94E6292B8130E043E0220F331F4A9551
:104D7000E1F78C01020F131F8C8190E0880F991FBF
:104D8000080F191F6F2DC80187960E945A2A6E2D91
:104D9000C8018896CBCF0E94120F87CF8A818930B5
:104DA00031F18A3091F18A81823809F451C0B0F52D
:104DB0008038E9F1813809F078CF60E08B810E947A
:104DC000CD189B818091690291113AC08E7F8093AA
:104DD0006902109268029FEFA0E7B2E09150A040F4
:104DE000B040E1F700C000000E94970B5ECF8B81BE
:104DF00090E065E070E00E94E6296FEF70E00E94AD
:104E0000F729862F0E944809CECF8B81811103C0DC
:104E10000E94930FC8CF0E947E0FC5CF833809F040
:104E200044CF20E040916C026C818B8106C020E071
:104E30004B8160916B0280916A020E94071435CF0A
:104E400081608093690260E086950E94CD182DCF25
:104E50008B8180936D0229CF8A81893059F08A3005
:104E6000C9F0813841F1D8F4803809F01ECF809123
:104E70006C02F6CE8091640286958695869590E0C8
:104E80006FEF70E00E94E62965E070E00E94F7296C
:104E90006B830BCF8091640286958170E1CE82385E
:104EA00091F0833809F001CF80916A028B83809161
:104EB0006B028C83FACE8091690280FF02C08695D6
:104EC000CFCE80E0CDCE80916D02CACE80916402BB
:104ED0000E94790F2091690230916A0240916B0221
:104EE00050916C022EA33FA348A759A7CA01B9014C
:104EF0000E949E13DACE80E18A83D7CE83E08A8334
:104F000089E1AECE8A809B809824892498248C8164
:104F10007401E80EF11C8E010B5F1F4FC401895113
:104F20009F4F8E149F0409F4C0CE39E1831633E0FD
:104F3000930648F40E94462AD8018D938D01BFEF55
:104F40008B1A9B0AEBCF80E0F7CF0A811B811027D9
:104F500001271027FE0131964F018C817F01E80E59
:104F6000F11CC80189519F4F8E149F0409F49DCEF6
:104F70000931F3E01F0728F4D40114966C910E94C4
:104F80005A2A0F5F1F4FBFEF8B1A9B0AEACF0E946E
:104F9000C10F8BCE84E0B0CF0A811B81102701277F
:104FA00010278C814801880E911C7E01E5E0EE0EF1
:104FB000F11CC80187968016910609F476CE003C54
:104FC000110540F40E94462AD7018D937D010F5FA1
:104FD0001F4FEFCF80E0F8CF0A811B8110270127F8
:104FE0001027FE0131964F018C817F01E80EF11CE4
:104FF000C8018796E814F90409F457CE003C11055E
:1050000028F4D40114966C910E945A2A0F5F1F4F06
:10501000BFEF8B1A9B0AECCF09BD19BD09B400FE86
:10502000FDCF8091D8008F7D8093D8008091E000E3
:1050300082608093E0008091E00081FDFCCF0E94BF
:10504000C810FCCC86E290E00E94462A1B821C829B
:105050001D828E832ACE2D32314008F012CC4CCCEA
:105060001F920F920FB60F9211242F933F934F93DD
:105070005F936F937F938F939F93AF93BF93EF93C0
:10508000FF93809100018230A1F08F5F8093000137
:10509000FF91EF91BF91AF919F918F917F916F9110
:1050A0005F914F913F912F910F900FBE0F901F90E6
:1050B000189581E08093000180911E0290911F025B
:1050C000019660ED72E00E94F72990931F02809391
:1050D0001E0265E070E00E94F7296F7780911D0243
:1050E000823041F4603451F480916F008E7F809360
:1050F0006F0004C0813011F46F37B1F3E62FF0E098
:10510000E751FD4F8491609186007091870090E097
:105110000E94E6296BEF74E00E94F729CB012091F1
:105120006402269526952695622F70E00E94E62956
:105130000E94710890938D0080938C00A9CF1F92DC
:105140001FB61F9211248F939F93AF93BF938091AB
:105150002102811113C08091370290913802A091F1
:105160003902B0913A024196A11DB11D80933702D8
:1051700090933802A0933902B0933A02BF91AF9155
:105180009F918F911F901FBE1F90189578941F922A
:105190001FB61F9211248F939F93AF93BF9380915B
:1051A000370290913802A0913902B0913A020196EB
:1051B000A11DB11D8093370290933802A09339024C
:1051C000B0933A02BF91AF919F918F911F901FBEF4
:1051D0001F9018951F920F920FB60F9211242F93C4
:1051E0003F934F935F936F937F938F939F93AF936F
:1051F000BF93EF93FF938091E10082FF09C08091FC
:10520000E20082FF05C08091E1008B7F8093E10086
:105210008091E10080FF17C08091E20080FF13C001
:105220008091E2008E7F8093E2008091E2008061B5
:105230008093E2008091D80080628093D80019BCEE
:1052400085E080933B028091E10084FF29C080913A
:10525000E20084FF25C084E089BD86E089BD09B4F1
:1052600000FEFDCF8091D8008F7D8093D800809183
:10527000E1008F7E8093E1008091E2008F7E809339
:10528000E2008091E20081608093E20080911B0245
:10529000882309F441C084E080933B0280913B0263
:1052A0008091E10083FF27C08091E20083FF23C04B
:1052B0008091E100877F8093E10082E080933B0250
:1052C00010921B028091E1008E7F8093E10080911B
:1052D000E2008E7F8093E2008091E2008061809303
:1052E000E20042E060E080E00E94670B8091F00005
:1052F00088608093F000FF91EF91BF91AF919F91F3
:105300008F917F916F915F914F913F912F910F906E
:105310000FBE0F901F9018958091E30087FD02C08B
:1053200081E0BACF83E0B8CF1F920F920FB60F92F1
:105330001124FF920F931F932F933F934F935F93EB
:105340006F937F938F939F93AF93BF93CF93DF938D
:10535000EF93FF9309EE10E0F8018081C091EC001B
:10536000C795CC27C7958F70FC2EF82A1082C0EF06
:10537000D0E08881877F888378940E94DD10F801CF
:105380001082888188608883CF2DCF70C083FF9181
:10539000EF91DF91CF91BF91AF919F918F917F91CD
:1053A0006F915F914F913F912F911F910F91FF90BE
:1053B0000F900FBE0F901F901895002480FD060ED1
:1053C000660F11F08695D1F7802D0895002455279A
:1053D00004C0080E591F880F991F009729F0769571
:1053E0006795B8F37105B9F7802D952F0895AA1B1D
:1053F000BB1B51E107C0AA1FBB1FA617B70710F0C0
:10540000A61BB70B881F991F5A95A9F780959095F1
:10541000BC01CD01089597FB072E16F4009407D028
:1054200077FD09D00E94F72907FC05D03EF490953E
:1054300081959F4F0895709561957F4F0895EE0F68
:10544000FF1F0590F491E02D09946927962769279D
:105450007827872778270895FC014150504030F085
:1054600001900616D1F73197CF0108958827992723
:105470000895FB01DC0104C08D910190801921F495
:1054800041505040C8F7881B990B0895F999FECFF9
:1054900092BD81BDF89A992780B50895A6E1B0E044
:1054A00044E050E00C94802AA8E1B0E042E050E0F3
:1054B0000C94802A262FF999FECF92BD81BDF89ACF
:1054C000019700B4021639F01FBA20BD0FB6F89448
:1054D000FA9AF99A0FBE08950396272F0E945B2A25
:1054E0000E945A2A252F0E945B2A242F0C945B2AA3
:1054F0000196272F0E945B2A0C945A2ADC01CB01CB
:10550000FC01F999FECF06C0F2BDE1BDF89A3196D3
:1055100000B40D9241505040B8F70895EE27FF2790
:10552000AA27BB2708C0A20FB31FE41FF51F220F35
:10553000331F441F551F969587957795679598F368
:105540007040A9F7009799F7BD01CF010895A1E236
:105550001A2EAA1BBB1BFD010DC0AA1FBB1FEE1FED
:10556000FF1FA217B307E407F50720F0A21BB30B38
:10557000E40BF50B661F771F881F991F1A9469F7B4
:1055800060957095809590959B01AC01BD01CF0110
:105590000895F894FFCF110717071A07200735075A
:1055A0003507350735073507230728072C07320746
:1055B000430749074D07BE11E6118613E61186130E
:1055C00019123A128613351342137A15711587157D
:1055D0006F15D415D4156F15D415D415A315D4157E
:1055E000AE15B915D415D415D415D4156F15D41519
:1055F000D4156F15D4159515D415D415D215D2150B
:10560000D215D215D215D215D215D215D215C41570
:10561000D4157A156D15D415D415D415D415D41503
:10562000D415D415D415D415D415C415D415D41542
:105630006F15D415CA15CA15CA15CA15CA15CA15C3
:10564000CA15CA15CA15C415A21CA91CAE1CB31CC8
:10565000B81CBD1CC21CC71CCC1CD11CD61CD91C20
:10566000DE1CE11CE41CE71CEA1CED1CF01C831B87
:10567000891B8D1B9B1B9F1BA31BA71BAD1BB51B56
:10568000B91BBD1BC11BCD1BD11BD51BD91BDF1BE0
:10569000FD1BE71B971BC51BC91BB11BE31BF31BA2
:1056A000061C0C1C1E1D1E1D581D581D0D1E271EE0
:1056B000891D891D321EA21EB11EB11EA71AAF1A66
:1056C000B11ACD1AE11AF71A0B1B2E26322685269F
:1056D0009C26A726CB26CE262C27662799269926F8
:1056E0007B277E278227A527C727CA27CC27EC2719
:1056F0000101010201191A1B1C1D1E1F20212285F8
:105700000A610EA40EED0EF10E880A2808140A3262
:105710001E01000000004022B64C012A0174009EC8
:1057200001B701D7010001020202020606060909BB
:10573000090909090F0F0F0F0F0F15151518191962
:105740001919191919191919232493919266673691
:1057500064653332E200E900EA00B500B600B70044
:10576000CD008301CC008A01920194012102230221
:1057700024022502260227022A02B300B4006F0089
:025780007000B7
:00000001FF
