:100000000C9400040C9447040C9447040C9447048B
:100010000C9447040C9447040C9447040C94470434
:100020000C9447040C9447040C9424270C94FC274C
:100030000C94D9260C9447040C9447040C94470460
:100040000C9447040C9447040C9447040C94470404
:100050000C9447040C9400270C9447040C94470418
:100060000C9447040C9447040C9447040C944704E4
:100070000C9447040C9447040C9447040C944704D4
:100080000C9447040C9447040C9447040C944704C4
:100090000C9447040C9447040C9447040C944704B4
:1000A0000C9447040C9447040C944704050109027E
:1000B000A10185020901A1000509190129081500FE
:1000C0002501950875018102050109300931158165
:1000D000257F95027508810609381581257F9501D0
:1000E00075088106050C0A38021581257F95017572
:1000F000088106C0C005010980A101850319012AF4
:10010000B700150126B700950175108100C0050CD8
:100110000901A101850419012AA002150126A002E6
:10012000950175108100C005010906A1018506052C
:100130000719E029E71500250195087501810205D9
:1001400007190029EF1500250195F07501810205B9
:10015000081901290595057501910295017503910D
:1001600001C00660FF0961A1010962150026FF00B8
:100170009520750881020963150026FF00952075FA
:10018000089102C005010906A101050719E029E748
:1001900015002501950875018102950175088101F9
:1001A0000507190029FF150026FF0095067508812F
:1001B000000508190129059505750191029501753C
:1001C000039101C009025B00030100A0FA090400C9
:1001D0000001030101000921110100012240000773
:1001E0000581030800010904010002030000000961
:1001F00021110100012222000705820320000107CE
:1002000005030320000109040200010300000009A6
:10021000211101000122B60007058403200001120C
:1002200001000200000008424B626003000102006E
:10023000011C034B0042004400370035005F0048BA
:10024000004F0054005300570041005000000010C0
:10025000034B0042004400460041004E00530000A2
:10026000000403090429003A003B003C003D003E25
:10027000003F00400041004200430044004500466A
:10028000004A0035001E001F00200021002200232C
:100290000024002500260027002D002E002A004DF6
:1002A000002B0014001A000800150017001C00188D
:1002B000000C00120013002F00300031004B0039F9
:1002C0000004001600070009000A000B000D000ED4
:1002D000000F0033003400490028004E00E1001DEB
:1002E000001B000600190005001100100036003741
:1002F000003800E500000052004C00E000E300E29E
:1003000000000000002C0000000000E600E700E410
:10031000005000000051004F0001000100010001E9
:1003200000010001000100010001000100010001C5
:1003300000010001000100010001000100010001B5
:1003400000010001000100010001000100010001A5
:1003500000005C01000100C25CC35CC55CC65CC7F8
:100360005CC85CC95CCA5C010001000100010001BD
:100370000001000100010001000100010001000175
:100380000001000100010001000100010001000165
:10039000000100010001000100BD5CBF5CBE5CC04B
:1003A0005C010001000100010000000100010001EA
:1003B0000001000100000000000100000000000139
:1003C0000001000100010000000100010001000126
:1003D0000001000100010001000100010001000115
:1003E0000001000100010001000100010001000105
:1003F00000010001000100010001000100010001F5
:100400000001000100005C01000100C25CC35CC58A
:100410005CC65CC75CC85CC95CCA5C0100010001C9
:1004200000010001000100010001000100010001C4
:1004300000010001000100010001000100010001B4
:1004400000010001000100010001000100BD5CBFCE
:100450005CBE5CC05C010001000100010000000105
:100460000001000100010001000000000001000087
:100470000000000100010001000100000001000176
:100480000001000100010001000100010001000164
:100490000001000100010001000100010001000154
:1004A0000001000100010001000100010001000144
:1004B000000100010001000100005C01000100C218
:1004C0005CC35CC55CC65CC75CC85CC95CCA5C01DB
:1004D0000001000100010001000100010001000114
:1004E0000001000100010001000100010001000104
:1004F00000010001000100010001000100010001F4
:1005000000BD5CBF5CBE5CC05C010001000100017D
:1005100000000001000100010001000100000000D6
:1005200000010000000000010001000100010000C6
:1005300000010001002223252628292A2C2D2F30F6
:1005400032333536383A3B3D3E4042434547494ACF
:100550004C4E5051535557595A5C5E606264666800
:10056000696B6D6F71737577797B7D7F818385870B
:10057000898A8C8E90929496989A9C9E9FA1A3A50E
:10058000A7A8AAACAEAFB1B3B4B6B8B9BBBCBEBF36
:10059000C1C2C3C5C6C7C9CACBCCCDCED0D1D2D2B9
:1005A000D3D4D5D6D7D7D8D9D9DADADBDBDBDCDCC4
:1005B000DCDCDCDDDDDDDDDCDCDCDCDCDBDBDBDA7C
:1005C000DAD9D9D8D7D7D6D5D4D3D2D2D1D0CECDE7
:1005D000CCCBCAC9C7C6C5C3C2C1BFBEBCBBB9B8F4
:1005E000B6B4B3B1AFAEACAAA8A7A5A3A19F9E9C79
:1005F0009A98969492908E8C8A89878583817F7D44
:100600007B79777573716F6D6B6968666462605E24
:100610005C5A5957555351504E4C4A4947454342ED
:10062000403E3D3B3A3836353332302F2D2C2A2987
:100630002826252322FFAA7F554000010101010140
:10064000010101010202020202020202020303038B
:10065000030303030304040404040404050505055B
:10066000050606060606070707070708080808091B
:100670000909090A0A0A0B0B0B0C0C0C0D0D0D0EC7
:100680000E0E0F0F0F10101111111212131314145C
:10069000151516161717181819191A1A1B1B1C1DD1
:1006A0001D1E1E1F2020212222232424252626272A
:1006B0002829292A2B2C2D2D2E2F3031323233345C
:1006C00035363738393A3B3C3D3E3F404142434462
:1006D00045464748494A4C4D4E4F50515354555644
:1006E00058595A5B5D5E5F616264656668696B6CF0
:1006F0006D6F7072737577787A7B7D7E808283856B
:1007000087888A8C8E8F91939596989A9C9EA0A2AA
:10071000A3A5A7A9ABADAFB1B3B5B7BABCBEC0C2B4
:10072000C4C6C9CBCDCFD1D4D6D8DBDDDFE2E4E778
:10073000E9EBEEF0F3F5F8FAFDFF1E0F0500047F7C
:100740003F1F643214643214783C1E1E140A0500E4
:100750000000000000000000000000000000000099
:100760000000000000000000000000000000000089
:100770000000007E0F00D4FFFFFFC70000007800DC
:10078000000000000000002A2B28000000000000EC
:100790000000000000000000000029000000002C04
:1007A0001E3420212224342627252E362D373827A3
:1007B0001E1F202122232425263333362E37381FAF
:1007C0000405060708090A0B0C0D0E0F1011121371
:1007D0001415161718191A1B1C1D2F3130232D350F
:1007E0000405060708090A0B0C0D0E0F1011121351
:1007F0001415161718191A1B1C1D2F3130354C00F3
:1008000011241FBECFEFDAE0DEBFCDBF04B603FE7A
:1008100027C080914D0390914E03A0914F03B0915A
:1008200050038730904BA740B04BD1F410924D034A
:1008300010924E0310924F031092500314BE84B7CF
:10084000877F84BF0FB6F894A89580916000886177
:1008500080936000109260000FBEE0E0F8E309951D
:1008600023E0A6EAB1E001C01D92AD34B207E1F782
:1008700011E0A0E0B1E0E2EEF6E502C005900D92D5
:10088000A63AB107D9F70E9421210C94082B0C94A9
:10089000000081FF02C0469A089546980895E82F07
:1008A0002FE0929FE00D11248E2F877041E001C050
:1008B000440F8A95EAF7E695E695E69583E0E89F8A
:1008C000F0011124EA52FD4F30E020E070E0519138
:1008D000DF011197CB01022E02C0969587950A94ED
:1008E000E2F7817081958527842385278C932F5F7C
:1008F0003F4F2330310559F70895E82F2FE0929F9D
:10090000E00D11249E2F9770E695E695E69583E01D
:10091000E89FF0011124EA52FD4F50E040E080E0F2
:10092000219130E0092E02C0369527950A94E2F70E
:1009300021703327042E01C0220F0A94EAF7822B7C
:100940004F5F5F4F4330510559F70895809116036B
:1009500090911503981301C008958F5F8770FACFA7
:10096000909124019923E1F09091120397FF18C010
:10097000E82FE695E695E695803FF0F4F0E0E45543
:10098000FE4F877021E030E0A90102C0440F551FDF
:100990008A95E2F7CA01809592818923828308951E
:1009A000EEEAF1E09191891303C0DF0111971C92E7
:1009B00051E0E43BF507B1F70895982F90958091A9
:1009C0000D03892380930D03089580910E038111F7
:1009D00010920E03089580910D0390911403892BBA
:1009E0009091FA02892B8093AC0190910E03992388
:1009F000A1F0892B8093AC0180912401882341F1DF
:100A00008091120387FF24C08EE1EEEAF1E090E0CE
:100A1000815000F591110E94E504E091D402F0911B
:100A2000D5023097E1F080912401882359F080911C
:100A3000120387FF07C08091AC018093AD0186E06F
:100A40008093AC010280F381E02D8CEA91E009945F
:100A500086E0DBCF21912223D9F29F5FD9CF089581
:100A6000882339F090910D03892B80930D030C940A
:100A7000EB040895882321F00E94DD040C94EB041C
:100A800008959091120392FF06C0282F28712830F4
:100A9000F9F4877F846093FF06C0282F28712831DE
:100AA000F1F4877E84612091130320FF06C0382F64
:100AB00038713830D9F4877F816021FF06C0282F34
:100AC00028712831D1F4877E816194FD877E089555
:100AD000282F24712430F9F68B7F8860DCCF282FF3
:100AE0002471243101F78B7E8861DDCF382F31717D
:100AF000313019F78E7F8860E0CF282F21712131A6
:100B000021F78E7E8861E1CFCF93DF93EC01803EA9
:100B1000910509F460C050F58133910509F4A6C030
:100B200090F48932910509F49AC08A9709F4A5C016
:100B3000C130D10509F462C0CE010497813A910514
:100B400008F055C05BC089339105F1F182389105F9
:100B5000D9F1C59709F47CC0C83AD10508F094C012
:100B6000C53AD10528F3A497D06448C0843E9105C6
:100B700009F453C068F4823E9105E1F1833E91058A
:100B800009F440C0CE01805E9109089780F536C017
:100B9000863E910509F44CC0873E910509F44DC08D
:100BA000811523E5920708F09AC0811532E5930775
:100BB00008F000C18F3F910511F008F074C0803F2C
:100BC000910550F2D0651AC0809112038370B1F084
:100BD000C0EED0E013C08091120380FD15C190914A
:100BE000130390FF0BC0C3EED0E084FF07C0D0E03A
:100BF000C0E004C08091120382FDF5CFCE01DF91E9
:100C0000CF9108958091120382FD01C19091130349
:100C100090FDDECF84FFF2CFEACF8091130381FFF6
:100C2000EDCF80911203C7EED0E084FDE0CFE6CF98
:100C30008091120383FDF7CFE1CF8091120383FDF2
:100C4000E9C09091130391FFE5CFC4EED0E0D6CF79
:100C50008091120385FFD2CFC9E2D0E0CFCF80913F
:100C6000120385FFCBCFC5E3D0E0C8CF809112033C
:100C700086FFC4CFCAE2D0E0C1CF8091120386FFC5
:100C8000BDCFC1E3D0E0BACFCF3BD10508F07ACFDA
:100C9000C85AD0E0CC0FDD1FC858DE4F0990D8816C
:100CA000C02DD464ABCFC11581E5D80798F4C11528
:100CB00020E5D20708F061C0C11530E2D30708F47F
:100CC0009DCFCE0190548115904108F090CFDF70F8
:100CD000D06A94CFDC2FCC27C16FD06A8FCF81151B
:100CE00039E59307A0F5C11588E5D80708F07AC063
:100CF000C11525E5D207C8F4C11534E5D30708F0BE
:100D00006CC09E012370332781E090E002C0880F01
:100D1000991F2A95E2F7C695C69520E2C29FE00189
:100D20001124C82BD92BDA6869CFCE0195558F3F96
:100D3000910511F008F05BCF8C2F0E944105C82F60
:100D4000D0E0DC2FCC27CC27DF71D06257CF8115C4
:100D50003AE5930708F44BC090568115904208F08D
:100D600046CF8D2F8F710E94410590E0982F8827E4
:100D700088279F718C2BEC01E8CF9E0174E036959B
:100D800027957A95E1F723708C2F86958695837049
:100D900030E2839FC0011124922BC37021E030E028
:100DA00002C0220F331FCA95E2F7822B932BEC016E
:100DB000DC6824CF9C012370332781E090E002C0DF
:100DC000880F991F2A95E2F7C695C69520E2C29F23
:100DD000E0011124C82BD92BEBCFDC2FCC27C46F1B
:100DE000D06A0CCFDC2FCC27C06FD06A07CF8F70B2
:100DF0000E94410534E0D695C7953A95E1F7CF704A
:100E00009C2FEC01D069FACEC9E3D0E0F7CEC2EE58
:100E1000D0E0F4CEC6EED0E0F1CE80E00895F894B4
:100E2000E82FE295EF70F0E041A18F7021E030E013
:100E3000B90102C0660F771F8A95E2F7CB01962FA2
:100E40009095942391A392A1892B82A378940895DD
:100E500008958091FB0280FD14C081FD14C082FDC5
:100E600016C08091FD02882381F0843180F422E352
:100E7000829FC001112464E170E00E947328862FD4
:100E800008958CE0089589E1089585E0089582E34E
:100E900008958091FB0280FD16C081FD16C082FD81
:100EA00016C08091FC028823A1F0883280F428E0EB
:100EB000829FC001112468E270E00E947328862F8F
:100EC000672B39F0089582E0089584E0089588E062
:100ED000089581E00895E0E1E80FE031E0F5F0E009
:100EE000E65FF44D0C9487280E9429078195809332
:100EF000010308950E942907FACF0E9429078195CE
:100F00008093000308950E942907FACF0E944907A1
:100F10008093020308950E9449078195F9CF0E94AA
:100F2000490781958093030308950E944907FACFEA
:100F3000845F990B21E030E001C0220F8A95EAF727
:100F40008091FF02822B8093FF0208958091FB0223
:100F500081608093FB0208958091FB028260F9CF4B
:100F60008091FB028460F5CF40910003803F59F4EB
:100F70008091010387FF0DC01092010341110BC046
:100F80001092FD0208C0813F81F480910103181680
:100F90009CF3442381F08091020390910303892BF9
:100FA00009F05AC01092FC020895823F49F447FFAD
:100FB000F0CF10920003809101038111ECCFE0CFBC
:100FC000833F19F41416ACF3E4CF90910203893FE8
:100FD00029F41916F4F610920203DBCF8A3F19F4B4
:100FE00097FFD7CFF8CF909103038B3F29F497FF5A
:100FF000D0CF10920303CDCF8C3F19F41916CCF348
:10100000C8CF9CE0980F953090F4845F990B21E055
:1010100030E0B90102C0660F771F8A95E2F7CB0175
:1010200080959091FF0289238093FF02B2CF8D3F7C
:1010300031F48091FB028E7F8093FB02AACF8E3F1A
:1010400021F48091FB028D7FF7CF8F3F09F0A1CF74
:101050008091FB028B7FF0CF08956F927F928F92E9
:101060009F92AF92BF92CF92DF92EF92FF920F9337
:101070001F93CF93DF93B82EA62E8901E42FF0E0C3
:10108000E65CF94F611119C0E4918E2F2E2FD80123
:1010900011962C931197EC9312968C93DF91CF912C
:1010A0001F910F91FF90EF90DF90CF90BF90AF9086
:1010B0009F908F907F906F900895E62EF12C249151
:1010C00086E0B89E60011124CFEFD0E0C601BE01DA
:1010D0000E945F288B2D90E0880F991F35E5369F81
:1010E000A001379F500D1124841B950B982F990F49
:1010F000980FAE014E195F09249FD001259FB00DB6
:101100001124EB2FA99E50011124AB2CBB24AE015E
:101110004A195B09249F5001259FB00C11248B2D87
:101120003E01691A71086E9C40016F9C900C7E9C78
:10113000900C1124892C9924C819D9092C9FA0013D
:101140002D9F500D112463307105D1F09CEFC9160D
:1011500093E0D90670F461307105B1F06230710529
:10116000B9F0FFEFCF16D10408F091CF8B2FE52F08
:101170008ECF6430710579F066307105B9F387CF91
:10118000EB2D822F2B2F83CFE22F2B2D8B2F7FCF79
:10119000852FE22FF7CF822F252F79CF809108035B
:1011A000982F9E7F29F481708260809308030895B0
:1011B0008635E8F381708465F8CFFA0181110994CE
:1011C000FB01FDCFE091D402F091D502309721F0E0
:1011D0000190F081E02D099480E0089520910002B3
:1011E000309101022817390771F090930102809322
:1011F0000002E091D402F091D502309721F00680F0
:10120000F781E02D099408952091FE013091FF01AE
:101210002817390771F09093FF018093FE01E09148
:10122000D402F091D502309721F00084F185E02DB1
:10123000099408959C01809124018823C1F0809134
:10124000120387FF14C0862F869586958695603F8A
:10125000F8F4F901E80FF11D677021E030E001C0FA
:10126000220F6A95EAF78281822B82830895F90121
:1012700032968FEF90E04191641751F08F3F19F44F
:10128000411101C0892F9F5F9630A9F78F3F09F464
:101290000895280F311D87FD3A95F901628308955D
:1012A0002FB7F8948091B2029091B302A091B4024A
:1012B000B091B5022FBF08950E94500920910003FC
:1012C00030910103232B21F08093A2029093A3027B
:1012D0002091020330910303232B21F08093A0027D
:1012E0009093A102E091D402F091D502309749F099
:1012F00082E08093FE020480F581E02D8EEF92E083
:1013000009940895CF93C82F882309F46BC08CEFFC
:101310008C0F813AA8F580912401882301F18091F6
:10132000120387FF1CC0EC2FE695E695E695F0E0EA
:10133000E455FE4F828190E04C2F477021E030E071
:1013400002C0220F331F4A95E2F782239323892B91
:1013500079F08C2F0E94B0040E94EB0409C0EEEAE1
:10136000F1E08191C817A9F321E0E43BF207C9F746
:101370006C2F8CEA91E00E941A09CF910C94EB0437
:1013800080E28C0F883068F4C77021E030E001C043
:10139000220FCA95EAF780910D03822B80930D03EB
:1013A000ECCF8BE58C0F833038F42C2F2452330B89
:1013B000C901CF910C94EE08E8E5EC0FE73150F449
:1013C000F0E0EE0FFF1FE858FE4F80819181CF9132
:1013D0000C940409C03F30F08C2F0E946B07CF9112
:1013E0000C945C09CF910895882361F19CEF980FCC
:1013F000913A20F40E94B0040C94EB0490E2980F10
:10140000983050F4877091E001C0990F8A95EAF7FF
:10141000892F0E94DD04F0CF9BE5980F933020F4D4
:1014200090E080E00C94EE0898E5980F973120F456
:1014300090E080E00C940409803F20F00E94B40703
:101440000C945C09089590E080E00E94EE0890E022
:1014500080E00E940409109214031092FA020E9484
:10146000EB0486E0EEEFF2E0DF011D928A95E9F7EA
:101470001092FD021092FC021092FB020C945C0987
:1014800080930F030C94230A809310030C94230A77
:1014900021E030E001C0220F8A95EAF78091100325
:1014A000822B0C94440A21E030E001C0220F8A957F
:1014B000EAF720958091100382230C94440A9091BE
:1014C00011038095892380931103282F277091F4AD
:1014D000282F082E000C330B9217130659F0909109
:1014E000130392FD07C08595859585950E94530A43
:1014F0001092110308959C014FB7F8948091B202A5
:101500009091B302A091B402B091B5024FBF821B7B
:10151000930B08958091FD0108950895FC01CB017E
:101520002091D8013091D9012617370790F0009704
:1015300029F42091E8002E772093E80040E00097FE
:1015400051F4411108C08091E80082FF31C080E071
:101550000895C901F3CF2091B6022223A9F12530C5
:10156000A9F12091E80023FD2DC02091E80022FD83
:10157000EACF2091E80020FFE2CF3091F3002091E4
:10158000F200009719F02830310558F041E028307A
:10159000310509F040E02091E8002E772093E80023
:1015A000CECF41914093F10001972F5F3F4FE9CF9C
:1015B0008091B602882341F0853041F08091E800A7
:1015C00083FFC1CF81E0089582E0089583E008950C
:1015D0008091D20187FF13C08091E80082FF06C08E
:1015E0008091E8008B778093E80004C08091B60278
:1015F0008111F2CF08958091B6028823D9F38091AA
:10160000E80080FFF8CF8091E8008E77ECCF209142
:10161000E4003091E50095E6A9012091EC00822FCD
:10162000817020FF06C08091E80080FF06C080E046
:1016300008952091E80022FD1AC08091B602882307
:1016400089F0853089F08091EB0085FD0FC02091F5
:10165000E4003091E50042175307F9F29150E1F6AA
:1016600084E0089582E0089583E0089581E008957C
:10167000E8EDF0E080818E7F80831092E20010928E
:10168000DA001092E100A0EEB0E08C9181608C93C2
:1016900080818F77808319BCA7EDB0E08C918E7F1D
:1016A0008C9380818F7E80831092D1010895EF9278
:1016B000FF920F931F93CF937C018B010E94070B26
:1016C000C82F811117C08091E80085FD0BC0809163
:1016D000E8008E778093E8000E94070B882399F337
:1016E000C82F08C0F70181917F018093F10001505C
:1016F000110949F78C2FCF911F910F91FF90EF9017
:10170000089580911003982F9670963019F4886090
:101710000C94440A877FFCCF982F9093E900242FE4
:10172000762F50E0891731F07091EC002091ED0098
:101730005091F00021FD06C09F5F973071F78093B4
:10174000E90008953091EB003E7F3093EB0030913B
:10175000ED003D7F3093ED003091EB003160309330
:10176000EB007093EC002093ED005093F00020917B
:10177000EE0027FDE1CF0895CF92DF92EF92FF9226
:101780000F931F93CF93DF93C8EDD0E088818F7EB6
:101790008883E7EDF0E080818160808384E082BF10
:1017A00081E08093D10188818E7F888302EE10E0F2
:1017B000F80110821092DA0081EEC82ED12CF601C9
:1017C000108288818F778883888180688883888168
:1017D0008F7D888319BC1092B6021092D0011092AE
:1017E00099021092CF0190EEE92EF12CF701808141
:1017F0008B7F808388818160888342E060E080E025
:101800000E948C0BF60180818E7F8083F80180819D
:1018100081608083808188608083F70180818E7FF2
:101820008083888180618883DF91CF911F910F91A0
:10183000FF90EF90DF90CF9008950F931F93CF9379
:10184000C82F10E000E0893311F400E510E08C2F80
:101850000E9482090115110531F48C2FCF911F913F
:101860000F910C94F4098FE99FE00197F1F700C004
:10187000000001501109EECFFF920F931F93CF93F9
:10188000DF93C62FD42F122F8823A9F0609304036F
:101890000E9450099093CD018093CC01C77081E0E4
:1018A00001C0880FCA95EAF7DF91CF911F910F9180
:1018B000FF900C94300580910403681334C080912C
:1018C000CC019091CD010E947B0A883C910558F58E
:1018D00000E20D0FCD17A9F0C770FF24F3948F2DF0
:1018E00001C0880FCA95EAF70E943A05083048F40B
:1018F0008D2F877001C0FF0C8A95EAF78F2D0E940B
:101900003005812F0E941D0C0830A0F4D77081E0B3
:1019100001C0880FDA95EAF7DF91CF911F910F91FF
:10192000FF900C943A05C77081E001C0880FCA95FA
:10193000EAF7F2CFDF91CF911F910F91FF900895B9
:101940008091080380FD0AC0EFE5F2E01182108269
:101950001282339652E0E539F507C1F7809A31B328
:101960003E7F21B321604FB7F8948FE592E0FC01F0
:101970000196508168E021BB000000C057FF31BBD9
:10198000550F000000C000C000C031BB00C06A9508
:1019900091F752E08539950751F74FBF8FE594E0F5
:1019A0000197F1F700C000000895EF92FF921F9396
:1019B000CF93DF93EC018FE5E82E82E0F82E10E064
:1019C0008C81970140910B0360910A03810F0E9463
:1019D0002D08125F83E0E80EF11C1C3F89F70E947E
:1019E000A00C9A818C8190FF08C08F5F8C83DF915F
:1019F000CF911F91FF90EF9008958150F7CFCF9234
:101A0000DF92EF92FF920F931F93CF93DF93FC012E
:101A10008281DD24DA9480FD02C0DD24D3940FE5B9
:101A200012E0D0E0C0E0F80111821082128294E04E
:101A3000E92EF12CC12C80915E028C0D8331E4F1F2
:101A400062E10E945128892F082E000C990B8C17F7
:101A50009D0791F480910B038E9DA0018F9D500DE9
:101A600011245595479555954795980160910A031E
:101A7000809109030E942D08CD0CF1E0EF1AF108C6
:101A8000D1F621960D5F1F4FC231D10561F60E943C
:101A9000A00C80915E0291E0D91212C08823B1F0AF
:101AA000815080935E02DF91CF911F910F91FF9043
:101AB000EF90DF90CF90089587FFC6CF8E5EC4CFA2
:101AC00090E00196BE010E947328EBCF81E1E9CF3F
:101AD0000F931F93CF93DF93CFE5D2E0FE011182E6
:101AE00010821282339682E0E539F807C1F710E0E0
:101AF00000E080915D02082E000C990B0817190771
:101B00008CF180910C01082E000C990B8017910725
:101B10004CF19E0140910B0360910A0380910903EF
:101B20000E942D080F5F1F4F23960231110509F700
:101B30000E94A00C80910B0190915D02980F9093F0
:101B40005D0220910C01280F20930C01121614F451
:101B500091311CF0819580930B01DF91CF911F9102
:101B60000F910895198218821A82DCCFCF92DF92EA
:101B7000EF92FF920F931F93CF93DF93CDB7DEB712
:101B80002E970FB6F894DEBF0FBECDBF8D879E8710
:101B9000AD85BE8514961C91212F30E0D9010E949D
:101BA000F92A9B01AC010E94C42A69837A838B8342
:101BB0009C83E0E2F0E0E11BF109A5E5B0E09B01C8
:101BC000AC010E94C42A69877A878B879C879F0112
:101BD000DF010E9494289B01AC010E94CF2A6D83F3
:101BE0007E838F8398879B01AC0189819A81AB8129
:101BF000BC81280F391F4A1F5B1F69857A858B8539
:101C00009C850E94D72AF22E422F50E099E29F1520
:101C100008F442C0A3E02A9F90011124359527952E
:101C2000122F10959FE5C92E92E0D92E00E085E590
:101C3000E82EEF188E2D01FD8F2D9601412F60911A
:101C40000A030E942D080F5FB3E0CB0ED11C0231B6
:101C500089F70E94A00CED85FE85948181E099238F
:101C600019F0903219F48FEF80930A0180910A01E4
:101C7000890FAD85BE8514968C932E960FB6F89479
:101C8000DEBF0FBECDBFDF91CF911F910F91FF90AF
:101C9000EF90DF90CF90089585E590E0841B950B41
:101CA0009C01220F331F280F391F37FFB7CF2F5F3B
:101CB0003F4FB4CFEF92FF920F931F93CF93DF93D9
:101CC000EC010FE512E0F12CE12C9C8160910A03FC
:101CD0008091090329E0E216F104FCF49923F9F05C
:101CE000980140910B030E942D088FEFE81AF80A23
:101CF0000D5F1F4F22E1E216F10439F70E94A00C9C
:101D00008C8190E00196817099278C83DF91CF912F
:101D10001F910F91FF90EF900895992309F3980177
:101D200040E0E1CF9091080390FF0CC0EFE5F2E0B6
:101D3000818360834283339692E0E539F907C1F7E6
:101D40000C94A00C08950F931F93CF93DF9300D0B2
:101D50000F92CDB7DEB78C0180915C0281110AC071
:101D60009E012F5F3F4F4FEF6FEF0E942D088A813A
:101D700080935C02F8016481613049F06230F1F0D7
:101D800080915C0240E0662331F040E019C0609130
:101D90005C0240E080E00E94920EF801848190E0B5
:101DA000019663E070E00E94732884830F900F9087
:101DB0000F90DF91CF911F910F91089540915C0298
:101DC00080E060E0E8CFCF93DF9300D00F92CDB7F3
:101DD000DEB79091080390FF0FC09E012F5F3F4F29
:101DE0000E942D084B8169818A810F900F900F907E
:101DF000DF91CF910C94920E0F900F900F90DF9186
:101E0000CF910895CF93DF93EC01EC81F0E0EB5C90
:101E1000FA4F4491E8E0F3E0628181810E94E30E91
:101E20008C818F5F8C83DF91CF910895CF93DF9367
:101E3000EC01E8E0F3E0438162818C810E94E30ED3
:101E40008C818F5F8C83DF91CF91089581E08093A7
:101E5000E00080E28093D8001092C9008FE19EE4F8
:101E60000197F1F700C0000087E090EBDC01809360
:101E70004D0390934E03A0934F03B093500388E11A
:101E80009CE00FB6F894A895809360000FBE9093E5
:101E90006000FFCFCF93DF93D82FC92F809124010B
:101EA0008823C1F18091120387FF34C060E284E08F
:101EB0008093E9008FEF9091E800815095FD06C076
:101EC00095ED9A95F1F700008111F5CF8091E8002A
:101ED00085FF1DC08091240170E050E040E0811139
:101EE00004C050E040E068E070E08D2F9C2F0E941D
:101EF000570B8091E8008E778093E80080E2ED2F09
:101F0000FC2FADEDB1E001900D928A95E1F7DF91E4
:101F1000CF91089568E081E0CBCF24E02093E900E1
:101F20002FEF3091E800215035FD06C035ED3A9590
:101F3000F1F700002111F5CF2091E80025FF0BC03B
:101F400050E040E066E070E00E94570B8091E800AE
:101F50008E778093E80008958093DA017093DC0116
:101F60006093DB018091B6028430F9F48093E9003C
:101F70008FEF9091E800815095FD06C095ED9A9500
:101F8000F1F700008111F5CF8091E80085FF0DC0C9
:101F900050E040E063E070E08AED91E00E94570B72
:101FA0008091E8008E778093E8000895BC0183E07B
:101FB0000C94AC0FBC0184E00C94AC0FCF93682F51
:101FC000C92F84E090E00E94712A6C2F82E290E099
:101FD000CF910C94712A9091130392FB222720F940
:101FE000281769F080FB92F99093130380911203F4
:101FF000909113030E94DE0F82E00C945F0A089513
:102000004F925F926F927F928F929F92AF92BF9208
:10201000CF92DF92EF92FF920F931F93CF93DF93B4
:1020200010E000E034EB632E712CE801CC0FDD1FD3
:1020300058011CC0F60185909490692DC7010E943B
:10204000712A682DC70101960E94712A22E0C20EF2
:10205000D11C32E0E30EF11C4E145F0459F76E966A
:102060008FE0A80EB11CC615D70581F0C501880FF9
:10207000991F9C012B593D4F69017E0138E2E30E07
:10208000F11C2E0186E4480E511CD4CF3E0124EBF6
:10209000620E711C065A1F4F083631E0130729F6ED
:1020A000DF91CF911F910F91FF90EF90DF90CF9034
:1020B000BF90AF909F908F907F906F905F904F9068
:1020C0000895CF93C82F6FEF811162E283E290E011
:1020D0000E94712A6FEFC11163E084E290E00E94D8
:1020E000712A6FEFC11169E085E290E0CF910C9405
:1020F000712ACF93DF93C8EFD2E060E0CE010E9457
:10210000712A2196C11584E0D807B9F7DF91CF91E4
:10211000089580E00E94611060E087E290E00E94F4
:10212000712A60E086E290E00E94712A0E9400100D
:102130000E94791081E00C946110CF9384E090E0CC
:102140000E945D2AC82F82E290E00E945D2A982FAB
:102150008C2FCF91089583E290E00E945D2A823215
:1021600089F484E290E00E945D2A833059F485E28C
:1021700090E00E945D2A91E0893009F090E0892F7B
:102180008170089580E0FCCF0F931F93CF93DF936E
:10219000C42FD0E0CC0FDD1F2EE1629FC00DD11DFA
:1021A000112434EB839FC00DD11D1124CE018896DC
:1021B0000E945D2A082F10E0102F0027CE0189967B
:1021C0000E945D2A9801282BC901DF91CF911F91B0
:1021D0000F910895462F672F843030F4763020F425
:1021E0004F3010F40C94C41090E080E00895DF921A
:1021F000EF92FF920F931F93CF93DF937C01009197
:10220000100380910F03082BC7E0D0E010E0DC2E14
:10221000C8010C2E02C0959587950A94E2F780FDBF
:102220000CC02197A0F7D12C8D2DDF91CF911F915C
:102230000F91FF90EF90DF900895B7018C2F0E94CF
:10224000EA100E948405019761F3EECF0F931F936C
:10225000CF93FC01828100811181882389F066235C
:1022600079F0C8010E94F710C82F682FC8010E949A
:102270004F04B8018C2FCF911F910F910C94EA104D
:10228000C8010E947D04C82FF4CFCF93DF93D82FCD
:10229000C92F0E94F7106D2F7C2F0E94EA10DF914A
:1022A000CF910C9484050E944511282F892F8F709F
:1022B000392F32953F70903C80F43A30B0F434308E
:1022C00020F4323090F480E008953630E1F781E078
:1022D000283E88F0213FB9F70EC03C3011F03F3066
:1022E00091F7869586958695089581E0203F39F08F
:1022F00018F4283E40F70895243F29F7FCCF0895AD
:1023000010920D0380912401EEEAF1E0882359F048
:102310008091120387FF07C08EE1DF011D928A952D
:10232000E9F70C94230A86E0F8CF1F93CF93DF934D
:10233000CDB7DEB7AA970FB6F894DEBF0FBECDBFFC
:1023400082ED91E0FC0101962091F100208321E0D3
:102350008A3D9207B9F78091D301893009F456C0BC
:10236000C8F4823009F4B3C0833009F482C08130EC
:1023700071F18091E80083FF84C28091D201909135
:10238000D3019A3008F07DC2E92FF0E0E65EF44D0B
:102390000C9487288A3009F489C08B3051F78091DA
:1023A000D201813231F78091D6019091D701892BEA
:1023B00001F78091E800877F8093E8000E94E80A97
:1023C0008091D401809324010E948011D2CF80910A
:1023D000D201813A71F68091E800877F8093E8000E
:1023E0008091D6019091D701892B61F460E28DED47
:1023F00091E070E00E948E0A8091E8008B778093D4
:10240000E800B7CF60E090E080E0F3CF8091D201A8
:10241000813209F0AECF8091D6019091D7018D7FA6
:10242000892B09F0A6CF8091E800877F8093E80090
:102430008091E80082FF18C09091F3008091F20033
:10244000029731F48091F100813011F0863021F44F
:102450008091F1008093FD018091E8008B7780935B
:10246000E8000E94E80A85CF8091B6028111E0CF92
:1024700080CF8091D201813A09F07BCF8091D60143
:102480009091D701892B09F074CF8091E800877F64
:102490008093E8008091E80080FFFCCF80912401C8
:1024A0008093F1008091E8008E77D9CF8091D2019E
:1024B000813209F05ECF8091E800877F8093E80049
:1024C0000E94E80A8091D5018093CE0152CF80917D
:1024D000D201813A09F04DCF8091E800877F809347
:1024E000E8008091E80080FFFCCF8091CE01D8CF3A
:1024F000803899F0823809F0C4C18091D6018F707C
:10250000873008F0BEC18093E9008091EB0085FB25
:10251000882780F91092E90006C08091CF01909140
:102520009902911182609091E800977F9093E80062
:102530008093F1001092F1008091E8008E779DC1A8
:10254000882309F48BC1823009F09BC18091D401AA
:1025500081118EC18091D6018F702FEF280F263008
:1025600008F08FC18093E9002091EB0020FF80C12B
:10257000933031F48091EB0080628093EB0078C15E
:102580009091EB0090619093EB0021E030E001C06E
:10259000220F8A95EAF72093EA001092EA008091D0
:1025A000EB008860EACF81116CC11091D4011F77D4
:1025B0008091E3008078812B8093E3008091E80094
:1025C000877F8093E8000E94E80A8091E80080FFFE
:1025D000FCCF8091E30080688093E30082E01111DA
:1025E00083E08093B6024DC18058823008F049C123
:1025F0004091D4015091D5014C3D83E0580799F5A5
:1026000083E08A838AE289834FB7F894DE011396C8
:1026100020E03EE051E2E32FF0E050935700849138
:1026200020FF03C082958F703F5F8F708A30C8F0A3
:10263000895C90E08D939D932F5F243161F74FBFAC
:102640008091E800877F8093E8006AE270E0CE0125
:1026500001960E948E0A8091E8008B778093E800B3
:1026600010C1805DE6CF8091D6019091D701252FD2
:1026700033272330310509F44AC078F5213031057C
:1026800009F479C08BE590E0E4ECF1E0223031050B
:1026900009F0F7C02091E800277F2093E8002091FF
:1026A000D8013091D9018217930708F49C0140E0CA
:1026B0002115310509F064C0411162C08091E80024
:1026C00082FDC9CF8091B602882329F2853019F2A4
:1026D0008091E80083FFF2CFBECF2132310509F4AB
:1026E0003BC02232310509F0CCC08330910508F09F
:1026F000C8C0FC01EE0FFF1FE45DFE4F0190F081AA
:10270000E02D875D9E4FDC018C9190E011C0CA01E5
:102710009927413089F082309105B1F0892B09F079
:10272000B0C0E1E6F2E0E4918E2F90E0E1E6F2E065
:10273000009709F4A6C0AECFEFE4F2E0E4918E2F4B
:1027400090E0EFE4F2E0F4CFE1E3F2E0E4918E2FE9
:1027500090E0E1E3F2E0ECCF8330910508F091C026
:10276000880F991FFC01EE5CFE4F0190F081E02D77
:1027700089E090E08FCF82E190E0EFE1F2E08ACF54
:102780008091B602882309F466CF853009F463CFBF
:102790008091E80083FD5FCF8091E80082FD8ECFBD
:1027A0008091E80080FF84CF9091F3008091F20047
:1027B0002115310519F08830910550F041E0089756
:1027C00009F040E08091E8008E778093E80070CFB8
:1027D00044914093F1003196215031090196E8CFA0
:1027E000803809F04EC08091E800877F8093E80030
:1027F0008091D0018093F1009FCE811142C0109151
:10280000D4011230F0F58091E800877F8093E800D2
:102810001093D0010E94E80A112311F084E005C052
:102820008091E30087FDFACF81E08093B60242E019
:1028300061EC81E00E948C0B42E261EC84E00E943A
:102840008C0B42E261EC82E00E948C0B42E260EC75
:1028500083E00E948C0B8091B60213C08091D4015A
:10286000813079F481E0933009F080E0809399021F
:102870001092E9008091E800877F8093E8000E9431
:10288000E80A8091E80083FF0AC08091E800877F12
:102890008093E8008091EB0080628093EB00AA9621
:1028A0000FB6F894DEBF0FBECDBFDF91CF911F9161
:1028B00008950F931F93CF93DF938B01D82FC92FC8
:1028C0000E94CE08A8016D2F7C2F88E090E0DF9158
:1028D000CF911F910F910C94832AE8E0F3E08DE0F3
:1028E000808311828FEF828383838FE084836DE006
:1028F00070E08FEF9FEF0C945914CF93DF9300D0CB
:1029000000D0CDB7DEB780910C03833018F48F5F11
:1029100080930C038091080390910903A0910A030E
:10292000B0910B0389839A83AB83BC83BC01CD0137
:102930000F900F900F900F90DF91CF910C9459143E
:10294000CF93DF9300D000D0CDB7DEB780910C03DA
:10295000882319F0815080930C0380910803909193
:102960000903A0910A03B0910B0389839A83AB8377
:10297000BC83BC01CD010F900F900F900F90DF91A1
:10298000CF910C9459145F926F927F928F929F9285
:10299000AF92BF92CF92DF92EF92FF920F931F936D
:1029A000CF93DF9300D000D000D00F92CDB7DEB729
:1029B000182F762E042F622E9091080390FF83C06B
:1029C000E92FE695AE2FB0E0A85CBE4F8C918093C6
:1029D00006039E7F9230C9F59E012F5F3F4F812FE6
:1029E0000E942D084B8169818A810E94920E10936A
:1029F000090370920A0300930B03662009F463C075
:102A00008091080390910903A0910A03B0910B03F0
:102A10008C839D83AE83BF83BC01CD0127960FB607
:102A2000F894DEBF0FBECDBFDF91CF911F910F9104
:102A3000FF90EF90DF90CF90BF90AF909F908F90DE
:102A40007F906F905F900C945914823019F400912C
:102A50000B03CDCF863019F410910903C8CF89300C
:102A6000D9F3893121F6E9518E2F8170582EE695E0
:102A7000F0E0EB5CF94FA590B490BB248FE5E82E15
:102A800082E0F82ED12CC12C92E1892E912CC60126
:102A9000B4010E945F28812F511013C0860F970147
:102AA000402F672D0E942D08CA0CDB1C93E0E90E15
:102AB000F11CA5E9EA16A2E0FA0649F70E94A00C6B
:102AC00096CF861BECCF27960FB6F894DEBF0FBECD
:102AD000CDBFDF91CF911F910F91FF90EF90DF90CD
:102AE000CF90BF90AF909F908F907F906F905F90AE
:102AF0000895E8E0F3E0818121E043816281865F0F
:102B00000C94C314E8E0F3E0818121E04381628109
:102B10008A500C94C314E8E0F3E062812AE0620F6B
:102B200008F46FEF21E0438181810C94C314E8E045
:102B3000F3E062812AE0621B08F460E021E0438157
:102B400081810C94C314E8E0F3E043812AE0420F52
:102B500008F44FEF21E0628181810C94C314E8E016
:102B6000F3E043812AE0421B08F440E021E0628167
:102B700081810C94C31469EE7EEF90E080E00E94A6
:102B80008F2A60E082E090E00E94712A60E083E09A
:102B900090E00E94712A10920F0360E084E090E0C0
:102BA0000E94712A60E082E290E00E94712A60E057
:102BB00085E090E00E94712A60E086E090E00E944B
:102BC000712A6FEF87E090E00E94712A40E050E0A8
:102BD000BA0188E090E00E94832A60E08DE090E0F6
:102BE0000E94712A40E050E0BA0188E190E00E9422
:102BF000832A60E087E190E00E94712A40E050E083
:102C0000BA018CE190E00E94832A70E060E080E2EB
:102C100090E00E948F2A40E050E0BA0188E190E005
:102C20000E94832A80E00E9461100E94891040E087
:102C300050E0BA018FE090E00E94832A40E050E02B
:102C4000BA0183E190E00C94832A90E080E00E9436
:102C50006B2A893E9E4F11F40C94AB1080E00895CE
:102C60002F923F924F925F926F927F928F929F929C
:102C7000AF92BF92CF92DF92EF92FF920F931F938A
:102C8000CF93DF93CDB7DEB72C970FB6F894DEBFA6
:102C90000FBECDBFFE0131968CE0DF011D928A95FB
:102CA000E9F763E6E62E61E0F62E8F013F01AA24E4
:102CB000A394B12CE8E78E2EE1E09E2EF7018191DE
:102CC0007F018F3F09F445C0F894E82FE295EF703B
:102CD000F0E021A18F70A50102C0440F551F8A9515
:102CE000E2F7CA01922F982B91A392A18095892394
:102CF00082A3789400C0E9E6F1E021E030E0D12C35
:102D0000C12C41914F3F09F4A7C0A42FA295AF70E9
:102D1000A05EB0E08C9190E04F7002C095958795D1
:102D20004A95E2F780FD98C0C901C82AD92A220F26
:102D3000331F8E169F0629F7F701319780818F3F49
:102D400011F00E940F0750EA5A95F1F7D801CD9281
:102D5000DC920E5F1F4FB9E6EB16B1E0FB0609F0FF
:102D6000ADCF4CE050E0B30188EC92E00E94502AD5
:102D70008C01FF24F394892B09F4F12C0115110522
:102D800041F08CE0F301A8ECB2E001900D928A953D
:102D9000E1F75090BB02552009F46BC00E94500926
:102DA0009C018091B9029091BA02F901E81BF90BDC
:102DB000CF013093BA022093B902EF3FF10511F031
:102DC00008F04DC0EF2B09F444C0E82E1092BB026E
:102DD0002091B7023091B802ECEBF2E068EC72E0BF
:102DE00039014AE5640E711C412C88248394912C8E
:102DF000190150E040E0D101DD901D01DD20D1F04E
:102E0000CD010197ED1470F1DC011C92C080D180DE
:102E1000DB018D919C918C259D255401042E02C0CF
:102E2000AA0CBB1C0A94E2F78A219B218C259D25C4
:102E3000918380834F5F5F4F4F305105E1F6215FF3
:102E40003F4F32966E5F7F4F6216730689F640924F
:102E5000BB02012BB1F44DC080E090E066CF8FEF54
:102E600090E0B3CFDE18DC01DC92452CE3CF10827A
:102E700033C0012BF1F10E9450099093BA02809364
:102E8000B9022091B7023091B8026091BB02A8EC60
:102E9000B2E08CEBC82E82E0D82EAA24A394B12CE9
:102EA00075E04D915D91F601819191916F014827F7
:102EB0005927F90190E080E08501082E02C0000F3B
:102EC000111F0A94E2F704231523012B81F21081CC
:102ED000111102C0708361E0319601968F30910527
:102EE00059F7215F3F4FF2E0A43DBF07D1F6609351
:102EF000BB028F2D2C960FB6F894DEBF0FBECDBF50
:102F0000DF91CF911F910F91FF90EF90DF90CF90C5
:102F1000BF90AF909F908F907F906F905F904F90F9
:102F20003F902F9008954F925F926F927F928F9271
:102F30009F92AF92BF92CF92DF92EF92FF920F9348
:102F40001F93CF93DF93FC016280448081E08483F0
:102F5000E5E3F5E07490E4EBF5E0E491C2E0D2E063
:102F60009FE5E92E92E0F92E2CE5C22E22E0D22E2A
:102F700032E0A32EBB24B39488248A94912C552448
:102F80005A94E7190E2F10E082E0861530F08091F8
:102F90000903888380910A038983411021C01B8221
:102FA0001A8297014A81698188810E942D0825969D
:102FB00083E0E80EF11CCC16DD0631F7DF91CF91EE
:102FC0001F910F91FF90EF90DF90CF90BF90AF9047
:102FD0009F908F907F906F905F904F900C94A00C7B
:102FE0008B818823E9F081508B83859DC00111245A
:102FF0006C8170E00E945F28FB01FF27EB5CFA4FB9
:103000008491E82FE719E59DC0011124B8010E94C1
:103010005F2880910B03689FB00111247A83C1CF90
:103020000E940B29AC0190910B03969591589A9DA3
:1030300090019B9D300D1124232F332742175307F6
:103040000CF0AFCF82E0861588F40E940B29B40102
:103050000E94732888830E940B2920910A032695D9
:10306000622F70E00E947328280F29831A828091B2
:103070000B03893C20F088EC8C838B8392CF8431C6
:10308000D8F784E1F9CF60910803669570E04BE0D2
:1030900050E08DE091E00E94432A892B19F481E0F1
:1030A000809307030E94500990939B0280939A0299
:1030B0000895CF93DF9300D000D0CDB7DEB79091C5
:1030C000080390FF45C08823E1F18B32E0F58F774C
:1030D000880F909108039170892B809308036623D1
:1030E00081F08091080390910903A0910A03B091A7
:1030F0000B0389839A83AB83BC83BC01CD010E94FF
:10310000591460910803669570E04BE050E08DE043
:1031100091E00E94432A892BC1F01092070381E0BD
:1031200080939D0220E040910B0360910A038091FF
:1031300009030F900F900F900F90DF91CF910C9497
:10314000C31481E0C5CF8AE2C3CF0E944318E7CF02
:103150000F900F900F900F90DF91CF910895809175
:10316000080386958F5F8B3208F081E061E00C9454
:1031700059189091080396958FEF890F913009F4B3
:103180008AE261E00C9459189091080390FF07C0FF
:103190009695981720F0961710F40C94AF1861E0EC
:1031A0000C9459183F924F925F926F927F928F9238
:1031B0009F92AF92BF92CF92DF92EF92FF920F93C6
:1031C0001F93CF93DF93CDB7DEB728970FB6F89450
:1031D000DEBF0FBECDBF7C01DC019C9111968C91AE
:1031E000119713962D913C91232B21F089238F3F2A
:1031F00009F09EC528960FB6F894DEBF0FBECDBF6E
:10320000DF91CF911F910F91FF90EF90DF90CF90C2
:10321000BF90AF909F908F907F906F905F904F90F6
:103220003F900895980122513F452031310508F023
:103230002CC58FEF93E00E945D2A025148EF842E47
:1032400042E0942E8823A1F180911103877091F2BE
:10325000D70112968C91882369F28091130382FD25
:10326000C9CF82E028960FB6F894DEBF0FBECDBF5F
:10327000DF91CF911F910F91FF90EF90DF90CF9052
:10328000BF90AF909F908F907F906F905F904F9086
:103290003F900C945F0A8114B4E09B06A9F2C4012C
:1032A0000E945D2A811101C00150EFEF8E1A9E0A23
:1032B0000111F1CF8091250190912601A091270164
:1032C000B091280189839A83AB83BC8344244394BF
:1032D0003AE0332E84010F5F1F4FC4010E945D2A24
:1032E00089831A82882309F4AFCF9FEF980F933018
:1032F00010F58A834982F2E08F0E911CC8010E946A
:103300005D2A8B83882309F49FCF8E010F5F1F4FA7
:10331000D8012C912223F1F211969C911197213022
:1033200009F045C012968C91913039F40E5F1F4F11
:103330000E941D0C08C04801E8CF923039F40E5F9E
:103340001F4F0E9482090F5F1F4FE2CF933029F475
:103350000E5F1F4F0E94F409F6CF943019F00F5FF3
:103360001F4FF1CF0E5F1F4F20E030E0B8016F5FBD
:103370007F4FF80141818053990B8A30910560F0AD
:103380002115310501F38FE99FE00197F1F700C0A6
:10339000000021503109F4CF329EF001339EF00D30
:1033A00011249C012E0F3F1F842F8B01DFCFE22FB2
:1033B000F0E0E158F84F5490822F869586958695D7
:1033C00090E0FC01E159F84FE4912770F0E0022E03
:1033D00002C0F595E7950A94E2F73F01A1E06A2261
:1033E0007724FC01E15AF84FA490B12C022E02C0C0
:1033F000B594A7940A94E2F7B1E0AB22BB24FC0198
:10340000E15BF84FC490D12C02C0D594C7942A95A3
:10341000E2F7E1E0CE22DD246114710419F081EEBF
:103420000E948209A114B10419F086EE0E9482095B
:10343000852D0E941D0CAB2819F086EE0E94F40920
:10344000672819F081EE0E94F409CD2809F47BCF9A
:103450008CE26ECF81E00E94480A0E94810BF4CE7C
:1034600081E00E94530AF9CF82E0F5CF053FBCE529
:103470001B07D1F027E245EE66EE063FECE51E079E
:1034800041F027E245EE64EE043FFCE51F0709F03A
:1034900021C40E943C0CD8CE27E245EE65EEF9CF60
:1034A00026E241EE60EEF5CF26E241EE62EEF1CF8C
:1034B00001368DE5180709F422C480910D0382724C
:1034C000063D2CE5120708F0D0C0023C3CE513078E
:1034D00008F4D6C0F801E35CFC45E331F10508F0DF
:1034E00021C1EC5DF44D0C948728F801E350FC45B4
:1034F000809112038160E331F10528F5E95CF44D18
:103500000C9487280330BDE51B0778F40A3FECE5EF
:103510001E0708F404C4F801EB5FFC45E830F10530
:10352000E8F4E65BF44D0C94872801361D4509F05C
:10353000F6C390911203892F8F7E94FF806103C0A0
:1035400080911203826080931203E9C38091120379
:103550008460F9CF809112038860F5CF80911303C6
:10356000816080931303DBC3809113038260F9CFE2
:10357000809112038061E7CF809112038062E3CFD4
:10358000809112038064DFCF0E948011809112032A
:103590008068D9CF809112038C60D5CF80911303BE
:1035A0008360DFCF809112038E7FCDCF8091120395
:1035B0008D7FC9CF809112038B7FC5CF809112037D
:1035C000877FC1CF809113038E7FCBCF8091130370
:1035D0008D7FC7CF809112038F7EB5CF809112036C
:1035E0008F7DB1CF809112038F7BADCF0E94801170
:1035F000809112038F77A7CF80911203837FA3CF8F
:10360000809113038C7FADCF8091120382FB9927A9
:1036100090F921E0922790FB82F990FB83F993CFF8
:1036200080911303982F909591708E7F892B90FB3A
:1036300081F997CF0E94801190911203892F97FBF7
:1036400087F9805880CF61E08EE090E00E94712A77
:1036500066C360E0F9CF80910503811104C089E25F
:103660000E94B00492C385E3FBCF0D35100709F427
:10367000D7C00A35EDE51E0709F4F7C008F0D3C03E
:1036800001152CE5120709F4E0C00E3D1C4509F4B4
:10369000E9C0F7018281C080D180882309F4E9C0A4
:1036A000C6010E94F710182F682FC6010E944F0410
:1036B000B601812F0E94EA100E9484058C01D70177
:1036C00012969C90129715968C9082942FE08222ED
:1036D000809111038770C1F0C92C9920B1F0812F1E
:1036E000807F803421F080E2800F883068F0809104
:1036F000130382FD09C082E00E945F0A80911103DA
:103700008770CC24C3948111C12C812F82958F7036
:10371000A82EB12C8C3008F01CC1F501EE5AF44DE6
:103720000C9487288091080380FF21C08E7F8093AE
:1037300008038091080390910903A0910A03B091B6
:103740000B038D839E83AF83B887BC01CD010E949C
:103750005914109207039FEFA0E7B2E09150A040E8
:10376000B040E1F700C000000E94A00C6DCD816068
:103770008093080361E086950E94591865CD49EB56
:1037800058E16FEA78E10E94DD085ECD4FEA58E12A
:1037900069EB78E1F8CF42E855E169E775E1F3CFED
:1037A00049E755E162E875E1EECF47E955E16BE89D
:1037B00075E1E9CF4BE855E167E975E1E4CF4FEA00
:1037C00055E163EA75E1DFCF43EA55E16FEA75E160
:1037D000DACF40EA54E16DE774E1D5CF4DE754E12B
:1037E00060EA74E1D0CF61E081E0C6CF65E082E0BD
:1037F0000E94C41829CD68E086E0FACF6EE089E027
:10380000F7CF64E18FE0F4CF67E185E1F1CF61E0CC
:1038100088E1B2CF62E289E1EBCF61E083E2ACCF35
:103820006AE285E2E5CF0B358DE5180701F10C352D
:103830001D4509F02ECF8091130382FB882780F964
:1038400091E089270E94EB0F24CF0E948011AFEFF7
:10385000B4E3ECE0A150B040E040E1F700C000006C
:103860000E94260F0E94BB15EFCC81E0EBCF80E0D9
:10387000E9CFC6010E947D04182F1ACFB12FBF7067
:10388000DB2E107F19F0D29490EFD9229920B9F055
:10389000DD2069F080E2800F883010F0011109C04E
:1038A00080910D038D2980930D030E94EB04802FDE
:1038B0004EC0809114038D2980931403F6CF802F7E
:1038C0000E94F409DD2009F444C080E2800F8830B2
:1038D00010F0011104C08D2D0E94DD0406C0D094AB
:1038E000809114038D21809314030E94EB0431C056
:1038F000E12FEF70DE2E107F103219F0D29480EF9E
:10390000D822002399F0013009F48BC0992009F4E2
:1039100095C0882009F48BC0D70115968C91159716
:1039200080FFC5CF8F7015968C9381C020911303B3
:1039300022FF54C0992009F44AC0DD2039F080915B
:103940000D038D2980930D030E94EB0480E00E94FB
:10395000820938E0A31AB10884E0A816B10420F463
:103960000E94E2080E944904CC20B1F0809111032A
:1039700080FD12C0D70112961C928595859585957C
:103980000E94480AC7010E94D218809111038595B0
:10399000859585950E94530A60E0C70128960FB669
:1039A000F894DEBF0FBECDBFDF91CF911F910F9175
:1039B000FF90EF90DF90CF90BF90AF909F908F904F
:1039C0007F906F905F904F903F900C94261180E015
:1039D0000E94F409DD2009F4BCCF7DCF9920A1F02D
:1039E00090910E038D2D892B811003C00E9430050C
:1039F000B0CFF1E08F12FACF22FDABCF981709F4C8
:103A0000A8CF80930E03A5CF811006C00E94E504C5
:103A10008D2D0E943A059DCF21E0821609F499CFA1
:103A2000F5CF992031F035E0381508F492CF8D2D7F
:103A3000DDCF84E0881508F48CCFEACF882041F3ED
:103A4000093349F4BFEFE7EEF3E0B150E040F04056
:103A5000E1F700C00000802F0E94F4097ACF812F87
:103A600086958695837061F0813009F072CFC80128
:103A70009370911002C090E080E00E94040969CF29
:103A8000C8019370911002C090E080E00E94EE089F
:103A900060CF802F992029F00E946B070E945C095B
:103AA00058CF0E94B407FACF812F8370A1F59110EF
:103AB00050CF802F829586958770880F880F402F72
:103AC0004F70082E01C0440F0A94EAF7202F20718E
:103AD00004FF07C02FE030E001C0220F8A95EAF70B
:103AE0002095169516951370123081F0822F842B35
:103AF000133031F080910F03113029F0242B8223F1
:103B00000E94400A26CF842B822BFACF242B80914F
:103B10000F038227F5CF992061F110FF1ACF802F74
:103B2000829586958770880F880F402F4F70082EDA
:103B300001C0440F0A94EAF7202F207104FF07C048
:103B40002FE030E001C0220F8A95EAF72095169504
:103B500016951370123099F0822F842B133031F0A8
:103B600080911003113041F0242B82230E94440ADB
:103B7000F0CE11FFEECED3CF842B822BF7CF242BA8
:103B8000809110038227F2CF1F70992029F0812F96
:103B90000E94480A802F2ACF802F0E943A05812F49
:103BA0000E94530AD6CE023F81F160F4003FB9F083
:103BB000013F81F0992009F458C0811078CE812FFF
:103BC0008F7127C0033F41F1043FA1F78091130398
:103BD00082FF2DC0812F8F71992011F31AC0992077
:103BE00079F024E0281508F4B4CE1F7181E090E04C
:103BF00001C0880F1A95EAF7909110038927B6CF74
:103C000035E0381508F4A5CEF0CF812F8F719110D3
:103C1000C7CF0E94480A9DCE80E0992009F4A6CF24
:103C20001F7181E001C0880F1A95EAF79FCF992094
:103C300089F01F71812F0E94480A8091130382FD31
:103C400007C0A8E01A9FC00111248360809311036C
:103C5000812FDFCF81E00E945F0AB1E0B81508F044
:103C600078CE82E00E945F0A74CE882059F0093332
:103C700009F0F1CEEFEFF7EE23E0E150F040204005
:103C8000E1F7E7CE812F8F718BCF0031BFE51B07A6
:103C900009F4E0CB0131EFE51E0709F4E5CB033F62
:103CA000FCE51F0709F4FCCB08F0E0CB083D3CE540
:103CB000130709F4F1CB28E241E0093D9CE519071F
:103CC00009F4ECCB26E241EE61EE073DACE51A07C4
:103CD00009F4DFCB882309F441C0109204030330B8
:103CE0002DE5120708F0E4CB0A3F3CE5130738F452
:103CF000980122503C452431310508F049C00E940A
:103D00009D10909313038093120306319CE51907CD
:103D100008F0F8CB0230ACE51A0708F0E6CB80914A
:103D20001203909113030E94DE0F0E9480118CCA2F
:103D300061E0C7010E9426118C01D70112968C9177
:103D4000811170CA0031FFE51F0709F489CB0131E9
:103D50002FE5120709F0A3CF82E083CB06311C4583
:103D600009F097CC90910D03882309F474CC892F26
:103D70008A7A91E009F490E09093050369E2811159
:103D800065E38CEA91E00E941A090E94EB045CCA88
:103D90000631ECE51E0731F390CB1F93CF93DF93F1
:103DA00080914C03807FA9F480914903882389F096
:103DB00080911603C09115037091470360914803E9
:103DC000A0914A03B0914B03D62FD72316E0C81316
:103DD00004C0DF91CF911F91089590E0109711F0EA
:103DE000DF3F19F401968770F2CF189F9001199F59
:103DF000300D1124F901E95EFC4F41816413F2CFCB
:103E000040814713EFCF42814111ECCF4381548170
:103E10004A1B5B0B483C510528F780914C038F707F
:103E2000806180934C03F901E45EFC4F80818F70C8
:103E30008061808387E493E00E94D218DF91CF9164
:103E40001F910C94A6048F929F92AF92BF92DF9223
:103E5000EF92FF920F931F93CF93DF93CDB7DEB70F
:103E60002B970FB6F894DEBF0FBECDBF8C0185E057
:103E7000F801DE01179601900D928A95E1F7F8019D
:103E8000E280A380B48087E4882E83E0982E90910E
:103E900047038091480320914A0330914B03211539
:103EA000310529F0482F49234F3F09F028C1EE2062
:103EB00009F433C1F801808191810E945311F82ED9
:103EC000882309F42AC186E0F801A7E4B3E0019051
:103ED0000D928A95E1F70E94CD1E21C0D0904C032F
:103EE0004D2D407F283C310508F0A8C0F801218104
:103EF0004111C3C0FE2C281325C08081891322C024
:103F0000E11020C08D2D8F70806180934C0387E479
:103F100093E00E94D21880914C03F80185838F2D85
:103F20002B960FB6F894DEBF0FBECDBFDF91CF91B9
:103F30001F910F91FF90EF90DF90BF90AF909F90F7
:103F40008F9008953F81AB2829F0822F83238F3FE4
:103F500009F090C080E0F82FF170DF2EE091160399
:103F60004091150356E080FD1CC0EE20C1F2809107
:103F70004C03816080934C03F12CD1CF8E2F90E0C5
:103F80005E9FF0011124E95EFC4F6181261306C09B
:103F90006081361303C06281E612E7CF0196E82FF5
:103FA000E770E413EBCF8F8198850E944511292F8C
:103FB00022952F70903260F0225F2F70223078F4BB
:103FC0009F7051F0F8019581907F31F4D12C0AC097
:103FD0009F7011F08823D1F3805E8830B8F3C80158
:103FE0000E94D218FD2C9BCFF801808191810E9404
:103FF0005311882309F491C0EE2009F48EC08091FA
:104000004C03803270F080914703909148039A836B
:1040100089831B82BD82AC82DE82CE0101960E9422
:10402000D21886E0F801A7E4B3E001900D928A95DA
:10403000E1F70E94CD1EFF24F39471CF411132C0ED
:1040400087E493E00E94D21886E0F40111928A95E9
:10405000E9F792CFF801808191810E94531181117B
:10406000E0CF80914C03816080934C03C8010E9493
:10407000D21855CF81E08E256ECF2813B5CFF80129
:1040800080818913B1CFE110AFCFD582C8010E94E2
:10409000D21886E0F801A7E4B3E001900D928A956A
:1040A000E1F73DCFF801218182139ECFF801808195
:1040B00089139ACFE11098CFD582C8010E94D218F7
:1040C00086E0F40111928A95E9F729CFF801218160
:1040D0008213C0CFF80180818913BCCF80914C033B
:1040E00080FDD7CF982F907FA1F28583903F71F20A
:1040F000982F907F905F8F70892B8583C7CFF0902A
:104100004903A501421B530B9A01F110E7CE283C4D
:104110003105B0F6FE2CE110D9CFC8010E94D218AB
:104120008ACF1F93CF93DF93CDB7DEB767970FB6D4
:10413000F894DEBF0FBECDBF342F4B8B252F5C8B89
:10414000962F6D8B7E8B8F8B4E895F8961111092BC
:1041500014031A8A3D872E879F87598B488B86E0E8
:10416000FE013D96DE01179601900D928A95E1F7CA
:10417000CE0107960E94231F882389F016E08091C4
:10418000160390911503891349C067960FB6F894EA
:10419000DEBF0FBECDBFDF91CF911F91089586E0A6
:1041A000FE013796DE01119601900D928A95E1F796
:1041B0009F81888520911503409116036A857B8530
:1041C000672BE1F289238F3FC9F230E0C9010196E4
:1041D000877099274817190671F40E948011109270
:1041E00015031092160386E0E7E4F3E0DF011D9269
:1041F0008A95E9F7C3CF96E0929FD001939FB00DC7
:104200001124A95EBC4FFE01319601900D929A9542
:10421000E1F7809315030E94A604B0CF819FC001EF
:104220001124895E9C4F0E94231F882309F4ADCF7F
:104230008091160390E0019687709927809316036A
:104240009ECFCDB7DEB7A6970FB6F894DEBF0FBEF0
:10425000CDBF84B7877F84BF0FB6F894A8958091AF
:104260006000886180936000109260000FBE80E85B
:1042700090E00FB6F89480936100909361000FBEB8
:1042800085B7806885BF85B7806885BF8DE097E07A
:104290009093A7018093A6010E94380B0E94BC0B4B
:1042A0008091E20084608093E20078948091B6026D
:1042B000882399F08091E9001091EC00179511275F
:1042C00017958F70182B1092E9008091E80083FDFC
:1042D0000E9495111F701093E90082E084BD93E065
:1042E00095BD9AEF97BD80936E000E94AB1081112F
:1042F00002C00E94891003E611E099E6E92E91E0E0
:10430000F92ED8018D918D018F3F11F00E940F077A
:10431000E016F106B1F709E611E088E7E82E81E042
:10432000F82EF80181918F018F3F11F00E940F0745
:10433000E016F106B1F78CE0ECEBF2E0DF01282F9C
:104340001D922A95E9F7E8ECF2E0DF011D928A95CB
:10435000E9F78AE590E00E941B29FC019093B802DE
:104360008093B7028AE5DF011D928A95E9F70E94E2
:104370002516811102C00E94BB1582E090E00E94C8
:104380005D2A8093A5020E949D1090931303809351
:1043900012030E943016EFE3FCE93197F1F700C0F9
:1043A00000000E9430168091BC0280FF08C06FEFB1
:1043B0007FEF90E080E00E948F2A0E94260F83E02A
:1043C00090E00E945D2A0E94400A3E9A46988091A1
:1043D0009502811133C00E942516811104C00E94EC
:1043E000BB150E946D1488E090E00E94652A6093DE
:1043F00008037093090380930A0390930B036E7F65
:1044000071F40E946D1488E090E00E94652A609328
:1044100008037093090380930A0390930B030E948F
:10442000CE08109207038091080380FF04C060E06B
:1044300086950E94591881E080939502809112031D
:1044400080688093120380911203909113030E945D
:10445000DE0F88E191E09093D5028093D40210E4BE
:10446000212E08EC802E02E0902E8091B602FF24CF
:10447000F39400E112E1853009F403C20E94301682
:10448000882359F08FB7F8944091B2025091B3024B
:104490006091B4027091B5028FBF8CEB92E09AA349
:1044A00089A3B6EACB2EB2E0DB2E9EA38DA310E04B
:1044B00000E0EDA1FEA1A190B190FEA3EDA3D60175
:1044C0004D905D906D014A145B04A9F14A245B2470
:1044D000312CEE24E394F12C3601B2E06B1A710812
:1044E000C2018E219F21892B01F139820A8321E0AB
:1044F000C5018E219F21892B09F420E02B830E9486
:1045000050098160782F9D838C8349815A816B810A
:10451000892F0E949120F301808191818E259F2512
:10452000918380831F5F1C30E0F43394EE0CFF1CFA
:10453000FFE03F12D5CF0F5F063009F0BACF11115F
:1045400010C08FEF89838A831B820E94500981608B
:10455000782F9D838C8349815A816B81892F0E949A
:104560009120809107038823C1F180910603E09197
:104570000803E695E81BE0939C02823009F09EC197
:10458000F0E0E55BF84FE491EE2EF12C02E01FE045
:1045900080919D02882361F010929D020E94500933
:1045A00090939B0280939A0210929F0210929E0217
:1045B0000E94500920919A0230919B02821B930B1A
:1045C0008F3F9F4750F42E0D3F1D30939B02209349
:1045D0009A028AE992E0F801099586E0EEEFF2E0AE
:1045E000DE01119601900D928A95E1F7C0900003CB
:1045F000D0900103E0900203F090030310920003B7
:104600001092010310920203109203038C2D8D2946
:1046100009F448C08091A2029091A3020E947B0AF3
:104620009C018091FD02882309F4BEC32333310528
:10463000C8F18F3F19F08F5F8093FD02CC2059F0B5
:104640000E9429079FEF1C140CF491E0899F802D94
:10465000112480930003DD2059F00E9429079FEF69
:104660001D140CF491E0899F802D11248093010387
:10467000309100033323B1F020910103222391F004
:1046800045EB3403C0011124992309F479C19093B7
:10469000000355EB250390011124332309F474C161
:1046A000309301038E2D8F2909F448C08091A00218
:1046B0009091A1020E947B0A9C018091FC028823B8
:1046C00009F46DC325363105C8F18F3F19F08F5FAE
:1046D0008093FC02EE2059F00E9449079FEF1E14C0
:1046E0000CF491E0899F802D112480930203FF2018
:1046F00059F00E9449079FEF1F140CF491E0899F25
:10470000802D112480930303309102032091030331
:104710003323A1F0222391F045EB3403C00111248F
:10472000992309F435C19093020355EB25039001B9
:104730001124332309F430C1309303038091000323
:1047400090910103892B90910203892B909103038F
:10475000892B11F00E945C0986E0FE013196AEEFD4
:10476000B2E001900D928A95E1F70E94E2089091E3
:10477000A402891731F00E94E2088093A4020E94EB
:1047800049048091B602843009F06FCE83E08093B3
:10479000E9008091E80082FF68CE8091E80090E017
:1047A00085FF06C00E94070B882309F4F9C091E039
:1047B0008091E8008B778093E800992309F455CE27
:1047C000E981E150E33108F09DC1F0E0E25AF44D97
:1047D0000C9487288091B602843009F442C080E0AE
:1047E0000E9449041092070380919802811116C01B
:1047F000F092980280910803982F917090939702FD
:104800008E7F80930803FFEF20E732E0F1502040D5
:104810003040E1F700C000000E94A00C1092960208
:1048200048E150E00FB6F894A895409360000FBEA1
:104830002092600083B7817F846083BF83B78160EB
:1048400083BF7894889583B78E7F83BF0FB6F89423
:10485000A89580916000886180936000109260004C
:104860000FBE80919902882361F00E943016ECEB14
:10487000F2E081919191892B09F07BC28E169F06FF
:10488000C1F78091B602853009F4A4CF0E9480114F
:104890000E94E2080E9449041092980280919702B7
:1048A000882349F08091080381608093080360E0C9
:1048B00086950E9459180E944318E0CD78E2E72EB1
:1048C000F12C06EB1DE0883109F462CED0F48F3074
:1048D00009F43EC058F4863041F1893079F1E0EDB9
:1048E000EE2EE7E0FE2E08E217E052CE8531B9F752
:1048F000F0E0E15CF84FE491EE2EF12C08E61DE0CB
:1049000047CE64EFE62EFF24F3940AE51EE08432DE
:1049100009F43ECE853231F1833209F7EDE3F7E059
:10492000E590F49003EA1EE033CEF0E0E85BF84F48
:10493000E491EE2EF12C06E11FE02ACEE695F0E0A0
:10494000EB5BF84FE491EE2EF12C05ED1CE020CE50
:10495000E695F0E0EE5BF84FE491EE2EF12C0FEFD0
:104960001CE016CE8E2F63E00E944528E92FF0E070
:10497000E65CF84FE491EE2EF12C03E917E108CE46
:1049800081E08093000385CE81E0809301038ACE8D
:1049900081E080930203C9CE81E080930303CECEF1
:1049A00050E2C52ED12CCE0101967C018091E80009
:1049B00085FD0AC08091E8008B778093E8000E9413
:1049C000070B882399F3F3CE8091F100D7018D93E3
:1049D0007D01B1E0CB1AD10849F7E9CE1A8289E00E
:1049E0008B833AC08A81823001F1833009F45AC046
:1049F000813009F087C08FB7F8942091B2023091CE
:104A0000B3024091B4025091B50229A33AA34BA33B
:104A10005CA38FBF69A17AA18BA19CA10E948D2864
:104A20006B837C838D839E8317C086E290E00E9417
:104A30005D2A90E0B0E0A0E0CC24D82EE92EFA2E3A
:104A400087E290E00E945D2A1B821C82C82ADC2437
:104A5000CD24DC24DE82CD828091B602843009F040
:104A600004CD1091E9008091EC001F708795882794
:104A70008795182B82E08093E9008091E80080FF01
:104A80000DC050E040E060E270E0CE0101960E946F
:104A9000570B8091E8008E778093E8001F70109389
:104AA000E900E3CCFE013196A9A1BAA18C9111963F
:104AB0009C9111971296BAA3A9A3928383833296ED
:104AC0008A169B0689F7C8CF8A818230D9F42B8158
:104AD0003C814D815E8129A33AA34BA35CA3CA010B
:104AE000B9010E948D286B017C0187E290E00E9451
:104AF000712A99278F2D7E2D6D2D86E290E00E94E0
:104B0000712AAACF8FEF8983A7CF4C816B818A81CD
:104B10000E94C4109827892798279E838D839CCF55
:104B2000ED80FE80FE24EF24FE248A810B813EE18D
:104B3000039F8001112444EB849F000D111D11245B
:104B40008C8190E0880F991F080F191F6F2DC801E5
:104B500088960E94712A6E2DC8018996D0CF0E9436
:104B600000107ACF8A818238D1F1F8F4803831F19F
:104B7000813809F071CF60E08B810E9459189B81C8
:104B800080910803911123C08E7F809308031092B7
:104B900007035FEF80E792E0515080409040E1F7DB
:104BA00000C000000E94A00C57CF833809F054CFFA
:104BB00020E040910B036C818B8106C020E04B818B
:104BC00060910A03809109030E94C31445CF81605C
:104BD0008093080360E086950E9459183DCF8B8131
:104BE00080930C0339CF8A818238D9F058F4803809
:104BF00099F0813809F030CF8091080380FF0FC011
:104C00008695EECE833809F027CF809109038B83F8
:104C100080910A038C8320CF80910B03E1CE80E04A
:104C2000DFCE80910C03DCCE209108033091090384
:104C300040910A0350910B0329A33AA34BA35CA311
:104C4000CA01B9010E94591407CF80E18A8304CFB9
:104C500081E08A8388E0C4CECA80DB80DC24CD2456
:104C6000DC248C817601E80EF11C8E010B5F1F4F56
:104C7000C60188509D4FEC14FD0409F4EDCE38E0D8
:104C8000C31631E0D30648F40E945D2AD8018D9303
:104C90008D01BFEFCB1ADB0AEBCF80E0F7CF0A81A3
:104CA0001B81102701271027FE0131966F018C818F
:104CB0007F01E80EF11CC80188509D4FCE14DF041F
:104CC00009F4CACE0830F1E01F0728F4D601149683
:104CD0006C910E94712A0F5F1F4FBFEFCB1ADB0A46
:104CE000EACF0E947910B8CE84E0B0CFCA80DB80D2
:104CF000DC24CD24DC248C817601E80EF11C8E01AD
:104D00000B5F1F4FC6018896CE14DF0409F4A4CEB2
:104D1000E0EDCE16E2E0DE0648F40E945D2AD801FE
:104D20008D938D01BFEFCB1ADB0AECCF80E0F7CF7C
:104D30000A811B81102701271027FE0131966F0180
:104D40008C817F01E80EF11CC8018896EC14FD04EB
:104D500009F482CE003DF2E01F0728F4D601149634
:104D60006C910E94712A0F5F1F4FBFEFCB1ADB0AB5
:104D7000EBCF09BD19BD09B400FEFDCF8091D8006D
:104D80008F7D8093D8008091E00082608093E00066
:104D90008091E00081FDFCCF0E94801172CD2D3208
:104DA000314008F094CCCACC2D32314008F043CCCD
:104DB00079CC1F921FB61F9211248F939F93AF93AC
:104DC000BF9380919602811113C08091B20290919D
:104DD000B302A091B402B091B5024196A11DB11DDC
:104DE0008093B2029093B302A093B402B093B50241
:104DF000BF91AF919F918F911F901FBE1F901895EB
:104E000078941F921FB61F9211248F939F93AF9394
:104E1000BF938091B2029091B302A091B402B0917D
:104E2000B5020196A11DB11D8093B2029093B30209
:104E3000A093B402B093B502BF91AF919F918F91AF
:104E40001F901FBE1F9018951F920F920FB60F92C2
:104E500011242F933F934F935F936F937F938F937F
:104E60009F93AF93BF93EF93FF938091E10082FFF5
:104E700009C08091E20082FF05C08091E1008B7F34
:104E80008093E1008091DA0080FF24C08091D800F7
:104E900080FF20C08091DA008E7F8093DA008091BD
:104EA000D90080FF9BC080E189BD82E189BD09B442
:104EB00000FEFDCF81E08093B6028091D101811187
:104EC00009C00E94380B0E94BC0B8091E2008460F4
:104ED0008093E2008091E10080FF17C08091E200A2
:104EE00080FF13C08091E2008E7F8093E20080916A
:104EF000E20080618093E2008091D800806280931C
:104F0000D80019BC85E08093B6028091E10084FF4F
:104F100029C08091E20084FF25C080E189BD82E143
:104F200089BD09B400FEFDCF8091D8008F7D8093AC
:104F3000D8008091E1008F7E8093E1008091E200B3
:104F40008F7E8093E2008091E20081608093E20096
:104F50008091D001882309F447C084E08093B60291
:104F60008091B6028091E10083FF27C08091E2002A
:104F700083FF23C08091E100877F8093E10082E07E
:104F80008093B6021092D0018091E1008E7F8093D1
:104F9000E1008091E2008E7F8093E2008091E20048
:104FA00080618093E20042E060E080E00E948C0B30
:104FB0008091F00088608093F000FF91EF91BF91A5
:104FC000AF919F918F917F916F915F914F913F91A1
:104FD0002F910F900FBE0F901F90189519BC109233
:104FE000B6021092D10176CF8091E30087FD02C016
:104FF00081E0B4CF83E0B2CF1F920F920FB60F9231
:105000001124FF920F931F932F933F934F935F931E
:105010006F937F938F939F93AF93BF93CF93DF93C0
:10502000EF93FF9309EE10E0F8018081C091EC004E
:10503000C795CC27C7958F70FC2EF82A1082C0EF39
:10504000D0E08881877F888378940E949511F80149
:105050001082888188608883CF2DCF70C083FF91B4
:10506000EF91DF91CF91BF91AF919F918F917F9100
:105070006F915F914F913F912F911F910F91FF90F1
:105080000F900FBE0F901F901895991B79E004C0E8
:10509000991F961708F0961B881F7A95C9F7809577
:1050A000089587FB082E062687FD819567FD61958B
:1050B0000E9445280EF4919507FC81950895AA1B3E
:1050C000BB1B51E107C0AA1FBB1FA617B70710F0F3
:1050D000A61BB70B881F991F5A95A9F78095909525
:1050E000BC01CD01089597FB072E16F4009407D05C
:1050F00077FD09D00E945F2807FC05D03EF490950B
:1051000081959F4F0895709561957F4F0895EE0F9B
:10511000FF1F0590F491E02D0994692796276927D0
:1051200078278727782708950E94F92A332312F4D5
:105130008A1B9B0B0C949E280E94F92AB7FF0895A6
:10514000821B930B0895CF92DF92EF92FF92CF9341
:10515000DF93CDB7DEB72A970FB6F894DEBF0FBE48
:10516000CDBF89879A87A985BA852D913D914D91AB
:105170005C9129833A834B835C83232B242B252B3F
:1051800041F424E239ED4BE557E029833A834B8320
:105190005C8369817A818B819C812DE133EF41E0D1
:1051A00050E00E94A52A69017A01A7EAB1E49B01B7
:1051B000AC010E94C42A69837A838B839C83ACEE02
:1051C000B4EFA70196010E94D22A9B01AC0189810C
:1051D0009A81AB81BC81820F931FA41FB51FB7FFBB
:1051E00003C00197A109B048E985FA8580839183BE
:1051F000A283B3839F772A960FB6F894DEBF0FBEC3
:10520000CDBFDF91CF91FF90EF90DF90CF900895C9
:105210000E94A328089580E091E00E94A3280895A9
:10522000B0E0A0E08093000190930101A0930201FF
:10523000B093030108950F931F93CF93DF939C01C5
:10524000029710F422E030E0E091A801F091A9016A
:1052500090E080E0B0E0A0E0309791F4009709F48E
:1052600045C0821B930B84309105B8F58A819B81E0
:105270006115710569F1FB0193838283FE0111C001
:10528000408151810281138142175307F0F0421788
:10529000530799F4109761F012960C931297139696
:1052A0001C933296CF01DF91CF911F910F910895FA
:1052B0000093A8011093A901F4CF009719F04817A3
:1052C000590718F4CA01BD01EF01DF01F801C4CF8D
:1052D0009093A9018093A801D1CFFE01E80FF91F97
:1052E00021933193029799838883DCCF8091AA011F
:1052F0009091AB01892B41F48091060190910701B7
:105300009093AB018093AA018091040190910501D3
:10531000009741F48DB79EB7409108015091090163
:10532000841B950B4091AA015091AB014817590776
:1053300008F0B8CF841B950B8217930708F4B2CFFF
:10534000B9016E5F7F4F8617970708F4ABCF640FE4
:10535000751F7093AB016093AA01FA0121933193F9
:10536000A1CFCF93DF939C010097E9F0FC01329726
:1053700013821282C091A801D091A901DE0190E0B0
:1053800080E02097A1F480819181280F391F8091BE
:10539000AA019091AB018217930709F067C0F093BF
:1053A000AB01E093AA01DF91CF910895DA01AE1726
:1053B000BF0708F041C012964D915C911397CD0143
:1053C0004115510599F7DC011396FC93EE93129762
:1053D0004D915D91A40FB51FEA17FB0781F4208161
:1053E00031812E5F3F4F240F351FDC0111963C9316
:1053F0002E932281338113963C932E931297B0E023
:10540000A0E08A819B810097B1F5FE018191919185
:10541000E80FF91F8091AA019091AB018E179F07A9
:1054200011F6109759F51092A9011092A801D09386
:10543000AB01C093AA01B7CFB383A283408151814E
:10544000240F351FA217B30771F44E5F5F4F2D91E4
:105450003C911197240F351F3183208312962D9193
:105460003C9133832283009709F0ADCFF093A901DB
:10547000E093A80198CFDE01EC01C3CF13961C92F4
:105480001E921297D4CFFC014150504030F0019051
:105490000616D1F73197CF010895882799270895E7
:1054A000FB01DC0104C08D910190801921F4415071
:1054B0005040C8F7881B990B0895F999FECF92BD0B
:1054C00081BDF89A992780B50895A6E1B0E044E03F
:1054D00050E00C94972AA8E1B0E042E050E00C9430
:1054E000972A262FF999FECF92BD81BDF89A019790
:1054F00000B4021639F01FBA20BD0FB6F894FA9A1C
:10550000F99A0FBE08950396272F0E94722A0E94CF
:10551000712A252F0E94722A242F0C94722A019638
:10552000272F0E94722A0C94712ADC01CB01FC0106
:10553000F999FECF06C0F2BDE1BDF89A319600B4EC
:105540000D9241505040B8F70895052E97FB1EF478
:1055500000940E94BC2A57FD07D00E94D72A07FC5E
:1055600003D04EF40C94BC2A50954095309521956B
:105570003F4F4F4F5F4F089590958095709561957F
:105580007F4F8F4F9F4F08950E94F92AA59F900D3E
:10559000B49F900DA49F800D911D11240895B7FF15
:1055A0000C94C42A0E94C42A821B930B0895A1E282
:1055B0001A2EAA1BBB1BFD010DC0AA1FBB1FEE1F8D
:1055C000FF1FA217B307E407F50720F0A21BB30BD8
:1055D000E40BF50B661F771F881F991F1A9469F754
:1055E00060957095809590959B01AC01BD01CF01B0
:1055F0000895A29FB001B39FC001A39F700D811DAC
:105600001124911DB29F700D811D1124911D0895CB
:10561000F894FFCF74077A077D07830798079807E8
:1056200098079807980786078B078F079507A6079F
:10563000AC07B0077812A0124114A0124114D31283
:10564000F4124114F013FD13BF1BC61BCB1BD01B60
:10565000D51BDA1BDF1BE41BE91BEE1BF31BF61B40
:10566000FB1BFE1B011C041C071C0A1C0D1CA01AA2
:10567000A61AAA1AB81ABC1AC01AC41ACA1AD21A76
:10568000D61ADA1ADE1AEA1AEE1AF21AF61AFC1A00
:105690001A1B041BB41AE21AE61ACE1A001B101BBE
:1056A000231B291B3E1C3E1C781C781C2F1D491DEA
:1056B000A91CA91C541DC41DD31DD31DEE24F22406
:1056C000642585259025AF25B225F325142682254E
:1056D0008225252628262C264F26712674267626F6
:0256E00098260A
:1056E2000100000000005103200001010201191A0B
:1056F2001B1C1D1E1F2021228A0A4A0F8D0FD60F46
:10570200DA0F8D0A01000000004022B68401620116
:10571200AC00D601EF010F020001020202020606EE
:10572200060909090909090F0F0F0F0F0F151515A2
:10573200181919191919191919191923242525259F
:10574200252525C63031323336F7F6F5F4F190913E
:105752009293959496973435E200E900EA00B500F9
:10576200B600B700CD008301CC008A0192019401FA
:105772002102230224022502260227022A02B30062
:06578200B4006F0070008E
:00000001FF
