:100000000C94B4030C94EC030C94EC030C94EC03EC
:100010000C94EC030C94EC030C94EC030C94EC03A4
:100020000C94EC030C94EC030C94D22B0C94AA2C9F
:100030000C94421E0C94EC030C94EC030C94EC0313
:100040000C94EC030C94EC030C94EC030C94EC0374
:100050000C94EC030C94AE2B0C94EC030C94EC037A
:100060000C94EC030C94EC030C94EC030C94EC0354
:100070000C94EC030C94EC030C94EC030C94EC0344
:100080000C94EC030C94EC030C94EC030C94EC0334
:100090000C94EC030C94EC030C94EC030C94EC0324
:1000A0000C94EC030C94EC030C94EC030501098014
:1000B000A101850319012AB700150126B700950192
:1000C00075108100C0050C0901A101850419012AE0
:1000D000A002150126A002950175108100C005013E
:1000E0000906A1018506050719E029E71500250184
:1000F0009508750181020507190029EF15002501F2
:1001000095F075018102050819012905950575010C
:100110009102950175039101C00660FF0961A1017B
:100120000962150026FF00952075088102096315F4
:100130000026FF00952075089102C005010906A15F
:1001400001050719E029E7150025019508750181CA
:10015000029501750881010507190029FF15002680
:10016000FF00950675088100050819012905950508
:1001700075019102950175039101C009025B0003AD
:100180000100A0FA09040000010301010009211186
:100190000100012240000705810308000109040154
:1001A00000020300000009211101000122220007C2
:1001B0000582032000010705030320000109040252
:1001C000000103000000092111010001226D000758
:1001D0000584032000011201000200000008424BC8
:1001E0000010010001020001140342004F004F0003
:1001F0005000360035005200470042000000100356
:100200004B0042004400460041004E0053000000F5
:100210000403090429001E001F0020002100220001
:10022000230024002500260027002D002E002A0090
:100230004A002B0014001A000800150017001C00CB
:1002400018000C00120013002F00300031004B008A
:10025000390004001600070009000A000B000D0019
:100260000E000F0033003400000028004E00E100B3
:100270001D001B00060019000500110010003600CB
:1002800037003800E500000052004D00E000E300B8
:10029000E200000000002C0000000000E60000006A
:1002A000E4005000000051004F00165C3A003B0093
:1002B0003C003D003E003F00400041004200430042
:1002C000440045004C004A000100C25CC35CC55CB0
:1002D000C65CC75CC85CC95CCA5C010046004700DC
:1002E0004800005C4B000100CB5CCC5C01000100CD
:1002F00001000100010001000100010001000000F7
:10030000DE5C4E00E100010001000100010001007F
:100310000100010001000100010001000000A9002E
:10032000A800010001000100000000000100000021
:100330000000010000000100AC000000AA00AB00BA
:1003400001000100010001000100010001000100A5
:100350000100010001000100010001000100010095
:100360000100010001000100010001000100010085
:100370000100010001000100010001000100010075
:100380000100010001000100010001000100010065
:100390000100010000000100010001000100010056
:1003A0000100010001000100010001000100010045
:1003B0000100000001000100010001000100000037
:1003C0000000010000000000010000000100010029
:1003D0000000010001000100010001000100010016
:1003E0000100010001000100010001000100010005
:1003F00001000100010001000100010001000100F5
:1004000001000100010001000100010001000100E4
:1004100001000100010001000100010001000100D4
:1004200001000100010001000100000001000100C5
:1004300001000100010001000100010001000100B4
:1004400001000100010001000000010001000100A5
:100450000100010000000000010000000000010098
:100460000000010001000000010001005030810483
:10047000C810030C40F18413B8D1061B30B2882297
:10048000A8920A2A20738C3198530E395C6041057A
:10049000D440C30C4C214514C401C71B3CE2482383
:1004A000B4C2CA2A2CA34C3238D00003B0B0820A9E
:1004B00028910412A07186191852082190328A28B6
:1004C00008130C3080F38D3774C0C106ECA0430EC6
:1004D0006481C515DC61471D5442C924CC224B2CD4
:1004E0004403CD332CA04002A480C2091C614411F6
:1004F0009441C6180C2248208402CA27FCE24B2FE4
:1005000074C3CD3640F490436484D14588141248B6
:10051000ACA4524AD034934C185514512070800129
:1005200098500209103184108811061800F2871FB4
:1005300078D20927F0B28B2E68930D364C245144A3
:1005400070B491469444D248B8D4124BDC64534DF5
:100550002485D4510810000080F08107F8D0030FE3
:10056000607289257CE45147A0749249C404D34B3E
:10057000E894134E30B594524400C10334C1C41200
:100580002482C8211443CC30E070830DD031871C05
:10059000C0F28A2B38D30C331440C0000401C40FBE
:1005A0007CE14517E482CB2D58541145F4C4D34E59
:1005B00000F5934F0C255450000101010101010188
:1005C0000101020202020202020202030303030308
:1005D00003030304040404040404050505050506D7
:1005E0000606060607070707070808080809090995
:1005F000090A0A0A0B0B0B0C0C0C0D0D0D0E0E0E3E
:100600000F0F0F10101111111212131314141515CE
:1006100016161717181819191A1A1B1B1C1D1D1E40
:100620001E1F202021222223242425262627282994
:10063000292A2B2C2D2D2E2F3031323233343536C2
:100640003738393A3B3C3D3E3F40414243444546C2
:100650004748494A4C4D4E4F50515354555658599E
:100660005A5B5D5E5F616264656668696B6C6D6F45
:100670007072737577787A7B7D7E808283858788B8
:100680008A8C8E8F91939596989A9C9EA0A2A3A5F2
:10069000A7A9ABADAFB1B3B5B7BABCBEC0C2C4C6F3
:1006A000C9CBCDCFD1D4D6D8DBDDDFE2E4E7E9EBAF
:1006B000EEF0F3F5F8FAFDFF000000000000000086
:1006C000000000000000000000000000000000002A
:1006D0000000000000000000000000007E0F00D4B9
:1006E000FFFFFFC7000000780000000000000000CE
:1006F0002A2B28000000000000000000000000007D
:1007000000000029000000002C1E34202122243487
:100710002627252E362D3738271E1F202122232459
:1007200025263333362E37381F0405060708090AF5
:100730000B0C0D0E0F101112131415161718191A91
:100740001B1C1D2F3130232D350405060708090A0F
:100750000B0C0D0E0F101112131415161718191A71
:100760001B1C1D2F3130354C11241FBECFEFDAE09A
:10077000DEBFCDBF04B603FE18C080914B07909139
:100780004C07A0914D07B0914E078730904BA74082
:10079000B04B59F410924B0710924C0710924D0732
:1007A00010924E07E0E0F8E3099527E0A2EDB2E0F1
:1007B00001C01D92AB34B207E1F712E0A0E0B1E056
:1007C000EAE9FFE502C005900D92A23DB107D9F715
:1007D0000E94D7270C94562F0C940000E82F2FE08E
:1007E000929FE00D11248E2F877041E001C0440FCD
:1007F0008A95EAF7E695E695E69583E0E89FF001AD
:100800001124EC51F94F30E020E070E05191DF010C
:100810001197CB01022E02C0969587950A94E2F7B4
:10082000817081958527842385278C932F5F3F4F87
:100830002330310559F70895E82F2FE0929FE00DFE
:1008400011249E2F9770E695E695E69583E0E89F44
:10085000F0011124EC51F94F50E040E080E021918B
:1008600030E0092E02C0369527950A94E2F72170F0
:100870003327042E01C0220F0A94EAF7822B4F5F20
:100880005F4F4330510559F70895809114079091B7
:100890001307981301C008958F5F8770FACF909166
:1008A0002B019923E1F09091100797FF18C0E82FD2
:1008B000E695E695E695803FF0F4F0E0EC52FD4FCA
:1008C000877021E030E0A90102C0440F551F8A95CE
:1008D000E2F7CA0180959281892382830895E6ED2B
:1008E000F2E09191891303C0DF0111971C9252E04D
:1008F000EC3DF507B1F70895982F909580910B077F
:10090000892380930B07089580910C078111109221
:100910000C0708959091100792FF06C0282F2871A8
:100920002830F9F4877F846093FF06C0282F287150
:100930002831F1F4877E84612091110720FF06C0E1
:10094000382F38713830D9F4877F816021FF06C095
:10095000282F28712831D1F4877E816194FD877E0C
:100960000895282F24712430F9F68B7F8860DCCF1E
:10097000282F2471243101F78B7E8861DDCF382F39
:100980003171313019F78E7F8860E0CF282F2171C7
:10099000213121F78E7E8861E1CFCF93DF93EC0187
:1009A000803E910509F45EC048F58133910509F454
:1009B000A1C088F48932910509F495C08A9709F499
:1009C000A0C0C130D10529F1CE010497813A91052B
:1009D00008F054C01EC089339105E9F182389105B1
:1009E000D1F1C59709F478C0C83AD10508F090C094
:1009F000C53AD10530F3A497D0640BC0843E91056D
:100A000009F44FC050F4823E9105D9F1833E91051F
:100A1000E9F1CE01DF91CF910895863E910509F469
:100A20004BC0873E910509F44CC0811523E5920720
:100A300008F08BC0811532E5930708F0FDC0C115A1
:100A400080E5D80708F077C0C11520E4D20760F22E
:100A5000DF70D06ADECF809110078370D1F2C0EED4
:100A6000D0E0D7CF8091100780FD11C19091110780
:100A700090FFCFCFC3EED0E084FFCBCFD0E0C0E07B
:100A8000C8CF8091100782FDF5CFC3CF80911007AA
:100A900082FD00C19091110790FDE1CF84FFB9CF95
:100AA000EDCF8091110781FFB4CF80911007C7EE81
:100AB000D0E084FDE3CFADCF8091100783FDF7CF69
:100AC000A8CF8091100783FDE8C09091110791FF96
:100AD000E5CFC4EED0E09DCF8091100785FF99CF80
:100AE000C9E2D0E096CF8091100785FF92CFC5E391
:100AF000D0E08FCF8091100786FF8BCFCAE2D0E085
:100B000088CF8091100786FF84CFC1E3D0E081CFEA
:100B1000CF3BD10508F468C0C83ED10528F4C03EDB
:100B2000D10508F4ABCF75CFCE019A9581159F41C1
:100B300008F0A4CF6ECFC11581E5D80708F45FC0D7
:100B4000DC2FCC27C16FD06A64CF811529E59207CD
:100B5000A0F5811538E5930708F086C0C11585E535
:100B6000D807C8F4C11524E5D20708F078C09E0163
:100B70002370332781E090E002C0880F991F2A95E7
:100B8000E2F7C695C69530E2C39FE0011124C82B59
:100B9000D92BDA683ECFCE0195558F3F910511F0E4
:100BA00008F06CCF8C2F0E948A04C82FD0E0DC2F75
:100BB000CC27CC27DF71D0622CCFC1158AE5D807AE
:100BC00008F457C0CE0190568115904208F056CFD8
:100BD0008D2F8F710E948A0490E0982F8827882794
:100BE0009F718C2BEC01E7CFC85AD0E0CC0FDD1FF2
:100BF000CD55DD4F0990D881C02DD4640ACF9E0118
:100C000074E0369527957A95E1F723708C2F8695B9
:100C10008695837030E2839FC0011124922BC370AC
:100C200021E030E002C0220F331FCA95E2F7822B89
:100C3000932BEC01DC68EDCE9C012370332781E01F
:100C400090E002C0880F991F2A95E2F7C695C695D5
:100C500020E2C29FE0011124C82BD92BEBCFDC2F5F
:100C6000CC27C46FD06AD5CED82FCC27C06FD06A1E
:100C7000D0CE8C2F8F700E948A0434E0D695C79511
:100C80003A95E1F7CF709C2FEC01D069C2CEC9E351
:100C9000D0E0BFCEC2EED0E0BCCEC6EED0E0B9CE42
:100CA00080E00895F894E82FE295EF70F0E041A11C
:100CB0008F7021E030E0B90102C0660F771F8A957E
:100CC000E2F7CB01962F9095942391A392A1892BC3
:100CD00082A378940895AF92BF92CF92DF92EF9261
:100CE000FF920F931F93CF93DF93262FD72EE82FDA
:100CF000F0E0E854FA4F71110FC06491862FE62F8F
:100D00007E2FDF91CF911F910F91FF90EF90DF9099
:100D1000CF90BF90AF900895E72EF12CE49186E03C
:100D2000689F80011124CFEFD0E0C801BE010E946E
:100D3000CE2DAB0130E0220F331F65E5649FC0016B
:100D4000659F900D1124281B390B922F990F920F3C
:100D50009E012E193F09E29FD001E39FB00D11249F
:100D60006B2FD99E90011124232F33276E01C21AB5
:100D7000D30A9601E29F6001E39FD00C11248D2DD0
:100D80005E01A91AB108AE9C9001AF9C300DBE9CCB
:100D9000300D1124232F3327C21BD30BEC9F90015E
:100DA000ED9F300D112443305105C1F00C3F93E00D
:100DB000190768F441305105A9F042305105B1F0EE
:100DC0000F3F110508F09CCF8B2F632F99CF443034
:100DD000510579F046305105B9F392CF6D2D8E2F24
:100DE000EB2F8ECF6E2FED2D8B2F8ACF832F6E2F73
:100DF000F7CF8E2FE32F84CF9C0190E080E0269FD9
:100E0000812D369F800D911D112408959C01823003
:100E1000910508F408959FEF213E8EE1380740F4D4
:100E2000C90145E0969587954A95E1F798E0980FB6
:100E300061E0E62FE90FFF27FF1FAF0155954795AA
:100E4000842F449FF001459FF00DF00D11242E17C3
:100E50003F0738F49FEF940F961758F78FEF860FE0
:100E600008954F3FE9F361E0640FF6CF40911B0115
:100E700050911C0125E038E0429FC001439F900D36
:100E8000529F900D1124875E994C90931C01809382
:100E90001B01890F0895982FE82F96FDE0952E2FBE
:100EA0002F7096FD2F5FE695E695E695E670F0E0EB
:100EB000ED5BFE4F8181829F802D212D1124829533
:100EC0008F702295207F822B2081820F97FD819544
:100ED00080580895FC019B01009719F4832F8078B6
:100EE0000895AC0197FF04C044275527481B590BB0
:100EF000B901640F751F37FD0FC0241B350BC901E5
:100F0000A5E0880F991FAA95E1F70E94E22D80E2E3
:100F1000861BF7FD81950895CB0165E0880F991F29
:100F20006A95E1F7BA01621B730B0E94E22D80E61D
:100F3000EFCF1F93172F922FE42FF0E0EE0FFF1F3C
:100F4000EA56FE4F2081322F24EE329F312D11249C
:100F5000472F50E0232F30E0245E3F4F291B3109FB
:100F600037FF03C031952195310993E0220F331FDC
:100F70009A95E1F7421B530B57FD40E0742F719F88
:100F8000712D11241F9108951F93182F822FE42F84
:100F9000F0E0EE0FFF1FEA56FE4F2081322F24EEC5
:100FA000329F312D1124412F50E0232F30E0245E59
:100FB0003F4F281B310937FF03C031952195310977
:100FC00083E0220F331F8A95E1F7CA01821B930B3E
:100FD0009C0197FD20E0219F212D1124822F1F913C
:100FE00008950F931F93CF93DF93D62F172FC82FFA
:100FF000BA01C901212F201B022F0E946A07982FD6
:10100000990F990F782F791B700F719F712D1124F3
:101010006D2F8C2FDF91CF911F910F9108950F931A
:101020001F93CF93DF93D62FC72F182FBA01C90173
:10103000212F201B022F0E946A07982F990F990FCA
:10104000282F291B200F219F212D11246D2F7C2F4C
:10105000822FDF91CF911F910F910895EF920F93FF
:101060001F93CF93DF93D62F172FC82FBA01C90133
:101070000E19010F0E946A07702F781B719F712D46
:1010800011246D2F8C2FDF91CF911F910F91EF9035
:101090000895EF920F931F93CF93DF93D62FC72F0F
:1010A000182FBA01C9010E19010F0E946A07081B07
:1010B000019F012D11246D2F7C2F802FDF91CF9167
:1010C0001F910F91EF900895622F0895E42FF0E0A3
:1010D000EE0FFF1FEA56FE4F6081621B0895E42F5A
:1010E000F0E0EE0FFF1FE956FE4F6081621B08958E
:1010F000322F50E0FA01EE0FFF1FE956FE4F9081AC
:10110000905297FD9195440F551FFA01EA56FE4FF4
:101110002081231B330B290F311D97FD3A95620F58
:101120000895EF920F931F9393E0099F800111247C
:10113000159507956E2D600F1F910F91EF900895F3
:101140000F93CF93DF93D72FC82FB90147FD419558
:1011500028E330E0241B310947FD3395229FA0018D
:10116000239F500D500D1124669FC001679F900D65
:10117000900D1124840F951F0E940607982F990F38
:10118000692F680F600F7D2F8C2FDF91CF910F910A
:1011900008950F93CF93DF93D72FC82FBA01C901BA
:1011A0000E946A07682F600F7D2F8C2FDF91CF91EF
:1011B0000F910895EF920F93CF93DF93D72FC82FFE
:1011C000BA01C9010E190E946A07602F681B7D2FA2
:1011D0008C2FDF91CF910F91EF9008950F931F9374
:1011E000522F10E0F801EE0FFF1FE956FE4FA081CD
:1011F000A052BB0B9D015203F001539FF00D11242F
:10120000000F111FD801AA56BE4F2C912057330B47
:101210004203D001439FB00D11249F012A0F3B1FB1
:1012200037FF02C021583F4F220F232F221F330BBD
:10123000620F1F910F9108950F931F93522F10E08B
:10124000F801EE0FFF1FE956FE4FA081A052BB0B25
:101250009D015203F001539FF00D1124000F111F47
:10126000D801AA56BE4F2C912057330B4203D00110
:10127000439FB00D11249F012A0F3B1F37FF02C06F
:10128000215C3F4F96E0359527959A95E1F7620FDF
:101290001F910F9108950F931F93A42F10E0F80151
:1012A000EE0FFF1FEA56FE4F9081905797FD9195E4
:1012B000000F111FF801E956FE4F00810052110B7B
:1012C0002003A001219F500D112428E330E0291BA9
:1012D000310997FD33951A2F1203F001139FF00D7A
:1012E00011244E0F5F1F9A01220F331F240F351F49
:1012F00037FF02C021583F4F220F232F221F330BED
:10130000620F1F910F9108950F931F93CF93DF9357
:101310008B01D82FC42F822F0E944B07EC2FF0E0B7
:10132000EE0FFF1FEA56FE4F90819058980F97FDE1
:101330009195990F692F2CE0629F612D1124600F08
:10134000712F8D2FDF91CF911F910F910895E42F71
:10135000F0E0EE0FFF1FEA56FE4F9081921B97FDC3
:101360009195292F38E1239F212D1124620F089593
:101370004095282F429F412D1124842F089522E863
:10138000241B08F420E0620F0895EF92FF920F9360
:10139000282FC70135E0039F800D911D11248F3F39
:1013A000910519F010F08FEF90E08095382F230F02
:1013B00008F42FEF822F0F91FF90EF900895EF9296
:1013C000FF920F93E00EF11CF90137FF03C0F19576
:1013D000E195F10924E0EE0FFF1F2A95E1F7EF3FB9
:1013E000F10519F014F0EFEFF0E09A0157FF03C098
:1013F00031952195310994E0220F331F9A95E1F739
:101400002E173F070CF4F901EE0DFF1DEF3FF1051C
:1014100019F010F0EFEFF0E0E095282F3E2F230FAA
:1014200008F42FEF822F0F91FF90EF900895EF9225
:10143000FF920F93972FFA01B9019701093430F405
:10144000201B31092F3F310519F010F02FEF30E04C
:101450003896719740F0AB01485F5F4F41315105BD
:1014600010F02FEF30E02095382F320F08F43FEFC7
:1014700077FF02C06D5F7F4F75956795759567958E
:1014800080910607680F792F832F0F91FF90EF90BF
:101490000895EF92FF920F93282FC701801B9109A7
:1014A0008F3F910519F010F08FEF90E0382F3095B5
:1014B000230F08F42FEF680F822F0F91FF90EF900A
:1014C0000895EF92FF920F93282FC701801B910977
:1014D0008F3F910519F010F08FEF90E08095382F35
:1014E000230F08F42FEF822F0F91FF90EF900895B4
:1014F0000C94811C0C94F31CE5E0F7E0248130E1AE
:10150000230F08F42FEF24838091040781608093D8
:1015100004070895E5E0F7E0248130E1231B08F497
:1015200020E024838091040781608093040708955C
:10153000FA0181110994FB01FDCFE091C206F091FF
:10154000C306309721F00190F081E02D099480E0EE
:10155000089520912803309129032817390771F045
:101560009093290380932803E091C206F091C3066B
:10157000309721F00680F781E02D0994089520919D
:101580002603309127032817390771F0909327031A
:1015900080932603E091C206F091C306309721F0B4
:1015A0000084F185E02D099408959C0180912B0120
:1015B0008823C1F08091100787FF14C0862F86957D
:1015C00086958695603FF8F4F901E80FF11D677084
:1015D00021E030E001C0220F6A95EAF78281822B78
:1015E00082830895F90132968FEF90E0419164175C
:1015F00051F08F3F19F4411101C0892F9F5F963040
:10160000A9F78F3F09F40895280F311D87FD3A95FA
:10161000F90162830895CF93DF9300D000D0CDB756
:10162000DEB78FB7F8942091EE053091EF05409129
:10163000F0055091F10529833A834B835C838FBF7A
:1016400069817A818B819C810F900F900F900F9010
:10165000DF91CF910895809125030895089508950D
:10166000FC01CB01209100033091010326173707BD
:1016700090F0009729F42091E8002E772093E8005D
:1016800040E0009751F4411108C08091E80082FFCA
:1016900031C080E00895C901F3CF2091AA0622232A
:1016A000A9F12530A9F12091E80023FD2DC020915A
:1016B000E80022FDEACF2091E80020FFE2CF309140
:1016C000F3002091F200009719F02830310558F00E
:1016D00041E02830310509F040E02091E8002E7704
:1016E0002093E800CECF41914093F10001972F5F06
:1016F0003F4FE9CF8091AA06882341F0853041F021
:101700008091E80083FFC1CF81E0089582E00895D1
:1017100083E008958091FA0287FF13C08091E8006A
:1017200082FF06C08091E8008B778093E80004C0B8
:101730008091AA068111F2CF08958091AA0688238C
:10174000D9F38091E80080FFF8CF8091E8008E7790
:10175000ECCF2091E4003091E50095E6A9012091BD
:10176000EC00822F817020FF06C08091E80080FF8E
:1017700006C080E008952091E80022FD1AC0809103
:10178000AA06882389F0853089F08091EB0085FDD9
:101790000FC02091E4003091E50042175307F9F2A1
:1017A0009150E1F684E0089582E0089583E0089581
:1017B00081E00895E8EDF0E080818E7F80831092D3
:1017C000E2001092DA001092E100A0EEB0E08C91FD
:1017D00081608C9380818F77808319BCA7EDB0E006
:1017E0008C918E7F8C9380818F7E80831092F90202
:1017F000089590910507937071F0809306076093A8
:101800000707493C08F048EC40930807809104071B
:101810008160809304070895E5E0F7E0818190E01E
:101820004381628108960C94F90BE5E0F7E0818131
:10183000438162818850990B0C94F90BE5E0F7E045
:10184000628120E1620F08F46FEF8181438190E0B3
:101850000C94F90BE5E0F7E0628120E1621B08F4EB
:1018600060E08181438190E00C94F90BE5E0F7E0C2
:10187000438120E1420F08F44FEF8181628190E0C3
:101880000C94F90BE5E0F7E0438120E1421B08F4FA
:1018900040E08181628190E00C94F90BEF92FF921D
:1018A0000F931F93CF937C018B010E94A90BC82F2C
:1018B000811117C08091E80085FD0BC08091E80080
:1018C0008E778093E8000E94A90B882399F3C82F94
:1018D00008C0F70181917F018093F1000150110947
:1018E00049F78C2FCF911F910F91FF90EF900895A2
:1018F000AF92BF92CF92DF92EF92FF920F931F931E
:10190000CF93DF935C01C0911801CC0FCC0F14E092
:101910001C0FC12E143510F033E5C32E609109075A
:10192000669580914506909146060E94FC06D82E49
:10193000D0E0CE01880F991F9C012A563E4F7901B5
:10194000CC1578F081E0133508F080E0DF91CF917D
:101950001F910F91FF90EF90DF90CF90BF90AF90CD
:101960000895FE01E45CFD4F808190911901892367
:10197000C1F0F70121812052330B40814057550BB4
:101980006091060770910707809108070D2DF501FA
:1019900009950E946B06462F672F282FCE010E94C3
:1019A000780AF2E0EF0EF11C2196CACF5F926F9297
:1019B0007F928F929F92AF92BF92CF92DF92EF92DF
:1019C000FF920F931F93CF93DF934C01C0911801A7
:1019D000CC0FCC0F14E01C0F512E143510F033E552
:1019E000532E6091090766958091450690914606B1
:1019F0000E94FC06F82ED0E0CE01880F991F9C01B2
:101A00002A563E4F6901C515A0F081E0133508F054
:101A100080E0DF91CF911F910F91FF90EF90DF90C9
:101A2000CF90BF90AF909F908F907F906F905F907E
:101A30000895FE01E45CFD4F808190911901892396
:101A400079F1F6018081282F2057330B59018181CC
:101A5000E82FE052FF0B3F01AA9C9001AB9C300D98
:101A6000300D1124EE9FC001EF9F900D900D1124B9
:101A7000820F931F0E940607082F6091060770913E
:101A8000070780910807EF2C9301A501F401099540
:101A90000E946B06462F672F282FCE010E94780ADE
:101AA000F2E0CF0ED11C2196AECFBF92CF92DF9243
:101AB000EF92FF920F931F93CF93DF9300D000D04C
:101AC0000F92CDB7DEB76C0180911801880F880F97
:101AD0008B8394E0F92EF80EBF2C93E59F1510F43C
:101AE00083E5B82E60910907669566958091450655
:101AF000909146060E94FC06182F80E4810F0E94F8
:101B00004B0780588983812F0E944B0780588A8316
:101B1000FB81EF2FF0E0FD83EC839C819B15A0F00F
:101B200081E0E2E5EF1508F480E00F900F900F9050
:101B30000F900F90DF91CF911F910F91FF90EF9039
:101B4000DF90CF90BF900895EC81FD81E45CFD4F64
:101B50008081909119018923A9F060910607709105
:101B6000070780910807E12E0C812A814981F6013F
:101B700009950E946B06462F672F282F8C819D8127
:101B80000E94780A8C819D8101969D838C83C5CFAC
:101B9000DF92EF92FF920F931F93CF93DF937C011D
:101BA000C0911801CC0FCC0F14E01C0FD12E1435AE
:101BB00010F083E5D82E609109076695669521E0BF
:101BC000620F08F46FEF80914506909146060E94DF
:101BD000FC06082FD0E0CD1560F081E0133508F049
:101BE00080E0DF91CF911F910F91FF90EF90DF90F8
:101BF0000895FE01E45CFD4F8081909119018923D5
:101C000091F0609106077091070780910807202FD7
:101C10004C2FF70109950E946B06462F672F282F3E
:101C2000CE010E94780A2196D6CFAF92BF92CF9272
:101C3000DF92EF92FF920F931F93CF93DF938C016C
:101C4000C0911801CC0FCC0F24E0D22EDC0ECD2C8D
:101C500023E52D1510F493E5C92E2091090731E0F5
:101C6000230F08F42FEF30E050E040E06FEF7FEFFC
:101C700080E090E00E94F32E7901D0E0B22EAF2CEC
:101C80002C2FCC1580F081E0F2E5FD1508F480E002
:101C9000DF91CF911F910F91FF90EF90DF90CF9048
:101CA000BF90AF900895FE01E45CFD4F808190915C
:101CB0001901892319F1409149064150042E000C65
:101CC000550B47FF1DC08B2D9A2D6091090721E010
:101CD000620F08F46FEF0E94FC06AC0160910607EA
:101CE0007091070780910807F80109950E946B061B
:101CF000462F672F282FCE010E94780A2196C0CF49
:101D0000FA01E75BF94F818982130AC0FA01EE0FED
:101D1000FF1FE75BF94F818D928D8E159F05A8F20D
:101D200041505109CECF2F923F924F925F926F92C6
:101D30007F928F929F92AF92BF92CF92DF92EF925B
:101D4000FF920F931F93CF93DF93CDB7DEB7299701
:101D50000FB6F894DEBF0FBECDBF282E6A837B83FB
:101D600020911801220F220F2E832C5F29832C83B0
:101D7000243510F033E53C83809149068D83FE8144
:101D8000EF2FF0E0F987E887CF01880F991F9C01BA
:101D90002A563E4F6901822D90E0FC013196FF8367
:101DA000EE838C8198859817F0F081E0E981E33526
:101DB00008F080E029960FB6F894DEBF0FBECDBFC5
:101DC000DF91CF911F910F91FF90EF90DF90CF9017
:101DD000BF90AF909F908F907F906F905F904F904B
:101DE0003F902F900895E885F985E45CFD4F808150
:101DF000909119018923F1F0409006075090070750
:101E00002E813F81275B394F3901322C10E0FD8153
:101E10003F16D0F020910807129F112D1124B20116
:101E2000812F0E946B06462F672F282F8885998562
:101E30000E94780A288539852F5F3F4F3987288788
:101E400032E0C30ED11CADCFF30181913F01F60109
:101E5000A080A81ABB088180F3018781881A99089D
:101E6000AA9C9001AB9C300D300D1124889CC001C0
:101E7000899C900D900D1124820F931F0E940607DC
:101E8000082F6091090721E0620F08F46FEFF3015A
:101E9000EE0FFF1FE954F640858996890E94FC06E3
:101EA0007C019401A501B201812FEA81FB81099592
:101EB0002B01182F3394ABCF909105079370A1F0AD
:101EC000882399F08A3298F48F73880F880F909145
:101ED00005079370892B8093050710922C01809140
:101EE0000407816080930407089581E0EECF89E2C2
:101EF000ECCF80910507869586958F5F8A3208F032
:101F000081E00C945C0F90910507969596958FEF64
:101F1000890F913009F489E20C945C0F982F90930B
:101F2000E900242F762F50E0891731F07091EC00F2
:101F30002091ED005091F00021FD06C09F5F973089
:101F400071F78093E90008953091EB003E7F309364
:101F5000EB003091ED003D7F3093ED003091EB00D0
:101F600031603093EB007093EC002093ED005093C0
:101F7000F0002091EE0027FDE1CF0895CF92DF928F
:101F8000EF92FF920F931F93CF93DF93C8EDD0E0B2
:101F900088818F7E8883E7EDF0E080818160808397
:101FA00084E082BF81E08093F90288818E7F8883FC
:101FB00002EE10E0F80110821092DA0081EEC82ED5
:101FC000D12CF601108288818F7788838881806880
:101FD000888388818F7D888319BC1092AA0610920D
:101FE000F802109274061092F70290EEE92EF12C8E
:101FF000F70180818B7F808388818160888342E0C4
:1020000060E080E00E948E0FF60180818E7F8083E9
:10201000F801808181608083808188608083F701FE
:1020200080818E7F8083888180618883DF91CF91DA
:102030001F910F91FF90EF90DF90CF90089581E076
:102040008093E00080E28093D8001092C9008FE175
:102050009EE40197F1F700C0000087E090EBDC01FF
:1020600080934B0790934C07A0934D07B0934E0776
:1020700088E19CE00FB6F894A895809360000FBEAD
:1020800090936000FFCFCF93DF93D82FC92F80911B
:102090002B018823C1F18091100787FF34C060E2D3
:1020A00084E08093E9008FEF9091E800815095FDE6
:1020B00006C095ED9A95F1F700008111F5CF80915A
:1020C000E80085FF1DC080912B0170E050E040E0EA
:1020D000811104C050E040E068E070E08D2F9C2F3B
:1020E0000E944E0C8091E8008E778093E80080E299
:1020F000ED2FFC2FA5E0B3E001900D928A95E1F75A
:10210000DF91CF91089568E081E0CBCF8093020307
:1021100070930403609303038091AA068430F9F45A
:102120008093E9008FEF9091E800815095FD06C003
:1021300095ED9A95F1F700008111F5CF8091E800B7
:1021400085FF0DC050E040E063E070E082E093E086
:102150000E944E0C8091E8008E778093E8000895ED
:10216000BC0183E00C948610BC0184E00C948610C2
:102170004F925F926F927F928F929F92AF92BF9297
:10218000CF92DF92EF92FF920F931F93CF93DF9343
:1021900010E000E036E9632E712CE801CC0FDD1F62
:1021A00058011CC0F60185909490692DC7010E94CA
:1021B000CF2E682DC70101960E94CF2E22E0C20EBD
:1021C000D11C32E0E30EF11C4E145F0459F76E96F9
:1021D0008FE0A80EB11CC615D70581F0C501880F88
:1021E000991F9C012C5E3D4F69017E0138E2E30E90
:1021F000F11C2E0186E4480E511CD4CF3E0126E985
:10220000620E711C055B1F4F0C3231E0130729F67B
:10221000DF91CF911F910F91FF90EF90DF90CF90C2
:10222000BF90AF909F908F907F906F905F904F90F6
:102230000895CF93C82F6FEF811162E283E290E09F
:102240000E94CF2E6FEFC11164E084E290E00E9403
:10225000CF2E6FEFC11165E285E290E0CF910C9433
:10226000CF2ECF93DF93C0E8D2E060E0CE010E9492
:10227000CF2E2196C11584E0D807B9F7DF91CF9111
:10228000089580E00E94191160E087E290E00E94CA
:10229000CF2E60E086E290E00E94CF2E0E94B81020
:1022A0000E94311181E00C941911CF9384E090E0E9
:1022B0000E94B12EC82F82E290E00E94B12E982F8A
:1022C0008C2FCF91089583E290E00E94B12E82324C
:1022D00089F484E290E00E94B12E843059F485E2C2
:1022E00090E00E94B12E91E0853209F090E0892FB4
:1022F0008170089580E0FCCF0F931F93CF93DF93FD
:10230000C42FD0E0CC0FDD1F2EE1629FC00DD11D88
:10231000112436E9839FC00DD11D1124CE0188966A
:102320000E94B12E082F10E0102F0027CE018996B1
:102330000E94B12E9801282BC901DF91CF911F91E6
:102340000F910895462F672F843030F4753020F4B4
:102350004F3010F40C947C1190E080E00895DF92EF
:10236000EF92FF920F931F93CF93DF937C01009125
:102370000E0780910D07082BC7E0D0E010E0DC2E9F
:10238000C8010C2E02C0959587950A94E2F780FD4E
:102390000CC02197A0F7D12C8D2DDF91CF911F91EB
:1023A0000F91FF90EF90DF900895B7018C2F0E945E
:1023B000A2110E94CD04019761F3EECF0F931F93FA
:1023C000CF93FC01828100811181882389F06623EB
:1023D00079F0C8010E94AF11C82F682FC8010E9470
:1023E000EE03B8018C2FCF911F910F910C94A21185
:1023F000C8010E941C04C82FF4CFCF93DF93D82FBD
:10240000C92F0E94AF116D2F7C2F0E94A211DF9166
:10241000CF910C94CD040E94FD11282F92959F70AE
:10242000963091F060F4925F9F70923030F481E0CA
:10243000203F81F030F4283E30F080E008959A5F2C
:10244000F3CF243FD1F7089581E0283EE0F3213F08
:10245000A1F7F9CF089580910B0790911207892B6E
:102460008093D40290910C079923A1F0892B80933B
:10247000D40280912B018823D9F18091100787FF26
:1024800037C08EE1E6EDF2E090E0815098F59111D1
:102490000E94840440E250E064EC76E084ED92E037
:1024A0000E94842E892B59F180E2E4EDF2E0A4EC45
:1024B000B6E001900D928A95E1F7E091C206F091A5
:1024C000C3063097E1F080912B01882359F0809169
:1024D000100787FF07C08091D4028093D50286E061
:1024E0008093D4020280F381E02D84ED92E0099480
:1024F00086E0C8CF2191222341F29F5FC6CF089585
:10250000CF93C82F882309F463C08CEF8C0F813AD6
:10251000A8F580912B01882301F18091100787FF96
:102520001CC0EC2FE695E695E695F0E0EC52FD4FE9
:10253000828190E04C2F477021E030E002C0220FF2
:10254000331F4A95E2F782239323892B79F08C2F4E
:102550000E944F040E942B1209C0E6EDF2E0819127
:10256000C817A9F322E0EC3DF207C9F76C2F84ED00
:1025700092E00E94D50ACF910C942B1280E28C0F2E
:10258000883068F4C77021E030E001C0220FCA959E
:10259000EAF780910B07822B80930B07ECCF8BE53A
:1025A0008C0F833038F42C2F2452330BC901CF9178
:1025B0000C94A90AC85AC73158F4EC2FF0E0EE0F7A
:1025C000FF1FED55FD4F80819181CF910C94BF0A83
:1025D000CF910895882329F19CEF980F913A20F428
:1025E0000E944F040C942B1290E2980F983050F4F4
:1025F000877091E001C0990F8A95EAF7892F0E94B0
:102600007C04F0CF9BE5980F933020F490E080E0BD
:102610000C94A90A885A873120F490E080E00C9449
:10262000BF0A08950F931F93CF93C82F10E000E0C7
:10263000893311F400E510E08C2F0E9480120115FF
:10264000110531F48C2FCF911F910F910C94EA1248
:102650008FE99FE00197F1F700C0000001501109D8
:10266000EECF882339F090910B07892B80930B07CD
:102670000C942B120895882321F00E947C040C9462
:102680002B12089590E080E00E94A90A90E080E07B
:102690000E94BF0A109212070C942B1210920B0783
:1026A00080912B01E6EDF2E0882359F0809110072C
:1026B00087FF07C08EE1DF011D928A95E9F70C9430
:1026C000421386E0F8CF1F93CF93DF93CDB7DEB7E9
:1026D000AA970FB6F894DEBF0FBECDBF8AEF92E087
:1026E000FC0101962091F100208323E082309207C3
:1026F000B9F78091FB02893009F456C0C8F48230E2
:1027000009F4B3C0833009F482C0813071F1809143
:10271000E80083FF84C28091FA029091FB029A3014
:1027200008F07DC2E92FF0E0E85AF04D0C94F62D48
:102730008A3009F489C08B3051F78091FA028132D6
:1027400031F78091FE029091FF02892B01F7809171
:10275000E800877F8093E8000E948A0B8091FC024A
:1027600080932B010E944E13D2CF8091FA02813ABE
:1027700071F68091E800877F8093E8008091FE02E7
:102780009091FF02892B61F460E285E093E070E0B4
:102790000E94300B8091E8008B778093E800B7CFE0
:1027A00060E090E080E0F3CF8091FA02813209F09E
:1027B000AECF8091FE029091FF028D7F892B09F0B0
:1027C000A6CF8091E800877F8093E8008091E800A1
:1027D00082FF18C09091F3008091F200029731F4CB
:1027E0008091F100813011F0863021F48091F10068
:1027F000809325038091E8008B778093E8000E9406
:102800008A0B85CF8091AA068111E0CF80CF80917D
:10281000FA02813A09F07BCF8091FE029091FF028B
:10282000892B09F074CF8091E800877F8093E800BE
:102830008091E80080FFFCCF80912B018093F10014
:102840008091E8008E77D9CF8091FA02813209F029
:102850005ECF8091E800877F8093E8000E948A0B1A
:102860008091FD028093F60252CF8091FA02813A64
:1028700009F04DCF8091E800877F8093E800809138
:10288000E80080FFFCCF8091F602D8CF803899F025
:10289000823809F0C4C18091FE028F70873008F041
:1028A000BEC18093E9008091EB0085FB882780F909
:1028B0001092E90006C08091F70290917406911180
:1028C00082609091E800977F9093E8008093F100F8
:1028D0001092F1008091E8008E779DC1882309F461
:1028E0008BC1823009F09BC18091FC0281118EC1A5
:1028F0008091FE028F702FEF280F263008F08FC1D5
:102900008093E9002091EB0020FF80C1933031F4E7
:102910008091EB0080628093EB0078C19091EB0096
:1029200090619093EB0021E030E001C0220F8A9586
:10293000EAF72093EA001092EA008091EB008860A9
:10294000EACF81116CC11091FC021F778091E300E6
:102950008078812B8093E3008091E800877F8093CB
:10296000E8000E948A0B8091E80080FFFCCF8091F4
:10297000E30080688093E30082E0111183E080939C
:10298000AA064DC18058823008F049C14091FC022E
:102990005091FD024C3D83E0580799F583E08A830E
:1029A0008AE289834FB7F894DE01139620E03EE077
:1029B00051E2E32FF0E050935700849120FF03C0D1
:1029C00082958F703F5F8F708A30C8F0895C90E08D
:1029D0008D939D932F5F243161F74FBF8091E80065
:1029E000877F8093E8006AE270E0CE0101960E9442
:1029F000300B8091E8008B778093E80010C1805DF8
:102A0000E6CF8091FE029091FF02252F33272330DD
:102A1000310509F44AC078F52130310509F479C04F
:102A20008BE590E0EBE7F1E02230310509F0F7C0EB
:102A30002091E800277F2093E80020910003309147
:102A400001038217930708F49C0140E0211531052A
:102A500009F064C0411162C08091E80082FDC9CFD5
:102A60008091AA06882329F2853019F28091E80026
:102A700083FFF2CFBECF2132310509F43BC02232B1
:102A8000310509F0CCC08330910508F0C8C0FC01C5
:102A9000EE0FFF1FE95CFE4F0190F081E02D8C5C92
:102AA0009E4FDC018C9190E011C0CA019927413002
:102AB00089F082309105B1F0892B09F0B0C0E0E1D6
:102AC000F2E0E4918E2F90E0E0E1F2E0009709F46B
:102AD000A6C0AECFEEEFF1E0E4918E2F90E0EEEFE6
:102AE000F1E0F4CFE8EEF1E0E4918E2F90E0E8EE33
:102AF000F1E0ECCF8330910508F091C0880F991F69
:102B0000FC01E35CFE4F0190F081E02D89E090E054
:102B10008FCF82E190E0E6EDF1E08ACF8091AA06C6
:102B2000882309F466CF853009F463CF8091E800EB
:102B300083FD5FCF8091E80082FD8ECF8091E80019
:102B400080FF84CF9091F3008091F2002115310530
:102B500019F08830910550F041E0089709F040E005
:102B60008091E8008E778093E80070CF4491409385
:102B7000F1003196215031090196E8CF803809F0F3
:102B80004EC08091E800877F8093E8008091F80232
:102B90008093F1009FCE811142C01091FC0212304F
:102BA000F0F58091E800877F8093E8001093F802A9
:102BB0000E948A0B112311F084E005C08091E3008C
:102BC00087FDFACF81E08093AA0642E061EC81E0C4
:102BD0000E948E0F42E261EC84E00E948E0F42E27E
:102BE00061EC82E00E948E0F42E260EC83E00E9482
:102BF0008E0F8091AA0613C08091FC02813079F477
:102C000081E0933009F080E0809374061092E9002F
:102C10008091E800877F8093E8000E948A0B809172
:102C2000E80083FF0AC08091E800877F8093E80076
:102C30008091EB0080628093EB00AA960FB6F89427
:102C4000DEBF0FBECDBFDF91CF911F91089580935E
:102C50000D070C94421380930E070C94421321E04D
:102C600030E001C0220F8A95EAF780910E07822B8F
:102C70000C942B1621E030E001C0220F8A95EAF770
:102C8000209580910E0782230C942B1690910F07AC
:102C90008095892380930F07282F277091F4282F80
:102CA000082E000C330B9217130659F09091110760
:102CB00092FD07C08595859585950E943A161092DC
:102CC0000F070895CF93C0911107C2FB992790F980
:102CD000981799F080FBC2F9C09311076091100713
:102CE00084E090E00E94CF2E6C2F82E290E00E9460
:102CF000CF2E82E0CF910C944616CF91089580910B
:102D00000E07982F9670963019F488600C942B1645
:102D1000877FFCCF69EE7EEF90E080E00E94ED2E91
:102D200060E082E090E00E94CF2E60E083E090E0DF
:102D30000E94CF2E10920D0760E084E090E00E9488
:102D4000CF2E60E082E290E00E94CF2E60E085E02E
:102D500090E00E94CF2E60E086E090E00E94CF2EAF
:102D60006FEF87E090E00E94CF2E40E050E0BA0184
:102D700088E090E00E94E12E60E08DE090E00E940B
:102D8000CF2E40E050E0BA0188E190E00E94E12EB1
:102D900060E087E190E00E94CF2E40E050E0BA0171
:102DA0008CE190E00E94E12E70E060E080E290E033
:102DB0000E94ED2E40E050E0BA0188E190E00E94D0
:102DC000E12E80E00E9419110E94411140E050E084
:102DD000BA018FE090E00E94E12E40E050E0BA019D
:102DE00083E190E00C94E12E90E080E00E94B92E07
:102DF000893E9E4F11F40C94631180E00895E5E044
:102E0000F7E081E3808380912D0190912E01A091C4
:102E10002F0181839283A3838FE784838FEF858340
:102E200046E050E06CE170E0CF010E94BF2E1092AE
:102E300004070895DF92EF92FF920F931F93CF93B1
:102E4000DF93EC01FC01E45CFD4F8081909119015E
:102E5000892381F1D0900707009108071091060798
:102E6000E12EF12C0E946B2E282FC7018C549F4F0E
:102E700068E671E00E94E22D8E199F0997FD039686
:102E800095958795959587952370612F289F600D5F
:102E900011247D2D802F0E946B06462F672F282F2F
:102EA000CE01DF91CF911F910F91FF90EF90DF90B6
:102EB0000C94780ADF91CF911F910F91FF90EF90C2
:102EC000DF9008951F93CF93DF93EC01FC01E45C46
:102ED000FD4F8081909119018923C9F00E946B2ECA
:102EE000182F0E946B2E782F7F7720E8720F08F43E
:102EF0007FEF612F809108070E946B06462F672F96
:102F0000282FCE01DF91CF911F910C94780ADF9189
:102F1000CF911F9108955F926F927F928F929F92AF
:102F2000AF92BF92CF92DF92EF92FF920F931F93D7
:102F3000CF93DF93182F80912A01811323C09091A2
:102F4000050793702091290130E081E09217130664
:102F500009F480E0817080931A0180910A079091B2
:102F60001901981739F08093190140E060E080E082
:102F70000E947A0A1A3260F4E12FF0E0EE59F04D27
:102F80000C94F62D81E0E6CF80911A01811102C0E8
:102F9000C0E08CC140E060E080E00E947A0AF8CF97
:102FA000C0911801CC0FCC0F04E00C0FC02E0435DB
:102FB00010F093E5C92E6091060770910707809184
:102FC00008070E946B06F62EE72ED82ED0E0CC150F
:102FD00028F0C1E0033508F469C1DACFFE01E45CF2
:102FE000FD4F808190911901892331F02D2D4F2DB6
:102FF0006E2DCE010E94780A2196E9CFC09118016A
:10300000CC0FCC0F04E00C0F902E043510F083E5AC
:10301000982ED0910607B0900707C09008076D2F33
:103020007B2D8C2D0E946B06F62EE72ED82E8091DC
:1030300009076D2F680F7B2D8C2D0E946B06C62E05
:10304000B72EA82ED0E0C91520F6FE01E45CFD4F96
:10305000908180911901892359F02A2D4C2D6B2DD7
:1030600090FD03C02D2D4F2D6E2DCE010E94780AAC
:103070002196E9CFC0911801CC0FCC0F04E00C0FC2
:10308000E02E043510F0D3E5ED2ED0900707C09068
:10309000080720910907B0E4FB2E3F2D329F312D08
:1030A0001124F32ED0E0CE1508F093CFFE01E45C9E
:1030B000FD4F8081909119018923B9F0FE01EE0F37
:1030C000FF1FE956FE4F808182958F706091060741
:1030D0008F9D600D11247D2D8C2D0E946B06462F37
:1030E000672F282FCE010E94780A2196DCCFC0914D
:1030F0001801CC0FCC0F04E00C0FE02E043510F0BB
:10310000E3E5EE2ED0900707C0900807209109074D
:1031100070E4F72E3F2D329F312D1124F32ED0E095
:10312000CE1508F056CFFE01E45CFD4F80819091F2
:1031300019018923D9F0FE01EE0FFF1FEA56FE4F59
:103140008081F89EC001112465E0959587956A9568
:10315000E1F760910607680F7D2D8C2D0E946B06AC
:10316000462F672F282FCE010E94780A2196D8CFAC
:10317000C0911801CC0FCC0F04E00C0FC02E043509
:1031800010F043E5C42EF0900607D0910707E090B9
:1031900008076091090766956695669580914506D2
:1031A000909146060E94FC060E944B07805887FDBE
:1031B0008195880F282F3E2D239F212D11246F2DBF
:1031C0007D2F822F0E946B06F62EE72ED82ED0E0A0
:1031D000CC1508F0FECEFE01E45CFD4F808190919D
:1031E0001901892331F02D2D4F2D6E2DCE010E9416
:1031F000780A2196EDCF89E997E00E94C80D07C0B3
:1032000084EC97E0FACF81EF97E00E94780CC82F0A
:103210004DC08FE098E0F9CF8EE298E00E94D60C86
:10322000F6CF89E498E0FACF84E698E0E6CF86E628
:1032300098E0E3CF8FE698E0E0CF88E798E0DDCF35
:1032400081E998E0EBCF80EA98E0DFCF89EC98E065
:10325000DCCF8AED98E0E2CF8EEE98E00E94550D2B
:10326000D6CF8CE199E0FACF8BE499E0F7CFC0910B
:103270001A01C1113EC06091090720E1620F08F4F4
:103280006FEF80914506909146060E94FC066AE029
:1032900070E00E94CE2D892B09F07ACE0E946B2E11
:1032A00063E570E00E94E22D0E941A1780911801D8
:1032B0008F5F80931801C1110CC082E080932C01B4
:1032C00080911A01811105C0111103C083E0809320
:1032D0002C01DF91CF911F910F91FF90EF90DF9024
:1032E000CF90BF90AF909F908F907F906F905F90A6
:1032F0000895C0911801CC0FCC0F04E00C0F802F63
:10330000043508F083E5D0E0E82EF12CCE15DF057A
:103310000CF05FCECE010E941A172196F7CFC09114
:103320001A01C1111CC06091090720E1620F08F465
:103330006FEF80914506909146060E94FC0665E07D
:1033400070E00E94CE2D892B09F022CE0E946B2EB8
:1033500063E570E00E94E22D0E946217A7CFC09142
:103360001801CC0FCC0F04E00C0F802F043508F0AF
:1033700083E5D0E0E82EF12CCE15DF050CF029CE48
:10338000CE010E9462172196F7CFC0911801CC0F91
:10339000CC0FD4E0DC0FDD2ED43510F033E5D32E86
:1033A000E0900707F0900807009106076091090771
:1033B00066956695669580914506909146060E94B1
:1033C000FC060E944B0790E8980F97FD9195990F86
:1033D000692F3CE0639F612D1124600F7E2D8F2D9E
:1033E0000E946B06062FF72EE82EAC2EB12CAD14E2
:1033F00028F0C1E0D33508F459CFCACDF501E45C1B
:10340000FD4F808190911901892331F02E2D402F9D
:103410006F2DC5010E94780A9FEFA91AB90AE7CF5C
:1034200084E899E0EACE87EA99E0E7CE4091F20598
:103430005091F3056091F4057091F5058091450672
:1034400090914606A0914706B091480684179507CB
:10345000A607B70708F49CCD0E943607082F0E94E4
:10346000360793E5891BF0F7890FC82FD0E0FE01DE
:10347000E45CFD4F808190911901892309F458C1C2
:1034800020E040E060E001FD13C00E943607082FF5
:103490000E943607782F76952FE7720F08F47FEF9A
:1034A000602F809108070E946B06462F672F282FF8
:1034B000CE010E94780A2091090730E1230F08F419
:1034C0002FEF60E1822F90E00E94FC06BC0184EFA8
:1034D00091E00E94CE2D8091450690914606A091E4
:1034E0004706B0914806860F971FA11DB11D809316
:1034F000F2059093F305A093F405B093F50548CD3C
:1035000040914106509142066091430670914406F5
:103510008091450690914606A0914706B0914806D5
:1035200084179507A607B70708F432CD80911A01D2
:10353000882329F040E060E080E00E947A0A6091F0
:10354000060770910707809108070E946B06062FF7
:10355000772E682EC6EFD5E09BE4E92E91E0F92E98
:103560002EE0A22EB12C47016E01512CF6012191C3
:103570006F01F40181914F0190E0222309F480C092
:10358000262D402F672D0E94780AF6018081319701
:1035900080835394F6E05F12E9CF65018EE0582EE8
:1035A000C6018A509A4F4C01F601E55BFE4F8081BF
:1035B00090E0F4012081222309F466C0262D402FDB
:1035C000672D0E94780AF40131978081F40180838D
:1035D0005A94F1E0CF1AD10837E05312E1CFF70146
:1035E000878190E02F81222309F452C0262D402F9D
:1035F000672D0E94780AF701868190E02E812223B0
:1036000009F44AC0262D402F672D0E94780A0E9497
:103610003607837091E009F090E09E839F832F9698
:10362000FFE0EF0EF11C3FE0A30EB11C89E5A816E8
:10363000B10409F098CF2091090730E1230F08F475
:103640002FEF60E1822F90E00E94FC06BC0188EB26
:103650009BE00E94CE2D8091450690914606A09158
:103660004706B0914806860F971FA11DB11D809394
:10367000410690934206A0934306B093440688CC3B
:1036800020E040E060E07FCF20E040E060E099CFC4
:1036900020E040E060E0ADCF20E040E060E0B5CF6A
:1036A00088EB99E00E94150EB2CD8FEB99E0FACF2E
:1036B0002091490631E0231B08F420E065EC79E015
:1036C000822F0E94930EA3CD65EC79E080E0F9CFC4
:1036D0002091490631E0231B08F420E06FED79E0EA
:1036E000EFCF6FED79E0F2CF2091490631E0231B57
:1036F00008F420E067E17AE0E3CF67E17AE0E6CF23
:103700002091490631E0231B08F420E069E47AE0C7
:10371000D7CF69E47AE0DACF2091490631E0231B64
:1037200008F420E061E67AE0CBCF61E67AE0CECF24
:10373000C1E0BCCD4F925F926F927F928F929F9229
:10374000AF92BF92CF92DF92EF92FF92CF93C09051
:10375000EA05D090EB05E090EC05F090ED058FB711
:10376000F8944090EE055090EF056090F005709051
:10377000F1058FBF530142018C189D08AE08BF08A8
:103780000E940B0B6093EA057093EB058093EC05A8
:103790009093ED05A0917506E5E7F6E04A2F50E01D
:1037A0002FEFC20ED21EE11CF11CC418D508E6088A
:1037B000F708A5132EC04093750620917306C0E04C
:1037C000211108C020910507C22FC37019F0C22F24
:1037D000C695C69520912C01223009F45AC060F597
:1037E00021113AC010921801609345067093460665
:1037F000809347069093480689E2E5E7F6E0A9E45E
:10380000B6E001900D928A95E1F781E080932C015A
:1038100015C0218D328D2901712C612CC414D50461
:10382000E604F70420F441505F5F3296C2CF280DC2
:10383000391D328F218FF8CF2330B1F1CF91FF9016
:10384000EF90DF90CF90BF90AF909F908F907F9040
:103850006F905F904F9008958C2F0E948B17CC2310
:1038600069F30E949D0A81FFE9CF2FEF4FEF6FEFC1
:103870008EE190E0CF91FF90EF90DF90CF90BF90DE
:10388000AF909F908F907F906F905F904F900C942F
:10389000780AC0932A0180910507837080932901DB
:1038A0000E94E51D83E0B2CF80910407882351F088
:1038B00046E050E06CE170E085E097E00E94BF2EAA
:1038C00010920407409145065091460660914706C4
:1038D000709148062FB7F8948091EE059091EF050E
:1038E000A091F005B091F1052FBF841B950BA60B9D
:1038F000B70B4A97A105B10508F4A0CF10922C018F
:103900009DCFFF920F931F93CF93DF9300D000D0F2
:10391000CDB7DEB7FC01F62E042F122F83359105AB
:1039200008F057C0EE0FFF1FEE0FFF1FBF016459D5
:103930007B4F44E050E0CE0101960E947B2E8981AE
:10394000982F9370492F50E0869586952A81322FC3
:103950003295330F330F307CE32FE82B822F86957F
:103960008695F82FF370AFE5B1E09A9FB0019B9F69
:10397000700D1124CB01865D9C4FE80FF91FF0827A
:1039800022952F703B81E32FE295E07F6E2F622B13
:10399000232F22952F70722F7370680F791FFB01F0
:1039A000008332953695369533702C81E22FEE0FD9
:1039B000EE0F6E2F632B722F72957695769573703E
:1039C000860F971FFC01108347575B4F81E0FA0178
:1039D00080830F900F900F900F90DF91CF911F91E8
:1039E0000F91FF900895FF920F931F93CF93DF9352
:1039F000182F062FF42ED0E0C0E02F2D402F612F7E
:103A0000CE010E94811C2196C335D105B1F7DF910B
:103A1000CF911F910F91FF900895E4E0F1E0808332
:103A2000618324E630E042E050E0BF0180E60C9480
:103A3000A12DAF92BF92CF92DF92EF92FF920F93A0
:103A40001F93CF93DF9300D000D0CDB7DEB70E9495
:103A5000F32C65EC8EEF0E940D1D64E08DEF0E944B
:103A60000D1D61E080E00E940D1D6FEF81E00E945E
:103A70000D1D67E782E00E940D1D8FE39CE9019711
:103A8000F1F700C000002CE6C22E24E0D22E08EB95
:103A900015E03FE5E32EFF24F394BB24BA94AA2457
:103AA000A39444E050E0B601CE0101960E947B2E23
:103AB0008981982F9370692F70E0869586952A8169
:103AC000322F3295330F330F307C432F482B822F08
:103AD00086958695582F53709E9DF0019F9DF00D01
:103AE0001124CF0186579B4F480F591FFA01B0820E
:103AF000322F32953F702B81E22FE295E07F4E2FDF
:103B0000432B322F32953F70532F5370480F591F5C
:103B1000FA01B08222952695269523703C81E32FE9
:103B2000EE0FEE0F4E2F422B532F52955695569572
:103B30005370840F951FFC01B08267517A4FFB01CF
:103B4000A082F4E0CF0ED11C0C151D0509F0A9CF01
:103B500065EC8EEF0E940D1D62E08DEF0E940D1D41
:103B60009AE8E92E94E0F92E10E0F70161917F01C7
:103B7000812F0E940D1D1F5F143BB9F765EC8EEF7E
:103B80000E940D1D63E08DEF0E940D1D8EE3E82E57
:103B900085E0F82E10E0F70161917F01812F0E94EE
:103BA0000D1D1F5F1B3AB9F71092E9050F900F909A
:103BB0000F900F90DF91CF911F910F91FF90EF9099
:103BC000DF90CF90BF90AF9008950F931F93CF9346
:103BD000DF9380918904882309F441C065EC8EEF5E
:103BE0000E940D1D60E08DEF0E940D1DD0E0C0E031
:103BF00004EB10E0CE01B8010E94E22D8093040195
:103C000082E1FE01E65DFC4FA5E0B1E001900D927E
:103C10008A95E1F724E630E043E150E064E071E0AA
:103C200080E60E94A12D892BD1F46296C63581E0F1
:103C3000D807E1F482EA8093040189E0E0E8F4E047
:103C4000A5E0B1E001900D928A95E1F724E630E01D
:103C50004AE050E064E071E080E60E94A12D1092FD
:103C60008904DF91CF911F910F910895C43BD10535
:103C700009F665EC8EEF0E940D1D61E08DEF0E944C
:103C80000D1DB8CF1F921FB61F9211248F939F93C3
:103C9000AF93BF9380917206811113C08091EE059E
:103CA0009091EF05A091F005B091F1054196A11D0D
:103CB000B11D8093EE059093EF05A093F005B093AE
:103CC000F105BF91AF919F918F911F901FBE1F90E3
:103CD00018952FB7F8948091EE059091EF05A0917B
:103CE000F005B091F1052FBF08959C014FB7F894EE
:103CF0008091EE059091EF05A091F005B091F1054E
:103D00004FBF821B930B08954F925F926F927F92E9
:103D10008F929F92AF92BF92CF92DF92EF92FF92DB
:103D20000F931F93CF93DF93CDB7DEB72A970FB6CC
:103D3000F894DEBF0FBECDBFFE0131968AE0DF01F1
:103D40001D928A95E9F79FE8E92E92E0F92E8F01FE
:103D500024E9622E22E0722E2F01AA24A394B12C12
:103D600043EA842E42E0942EF70181917F018F3F38
:103D700009F445C0F894E82FE295EF70F0E021A136
:103D80008F70A50102C0440F551F8A95E2F7CA0142
:103D9000922F982B91A392A18095892382A3789446
:103DA00000C0E4E9F2E021E030E0D12CC12C4191E7
:103DB0004F3F09F45DC0A42FA295AF70A05EB0E0A4
:103DC0008C9190E04F7002C0959587954A95E2F7E7
:103DD00080FD4EC0C901C82AD92A220F331F8E1672
:103DE0009F0629F7F701319780818F3F11F00E94DC
:103DF000520650EA5A95F1F7D801CD92DC920E5F47
:103E00001F4F6E147F0409F0AFCF4AE050E0B201BB
:103E100088EB96E00E94842E9C0111E0892B09F426
:103E200010E0232B41F18AE0F201A8EBB6E001900B
:103E30000D928A95E1F781E08093AD060E94691E9C
:103E40009093AC068093AB068091AB069091AC0644
:103E50000E94751E059798F08AE0E8EBF6E0AEEA5E
:103E6000B6E001900D928A95E1F71092AD0607C079
:103E700080E090E0B0CF8091AD068111E5CF812F39
:103E80002A960FB6F894DEBF0FBECDBFDF91CF915B
:103E90001F910F91FF90EF90DF90CF90BF90AF9068
:103EA0009F908F907F906F905F904F900895FF92BA
:103EB0000F931F93CF93DF93C62FD42F122F8823F6
:103EC000A9F0609302070E94691E9093F502809307
:103ED000F402C77081E001C0880FCA95EAF7DF914C
:103EE000CF911F910F91FF900C9431138091020795
:103EF000681334C08091F4029091F5020E94751EFF
:103F0000883C910558F500E20D0FCD17A9F0C77058
:103F1000FF24F3948F2D01C0880FCA95EAF70E9401
:103F20003B13083048F48D2F877001C0FF0C8A9531
:103F3000EAF78F2D0E943113812F0E94121308304F
:103F4000A0F4D77081E001C0880FDA95EAF7DF911D
:103F5000CF911F910F91FF900C943B13C77081E09C
:103F600001C0880FCA95EAF7F2CFDF91CF911F9178
:103F70000F91FF9008953F924F925F926F927F92C0
:103F80008F929F92AF92BF92CF92DF92EF92FF9269
:103F90000F931F93CF93DF9300D000D0CDB7DEB740
:103FA0007C01FC019081818123813481232B21F0CC
:103FB00089238F3F09F075C50F900F900F900F90D8
:103FC000DF91CF911F910F91FF90EF90DF90CF90F5
:103FD000BF90AF909F908F907F906F905F904F9029
:103FE0003F900895980122513F452031310508F056
:103FF000FEC48FEF93E00E94B12E025130E8832E71
:1040000032E0932E882389F180910F078770A1F207
:10401000F7018281882381F28091110782FDCCCF44
:1040200082E00F900F900F900F90DF91CF911F9132
:104030000F91FF90EF90DF90CF90BF90AF909F9047
:104040008F907F906F905F904F903F900C944616AA
:104050008114F4E09F06C1F2C4010E94B12E8111C7
:1040600001C001502FEF821A920A0111F1CF809105
:10407000300190913101A0913201B09133018983D7
:104080009A83AB83BC83442443942AE0322E840178
:104090000F5F1F4FC4010E94B12E89831A828823AB
:1040A00009F4B2CF9FEF980F9330F8F48A834982D6
:1040B00032E0830E911CC8010E94B12E8B838823AD
:1040C00009F4A2CF8E010F5F1F4FF8012081222338
:1040D000F1F2213009F044C091818281913039F4AC
:1040E0000E5F1F4F0E94121308C04801EBCF9230A1
:1040F00039F40E5F1F4F0E9480120F5F1F4FE5CFF4
:10410000933029F40E5F1F4F0E94EA12F6CF9430CD
:1041100019F00F5F1F4FF1CF0E5F1F4F20E030E00F
:10412000A8014F5F5F4F8053990B8A30910560F073
:104130002115310511F38FE99FE00197F1F700C0D8
:10414000000021503109F4CF329EB001339E700D32
:1041500011249C01260F371FF80181818A01E0CFCD
:10416000E22FF0E0E851F94F5490822F8695869522
:10417000869590E0FC01E852F94FE4912770F0E059
:10418000022E02C0F595E7950A94E2F73F0131E06F
:1041900063227724FC01E853F94FA490B12C022E3E
:1041A00002C0B594A7940A94E2F7E1E0AE22BB24E2
:1041B000FC01E854F94FC490D12C02C0D594C794A7
:1041C0002A95E2F7F1E0CF22DD246114710419F0A1
:1041D00081EE0E948012A114B10419F086EE0E94B3
:1041E0008012852D0E941213AB2819F086EE0E94D2
:1041F000EA12672819F081EE0E94EA12CD2809F42C
:104200007CCF8CE26FCF81E00E942F160E947F1638
:10421000FBCE81E00E943A16F9CF82E0F5CF053F50
:104220002CE51207D1F027E245EE66EE063F3CE5AD
:10423000130741F027E245EE64EE043F9CE51907C1
:1042400009F0FAC30E94571FDFCE27E245EE65EE64
:10425000F9CF26E241EE60EEF5CF26E241EE62EEC6
:10426000F1CF98012A5F3C452930310508F4F9C3A4
:1042700006319CE51907D9F490910B07882309F4BE
:10428000EBC0892F8A7A91E009F490E090930307BC
:1042900069E2811165E384ED92E00E94D50A0E94F3
:1042A0002B12B2CE053A8DE5180709F4DAC30A35A8
:1042B0003DE5130709F4AFC108F08EC101159CE577
:1042C000190709F49BC10E3D1C4509F0D3C00E949B
:1042D0008A169ACEF801E350FC4580911007816060
:1042E000E331F10550F5E457F04D0C94F62D033011
:1042F000FDE51F0778F40A3F2CE5120708F4C1C357
:10430000F801EB5FFC45E830F10510F5E156F04DA2
:104310000C94F62D01363DE5130709F496C0053AD5
:104320001D4509F0AEC390911007892F8E7F90FF35
:10433000816003C080911007826080931007A1C341
:10434000809110078460F9CF809110078860F5CFC5
:104350008091110781608093110793C380911107A9
:104360008260F9CF809110078061E7CF80911007BC
:104370008062E3CF809110078064DFCF0E944E13EC
:10438000809110078068D9CF809110078C60D5CFBD
:10439000809111078360DFCF809110078E7FCDCF92
:1043A000809110078D7FC9CF809110078B7FC5CF7B
:1043B00080911007877FC1CF809111078E7FCBCF6F
:1043C000809111078D7FC7CF809110078F7EB5CF69
:1043D000809110078F7DB1CF809110078F7BADCF7B
:1043E0000E944E13809110078F77A7CF80911007FE
:1043F000837FA3CF809111078C7FADCF8091100771
:1044000082FB992790F921E0922790FB82F990FB9B
:1044100083F993CF80911107982F909591708E7F9B
:10442000892B90FB81F997CF0E944E139091100732
:10443000892F97FB87F9805880CF61E08EE090E06C
:104440000E94CF2E1EC360E0F9CF90911007892FF4
:104450008F7E94FF806171CF80910307811104C02A
:1044600089E20E944F041BCF85E3FBCF0D351D452C
:1044700009F4CACDF7018281C080D180882309F474
:10448000CEC0C6010E94AF11182F682FC6010E942E
:10449000EE03B601812F0E94A2110E94CD048C016F
:1044A000F701B280A580A2949FE0A92280910F0716
:1044B0008770C1F0CB2CBB20B1F0812F807F80347E
:1044C00021F080E2800F883068F08091110782FD32
:1044D00009C082E00E94461680910F078770CC24A5
:1044E000C3948111C12CD12ED2948FE0D822F8E050
:1044F000DF1609F493C1FD1508F4D1C023E02D1592
:1045000008F492C0812F807F1F7031E03D1508F0C4
:10451000DAC0803211F01295107F002309F409C12E
:10452000013009F443C1BB2009F44DC1AA2009F4AC
:1045300043C1F701858180FFDBC08F7085833CC15B
:104540008091050791E089278093050710922C013F
:104550008091040781608093040756CD43E85FE0B3
:1045600069E77FE00E94980A4FCD49E75FE063E882
:104570007FE0F8CF45E15CE06CE07CE0F3CF4CE01D
:104580005CE065E17CE0EECF4AE25CE06EE17CE07D
:10459000E9CF4EE15CE06AE27CE0E4CF42E45CE03B
:1045A00066E37CE0DFCF46E35CE062E47CE0DACF08
:1045B0004AE85AE06CE77AE0D5CF4CE75AE06AE87F
:1045C0007AE0D0CF81E00E945C0F1ECD85E0FBCF6A
:1045D0008DE0F9CF82E1F7CF0B35FDE51F07E9F05C
:1045E0000C351D4509F046CF8091110782FB8827C5
:1045F00080F991E089270E9462163CCF0E944E13F9
:104600003FEF84E39CE0315080409040E1F700C0F0
:1046100000000E941F1081E0EECF80E0ECCFC601C9
:104620000E941C04182F35CF84E0D81609F4DCC092
:10463000ED2DE850FF0B349710F40E949D0ACC201A
:10464000A9F080910F0780FD11C0F70112828595B6
:10465000859585950E942F16C7010E94BB1F8091EA
:104660000F078595859585950E943A1660E0C701EC
:104670000F900F900F900F90DF91CF911F910F919E
:10468000FF90EF90DF90CF90BF90AF909F908F9072
:104690007F906F905F904F903F900C94DE1199E067
:1046A000D91609F42BC186E08D0D8F70823008F089
:1046B000BFCF023F09F031C1812F8F71B1102AC1E4
:1046C0000E942F16B5CF882311F01295107FBB20C2
:1046D000B9F0112369F080E2800F883010F00111E9
:1046E00009C080910B07812B80930B070E942B122E
:1046F000802F2FC080911207812B80931207F6CF55
:10470000802F0E94EA12112309F492CF80E2800FD9
:10471000883010F0011104C0812F0E947C0406C073
:104720001095809112078123809312070E942B120B
:104730007FCF2091110722FF16C0BB2069F0112303
:1047400039F080910B07812B80930B070E942B126D
:1047500080E00E9480126CCF80E00E94EA12112358
:1047600009F466CFD9CFBB20A1F090910C07812F1F
:10477000892BA11003C00E9431135ACFE1E0AE1281
:10478000FACF22FD55CF981709F452CF80930C072A
:104790004FCFA11006C00E948404812F0E943B13BA
:1047A00047CFF1E0AF1609F443CFF5CFBB2031F08E
:1047B00025E02A1508F43CCF812FDDCF34E03A15EF
:1047C00008F436CFEACFAA2041F3093349F4FFEFCA
:1047D00027EE33E0F15020403040E1F700C0000008
:1047E000802F0E94EA1224CF812F869586958370B0
:1047F00061F0813009F01CCFC8019370B11002C084
:1048000090E080E00E94BF0A13CFC8019370B110FE
:1048100002C090E080E00E94A90A0ACF812F837035
:10482000A1F5B11005CF802F829586958770880FEE
:10483000880F402F4F70082E01C0440F0A94EAF7EA
:10484000202F207104FF07C02FE030E001C0220FAD
:104850008A95EAF72095169516951370123081F017
:10486000822F842B133031F080910D07113029F005
:10487000242B82230E942716DBCE842B822BFACF97
:10488000242B80910D078227F5CFBB2061F110FF0B
:10489000CFCE802F829586958770880F880F402F06
:1048A0004F70082E01C0440F0A94EAF7202F2071A0
:1048B00004FF07C02FE030E001C0220F8A95EAF71D
:1048C0002095169516951370123099F0822F842B2F
:1048D000133031F080910E07113041F0242B8223E8
:1048E0000E942B16A5CE11FFA3CED3CF842B822BF3
:1048F000F7CF242B80910E078227F2CF1F70BB20A9
:1049000029F0812F0E942F16802F35CF802F0E94F3
:104910003B13812F0E943A168BCE033F60F4003F79
:10492000B9F0013F81F0BB2009F451C0A110E0CEE5
:10493000812F8F71C5CE033F09F1043FA1F780910C
:10494000110782FF26C0812F8F71BB2019F3B8CECB
:10495000BB2079F084E08A1508F46ACE1F7181E0EB
:1049600090E001C0880F1A95EAF790910E07892709
:10497000B7CF95E09A1508F45BCEF0CF80E0BB206E
:1049800009F4AECF1F7181E001C0880F1A95EAF7D4
:10499000A7CFBB2089F01F71812F0E942F16809115
:1049A000110782FD07C0E8E01E9FC001112483604B
:1049B00080930F07812F84CE81E00E944616F1E09C
:1049C000FA1508F035CE82E00E94461631CEAA20B4
:1049D00059F0093309F004CF2FEF37EE83E021506F
:1049E00030408040E1F7FACE812F8F7193CF0031B4
:1049F000FFE51F0709F407CC01312FE5120709F481
:104A00000CCC033F2CE5120709F423CC08F007CCAB
:104A1000083D9CE5190709F418CC28E241E0093D5E
:104A2000ECE51E0709F413CC26E241EE61EE073DEA
:104A3000FCE51F0709F406CC882309F447C010924F
:104A400002070136EDE51E0761F008F02BCC0631B8
:104A50002CE5120708F005CC02303CE5130708F4FA
:104A600026CC0E94551190931107809310070631B0
:104A70009CE5190708F03BCC0230ECE51E0708F076
:104A800029CC609110071091110784E090E00E94FA
:104A9000CF2E612F82E290E00E94CF2E0E944E1313
:104AA000B3CA61E0C7010E94DE118C01F701828167
:104AB000811198CA00313FE5130709F4AACB0131EF
:104AC0009FE5190709F09DCF82E0A4CB0631FCE5F4
:104AD0001F0709F4D1CB80910B078272063DECE5EC
:104AE0001E0708F0C3CC023CFCE51F0708F4C2CC4B
:104AF000F801E35CFC45E331F10508F021CDE9550F
:104B0000F04D0C94F62D1F93CF93DF9380914A07BD
:104B1000807FA9F480914707882389F0809114074A
:104B2000C09113077091450760914607A09148070F
:104B3000B0914907D62FD72316E0C81304C0DF91E0
:104B4000CF911F91089590E0109711F0DF3F19F475
:104B500001968770F2CF189F9001199F300D112494
:104B6000F901EB5EF84F41816413F2CF40814713A6
:104B7000EFCF42814111ECCF438154814A1B5B0B43
:104B8000483C510528F780914A078F7080618093D7
:104B90004A07F901E65EF84F80818F70806180835B
:104BA00085E497E00E94BB1FDF91CF911F910C9489
:104BB00045048F929F92AF92BF92DF92EF92FF9245
:104BC0000F931F93CF93DF93CDB7DEB72B970FB61D
:104BD000F894DEBF0FBECDBF8C0185E0F801DE0189
:104BE000179601900D928A95E1F7F801E280A38073
:104BF000B48085E4882E87E0982E909145078091B7
:104C0000460720914807309149072115310529F0C1
:104C1000482F49234F3F09F028C1EE2009F433C142
:104C2000F801808191810E940B12F82E882309F4EB
:104C30002AC186E0F801A5E4B7E001900D928A95BB
:104C4000E1F70E94832521C0D0904A074D2D407F77
:104C5000283C310508F0A8C0F80121814111C3C0EA
:104C6000FE2C281325C08081891322C0E11020C0AA
:104C70008D2D8F70806180934A0785E497E00E94B4
:104C8000BB1F80914A07F80185838F2D2B960FB6A5
:104C9000F894DEBF0FBECDBFDF91CF911F910F9172
:104CA000FF90EF90DF90BF90AF909F908F9008950E
:104CB0003F81AB2829F0822F83238F3F09F090C0DA
:104CC00080E0F82FF170DF2EE09114074091130778
:104CD00056E080FD1CC0EE20C1F280914A07816041
:104CE00080934A07F12CD1CF8E2F90E05E9FF00188
:104CF0001124EB5EF84F6181261306C060813613E4
:104D000003C06281E612E7CF0196E82FE770E41353
:104D1000EBCF8F8198850E94FD11292F22952F704E
:104D2000903260F0225F2F70223078F49F7051F043
:104D3000F8019581907F31F4D12C0AC09F7011F059
:104D40008823D1F3805E8830B8F3C8010E94BB1F6E
:104D5000FD2C9BCFF801808191810E940B1288234A
:104D600009F491C0EE2009F48EC080914A07803288
:104D700070F080914507909146079A8389831B8242
:104D8000BD82AC82DE82CE0101960E94BB1F86E00E
:104D9000F801A5E4B7E001900D928A95E1F70E9431
:104DA0008325FF24F39471CF411132C085E497E04D
:104DB0000E94BB1F86E0F40111928A95E9F792CF19
:104DC000F801808191810E940B128111E0CF8091C6
:104DD0004A07816080934A07C8010E94BB1F55CFD4
:104DE00081E08E256ECF2813B5CFF801808189131D
:104DF000B1CFE110AFCFD582C8010E94BB1F86E0C2
:104E0000F801A5E4B7E001900D928A95E1F73DCF56
:104E1000F801218182139ECFF801808189139ACFF6
:104E2000E11098CFD582C8010E94BB1F86E0F40133
:104E300011928A95E9F729CFF80121818213C0CF19
:104E4000F80180818913BCCF80914A0780FDD7CFBC
:104E5000982F907FA1F28583903F71F2982F907FD9
:104E6000905F8F70892B8583C7CFF0904707A5018E
:104E7000421B530B9A01F110E7CE283C3105B0F6E6
:104E8000FE2CE110D9CFC8010E94BB1F8ACF1F930F
:104E9000CF93DF93CDB7DEB767970FB6F894DEBF39
:104EA0000FBECDBF342F4B8B252F5C8B962F6D8B78
:104EB0007E8B8F8B4E895F896111109212071A8A3F
:104EC0003D872E879F87598B488B86E0FE013D9654
:104ED000DE01179601900D928A95E1F7CE010796B3
:104EE0000E94D925882389F016E0809114079091BB
:104EF0001307891349C067960FB6F894DEBF0FBE3B
:104F0000CDBFDF91CF911F91089586E0FE013796C6
:104F1000DE01119601900D928A95E1F79F818885B7
:104F200020911307409114076A857B85672BE1F276
:104F300089238F3FC9F230E0C90101968770992714
:104F40004817190671F40E944E131092130710921D
:104F5000140786E0E5E4F7E0DF011D928A95E9F7A2
:104F6000C3CF96E0929FD001939FB00D1124AB5E0A
:104F7000B84FFE01319601900D929A95E1F780931A
:104F800013070E944504B0CF819FC00111248B5E9E
:104F9000984F0E94D925882309F4ADCF809114073A
:104FA00090E0019687709927809314079ECFCDB724
:104FB000DEB7A4970FB6F894DEBF0FBECDBF84B79F
:104FC000877F84BF0FB6F894A895809160008861B0
:104FD00080936000109260000FBE80E890E00FB6F2
:104FE000F89480936100909361000FBE85B780684C
:104FF00085BF85B7806885BF80E596E09093D30232
:105000008093D2020E94DA0B0E94BE0F8091E200D0
:1050100084608093E20078948091AA06882399F0B6
:105020008091E9001091EC001795112717958F706A
:10503000182B1092E9008091E80083FD0E94631311
:105040001F701093E90082E084BD93E095BD9AEF54
:1050500097BD80936E000E946311811102C00E946F
:1050600041110FE812E074E9E72E72E0F72ED80143
:105070008D918D018F3F11F00E945206E016F106CE
:10508000B1F704E912E0F80181918F018F3F11F02F
:105090000E945206F2E0033A1F07A9F78AE0EEEAFF
:1050A000F6E0DF01282F1D922A95E9F7E8EBF6E0FC
:1050B000DF011D928A95E9F70E94F416811102C062
:1050C0000E948A1682E090E00E94B12E80939E0694
:1050D0000E94551190931107809310070E94841E1F
:1050E000EFE3FCE93197F1F700C000000E94841E55
:1050F0008091AE0680FF08C06FEF7FEF90E080E008
:105100000E94ED2E0E941F1083E090E00E94B12EBD
:105110000E9427160E94191D1092490640E150E096
:105120006FEF70E082E696E00E949A2E109275066C
:1051300040E150E06FEF70E08EE896E00E949A2E1A
:105140000E94F416811104C00E948A160E94FF1664
:1051500046E050E06CE170E085E097E00E94A12E0F
:1051600010920407809105078C7F11F40E94FF16AE
:105170008DE191E09093C3068093C20648E1242E0E
:10518000312C58EBA52E56E0B52E68E0462E512C5A
:105190008091AA06853089F420E4F22E33E0E32ED4
:1051A00000E112E18091AA06853009F49FC00E94B7
:1051B0004E130E949D0A109273060E94841E811154
:1051C0000E940B0B9EEAE92E96E0F92EEFE9F6E03D
:1051D000D70110E000E0602F8D909D9021913191DA
:1051E0002815390509F425C128253925712CCC2429
:1051F000C394D12CA9014C215D21452B09F413C185
:1052000079826A838C209D2081E08114910409F4C5
:1052100080E08B830E94691E8160782F9D838C8340
:1052200049815A816B81892F0E944727F801EE0F2F
:10523000FF1FE156F94F808191818C259D25918337
:105240008083892871F08FE0809FF001819FF00DAD
:105250001124E55BFE4FE70DF11D80818F3F09F0C2
:1052600093C0912C092D10E080917506800F912F2D
:10527000911D09975CF16201C01AD10AB8016A5800
:10528000794FA60186E796E00E94912EB8016258F8
:10529000794FA6018EE796E00E94912EA601440F59
:1052A000551FB801660F771F6257794F8EE896E059
:1052B0000E94912EB8016A57794FA60186E896E0C0
:1052C0000E94912E88E08919809375068091750659
:1052D00090E0A62DB0E09D01220F331F2A563E4FCD
:1052E000AA0FBB1FBD0169567E4F66C08091AA06FA
:1052F000843009F437C00E949A1B80917306811193
:105300000DC00E948B1710922A01809105078370AF
:10531000809329010E94E51DE0922C01F1E0F093B9
:105320007306109272060FB6F894A895209260004A
:105330000FBEF092600083B7817F846083BF83B724
:10534000816083BF7894889583B78E7F83BF0FB6C3
:10535000F894A89580916000886180936000109215
:1053600060000FBE80917406882309F41BCF0E9451
:10537000841EEEEAF6E081919191892B09F0CFC16C
:10538000AE16BF06C1F70ECF682E992493946ACF4C
:1053900090E0FC01EB58F94FD9015C915183DB019E
:1053A0005C915187618A880F991FFC01EB58F94F76
:1053B000128E118E842F91E041E0480F991540F331
:1053C000809375060E949A1B0E949D0A9091A906DF
:1053D00089138093A9068091AA06843009F0D8CE5B
:1053E00083E08093E9008091E80082FFD1CE809134
:1053F000E80090E085FF05C00E94A90B882381F199
:1054000091E08091E8008B778093E800992309F47C
:10541000BFCEE981E150E33108F0BFC0F0E0E654CF
:10542000F04D0C94F62D7394CC0CDD1C8FE07812AB
:10543000E1CE0F5F1F4F0530110509F0CCCE8FEF85
:1054400089838A831B820E94691E8160782F9D83D5
:105450008C8349815A816B81892F0E944727B2CF63
:1054600000E210E0DE0111966D018091E80085FDFB
:105470000AC08091E8008B778093E8000E94A90B16
:10548000882399F3BDCF8091F100F60181936F01DC
:105490000150110951F7B4CF1A8289E08B8329C0DA
:1054A0008A81823079F0833009F449C0813009F073
:1054B00074C00E940B0B0E94FC2D6B837C838D8338
:1054C0009E8317C086E290E00E94B12E90E0B0E08B
:1054D000A0E0CC24D82EE92EFA2E87E290E00E949C
:1054E000B12E1B821C82C82ADC24CD24DC24DE825F
:1054F000CD828091AA06843009F04ACE8091E900DD
:105500001091EC001795112717958F70182B82E0DA
:105510008093E9008091E80080FF0DC050E040E0FA
:1055200060E270E0CE0101960E944E0C8091E8008E
:105530008E778093E8001F701093E90029CEFE015A
:105540003196D7018C9111969C91B2E0EB0EF11C33
:10555000928383833296AE14BF0499F7CACF8A81AF
:105560008230D9F48B819C81AD81BE8189A39AA3BD
:10557000ABA3BCA3BC01CD010E94FC2D6B017C013F
:1055800087E290E00E94CF2E99278F2D7E2D6D2DE2
:1055900086E290E00E94CF2EACCF8FEF8983A9CF17
:1055A0004C816B818A810E947C11982789279827DA
:1055B0009E838D839ECF0D811E811027012710278A
:1055C0008A81EB809EE1E99E70011124A6E98A9F01
:1055D000E00CF11C11248C8190E0880F991FE80EDB
:1055E000F91E612FC70188960E94CF2E602FC70138
:1055F0008996D0CF0E94B8107CCF80E18A8379CF82
:10560000B1E0BA8380E84ACF0A811B8110270127C5
:1056100010278C816801C80ED11C7E01E5E0EE0EDA
:10562000F11CC80180589D4FC016D10609F461CF06
:105630000038F1E01F0740F40E94B12ED7018D938E
:105640007D010F5F1F4FEDCF80E0F8CF0A811B81F6
:10565000102701271027FE0131967F018C816F01F1
:10566000C80ED11CC80180589D4FCE14DF0409F428
:1056700040CF0038F1E01F0728F4D70114966C9151
:105680000E94CF2E0F5F1F4FBFEFEB1AFB0AEACF2E
:105690000E9431112ECF84E0B1CF0A811B811027E7
:1056A000012710278C816801C80ED11C7E01E5E01E
:1056B000EE0EF11CC8018896C016D10609F419CF68
:1056C0000835F2E01F0740F40E94B12ED7018D93F8
:1056D0007D010F5F1F4FEECF80E0F8CF0A811B8165
:1056E000102701271027FE0131967F018C816F0161
:1056F000C80ED11CC8018896EC14FD0409F4F9CE3B
:105700000835F2E01F0728F4D70114966C910E9427
:10571000CF2E0F5F1F4FBFEFEB1AFB0AEBCF09BD78
:1057200019BD09B400FEFDCF8091D8008F7D809314
:10573000D8008091E00082608093E0008091E000DA
:1057400081FDFCCF0E944E132FEF83E294EF215096
:1057500080409040E1F700C0000024CD78941F9273
:105760001FB61F9211248F939F93AF93BF93809185
:10577000EE059091EF05A091F005B091F10501962D
:10578000A11DB11D8093EE059093EF05A093F00548
:10579000B093F105BF91AF919F918F911F901FBE64
:1057A0001F9018951F920F920FB60F9211242F93EE
:1057B0003F934F935F936F937F938F939F93AF9399
:1057C000BF93EF93FF938091E10082FF09C0809126
:1057D000E20082FF05C08091E1008B7F8093E100B1
:1057E0008091DA0080FF24C08091D80080FF20C023
:1057F0008091DA008E7F8093DA008091D90080FF5B
:105800009BC080E189BD82E189BD09B400FEFDCF66
:1058100081E08093AA068091F902811109C00E945B
:10582000DA0B0E94BE0F8091E20084608093E20058
:105830008091E10080FF17C08091E20080FF13C0DB
:105840008091E2008E7F8093E2008091E20080618F
:105850008093E2008091D80080628093D80019BCC8
:1058600085E08093AA068091E10084FF29C08091A1
:10587000E20084FF25C080E189BD82E189BD09B4D1
:1058800000FEFDCF8091D8008F7D8093D80080915D
:10589000E1008F7E8093E1008091E2008F7E809313
:1058A000E2008091E20081608093E2008091F80242
:1058B000882309F447C084E08093AA068091AA0651
:1058C0008091E10083FF27C08091E20083FF23C025
:1058D0008091E100877F8093E10082E08093AA06B7
:1058E0001092F8028091E1008E7F8093E100809118
:1058F000E2008E7F8093E2008091E20080618093DD
:10590000E20042E060E080E00E948E0F8091F000B3
:1059100088608093F000FF91EF91BF91AF919F91CC
:105920008F917F916F915F914F913F912F910F9048
:105930000FBE0F901F90189519BC1092AA061092D6
:10594000F90276CF8091E30087FD02C081E0B4CFF9
:1059500083E0B2CF1F920F920FB60F921124FF92E5
:105960000F931F932F933F934F935F936F937F9367
:105970008F939F93AF93BF93CF93DF93EF93FF9357
:1059800009EE10E0F8018081C091EC00C795CC27AA
:10599000C7958F70FC2EF82A1082C0EFD0E0888166
:1059A000877F888378940E946313F801108288812E
:1059B00088608883CF2DCF70C083FF91EF91DF91F6
:1059C000CF91BF91AF919F918F917F916F915F9197
:1059D0004F913F912F911F910F91FF900F900FBE0C
:1059E0000F901F9018951092B9008CE08093B8002A
:1059F00008959F92AF92BF92CF92DF92EF92FF9263
:105A00000F931F93CF93DF93B82EEB010E94691E73
:105A10006C01EE24E394F12CC431D10560F025E053
:105A2000E22EF12CCF3FDC0731F0CE0164E170E0D3
:105A30000E94CE2D7B0184EAA82E94E8992E109224
:105A4000BC00A092BC000E94691E8C018091BC0029
:105A500087FF0CC08091B900887F883031F1809138
:105A6000B900887F803109F10FEF08C00E94691EDC
:105A7000801B910B8E159F0548F30EEF1FEFCF3F54
:105A8000DC07E9F2C6010E94751E8C179D07B8F26B
:105A9000C801DF91CF911F910F91FF90EF90DF90A0
:105AA000CF90BF90AF909F900895B092BB0090921E
:105AB000BC000E94691E8C018091BC0087FF0AC057
:105AC0002091B900287F283111F0203469F600E0D8
:105AD00010E0DECF0E94691E801B910B8E159F0582
