:100000000C9411040C9458040C9458040C94580447
:100010000C9458040C9458040C9458040C945804F0
:100020000C9458040C9458040C94CD270C94A528D7
:100030000C9482270C9458040C9458040C94580483
:100040000C9458040C9458040C9458040C945804C0
:100050000C9458040C94A9270C9458040C9458043C
:100060000C9458040C9458040C9458040C945804A0
:100070000C9458040C9458040C9458040C94580490
:100080000C9458040C9458040C9458040C94580480
:100090000C9458040C9458040C9458040C94580470
:1000A0000C9458040C9458040C945804050109024B
:1000B000A10185020901A1000509190129081500FE
:1000C0002501950875018102050109300931158165
:1000D000257F95027508810609381581257F9501D0
:1000E00075088106050C0A38021581257F95017572
:1000F000088106C0C005010980A101850319012AF4
:10010000B700150126B700950175108100C0050CD8
:100110000901A101850419012AA002150126A002E6
:10012000950175108100C005010906A1018506052C
:100130000719E029E71500250195087501810205D9
:1001400007190029EF1500250195F07501810205B9
:10015000081901290595057501910295017503910D
:1001600001C00660FF0961A1010962150026FF00B8
:100170009520750881020963150026FF00952075FA
:10018000089102C005010906A101050719E029E748
:1001900015002501950875018102950175088101F9
:1001A0000507190029FF150026FF0095067508812F
:1001B000000508190129059505750191029501753C
:1001C000039101C009025B00030100A0FA090400C9
:1001D0000001030101000921110100012240000773
:1001E00005810308000A0904010002030000000958
:1001F00021110100012222000705820320000107CE
:1002000005030320000109040200010300000009A6
:10021000211101000122B6000705840320000A1203
:1002200001000200000008424B6160020001020070
:10023000010C034B0042004400370035000000165B
:100240000371006D006B006200750069006C006452
:10025000006500720000000403090429003A003B15
:10026000003C003D003E003F004000410042004392
:100270000044004500460001514C0035001E001F9F
:100280000020002100220023002400250026002752
:10029000002D002E004C002A004A002B0000001404
:1002A000001A000800150017001C0018000C0012AE
:1002B0000013002F00300031004B00390000000413
:1002C000001600070009000A000B000D000E000FC9
:1002D0000033003400280000004E00E10001511DF1
:1002E000001B000600190005001100100036003741
:1002F0000038000000E50052004D00E000E300007F
:1003000000E2002C0000002C0000002C000000E6A1
:10031000000151E400500051004F000100010001B4
:1003200000010001000100010001000100010001C5
:1003300000010001000100010001000100010001B5
:1003400000010001000100010001000100010001A5
:1003500000010001000100005C010001000000C27A
:100360005CC35CC55CC65CC75CC85CC95CCA5C013C
:100370000001000100010001000100010000000176
:100380000001000100010001000100010001000165
:100390000001000100010000000100010001000156
:1003A000000100BD5CBF5CBE5CC05C0100010001DF
:1003B0000001000000010001000100010001000037
:1003C0000001000100000001000000010000000128
:1003D0000001000100010001000100010001000115
:1003E0000001000100010001000100010001000105
:1003F00000010001000100010001000100010001F5
:1004000000010001000100010001000100010001E4
:1004100000010001000100010001000100000001D5
:1004200000010001000100010001000100010001C4
:1004300000010001000100010001000100000001B5
:1004400000010001000100010001000100010001A4
:100450000001000100010000000100010001000195
:100460000001000100010001000100010001000184
:100470000001000000010001000100010001000076
:100480000001000100000001000000010000000167
:100490000001000100010001000100010001000154
:1004A0000001000100010001000100010001000144
:1004B0000001000100010001000100010001000134
:1004C0000001000100010001000100010001000124
:1004D0000001000100010001000100010000000115
:1004E0000001000100010001000100010001000104
:1004F00000010001000100010001000100000001F5
:1005000000010001000100010001000100010001E3
:1005100000010001000100000001000100010001D4
:1005200000010001000100010001000100010001C3
:1005300000010000000100010001000100010000B5
:1005400000010001000000010000000100000001A6
:1005500000010001000100010001002223252628DE
:10056000292A2C2D2F3032333536383A3B3D3E4048
:1005700042434547494A4C4E5051535557595A5C8E
:100580005E6062646668696B6D6F71737577797BA5
:100590007D7F81838587898A8C8E90929496989AA4
:1005A0009C9E9FA1A3A5A7A8AAACAEAFB1B3B4B6B9
:1005B000B8B9BBBCBEBFC1C2C3C5C6C7C9CACBCC14
:1005C000CDCED0D1D2D2D3D4D5D6D7D7D8D9D9DAE7
:1005D000DADBDBDBDCDCDCDCDCDDDDDDDDDCDCDC5C
:1005E000DCDCDBDBDBDADAD9D9D8D7D7D6D5D4D384
:1005F000D2D2D1D0CECDCCCBCAC9C7C6C5C3C2C159
:10060000BFBEBCBBB9B8B6B4B3B1AFAEACAAA8A7B5
:10061000A5A3A19F9E9C9A98969492908E8C8A896D
:10062000878583817F7D7B79777573716F6D6B694A
:1006300068666462605E5C5A5957555351504E4C1F
:100640004A4947454342403E3D3B3A3836353332CE
:10065000302F2D2C2A292826252322FFAA7F55401A
:100660000001010101010101010102020202020275
:100670000202020303030303030303040404040448
:10068000040405050505050606060606070707070F
:100690000708080808090909090A0A0A0B0B0B0CC4
:1006A0000C0C0D0D0D0E0E0E0F0F0F101011111161
:1006B00012121313141415151616171718181919E2
:1006C0001A1A1B1B1C1D1D1E1E1F20202122222347
:1006D0002424252626272829292A2B2C2D2D2E2F88
:1006E00030313232333435363738393A3B3C3D3E9F
:1006F0003F404142434445464748494A4C4D4E4F8E
:1007000050515354555658595A5B5D5E5F6162644F
:10071000656668696B6C6D6F7072737577787A7BDC
:100720007D7E8082838587888A8C8E8F9193959633
:10073000989A9C9EA0A2A3A5A7A9ABADAFB1B3B553
:10074000B7BABCBEC0C2C4C6C9CBCDCFD1D4D6D82F
:10075000DBDDDFE2E4E7E9EBEEF0F3F5F8FAFDFFCD
:1007600000047F3F1F643214643214783C1E1E1450
:100770000A0500000000000000000000000000006A
:100780000000000000000000000000000000000069
:100790000000000000007E0F00D4FFFFFFC7000034
:1007A000007800000000000000002A2B2800000054
:1007B0000000000000000000000000000029000010
:1007C00000002C1E3420212224342627252E362DED
:1007D0003738271E1F202122232425263333362E87
:1007E00037381F0405060708090A0B0C0D0E0F10F9
:1007F0001112131415161718191A1B1C1D2F31303E
:10080000232D350405060708090A0B0C0D0E0F10E1
:100810001112131415161718191A1B1C1D2F31301D
:10082000354C11241FBECFEFDAE0DEBFCDBF04B6DA
:1008300003FE27C08091DA029091DB02A091DC02D6
:10084000B091DD028730904BA740B04BD1F41092AD
:10085000DA021092DB021092DC021092DD0214BE6A
:1008600084B7877F84BF0FB6F894A8958091600005
:10087000886180936000109260000FBEE0E0F8E3B2
:10088000099511E0A0E0B1E0E2EAF4E502C00590CC
:100890000D92A839B107D9F722E0A8E9B1E001C06B
:1008A0001D92AA3DB207E1F70E94CB210C94E829E2
:1008B0000C94000081FD02C02A9A08952A98089598
:1008C0009295907FE92FE80F877041E001C0440FB7
:1008D0008A95EAF7E695E695E69583E0E89FF001CC
:1008E0001124EE59FD4F30E020E070E05191DF011E
:1008F0001197CB01022E02C0969587950A94E2F7D4
:10090000817081958527842385278C932F5F3F4FA6
:100910002330310559F70895E92FE295E07FE80F7C
:10092000982F9770E695E695E69583E0E89FF001AD
:100930001124EE59FD4F50E040E080E0219130E07D
:10094000092E02C0369527950A94E2F721703327C5
:10095000042E01C0220F0A94EAF7822B4F5F5F4FEB
:100960004330510559F708958091A3029091A20256
:10097000981301C008958F5F8770FACF90911A0184
:100980009923C1F090919F0297FF14C0E82FE6953C
:10099000E695E695803FF8F4F0E0E656FE4F877066
:1009A00021E030E001C0220F8A95EAF78281822B94
:1009B00082830895ACE9B1E0EFEF90E02D918217CA
:1009C00051F0EF3F19F4211101C0E92F9F5F9630DC
:1009D000A9F7EF3F09F408950E2E000CFF0BE65621
:1009E000FE4FE6CF90911A019923E1F090919F027A
:1009F00097FF18C0E82FE695E695E695803FF0F45E
:100A0000F0E0E656FE4F877021E030E0A90102C019
:100A1000440F551F8A95E2F7CA0180959281892378
:100A200082830895ECE9F1E09191891303C0DF011D
:100A300011971C9251E0E23AF507B1F70895982F0B
:100A4000909580919A02892380939A0208958091CB
:100A50009B02811110929B02089580919A029091BD
:100A6000A102892B90918602892B80939A01909103
:100A70009B029923A1F0892B80939A0180911A01FE
:100A8000882341F180919F0287FF24C08EE1ECE929
:100A9000F1E090E0815000F591110E942705E0916E
:100AA0006002F09161023097E1F080911A01882391
:100AB00059F080919F0287FF07C080919A0180932F
:100AC0009B0186E080939A010280F381E02D8AE900
:100AD00091E0099486E0DBCF21912223D9F29F5F38
:100AE000D9CF0895882339F090919A02892B809369
:100AF0009A020C942D050895882321F00E941F0569
:100B00000C942D05089590919F0292FF06C0282F06
:100B100028712830F9F4877F846093FF06C0282F5E
:100B200028712831F1F4877E84612091A00220FF92
:100B300006C0382F38713830D9F4877F816021FFA3
:100B400006C0282F28712831D1F4877E816194FD59
:100B5000877E0895282F24712430F9F68B7F8860D2
:100B6000DCCF282F2471243101F78B7E8861DDCF03
:100B7000382F3171313019F78E7F8860E0CF282F00
:100B80002171213121F78E7E8861E1CFCF93DF93F0
:100B9000EC01803E910509F460C050F58133910568
:100BA00009F4A6C090F48932910509F49AC08A9795
:100BB00009F4A5C0C130D10509F462C0CE01049783
:100BC000813A910508F055C05BC089339105F1F178
:100BD00082389105D9F1C59709F47CC0C83AD1058E
:100BE00008F094C0C53AD10528F3A497D06448C052
:100BF000843E910509F453C068F4823E9105E1F109
:100C0000833E910509F440C0CE01805E91090897AA
:100C100080F536C0863E910509F44CC0873E9105AB
:100C200009F44DC0811523E5920708F09AC081159B
:100C300032E5930708F000C18F3F910511F008F0ED
:100C400074C0803F910550F2D0651AC080919F0218
:100C50008370B1F0C0EED0E013C080919F0280FDA0
:100C600015C19091A00290FF0BC0C3EED0E084FFAD
:100C700007C0D0E0C0E004C080919F0282FDF5CFA4
:100C8000CE01DF91CF91089580919F0282FD01C135
:100C90009091A00290FDDECF84FFF2CFEACF809149
:100CA000A00281FFEDCF80919F02C7EED0E084FDCE
:100CB000E0CFE6CF80919F0283FDF7CFE1CF809117
:100CC0009F0283FDE9C09091A00291FFE5CFC4EEA1
:100CD000D0E0D6CF80919F0285FFD2CFC9E2D0E08D
:100CE000CFCF80919F0285FFCBCFC5E3D0E0C8CFA7
:100CF00080919F0286FFC4CFCAE2D0E0C1CF80912D
:100D00009F0286FFBDCFC1E3D0E0BACFCF3BD10574
:100D100008F07ACFC85AD0E0CC0FDD1FC759DE4F9C
:100D20000990D881C02DD464ABCFC11581E5D80717
:100D300098F4C11520E5D20708F061C0C11530E272
:100D4000D30708F49DCFCE0190548115904108F04F
:100D500090CFDF70D06A94CFDC2FCC27C16FD06AE0
:100D60008FCF811539E59307A0F5C11588E5D80720
:100D700008F07AC0C11525E5D207C8F4C11534E5DD
:100D8000D30708F06CC09E012370332781E090E008
:100D900002C0880F991F2A95E2F7C695C69520E2F2
:100DA000C29FE0011124C82BD92BDA6869CFCE018C
:100DB00095558F3F910511F008F05BCF8C2F0E9465
:100DC0008305C82FD0E0DC2FCC27CC27DF71D06281
:100DD00057CF81153AE5930708F44BC0905681151B
:100DE000904208F046CF8D2F8F710E94830590E0CE
:100DF000982F882788279F718C2BEC01E8CF9E01C4
:100E000074E0369527957A95E1F723708C2F8695B7
:100E10008695837030E2839FC0011124922BC370AA
:100E200021E030E002C0220F331FCA95E2F7822B87
:100E3000932BEC01DC6824CF9C012370332781E0E5
:100E400090E002C0880F991F2A95E2F7C695C695D3
:100E500020E2C29FE0011124C82BD92BEBCFDC2F5D
:100E6000CC27C46FD06A0CCFDC2FCC27C06FD06AE0
:100E700007CF8F700E94830534E0D695C7953A95C9
:100E8000E1F7CF709C2FEC01D069FACEC9E3D0E036
:100E9000F7CEC2EED0E0F4CEC6EED0E0F1CE80E0E8
:100EA0000895F894E82FE295EF70F0E041A18F707B
:100EB00021E030E0B90102C0660F771F8A95E2F7A2
:100EC000CB01962F9095942391A392A1892B82A375
:100ED0007894089508958091870280FD14C081FD63
:100EE00014C082FD16C080918902882381F084316C
:100EF00080F422E3829FC001112464E170E00E942B
:100F00001229862F08958CE0089589E1089585E0DF
:100F1000089582E308958091870280FD16C081FDC7
:100F200016C082FD16C0809188028823A1F0883205
:100F300080F428E0829FC001112468E270E00E94E2
:100F40001229862F672B39F0089582E0089584E0F6
:100F5000089588E0089581E00895E0E1E80FE03128
:100F6000E0F5F0E0E651F64D0C9448290E946B073D
:100F7000819580938D0208950E946B07FACF0E949D
:100F80006B07819580938C0208950E946B07FACFBE
:100F90000E948B0780938E0208950E948B07819593
:100FA000F9CF0E948B07819580938F0208950E944C
:100FB0008B07FACF845F990B21E030E001C0220F4C
:100FC0008A95EAF780918B02822B80938B02089599
:100FD00080918702816080938702089580918702C3
:100FE0008260F9CF809187028460F5CF40918C02B6
:100FF000803F59F480918D0287FF0DC010928D02C1
:1010000041110BC01092890208C0813F81F4809188
:101010008D0218169CF3442381F080918E029091EA
:101020008F02892B09F05AC0109288020895823FDE
:1010300049F447FFF0CF10928C0280918D0281110C
:10104000ECCFE0CF833F19F41416ACF3E4CF9091CA
:101050008E02893F29F41916F4F610928E02DBCF26
:101060008A3F19F497FFD7CFF8CF90918F028B3F2B
:1010700029F497FFD0CF10928F02CDCF8C3F19F477
:101080001916CCF3C8CF9CE0980F953090F4845F8C
:10109000990B21E030E0B90102C0660F771F8A95F5
:1010A000E2F7CB01809590918B02892380938B028C
:1010B000B2CF8D3F31F4809187028E7F809387027B
:1010C000AACF8E3F21F4809187028D7FF7CF8F3F8B
:1010D00009F0A1CF809187028B7FF0CF08956F92A6
:1010E0007F928F929F92AF92BF92CF92DF92EF92B8
:1010F000FF920F931F93CF93DF93B82EA62E8901F3
:10110000E42FF0E0E05AF94F611119C0E4918E2FFD
:101110002E2FD80111962C931197EC9312968C9345
:10112000DF91CF911F910F91FF90EF90DF90CF90C3
:10113000BF90AF909F908F907F906F900895E62E14
:10114000F12C249186E0B89E60011124CFEFD0E00D
:10115000C601BE010E94FE288B2D90E0880F991FCA
:1011600035E5369FA001379F500D1124841B950B48
:10117000982F990F980FAE014E195F09249FD00147
:10118000259FB00D1124EB2FA99E50011124AB2CEB
:10119000BB24AE014A195B09249F5001259FB00C66
:1011A00011248B2D3E01691A71086E9C40016F9CC1
:1011B000900C7E9C900C1124892C9924C819D90973
:1011C0002C9FA0012D9F500D112463307105D1F08B
:1011D0009CEFC91693E0D90670F461307105B1F047
:1011E00062307105B9F0FFEFCF16D10408F091CF4E
:1011F0008B2FE52F8ECF6430710579F06630710545
:10120000B9F387CFEB2D822F2B2F83CFE22F2B2DFE
:101210008B2F7FCF852FE22FF7CF822F252F79CFEE
:1012200080919502982F9E7F29F48170826080932F
:10123000950208958A34E8F381708864F8CFFA0142
:1012400081110994FB01FDCFEF92FF920F931F9341
:10125000CF93DF93CDB7DEB728970FB6F894DEBFF4
:101260000FBECDBF8630E8F581113CC09091800063
:101270009F7D909380002E98A0918600B09187006A
:10128000282F30E00E945D2969837A838B839C83B9
:1012900025E030E040E050E00E94262989019A01D3
:1012A00080918600909187006CE070E00E94FE289B
:1012B00060177107E8F0C80169E070E00E94FE283D
:1012C00070938B0060938A0028960FB6F894DEBF67
:1012D0000FBECDBFDF91CF911F910F91FF90EF9087
:1012E000089585E090918000906290938000C4CF33
:1012F0008091860090918700E0908600F0908700B2
:10130000E0918600F091870066E070E00E94FE2880
:10131000060F171F211D311DD901C80125E0880FB7
:10132000991FAA1FBB1F2A95D1F789839A83AB8384
:10133000BC83C70166E070E00E94FE289F0150E078
:1013400040E0260F371F411D511D69817A818B8135
:101350009C810E94262929833A834B835C83E091F8
:101360008600F0918700CA01B9010E94EE28DF01D2
:101370009B01AC010E9473296D837E838F839887C4
:101380009B01AC0169817A818B819C810E94EE284E
:1013900069837A838B839C83DC01CB013FE0B69524
:1013A000A795979587953A95D1F7409186005091EA
:1013B000870070E060E0481759076A077B0720F450
:1013C0008091860090918700BC017ACF282F220F50
:1013D000220F220F909190029770922B909390027F
:1013E000987F21E009F420E09091900220FB90F991
:1013F000909390020C942409E0916002F0916102B4
:10140000309721F00190F081E02D099480E008955B
:101410002091EE013091EF012817390771F0909378
:10142000EF018093EE01E0916002F091610230974C
:1014300021F00680F781E02D099408952091EC01B8
:101440003091ED012817390771F09093ED018093E9
:10145000EC01E0916002F0916102309721F000848C
:10146000F185E02D099408952FB7F89480914002FA
:1014700090914102A0914202B09143022FBF089582
:101480000E94340A20918C0230918D02232B21F08E
:10149000809330029093310220918E0230918F021E
:1014A000232B21F080932E0290932F02E091600273
:1014B000F0916102309749F082E080938A020480C3
:1014C000F581E02D8AE892E009940895882309F4D3
:1014D00052C0823871F40E94FC0981FF4CC089E33C
:1014E0000E94BE040E942D0589E30E94F2040C9420
:1014F0002D05833859F40E94FC0980FF3CC083E528
:101500000E94BE040E942D0583E5EFCF843859F474
:101510000E94FC0982FF2FC087E40E94BE040E9443
:101520002D0587E4E2CF9CEF980F913AF0F290E21C
:10153000980F983050F4877091E001C0990F8A9508
:10154000EAF7892F0E941F05D2CF9BE5980F9330B1
:1015500020F490E080E00C94080A98E5980F973109
:1015600020F490E080E00C941E0A803F20F00E945E
:10157000F6070C94400A089590E080E00E94080A63
:1015800090E080E00E941E0A1092A1021092860252
:101590000E942D0586E0EAE8F2E0DF011D928A95BF
:1015A000E9F71092890210928802109287020C9437
:1015B000400A80939C020C94BC0A80939D020C9478
:1015C000BC0A21E030E001C0220F8A95EAF7809141
:1015D0009D02822B0C94DD0A21E030E001C0220F35
:1015E0008A95EAF7209580919D0282230C94DD0A6A
:1015F00090919E028095892380939E02282F2770C8
:1016000091F4282F082E000C330B9217130659F073
:101610009091A00292FD07C08595859585950E94C1
:10162000EC0A10929E0208959C014FB7F8948091A5
:10163000400290914102A0914202B09143024FBFFB
:10164000821B930B08958091EB0108950895FC018E
:10165000CB012091C6013091C7012617370790F0C2
:10166000009729F42091E8002E772093E80040E0CD
:10167000009751F4411108C08091E80082FF31C009
:1016800080E00895C901F3CF209144022223A9F1FB
:101690002530A9F12091E80023FD2DC02091E8001C
:1016A00022FDEACF2091E80020FFE2CF3091F30045
:1016B0002091F200009719F02830310558F041E0F0
:1016C0002830310509F040E02091E8002E77209382
:1016D000E800CECF41914093F10001972F5F3F4F3B
:1016E000E9CF80914402882341F0853041F0809118
:1016F000E80083FFC1CF81E0089582E0089583E090
:1017000008958091C00187FF13C08091E80082FF97
:1017100006C08091E8008B778093E80004C0809138
:1017200044028111F2CF0895809144028823D9F3B5
:101730008091E80080FFF8CF8091E8008E77ECCFB1
:101740002091E4003091E50095E6A9012091EC009C
:10175000822F817020FF06C08091E80080FF06C0C4
:1017600080E008952091E80022FD1AC08091440293
:10177000882389F0853089F08091EB0085FD0FC0CA
:101780002091E4003091E50042175307F9F291509F
:10179000E1F684E0089582E0089583E0089581E011
:1017A0000895E8EDF0E080818E7F80831092E20062
:1017B0001092DA001092E100A0EEB0E08C9181600E
:1017C0008C9380818F77808319BCA7EDB0E08C91DA
:1017D0008E7F8C9380818F7E80831092BF010895CD
:1017E000EF92FF920F931F93CF937C018B010E9486
:1017F000A00BC82F811117C08091E80085FD0BC098
:101800008091E8008E778093E8000E94A00B8823E7
:1018100099F3C82F08C0F70181917F018093F100EF
:101820000150110949F78C2FCF911F910F91FF9013
:10183000EF90089580919D02982F9670963019F43C
:1018400088600C94DD0A877FFCCF982F9093E90085
:10185000242F762F50E0891731F07091EC00209101
:10186000ED005091F00021FD06C09F5F973071F7A9
:101870008093E90008953091EB003E7F3093EB00B8
:101880003091ED003D7F3093ED003091EB00316001
:101890003093EB007093EC002093ED005093F00038
:1018A0002091EE0027FDE1CF0895CF92DF92EF92D5
:1018B000FF920F931F93CF93DF93C8EDD0E0888101
:1018C0008F7E8883E7EDF0E080818160808384E013
:1018D00082BF81E08093BF0188818E7F888302EE82
:1018E00010E0F80110821092DA0081EEC82ED12C9F
:1018F000F601108288818F77888388818068888349
:1019000088818F7D888319BC109244021092BE0199
:10191000109227021092BD0190EEE92EF12CF701F2
:1019200080818B7F808388818160888342E060E052
:1019300080E00E94250CF60180818E7F8083F80173
:10194000808181608083808188608083F7018081CD
:101950008E7F8083888180618883DF91CF911F9102
:101960000F91FF90EF90DF90CF900895CF93C82F05
:10197000882309F4AEC08238C1F40E94FC0981FDBD
:10198000A8C089E30E94BE040E942D052FEF31EE0E
:1019900084E0215030408040E1F700C0000089E33E
:1019A0000E94F204CF910C942D058338A1F40E947B
:1019B000FC0980FD8EC083E50E94BE040E942D05B7
:1019C0009FEF21EE34E0915020403040E1F700C01D
:1019D000000083E5E5CF8438A1F40E94FC0982FD74
:1019E00078C087E40E94BE040E942D058FEF91EE1F
:1019F00024E0815090402040E1F700C0000087E4DF
:101A0000CFCF8CEF8C0F813A90F580911A0188230B
:101A100001F180919F0287FF1CC0EC2FE695E695AF
:101A2000E695F0E0E656FE4F828190E04C2F47703D
:101A300021E030E002C0220F331F4A95E2F78223F3
:101A40009323892B81F08C2F0E94F2040E942D0594
:101A50000AC0ECE9F1E082EA91E02191C21799F322
:101A60008E179F07D1F78C2F0E94BE049BCF80E278
:101A70008C0F883068F4C77021E030E001C0220F7D
:101A8000CA95EAF780919A02822B80939A028ACFB4
:101A90008BE58C0F833038F42C2F2452330BC90183
:101AA000CF910C94080AE8E5EC0FE73150F4F0E030
:101AB000EE0FFF1FE759FE4F80819181CF910C946B
:101AC0001E0AC03F30F08C2F0E94AD07CF910C94BE
:101AD000400ACF9108950F931F93CF93C82F10E022
:101AE00000E0893311F400E510E08C2F0E94B60C61
:101AF0000115110531F48C2FCF911F910F910C948A
:101B0000660A8FE99FE00197F1F700C000000150DD
:101B10001109EECFFF920F931F93CF93DF93C62F40
:101B2000D42F122F8823A9F0609391020E94340AC7
:101B30009093BB018093BA01C77081E001C0880F08
:101B4000CA95EAF7DF91CF911F910F91FF900C9406
:101B5000720580919102681334C08091BA0190910E
:101B6000BB010E94140B883C910558F500E20D0F53
:101B7000CD17A9F0C770FF24F3948F2D01C0880FF3
:101B8000CA95EAF70E947C05083048F48D2F8770CB
:101B900001C0FF0C8A95EAF78F2D0E947205812FF4
:101BA0000E946B0D0830A0F4D77081E001C0880F4F
:101BB000DA95EAF7DF91CF911F910F91FF900C9486
:101BC0007C05C77081E001C0880FCA95EAF7F2CFA3
:101BD000DF91CF911F910F91FF9008958091950211
:101BE00080FD0AC0E3EFF1E0118210821282339689
:101BF00052E0E332F507C1F76A9A3EB13B7F2EB15E
:101C000024604FB7F89483EF91E0FC010196508176
:101C100068E02EB9000000C057FF3EB9550F000024
:101C200000C000C000C03EB900C06A9591F752E004
:101C30008332950751F74FBF8FE594E00197F1F795
:101C400000C000000895EF92FF920F931F93CF936F
:101C5000DF93EC0103EF11E0F12CE12C9C8160910A
:101C600097028091960228E0E216F104FCF4992391
:101C7000F9F09801409198020E946F088FEFE81ADE
:101C8000F80A0D5F1F4F20E1E216F10439F70E94B8
:101C9000EE0D8C8190E00196817099278C83DF9105
:101CA000CF911F910F91FF90EF900895992309F321
:101CB000980140E0E1CFEF92FF921F93CF93DF9323
:101CC000EC0183EFE82E81E0F82E10E08C81970183
:101CD0004091980260919702810F0E946F08115FF6
:101CE00083E0E80EF11C103F89F70E94EE0D9A8107
:101CF0008C8190FF08C08F5F8C83DF91CF911F9103
:101D0000FF90EF9008958150F7CFCF92DF92EF923E
:101D1000FF920F931F93CF93DF93FC018281DD2409
:101D2000DA9480FD02C0DD24D394C3EFD1E010E04B
:101D300000E0198218821A8294E0E92EF12CC12C5D
:101D40008091F2018C0D8131CCF18F70082E000C46
:101D5000990B8017910791F4809198028E9DA001B4
:101D60008F9D500D112455954795559547959E018A
:101D700060919702809196020E946F08CD0CF1E06D
:101D8000EF1AF108E9F60F5F1F4F23960031110596
:101D900081F60E94EE0D8091F20191E0D91212C0FD
:101DA000882399F081508093F201DF91CF911F91A8
:101DB0000F91FF90EF90DF90CF90089587FFC6CFEF
:101DC000805FC4CF8F5F8F70EECF8FE0ECCF0F932B
:101DD0001F93CF93DF93C3EFD1E0FE0111821082F6
:101DE0001282339682E0E332F807C1F710E000E098
:101DF0008091F101082E000C990B081719078CF13E
:101E000080910201082E000C990B801791074CF16C
:101E10009E014091980260919702809196020E94E3
:101E20006F080F5F1F4F23960031110509F70E94BD
:101E3000EE0D809101019091F101980F9093F101C5
:101E400020910201280F20930201121614F49F30F2
:101E50001CF0819580930101DF91CF911F910F912B
:101E60000895198218821A82DCCFCF92DF92EF9206
:101E7000FF920F931F93CF93DF93CDB7DEB72E97CB
:101E80000FB6F894DEBF0FBECDBF8D879E87AD85A0
:101E9000BE8514961C91212F30E0D9010E945D2946
:101EA0009B01AC010E94732969837A838B839C8395
:101EB000E0E2F0E0E11BF109A5E5B0E09B01AC0137
:101EC0000E94732969877A878B879C879F01DF012E
:101ED0000E9455299B01AC010E947E296D837E835F
:101EE0008F8398879B01AC0189819A81AB81BC81EA
:101EF000280F391F4A1F5B1F69857A858B859C8552
:101F00000E942629F22E422F50E099E29F1508F4F4
:101F100042C0A3E02A9F9001112435952795122FE6
:101F2000109593EFC92E91E0D92E00E085E5E82EBB
:101F3000EF188E2D01FD8F2D9601412F6091970294
:101F40000E946F080F5FB3E0CB0ED11C003189F700
:101F50000E94EE0DED85FE85948181E0992319F0B4
:101F6000903219F48FEF8093000180910001890F66
:101F7000AD85BE8514968C932E960FB6F894DEBF71
:101F80000FBECDBFDF91CF911F910F91FF90EF90CA
:101F9000DF90CF90089585E590E0841B950B9C0120
:101FA000220F331F280F391F37FFB7CF2F5F3F4F47
:101FB000B4CF9091950290FF0CC0E3EFF1E08183E4
:101FC00060834283339692E0E332F907C1F70C94C1
:101FD000EE0D08950F931F93CF93DF9300D00F92D0
:101FE000CDB7DEB78C018091F00181110AC09E014E
:101FF0002F5F3F4F4FEF6FEF0E946F088A818093F2
:10200000F001F8016481613049F06230F1F08091B3
:10201000F00140E0662331F040E019C06091F0012A
:1020200040E080E00E94D90FF801848190E00196A1
:1020300063E070E00E94122984830F900F900F904C
:10204000DF91CF911F910F9108954091F00180E0B1
:1020500060E0E8CFCF93DF9300D00F92CDB7DEB72B
:102060009091950290FF0FC09E012F5F3F4F0E94FD
:102070006F084B8169818A810F900F900F90DF91DB
:10208000CF910C94D90F0F900F900F90DF91CF91BB
:102090000895CF93DF93EC01EC81F0E0E55AFA4F1D
:1020A0004491E5E9F2E0628181810E942A108C81ED
:1020B0008F5F8C83DF91CF910895CF93DF93EC01F5
:1020C000E5E9F2E0438162818C810E942A108C81D3
:1020D0008F5F8C83DF91CF91089581E08093E00042
:1020E00080E28093D8001092C9008FE19EE40197AE
:1020F000F1F700C0000087E090EBDC018093DA028A
:102100009093DB02A093DC02B093DD0288E19CE0B7
:102110000FB6F894A895809360000FBE909360006E
:10212000FFCFCF93DF93D82FC92F80911A01882337
:10213000C1F180919F0287FF34C060E284E0809308
:10214000E9008FEF9091E800815095FD06C095ED74
:102150009A95F1F700008111F5CF8091E80085FF95
:102160001DC080911A0170E050E040E0811104C070
:1021700050E040E068E070E08D2F9C2F0E94F00B53
:102180008091E8008E778093E80080E2ED2FFC2FAD
:10219000ABECB1E001900D928A95E1F7DF91CF9120
:1021A000089568E081E0CBCF24E02093E9002FEF91
:1021B0003091E800215035FD06C035ED3A95F1F734
:1021C00000002111F5CF2091E80025FF0BC050E061
:1021D00040E066E070E00E94F00B8091E8008E77AE
:1021E0008093E80008958093C8017093CA016093BA
:1021F000C901809144028430F9F48093E9008FEFA3
:102200009091E800815095FD06C095ED9A95F1F703
:1022100000008111F5CF8091E80085FF0DC050E0EE
:1022200040E063E070E088EC91E00E94F00B809168
:10223000E8008E778093E8000895BC0183E00C9459
:10224000F310BC0184E00C94F310CF93C091A00272
:10225000C2FB992790F9981799F080FBC2F9C093B7
:10226000A00260919F0284E090E00E949A296C2F66
:1022700082E290E00E949A2982E0CF910C94F80AC1
:10228000CF9108954F925F926F927F928F929F921B
:10229000AF92BF92CF92DF92EF92FF920F931F9374
:1022A000CF93DF93D0E0C0E030ECA32EB12C8E01B1
:1022B000000F111F3E011DC0F60185909490692DFD
:1022C000C7010E949A29682DC70101960E949A2988
:1022D00022E0C20ED11C32E0E30EF11C4E145F046A
:1022E00059F7005E1F4F80E1680E711CA016B10601
:1022F00081F0C301880F991F9C01255A3D4F690148
:10230000780137E2E30EF11C280187E4480E511CE6
:10231000D3CF20ECA20EB11CC05ADF4FC03831E041
:10232000D30729F6DF91CF911F910F91FF90EF9086
:10233000DF90CF90BF90AF909F908F907F906F90E5
:102340005F904F900895682F86E090E00C949A2952
:10235000CF93C82F6FEF811162E283E290E00E9479
:102360009A296FEFC11163E084E290E00E949A29FC
:102370006FEFC11169E085E290E0CF910C949A294A
:10238000CF93DF93C7E2D3E060E0CE010E949A29A9
:102390002196C11584E0D807B9F7DF91CF91089550
:1023A00080E00E94A81160E086E290E00E949A29F5
:1023B0000E9442110E94C01181E00C94A811CF9399
:1023C00084E090E00E948629C82F82E290E00E947B
:1023D0008629982F8C2FCF91089583E290E00E9458
:1023E0008629823289F484E290E00E948629833033
:1023F00059F485E290E00E94862991E0893009F045
:1024000090E0892F8170089580E0FCCF0F931F9397
:10241000CF93DF9320E2629FE001112450E0440F4C
:10242000551FC40FD51F30EC839FC00DD11D112443
:10243000CE0187960E948629082F10E0102F0027D2
:10244000CE0188960E9486299801282BC901DF9128
:10245000CF911F910F910895462F672F843030F44C
:10246000763020F4403110F40C94061290E080E0B5
:102470000895DF92EF92FF920F931F93CF93DF9314
:102480007C0100919D0280919C02082BC7E0D0E066
:1024900010E0DC2EC8010C2E02C0959587950A9499
:1024A000E2F780FD0CC02197A0F7D12C8D2DDF9194
:1024B000CF911F910F91FF90EF90DF900895B7019A
:1024C0008C2F0E942C120E94C605019761F3EECF5B
:1024D0000F931F93CF93FC01828100811181882388
:1024E00089F0662379F0C8010E943912C82F682F3D
:1024F000C8010E946004B8018C2FCF911F910F91E9
:102500000C942C12C8010E948C04C82FF4CFCF93D6
:10251000DF93D82FC92F0E9439126D2F7C2F0E9474
:102520002C12DF91CF910C94C6050E948712282FA0
:10253000892F8F70392F32953F70903C80F43A305C
:10254000B0F4343020F4323090F480E00895363026
:10255000E1F781E0283E88F0213FB9F70EC03C301A
:1025600011F03F3091F7869586958695089581E024
:10257000203F39F018F4283E40F70895243F29F70A
:10258000FCCF089510929A0280911A01ECE9F1E0D3
:10259000882359F080919F0287FF07C08EE1DF01F9
:1025A0001D928A95E9F70C94BC0A86E0F8CF1F9338
:1025B000CF93DF93CDB7DEB7AA970FB6F894DEBFFF
:1025C0000FBECDBF80EC91E0FC0101962091F1009F
:1025D000208321E0883C9207B9F78091C1018930BE
:1025E00009F456C0C8F4823009F4B3C0833009F44A
:1025F00082C0813071F18091E80083FF84C28091B4
:10260000C0019091C1019A3008F07DC2E92FF0E03D
:10261000E650F64D0C9448298A3009F489C08B3075
:1026200051F78091C001813231F78091C4019091BE
:10263000C501892B01F78091E800877F8093E8002E
:102640000E94810B8091C20180931A010E94C212E4
:10265000D2CF8091C001813A71F68091E800877FE6
:102660008093E8008091C4019091C501892B61F4A9
:1026700060E28BEC91E070E00E94270B8091E80013
:102680008B778093E800B7CF60E090E080E0F3CFF5
:102690008091C001813209F0AECF8091C401909148
:1026A000C5018D7F892B09F0A6CF8091E800877F37
:1026B0008093E8008091E80082FF18C09091F300B9
:1026C0008091F200029731F48091F100813011F095
:1026D000863021F48091F1008093EB018091E80035
:1026E0008B778093E8000E94810B85CF8091440214
:1026F0008111E0CF80CF8091C001813A09F07BCF7A
:102700008091C4019091C501892B09F074CF80910B
:10271000E800877F8093E8008091E80080FFFCCF8D
:1027200080911A018093F1008091E8008E77D9CFD3
:102730008091C001813209F05ECF8091E800877FEF
:102740008093E8000E94810B8091C3018093BC01BB
:1027500052CF8091C001813A09F04DCF8091E800BD
:10276000877F8093E8008091E80080FFFCCF809114
:10277000BC01D8CF803899F0823809F0C4C180916B
:10278000C4018F70873008F0BEC18093E90080914A
:10279000EB0085FB882780F91092E90006C0809144
:1027A000BD0190912702911182609091E800977F7E
:1027B0009093E8008093F1001092F1008091E8007E
:1027C0008E779DC1882309F48BC1823009F09BC1AB
:1027D0008091C20181118EC18091C4018F702FEF51
:1027E000280F263008F08FC18093E9002091EB007C
:1027F00020FF80C1933031F48091EB0080628093A0
:10280000EB0078C19091EB0090619093EB0021E098
:1028100030E001C0220F8A95EAF72093EA00109277
:10282000EA008091EB008860EACF81116CC11091C1
:10283000C2011F778091E3008078812B8093E300B1
:102840008091E800877F8093E8000E94810B80914F
:10285000E80080FFFCCF8091E30080688093E30074
:1028600082E0111183E0809344024DC18058823090
:1028700008F049C14091C2015091C3014C3D83E031
:10288000580799F583E08A838AE289834FB7F894E1
:10289000DE01139620E03EE051E2E32FF0E050939A
:1028A0005700849120FF03C082958F703F5F8F7027
:1028B0008A30C8F0895C90E08D939D932F5F24311E
:1028C00061F74FBF8091E800877F8093E8006AE25C
:1028D00070E0CE0101960E94270B8091E8008B7773
:1028E0008093E80010C1805DE6CF8091C401909193
:1028F000C501252F33272330310509F44AC078F567
:102900002130310509F479C08BE590E0E4ECF1E089
:102910002230310509F0F7C02091E800277F20938D
:10292000E8002091C6013091C7018217930708F48F
:102930009C0140E02115310509F064C0411162C0DD
:102940008091E80082FDC9CF80914402882329F25A
:10295000853019F28091E80083FFF2CFBECF21329B
:10296000310509F43BC02232310509F0CCC0833077
:10297000910508F0C8C0FC01EE0FFF1FEE5DFE4F91
:102980000190F081E02D815E9E4FDC018C9190E002
:1029900011C0CA019927413089F082309105B1F008
:1029A000892B09F0B0C0E7E5F2E0E4918E2F90E0CA
:1029B000E7E5F2E0009709F4A6C0AECFEFE3F2E05E
:1029C000E4918E2F90E0EFE3F2E0F4CFE1E3F2E068
:1029D000E4918E2F90E0E1E3F2E0ECCF83309105BB
:1029E00008F091C0880F991FFC01E85DFE4F01902F
:1029F000F081E02D89E090E08FCF82E190E0EFE17F
:102A0000F2E08ACF80914402882309F466CF8530B2
:102A100009F463CF8091E80083FD5FCF8091E800E7
:102A200082FD8ECF8091E80080FF84CF9091F300EB
:102A30008091F2002115310519F08830910550F090
:102A400041E0089709F040E08091E8008E7780939C
:102A5000E80070CF44914093F10031962150310944
:102A60000196E8CF803809F04EC08091E800877F5A
:102A70008093E8008091BE018093F1009FCE811188
:102A800042C01091C2011230F0F58091E800877FBA
:102A90008093E8001093BE010E94810B112311F076
:102AA00084E005C08091E30087FDFACF81E0809348
:102AB000440242E061EC81E00E94250C42E261ECBC
:102AC00084E00E94250C42E261EC82E00E94250C29
:102AD00042E260EC83E00E94250C8091440213C026
:102AE0008091C201813079F481E0933009F080E077
:102AF000809327021092E9008091E800877F8093FD
:102B0000E8000E94810B8091E80083FF0AC0809159
:102B1000E800877F8093E8008091EB0080628093DB
:102B2000EB00AA960FB6F894DEBF0FBECDBFDF91C3
:102B3000CF911F9108950F931F93CF93DF938B0134
:102B4000D82FC92F0E941009A8016D2F7C2F88E073
:102B500090E0DF91CF911F910F910C94AC29E5E9A2
:102B6000F2E083E0808311828FEF8283838314827B
:102B700063E070E08FEF9FEF0C949B15CF93DF9392
:102B800000D000D0CDB7DEB780919902833018F421
:102B90008F5F809399028091950290919602A09107
:102BA0009702B091980289839A83AB83BC83BC015E
:102BB000CD010F900F900F900F90DF91CF910C945B
:102BC0009B15CF93DF9300D000D0CDB7DEB78091B7
:102BD0009902882319F0815080939902809195027F
:102BE00090919602A0919702B091980289839A835E
:102BF000AB83BC83BC01CD010F900F900F900F9061
:102C0000DF91CF910C949B157F928F929F92AF9200
:102C1000BF92CF92DF92EF92FF920F931F93CF93C9
:102C2000DF9300D000D000D00F92CDB7DEB7182FC1
:102C3000F62E042FE22E9091950290FF81C0E92F8D
:102C4000E695AE2FB0E0A25DBE4F8C9180939302CB
:102C50009E7F9230B9F59E012F5F3F4F812F0E94DA
:102C60006F084B8169818A810E94D90F1093960267
:102C7000F092970200939802EE2009F461C08091CF
:102C8000950290919602A0919702B09198028C8340
:102C90009D83AE83BF83BC01CD0127960FB6F89408
:102CA000DEBF0FBECDBFDF91CF911F910F91FF907F
:102CB000EF90DF90CF90BF90AF909F908F907F90DC
:102CC0000C949B15823019F400919802CFCF863076
:102CD00019F410919602CACF8930D9F3893131F6AF
:102CE000E9512E2F2170722EE695F0E0E55AF94F4A
:102CF00085909490992433EFC32E31E0D32EB12CDC
:102D0000A12CC50124E0969587952A95E1F77110CD
:102D100013C0810F9601402F6F2D0E946F08A80CE1
:102D2000B91CB3E0CB0ED11C23E2C21622E0D206BE
:102D300041F70E94EE0D9ACFA12FA81B8A2FEACF50
:102D400027960FB6F894DEBF0FBECDBFDF91CF91AF
:102D50001F910F91FF90EF90DF90CF90BF90AF90B9
:102D60009F908F907F900895E5E9F2E0818121E0C6
:102D700043816281885F0C940416E5E9F2E0818169
:102D800021E04381628188500C940416E5E9F2E069
:102D9000628128E0620F08F46FEF21E043818181B6
:102DA0000C940416E5E9F2E0628128E0621B08F465
:102DB00060E021E0438181810C940416E5E9F2E0B2
:102DC000438128E0420F08F44FEF21E062818181C6
:102DD0000C940416E5E9F2E0438128E0421B08F474
:102DE00040E021E0628181810C94041669EE7EEF5F
:102DF00090E080E00E94B82960E082E090E00E94CC
:102E00009A2960E083E090E00E949A2910929C0247
:102E100060E084E090E00E949A2960E082E290E025
:102E20000E949A2960E085E090E00E949A2960E083
:102E300086E090E00E949A296FEF87E090E00E9480
:102E40009A2940E050E0BA0188E090E00E94AC2965
:102E500060E08DE090E00E949A2940E050E0BA01E5
:102E600088E190E00E94AC2960E087E190E00E9458
:102E70009A2940E050E0BA018CE190E00E94AC2930
:102E800070E060E080E290E00E94B82940E050E00D
:102E9000BA0188E190E00E94AC2980E00E94A8116C
:102EA0000E94D01140E050E0BA018FE090E00E9413
:102EB000AC2940E050E0BA0183E190E00C94AC29E9
:102EC00090E080E00E949429893E9E4F11F40C947A
:102ED000ED1180E008950E94601781110AC00E94E0
:102EE000F6168091900284708962809390020E940D
:102EF000A31186E090E00E9486298093900280339F
:102F000020F0877088628093900290919002892FC0
:102F1000817090FF04C0892F8695869586950C94C4
:102F200024094F925F926F927F928F929F92AF92FD
:102F3000BF92CF92DF92EF92FF920F931F93CF93A6
:102F4000DF93CDB7DEB72C970FB6F894DEBF0FBE78
:102F5000CDBFFE0131968CE0DF011D928A95E9F725
:102F600093E5E92E91E0F92E8F0129E5622E21E00B
:102F7000722E2F01AA24A394B12C49E6842E41E09D
:102F8000942EF70181917F018F3F09F445C0F89499
:102F9000E82FE295EF70F0E021A18F70A50102C04B
:102FA000440F551F8A95E2F7CA01922F982B91A3DF
:102FB00092A18095892382A3789400C0E9E5F1E08D
:102FC00021E030E0D12CC12C41914F3F09F45DC08C
:102FD000A42FA295AF70A05EB0E08C9190E04F70EE
:102FE00002C0959587954A95E2F780FD4EC0C901CC
:102FF000C82AD92A220F331F8E169F0629F7F701F8
:10300000319780818F3F11F00E94510750EA5A9505
:10301000F1F7D801CD92DC920E5F1F4F6E147F0442
:1030200009F0AFCF4CE050E0B20184E592E00E949D
:10303000DB299C0111E0892B09F410E0232B41F1DD
:103040008CE0F201A4E5B2E001900D928A95E1F7DF
:1030500081E0809347020E94340A90934602809355
:10306000450280914502909146020E94140B0597FB
:1030700098F08CE0E4E5F2E0A8E4B2E001900D9273
:103080008A95E1F71092470207C080E090E0B0CF48
:10309000809147028111E5CF812F2C960FB6F894CD
:1030A000DEBF0FBECDBFDF91CF911F910F91FF907B
:1030B000EF90DF90CF90BF90AF909F908F907F90D8
:1030C0006F905F904F90089560919502669570E0C3
:1030D0004BE050E083E091E00E94CE29892B19F467
:1030E00081E0809394020E94340A90932902809395
:1030F00028020895CF93DF9300D000D0CDB7DEB77C
:103100009091950290FF45C08823E1F18532E0F56A
:103110008F77880F909195029170892B80939502FB
:10312000662381F08091950290919602A09197027A
:10313000B091980289839A83AB83BC83BC01CD0193
:103140000E949B1560919502669570E04BE050E0FF
:1031500083E091E00E94CE29892BC1F01092940265
:1031600081E080932B0220E04091980260919702C9
:10317000809196020F900F900F900F90DF91CF915A
:103180000C94041681E0C5CF84E2C3CF0E9464187A
:10319000E7CF0F900F900F900F90DF91CF91089590
:1031A0008091950286958F5F853208F081E061E01D
:1031B0000C947A189091950296958FEF890F913023
:1031C00009F484E261E00C947A189091950290FFE2
:1031D00007C09695981720F0961710F40C94D01805
:1031E00061E00C947A183F924F925F926F927F92B7
:1031F0008F929F92AF92BF92CF92DF92EF92FF9207
:103200000F931F93CF93DF93CDB7DEB728970FB6F9
:10321000F894DEBF0FBECDBF7C01DC019C911196FE
:103220008C91119713962D913C91232B21F089239A
:103230008F3F09F046C628960FB6F894DEBF0FBE42
:10324000CDBFDF91CF911F910F91FF90EF90DF9055
:10325000CF90BF90AF909F908F907F906F905F9036
:103260004F903F900895980122513F4520313105FC
:1032700008F0D5C58FEF93E00E948629025147E2FE
:10328000842E43E0942E8823A1F180919E028770C2
:1032900091F2D70112968C91882369F28091A00255
:1032A00082FDC9CF82E028960FB6F894DEBF0FBE2C
:1032B000CDBFDF91CF911F910F91FF90EF90DF90E5
:1032C000CF90BF90AF909F908F907F906F905F90C6
:1032D0004F903F900C94F80A8114B4E09B06A9F239
:1032E000C4010E948629811101C00150EFEF8E1A9E
:1032F0009E0A0111F1CF80911B0190911C01A091B8
:103300001D01B0911E0189839A83AB83BC83442441
:1033100043943AE0332E84010F5F1F4FC4010E9493
:10332000862989831A82882309F4AFCF9FEF980FEB
:10333000933010F58A834982F2E08F0E911CC80108
:103340000E9486298B83882309F49FCF8E010F5F0B
:103350001F4FD8012C912223F1F211969C911197C5
:10336000213009F045C012968C91913039F40E5FEE
:103370001F4F0E946B0D08C04801E8CF923039F40E
:103380000E5F1F4F0E94B60C0F5F1F4FE2CF9330AE
:1033900029F40E5F1F4F0E94660AF6CF943019F091
:1033A0000F5F1F4FF1CF0E5F1F4F20E030E0B801DD
:1033B0006F5F7F4FF80141818053990B8A309105EF
:1033C00060F02115310501F38FE99FE00197F1F7D6
:1033D00000C0000021503109F4CF329EF001339E2D
:1033E000F00D11249C012E0F3F1F842F8B01DFCF86
:1033F000E22FF0E0EE55F84F5490822F8695869597
:10340000869590E0FC01EE56F84FE4912770F0E0CD
:10341000022E02C0F595E7950A94E2F73F01A1E07C
:103420006A227724FC01EE57F84FA490B12C022EAB
:1034300002C0B594A7940A94E2F7B1E0AB22BB2492
:10344000FC01EE58F84FC490D12C02C0D594C7941B
:103450002A95E2F7E1E0CE22DD246114710419F02F
:1034600081EE0E94B60CA114B10419F086EE0E9400
:10347000B60C852D0E946B0DAB2819F086EE0E94CC
:10348000660A672819F081EE0E94660ACD2809F4C1
:103490007BCF8CE26ECF81E00E94E10A0E941A0C81
:1034A000F4CE81E00E94EC0AF9CF82E0F5CF0F3B29
:1034B000BCE51B0709F46DC0003CECE51E0709F4F0
:1034C0008BC0033FFCE51F0709F4B4C008F098C0A7
:1034D000083D3CE5130709F4A9C028E241E0093D95
:1034E0009CE5190709F4A4C026E241EE61EE073D10
:1034F000ACE51A0709F497C08111B1C406312CE577
:10350000120709F07EC190919A02882309F46FC1D5
:10351000892F8A7A91E009F490E0909392028111C8
:1035200064C189E20E94BE040E942D05AECE85E0F2
:103530000E94E609809190020E94A311A6CE80E02D
:10354000F7CF80919002982F987F09F43FC0885060
:1035500080939002887F91E009F490E0809190023E
:1035600090FB80F913C080919002982F96959695C4
:103570009695883240F49F5F990F990F990F877045
:10358000892B8093900280919002816080939002B9
:103590001BC08091900280FF09C08E7F80939002B3
:1035A0000E94A31180E00E9424096FCE80919002B6
:1035B00080FD6BCE816080939002813019F489E0A8
:1035C00080939002809190020E94A31180919002BA
:1035D000869586958695E7CF90919002892F86955E
:1035E000869586958F5F8F719770863020F4880F4F
:1035F000880F880F982B9093900280919002AACF09
:10360000053FBCE51B07D1F027E245EE66EE063F1D
:10361000ECE51E0741F027E245EE64EE043FFCE5D1
:103620001F0709F069CF0E948A0D2FCE27E245EED1
:1036300065EEF9CF26E241EE60EEF5CF26E241EEEF
:1036400062EEF1CF01368DE5180709F41AC48091B6
:103650009A028272063D3CE5130708F01DC1023C48
:103660009CE5190708F424C1F801E35CFC45E3314B
:10367000F10508F029C1EC5FF54D0C944829F801DB
:10368000E350FC4580919F028160E331F10528F50C
:10369000E95EF54D0C9448290330BDE51B0778F42D
:1036A0000A3FECE51E0708F4FCC3F801EB5FFC459C
:1036B000E830F105E8F4E65DF54D0C944829013653
:1036C0001D4509F0EEC390919F02892F8F7E94FFD4
:1036D000806103C080919F02826080939F02E1C35A
:1036E00080919F028460F9CF80919F028860F5CF1E
:1036F0008091A00281608093A002D3C38091A00238
:103700008260F9CF80919F028061E7CF80919F0214
:103710008062E3CF80919F028064DFCF0E94C2125B
:1037200080919F028068D9CF80919F028C60D5CF15
:103730008091A0028360DFCF80919F028E7FCDCFEA
:1037400080919F028D7FC9CF80919F028B7FC5CFD3
:1037500080919F02877FC1CF8091A0028E7FCBCFC7
:103760008091A0028D7FC7CF80919F028F7EB5CFC1
:1037700080919F028F7DB1CF80919F028F7BADCFD3
:103780000E94C21280919F028F77A7CF80919F02E3
:10379000837FA3CF8091A0028C7FADCF80919F02C9
:1037A00082FB992790F921E0922790FB82F990FB08
:1037B00083F993CF8091A002982F909591708E7F7E
:1037C000892B90FB81F997CF0E94C21290919F02A2
:1037D000892F97FB87F9805880CF61E08EE090E0D9
:1037E0000E949A295EC360E0F9CF85E39BCE809169
:1037F0009202811104C089E20E94F20495CE85E311
:10380000FBCF811124CFF7018281C080D180882332
:1038100009F4F9C0C6010E943912182F682FC60199
:103820000E946004B601812F0E942C120E94C605DE
:103830008C01D70112969C90129715968C908294C9
:103840002FE0822280919E028770C1F0C92C9920BE
:10385000B1F0812F807F803421F080E2800F8830AA
:1038600068F08091A00282FD09C082E00E94F80AFF
:1038700080919E028770CC24C3948111C12C812F2A
:1038800082958F70A82EB12C8C3008F02CC1F501D8
:10389000EE5CF54D0C9448290D35100709F4F5CC74
:1038A00081E00A35EDE51E0709F49BC008F08AC0E7
:1038B00001152CE5120709F497C00E3D1C4509F0CF
:1038C000A2CF0E94F616E1CC8091950280FF21C024
:1038D0008E7F809395028091950290919602A0919F
:1038E0009702B09198028D839E83AF83B887BC0105
:1038F000CD010E949B15109294029FEFA0E7B2E0C9
:103900009150A040B040E1F700C000000E94EE0DD1
:10391000BCCC81608093950261E086950E947A1804
:10392000B4CC4AED58E160ED78E10E941F09ADCCBE
:1039300040ED58E16AED78E1F8CF4DEB56E164EBEC
:1039400076E1F3CF44EB56E16DEB76E1EECF42ED5D
:1039500056E166EC76E1E9CF46EC56E162ED76E1C0
:10396000E4CF4AEE56E16EED76E1DFCF4EED56E163
:103970006AEE76E1DACF41EE55E16EEB75E1D5CF37
:103980004EEB55E161EE75E1D0CF61E081E0C6CF4D
:1039900065E082E00E94E51878CC68E086E0FACF26
:1039A0006EE089E0F7CF64E18FE0F4CF67E185E175
:1039B000F1CF61E088E1B2CF62E289E1EBCF61E073
:1039C00083E2ACCF0B358DE51807D9F00C351D45DA
:1039D00009F019CF8091A00282FB882780F991E03D
:1039E00089270E9425110FCF0E94C212AFEFB4E3C6
:1039F000ECE0A150B040E040E1F700C000000E94C0
:103A00006D1080E0EECFC6010E948C04182F0ACF03
:103A1000B12FBF70DB2E107F19F0D29490EFD92216
:103A20009920B9F0DD2069F080E2800F883010F035
:103A3000011109C080919A028D2980939A020E94F7
:103A40002D05802F4EC08091A1028D298093A10267
:103A5000F6CF802F0E94660ADD2009F444C080E280
:103A6000800F883010F0011104C08D2D0E941F05B9
:103A700006C0D0948091A1028D218093A1020E9462
:103A80002D0531C0E12FEF70DE2E107F103219F0BE
:103A9000D29480EFD822002399F0013009F48BC032
:103AA000992009F495C0882009F48BC0D701159698
:103AB0008C91159780FFC5CF8F7015968C9381C020
:103AC0002091A00222FF54C0992009F44AC0DD20B1
:103AD00039F080919A028D2980939A020E942D05D7
:103AE00080E00E94B60C38E0A31AB10884E0A81662
:103AF000B10420F40E94FC090E945A04CC20B1F0C9
:103B000080919E0280FD12C0D70112961C9285956D
:103B1000859585950E94E10AC7010E94F31880915E
:103B20009E028595859585950E94EC0A60E0C70107
:103B300028960FB6F894DEBF0FBECDBFDF91CF91B0
:103B40001F910F91FF90EF90DF90CF90BF90AF90BB
:103B50009F908F907F906F905F904F903F900C94CC
:103B6000681280E00E94660ADD2009F4BCCF7DCF98
:103B70009920A1F090919B028D2D892B811003C07B
:103B80000E947205B0CFF1E08F12FACF22FDABCFC9
:103B9000981709F4A8CF80939B02A5CF811006C087
:103BA0000E9427058D2D0E947C059DCF21E0821665
:103BB00009F499CFF5CF992031F035E0381508F4A4
:103BC00092CF8D2DDDCF84E0881508F48CCFEACF1D
:103BD000882041F3093349F4BFEFE7EEF3E0B15039
:103BE000E040F040E1F700C00000802F0E94660A2C
:103BF0007ACF812F86958695837061F0813009F0A8
:103C000072CFC8019370911002C090E080E00E94D2
:103C10001E0A69CFC8019370911002C090E080E045
:103C20000E94080A60CF802F992029F00E94AD07DA
:103C30000E94400A58CF0E94F607FACF812F837066
:103C4000A1F5911050CF802F829586958770880FAF
:103C5000880F402F4F70082E01C0440F0A94EAF7D6
:103C6000202F207104FF07C02FE030E001C0220F99
:103C70008A95EAF72095169516951370123081F003
:103C8000822F842B133031F080919C02113029F067
:103C9000242B82230E94D90A26CF842B822BFACF91
:103CA000242B80919C028227F5CF992061F110FF8F
:103CB0001ACF802F829586958770880F880F402FA6
:103CC0004F70082E01C0440F0A94EAF7202F20718C
:103CD00004FF07C02FE030E001C0220F8A95EAF709
:103CE0002095169516951370123099F0822F842B1B
:103CF000133031F080919D02113041F0242B82234A
:103D00000E94DD0AF0CE11FFEECED3CF842B822BA2
:103D1000F7CF242B80919D028227F2CF1F7099202C
:103D200029F0812F0E94E10A802F2ACF802F0E9444
:103D30007C05812F0E94EC0AD6CE023F81F160F40F
:103D4000003FB9F0013F81F0992009F458C081107B
:103D500078CE812F8F7127C0033F41F1043FA1F737
:103D60008091A00282FF2DC0812F8F71992011F3C5
:103D70001AC0992079F024E0281508F4B4CE1F71F8
:103D800081E090E001C0880F1A95EAF790919D02BA
:103D90008927B6CF35E0381508F4A5CEF0CF812FAE
:103DA0008F719110C7CF0E94E10A9DCE80E09920CB
:103DB00009F4A6CF1F7181E001C0880F1A95EAF7B8
:103DC0009FCF992089F01F71812F0E94E10A809175
:103DD000A00282FD07C0A8E01A9FC00111248360E1
:103DE00080939E02812FDFCF81E00E94F80AB1E02C
:103DF000B81508F078CE82E00E94F80A74CE8820C8
:103E000059F0093309F0F1CEEFEFF7EE23E0E1507E
:103E1000F0402040E1F7E7CE812F8F718BCF00314A
:103E2000BFE51B0709F437CB0131EFE51E0709F4A5
:103E30003CCB0E3BFCE51F0709F495CB08F037CBD4
:103E40000C3B3CE5130709F47ACB0D3B9CE51907C5
:103E500009F477CB0B3BACE51A0709F468CB109259
:103E6000910203302DE5120708F0ECCB0A3F3CE548
:103E7000130738F4980122503C452431310508F0ED
:103E80003DCB0E94DF119093A00280939F020631E8
:103E90009CE5190708F000CC0230ACE51A0708F0E1
:103EA000EECB60919F021091A00284E090E00E940E
:103EB0009A29612F82E290E00E949A290E94C21200
:103EC000E4C961E0C7010E9468128C01D701129613
:103ED0008C918111C8C90031FFE51F0709F4E1CABF
:103EE00001312FE5120709F0ECCA82E0DBCA1F930B
:103EF000CF93DF938091D902807FA9F48091D6027D
:103F0000882389F08091A302C091A2027091D4020B
:103F10006091D502A091D702B091D802D62FD723B5
:103F200016E0C81304C0DF91CF911F91089590E06F
:103F3000109711F0DF3F19F401968770F2CF189FA8
:103F40009001199F300D1124F901EC55FD4F41816D
:103F50006413F2CF40814713EFCF42814111ECCF80
:103F6000438154814A1B5B0B483C510528F78091E3
:103F7000D9028F7080618093D902F901E755FD4F16
:103F800080818F708061808384ED92E00E94F318BD
:103F9000DF91CF911F910C94B4048F929F92AF92B6
:103FA000BF92DF92EF92FF920F931F93CF93DF9315
:103FB000CDB7DEB72B970FB6F894DEBF0FBECDBFDF
:103FC0008C0185E0F801DE01179601900D928A952B
:103FD000E1F7F801E280A380B48084ED882E82E0CE
:103FE000982E9091D4028091D5022091D7023091E1
:103FF000D8022115310529F0482F49234F3F09F0F8
:1040000028C1EE2009F433C1F801808191810E941A
:104010009512F82E882309F42AC186E0F801A4ED50
:10402000B2E001900D928A95E1F70E94771F21C0BE
:10403000D090D9024D2D407F283C310508F0A8C012
:10404000F80121814111C3C0FE2C281325C08081B5
:10405000891322C0E11020C08D2D8F708061809364
:10406000D90284ED92E00E94F3188091D902F80100
:1040700085838F2D2B960FB6F894DEBF0FBECDBF74
:10408000DF91CF911F910F91FF90EF90DF90BF9044
:10409000AF909F908F9008953F81AB2829F0822F99
:1040A00083238F3F09F090C080E0F82FF170DF2E5E
:1040B000E091A3024091A20256E080FD1CC0EE20D8
:1040C000C1F28091D90281608093D902F12CD1CFC5
:1040D0008E2F90E05E9FF0011124EC55FD4F618121
:1040E000261306C06081361303C06281E612E7CF53
:1040F0000196E82FE770E413EBCF8F8198850E943B
:104100008712292F22952F70903260F0225F2F7036
:10411000223078F49F7051F0F8019581907F31F44E
:10412000D12C0AC09F7011F08823D1F3805E8830B3
:10413000B8F3C8010E94F318FD2C9BCFF8018081D1
:1041400091810E949512882309F491C0EE2009F410
:104150008EC08091D902803270F08091D40290910B
:10416000D5029A8389831B82BD82AC82DE82CE0116
:1041700001960E94F31886E0F801A4EDB2E00190E8
:104180000D928A95E1F70E94771FFF24F39471CF77
:10419000411132C084ED92E00E94F31886E0F401F0
:1041A00011928A95E9F792CFF801808191810E945E
:1041B00095128111E0CF8091D90281608093D9025C
:1041C000C8010E94F31855CF81E08E256ECF2813C9
:1041D000B5CFF80180818913B1CFE110AFCFD5827F
:1041E000C8010E94F31886E0F801A4EDB2E0019046
:1041F0000D928A95E1F73DCFF801218182139ECF80
:10420000F801808189139ACFE11098CFD582C80137
:104210000E94F31886E0F40111928A95E9F729CFFC
:10422000F80121818213C0CFF80180818913BCCFAE
:104230008091D90280FDD7CF982F907FA1F28583FE
:10424000903F71F2982F907F905F8F70892B8583BC
:10425000C7CFF090D602A501421B530B9A01F11073
:10426000E7CE283C3105B0F6FE2CE110D9CFC801CD
:104270000E94F3188ACF1F93CF93DF93CDB7DEB799
:1042800067970FB6F894DEBF0FBECDBF342F4B8BB0
:10429000252F5C8B962F6D8B7E8B8F8B4E895F8944
:1042A00061111092A1021A8A3D872E879F87598B30
:1042B000488B86E0FE013D96DE01179601900D9237
:1042C0008A95E1F7CE0107960E94CD1F882389F0D9
:1042D00016E08091A3029091A202891349C06796CB
:1042E0000FB6F894DEBF0FBECDBFDF91CF911F9107
:1042F000089586E0FE013796DE01119601900D9239
:104300008A95E1F79F8188852091A2024091A302BE
:104310006A857B85672BE1F289238F3FC9F230E004
:10432000C9010196877099274817190671F40E94F0
:10433000C2121092A2021092A30286E0E4EDF2E013
:10434000DF011D928A95E9F7C3CF96E0929FD001D5
:10435000939FB00D1124AC55BD4FFE0131960190D5
:104360000D929A95E1F78093A2020E94B404B0CF17
:10437000819FC00111248C559D4F0E94CD1F882321
:1043800009F4ADCF8091A30290E001968770992740
:104390008093A3029ECFCDB7DEB7A9970FB6F8944E
:1043A000DEBF0FBECDBF84B7877F84BF0FB6F89442
:1043B000A8958091600088618093600010926000F1
:1043C0000FBE80E890E00FB6F89480936100909360
:1043D00061000FBE85B7806885BF85B7806885BFDF
:1043E0008FE497E090939901809398010E94D10BFC
:1043F0000E94550C8091E20084608093E2007894E2
:1044000080914402882399F08091E9001091EC009A
:104410001795112717958F70182B1092E90080912E
:10442000E80083FD0E94D7121F701093E90082E01C
:1044300084BD93E095BD9AEF97BD80936E000E9476
:10444000ED11811102C00E94D01103E511E0A9E530
:10445000EA2EA1E0FA2ED8018D918D018F3F11F047
:104460000E945107E016F106B1F709E511E0F9E6FF
:10447000EF2EF1E0FF2EF80181918F018F3F11F0B7
:104480000E945107E016F106B1F78CE0E8E4F2E093
:10449000DF01282F1D922A95E9F7E4E5F2E0DF011C
:1044A0001D928A95E9F70E946017811102C00E944F
:1044B000F61682E090E00E948629809333020E94E3
:1044C000DF119093A00280939F020E949117EFE367
:1044D000FCE93197F1F700C000000E94911780912C
:1044E000480280FF08C06FEF7FEF90E080E00E94FD
:1044F000B8290E946D1083E090E00E9486290E94F6
:10450000D90A229A2A9A269A2E9882E280938000CB
:1045100089E1809381008FEF9FEF909387008093D4
:1045200086000E946B170E946B17809123028111F5
:1045300033C00E946017811104C00E94F6160E94C9
:10454000AF1588E090E00E948E29609395027093E9
:10455000960280939702909398026E7F71F40E9466
:10456000AF1588E090E00E948E29609395027093C9
:10457000960280939702909398020E9410091092DD
:1045800094028091950280FF04C060E086950E94AD
:104590007A1881E0809323028EE091E0909361028B
:1045A0008093600268E1862E912C70E4772EE4E51A
:1045B000AE2EE2E0BE2E80914402FF24F39400E18F
:1045C00012E1853009F4E7C10E949117882359F060
:1045D0008FB7F8944091400250914102609142029D
:1045E000709143028FBF58E4E52E52E0F52EE4E3CC
:1045F000F2E0D70110E000E0702F8D919D912191A4
:1046000031912817390709F4EBC12827392760E0D1
:10461000CC24C394D12CA9014C215D21452B09F454
:10462000D9C169837A839C012C213D2191E0232B00
:1046300009F490E09B830E94340A8160782F9D8367
:104640008C8349815A816B81892F0E943B21000F05
:10465000111FF801EC5CFD4F808191818C259D2517
:1046600091838083809194028823D1F18091930279
:10467000E0919502E695E81BE0932A02823009F06A
:10468000C6C1F0E0E259F84FE4910E2F10E089E442
:10469000C82E80E1D82E80912B02882361F01092E1
:1046A0002B020E94340A90932902809328021092D0
:1046B0002D0210922C020E94340A2091280230917F
:1046C0002902821B930B8F3F9F4750F4200F311F0D
:1046D000309329022093280288E292E0F60109959E
:1046E00086E0EAE8F2E0DE01119601900D928A95EB
:1046F000E1F7C0908C02D0908D0200918E02109153
:104700008F0210928C0210928D0210928E021092E3
:104710008F028C2D8D2909F448C080913002909130
:1047200031020E94140B9C0180918902882309F4B4
:10473000E4C323333105C8F18F3F19F08F5F8093B5
:104740008902CC2059F00E946B079FEF1C140CF4D7
:1047500091E0899F802D112480938C02DD2059F0F7
:104760000E946B079FEF1D140CF491E0899F802D30
:10477000112480938D0230918C023323B1F020916B
:104780008D02222391F045EB3403C00111249923BB
:1047900009F49BC190938C0255EB250390011124E1
:1047A000332309F496C130938D02802F812B09F4B5
:1047B00048C080912E0290912F020E94140B9C0100
:1047C00080918802882309F493C325363105C8F106
:1047D0008F3F19F08F5F80938802002359F00E9469
:1047E0008B079FEF10160CF491E0899F802D112408
:1047F00080938E02112359F00E948B079FEF1116B0
:104800000CF491E0899F802D112480938F023091C8
:104810008E0220918F023323A1F0222391F045EBE9
:104820003403C0011124992309F457C190938E02D7
:1048300055EB250390011124332309F452C1309321
:104840008F0280918C0290918D02892B90918E0223
:10485000892B90918F02892B11F00E94400A86E0EB
:10486000FE013196AAE8B2E001900D928A95E1F737
:104870000E94FC0990913202891731F00E94FC09D4
:10488000809332020E945A0480914402843009F0DD
:1048900092CE83E08093E9008091E80082FF8BCE86
:1048A0008091E80090E085FF0CC00E94A00B30E2F0
:1048B000C32ED12C8E010F5F1F4F882309F41FC117
:1048C00091E08091E8008B778093E800992309F4C8
:1048D00072CEE981E150E33108F090C1F0E0E25C92
:1048E000F54D0C94482980914402843009F443C06A
:1048F00080E00E94240980E00E945A0410929402F1
:1049000080912602811116C0F092260280919502B4
:10491000982F9170909325028E7F80939502FFEFE0
:1049200020E732E0F15020403040E1F700C00000C5
:104930000E94EE0D109224020FB6F894A895809272
:1049400060000FBE7092600083B7817F846083BF78
:1049500083B7816083BF7894889583B78E7F83BF48
:104960000FB6F894A89580916000886180936000EC
:10497000109260000FBE80912702882361F00E9490
:104980009117E8E4F2E081919191892B09F091C2AD
:10499000AE16BF06C1F780914402853009F4A3CF5B
:1049A0000E94C2120E946B170E94FC090E945A04C6
:1049B0001092260280912502882349F08091950269
:1049C00081608093950260E086950E947A180E942B
:1049D0006418FACD6F5FCC0CDD1C603109F01BCE82
:1049E0000F5F1F4F0630110509F006CE8FEF89A328
:1049F0008AA31BA20E94340A8160782F9DA38CA3F6
:104A000049A15AA16BA1892F0E943B212BCE853150
:104A100009F447C068F4893061F18F30B1F1863014
:104A2000E9F000ED17E04AE6C42E47E0D42E33CE7D
:104A3000833209F441C004EF11E053E2C52E5EE079
:104A4000D52E843209F427CE08E210E0B5E3CB2E50
:104A5000BFE0DB2E883109F41ECEE3CFF0E0E5594C
:104A6000F84FE4910E2F10E0ADE5CA2EA0E1DA2E4A
:104A700012CEE695F0E0E859F84FE4910E2F10E0E1
:104A8000FBE5CF2EFEE0DF2E06CEE695F0E0EB59FB
:104A9000F84FE4910E2F10E0E5E8CE2EEEE0DE2E8A
:104AA000FACDF0E0EE59F84FE4910E2F10E077EEDA
:104AB000C72E7EE0D72EEFCDE0E6F7E0059114910A
:104AC0006AEEC62E6FE0D62EE6CD81E080938C0292
:104AD00063CE81E080938D0268CE81E080938E0268
:104AE000A7CE81E080938F02ACCE8091F100D801F7
:104AF0008D938D01B1E0CB1AD10809F4E1CE8091FC
:104B0000E80085FDF2CF8091E8008B778093E80084
:104B10000E94A00B882399F3D3CE1A8289E08B835D
:104B200023C08A81823009F4DAC1833009F442C09B
:104B3000813009F063C08FB7F89420914002309122
:104B4000410240914202509143022EA33FA348A745
:104B500059A78FBF6EA17FA188A599A50E944E2954
:104B60006B837C838D839E8380914402843009F023
:104B700022CD8091E9001091EC001795112717952F
:104B80008F70182B82E08093E9008091E80080FF0D
:104B90000DC050E040E060E270E0CE0101960E945E
:104BA000F00B8091E8008E778093E8001F701093DF
:104BB000E90001CDFE013196D7018C9111969C91AF
:104BC000B2E0EB0EF11C928383833296AE14BF04E5
:104BD00099F7CACF8A81823089F42B813C814D813B
:104BE0005E812EA33FA348A759A7CA01B9010E941D
:104BF0004E2986E290E00E949A29B6CF8FEF8983F2
:104C0000B3CF4C816B818A810E9406129827892735
:104C100098279E838D83A8CFED80FE80FE24EF240D
:104C2000FE248A810B8130E2039F8001112440EC35
:104C3000849F000D111D11248C8190E0880F991F15
:104C4000080F191F6F2DC80187960E949A296E2D93
:104C5000C8018896D0CF0E94421186CF8A818930C0
:104C600061F48B8155E0859FC00111246FEF70E0E6
:104C70000E94FE28862F0E94E6098A818238D1F19F
:104C8000F8F4803831F1813809F06ECF60E08B8123
:104C90000E947A189B8180919502911123C08E7F8A
:104CA00080939502109294028FEF90E7A2E08150DA
:104CB0009040A040E1F700C000000E94EE0D54CFEC
:104CC000833809F051CF20E0409198026C818B81AC
:104CD00006C020E04B8160919702809196020E946D
:104CE000041642CF81608093950260E086950E9411
:104CF0007A183ACF8B818093990236CF8A81893096
:104D000059F08A30C1F0813821F1B8F4803809F0C7
:104D10002BCF8091980203CF809190028695869543
:104D20008695BFEF8B9FC001112465E070E00E9463
:104D3000FE286B8319CF1B8217CF823891F08338FE
:104D400009F012CF809196028B83809197028C8319
:104D50000BCF8091950280FF02C08695E0CE80E067
:104D6000DECE80919902DBCE809190020E94A31149
:104D700020919502309196024091970250919802AD
:104D80002EA33FA348A759A7CA01B9010E949B15AA
:104D9000EBCE80E18A83E8CE1A8289EDC0CECA804C
:104DA000DB80DC24CD24DC248C817601E80EF11C30
:104DB0008E010B5F1F4FC601895D9C4FEC14FD04F3
:104DC00009F4D2CE39EDC316D10448F40E948629E5
:104DD000D8018D938D01BFEFCB1ADB0AECCF80E0B9
:104DE000F7CF0A811B81102701271027FE0131967A
:104DF0006F018C817F01E80EF11CC801895D9C4F19
:104E0000CE14DF0409F4B0CE093D110528F4D60113
:104E100014966C910E949A290F5F1F4FBFEFCB1A17
:104E2000DB0AEBCF0E94C0119FCE84E0B3CFCA80D3
:104E3000DB80DC24CD24DC248C817601E80EF11C9F
:104E40008E010B5F1F4FC6018796CE14DF0409F455
:104E50008BCEC114E3E0DE0648F40E948629D80117
:104E60008D938D01BFEFCB1ADB0AEDCF80E0F7CF3A
:104E70000A811B81102701271027FE0131966F013F
:104E80008C817F01E80EF11CC8018796EC14FD04AB
:104E900009F46ACE0115F3E01F0728F4D601149631
:104EA0006C910E949A290F5F1F4FBFEFCB1ADB0A4C
:104EB000EBCF09BD19BD09B400FEFDCF8091D8002C
:104EC0008F7D8093D8008091E00082608093E00025
:104ED0008091E00081FDFCCF0E94C2125CCD86E291
:104EE00090E00E9486291B821C821D828E833CCE0C
:104EF0002D32314008F06ECCA4CC2D32314008F078
:104F00001DCC53CC1F921FB61F9211248F939F93D9
:104F1000AF93BF9380912402811113C0809140020E
:104F200090914102A0914202B09143024196A11D8D
:104F3000B11D8093400290934102A0934202B0932E
:104F40004302BF91AF919F918F911F901FBE1F9001
:104F5000189578941F921FB61F9211248F939F93D8
:104F6000AF93BF938091400290914102A091420281
:104F7000B09143020196A11DB11D80934002909310
:104F80004102A0934202B0934302BF91AF919F911F
:104F90008F911F901FBE1F9018951F920F920FB6F2
:104FA0000F9211242F933F934F935F936F937F93AF
:104FB0008F939F93AF93BF93EF93FF938091E10003
:104FC00082FF09C08091E20082FF05C08091E1006C
:104FD0008B7F8093E1008091DA0080FF24C0809174
:104FE000D80080FF20C08091DA008E7F8093DA00A5
:104FF0008091D90080FF9BC080E189BD82E189BD9D
:1050000009B400FEFDCF81E0809344028091BF018E
:10501000811109C00E94D10B0E94550C8091E200C1
:1050200084608093E2008091E10080FF17C080914E
:10503000E20080FF13C08091E2008E7F8093E20047
:105040008091E20080618093E2008091D8008062CC
:105050008093D80019BC85E0809344028091E100E0
:1050600084FF29C08091E20084FF25C080E189BDD2
:1050700082E189BD09B400FEFDCF8091D8008F7D0B
:105080008093D8008091E1008F7E8093E100809131
:10509000E2008F7E8093E2008091E2008160809345
:1050A000E2008091BE01882309F447C084E0809328
:1050B0004402809144028091E10083FF27C08091E7
:1050C000E20083FF23C08091E100877F8093E100AD
:1050D00082E0809344021092BE018091E1008E7FB5
:1050E0008093E1008091E2008E7F8093E2008091C6
:1050F000E20080618093E20042E060E080E00E9494
:10510000250C8091F00088608093F000FF91EF9172
:10511000BF91AF919F918F917F916F915F914F91CF
:105120003F912F910F900FBE0F901F90189519BCB3
:10513000109244021092BF0176CF8091E30087FD68
:1051400002C081E0B4CF83E0B2CF1F920F920FB6BE
:105150000F921124FF920F931F932F933F934F931E
:105160005F936F937F938F939F93AF93BF93CF93EF
:10517000DF93EF93FF9309EE10E0F8018081C09177
:10518000EC00C795CC27C7958F70FC2EF82A1082AB
:10519000C0EFD0E08881877F888378940E94D712FF
:1051A000F8011082888188608883CF2DCF70C083FA
:1051B000FF91EF91DF91CF91BF91AF919F918F912F
:1051C0007F916F915F914F913F912F911F910F911F
:1051D000FF900F900FBE0F901F901895DB018F93DB
:1051E0009F930E947329BF91AF91A29F800D911D43
:1051F000A39F900DB29F900D11240895AA1BBB1B75
:1052000051E107C0AA1FBB1FA617B70710F0A61BC6
:10521000B70B881F991F5A95A9F780959095BC01E7
:10522000CD01089597FB072E16F4009407D077FD63
:1052300009D00E94FE2807FC05D03EF49095819588
:105240009F4F0895709561957F4F0895A1E21A2EA2
:10525000AA1BBB1BFD010DC0AA1FBB1FEE1FFF1F1A
:10526000A217B307E407F50720F0A21BB30BE40B6A
:10527000F50B661F771F881F991F1A9469F76095B1
:105280007095809590959B01AC01BD01CF0108956B
:10529000EE0FFF1F0590F491E02D099469279627E2
:1052A000692778278727782708950E945D29332367
:1052B00012F48A1B9B0B0C946E29A29FB001B39F22
:1052C000C001A39F700D811D1124911DB29F700D0F
:1052D000811D1124911D08950E945D29B7FF089535
:1052E000821B930B08950E945D29A59F900DB49F8A
:1052F000900DA49F800D911D11240895B7FF0C946B
:1053000073290E947329821B930B0895F999FECF8C
:1053100092BD81BDF89A992780B50895A6E1B0E0C5
:1053200044E050E00C94C029A8E1B0E042E050E035
:105330000C94C029262FF999FECF92BD81BDF89A11
:10534000019700B4021639F01FBA20BD0FB6F894C9
:10535000FA9AF99A0FBE08950396272F0E949B2967
:105360000E949A29252F0E949B29242F0C949B2967
:105370000196272F0E949B290C949A29DC01CB01CE
:10538000FC01F999FECF06C0F2BDE1BDF89A319655
:1053900000B40D9241505040B8F70895FC014150BF
:1053A000504030F001900616D1F73197CF010895A3
:1053B000882799270895FB01DC0104C08D91019095
:1053C000801921F441505040C8F7881B990B08956B
:1053D000F894FFCFB607BC07BF07C507DA07DA079F
:1053E000DA07DA07DA07C807CD07D107D707E807D2
:1053F000EE07F207BA13E2138315E21383151514AF
:105400003614831532153F15911C981C9D1CA21C47
:10541000A71CAC1CB11CB61CBB1CC01CC51CC81CEA
:10542000CD1CD01CD31CD61CD91CDC1CDF1C6A1B59
:10543000701B741B821B861B8A1B8E1B941B9C1B60
:10544000A01BA41BA81BB41BB81BBC1BC01BC61BEA
:10545000E41BCE1B7E1BAC1BB01B981BCA1BDA1BAC
:10546000ED1BF31B081D081D421D421DF91D131ED7
:10547000731D731D1E1E8E1E9D1E9D1E8D25912546
:10548000EA2501260C262B262E267E26B426FE256E
:10549000FE25C926CC26CF26F12612271527172749
:0254A0003827AB
:1054A20001010201191A1B1C1D1E1F202122230BA0
:1054B2009110D4101D112111260B01000000004093
:1054C20022B684016201AC00D601EF010F02000195
:1054D200020202020606060909090909090F0F0F4D
:1054E2000F0F0F1515151819191919191919191955
:1054F200192324909192939537F0F1C66766F5943B
:1055020031303534979633F4F6E200E900EA00B51B
:1055120000B600B700CD008301CC008A019201944D
:10552200012102230224022502260227022A02B3B3
:0855320000B4006F00700000DE
:00000001FF
