:100000000C9412040C944A040C944A040C944A0470
:100010000C944A040C944A040C944A040C944A0428
:100020000C944A040C944A040C948D2C0C94602D6E
:100030000C94B3260C944A040C944A040C944A047D
:100040000C944A040C944A040C944A040C944A04F8
:100050000C944A040C944D270C944A040C944A04C2
:100060000C944A040C944A040C944A040C944A04D8
:100070000C944A040C944A040C944A040C944A04C8
:100080000C944A040C944A040C944A040C944A04B8
:100090000C944A040C944A040C944A040C944A04A8
:1000A0000C944A040C944A040C944A0429003A0023
:1000B0003B003C003D003E003F004000410042004C
:1000C000430044004500A8004600470035001E00DC
:1000D0001F0020002100220023002400250026000C
:1000E00027002D002E002A0049004A002B00140092
:1000F0001A000800150017001C0018000C00120060
:1001000013002F00300031004C004D003900040076
:100110001600070009000A000B000D000E000F007A
:1001200033003400000028004E004800E1000000C9
:100130001D001B000600190005001100100036000C
:10014000370038000000E5004E005200E000E300F8
:10015000E2000000000000002C0000000000000091
:10016000E600E700E400500051004F0001000100EC
:100170000100010001000100010001000100010077
:100180000100010001000100010001000100010067
:100190000100010001000100010001000100010057
:1001A0000100010001000100010001000100010047
:1001B0000100010001000100010001000100010037
:1001C0000100010001000100010001000100010027
:1001D0000100010001000100010001000100010017
:1001E0000100010000000100010001000100000009
:1001F00001000100010001000100010001000100F7
:1002000001000100000001000100010001000100E7
:1002100001000000000000000100000000000000DC
:1002200001000100010001000100010001000100C6
:1002300001000100010001000100010001000100B6
:1002400001000100010001000100010001000100A6
:100250000100010001000100010001000100010096
:100260000100010001000100010001000100010086
:100270000100010001000100010001000100010076
:100280000100010001000100010001000100010066
:100290000100010001000100010001000100010056
:1002A0000100010000000100010001000100000048
:1002B0000100010001000100010001000100010036
:1002C0000100010000000100010001000100010027
:1002D000010000000000000001000000000000001C
:1002E0000100010001000100010001000100010006
:1002F00001000100010001000100010001000100F6
:1003000001000100010001000100010001000100E5
:1003100001000100010001000100010001000100D5
:1003200001000100010001000100010001000100C5
:1003300001000100010001000100010001000100B5
:1003400001000100010001000100010001000100A5
:100350000100010001000100010001000100010095
:100360000100010000000100010001000100000087
:100370000100010001000100010001000100010075
:100380000100010000000100010001000100010066
:10039000010000000000000001000000000000005B
:1003A0000100010001000100010001000000000047
:1003B000000000002A2B28000000000000000000C0
:1003C0000000000000000029000000002C1E342066
:1003D000212224342627252E362D3738271E1F208C
:1003E0002122232425263333362E37381F040506D1
:1003F0000708090A0B0C0D0E0F1011121314151615
:100400001718191A1B1C1D2F3130232D3504050612
:100410000708090A0B0C0D0E0F10111213141516F4
:100420001718191A1B1C1D2F3130354C0000000005
:1004300000000000000000000000000000000000BC
:1004400000000000000000000000000000000000AC
:100450007E0F00D4FFFFFFC7000000781E0F0500CD
:10046000047F3F1F643214643214783C1E1E140A49
:10047000052223252628292A2C2D2F3032333536E4
:10048000383A3B3D3E4042434547494A4C4E505125
:10049000535557595A5C5E6062646668696B6D6F4C
:1004A00071737577797B7D7F81838587898A8C8E4F
:1004B00090929496989A9C9E9FA1A3A5A7A8AAAC57
:1004C000AEAFB1B3B4B6B8B9BBBCBEBFC1C2C3C591
:1004D000C6C7C9CACBCCCDCED0D1D2D2D3D4D5D633
:1004E000D7D7D8D9D9DADADBDBDBDCDCDCDCDCDD66
:1004F000DDDDDDDCDCDCDCDCDBDBDBDADAD9D9D84A
:10050000D7D7D6D5D4D3D2D2D1D0CECDCCCBCAC9E1
:10051000C7C6C5C3C2C1BFBEBCBBB9B8B6B4B3B110
:10052000AFAEACAAA8A7A5A3A19F9E9C9A989694AB
:1005300092908E8C8A89878583817F7D7B79777580
:1005400073716F6D6B6968666462605E5C5A59575F
:10055000555351504E4C4A4947454342403E3D3B1E
:100560003A3836353332302F2D2C2A2928262523A8
:1005700022FFAA7F55400001010101010101010193
:100580000202020202020202020303030303030344
:100590000304040404040404050505050506060611
:1005A0000606070707070708080808090909090ACE
:1005B0000A0A0B0B0B0C0C0C0D0D0D0E0E0E0F0F73
:1005C0000F10101111111212131314141515161601
:1005D0001717181819191A1A1B1B1C1D1D1E1E1F70
:1005E0002020212222232424252626272829292ABF
:1005F0002B2C2D2D2E2F30313232333435363738E7
:10060000393A3B3C3D3E3F404142434445464748E2
:10061000494A4C4D4E4F50515354555658595A5BB8
:100620005D5E5F616264656668696B6C6D6F707258
:10063000737577787A7B7D7E8082838587888A8CC4
:100640008E8F91939596989A9C9EA0A2A3A5A7A9F8
:10065000ABADAFB1B3B5B7BABCBEC0C2C4C6C9CBEF
:10066000CDCFD1D4D6D8DBDDDFE2E4E7E9EBEEF0A5
:10067000F3F5F8FAFDFF1003540049004700450068
:10068000520038003000000010034B0042004400CC
:10069000460041004E005300000004030904090213
:1006A0005B00030100A0FA0904000001030101003E
:1006B0000921110100012240000705810308000102
:1006C00009040100020300000009211101000122B8
:1006D0002200070582032000010705030320000113
:1006E0000904020001030000000921110100012298
:1006F000B60007058403200001120100020000007B
:1007000008424B11000100010200010660FF09616F
:10071000A1010962150026FF0095207508810209D4
:1007200063150026FF00952075089102C005010998
:1007300002A10185020901A1000509190129081575
:10074000002501950875018102050109300931155F
:1007500081257F95027508810609381581257F95C9
:100760000175088106050C0A38021581257F95015F
:1007700075088106C0C005010980A1018503190122
:100780002AB700150126B700950175108100C00534
:100790000C0901A101850419012AA002150126A056
:1007A00002950175108100C005010906A1018506A9
:1007B000050719E029E71500250195087501810253
:1007C0000507190029EF1500250195F07501810233
:1007D0000508190129059505750191029501750313
:1007E0009101C005010906A101050719E029E715D6
:1007F00000250195087501810295017508810105A3
:1008000007190029FF150026FF00950675088100CD
:1008100005081901290595057501910295017503D2
:100820009101C00011241FBECFEFDAE0DEBFCDBFC3
:1008300004B603FE18C08091BA039091BB03A09147
:10084000BC03B091BD038730904BA740B04B59F427
:100850001092BA031092BB031092BC031092BD0316
:10086000E0E0F8E3099511E0A0E0B1E0E2E3F2E6B0
:1008700002C005900D92A03EB107D9F723E0A0EE8B
:10088000B1E001C01D92AA3BB207E1F70E943E14FD
:100890000C94B0300C94000081E0089581E008953C
:1008A0000C944E0408950C9452041F93CF93DF933D
:1008B00000D000D00F92CDB7DEB749835A836B8347
:1008C0003091E30189819A8131111DC06623B9F00D
:1008D0002223A9F00E94130B182F682F89819A8177
:1008E0000E94BF0A69817A81812F0F900F900F902B
:1008F0000F900F90DF91CF911F910C94A1230E9434
:10090000EB0A182FEFCF0E94130B69817A81EDCF8C
:10091000FC01262F408151816281738184810C9476
:10092000550481E00895CF93DF93D82FC92F60E05D
:100930000E9488046D2F7C2FDF91CF910C9453047B
:10094000E1E0F0E0DF0102C0AA0FBB1F6A95E2F709
:10095000BD01DF0102C0AA0FBB1F4A95E2F76A2B57
:1009600001C0EE0F2A95EAF7962F9823961302C03E
:100970008E2B0895E0958E230895242F462F682FFF
:10098000809108020E94A0040C947C0A0C94DB1253
:100990000C94DE1208950E94150A0E94CA042FEFDB
:1009A00084E39CE0215080409040E1F700C00000CB
:1009B0000C9471270F931F93CF93DF938C0161E009
:1009C0000E948804EC01B8010E943E20882309F4AB
:1009D00041C0B801CE010E9450048823D9F1B8016A
:1009E000CE010E94FE248823A9F1B801CE010E9405
:1009F000E621882379F1B801CE010E94682488237A
:100A000049F1B801CE010E94F61E882319F1F801C0
:100A10008281882361F0CA35FDE5DF0721F170F49A
:100A2000C115ECE5DE07A1F0CE3DDC45C9F0C801FB
:100A3000DF91CF911F910F910C944C04CB358DE534
:100A4000D807A1F0CC35DD4591F70E94330FEFCFE9
:100A50000E94CB0480E0DF91CF911F910F91089508
:100A60000E94EC0FF7CF0E943C0FE1CF0E943F0F96
:100A7000DECF0E9497260E943C060C94461D0E94E1
:100A80003F060E942D1E0C949B26DF92EF92FF9250
:100A90000F931F93CF93DF93E82FF0E0E455FC4FC3
:100AA000D490282F26952695269530E0F901E45B11
:100AB000FB4F0491877010E0082E02C01595079532
:100AC0000A94E2F701701127F901E45CFB4FE4900E
:100AD000F12C082E02C0F594E7940A94E2F791E015
:100AE000E922FF24F901E45DFB4FC491D0E002C08C
:100AF000D595C7958A95E2F7C170DD2701151105D7
:100B000019F081EE0E949806E114F10419F086EEC6
:100B10000E9498068D2D0E949607EF2819F086EE08
:100B20000E942907012B19F081EE0E942907CD2B85
:100B300051F08CE2DF91CF911F910F91FF90EF90D8
:100B4000DF900C949607DF91CF911F910F91FF904A
:100B5000EF90DF900895EF92FF920F931F93CF9342
:100B6000DF93EC01162F0AE08881882309F456C030
:100B7000813009F050C089818130A1F47E0182E08A
:100B8000E80EF11C8A810E949607E7012196812FC9
:100B9000882351F3EFE9FFE03197F1F700C000003F
:100BA0008150F6CF823041F47E01E2E0EE0EF11C7E
:100BB0008A810E949806E9CF833041F47E01F2E0F9
:100BC000EF0EF11C8A810E942907DFCF843011F0DB
:100BD0002196DCCF2A81229680E090E0AE014F5F23
:100BE0005F4F2053330B2A30310550F0009771F2DC
:100BF000EFE9FFE03197F1F700C000000197F6CF71
:100C0000089FB001099F700D1124C901860F971F1D
:100C10002981EA01E3CF0E944505B8CFDF91CF914A
:100C20001F910F91FF90EF90089560E00C94AB0539
:100C300008950C94180681E00895CF93C82F0E9460
:100C40001B06882331F0C1FF06C0479AC2FF05C0CA
:100C50002A9ACF9108954798F9CF2A98FACF3F9AC8
:100C60004798229A2A980895CF93C82F0E94190670
:100C70008C2FCF910C941D0680E00C9434060E94BA
:100C80005D250C9434060E945D259091E201981731
:100C900021F08093E2010C9434060895EF92FF92C4
:100CA0000F931F93CF93DF93CDB7DEB72B970FB67C
:100CB000F894DEBF0FBECDBF042F4F83152F58878A
:100CC00069877A878B87EA84FB8461110E94810E91
:100CD0001E8285E0FE013796DE01119601900D928D
:100CE0008A95E1F7EF28A9F449815A816B817C81CB
:100CF0008D819E810E94A00D2B960FB6F894DEBFC9
:100D00000FBECDBFDF91CF911F910F91FF90EF905C
:100D1000089510231F3F41F3CE0101960E949104D4
:100D20008111E2CFE9CFFC01808191810C94400BCD
:100D3000CF93C82F882309F48AC08238C1F40E9457
:100D40005D2581FD84C089E30E943A0E0E94A10EB8
:100D50002FEF31EE84E0215030408040E1F700C0B9
:100D6000000089E30E94410ECF910C94A10E8338BC
:100D7000A1F40E945D2580FD6AC083E50E943A0EC1
:100D80000E94A10E9FEF21EE34E0915020403040B0
:100D9000E1F700C0000083E5E5CF8438A1F40E94AC
:100DA0005D2582FD54C087E40E943A0E0E94A10E88
:100DB0008FEF91EE24E0815090402040E1F700C099
:100DC000000087E4CFCF8CEF8C0F813A90F46C2F2A
:100DD00080910601909107010E94D325882329F074
:100DE0008C2F0E94410E0E94A10E8C2F0E943A0E61
:100DF000BBCF80E28C0F883048F4C77081E001C01F
:100E0000880FCA95EAF70E94620EAECF8BE58C0F71
:100E1000833038F42C2F2452330BC901CF910C941A
:100E20009325E8E5EC0FE73150F4F0E0EE0FFF1FFB
:100E3000EC5CFE4F80819181CF910C94A925C03F3D
:100E400030F08C2F0E94C214CF910C948415CF9156
:100E50000895882309F452C0823871F40E945D25F8
:100E600081FF4CC089E30E943A0E0E94A10E89E3E3
:100E70000E94410E0C94A10E833859F40E945D2506
:100E800080FF3CC083E50E943A0E0E94A10E83E5DC
:100E9000EFCF843859F40E945D2582FF2FC087E48C
:100EA0000E943A0E0E94A10E87E4E2CF9CEF980FB9
:100EB000913AF0F290E2980F983050F4877091E0F8
:100EC00001C0990F8A95EAF7892F0E94680ED2CF48
:100ED0009BE5980F933020F490E080E00C949325EC
:100EE00098E5980F973120F490E080E00C94A925C4
:100EF000803F20F00E940B150C94841508951F93D9
:100F0000CF93DF93182FEB010E949806209731F4BE
:100F1000812FDF91CF911F910C9429078FE99FE0DA
:100F20000197F1F700C000002197F0CF70E060E07A
:100F3000893311F460E570E00C947F07882321F079
:100F40000E94620E0C94A10E0895882321F00E9445
:100F5000680E0C94A10E0895AF92BF92CF92DF92CB
:100F6000EF92FF920F931F93CF93DF936C01D62FD5
:100F7000C72FFC011281F580F2948FE0F8220E94C5
:100F8000580EE82E8823B9F0E12E1123A1F08C2F02
:100F9000807F803421F080E28D0F8830C8F080910E
:100FA0004F0382FD15C082E00E94020F0E94580E7E
:100FB00091E0E82EE9268C2F82958F70A82EB12C17
:100FC0008C3008F067C0F501EE54FF4C0C94792F7B
:100FD000E12CF1CF0C2F0F70C07F11F00295007F34
:100FE000112399F0002359F080E28D0F883010F022
:100FF000D11107C0802F0E94620E0E94A10E8D2F7A
:1010000041C0802F0E94730EF8CF8D2F0E942907B8
:10101000002309F43FC080E28D0F883010F0D11119
:1010200004C0802F0E94680E03C0802F0E94790E9A
:101030000E94A10E2FC00C2F0F70C07FC03211F084
:101040000295007FDD2381F0D13009F46CC01123BB
:1010500009F476C0FF2009F46CC0F601858180FF99
:10106000CECF8F70858365C080914F0382FF3BC0D8
:10107000112359F0002329F0802F0E94620E0E9454
:10108000A10E80E00E94980605C080E00E9429071A
:101090000111C7CFE8E0AE1AB108F4E0AF16B10411
:1010A00020F40E945D250E943406EE2009F45BC105
:1010B0000E94540E80FD57C1F60112820E944E0E0E
:1010C0000E948D0AC6010E94D5090E944E0EDF9132
:1010D000CF911F910F91FF90EF90DF90CF90BF9035
:1010E000AF900C94980A112389F0F11006C00E9469
:1010F000840E802B0E949E07CDCFF1E0FF12F7CF28
:101100000E94840E802B0E948A0EC4CFF11006C06C
:101110000E94970E802F0E94A507BCCF21E0F216F7
:1011200009F4B8CFF5CF112331F085E08F1508F41D
:10113000B1CF802FDFCF94E09F1508F4ABCFEACF7B
:10114000FF2041F3D93349F4FFEF27EE83E0F1505C
:1011500020408040E1F700C000008D2F0E94290749
:1011600099CF8C2F86958695837069F0813009F030
:1011700091CF8D2F9C2F9370111102C090E080E0D1
:101180000E94A92587CF8D2F9C2F9370111102C02B
:1011900090E080E00E9493257DCF8D2F112329F0D0
:1011A0000E94C2140E94841575CF0E940B15FACFBD
:1011B0008C2F837089F511116DCF9D2F9295969587
:1011C0009770990F990F4D2F4F70092E01C0440F42
:1011D0000A94EAF78D2F8071D4FF08C02FE030E029
:1011E00001C0220F9A95EAF7822F8095C695C69581
:1011F000C370842BC23051F0C33059F0C13019F0A4
:101200000E946E0A47CF0E94690A44CF0E94730A67
:1012100041CF0E94670A3ECF112339F1C0FF3ACF78
:101220004D2F429546954770440F440F8D2F8F7078
:10123000042E01C0880F0A94EAF72D2F2071D4FFE5
:1012400007C02FE030E001C0220F4A95EAF7209551
:10125000C695C695C370822BC23069F0C33071F059
:10126000C13031F00E94B40A15CFC1FF13CFD8CFDF
:101270000E94AF0A0FCF0E94B90A0CCF0E947C0ACD
:1012800009CFCF70112329F08C2F0E948D0A8D2F4A
:1012900031CF8D2F0E94A5078C2F0E94980AFACE7D
:1012A000D23F51F160F4D03FB9F0D13F81F011232A
:1012B00009F449C0F110A3CE8C2F8F7121C0D33F08
:1012C00011F1D43FA1F780914F0382FF26C08C2FEC
:1012D0008F71112311F314C0112349F094E09F156D
:1012E00008F4D8CE8C2F8F710E94A40AD3CEE5E0EB
:1012F000EF1508F4CFCEF6CF8C2F8F711111CDCF13
:101300000E948D0AC7CE112329F08C2F8F710E9465
:10131000850AC0CE0E94820ABDCE112349F0CF714A
:101320008C2F0E948D0A63E08C2F0E94E70EB2CEB4
:1013300081E00E94020FF1E0FF1508F0ABCE82E0E1
:101340000E94020FA7CEFF2059F0D93309F005CF34
:101350002FEF87EE93E0215080409040E1F7FBCEE5
:101360008C2F8F719ACFDF91CF911F910F91FF90AA
:10137000EF90DF90CF90BF90AF9008950F931F93A1
:10138000CF93DF93EC01688179818A810E944C0BB5
:101390008C010E94BE0A0E94660AB801CE01DF914C
:1013A000CF911F910F910C94AC07CF93DF93EC0179
:1013B000988189812B813C81232B19F089238F3FD0
:1013C00059F4DF91CF910895CE010E94BE09CE015C
:1013D000DF91CF910C949304CE010E94DA04811125
:1013E000F3CF0E94580E882361F38A81882349F342
:1013F00080914F0382FDE5CF82E0DF91CF910C9485
:10140000020F90E080E00E94932590E080E00E942F
:10141000A9250E94810E0E94A10E0E94AF160C9475
:1014200084150E94480E0C94010A0E94700E0C94C0
:10143000110A282F92959F70963091F060F4925F78
:101440009F70923030F481E0203F81F030F4283EEC
:1014500030F080E008959A5FF3CF243FD1F70895EC
:1014600081E0283EE0F3213FA1F7F9CF0895FC0188
:10147000808191810E94400B0C94190ACF93DF93D5
:1014800000D000D00F92CDB7DEB70F900F900F9025
:101490000F900F90DF91CF910895CF93DF9300D0FD
:1014A00000D000D0CDB7DEB726960FB6F894DEBFD9
:1014B0000FBECDBFDF91CF91089508950C945D0AC2
:1014C0000E945E0A809309020C94010A08950C940C
:1014D000600A90910902892B0C94600A909109028C
:1014E00089230C94600A9091090289270C94600A60
:1014F0000C945D0A0C94780A0E947A0A8093080280
:101500000C94010A80E00C947C0A91E001C0990FD0
:101510008A95EAF7892F0C947C0A21E030E001C01B
:10152000220F8A95EAF780910802822B0C947C0A9C
:1015300021E030E001C0220F8A95EAF720958091E2
:10154000080282230C947C0A21E030E001C0220FC3
:101550008A95EAF78091080282270C947C0A909180
:101560000802892B0C947C0A9091080289230C9420
:101570007C0A9091080289270C947C0A0895929520
:10158000907FE92FE80F877041E001C0440F8A95F2
:10159000EAF7E695E695E69583E0E89FF0011124E9
:1015A000EC51FE4F30E020E070E05191DF011197E7
:1015B000CB01022E02C0969587950A94E2F78170BE
:1015C00081958527842385278C932F5F3F4F233078
:1015D000310559F70895E92FE295E07FE80F982F3C
:1015E0009770E695E695E69583E0E89FF001112473
:1015F000EC51FE4F50E040E080E0219130E0092EB8
:1016000002C0369527950A94E2F721703327042EFD
:1016100001C0220F0A94EAF7822B4F5F5F4F4330DD
:10162000510559F70895DF92EF92FF920F931F93A0
:10163000CF93DF937C010091080280910902082B6F
:10164000C7E0D0E010E0DC2EC8010C2E02C095955A
:1016500087950A94E2F780FD0CC02197A0F7D12C62
:101660008D2DDF91CF911F910F91FF90EF90DF9023
:101670000895B7018C2F0E94C711019771F3F0CF25
:10168000CF93DF93D82FC92F0E94130B6D2F7C2F80
:10169000DF91CF910C94C7111F93CF93DF93162F37
:1016A000D72F9091E301992339F0862F972FDF915F
:1016B000CF911F910C94400B882391F0862F972F88
:1016C0000E94130BC82F682F812F9D2F0E94BF0AE5
:1016D000612F7D2F8C2FDF91CF911F910C94C7111B
:1016E000862F972F0E94EB0AC82FF2CF1F93CF931C
:1016F000DF93E0910A0216E080910B028E1304C082
:10170000DF91CF911F910895CE2FD0E01E9FF00161
:101710001124E45FFD4F4081518162817381848196
:1017200095810E944D0A2196EC2FE770E5CF4091FC
:101730003C0250913D0260913E0270913F028091C7
:101740004002909141020C944D0AFF920F931F9317
:10175000CF93DF9380914102807FD1F480913E024C
:101760008823B1F080910A0210910B0270913C0223
:1017700060913D02A0913F02B0914002062F0723E5
:10178000C0910401D091050196E0F92E181306C00E
:10179000DF91CF911F910F91FF90089590E01097E6
:1017A00011F00F3F19F401968770F0CFF89E900169
:1017B000F99E300D1124F901E45FFD4F418164135E
:1017C000F2CF40814713EFCF42814111ECCF4381EB
:1017D00054814A1B5B0B4C175D0728F7809141022F
:1017E0008F70806180934102F901EF5EFD4F80812F
:1017F0008F70806180838CE392E00E94D509DF9135
:10180000CF911F910F91FF900C94760BAF92BF92E6
:10181000CF92DF92EF92FF920F931F93CF93DF93BC
:10182000CDB7DEB72B970FB6F894DEBF0FBECDBF96
:101830008C0185E0F801DE01179601900D928A95E2
:10184000E1F7D8011296EC9012971396CD90DC90A8
:101850008CE3A82E82E0B82E20913C0290913D02AC
:1018600040913F02509140024115510529F0892FC6
:1018700082238F3F09F04DC1EE2009F45DC1C801FC
:101880000E94370AF82E882309F456C186E0F80131
:10189000ACE3B2E001900D928A95E1F78CE392E01F
:1018A0000E9493060E94A50B03C180914102E82F7C
:1018B000E07F4617570708F0ABC0D80111963C915E
:1018C0001197E111E1C0FE2C391325C09C919213B0
:1018D00022C0E11020C08F708061809341020E947D
:1018E000970B8CE392E00E94D50980914102F801A8
:1018F00085838F2D2B960FB6F894DEBF0FBECDBF1C
:10190000DF91CF911F910F91FF90EF90DF90CF90DB
:10191000BF90AF9008952F81CD2829F0832F822387
:101920008F3F09F0AEC080E0F82FF170DF2EE0911C
:101930000A0240910B0256E080FD1CC0EE20C9F265
:1019400080914102816080934102F12CD2CF8E2F91
:1019500090E05E9FF0011124E45FFD4F618136133A
:1019600006C06081621303C06281E612E7CF019670
:10197000E82FE770E413EBCF8F8198850E94400B2E
:10198000292F22952F70903268F0225F2F7022301D
:1019900080F49F7059F0D80115969C91907F31F496
:1019A000D12C0AC09F7011F08823D1F3805E88305B
:1019B000B8F3C8010E94D509FD2C9BCFC8010E9435
:1019C000370A882309F4B8C0EE2009F4B5C0809125
:1019D0004102803270F020913C0230913D023A8306
:1019E00029831B82DD82CC828E83CE0101960E94E8
:1019F000D50986E0F801ACE3B2E001900D928A953A
:101A0000E1F70E94A50B0E94970BFF24F39471CF7E
:101A1000E11151C04F81588569857A858B850E9477
:101A20003E0A8CE392E00E94D50986E0D5011D9222
:101A30008A95E9F70E94970B88CF86E0F801ACE31E
:101A4000B2E001900D928A95E1F753CFC8010E9450
:101A5000370A8111CECF809141028160809341028B
:101A6000C8010E94D50945CF4F81588569857A857F
:101A70008B850E943E0A86E0D5011D928A95E9F782
:101A800017C081E08E2550CF391398CFF80190818F
:101A9000921394CFE11092CF8583C8010E94D5099B
:101AA00086E0F801ACE3B2E001900D928A95E1F78F
:101AB0000E94970B1ECFF801318193137FCFF8015D
:101AC000908192137BCFE11079CF8583C8010E946A
:101AD000D50986E0D5011D928A95E9F70ACFD8018C
:101AE00011968C919813B2CFF80180818213AECFFA
:101AF0008091410280FDA1CF982F907F09F49DCF66
:101B00008583903F51F2982F907F905F8F70892B43
:101B1000C3CFF0903E02F601E41BF50BAF016091DC
:101B2000040170910501F110C0CE4617570708F067
:101B30009BCFFE2CE110D3CFC8010E94D50965CF01
:101B40001F93CF93DF93CDB7DEB72C970FB6F894E2
:101B5000DEBF0FBECDBF4F83588769877A878B87DB
:101B60009C87CE0107960E94060C882369F08A851F
:101B70009B85892B39F058854F81852F84238F3F92
:101B800009F071C016E05FC086E0FE013796DE0105
:101B9000119601900D928A95E1F78F819885209199
:101BA0000B0240910A026A857B85672B59F38923D2
:101BB0008F3F41F330E0C90101968770992748179C
:101BC000190671F40E94150A10920B0210920A0273
:101BD00086E0ECE3F2E0DF011D928A95E9F7D2CFCF
:101BE00096E0929FD001939FB00D1124A45FBD4F4A
:101BF000FE01319601900D929A95E1F780930B02C8
:101C00000E94760BBFCF819FC0011124845F9D4F3E
:101C10000E94060C8823E9F0E0910A021E9FF00161
:101C20001124E45FFD4F4081518162817381848181
:101C300095810E944D0A80910A0290E0019687707A
:101C4000992780930A0280910A0290910B028913CE
:101C5000DACF2C960FB6F894DEBF0FBECDBFDF9162
:101C6000CF911F91089569857A858B859C850E9407
:101C70004D0A88CF682F80910601909107010C943E
:101C80005726682F80910601909107010C946226D7
:101C900080910601909107010C946D26809162025B
:101CA0008595859585950895809162028770089540
:101CB00090916202977081E009F480E0089580912C
:101CC0008502089590918502982B9093850208953E
:101CD000982F90958091850289238093850208959D
:101CE00010928502089590918402982B909384021B
:101CF0000895982F9095809184028923809384027F
:101D000008951092840208958091630208950895C1
:101D10000C94870E90914F0392FD08C0909163023E
:101D2000981721F0809363020C94880E0895809197
:101D30006302882329F01092630280E00C94880EDD
:101D40000895CF93DF93E0910601F0910701809110
:101D500085028083E0910601F091070180819091D6
:101D60008402892B808390916302992381F0E09112
:101D70000601F09107018081892B80838091060103
:101D8000909107010E94BF2581110E94970EC0917A
:101D90000601D091070140E250E062E472E0CE011A
:101DA0000E943C30892B69F080E2FE01A2E4B2E09F
:101DB00001900D928A95E1F7CE01DF91CF910C94BD
:101DC0006925DF91CF91089508950C94E40E9091C8
:101DD0004F0392FD10C098E0899F90011124622B5F
:101DE000609362020E948D0A8091620285958595BA
:101DF00085950C94E50E0C948D0A1092620280E099
:101E00000C94E50E90916202809589238093620282
:101E1000282F277091F4282F082E000C330B9217CF
:101E2000130659F090914F0392FD07C08595859553
:101E300085950E94980A0C94FD0E089590914F0389
:101E400092FB222720F9281769F080FB92F99093E2
:101E50004F0380914E0390914F030E94690F82E0DF
:101E60000C94020F089580914F0382FB882780F91C
:101E700091E089270C941E0F81E00C941E0F80E0E6
:101E80000C941E0F6FEF7FEF90E080E00C947B309E
:101E900090E080E00E945730893E9E4F11F40C94F0
:101EA000A01F80E0089582E090E00C94493083E028
:101EB00090E00C944930CF9384E090E00E94493048
:101EC000C82F82E290E00E944930982F8C2FCF914A
:101ED0000895CF93682FC92F84E090E00E945D3071
:101EE0006C2F82E290E0CF910C945D30AB01BC018D
:101EF0008FE090E00C946F30AB01BC0183E190E087
:101F00000C946F3060E070E0CB010C947C0F60E0CB
:101F100070E0CB010E94760F0C94820F69EE7EEF89
:101F200090E080E00E947B3060E082E090E00E94E0
:101F30005D3060E083E090E00E945D301092090225
:101F400060E084E090E00E945D3060E082E290E03A
:101F50000E945D3060E085E090E00E945D3060E0CE
:101F600086E090E00E945D306FEF87E090E00E9495
:101F70005D3040E050E0BA0188E090E00E946F30B0
:101F800060E08DE090E00E945D3040E050E0BA01FA
:101F900088E190E00E946F3060E087E190E00E946D
:101FA0005D3040E050E0BA018CE190E00E946F307B
:101FB00070E060E080E290E00E947B3040E050E022
:101FC000BA0188E190E00E946F3080E00E94B91F62
:101FD0000E9422200C94870F0C948E0F682F8EE0A5
:101FE00090E00C945D300E941E27609396027093DF
:101FF0009702809398029093990260939202709353
:1020000093028093940290939502089585B7806817
:1020100085BF85B7806885BF0895089508950C949D
:102020000E1008950C9411100E94061086EA92E199
:102030000E9453250E940D100C940F1081E008950A
:102040000C941E10089508950E9422100C942310E1
:102050000E94C0120C942F060E9409270E94312072
:102060000E9495130E9428100E94F21D0C941210D9
:102070007F928F929F92AF92BF92CF92DF92EF9218
:10208000FF920F931F93CF93DF9300D000D00F9256
:10209000CDB7DEB70E94AA13B82E81110E94F30FAC
:1020A00056E8852E52E0952E10E000E0702E802F2D
:1020B0000E94E0127C01F401C190D1904F01C8163A
:1020C000D90609F452C080919A0281FD0E94E9125A
:1020D000C6018E259F25A12CCC24C394D12C9C0114
:1020E0002C213D21232BD9F10E9420108823A9F017
:1020F000A9827A82EC20FD2081E0EF2809F480E0BB
:102100008B830E9412278160782F9D838C83498165
:102110005A816B81892F0E944E06000F111FF80112
:10212000EA57FD4F808191818C259D259183808385
:1021300081E0B11001C080E00F900F900F900F90E0
:102140000F90DF91CF911F910F91FF90EF90DF9053
:10215000CF90BF90AF909F908F907F900895A39461
:10216000CC0CDD1CF0E1AF12BACF0F5F1F4F063071
:10217000110509F09BCF8FEF89838A831B820E9410
:1021800012278160782F9D838C8349815A816B81CE
:10219000892F0E944E06CCCF0E9438100E94361E16
:1021A0000E949E150C944306CF93DF930E94CB119F
:1021B000EC01811522E5920708F05AC0811531E53E
:1021C000930708F0B7C0883E9105E8F4803E91057A
:1021D00070F4883A910578F4853A910508F099C031
:1021E0008130910521F00497813A910548F4CE01A0
:1021F000DF91CF910895885A9109479708F48CC0D0
:10220000D0E0C0E0F4CFC11580E5D807A0F4C11537
:1022100090E4D90708F08BC0CF3FD10509F028F42E
:10222000C03FD10568F3D065E2CFCE019A95811504
:102230009F41E8F2E5CF9E01F4E036952795FA95A7
:10224000E1F723708C2F86958695837030E2839F0B
:10225000C0011124922BC37021E030E002C0220F94
:10226000331FCA95E2F7822B932BEC01DC68BFCFBA
:10227000C11586E5D80730F5C11595E5D90708F0F1
:102280006DC0C11524E5D207C0F48C2F86958695C4
:102290009E0123703327C115D34508F050C0C1E01B
:1022A000D0E002C0CC0FDD1F2A95E2F720E2829F2A
:1022B000C0011124C82BD92BD9CFDC2FCC27C46F58
:1022C000D06A95CFC1153AE5D30788F4C11589E5E1
:1022D000D80708F04EC0CE0198558F3F910511F0F8
:1022E00008F08ECFDC2FCC27C06FD06A80CFCE0114
:1022F00090568115904208F083CF8D2F8F710E94E8
:10230000631290E0982F882788279F718C2BEC010F
:102310002EC0A497D0646BCFC85AD0E0CC0FDD1F7D
:10232000CE59DE4F0990D881C02DD46460CFDF70C4
:10233000D06A5DCFD82FCC27C16FD06A58CFC1E00B
:10234000D0E002C0CC0FDD1F2A95E2F730E2839F78
:10235000C0011124C82BD92BDA6849CF8C2F0E94D9
:102360006312C82FD0E0DC2FCC27CC27DF71D062DE
:102370003ECF8C2F8F700E94631234E0D695C795A4
:102380003A95E1F7CF709C2FEC01D06930CF0E94D5
:10239000A1230C94D410803E910599F1C8F48133A7
:1023A000910509F476C048F48932910509F46AC0B0
:1023B0008A32910509F474C0089589339105D1F0EA
:1023C00082389105B9F08533910509F454C0089518
:1023D000843E910599F138F4823E9105F9F0833EEF
:1023E000910509F10895863E910599F1873E910581
:1023F000B9F1089520914E032370A1F080EE90E092
:10240000089520914E0320FD52C030914F0330FFBC
:1024100009C024FF4FC090E080E004C020914E032B
:1024200022FDF7CF089520914E0322FD46C0309142
:102430004F0330FDE3CF24FFF5CFEDCF20914F03C5
:1024400021FFF0CF80914E0384FDE5CF87EE90E031
:10245000089520914E0323FFE5CF24FDDCCFF6CF76
:1024600020914E0323FD2CC030914F0331FFE3CF69
:1024700084EE90E0089520914E0325FFD3CF89E2AA
:1024800090E0089520914E0325FFCCCF85E390E0A6
:10249000089520914E0326FFC5CF8AE290E008956B
:1024A00020914E0326FFBECF81E390E0089589E39B
:1024B00090E0089583EE90E0089582EE90E0089514
:1024C00086EE90E0089590914E0392FF06C0282F6B
:1024D00028712830F9F4877F846093FF06C0282F85
:1024E00028712831F1F4877E846120914F0320FF09
:1024F00006C0382F38713830D9F4877F816021FFCA
:1025000006C0282F28712831D1F4877E816194FD7F
:10251000877E0895282F24712430F9F68B7F8860F8
:10252000DCCF282F2471243101F78B7E8861DDCF29
:10253000382F3171313019F78E7F8860E0CF282F26
:102540002171213121F78E7E8861E1CF80E00895ED
:102550000C94420F0E94AA138FE39CE90197F1F7B4
:1025600000C000000E94AA1380E00E94E01280FFD9
:1025700004C00E94A8120C94712708950C94AA120A
:102580000E94480F811102C00E94EC0F0E94530F5D
:1025900080939A020E945B0F90934F0380934E03A7
:1025A0000E94BE120E94570F0E94670A8091080283
:1025B0000C947A0A08950C94DA1208950C94DD12A2
:1025C000E82FF0E0EE0FFF1FE45AFC4F808191816D
:1025D0000895089580EA8A95F1F7089500C0089556
:1025E0000C94EA12F894E82FE295EF70F0E041A124
:1025F0008F7021E030E0B90102C0660F771F8A9525
:10260000E2F7CB01962F9095942391A392A1892B69
:1026100082A378940895CF93DF93C0EAD1E08991A3
:102620008F3F11F00E94F21281E0C63AD807B9F745
:10263000C0E9D1E089918F3F11F00E94F21281E050
:10264000C03AD807B9F7DF91CF910895AF92BF9202
:10265000DF92EF92FF920F931F93CF93DF93EC01E2
:10266000D62E062F10E0C80180569E4F7C01FC013B
:1026700080818F3F09F44FC0F894E82FE295EF7006
:10268000F0E091A18F7021E030E001C0220F8A9527
:10269000EAF7892F822B81A382A12095282322A3E8
:1026A00078940E94EE12E0E9F1E060EA71E041E026
:1026B00050E0B12CA12C21912F3F81F0A22FA295A7
:1026C000AF70A05EB0E08C9190E02F7002C0959545
:1026D00087952A95E2F79A0180FF02C020E030E05A
:1026E000A22AB32A440F551F6E177F0721F7F7015F
:1026F00080818F3F11F00E94F21261E0A114B104B9
:1027000009F460E08D2D0E94F012000F111FC00F20
:10271000D11FB982A882DF91CF911F910F91FF90B5
:10272000EF90DF90BF90AF9008950E940B138CE064
:10273000ECE5F3E0DF01982F1D929A95E9F7E0E5CB
:10274000F3E0DF011D928A95E9F786E00E94F81315
:102750000C94C604FF920F931F93CF93DF93CDB7D2
:10276000DEB72C970FB6F894DEBF0FBECDBFFE01CB
:1027700031968CE0DF011D928A95E9F710E0FE2E7C
:102780000F2F612F8F2D902F0E9426131F5F163061
:10279000C1F74CE050E06F2D702F80E593E00E9470
:1027A0003C309C0111E0892B09F410E0232B49F007
:1027B0008CE0EF2DF02FA0E5B3E001900D928A950B
:1027C000E1F7212F46E06CE573E080E593E00E949D
:1027D000F9130E94C804812F2C960FB6F894DEBF1F
:1027E0000FBECDBFDF91CF911F910F91FF90089544
:1027F0000895FF920F931F93CF93DF93F82E092F25
:10280000162FD72FC42F222349F081E080939D02F9
:102810000E94122790939C0280939B0280919D02BC
:102820008823A1F080919B0290919C020E943E27F8
:10283000059760F0EF2DF02FA12FBD2F90E080E0E5
:10284000D0E08C179D0744F010929D02DF91CF914C
:102850001F910F91FF900895219131912D933D93F8
:102860000196EFCF0E9468290E942C100C947429C5
:102870000E9478290E94CC100C9492290E94B226C2
:102880000E944F290E9414100E9432140E94381492
:102890000E942410FBCF8091A40280FF0DC06091A4
:1028A0000D0170E0660F771F6038710570F56115D6
:1028B000710569F1862F089581FF07C060910D01B0
:1028C00084E0689FB0011124EFCF60910D0182FD7B
:1028D0000AC08091A3028823A9F020910C01609185
:1028E0000D01821710F088E0ECCF869FC001112403
:1028F00033E0880F991F3A95E1F7622F70E00E944C
:10290000432FD2CF68E070E0D5CF8FE7089581E004
:1029100008958091A40280FF0CC06091090170E0CD
:1029200075956795759567956115710549F1862FC0
:10293000089581FF06C06091090170E07595679563
:10294000F3CF6091090182FD0BC09091A2029923FF
:10295000A1F06091080180910901961738F0682F65
:1029600070E06038710500F38FE70895899FC0011A
:10297000112470E00E94432FF4CF61E070E0D7CFC4
:1029800081E00895E0E1E80FE031E0F5F0E0E254A5
:10299000FF4C0C94792F0E944B1481958093A802D0
:1029A00008950E944B14FACF0E944B148195809396
:1029B000A70208950E944B14FACF0E9489148093B5
:1029C000A90208950E9489148195F9CF0E94891463
:1029D00081958093AA0208950E948914FACF845F9A
:1029E000990B21E030E001C0220F8A95EAF780912F
:1029F000A602822B8093A60208958091A402816092
:102A00008093A40208958091A4028260F9CF8091FE
:102A1000A4028460F5CF4091A702803F59F48091D1
:102A2000A80287FF0DC01092A80241110BC010929E
:102A3000A30208C0813F81F48091A80218169CF37C
:102A4000442381F08091A9029091AA02892B09F078
:102A50005AC01092A2020895823F49F447FFF0CF76
:102A60001092A7028091A8028111ECCFE0CF833FA2
:102A700019F41416ACF3E4CF9091A902893F29F41C
:102A80001916F4F61092A902DBCF8A3F19F497FFCA
:102A9000D7CFF8CF9091AA028B3F29F497FFD0CFE0
:102AA0001092AA02CDCF8C3F19F41916CCF3C8CFDF
:102AB0009CE0980F953090F4845F990B21E030E012
:102AC000B90102C0660F771F8A95E2F7CB018095A6
:102AD0009091A60289238093A602B2CF8D3F31F454
:102AE0008091A4028E7F8093A402AACF8E3F21F40E
:102AF0008091A4028D7FF7CF8F3F09F0A1CF809105
:102B0000A4028B7FF0CF08950E9412272091A70284
:102B10003091A802232B21F08093A0029093A10270
:102B20002091A9023091AA02232B21F080939E02CA
:102B300090939F0285EA92E00C948425CF92DF92D5
:102B4000EF92FF920F931F93CF93DF9300D000D0AB
:102B500000D0CDB7DEB726E0E5EAF2E0CE0101967F
:102B6000DC0101900D922A95E1F7C090A702D09068
:102B7000A802E090A902F090AA021092A702109277
:102B8000A8021092A9021092AA022C2D2D298C01C4
:102B900091F08091A0029091A1020E943E279C0199
:102BA0008091A302882309F440C090910E019217EE
:102BB000130608F448C08E2D8F2991F080919E0253
:102BC00090919F020E943E279C018091A20288233F
:102BD00009F478C090910A019217130608F480C096
:102BE0008091A7029091A802892B9091A902892B2C
:102BF0009091AA02892B11F00E94841586E0F801B9
:102C0000A5EAB2E001900D928A95E1F726960FB6FB
:102C1000F894DEBF0FBECDBFDF91CF911F910F9112
:102C2000FF90EF90DF90CF90089540910F019AE0D0
:102C3000499FA00111244217530708F0BCCF8F5FB2
:102C40008093A30202C08F3FD1F7CC2059F00E949D
:102C50004B149FEF1C140CF491E0899F802D1124DC
:102C60008093A702DD2059F00E944B149FEF1D14A2
:102C70000CF491E0899F802D11248093A80230915B
:102C8000A702332309F497CF2091A802222309F445
:102C900092CF45EB3403C0011124992359F090934E
:102CA000A70245EB240390011124332339F030931C
:102CB000A80281CF81E08093A702F3CF81E08093C7
:102CC000A80279CF40910B019AE0499FA0011124FD
:102CD0004217530708F084CF8F5F8093A20202C08F
:102CE0008F3FD1F7EE2059F00E9489149FEF1E14F8
:102CF0000CF491E0899F802D11248093A902FF207C
:102D000059F00E9489149FEF1F140CF491E0899FE1
:102D1000802D11248093AA023091A9022091AA0249
:102D2000332309F45DCF222309F45ACF45EB340352
:102D3000C0011124992359F09093A90245EB240373
:102D400090011124332339F03093AA0249CF81E056
:102D50008093A902F3CF81E08093AA0241CF86E05D
:102D6000E5EAF2E0DF011D928A95E9F71092A302ED
:102D70001092A2021092A4020895AF92BF92CF9235
:102D8000DF92EF92FF920F931F93CF93DF938B010C
:102D9000282F111114C0442329F090E08A589A4F2B
:102DA000FC018491682F782FDF91CF911F910F91B3
:102DB000FF90EF90DF90CF90BF90AF900895C12F1C
:102DC000D0E030E0442329F02A583A4FF901249109
:102DD00030E0F6E00F9F70011124EFEFF0E0C70143
:102DE000BF010E942F2FAB01802F90E0880F991F09
:102DF000A5E5A49FB001A59F700D1124861B970B1C
:102E0000782F770F780FCF018C1B9D0B829FD001FD
:102E1000839FB00D929FB00D11246B2F719FC00145
:102E20001124892F99278F01081B190BC801829F34
:102E30008001839F100D929F100D1124812F5F013F
:102E4000A71AB108AC9E6001AD9ED00CBC9ED00C00
:102E50001124CD2CDD24EC19FD09E29FE001E39F54
:102E6000D00DF29FD00D1124722F43305105D1F0B7
:102E70009CEFE91693E0F90670F441305105B1F08A
:102E800042305105B9F0EFEFEE16F10408F08CCFA7
:102E90008B2F6D2F89CF4430510579F04630510585
:102EA000B9F382CF612F822F7B2F7ECF622F712FBC
:102EB0008B2F7ACF8D2F622FF7CF822F7D2F74CF5C
:102EC00041E00C94BD1608950C946017CF93DF93E6
:102ED000982F762F842FE901692F0E946417798338
:102EE00068838A83DF91CF91089580916803982F3A
:102EF0009E7F29F4817082608093680308958635EF
:102F0000E8F381708465F8CF88E090E00C9451304C
:102F10000F931F93CF93DF938B01D82FC92F0E945C
:102F20007517A8016D2F7C2F88E090E0DF91CF917D
:102F30001F910F910C946F30CF93DF9300D000D08E
:102F4000CDB7DEB78091680390916903A0916A03C1
:102F5000B0916B0389839A83AB83BC83BC01CD01A1
:102F60000F900F900F900F90DF91CF910C948817D6
:102F7000E8E6F3E08DE0808311828FEF8283838324
:102F80008FE084836DE070E08FEF9FEF0C948817E3
:102F90008091680380FF02C08695089580E00895BF
:102FA000CF93DF9300D000D0CDB7DEB790916C0304
:102FB000933018F49F5F90936C038823B1F0809155
:102FC000680390916903A0916A03B0916B038983B0
:102FD0009A83AB83BC83BC01CD010F900F900F90FF
:102FE0000F90DF91CF910C9488170F900F900F9056
:102FF0000F90DF91CF91089581E00C94D017CF937B
:10300000DF9300D000D0CDB7DEB790916C03992349
:1030100019F0915090936C038823B1F0809168036C
:1030200090916903A0916A03B0916B0389839A839D
:10303000AB83BC83BC01CD010F900F900F900F901C
:10304000DF91CF910C9488170F900F900F900F90F5
:10305000DF91CF91089581E00C94FF1780916C036C
:103060000895CF93DF9300D000D0CDB7DEB7809323
:103070006C036623B1F08091680390916903A0917D
:103080006A03B0916B0389839A83AB83BC83BC01D1
:10309000CD010F900F900F900F90DF91CF910C9476
:1030A00088170F900F900F900F90DF91CF91089598
:1030B00060E00C94311880916903089580916A034F
:1030C000089580916B03089570E00C94721F6091D5
:1030D00014018091680380FF0AC08091130123E0EE
:1030E000829FC001112483599C4F0C9464188091D5
:1030F00015019091160123E0829FF0011124E359FC
:10310000FC4F891750F71182108212828F5F33961D
:10311000F8CF9091680390FF14C090911501209111
:10312000160133E0939FF0011124E359FC4F9217ED
:1031300010F00C9467188183608342839F5F3396FD
:10314000F6CF0895CF93DF9300D00F92CDB7DEB7BF
:103150009091680390FF0FC09E012F5F3F4F0E9428
:1031600066174B8169818A810F900F900F90DF91D4
:10317000CF910C9489180F900F900F90DF91CF9101
:103180000895CF93DF93EC01EC81F0E0EF58FB4F13
:103190004491E8E6F3E0628181810E94A2188C816B
:1031A0008F5F8C83DF91CF910895CF93DF93EC01F4
:1031B000E8E6F3E0438162818C810E94A2188C8151
:1031C0008F5F8C83DF91CF9108950F931F93CF93DF
:1031D000DF9300D00F92CDB7DEB78C018091AB02A8
:1031E00081110AC09E012F5F3F4F4FEF6FEF0E948A
:1031F00066178A818093AB02F8016481613049F0DF
:103200006230F1F08091AB0240E0662331F040E0A3
:1032100019C06091AB0240E080E00E948918F8017B
:10322000848190E0019663E070E00E94432F8483E4
:103230000F900F900F90DF91CF911F910F910895F4
:103240004091AB0280E060E0E8CFAF92BF92CF92B6
:10325000DF92EF92FF920F931F93CF93DF9300D0F3
:1032600000D000D00F92CDB7DEB7182FF62E042F66
:10327000D22E9091680390FF83C0E92FE695AE2F80
:10328000B0E0AA55BE4F8C9180931B039E7F923075
:10329000A1F59E012F5F3F4F812F0E9466174B8142
:1032A00069818A810E94891810936903F0926A03E8
:1032B00000936B03DD2009F463C080916803909153
:1032C0006903A0916A03B0916B038C839D83AE83E5
:1032D000BF83BC01CD0127960FB6F894DEBF0FBEA9
:1032E000CDBFDF91CF911F910F91FF90EF90DF90B5
:1032F000CF90BF90AF900C948817823019F4009152
:103300006B03D2CF863019F410916903CDCF893089
:10331000D9F3893149F6E9518E2F8170C82EE6958F
:10332000F0E0EF58FA4FA590B490E12CBB246091E7
:103330001701E61618F00E946718B6CF2E2D30E060
:10334000EA9CC001EB9C900D112470E00E942F2F8D
:10335000812FC11013C0860F90911501A901490F4B
:10336000511D9A01220F331F240F351F23593C4F43
:10337000402F6F2D0E946617E394D9CF861BECCFA8
:1033800027960FB6F894DEBF0FBECDBFDF91CF9169
:103390001F910F91FF90EF90DF90CF90BF90AF9073
:1033A0000895282FE8E6F3E0818143816281865FFA
:1033B0000C94251981E00C94D119282FE8E6F3E04C
:1033C0008181438162818A500C94251981E00C949B
:1033D000DD19282FE8E6F3E062813AE0630F08F494
:1033E0006FEF438181810C94251981E00C94E919D8
:1033F000282FE8E6F3E062813AE0631B08F460E01E
:10340000438181810C94251981E00C94F819282FAF
:10341000E8E6F3E043813AE0430F08F44FEF6281BE
:1034200081810C94251981E00C94071A282FE8E675
:10343000F3E043813AE0431B08F440E0628181817C
:103440000C94251981E00C94161A20E00C9425198F
:10345000EF92FF921F93CF93DF93EC0110E0EE24E5
:10346000EA94F12C60911701161770F00E9467180A
:103470009A818C8190FF25C08F5F8C83DF91CF91E3
:103480001F91FF90EF90089580911501810F99276A
:10349000991F9C01220F331F280F391F23593C4FBE
:1034A00070E0C7010E94432F962F8C8140916B03DF
:1034B00060916A03199F800D11240E9466171F5F97
:1034C000D1CF8150DACFBF92CF92DF92EF92FF92AD
:1034D0000F931F93CF93DF93FC0182810FEF80FF47
:1034E00001E010E0809117011817C0F00E946718E2
:1034F0008091AD02013009F054C0811102C0809169
:10350000170181508093AD02DF91CF911F910F91F0
:10351000FF90EF90DF90CF90BF90089580911501BC
:10352000C12ED12C8C0D9D2D911DEC01CC0FDD1FDA
:10353000C80FD91FC359DC4F198218821A8234E090
:10354000E32EF12CB12C8091AD028B0D85311CF155
:1035500064E10E94212F892F082E000C990BC816B8
:10356000D90691F480916B038E9DA0018F9D500D23
:10357000112455954795559547959E0160916A038D
:10358000809169030E946617B00EF1E0EF1AF1080E
:10359000D1F61F5FA7CF87FFDFCF90911701890F6B
:1035A000DBCF90E001966091170170E00E94432FFD
:1035B000A9CFCF93DF93809115019091160123E05D
:1035C000829FF0011124E359FC4F891730F1C0E0CC
:1035D000D3E060911701C61730F10E94671820915F
:1035E00011018091AC02820F8093AC029091120184
:1035F000920F90931201191654F4082E000C990B97
:10360000409117014150550B841795071CF02195E7
:1036100020931101DF91CF910895118210821282BF
:103620008F5F3396D2CFEC2FF0E070E0CF010E9495
:10363000432F20911501280F422F50E08091AC02BA
:10364000082E000C990BE817F907BCF080911201C5
:10365000082E000C990B8E179F077CF02D9F900170
:10366000112423593C4F40916B0360916A03809170
:1036700069030E946617CF5FACCFFA01EE0FFF1F00
:10368000E40FF51FE359FC4F118210821282F3CF31
:10369000EF92FF920F931F93CF93DF93CDB7DEB7D7
:1036A0002E970FB6F894DEBF0FBECDBF8D879E87D5
:1036B000AD85BE8514961C91212F30E0D9010E9462
:1036C0008E2F9B01AC010E94A42F69837A838B8388
:1036D0009C83E0E2F0E0E11BF109A5E5B0E09B018D
:1036E000AC010E94A42F69877A878B879C879F01F2
:1036F000DF010E94862F9B01AC010E94AF2F6D83DA
:103700007E838F8398879B01AC0189819A81AB81ED
:10371000BC81280F391F4A1F5B1F69857A858B85FD
:103720009C850E94572FF22E422F50E099E29F1560
:1037300088F1A3E02A9F9001112435952795122F37
:10374000109500E085E5E82EEF1880911701081725
:1037500078F10E946718ED85FE85948181E09923B8
:1037600019F0903219F48FEF8093100180911001BD
:10377000890FAD85BE8514968C932E960FB6F8945E
:10378000DEBF0FBECDBFDF91CF911F910F91FF9094
:10379000EF90089585E590E0841B950B9C01220F26
:1037A000331F280F391F37FFC8CF2F5F3F4FC5CFBB
:1037B0008E2D01FD8F2D40911501400F5527551F6E
:1037C0009A01220F331F240F351F23593C4F412FDD
:1037D00060916A030E9466170F5FB7CF0F931F9324
:1037E000CF93DF93EC0110E000E090911701901768
:1037F000110609F06CF40E9467188C8190E0019624
:10380000817099278C83DF91CF911F910F9108953B
:1038100080911501A801480F511D9A01220F331FF5
:10382000240F351F23593C4F4C8160916A038091CE
:10383000690396959017110651F04CF0442349F016
:1038400040916B030E9466170F5F1F4FCECF44233A
:10385000B9F340E0F7CF4F925F926F927F928F92D1
:103860009F92AF92BF92CF92DF92EF92FF920F930F
:103870001F93CF93DF93FC016280448081E08483B7
:10388000E1E7F4E07490E0EFF4E0E491812C75E07E
:10389000972EF2E0CF2EDD24D394AA24AA94B12C43
:1038A00055245A94E7190E2F10E0809117018816BD
:1038B00090F0DF91CF911F910F91FF90EF90DF90EB
:1038C000CF90BF90AF909F908F907F906F905F90C0
:1038D0004F900C946718E82CF12C82E0861568F064
:1038E0009E9CF0019F9CF00D1124E255FD4F8091AC
:1038F0006903808380916A038183411023C09E9C69
:10390000F0019F9CF00D1124E255FD4F13821282AD
:10391000809115018E0D9F2D911D9C01220F331F4B
:10392000280F391F23593C4F9E9CF0019F9CF00D9E
:103930001124E255FD4F4281618180810E9466170A
:103940008394B3CF9E9CE0019F9CD00D1124C2555F
:10395000DD4F8B818823E9F081508B83859DC001E9
:1039600011246C8170E00E942F2FFB01FF27EF587C
:10397000FB4F8491E82FE719E59DC0011124B801A0
:103980000E942F2F80916B03689FB00111247A83CE
:10399000BFCF0E941F30AC0190916B039695915858
:1039A0009C9D90019D9D300D1124232F332742179C
:1039B00053070CF0ADCF82E0861588F40E941F30CB
:1039C000B5010E94432F88830E941F3020916A0313
:1039D0002695622F70E00E94432F280F29839E9C1A
:1039E000F0019F9CF00D1124E255FD4F1282809151
:1039F0006B03893C58F088EC9E9CF0019F9CF00D75
:103A00001124E255FD4F8483838382CF8431A0F754
:103A100084E1F2CFCF93DF9300D000D0CDB7DEB7F3
:103A2000E8E6F3E080818E7F808380819181A281AE
:103A3000B38189839A83AB83BC83BC01CD010E948F
:103A4000881710921C039FEFA0E7B2E09150A040AE
:103A5000B040E1F700C000000F900F900F900F9062
:103A6000DF91CF910C946718E8E6F3E080818E7FB8
:103A7000808310921C032FEF80E792E0215080405A
:103A80009040E1F700C000000C94671810921C03EE
:103A90008091190381110AC081E0809319038091FC
:103AA00068038170809318030C94341D089560910D
:103AB0006803669570E04BE050E088E191E00E9479
:103AC0002F30892B19F481E080931C030E94122768
:103AD00090931303809312030895CF93DF9300D044
:103AE00000D0CDB7DEB79091680390FF44C0882323
:103AF000D9F18B32D8F58F77880F90916803917048
:103B0000892B80936803662381F0809168039091EC
:103B10006903A0916A03B0916B0389839A83AB8395
:103B2000BC83BC01CD010E94881760916803669533
:103B300070E04BE050E088E191E00E942F30892B4B
:103B4000B9F010921C0381E08093150340916B0340
:103B500060916A03809169030F900F900F900F900E
:103B6000DF91CF910C94251A81E0C6CF8AE2C4CFB1
:103B70000E94571DE8CF0F900F900F900F90DF918C
:103B8000CF910895682F8091680386958F5F8B325F
:103B900008F081E00C946D1D81E00C94C21D682F2B
:103BA0009091680396958FEF890F913009F48AE21E
:103BB0000C946D1D81E00C94CF1D61E00C946D1D83
:103BC000E8E6F3E080818160808386950C94DD1DBA
:103BD0008091680380FD0C940A1D0C94E01D60E048
:103BE0000C946D1D80911A0381112EC00E94480F04
:103BF000811104C00E94EC0F0E94B8170E94841724
:103C0000609368037093690380936A0390936B03D6
:103C10006E7F61F40E94B8170E9484176093680356
:103C20007093690380936A0390936B030E947517E6
:103C300010921C038091680380FF03C086950E9448
:103C4000EF1D81E080931A030895E8E6F3E0808198
:103C50008160808386950C94EF1D109219038091EA
:103C6000180381110E94251E0C94571D0F931F935A
:103C7000CF93DF9380911C03882309F498C080912F
:103C80001B03E0916803E695E81BE0931403823080
:103C900091F5F0E0E359FB4FE491CE2FD0E001EC39
:103CA00018E180911503882361F0109215030E949A
:103CB000122790931303809312031092170310920C
:103CC00016030E9412272091120330911303821BC6
:103CD000930B8F3F9F4708F06AC02C0F3D1F309316
:103CE00013032093120382E193E0F801DF91CF9157
:103CF0001F910F910994C8E2D0E008E41BE18831DC
:103D000081F2C0F48F3009F43AC048F4863021F1D2
:103D1000893059F1C0EDD7E003E617E1C2CF853114
:103D2000C9F7F0E0EF59FB4FE491CE2FD0E009ED59
:103D30001AE1B7CFC4EFD1E00EEE1BE1843209F4F3
:103D4000B0CF853231F1833229F7EFE5F4E0C59148
:103D5000D49105EE18E1A5CFF0E0E659FB4FE491D0
:103D6000CE2FD0E005ED18E19CCFE695F0E0E959C3
:103D7000FB4FE491CE2FD0E008E21AE192CFE69516
:103D8000F0E0EC59FB4FE491CE2FD0E003E61AE1CE
:103D900088CF8E2F63E00E94152FE92FF0E0E45AC0
:103DA000FB4FE491CE2FD0E00BE21CE17ACFDF9104
:103DB000CF911F910F910895FA0181110994FB0190
:103DC000FDCFCF93DF93C82FD62F0E94C8178C1733
:103DD00040F00E94C8178D1720F4DF91CF910C940A
:103DE000CC1D8C2FDF91CF910C94DD1D1F93CF93B1
:103DF000DF93EC01FB01128111111FC00E945F0EC5
:103E00008272C63DFCE5DF0770F4C23C9CE5D90731
:103E100080F0FE01E35CFC45E331F10560F4E25320
:103E2000FF4C0C94792F6AE285E2CD35DD4509F42B
:103E300043C011E002C00E94E81D812FDF91CF91A5
:103E40001F9108954AED5DE16CEC7DE10E94DC1E5E
:103E5000F4CF4CEC5DE16AED7DE1F8CF46EE59E13F
:103E60006AED79E1F3CF4AED59E166EE79E1EECF03
:103E700044E05AE165EF79E1E9CF45EF59E164E0CB
:103E80007AE1E4CF42E25AE163E17AE1DFCF43E154
:103E90005AE162E27AE1DACF4BE258E16CEF77E186
:103EA000D5CF4CEF57E16BE278E1D0CF81E00E94B3
:103EB000DD1DC3CF65E082E00E94E11EBECF68E059
:103EC00086E0FACF6EE089E0F7CF64E18FE0F4CFCF
:103ED00067E185E1F1CF88E1EACF62E289E1ECCFE9
:103EE00083E2E5CF9C01AB01239A65B1677F75B191
:103EF0007860EFB7F894CA01880F991F840F951F57
:103F0000820F931F8217930741F4EFBF8FE594E070
:103F10000197F1F700C000000895D9014D919D016E
:103F200058E075B9000000C047FF65B9440F0000B4
:103F300000C000C000C065B900C05A9591F7E2CF3B
:103F400083E290E00E944930823289F484E290E07A
:103F50000E944930843059F485E290E00E94493053
:103F600091E0853209F090E0892F8170089580E01A
:103F7000FCCFCF93C82F6FEF811162E283E290E014
:103F80000E945D306FEFC11164E084E290E00E9416
:103F90005D306FEFC11165E285E290E0CF910C9446
:103FA0005D300895CF92DF92EF92FF92CF93DF932F
:103FB00000D000D0CDB7DEB786E290E00E94493055
:103FC00090E0B0E0A0E0CC24D82EE92EFA2E87E2D3
:103FD00090E00E9449309601282BC701B9010F904B
:103FE0000F900F900F90DF91CF91FF90EF90DF90A7
:103FF000CF9008950895CF93DF9300D000D0CDB730
:10400000DEB769837A838B839C8369817A818B8114
:104010009C810E94FA1F698187E290E00E945D30D6
:1040200029813A814B815C819927852F742F632FD9
:1040300086E290E00F900F900F900F90DF91CF915C
:104040000C945D3080E00E94B91F60E070E0CB010D
:104050000E94FB1F0E9423230E94F82381E00C94FE
:10406000B91F0E94D11F0E94D21F0E94FA1F0E94F6
:10407000A01F811102C00C9422200895CF939C01AF
:10408000FB01C281CC2301F182519F45409720F56D
:104090008EEE820F0E940824C0E08C2FCF910895ED
:1040A00081E00E948D0A43E062E081E00E94BD044D
:1040B000F3CF81E00E94980A43E062E081E00E9431
:1040C000BD04EBCF82E0F6CF80319F4591F32131E3
:1040D0003F45C1F3C1E0E1CF2031EFE53E0701F3F9
:1040E00082E021313F45E9F2D8CF2FEFFC01208358
:1040F0000895CF93DF93EC0188818238C1F038F4C2
:10410000803871F0813881F0DF91CF910895833844
:10411000D9F70E945B1889830E945E188A83F4CFC6
:104120000E9461188983F0CF0E94C817FBCF0E94BC
:104130002E18F8CFCF93DF93EC018881823851F1AC
:1041400038F4803869F08138B9F0DF91CF91089563
:104150008338D9F70E946118482F6A81898108C085
:10416000D9810E945E18C82F0E945B184D2F6C2FBA
:10417000DF91CF910C94251A89810E94EF1D8981CE
:10418000811104C0DF91CF910C94341DDF91CF9148
:104190000C94251E8981DF91CF910C945818EF92D1
:1041A000FF920F931F93CF93DF93CDB7DEB72E9778
:1041B0000FB6F894DEBF0FBECDBF8D839E83162F42
:1041C0008D819E81DC01ED91CD01E150E33108F05C
:1041D000F8C0F0E0EF51FF4C0C94792FED81FE8197
:1041E000118289E08283612F8D819E812E960FB688
:1041F000F894DEBF0FBECDBFDF91CF911F910F911D
:10420000FF90EF900C942D28AD81BE8111968C917A
:10421000823099F0833011F1813081F50E941E27A0
:104220000E947F2F6F83788789879A87ED81FE812F
:104230006283738384839583D6CF0E94D21F0E94AA
:104240007F2F6B877C878D879E87AD81BE8112967D
:104250006D937D938D939C931597C5CFED80FE80D4
:1042600000E0802F0E94E012F701928383830F5FAA
:10427000F2E0EF0EF11C0630A1F7B5CF612F8D8172
:104280009E810E947520AFCFAD81BE8111968C9129
:104290001197823099F712968D919D910D90BC9156
:1042A000A02D89839A83AB83BC83BC01CD010E947E
:1042B0007F2F0E94FB1F97CFED81FE81438162819A
:1042C00081810E94F522982789279827AD81BE8198
:1042D00015969C938E93149786CFED81FE81248151
:1042E00035813227232732274381628181810E94D1
:1042F0000E2379CF0E94232376CF0E949A2073CF7A
:104300000E94792070CF0E949C176DCF0E94AE232F
:10431000AD81BE8111968C9366CF0E94B023982701
:1043200089279827ED81FE81928381835CCFAD81BF
:10433000BE8113966C91139770E011968D919C91AC
:104340001297AD014C5F5F4F9827892798270E94ED
:10435000B32349CFED81FE81638170E08181928139
:10436000AF014C5F5F4F9827892798270E94D6237B
:104370003ACF0E94F82337CF0E94E222C9CFED81C5
:10438000FE81638170E081819281AF014C5F5F4F5C
:104390009827892798270E945C2325CFAD81BE816D
:1043A00013966C91139770E011968D919C911297D2
:1043B000AD014C5F5F4F9827892798270E947F2384
:1043C00012CF8FEFED81FE8180830DCFCF93DF93EE
:1043D000EC01FB018281882309F4F2C0C136FDE5BE
:1043E000DF0749F048F5C631ECE5DE07E0F4C230FE
:1043F000FCE5DF07F0F00E945B0F90934F03809382
:104400004E03C631ECE5DE0748F5C230FCE5DF07B8
:10441000C0F480914E0390914F030E94690F0E9457
:10442000150A80E006C09E012A5F3C45293031050F
:1044300010F3DF91CF910895C53A9DE5D907C9F7EB
:10444000DACFFE01E350FC4580914E038160E331F9
:10445000F10528F5EC50FF4C0C94792FC3308DE515
:10446000D80770F4CA3F9CE5D90798F2FE01EB5FCC
:10447000FC45E830F10510F5E95FFE4C0C94792F0E
:10448000C136EDE5DE0709F494C090914E03892F03
:104490008E7F90FF8160C53ADD4509F0BACF8093E9
:1044A0004E03B7CF80914E038260F9CF80914E03C7
:1044B0008460F5CF80914E038860F1CF80914F03E7
:1044C000816080934F03A5CF80914F038260F9CF25
:1044D00080914E038061E3CF80914E038062DFCFF5
:1044E00080914E038064DBCF0E94150A80914E03B9
:1044F0008068D5CF80914E038C60D1CF80914F03DF
:104500008360DFCF80914E038E7FC9CF80914E03B1
:104510008D7FC5CF80914E038B7FC1CF80914E039D
:10452000877FBDCF80914F038E7FCBCF80914F038C
:104530008D7FC7CF80914E038F7EB1CF80914E0388
:104540008F7DADCF80914E038F7BA9CF0E94150A3E
:1045500080914E038F77A3CF80914E03837F9FCFAF
:1045600080914F038C7FADCF80914E0382FB9927C2
:1045700090F921E0922790FB82F990FB83F98FCF8D
:1045800080914F03982F909591708E7F892B90FB8F
:1045900081F997CF0E94150A90914E03892F97FBBE
:1045A00087F980587CCF81E00E94EE0F32CF80E007
:1045B000FBCF90914E03892F8F7E94FF80616FCF48
:1045C00081E037CF84E0089590E2699FB001112423
:1045D00050E0440F551F640F751F90EC899F600DCC
:1045E000711D1124CB01889608950F931F93CF93CB
:1045F000DF930E94E4228C010E944930C82FD0E052
:10460000DC2FCC27C80101960E9449309E01282B3F
:10461000C901DF91CF911F910F9108950F931F93BF
:10462000CF93DF93122F032F0E94E422EC01602F1F
:104630000E945D30612FCE010196DF91CF911F91D5
:104640000F910C945D30AF92BF92CF92DF92FF92A8
:104650000F931F93CF93DF93B12CA12C00E0650142
:1046600010E013C0FE01259134914F2D612F802F52
:104670000E940E232296F39480E1F812F3CF80E19A
:10468000C80ED11C1F5F163039F0E601CC0FDD1FBC
:10469000C455DF4FF12CE6CF0F5F80E6A80EB11CAA
:1046A0000430E9F6DF91CF911F910F91FF90DF90D9
:1046B000CF90BF90AF900895EF92FF920F931F930A
:1046C000CF93DF938C01EA017A01E60EF71EC80151
:1046D0008896CE15DF0539F4DF91CF911F910F91A8
:1046E000FF90EF900895011523E0120730F40E9427
:1046F000493089930F5F1F4FEACF80E0FACFEF92E6
:10470000FF920F931F93CF93DF938C01EA017A01FD
:10471000E60EF71EC8018896CE15DF0539F4DF9145
:10472000CF911F910F91FF90EF900895011523E015
:10473000120718F468810E945D3021960F5F1F4FA9
:10474000E9CF462F672F843030F4763020F44031A3
:1047500010F40C94F52290E080E0089580E1089533
:1047600088ED90E00895EF92FF920F931F93CF93FF
:10477000DF938C01EA017A01E60EF71EC801885D1D
:104780009C4FCE15DF0539F4DF91CF911F910F912A
:10479000FF90EF900895083D110530F40E944930D4
:1047A00089930F5F1F4FEACF80E0FACFEF92FF921D
:1047B0000F931F93CF93DF938C01EA017A01E60EEA
:1047C000F71EC801885D9C4FCE15DF0539F4DF91D7
:1047D000CF911F910F91FF90EF900895083D110523
:1047E00018F468810E945D3021960F5F1F4FE9CF5A
:1047F000CF93DF93C8E2D3E060E0CE010E945D304A
:104800002196C11584E0D807B9F7DF91CF910895BB
:10481000DF92EF92FF920F931F93CF93DF9300D01D
:1048200000D0CDB7DEB7F82E8FE08F1540F08FEFB8
:1048300093E00E94493008E213E08823C1F00F9012
:104840000F900F900F90DF91CF911F910F91FF90DC
:10485000EF90DF900895011584E0180781F3C801F7
:104860000E944930811101C0FA940F5F1F4FF1106F
:10487000F2CF8091300190913101A0913201B0913D
:10488000330189839A83AB83BC83DD24D39478017D
:104890008FEFE81AF80AC8010E94493089831A820A
:1048A000882369F29FEF980F933080F48A83D9822E
:1048B0000E5F1F4FC7010E9449308B83882309F484
:1048C000BECFCE0101960E941506E1CF8701F9CF38
:1048D000CF93DF93EB0186319C4511F50E945F0E6B
:1048E0009A81992399F08A7A91E009F490E0909363
:1048F0001D03811109C089E20E943A0E0E94A10E97
:1049000080E0DF91CF91089585E3F6CF80911D037C
:10491000811104C089E20E94410EF0CF85E3FBCFF4
:1049200081E0EFCF0F931F93CF93DF93C42FD22F4C
:10493000FC0182818823C9F0409320030E94122742
:1049400090931F0380931E0380E28C0F883008F041
:1049500050C0C77081E001C0880FCA95EAF7DF91A7
:10496000CF911F910F910C949E0710912003141367
:1049700035C080911E0390911F030E943E27883C02
:10498000910560F5C0E2CD0F1D17B9F080E2810FEF
:10499000883040F4177081E001C0880F1A95EAF75B
:1049A0000E94A507C83048F481E09D2F977001C090
:1049B000880F9A95EAF70E949E07802F0E9496071B
:1049C000C830B8F4D77081E001C0880FDA95EAF7F3
:1049D000DF91CF911F910F910C94A50780E28C0F6E
:1049E000883038F4C77081E001C0880FCA95EAF7B3
:1049F000EFCFDF91CF911F910F9108950F939C01FD
:104A0000CB01233F4CE53407A1F190F4283DFCE5B0
:104A10003F0749F1293D4CE53407E9F1273D3C4585
:104A2000C1F0FC0182818823E1F11092200319C0BA
:104A3000253FFCE53F0719F1263F4CE5340729F1F6
:104A4000243F3C4571F707E225EE44EE64EF7CE538
:104A500005C006E221EE41EE67ED7CE50E9492245E
:104A600080E00F91089507E225EE45EE68ED7CE5C4
:104A7000F5CF06E221EE40EE63EF7CE5EFCF06E2F4
:104A800021EE42EE65EF7CE5E9CF07E225EE46EE4A
:104A900066EF7CE5E3CF08E221E045EE69ED7CE5D9
:104AA000DDCF81E0DECF9093E1018093E0010895B6
:104AB00090932603809325030895E0912503F091B8
:104AC0002603309721F00190F081E02D099480E0D9
:104AD0000895DC01E0912503F0912603309799F0C9
:104AE00080912F01882351F080914E0387FF06C0EB
:104AF0008C9111968C93119786E08C930280F381B0
:104B0000E02DCD0109940895DC01E0912503F09199
:104B10002603309739F082E08C930480F581E02DF4
:104B2000CD0109940895209123033091240328177F
:104B3000390771F09093240380932303E0912503B8
:104B4000F0912603309721F00680F781E02D09943B
:104B5000089520912103309122032817390771F01D
:104B60009093220380932103E0912503F091260383
:104B7000309721F00084F185E02D09940895FC011F
:104B8000329680912F01882321F080914E039EE17F
:104B900087FF96E080E0915008F408952191222348
:104BA000D1F38F5FF8CF9C01662301F180912F0133
:104BB0008823F1F080914E0387FF1AC0462F469557
:104BC00046954695603F90F4677081E090E002C0A2
:104BD000880F991F6A95E2F7240F311DF901228190
:104BE00030E02823392381E0232B71F480E00895FD
:104BF000F9013296285F3F4F8191861721F0E21725
:104C0000F307D1F7F3CF81E008959C01FC013296C0
:104C10008FEF90E04191461751F08F3F19F4411109
:104C200001C0892F9F5F9630A9F78F3F09F408953F
:104C3000280F311D87FD3A95F901628308959C0183
:104C4000FC013296285F3F4F8191861303C0DF013C
:104C500011971C92E217F307B9F70895FC01862F0C
:104C6000869586958695603F60F4E80FF11D677024
:104C700021E030E001C0220F6A95EAF78281822BA1
:104C800082830895FC01862F869586958695603FE0
:104C900068F4E80FF11D677081E090E001C0880FB3
:104CA0006A95EAF7809592818923828308952091FD
:104CB0002F01222329F020914E0327FD0C942E264C
:104CC0000C94052620912F01222329F020914E03D8
:104CD00027FD0C9442260C941F26FC0132968091ED
:104CE0002F01882351F080914E0387FF06C08EE18B
:104CF000DF011D928A95E9F7089586E0F9CF0895BE
:104D00000C947F268F5F809327030C94802683E08A
:104D1000809327030C9480260C94822681E0809354
:104D200027030C9480260C948E26089508950C94E5
:104D30009626089508950C949526CF930E9499265F
:104D40000E94AA130E949A26C0E08C2F0E94E012B3
:104D5000892B31F4CF5FC630C1F780E0CF91089541
:104D600081E0FCCF08951F921FB61F9211248F93EC
:104D70009F93AF93BF9380912803811113C08091BB
:104D8000A9039091AA03A091AB03B091AC03419603
:104D9000A11DB11D8093A9039093AA03A093AB0317
:104DA000B093AC03BF91AF919F918F911F901FBEA5
:104DB0001F9018958091B103843031F10E9439051C
:104DC0001092280388E190E020E40FB6F894A895AB
:104DD000809360000FBE2093600083B7817F846062
:104DE00083BF83B7816083BF7894889583B78E7FB4
:104DF00083BF0FB6F894A895809160008861809376
:104E00006000109260000FBE08950E94150A0C9475
:104E10003F0582E084BD93E095BD9AEF97BD8093F6
:104E20006E0008952FB7F8948091A9039091AA037A
:104E3000A091AB03B091AC032FBF0895CF93DF9344
:104E400000D000D0CDB7DEB78FB7F8942091A9037A
:104E50003091AA034091AB035091AC0329833A836C
:104E60004B835C838FBF69817A818B819C810F909A
:104E70000F900F900F90DF91CF9108959C014FB745
:104E8000F8948091A9039091AA03A091AB03B091EB
:104E9000AC034FBF821B930B089578941F921FB6EB
:104EA0001F9211248F939F93AF93BF938091A90377
:104EB0009091AA03A091AB03B091AC030196A11D00
:104EC000B11D8093A9039093AA03A093AB03B09361
:104ED000AC03BF91AF919F918F911F901FBE1F9008
:104EE000189581E08093E00080E28093D8001092D2
:104EF000C9008FE19EE40197F1F700C0000087E050
:104F000090EBDC018093BA039093BB03A093BC03A6
:104F1000B093BD0388E19CE00FB6F894A895809308
:104F200060000FBE90936000FFCF80914C03089506
:104F3000089524E02093E9002FEF3091E8002150FC
:104F400035FD06C035ED3A95F1F700002111F5CF9A
:104F50002091E80025FF0BC050E040E066E070E0E3
:104F60000E943B2A8091E8008E778093E8000895A4
:104F7000CF93DF93D82FC92F80912F018823C1F1C0
:104F800080914E0387FF34C060E284E08093E900A3
:104F90008FEF9091E800815095FD06C095ED9A95B0
:104FA000F1F700008111F5CF8091E80085FF1DC069
:104FB00080912F0170E050E040E0811104C050E08A
:104FC00040E068E070E08D2F9C2F0E943B2A80918A
:104FD000E8008E778093E80080E2ED2FFC2FACE2B2
:104FE000B3E001900D928A95E1F7DF91CF9108959A
:104FF00068E081E0CBCF8093290370932B0360930B
:105000002A038091B1038430F9F48093E9008FEF93
:105010009091E800815095FD06C095ED9A95F1F7C5
:1050200000008111F5CF8091E80085FF0DC050E0B0
:1050300040E063E070E089E293E00E943B2A8091C7
:10504000E8008E778093E8000895BC0184E00C941A
:10505000FB27BC0183E00C94FB27CF93603211F552
:105060002091B1032430F1F42091E900C091EC00CB
:10507000C795CC27C7952F70C22B22E02093E9005B
:105080002091E80020FF0BC050E040E060E270E0BB
:105090000E943B2A8091E8008E778093E800CF70D1
:1050A000C093E900CF9108958091B003811109C0A8
:1050B0000E94122C0E946F2C8091E20084608093E9
:1050C000E20008951092B00308950C948E2660912A
:1050D000AD0381E0611101C080E00C9487269091BE
:1050E000B10381E0943009F080E06091AD030C944D
:1050F0008C2642E061EC81E00E948E2B42E261EC62
:1051000084E00E948E2B42E261EC82E00E948E2BB2
:1051100042E260EC83E00E948E2B9091B10381E02B
:10512000943009F080E06091AD030C948226809168
:10513000B303893089F148F4823009F49FC0833089
:1051400009F45AC0813041F008958A3009F486C0CC
:105150008B3009F46CC008958091B203813A09F054
:105160004AC08091E800877F8093E8008091B60371
:105170009091B703892B61F460E28CE293E070E0D8
:105180000E94D92A8091E8008B778093E8000895E7
:1051900060E090E080E0F3CF8091B203813259F576
:1051A0008091B6039091B7038D7F892B21F5809173
:1051B000E800877F8093E8008091E80082FF17C0B5
:1051C0009091F3008091F200029731F48091F10008
:1051D000813011F0863021F48091F10080934C03EE
:1051E0008091E8008B778093E8000C94C22B80912B
:1051F000B1038111E1CF08958091B203813AD9F7CB
:105200008091B6039091B703892BA9F78091E800AC
:10521000877F8093E8008091E80080FFFCCF809139
:105220002F018093F1008091E8008E77DCCF809190
:10523000B203813201F78091B6039091B703892BB5
:10524000D1F68091E800877F8093E8000E94C22B0E
:105250008091B40380932F010C94150A8091B203BE
:10526000813249F68091E800877F8093E8000E94B0
:10527000C22B8091B50380934D0308958091B203B2
:10528000813A09F0B8CF8091E800877F8093E800E9
:105290008091E80080FFFCCF80914D03C2CF84B79E
:1052A000877F84BF0FB6F894A895809160008861CD
:1052B00080936000109260000FBE80E890E00FB60F
:1052C000F89480936100909361000FBE0C94932634
:1052D0000E94122C0E946F2CE2EEF0E0808184602C
:1052E000808378940C94FB2E83E291E00C945825F3
:1052F0008091B1038530A9F48091B103853011F01C
:105300000C9405270E94DA268091AF038823A1F32D
:105310000E949D26882381F30E94252A0E94150A57
:10532000EBCF0895CF93DF93CDB7DEB7A0970FB63D
:10533000F894DEBF0FBECDBF8091B103843009F574
:1053400083E08093E9008091E80082FF1AC0809199
:10535000E80090E085FF09C050E040E060E270E0C6
:10536000CE0101960E948A2A91E08091E8008B7715
:105370008093E800992329F060E2CE0101960E9413
:10538000CF20A0960FB6F894DEBF0FBECDBFDF9141
:10539000CF9108950C94CC29FC01CB01DA012F2F79
:1053A000332723303105D1F070F42130310509F471
:1053B00047C02230310569F48BE590E02EE936E0F4
:1053C0002D933C93089521323105E9F022323105C5
:1053D00039F190E080E030E020E0F2CFCF01992772
:1053E000E13059F08230910559F0EAE9F6E0892B75
:1053F00081F7849190E09F01E3CFE8E8F6E0F9CFF0
:10540000E6E7F6E0F6CF6330710518F7880F991FCD
:10541000FC01E652FE4F2081318189E090E0D0CF3F
:1054200063307105B0F6FB01EE0FFF1FEC52FE4F2B
:10543000208131818F529E4FFC01808190E0C0CF4E
:1054400082E190E029EF36E0BBCF80E189BD82E1C7
:1054500089BD09B400FEFDCF8091D8008F7D809377
:10546000D8008091E00082608093E0008091E000AD
:1054700081FDFCCF0895AF92BF92CF92DF92FF9251
:105480000F931F93CF93DF936C01EB018A010E946E
:10549000E12BF82E811123C00115110539F0F80117
:1054A00080819181C81BD90BC80ED91EB12CA12CAB
:1054B0002097A9F08091E80085FD22C08091E80046
:1054C0008E778093E80001151105A1F0F801808125
:1054D00091818A0D9B1D9183808385E0F82E8F2D0D
:1054E000DF91CF911F910F91FF90DF90CF90BF90F0
:1054F000AF9008950E94E12B8823D1F2F82EEFCFD0
:10550000F60181916F018093F1002197FFEFAF1AAF
:10551000BF0ACECFAF92BF92CF92DF92FF920F938E
:105520001F93CF93DF936C01EB018A010E94E12B63
:10553000F82E811123C00115110539F0F801808181
:105540009181C81BD90BC80ED91EB12CA12C209754
:10555000A9F08091E80085FD22C08091E8008B775A
:105560008093E80001151105A1F0F8018081918177
:105570008A0D9B1D9183808385E0F82E8F2DDF910E
:10558000CF911F910F91FF90DF90CF90BF90AF9080
:1055900008950E94E12B8823D1F2F82EEFCF80915D
:1055A000F100F60181936F012197FFEFAF1ABF0A57
:1055B000CECFFC01CB012091B8033091B90326175F
:1055C000370790F0009729F42091E8002E77209378
:1055D000E80040E0009751F4411108C08091E800D4
:1055E00082FF31C080E00895C901F3CF2091B1035B
:1055F0002223A9F12530A9F12091E80023FD2DC037
:105600002091E80022FDEACF2091E80020FFE2CFC0
:105610003091F3002091F200009719F02830310505
:1056200058F041E02830310509F040E02091E800D1
:105630002E772093E800CECF41914093F10001975F
:105640002F5F3F4FE9CF8091B103882341F0853030
:1056500041F08091E80083FFC1CF81E0089582E0AE
:10566000089583E00895FC01CB012091B8033091A7
:10567000B9032617370790F0009729F42091E80026
:105680002E772093E80040E0009751F4411108C0C4
:105690008091E80082FF32C080E00895C901F3CF15
:1056A0002091B1032223B1F12530B1F12091E8001E
:1056B00023FD2EC02091E80022FDEACF2091E800D2
:1056C00020FFE2CF3091F3002091F200009719F013
:1056D0002830310558F041E02830310509F040E02C
:1056E0002091E8002E772093E800CECF449140939C
:1056F000F100319601972F5F3F4FE8CF8091B103C2
:10570000882341F0853041F08091E80083FFC0CFCD
:1057100081E0089582E0089583E00895982F9730FE
:1057200028F08F708093E90081E008959093E9005C
:10573000242F762F50E0981731F07091EC002091D3
:10574000ED005091F00021FD02C09F5FE8CF309145
:10575000EB003E7F3093EB003091ED003D7F3093C6
:10576000ED003091EB0031603093EB007093EC0072
:105770002093ED005093F0002091EE0027FDE5CF3F
:1057800080E008958091B20387FF13C08091E80004
:1057900082FF06C08091E8008B778093E80004C008
:1057A0008091B1038111F2CF08958091B1038823D4
:1057B000D9F38091E80080FFF8CF8091E8008E77E0
:1057C000ECCF2091E4003091E50095E6A90120910D
:1057D000EC00822F817020FF06C08091E80080FFDE
:1057E00006C080E008952091E80022FD1AC0809153
:1057F000B103882389F0853089F08091EB0085FD25
:105800000FC02091E4003091E50042175307F9F2F0
:105810009150E1F684E0089582E0089583E00895D0
:1058200081E008950E94802C0E94882CE0EEF0E038
:10583000808181608083E8EDF0E080818F778083D4
:1058400019BCA7EDB0E08C918E7F8C9380818F7E08
:1058500080831092B00308950F931F93CF93DF932B
:105860000E94802C0E94882CC8EDD0E088818F7720
:10587000888388818068888388818F7D888319BC2C
:105880001092B1031092AD031092AF031092AE03C9
:1058900000EE10E0F80180818B7F80838881816039
:1058A000888342E060E080E00E948E2BE1EEF0E031
:1058B00080818E7F8083E2EEF0E080818160808352
:1058C000808188608083F80180818E7F80838881D9
:1058D00080618883DF91CF911F910F910895E8ED4A
:1058E000F0E080818F7E8083E7EDF0E08081816051
:1058F000808384E082BF81E08093B0030C942C2CE1
:10590000E8EDF0E080818E7F80831092E2000895C0
:105910001092DA001092E10008951F920F920FB6D4
:105920000F9211242F933F934F935F936F937F9325
:105930008F939F93AF93BF93EF93FF938091E10079
:1059400082FF0BC08091E20082FF07C08091E100DE
:105950008B7F8093E1000E94FA2E8091DA0080FF15
:1059600019C08091D80080FF15C08091DA008E7F29
:105970008093DA008091D90080FF94C080E189BDD6
:1059800082E189BD09B400FEFDCF81E08093B103BF
:105990000E9454288091E10080FF19C08091E200AC
:1059A00080FF15C08091E2008E7F8093E20080919D
:1059B000E20080618093E2008091D8008062809351
:1059C000D80019BC85E08093B1030E9467288091BC
:1059D000E10084FF29C08091E20084FF25C080E1BE
:1059E00089BD82E189BD09B400FEFDCF8091D80058
:1059F0008F7D8093D8008091E1008F7E8093E100BD
:105A00008091E2008F7E8093E2008091E2008160CD
:105A10008093E2008091AD03882309F449C084E0BB
:105A20008093B1030E946F288091E10083FF29C019
:105A30008091E20083FF25C08091E100877F809301
:105A4000E10082E08093B1031092AD038091E10008
:105A50008E7F8093E1008091E2008E7F8093E20050
:105A60008091E20080618093E20042E060E080E0AB
:105A70000E948E2B8091F00088608093F0000E943D
:105A80006528FF91EF91BF91AF919F918F917F9189
:105A90006F915F914F913F912F910F900FBE0F909B
:105AA0001F90189519BC1092B1030E94622872CF02
:105AB0008091E30087FD02C081E0B2CF83E0B0CFE8
:105AC0001F920F920FB60F921124FF920F931F9304
:105AD0002F933F934F935F936F937F938F939F93F6
