:100000000C94BF030C9406040C9406040C94060490
:100010000C9406040C9406040C9406040C94060438
:100020000C9406040C9406040C944C2A0C94242B77
:100030000C94D1170C9406040C9406040C9406043A
:100040000C9406040C9406040C9406040C94060408
:100050000C9406040C94282A0C9406040C940604B0
:100060000C9406040C9406040C9406040C940604E8
:100070000C9406040C9406040C9406040C940604D8
:100080000C9406040C9406040C9406040C940604C8
:100090000C9406040C9406040C9406040C940604B8
:1000A0000C9406040C9406040C9406040501090241
:1000B000A10185020901A1000509190129081500FE
:1000C0002501950875018102050109300931158165
:1000D000257F95027508810609381581257F9501D0
:1000E00075088106050C0A38021581257F95017572
:1000F000088106C0C005010980A101850319012AF4
:10010000B700150126B700950175108100C0050CD8
:100110000901A101850419012AA002150126A002E6
:10012000950175108100C005010906A1018506052C
:100130000719E029E71500250195087501810205D9
:1001400007190029EF1500250195F07501810205B9
:10015000081901290595057501910295017503910D
:1001600001C00660FF0961A1010962150026FF00B8
:100170009520750881020963150026FF00952075FA
:10018000089102C005010906A101050719E029E748
:1001900015002501950875018102950175088101F9
:1001A0000507190029FF150026FF0095067508812F
:1001B000000508190129059505750191029501753C
:1001C000039101C009025B00030100A0FA090400C9
:1001D0000001030101000921110100012240000773
:1001E00005810308000A0904010002030000000958
:1001F00021110100012222000705820320000107CE
:1002000005030320000109040200010300000009A6
:10021000211101000122B6000705840320000A1203
:1002200001000200000008424B25120200010200FA
:100230000120036B0062006400360037006D006B24
:1002400000690069007200670062002000760032D9
:1002500000000010034B0042004400660061006E85
:10026000007300000004030904165C1E001F002038
:100270000021002200230024002500260027002D55
:10028000002E002A004A002B0014001A0008001556
:100290000017001C0018000C00120013002F003083
:1002A0000031004B00390004001600070009000A65
:1002B000000B000D000E000F00330034000000287A
:1002C000004E00E1001D001B000600190005001192
:1002D000001000360037003800E500000052004DE5
:1002E00000E000E300E200000000002C000000003D
:1002F00000E600000001515000000051004F0016C0
:100300005C3A003B003C003D003E003F00400041A5
:100310000042004300440045004C004A000100C276
:100320005CC35CC55CC65CC75CC85CC95CCA5C017C
:1003300000460047004800005C4B000100CB5CCC4D
:100340005C01000100010001000100010001000149
:100350000001000000DE5C4E00E100010001000130
:100360000001000100010001000100010001000185
:10037000000000A900A80001000100010000000029
:1003800000010000000000010000000100AC0000BE
:1003900000AA00AB00010001000100010001000102
:1003A0000001000100010001000100010001000145
:1003B0000001000100010001000100010001000135
:1003C0000001000100010001000100010001000125
:1003D0000001000100010001000100010001000115
:1003E0000001000100010001000000010001000106
:1003F00000010001000100010001000100010001F5
:1004000000010001000100000001000100010001E5
:1004100000010000000000010000000000010000D9
:1004200000010001000000010001000100010001C5
:1004300000010001000100010001000100010001B4
:1004400000010001000100010001000100010001A4
:100450000001000100010001000100010001000194
:100460000001000100010001000100010001000184
:100470000001000100010001000100010001000075
:100480000001000100010001000100010001000164
:100490000001000100010001000100010000000155
:1004A0000001000100010001000000000001000047
:1004B0000000000100000001000100000001000137
:1004C00000009B8B7B00AB8A7A00AA9A7900A999DD
:1004D0008900A8988800A7978700A6968600A5950A
:1004E0008500A49484003C4C5C002C4D5D002D3DA7
:1004F0005E002E3E4E0030405000314151002A3AFD
:100500004A0029394900283848002737470026364D
:100510004600253556002445550034445400AC9C13
:100520008C00AD9D8D00AE9E8E00AF9F8F00B0A061
:100530009000B1A19100324252002B3B4B01A9998E
:100540008901A8988801A7978701A6968601A59595
:100550008501A49484013C4C5C012C4D5D012D3D32
:100560005E012E3E4E012F3F4F013040500033437D
:100570005301AB8A7A0128384801273747012636CC
:1005800046012535560124455501AC9C8C01AD9D95
:100590008D01AE9E8E01AF9F8F01314151013242DC
:1005A000520133435300B2A281019B8B7B012B3B51
:1005B0004B012A3A4A0134445401B1A19101B2A23B
:1005C0008101A3938300A3938300B392820001016E
:1005D0000101010101010102020202020202020202
:1005E00003030303030303030404040404040405D2
:1005F0000505050506060606060707070707080896
:100600000808090909090A0A0A0B0B0B0C0C0C0D46
:100610000D0D0E0E0E0F0F0F1010111111121213DF
:10062000131414151516161717181819191A1A1B5A
:100630001B1C1D1D1E1E1F202021222223242425B9
:100640002626272829292A2B2C2D2D2E2F303132F2
:1006500032333435363738393A3B3C3D3E3F404102
:1006600042434445464748494A4C4D4E4F505153EA
:1006700054555658595A5B5D5E5F616264656668A1
:10068000696B6C6D6F7072737577787A7B7D7E8025
:1006900082838587888A8C8E8F91939596989A9C71
:1006A0009EA0A2A3A5A7A9ABADAFB1B3B5B7BABC85
:1006B000BEC0C2C4C6C9CBCDCFD1D4D6D8DBDDDF56
:1006C000E2E4E7E9EBEEF0F3F5F8FAFDFF000000F5
:1006D000000000000000000000000000000000001A
:1006E000000000000000000000000000000000000A
:1006F000007E0F00D4FFFFFFC7000000780000005D
:1007000000000000002A2B2800000000000000006C
:10071000000000000000000029000000002C1E3432
:1007200020212224342627252E362D3738271E1F38
:10073000202122232425263333362E37381F040563
:10074000060708090A0B0C0D0E0F101112131415D1
:10075000161718191A1B1C1D2F3130232D350405AF
:10076000060708090A0B0C0D0E0F101112131415B1
:10077000161718191A1B1C1D2F3130354C00112467
:100780001FBECFEFDAE0DEBFCDBF04B603FE27C049
:100790008091640590916505A0916605B09167050B
:1007A0008730904BA740B04BD1F410926405109263
:1007B0006505109266051092670514BE84B7877FA1
:1007C00084BF0FB6F894A8958091600088618093EB
:1007D0006000109260000FBEE0E0F8E3099512E0BF
:1007E000A0E0B1E0ECEEFAE502C005900D92AA3867
:1007F000B107D9F725E0AAE8B2E001C01D92A436FE
:10080000B207E1F70E948E250C94F52C0C940000A1
:10081000E82F2FE0929FE00D11248E2F877041E08A
:1008200001C0440F8A95EAF7E695E695E69583E0E0
:10083000E89FF0011124ED50FB4F30E020E070E024
:100840005191DF011197CB01022E02C09695879539
:100850000A94E2F7817081958527842385278C93FC
:100860002F5F3F4F2330310559F70895E82F2FE0D0
:10087000929FE00D11249E2F9770E695E695E695E0
:1008800083E0E89FF0011124ED50FB4F50E040E081
:1008900080E0219130E0092E02C0369527950A9418
:1008A000E2F721703327042E01C0220F0A94EAF7E1
:1008B000822B4F5F5F4F4330510559F70895809168
:1008C0002D0590912C05981301C008958F5F8770B6
:1008D000FACF909113019923E1F09091290597FFA8
:1008E00018C0E82FE695E695E695803FF0F4F0E035
:1008F000E457FD4F877021E030E0A90102C0440FAA
:10090000551F8A95E2F7CA018095928189238283D7
:100910000895EEE8F2E09191891303C0DF01119789
:100920001C9252E0E439F507B1F70895982F90959D
:1009300080912405892380932405089580912505BD
:1009400081111092250508958091240590912B0521
:10095000892B90911105892B80938C02909125050C
:100960009923A1F0892B80938C0280911301882315
:1009700041F18091290587FF24C08EE1EEE8F2E085
:1009800090E0815000F591110E949E04E091F104E5
:10099000F091F2043097E1F080911301882359F02F
:1009A0008091290587FF07C080918C0280938D027A
:1009B00086E080938C020280F381E02D8CE892E047
:1009C000099486E0DBCF21912223D9F29F5FD9CF12
:1009D0000895882339F090912405892B809324056C
:1009E0000C94A4040895882321F00E9496040C948A
:1009F000A40408959091290592FF06C0282F28711C
:100A00002830F9F4877F846093FF06C0282F28716F
:100A10002831F1F4877E846120912A0520FF06C0E9
:100A2000382F38713830D9F4877F816021FF06C0B4
:100A3000282F28712831D1F4877E816194FD877E2B
:100A40000895282F24712430F9F68B7F8860DCCF3D
:100A5000282F2471243101F78B7E8861DDCF382F58
:100A60003171313019F78E7F8860E0CF282F2171E6
:100A7000213121F78E7E8861E1CFCF93DF93EC01A6
:100A8000803E910509F460C050F58133910509F469
:100A9000A6C090F48932910509F49AC08A9709F4A6
:100AA000A5C0C130D10509F462C0CE010497813AD6
:100AB000910508F055C05BC089339105F1F182388A
:100AC0009105D9F1C59709F47CC0C83AD10508F061
:100AD00094C0C53AD10528F3A497D06448C0843E99
:100AE000910509F453C068F4823E9105E1F1833E1B
:100AF000910509F440C0CE01805E9109089780F508
:100B000036C0863E910509F44CC0873E910509F434
:100B10004DC0811523E5920708F09AC0811532E592
:100B2000930708F000C18F3F910511F008F074C0E1
:100B3000803F910550F2D0651AC0809129058370DD
:100B4000B1F0C0EED0E013C08091290580FD15C141
:100B500090912A0590FF0BC0C3EED0E084FF07C040
:100B6000D0E0C0E004C08091290582FDF5CFCE0120
:100B7000DF91CF9108958091290582FD01C1909167
:100B80002A0590FDDECF84FFF2CFEACF80912A05BF
:100B900081FFEDCF80912905C7EED0E084FDE0CF45
:100BA000E6CF8091290583FDF7CFE1CF809129051C
:100BB00083FDE9C090912A0591FFE5CFC4EED0E016
:100BC000D6CF8091290585FFD2CFC9E2D0E0CFCF23
:100BD0008091290585FFCBCFC5E3D0E0C8CF8091B8
:100BE000290586FFC4CFCAE2D0E0C1CF8091290594
:100BF00086FFBDCFC1E3D0E0BACFCF3BD10508F02F
:100C00007ACFC85AD0E0CC0FDD1FC55ADD4F09900E
:100C1000D881C02DD464ABCFC11581E5D80798F435
:100C2000C11520E5D20708F061C0C11530E2D30735
:100C300008F49DCFCE0190548115904108F090CFDB
:100C4000DF70D06A94CFDC2FCC27C16FD06A8FCFF2
:100C5000811539E59307A0F5C11588E5D80708F097
:100C60007AC0C11525E5D207C8F4C11534E5D3070C
:100C700008F06CC09E012370332781E090E002C031
:100C8000880F991F2A95E2F7C695C69520E2C29F64
:100C9000E0011124C82BD92BDA6869CFCE01955514
:100CA0008F3F910511F008F05BCF8C2F0E94FA0462
:100CB000C82FD0E0DC2FCC27CC27DF71D06257CFF4
:100CC00081153AE5930708F44BC090568115904280
:100CD00008F046CF8D2F8F710E94FA0490E0982F74
:100CE000882788279F718C2BEC01E8CF9E0174E048
:100CF000369527957A95E1F723708C2F8695869502
:100D0000837030E2839FC0011124922BC37021E0D5
:100D100030E002C0220F331FCA95E2F7822B932BDB
:100D2000EC01DC6824CF9C012370332781E090E044
:100D300002C0880F991F2A95E2F7C695C69520E252
:100D4000C29FE0011124C82BD92BEBCFDC2FCC277D
:100D5000C46FD06A0CCFDC2FCC27C06FD06A07CF0E
:100D60008F700E94FA0434E0D695C7953A95E1F762
:100D7000CF709C2FEC01D069FACEC9E3D0E0F7CE5A
:100D8000C2EED0E0F4CEC6EED0E0F1CE80E0089521
:100D9000F894E82FE295EF70F0E041A18F7021E028
:100DA00030E0B90102C0660F771F8A95E2F7CB01E8
:100DB000962F9095942391A392A1892B82A3789446
:100DC00008958091120580FD14C081FD14C082FD3C
:100DD00016C080911405882381F0843180F422E3C9
:100DE000829FC001112464E170E00E945C2C862F78
:100DF00008958CE0089589E1089585E0089582E3DF
:100E000008958091120580FD16C081FD16C082FDF7
:100E100016C0809113058823A1F0883280F428E061
:100E2000829FC001112468E270E00E945C2C862F32
:100E3000672B39F0089582E0089584E0089588E0F2
:100E4000089581E00895E0E1E80FE031E0F5F0E099
:100E5000E950F34D0C94702C0E94E106819580932B
:100E6000180508950E94E106FACF0E94E1068195D7
:100E70008093170508950E94E106FACF0E940107AA
:100E80008093190508950E9401078195F9CF0E946A
:100E90000107819580931A0508950E940107FACFF2
:100EA000845F990B21E030E001C0220F8A95EAF7B8
:100EB00080911605822B8093160508958091120566
:100EC0008160809312050895809112058260F9CFA8
:100ED000809112058460F5CF40911705803F59F449
:100EE0008091180587FF0DC01092180541110BC0A5
:100EF0001092140508C0813F81F4809118051816DE
:100F00009CF3442381F08091190590911A05892B57
:100F100009F05AC0109213050895823F49F447FF23
:100F2000F0CF10921705809118058111ECCFE0CF1A
:100F3000833F19F41416ACF3E4CF90911905893F5F
:100F400029F41916F4F610921905DBCF8A3F19F42B
:100F500097FFD7CFF8CF90911A058B3F29F497FFD1
:100F6000D0CF10921A05CDCF8C3F19F41916CCF3BF
:100F7000C8CF9CE0980F953090F4845F990B21E0E6
:100F800030E0B90102C0660F771F8A95E2F7CB0106
:100F9000809590911605892380931605B2CF8D3FD9
:100FA00031F4809112058E7F80931205AACF8E3F77
:100FB00021F4809112058D7FF7CF8F3F09F0A1CFEB
:100FC000809112058B7FF0CF0895AF92BF92CF92A0
:100FD000DF92EF92FF920F931F93CF93DF93262F11
:100FE000D72EE82FF0E0E353FA4F71110FC0649150
:100FF000862FE62F7E2FDF91CF911F910F91FF90CB
:10100000EF90DF90CF90BF90AF900895E72EF12C36
:10101000E49186E0689F80011124CFEFD0E0C80101
:10102000BE010E94482CAB0130E0220F331F65E562
:10103000649FC001659F900D1124281B390B922FCE
:10104000990F920F9E012E193F09E29FD001E39F55
:10105000B00D11246B2FD99E90011124232F33271B
:101060006E01C21AD30A9601E29F6001E39FD00C81
:1010700011248D2D5E01A91AB108AE9C9001AF9C80
:10108000300DBE9C300D1124232F3327C21BD30BF0
:10109000EC9F9001ED9F300D112443305105C1F0BC
:1010A0000C3F93E0190768F441305105A9F0423034
:1010B0005105B1F00F3F110508F09CCF8B2F632F26
:1010C00099CF4430510579F046305105B9F392CFAC
:1010D0006D2D8E2FEB2F8ECF6E2FED2D8B2F8ACF78
:1010E000832F6E2FF7CF8E2FE32F84CF9C0190E0BC
:1010F00080E0269F812D369F800D911D112408953B
:101100009C018230910508F408959FEF213E8EE105
:10111000380740F4C90145E0969587954A95E1F76F
:1011200098E0980F61E0E62FE90FFF27FF1FAF015E
:1011300055954795842F449FF001459FF00DF00D84
:1011400011242E173F0738F49FEF940F961758F786
:101150008FEF860F08954F3FE9F361E0640FF6CFFC
:10116000409103015091040125E038E0429FC00105
:10117000439F900D529F900D1124875E994C909340
:10118000040180930301890F0895982FE82F96FD9D
:10119000E0952E2F2F7096FD2F5FE695E695E6954C
:1011A000E670F0E0E55DFE4F8181829F802D212D6C
:1011B000112482958F702295207F822B2081820FAF
:1011C00097FD819580580895FC019B01009719F4C3
:1011D000832F80780895AC0197FF04C044275527DA
:1011E000481B590BB901640F751F37FD0FC0241B35
:1011F000350BC901A5E0880F991FAA95E1F70E9458
:101200005C2C80E2861BF7FD81950895CB0165E09B
:10121000880F991F6A95E1F7BA01621B730B0E9450
:101220005C2C80E6EFCF1F93182F822FE42FF0E085
:10123000EE0FFF1FE258FE4F2081322F24EE329F27
:10124000312D1124412F50E0232F30E0245E3F4FF9
:10125000281B310937FF03C031952195310983E0FF
:10126000220F331F8A95E1F7CA01821B930B9C0161
:1012700097FD20E0219F212D1124822F1F91089599
:101280000F931F93CF93DF93D62FC72F182FBA0139
:10129000C901212F201B022F0E94E408982F990FCB
:1012A000990F282F291B200F219F212D11246D2FED
:1012B0007C2F822FDF91CF911F910F910895EF9294
:1012C0000F931F93CF93DF93D62FC72F182FBA01F9
:1012D000C9010E19010F0E94E408081B019F012D8E
:1012E00011246D2F7C2F802FDF91CF911F910F91B3
:1012F000EF900895622F0895E42FF0E0EE0FFF1FA6
:10130000E258FE4F6081621B0895E42FF0E0EE0F7B
:10131000FF1FE158FE4F6081621B0895322F50E09D
:10132000FA01EE0FFF1FE158FE4F9081905297FD9A
:101330009195440F551FFA01E258FE4F2081231B5F
:10134000330B290F311D97FD3A95620F0895EF92E7
:101350000F931F9393E0099F800111241595079522
:101360006E2D600F1F910F91EF9008950F93CF9303
:10137000DF93D72FC82FB90147FD419528E330E00F
:10138000241B310947FD3395229FA001239F500D57
:10139000500D1124669FC001679F900D900D112480
:1013A000840F951F0E948008982F990F692F680F4E
:1013B000600F7D2F8C2FDF91CF910F9108950F93A8
:1013C000CF93DF93D72FC82FBA01C9010E94E40839
:1013D000682F600F7D2F8C2FDF91CF910F91089593
:1013E000EF920F93CF93DF93D72FC82FBA01C90184
:1013F0000E190E94E408602F681B7D2F8C2FDF914F
:10140000CF910F91EF9008950F931F93522F10E0FB
:10141000F801EE0FFF1FE158FE4FA081A052BB0B59
:101420009D015203F001539FF00D1124000F111F75
:10143000D801A258BE4F2C912057330B4203D00144
:10144000439FB00D11249F012A0F3B1F37FF02C09D
:1014500021583F4F220F232F221F330B620F1F9162
:101460000F9108950F931F93522F10E0F801EE0F84
:10147000FF1FE158FE4FA081A052BB0B9D015203FC
:10148000F001539FF00D1124000F111FD801A25835
:10149000BE4F2C912057330B4203D001439FB00D18
:1014A00011249F012A0F3B1F37FF02C0215C3F4FD1
:1014B00096E0359527959A95E1F7620F1F910F9168
:1014C00008950F931F93A42F10E0F801EE0FFF1F54
:1014D000E258FE4F9081905797FD9195000F111F94
:1014E000F801E158FE4F00810052110B2003A001CA
:1014F000219F500D112428E330E0291B310997FD6D
:1015000033951A2F1203F001139FF00D11244E0F83
:101510005F1F9A01220F331F240F351F37FF02C0B0
:1015200021583F4F220F232F221F330B620F1F9191
:101530000F9108950F931F93CF93DF938B01D82FB3
:10154000C42F822F0E94C508EC2FF0E0EE0FFF1F82
:10155000E258FE4F90819058980F97FD9195990F02
:10156000692F2CE0629F612D1124600F712F8D2F48
:10157000DF91CF911F910F910895E42FF0E0EE0FCE
:10158000FF1FE258FE4F9081921B97FD9195292FE6
:1015900038E1239F212D1124620F08950C94DF154B
:1015A0000C942716EEE1F5E0248130E1230F08F4D6
:1015B0002FEF248380911D05816080931D05089580
:1015C000EEE1F5E0248130E1231B08F420E02483E0
:1015D00080911D05816080931D050895FA01811198
:1015E0000994FB01FDCFE091F104F091F2043097F2
:1015F00021F00190F081E02D099480E00895209180
:10160000E0023091E1022817390771F09093E1026E
:101610008093E002E091F104F091F204309721F020
:101620000680F781E02D099408952091DE02309123
:10163000DF022817390771F09093DF028093DE02F2
:10164000E091F104F091F204309721F00084F185EB
:10165000E02D099408959C01809113018823C1F025
:101660008091290587FF14C0862F869586958695DB
:10167000603FF8F4F901E80FF11D677021E030E0F8
:1016800001C0220F6A95EAF78281822B8283089536
:10169000F90132968FEF90E04191641751F08F3F3E
:1016A00019F4411101C0892F9F5F9630A9F78F3F30
:1016B00009F40895280F311D87FD3A95F9016283D9
:1016C0000895CF93DF9300D000D0CDB7DEB78FB7AA
:1016D000F894209142043091430440914404509185
:1016E000450429833A834B835C838FBF69817A8168
:1016F0008B819C810F900F900F900F90DF91CF9175
:1017000008958091DD0208950895FC01CB01209198
:10171000B8023091B9022617370790F0009729F4E4
:101720002091E8002E772093E80040E0009751F4E4
:10173000411108C08091E80082FF31C080E0089527
:10174000C901F3CF2091D9042223A9F12530A9F1B1
:101750002091E80023FD2DC02091E80022FDEACF72
:101760002091E80020FFE2CF3091F3002091F200B9
:10177000009719F02830310558F041E02830310544
:1017800009F040E02091E8002E772093E800CECFCA
:1017900041914093F10001972F5F3F4FE9CF809136
:1017A000D904882341F0853041F08091E80083FF1F
:1017B000C1CF81E0089582E0089583E0089580918B
:1017C000B20287FF13C08091E80082FF06C08091BB
:1017D000E8008B778093E80004C08091D9048111E0
:1017E000F2CF08958091D9048823D9F38091E8003D
:1017F00080FFF8CF8091E8008E77ECCF2091E40055
:101800003091E50095E6A9012091EC00822F8170CE
:1018100020FF06C08091E80080FF06C080E00895A8
:101820002091E80022FD1AC08091D904882389F014
:10183000853089F08091EB0085FD0FC02091E40098
:101840003091E50042175307F9F29150E1F684E038
:10185000089582E0089583E0089581E00895E8ED19
:10186000F0E080818E7F80831092E2001092DA0097
:101870001092E100A0EEB0E08C9181608C938081A9
:101880008F77808319BCA7EDB0E08C918E7F8C930D
:1018900080818F7E80831092B102089590911E0501
:1018A000937059F080931F056093200540932105A4
:1018B00080911D05816080931D050895EEE1F5E09E
:1018C000818190E04381628108960C944E0CEEE198
:1018D000F5E08181438162818850990B0C944E0C14
:1018E000EEE1F5E0628120E1620F08F46FEF8181A3
:1018F000438190E00C944E0CEEE1F5E0628120E132
:10190000621B08F460E08181438190E00C944E0CEE
:10191000EEE1F5E0438120E1420F08F44FEF8181D1
:10192000628190E00C944E0CEEE1F5E0438120E101
:10193000421B08F440E08181628190E00C944E0CDF
:10194000EF92FF920F931F93CF937C018B010E9424
:10195000FE0BC82F811117C08091E80085FD0BC0D8
:101960008091E8008E778093E8000E94FE0B882328
:1019700099F3C82F08C0F70181917F018093F1008E
:101980000150110949F78C2FCF911F910F91FF90B2
:10199000EF900895AF92BF92CF92DF92EF92FF92B5
:1019A0000F931F93CF93DF935C01C0910001CC0F85
:1019B000CC0F14E01C0FC12E143410F033E4C32EEE
:1019C0006091220566958091990490919A040E94F5
:1019D0007608D82ED0E0CE01880F991F9C0122589E
:1019E0003E4F7901CC1578F081E0133408F080E0A7
:1019F000DF91CF911F910F91FF90EF90DF90CF90EB
:101A0000BF90AF900895FE01EC5FFD4F80819091F3
:101A100001018923C1F0F70121812052330B40815C
:101A20004057550B60911F0570912005809121054D
:101A30000D2DF50109950E94E507462F672F282FE8
:101A4000CE010E94CE0AF2E0EF0EF11C2196CACF21
:101A50005F926F927F928F929F92AF92BF92CF923E
:101A6000DF92EF92FF920F931F93CF93DF934C017E
:101A7000C0910001CC0FCC0F14E01C0F512E143478
:101A800010F033E4532E60912205669580919904FD
:101A900090919A040E947608F82ED0E0CE01880F2B
:101AA000991F9C0122583E4F6901C515A0F081E0A5
:101AB000133408F080E0DF91CF911F910F91FF90D8
:101AC000EF90DF90CF90BF90AF909F908F907F90DE
:101AD0006F905F900895FE01EC5FFD4F80819091C3
:101AE0000101892379F1F6018081282F2057330BDA
:101AF00059018181E82FE052FF0B3F01AA9C900120
:101B0000AB9C300D300D1124EE9FC001EF9F900D66
:101B1000900D1124820F931F0E948008082F60915E
:101B20001F057091200580912105EF2C9301A501DF
:101B3000F40109950E94E507462F672F282FCE0153
:101B40000E94CE0AF2E0CF0ED11C2196AECFBF92FA
:101B5000CF92DF92EF92FF920F931F93CF93DF9379
:101B600000D000D00F92CDB7DEB76C01809100019C
:101B7000880F880F8B8394E0F92EF80EBF2C93E426
:101B80009F1510F483E4B82E609122056695669542
:101B90008091990490919A040E947608182F80E40D
:101BA000810F0E94C50880588983812F0E94C50833
:101BB00080588A83FB81EF2FF0E0FD83EC839C81CA
:101BC0009B15A0F081E0E2E4EF1508F480E00F90AF
:101BD0000F900F900F900F90DF91CF911F910F9169
:101BE000FF90EF90DF90CF90BF900895EC81FD8142
:101BF000EC5FFD4F8081909101018923A9F06091F4
:101C00001F057091200580912105E12E0C812A810C
:101C10004981F60109950E94E507462F672F282F75
:101C20008C819D810E94CE0A8C819D8101969D832D
:101C30008C83C5CFDF92EF92FF920F931F93CF93C8
:101C4000DF937C01C0910001CC0FCC0F14E01C0F7E
:101C5000D12E143410F083E4D82E609122056695BD
:101C6000669521E0620F08F46FEF809199049091DE
:101C70009A040E947608082FD0E0CD1560F081E02C
:101C8000133408F080E0DF91CF911F910F91FF9006
:101C9000EF90DF900895FE01EC5FFD4F8081909101
:101CA0000101892391F060911F05709120058091B9
:101CB0002105202F4C2FF70109950E94E507462F9B
:101CC000672F282FCE010E94CE0A2196D6CF5F9291
:101CD0006F927F928F929F92AF92BF92CF92DF923C
:101CE000EF92FF920F931F93CF93DF93C82F8091B2
:101CF00012018C1323C090911E0593702091110145
:101D000030E081E09217130609F480E0817080933F
:101D100002018091230590910101981739F0809379
:101D2000010140E060E080E00E94D00AC83190F4F8
:101D3000EC2FF0E0E95FF24D0C94702C81E0E6CFDF
:101D400080910201882309F464C040E060E080E0F3
:101D50000E94D00A80E05DC000910001000F000FDA
:101D6000D4E0D00FCD2ED43410F0B3E4CB2E60915C
:101D70001F0570912005809121050E94E507F62E30
:101D8000E72ED82E10E00C1528F081E0D33408F4AB
:101D900040C0E0CFF801EC5FFD4F808190910101E0
:101DA000892331F02D2D4F2D6E2DC8010E94CE0AB2
:101DB0000F5F1F4FE8CF00910001000F000FA4E05C
:101DC000FA2EF00E9F2C33E43F1510F4F3E49F2E0F
:101DD000D0911F05B0902005109121056D2F7B2D0E
:101DE000812F0E94E507E62ED72EC82E809122056E
:101DF0006D2F680F7B2D812F0E94E507D62FB72E00
:101E0000A82E10E0091540F181E092E49F1508F436
:101E1000A1CF909100019F5F9093000181110CC0B0
:101E200082E08093140180910201811105C0C111EB
:101E300003C083E080931401DF91CF911F910F9134
:101E4000FF90EF90DF90CF90BF90AF909F908F90DA
:101E50007F906F905F900895F801EC5FFD4F908147
:101E600080910101892359F02A2D4D2F6B2D90FD72
:101E700003C02C2D4E2D6D2DC8010E94CE0A0F5F80
:101E80001F4FC0CF00910001000F000FD4E0D00F12
:101E9000ED2ED43410F0E3E4EE2ED0902005C09067
:101EA00021052091220570E4F72E3F2D329F312D20
:101EB0001124F32E10E00E1508F067CFF801EC5F47
:101EC000FD4F8081909101018923D9F0F801EE0F37
:101ED000FF1FE258FE4F8081F89EC001112465E08B
:101EE000959587956A95E1F760911F05680F7D2D9F
:101EF0008C2D0E94E507462F672F282FC8010E94CE
:101F0000CE0A0F5F1F4FD7CF00910001000F000FC7
:101F1000D4E0D00FCD2ED43410F043E4C42EF09092
:101F20001F0510912005E09021056091220566951E
:101F3000669566958091990490919A040E9476081E
:101F40000E94C508805887FD8195880F282F3E2D57
:101F5000239F212D11246F2D712F822F0E94E507C1
:101F6000F62EE72ED82E10E00C1508F00ECFF80153
:101F7000EC5FFD4F808190910101892331F02D2D7F
:101F80004F2D6E2DC8010E94CE0A0F5F1F4FECCF60
:101F900083E199E00E941A0E3CCF80E499E00E9410
:101FA000CA0C37CF8FE599E00E94280D32CF8AE71F
:101FB00099E0F0CF8CE799E0EDCF85E899E0EACFA2
:101FC0008EE899E0E7CF87EA99E0EECF86EB99E0DB
:101FD000E6CF8FED99E0E3CF80EF99E0E5CF84E0A5
:101FE0009AE00E94A70D15CF82E39AE0FACF81E62E
:101FF0009AE0F7CF00910001000F000FD4E0D00F5E
:10200000CD2ED43410F033E4C32EE0902005F090B0
:10201000210510911F0560912205669566956695CC
:102020008091990490919A040E9476080E94C508B4
:10203000805887FD8195880F682F3CE0639F612D54
:102040001124610F7E2D8F2D0E94E507F62EE72EBD
:10205000D82E10E00C1508F098CEF801EC5FFD4F7B
:10206000808190910101892331F02D2D4F2D6E2D0E
:10207000C8010E94CE0A0F5F1F4FECCF8AE99AE099
:1020800089CF8DEB9AE086CF40914604509147046A
:1020900060914804709149048091990490919A0448
:1020A000A0919B04B0919C0484179507A607B707DD
:1020B00008F450CE0E94B008D82F0E94B00893E4D4
:1020C000891BF0F7890F082F10E0F801EC5FFD4F36
:1020D000808190910101892309F40BC120E040E047
:1020E00060E0D1FD13C00E94B008D82F0E94B00854
:1020F000782F76952FE7720F08F47FEF6D2F809180
:1021000021050E94E507462F672F282FC8010E944E
:10211000CE0A2091220530E1230F08F42FEF60E171
:10212000822F90E00E947608BC0184EF91E00E942B
:10213000482C8091990490919A04A0919B04B091AD
:102140009C04860F971FA11DB11D80934604909398
:102150004704A0934804B0934904FCCD40919504F2
:10216000509196046091970470919804809199041D
:1021700090919A04A0919B04B0919C0484179507B8
:10218000A607B70708F4E6CD60911F0570912005FA
:10219000809121050E94E507D62F772E682E0AE44C
:1021A00014E093E3E92E91E0F92E2EE0A22EB12C5B
:1021B00047016801512CF60121916F01F4018191D1
:1021C0004F0190E0222309F484C0262D4D2F672D66
:1021D0000E94CE0AF6018081319780835394F6E005
:1021E0005F12E9CF65018EE0582EC601865B9B4FDA
:1021F0004C01F601ED5CFE4F808190E0F4012081FE
:10220000222309F46AC0262D4D2F672D0E94CE0A85
:10221000F40131978081F40180835A94F1E0CF1A60
:10222000D10837E05312E1CFF701878190E0F80140
:102230002781222309F455C0262D4D2F672D0E949A
:10224000CE0AF701868190E0F8012681222309F465
:102250004CC0262D4D2F672D0E94CE0A0E94B0083B
:10226000837091E009F090E0F80196839783015F15
:102270001F4FFFE0EF0EF11C3FE0A30EB11C89E5FC
:10228000A816B10409F094CF2091220530E1230F64
:1022900008F42FEF60E1822F90E00E947608BC01E5
:1022A00088EB9BE00E94482C8091990490919A04BD
:1022B000A0919B04B0919C04860F971FA11DB11D96
:1022C0008093950490939604A0939704B0939804F8
:1022D00041CD20E040E060E07BCF20E040E060E0E6
:1022E00095CF20E040E060E0AACF20E040E060E051
:1022F000B3CF81E08ECD90911E059370A1F088231D
:1023000099F0883198F48F73880F880F90911E058B
:102310009370892B80931E051092140180911D05E6
:10232000816080931D05089581E0EECF87E1ECCFB9
:1023300080911E05869586958F5F883108F081E033
:102340000C947B1190911E05969596958FEF890FB1
:10235000913009F487E10C947B11982F9093E90058
:10236000242F762F50E0891731F07091EC002091E6
:10237000ED005091F00021FD06C09F5F973071F78E
:102380008093E90008953091EB003E7F3093EB009D
:102390003091ED003D7F3093ED003091EB003160E6
:1023A0003093EB007093EC002093ED005093F0001D
:1023B0002091EE0027FDE1CF0895CF92DF92EF92BA
:1023C000FF920F931F93CF93DF93C8EDD0E08881E6
:1023D0008F7E8883E7EDF0E080818160808384E0F8
:1023E00082BF81E08093B10288818E7F888302EE74
:1023F00010E0F80110821092DA0081EEC82ED12C84
:10240000F601108288818F7788838881806888832D
:1024100088818F7D888319BC1092D9041092B002F4
:1024200010929F041092AF0290EEE92EF12CF7016A
:1024300080818B7F808388818160888342E060E037
:1024400080E00E94AD11F60180818E7F8083F801CB
:10245000808181608083808188608083F7018081B2
:102460008E7F8083888180618883DF91CF911F91E7
:102470000F91FF90EF90DF90CF90089581E08093CF
:10248000E00080E28093D8001092C9008FE19EE4C2
:102490000197F1F700C0000087E090EBDC0180932A
:1024A000640590936505A0936605B093670588E180
:1024B0009CE00FB6F894A895809360000FBE9093AF
:1024C0006000FFCFCF93DF93D82FC92F80911301E6
:1024D0008823C1F18091290587FF34C060E284E040
:1024E0008093E9008FEF9091E800815095FD06C040
:1024F00095ED9A95F1F700008111F5CF8091E800F4
:1025000085FF1DC08091130170E050E040E0811113
:1025100004C050E040E068E070E08D2F9C2F0E94E6
:10252000A00C8091E8008E778093E80080E2ED2F88
:10253000FC2FADEBB2E001900D928A95E1F7DF91AF
:10254000CF91089568E081E0CBCF24E02093E900AB
:102550002FEF3091E800215035FD06C035ED3A955A
:10256000F1F700002111F5CF2091E80025FF0BC005
:1025700050E040E066E070E00E94A00C8091E8002E
:102580008E778093E80008958093BA027093BC021E
:102590006093BB028091D9048430F9F48093E90000
:1025A0008FEF9091E800815095FD06C095ED9A95CA
:1025B000F1F700008111F5CF8091E80085FF0DC093
:1025C00050E040E063E070E08AEB92E00E94A00CF3
:1025D0008091E8008E778093E8000895BC0183E045
:1025E0000C94C412BC0184E00C94C4124F925F920C
:1025F0006F927F928F929F92AF92BF92CF92DF9213
:10260000EF92FF920F931F93CF93DF9310E000E0C0
:1026100036E9632E712CE801CC0FDD1F58011CC078
:10262000F60185909490692DC7010E94D12C682DE8
:10263000C70101960E94D12C22E0C20ED11C32E0CB
:10264000E30EF11C4E145F0459F76E968FE0A80E4E
:10265000B11CC615D70581F0C501880F991F9C01D3
:1026600027593D4F69017E0137E2E30EF11C2E012F
:1026700085E4480E511CD4CF3E0126E9620E711C40
:10268000055B1F4F0C3231E0130729F6DF91CF9124
:102690001F910F91FF90EF90DF90CF90BF90AF9080
:1026A0009F908F907F906F905F904F900895CF9301
:1026B000C82F6FEF811162E283E290E00E94D12C7B
:1026C0006FEFC11163E084E290E00E94D12C6FEFC4
:1026D000C11169E085E290E0CF910C94D12CCF93A9
:1026E000DF93CFE7D2E060E0CE010E94D12C2196AB
:1026F000C11584E0D807B9F7DF91CF91089580E044
:102700000E94571360E086E290E00E94D12C0E9464
:10271000F6120E946F1381E00C945713CF9384E05C
:1027200090E00E94B32CC82F82E290E00E94B32C6C
:10273000982F8C2FCF91089583E290E00E94B32CC4
:10274000823289F484E290E00E94B32C833059F401
:1027500085E290E00E94B32C91E0893009F090E08E
:10276000892F8170089580E0FCCF0F931F93CF9342
:10277000DF93C42FD0E0CC0FDD1F2EE1629FC00D90
:10278000D11D112436E9839FC00DD11D1124CE0126
:1027900087960E94B32C082F10E0102F0027CE013F
:1027A00088960E94B32C9801282BC901DF91CF9104
:1027B0001F910F910895462F672F843030F47530A4
:1027C00020F44F3010F40C94B51390E080E008959D
:1027D000DF92EF92FF920F931F93CF93DF937C01D1
:1027E0000091270580912605082BC7E0D0E010E076
:1027F000DC2EC8010C2E02C0959587950A94E2F74D
:1028000080FD0CC02197A0F7D12C8D2DDF91CF91A9
:102810001F910F91FF90EF90DF900895B7018C2FDB
:102820000E94DB130E943D05019761F3EECF0F93E9
:102830001F93CF93FC01828100811181882389F04D
:10284000662379F0C8010E94E813C82F682FC801D9
:102850000E940804B8018C2FCF911F910F910C9406
:10286000DB13C8010E943604C82FF4CFCF93DF9347
:10287000D82FC92F0E94E8136D2F7C2F0E94DB13E5
:10288000DF91CF910C943D050E943614282F892F9B
:102890008F70392F32953F70903C80F43A30B0F40D
:1028A000343020F4323090F480E008953630E1F78F
:1028B00081E0283E88F0213FB9F70EC03C3011F08E
:1028C0003F3091F7869586958695089581E0203F63
:1028D00039F018F4283E40F70895243F29F7FCCF3B
:1028E000089569EE7EEF90E080E00E94EF2C60E0BA
:1028F00082E090E00E94D12C60E083E090E00E94B2
:10290000D12C1092260560E084E090E00E94D12C4A
:1029100060E082E290E00E94D12C60E085E090E0EF
:102920000E94D12C60E086E090E00E94D12C6FEFF5
:1029300087E090E00E94D12C40E050E0BA0188E0AE
:1029400090E00E94E32C60E08DE090E00E94D12CAA
:1029500040E050E0BA0188E190E00E94E32C60E0A2
:1029600087E190E00E94D12C40E050E0BA018CE178
:1029700090E00E94E32C70E060E080E290E00E9432
:10298000EF2C40E050E0BA0188E190E00E94E32C97
:1029900080E00E9457130E947F1340E050E0BA018C
:1029A0008FE090E00E94E32C40E050E0BA0183E128
:1029B00090E00C94E32C90E080E00E94BB2C893ED8
:1029C0009E4F11F40C949C1380E00895EEE1F5E025
:1029D00081E280838091150190911601A0911701E9
:1029E00081839283A3838FE784838FEF858346E07F
:1029F00050E06CE170E0CF010E94C12C10921D05E7
:102A000008954F925F926F927F928F929F92AF92B2
:102A1000BF92CF92DF92EF92FF92CF93C0903E048D
:102A2000D0903F04E0904004F09041048FB7F894B8
:102A300040904204509043046090440470904504D8
:102A40008FBF530142018C189D08AE08BF080E9439
:102A5000610B60933E0470933F0480934004909315
:102A60004104A091A004E0EAF4E04A2F50E02FEFE7
:102A7000C20ED21EE11CF11CC418D508E608F708E6
:102A8000A51325C04093A00420919E04C0E021110D
:102A900008C020911E05C22FC37019F0C22FC69521
:102AA000C69520911401223009F451C018F5211166
:102AB00031C0109200016093990470939A0480933E
:102AC0009B0490939C0481E08093140115C0218D98
:102AD000328D2901712C612CC414D504E604F7044D
:102AE00020F441505F5F3296CBCF280D391D328FD5
:102AF000218FF8CF2330B1F1CF91FF90EF90DF908D
:102B0000CF90BF90AF909F908F907F906F905F908D
:102B10004F9008958C2F0E94670ECC2369F30E947A
:102B2000F30A81FFE9CF2FEF4FEF6FEF8EE190E0D7
:102B3000CF91FF90EF90DF90CF90BF90AF909F909C
:102B40008F907F906F905F904F900C94CE0AC093BF
:102B5000120180911E058370809311010E94BA17A3
:102B600083E0B2CF80911D05882351F046E050E00C
:102B70006CE170E08EE195E00E94C12C10921D0581
:102B80004091990450919A0460919B0470919C0427
:102B90002FB7F8948091420490914304A09144048B
:102BA000B09145042FBF841B950BA60BB70B4A971A
:102BB000A105B10508F4A0CF109214019DCFFF929A
:102BC0000F931F93CF93DF9300D000D0CDB7DEB724
:102BD000FC01F62E042F122F8334910570F5EE0FB1
:102BE000FF1FEE0FFF1FBF016F537B4F44E050E00C
:102BF000CE0101960E947D2C89818370282F30E0C0
:102C00004A8150E9859FC00111248A509D4FFC01E3
:102C1000E40FF11DB497F0824B81FC01E40FF11D2C
:102C2000B49700834C81840F911DFC01B4971083ED
:102C3000F901EA5EFB4F81E080830F900F900F90C7
:102C40000F90DF91CF911F910F91FF900895FF9208
:102C50000F931F93CF93DF93182F062FF42ED0E0FE
:102C6000C0E02F2D402F612FCE010E94DF1521964D
:102C7000C334D105B1F7DF91CF911F910F91FF9030
:102C80000895E2EEF2E06083418324E630E042E022
:102C900050E0BF01880F0C941B2CCF93DF93C82FFB
:102CA0004BE06DEF0E94411640E06AE08C2F0E94DD
:102CB00041168FE39CE90197F1F700C0000040E066
:102CC00060E08C2F0E94411640E061E08C2F0E9452
:102CD000411640E066E08C2F0E94411640E06DEF07
:102CE0008C2F0E944116D0E040E06D2F8C2F0E9467
:102CF0004116DF5FD231C1F740E06D2F8C2F0E946B
:102D00004116DF5FD432C1F740E06D2F8C2F0E9457
:102D10004116DF5FD43BC1F74BE06DEF8C2F0E9473
:102D2000411641E06AE08C2F0E94411640E06DEFB1
:102D30008C2FDF91CF910C944116EF92FF920F935D
:102D40001F93CF93DF93E82E062F10E0085E1B4FF2
:102D5000F8018081882381F0F2E16F9FE001112466
:102D6000C65EDB4FF12C49916F2D8E2D0E944116CE
:102D7000F39482E1F812F7CFF8011082DF91CF913E
:102D80001F910F91FF90EF9008954F925F926F9275
:102D90007F928F929F92AF92BF92CF92DF92EF92EB
:102DA000FF920F931F93CF93DF9300D000D0CDB746
:102DB000DEB70E946D2B84E70E944D1687E70E94C4
:102DC0004D1601EC14E07DEC472E75E0572EE2E144
:102DD0007E2EF8E0CF2ED12CEE24E394F12C662445
:102DE000639444E050E0B801CE0101960E947D2C2E
:102DF0006A8170E0CB0184972B81422F4452550B9E
:102E00004A01EC81E452FF0B2981237030E0AC01D0
:102E100097FF02C0495F5F4F63E0559547956A95FC
:102E2000E1F7729E5001739EB00C1124B501665EED
:102E30007B4F5B01A40EB11CB6010E945C2CA70164
:102E400001C0440F8A95EAF7D5018C91842B8C93AD
:102E5000C40197FC079653E0959587955A95E1F73D
:102E6000729E5001739EB00C1124A501465E5B4F0B
:102E70005A01A80EB11CC401B6010E945C2CA70126
:102E800001C0440F8A95EAF7D5018C91842B8C936D
:102E9000CF01F7FD079643E0959587954A95E1F7B1
:102EA000729E5001739EB00C1124A501465E5B4FCB
:102EB0005A01A80EB11CCF01B6010E945C2CA701DB
:102EC00001C0440F8A95EAF7D5018C91842B8C932D
:102ED000285E3B4FF90160820C5F1F4F4016510680
:102EE00009F07FCF60E084E70E949D1661E087E7EC
:102EF0000F900F900F900F90DF91CF911F910F9136
:102F0000FF90EF90DF90CF90BF90AF909F908F9009
:102F10007F906F905F904F900C949D16EF92FF9270
:102F20001F93CF93DF937B01182F110FD0E0C0E0E8
:102F30008C2F8C5D8093E202D701AC0FBD1FE3EEB6
:102F4000F2E08D91819382E0E33FF807D1F724E628
:102F500030E041E150E062EE72E0812F0E941B2CD4
:102F60006096C039D10521F7DF91CF911F91FF9075
:102F7000EF90089580911604882329F066EF72E09F
:102F800084E70E948E1710921604809117048823FC
:102F900029F066E873E087E70E948E171092170405
:102FA00008951F921FB61F9211248F939F93AF9382
:102FB000BF9380919D04811113C080914204909130
:102FC0004304A0914404B09145044196A11DB11D54
:102FD0008093420490934304A0934404B093450427
:102FE000BF91AF919F918F911F901FBE1F90189519
:102FF0002FB7F8948091420490914304A091440427
:10300000B09145042FBF08950E94F817209117052D
:1030100030911805232B21F08093CB049093CC049E
:103020002091190530911A05232B21F08093C904B2
:103030009093CA04E091F104F091F204309749F0C2
:1030400082E0809315050480F581E02D85E195E00F
:1030500009940895CF93C82F882309F46BC08CEF8F
:103060008C0F813AA8F580911301882301F180919A
:10307000290587FF1CC0EC2FE695E695E695F0E064
:10308000E457FD4F828190E04C2F477021E030E003
:1030900002C0220F331F4A95E2F782239323892B24
:1030A00079F08C2F0E9469040E94A40409C0EEE804
:1030B000F2E08191C817A9F322E0E439F207C9F7D9
:1030C0006C2F8CE892E00E942B0BCF910C94A404FF
:1030D00080E28C0F883068F4C77021E030E001C0D6
:1030E000220FCA95EAF780912405822B809324054C
:1030F000ECCF8BE58C0F833038F42C2F2452330B1C
:10310000C901CF910C94FF0AE8E5EC0FE73150F4C8
:10311000F0E0EE0FFF1FE55AFD4F80819181CF91C6
:103120000C94150BC03F30F08C2F0E942307CF91D9
:103130000C940418CF910895882361F19CEF980FA7
:10314000913A20F40E9469040C94A40490E2980F30
:10315000983050F4877091E001C0990F8A95EAF792
:10316000892F0E949604F0CF9BE5980F933020F4AE
:1031700090E080E00C94FF0A98E5980F973120F4D6
:1031800090E080E00C94150B803F20F00E946C07CB
:103190000C94041808950F931F93CF93C82F10E039
:1031A00000E0893311F400E510E08C2F0E942A180A
:1031B0000115110531F48C2FCF911F910F910C94B3
:1031C0009C188FE99FE00197F1F700C000000150C3
:1031D0001109EECF90E080E00E94FF0A90E080E0CD
:1031E0000E94150B10922B05109211050E94A40449
:1031F00086E0E5E1F5E0DF011D928A95E9F710929E
:10320000140510921305109212050C9404181092D4
:10321000240580911301EEE8F2E0882359F08091B3
:10322000290587FF07C08EE1DF011D928A95E9F726
:103230000C94EA1886E0F8CF1F93CF93DF93CDB7B5
:10324000DEB7AA970FB6F894DEBF0FBECDBF82EBF4
:1032500092E0FC0101962091F100208322E08A3B5C
:103260009207B9F78091B302893009F456C0C8F4C7
:10327000823009F4B3C0833009F482C0813071F127
:103280008091E80083FF84C28091B2029091B302E2
:103290009A3008F07DC2E92FF0E0E15EF24D0C9427
:1032A000702C8A3009F489C08B3051F78091B202BA
:1032B000813231F78091B6029091B702892B01F7E4
:1032C0008091E800877F8093E8000E94DF0B809167
:1032D000B402809313010E940719D2CF8091B202E9
:1032E000813A71F68091E800877F8093E8008091B1
:1032F000B6029091B702892B61F460E28DEB92E007
:1033000070E00E94850B8091E8008B778093E80045
:10331000B7CF60E090E080E0F3CF8091B2028132DD
:1033200009F0AECF8091B6029091B7028D7F892BC4
:1033300009F0A6CF8091E800877F8093E800809114
:10334000E80082FF18C09091F3008091F20002978C
:1033500031F48091F100813011F0863021F48091B8
:10336000F1008093DD028091E8008B778093E80084
:103370000E94DF0B85CF8091D9048111E0CF80CFEF
:103380008091B202813A09F07BCF8091B602909190
:10339000B702892B09F074CF8091E800877F809372
:1033A000E8008091E80080FFFCCF809113018093BA
:1033B000F1008091E8008E77D9CF8091B2028132FE
:1033C00009F05ECF8091E800877F8093E8000E943B
:1033D000DF0B8091B5028093AE0252CF8091B20292
:1033E000813A09F04DCF8091E800877F8093E80013
:1033F0008091E80080FFFCCF8091AE02D8CF80386A
:1034000099F0823809F0C4C18091B6028F7087307C
:1034100008F0BEC18093E9008091EB0085FB88270E
:1034200080F91092E90006C08091AF0290919F044C
:10343000911182609091E800977F9093E8008093CB
:10344000F1001092F1008091E8008E779DC18823F1
:1034500009F48BC1823009F09BC18091B4028111C3
:103460008EC18091B6028F702FEF280F263008F0A2
:103470008FC18093E9002091EB0020FF80C1933041
:1034800031F48091EB0080628093EB0078C19091E1
:10349000EB0090619093EB0021E030E001C0220F3F
:1034A0008A95EAF72093EA001092EA008091EB00F7
:1034B0008860EACF81116CC11091B4021F778091AE
:1034C000E3008078812B8093E3008091E800877F80
:1034D0008093E8000E94DF0B8091E80080FFFCCF22
:1034E0008091E30080688093E30082E0111183E023
:1034F0008093D9044DC18058823008F049C1409171
:10350000B4025091B5024C3D83E0580799F583E031
:103510008A838AE289834FB7F894DE01139620E00C
:103520003EE051E2E32FF0E050935700849120FFFA
:1035300003C082958F703F5F8F708A30C8F0895CBE
:1035400090E08D939D932F5F243161F74FBF809161
:10355000E800877F8093E8006AE270E0CE01019680
:103560000E94850B8091E8008B778093E80010C162
:10357000805DE6CF8091B6029091B702252F332768
:103580002330310509F44AC078F52130310509F4BA
:1035900079C08BE590E0E4ECF1E02230310509F0F0
:1035A000F7C02091E800277F2093E8002091B8021F
:1035B0003091B9028217930708F49C0140E021156D
:1035C000310509F064C0411162C08091E80082FDBC
:1035D000C9CF8091D904882329F2853019F28091CE
:1035E000E80083FFF2CFBECF2132310509F43BC0A2
:1035F0002232310509F0CCC08330910508F0C8C0F3
:10360000FC01EE0FFF1FE15EFE4F0190F081E02D07
:10361000845E9E4FDC018C9190E011C0CA01992715
:10362000413089F082309105B1F0892B09F0B0C0AA
:10363000E5E6F2E0E4918E2F90E0E5E6F2E0009717
:1036400009F4A6C0AECFE3E5F2E0E4918E2F90E05E
:10365000E3E5F2E0F4CFE1E3F2E0E4918E2F90E0D5
:10366000E1E3F2E0ECCF8330910508F091C0880FE0
:10367000991FFC01EB5DFE4F0190F081E02D89E088
:1036800090E08FCF82E190E0EFE1F2E08ACF80918D
:10369000D904882309F466CF853009F463CF80917B
:1036A000E80083FD5FCF8091E80082FD8ECF80919E
:1036B000E80080FF84CF9091F3008091F200211503
:1036C000310519F08830910550F041E0089709F074
:1036D00040E08091E8008E778093E80070CF4491BD
:1036E0004093F1003196215031090196E8CF80389E
:1036F00009F04EC08091E800877F8093E8008091B8
:10370000B0028093F1009FCE811142C01091B402AB
:103710001230F0F58091E800877F8093E8001093E5
:10372000B0020E94DF0B112311F084E005C08091EC
:10373000E30087FDFACF81E08093D90442E061EC99
:1037400081E00E94AD1142E261EC84E00E94AD1183
:1037500042E261EC82E00E94AD1142E260EC83E063
:103760000E94AD118091D90413C08091B4028130C0
:1037700079F481E0933009F080E080939F04109207
:10378000E9008091E800877F8093E8000E94DF0BCA
:103790008091E80083FF0AC08091E800877F8093D2
:1037A000E8008091EB0080628093EB00AA960FB650
:1037B000F894DEBF0FBECDBFDF91CF911F9108956A
:1037C000809326050C94EA18809327050C94EA1838
:1037D00021E030E001C0220F8A95EAF780912705A9
:1037E000822B0C94E41B21E030E001C0220F8A956B
:1037F000EAF720958091270582230C94E41B909191
:1038000028058095892380932805282F277091F417
:10381000282F082E000C330B9217130659F09091A5
:103820002A0592FD07C08595859585950E94F31B15
:10383000109228050895CF93C0912A05C2FB9927BD
:1038400090F9981799F080FBC2F9C0932A0560910E
:10385000290584E090E00E94D12C6C2F82E290E058
:103860000E94D12C82E0CF910C94FF1BCF91089540
:1038700080912705982F9670963019F488600C94E3
:10388000E41B877FFCCF9C014FB7F89480914204E2
:1038900090914304A0914404B09145044FBF821B12
:1038A000930B08954F925F926F927F928F929F92A7
:1038B000AF92BF92CF92DF92EF92FF920F931F933E
:1038C000CF93DF93CDB7DEB72A970FB6F894DEBF5C
:1038D0000FBECDBFFE0131968AE0DF011D928A95B1
:1038E000E9F797E4E92E92E0F92E8F012CE4622E9D
:1038F00022E0722E2F01AA24A394B12C4BE5842E32
:1039000042E0942EF70181917F018F3F09F445C079
:10391000F894E82FE295EF70F0E021A18F70A501F7
:1039200002C0440F551F8A95E2F7CA01922F982BC7
:1039300091A392A18095892382A3789400C0ECE49E
:10394000F2E021E030E0D12CC12C41914F3F09F44D
:103950005DC0A42FA295AF70A05EB0E08C9190E006
:103960004F7002C0959587954A95E2F780FD4EC04D
:10397000C901C82AD92A220F331F8E169F0629F79C
:10398000F701319780818F3F11F00E94C80650EAFD
:103990005A95F1F7D801CD92DC920E5F1F4F6E144D
:1039A0007F0409F0AFCF4AE050E0B20187EE94E027
:1039B0000E94862C9C0111E0892B09F410E0232B36
:1039C00041F18AE0F201A7EEB4E001900D928A95F0
:1039D000E1F781E08093DC040E94F8179093DB0408
:1039E0008093DA048091DA049091DB040E94431CF6
:1039F000039798F08AE0E7EEF4E0ADEDB4E00190D3
:103A00000D928A95E1F71092DC0407C080E090E007
:103A1000B0CF8091DC048111E5CF812F2A960FB6BB
:103A2000F894DEBF0FBECDBFDF91CF911F910F91F4
:103A3000FF90EF90DF90CF90BF90AF909F908F90CE
:103A40007F906F905F904F900895FF920F931F9318
:103A5000CF93DF93C62FD42F122F8823A9F0609322
:103A60001B050E94F8179093AD028093AC02C770BB
:103A700081E001C0880FCA95EAF7DF91CF911F91CD
:103A80000F91FF900C94E90480911B05681334C0DA
:103A90008091AC029091AD020E94431C883C91053C
:103AA00058F500E20D0FCD17A9F0C770FF24F3946D
:103AB0008F2D01C0880FCA95EAF70E94F3040830E1
:103AC00048F48D2F877001C0FF0C8A95EAF78F2D7F
:103AD0000E94E904812F0E94CB180830A0F4D7700F
:103AE00081E001C0880FDA95EAF7DF91CF911F914D
:103AF0000F91FF900C94F304C77081E001C0880F10
:103B0000CA95EAF7F2CFDF91CF911F910F91FF9005
:103B100008953F924F925F926F927F928F929F9201
:103B2000AF92BF92CF92DF92EF92FF920F931F93CB
:103B3000CF93DF9300D000D0CDB7DEB77C01FC017E
:103B40009081818123813481232B21F089238F3F30
:103B500009F05CC50F900F900F900F90DF91CF91FF
:103B60001F910F91FF90EF90DF90CF90BF90AF909B
:103B70009F908F907F906F905F904F903F900895AF
:103B8000980122513F452031310508F0E5C48FEFFF
:103B900093E00E94B32C02514FE7842E42E0942E12
:103BA000882389F1809128058770A1F2F70182812D
:103BB000882381F280912A0582FDCCCF82E00F908C
:103BC0000F900F900F90DF91CF911F910F91FF9069
:103BD000EF90DF90CF90BF90AF909F908F907F90AD
:103BE0006F905F904F903F900C94FF1B8114F4E016
:103BF0009F06C1F2C4010E94B32C811101C0015083
:103C00002FEF821A920A0111F1CF80911801909141
:103C10001901A0911A01B0911B0189839A83AB838A
:103C2000BC83442443943AE0332E84010F5F1F4F3A
:103C3000C4010E94B32C89831A82882309F4B2CF6D
:103C40009FEF980F9330F8F48A83498232E0830E15
:103C5000911CC8010E94B32C8B83882309F4A2CF46
:103C60008E010F5F1F4FF80120812223F1F2918115
:103C7000213009F044C08281913039F40E5F1F4F2A
:103C80000E94CB1808C04801EBCF923039F40E5F88
:103C90001F4F0E942A180F5F1F4FE5CF933029F462
:103CA0000E5F1F4F0E949C18F6CF943019F00F5FE3
:103CB0001F4FF1CF0E5F1F4F20E030E0B8016F5F64
:103CC0007F4FF80141818053990B8A30910560F054
:103CD0002115310501F38FE99FE00197F1F700C04D
:103CE000000021503109F4CF329EF001339EF00DD7
:103CF00011249C012E0F3F1F842F8B01DFCFE22F59
:103D0000F0E0E350F94F5490822F86958695869582
:103D100090E0FC01E351F94FE4912770F0E0022EAE
:103D200002C0F595E7950A94E2F73F0131E063227E
:103D30007724FC01E352F94FA490B12C022E02C06B
:103D4000B594A7940A94E2F7E1E0AE22BB24FC010B
:103D5000E353F94FC490D12C02C0D594C7942A954F
:103D6000E2F7F1E0CF22DD246114710419F081EE55
:103D70000E942A18A114B10419F086EE0E942A1894
:103D8000852D0E94CB18AB2819F086EE0E949C1856
:103D9000672819F081EE0E949C18CD2809F47BCF8A
:103DA0008CE26ECF81E00E94E81B0E94381CFACEA4
:103DB00081E00E94F31BF9CF82E0F5CF053F2CE5AF
:103DC0001207D1F027E245EE66EE063F3CE5130709
:103DD00041F027E245EE64EE043F9CE5190709F047
:103DE000E0C30E94251DDECE27E245EE65EEF9CF49
:103DF00026E241EE60EEF5CF26E241EE62EEF1CF33
:103E000001362DE5120709F4E1C380912405827281
:103E1000063D2CE5120708F0D0C0023C3CE5130734
:103E200008F4D6C0F801E35CFC45E331F10508F085
:103E30001EC1E75DF24D0C94702CF801E350FC4577
:103E4000809129058160E331F10528F5E45CF24DAC
:103E50000C94702C03309DE5190778F40A3FECE5CB
:103E60001E0708F4C3C3F801EB5FFC45E830F10519
:103E7000E8F4E15BF24D0C94702C01361D4509F01D
:103E8000B5C390912905892F8F7E94FF806103C06F
:103E900080912905826080932905A8C38091290516
:103EA0008460F9CF809129058860F5CF80912A053B
:103EB000816080932A059AC380912A058260F9CF98
:103EC000809129058061E7CF809129058062E3CF49
:103ED000809129058064DFCF0E9407198091290510
:103EE0008068D9CF809129058C60D5CF80912A0533
:103EF0008360DFCF809129058E7FCDCF809129050A
:103F00008D7FC9CF809129058B7FC5CF80912905F1
:103F1000877FC1CF80912A058E7FCBCF80912A05E4
:103F20008D7FC7CF809129058F7EB5CF80912905E0
:103F30008F7DB1CF809129058F7BADCF0E9407196E
:103F4000809129058F77A7CF80912905837FA3CF03
:103F500080912A058C7FADCF8091290582FB99271E
:103F600090F921E0922790FB82F990FB83F993CF9F
:103F700080912A05982F909591708E7F892B90FBC8
:103F800081F997CF0E94071990912905892F97FBF6
:103F900087F9805880CF61E08EE090E00E94D12CBC
:103FA00025C360E0F9CF80911C05811104C089E22E
:103FB0000E94690457C385E3FBCF0D35100709F450
:103FC000F1CD0A359DE5190709F4BFC008F09BC083
:103FD0000115FCE51F0709F4A8C00E3D1C4509F4B6
:103FE000B1C0F7018281C080D180882309F4B1C0BB
:103FF000C6010E94E813182F682FC6010E9408040A
:10400000B601812F0E94DB130E943D058C01F70150
:104010009280858082942FE082228091280587708B
:10402000C1F0C92C9920B1F0812F807F803421F01C
:1040300080E2800F883068F080912A0582FD09C0F7
:1040400082E00E94FF1B809128058770CC24C394D6
:104050008111C12C812F82958F70A82EB12C8C30AC
:1040600008F0E4C0F501E95AF24D0C94702C8091EF
:104070001E0591E0892780931E05109214018091FE
:104080001D05816080931D058DCD42EA51E168E9EF
:1040900071E10E94EE0A86CD48E951E162EA71E1E0
:1040A000F8CF47E65CE06EE57CE0F3CF4EE55CE000
:1040B00067E67CE0EECF4CE75CE060E77CE0E9CFD0
:1040C00040E75CE06CE77CE0E4CF44E95CE068E872
:1040D0007CE0DFCF48E85CE064E97CE0DACF40EEEA
:1040E0005AE062ED7AE0D5CF42ED5AE060EE7AE038
:1040F000D0CF81E00E947B1155CD84E0FBCF89E0D9
:10410000F9CF8EE0F7CF0B353DE5130701F10C3504
:104110001D4509F066CF80912A0582FB882780F92A
:1041200091E089270E941B1C5CCF0E9407199FEF1A
:10413000E4E3FCE09150E040F040E1F700C0000013
:104140000E943E120E9471142DCD81E0EBCF80E0E1
:10415000E9CFC6010E943604182F52CFF12FFF700D
:10416000DF2E107F19F0D29490EFD9229920B9F068
:10417000DD2069F080E2800F883010F0011109C065
:10418000809124058D29809324050E94A404802F0A
:104190004BC080912B058D2980932B05F6CF802F66
:1041A0000E949C18DD2009F441C080E2800F883015
:1041B00010F0011104C08D2D0E94960406C0D09409
:1041C00080912B058D2180932B050E94A4042EC085
:1041D000212F2F70D22E107F103219F0D29480EF41
:1041E000D822002381F0013009F482C0992009F41B
:1041F0008CC0882009F482C0F701858180FFC7CF79
:104200008F7085837BC020912A0522FF4EC09920A4
:1042100009F445C0DD2039F0809124058D29809373
:1042200024050E94A40480E00E942A1898E0A91A9C
:10423000B108E4E0AE16B10410F40E94F30ACC20F9
:10424000A9F08091280580FD11C0F70112828595A3
:10425000859585950E94E81BC7010E94891D809164
:1042600028058595859585950E94F31B60E0C7011B
:104270000F900F900F900F90DF91CF911F910F91A2
:10428000FF90EF90DF90CF90BF90AF909F908F9076
:104290007F906F905F904F903F900C94171480E048
:1042A0000E949C18DD2011F286CF9920A1F09091F8
:1042B00025058D2D892B811003C00E94E904B6CFFE
:1042C00031E08312FACF22FDB1CF981709F4AECFB7
:1042D00080932505ABCF811006C00E949E048D2DD2
:1042E0000E94F304A3CF81E0881609F49FCFF5CF95
:1042F000992031F095E0981508F498CF8D2DDDCFF9
:10430000E4E0E81508F492CFEACF882041F30933BE
:1043100049F4FFEF27EE33E0F15020403040E1F761
:1043200000C00000802F0E949C1880CF812F8695AE
:104330008695837061F0813009F078CFC801937061
:10434000911002C090E080E00E94150B6FCFC80171
:104350009370911002C090E080E00E94FF0A66CF47
:10436000802F992029F00E9423070E9404185ECF15
:104370000E946C07FACF812F8370A1F5911056CF60
:10438000802F829586958770880F880F402F4F70F9
:10439000082E01C0440F0A94EAF7202F207104FF71
:1043A00007C02FE030E001C0220F8A95EAF7209580
:1043B000169516951370123081F0822F842B1330CE
:1043C00031F080912605113029F0242B82230E94A0
:1043D000E01B2CCF842B822BFACF242B8091260537
:1043E0008227F5CF992061F110FF20CF802F829591
:1043F00086958770880F880F402F4F70082E01C058
:10440000440F0A94EAF7202F207104FF07C02FE021
:1044100030E001C0220F8A95EAF72095169516958F
:104420001370123099F0822F842B133031F0809169
:104430002705113041F0242B82230E94E41BF6CE85
:1044400011FFF4CED3CF842B822BF7CF242B809176
:1044500027058227F2CF1F70992029F0812F0E9413
:10446000E81B802F2ACF802F0E94F304812F0E9407
:10447000F31BDCCE023F81F160F4003FB9F0013F55
:1044800081F0992009F458C0811081CE812F8F715D
:1044900027C0033F41F1043FA1F780912A0582FF25
:1044A0002DC0812F8F71992011F31AC0992079F0B6
:1044B00084E0881508F4BACE1F7181E090E001C055
:1044C000880F1A95EAF7909127058927B6CF95E0CE
:1044D000981508F4ABCEF0CF812F8F719110C7CF14
:1044E0000E94E81BA3CE80E0992009F4A6CF1F719B
:1044F00081E001C0880F1A95EAF79FCF992089F0D3
:104500001F71812F0E94E81B80912A0582FD07C040
:10451000E8E01E9FC0011124836080932805812F4D
:10452000DFCF81E00E94FF1BF1E0F81508F07ECE9E
:1045300082E00E94FF1B7ACE882059F0093309F0EF
:10454000F1CE2FEF37EE83E0215030408040E1F78D
:10455000E7CE812F8F718BCF0031FFE51F0709F464
:1045600021CC01312FE5120709F426CC033F2CE5BD
:10457000120709F43DCC08F021CC083D9CE5190751
:1045800009F432CC28E241E0093DECE51E0709F4CC
:104590002DCC26E241EE61EE073DFCE51F0709F454
:1045A00020CC882309F447C010921B050330EDE5A9
:1045B0001E0708F025CC0A3FFCE51F0738F49801D8
:1045C00022503C452431310508F04FC00E948E1323
:1045D00090932A058093290506313CE5130708F0DE
:1045E00039CC02308CE5180708F027CC60912905FA
:1045F00010912A0584E090E00E94D12C612F82E284
:1046000090E00E94D12C0E940719CCCA61E0C7013A
:104610000E9417148C01F70182818111B1CA003107
:104620003FE5130709F4C4CB01319FE5190709F0F1
:104630009DCF82E0BECB06311C4509F0D2CC9091D3
:104640002405882309F4AFCC892F8A7A91E009F4F4
:1046500090E090931C0569E2811165E38CE892E09B
:104660000E942B0B0E94A4049DCA06312CE5120760
:1046700031F3CBCB1F93CF93DF9380916305807F82
:10468000A9F480916005882389F080912D05C0915F
:104690002C0570915E0560915F05A0916105B09158
:1046A0006205D62FD72316E0C81304C0DF91CF913F
:1046B0001F91089590E0109711F0DF3F19F40196D3
:1046C0008770F2CF189F9001199F300D1124F901C6
:1046D000E25DFA4F41816413F2CF40814713EFCF7F
:1046E00042814111ECCF438154814A1B5B0B483C12
:1046F000510528F7809163058F7080618093630571
:10470000F901ED5CFA4F80818F70806180838EE5C6
:1047100095E00E94891DDF91CF911F910C945F0459
:104720008F929F92AF92BF92DF92EF92FF920F9380
:104730001F93CF93DF93CDB7DEB72B970FB6F894C7
:10474000DEBF0FBECDBF8C0185E0F801DE011796FC
:1047500001900D928A95E1F7F801E280A380B48080
:104760008EE5882E85E0982E90915E0580915F05FC
:1047700020916105309162052115310529F0482FFE
:1047800049234F3F09F028C1EE2009F433C1F80155
:10479000808191810E944414F82E882309F42AC153
:1047A00086E0F801AEE5B5E001900D928A95E1F75B
:1047B0000E943A2321C0D09063054D2D407F283CB4
:1047C000310508F0A8C0F80121814111C3C0FE2CB9
:1047D000281325C08081891322C0E11020C08D2DAF
:1047E0008F708061809363058EE595E00E94891D3E
:1047F00080916305F80185838F2D2B960FB6F89471
:10480000DEBF0FBECDBFDF91CF911F910F91FF9003
:10481000EF90DF90BF90AF909F908F9008953F8171
:10482000AB2829F0822F83238F3F09F090C080E0CE
:10483000F82FF170DF2EE0912D0540912C0556E008
:1048400080FD1CC0EE20C1F28091630581608093E1
:104850006305F12CD1CF8E2F90E05E9FF0011124E3
:10486000E25DFA4F6181261306C06081361303C0F2
:104870006281E612E7CF0196E82FE770E413EBCFF1
:104880008F8198850E943614292F22952F7090329F
:1048900060F0225F2F70223078F49F7051F0F801A1
:1048A0009581907F31F4D12C0AC09F7011F088233C
:1048B000D1F3805E8830B8F3C8010E94891DFD2CB9
:1048C0009BCFF801808191810E944414882309F4D0
:1048D00091C0EE2009F48EC080916305803270F0A3
:1048E00080915E0590915F059A8389831B82BD82CA
:1048F000AC82DE82CE0101960E94891D86E0F8011D
:10490000AEE5B5E001900D928A95E1F70E943A2359
:10491000FF24F39471CF411132C08EE595E00E94DF
:10492000891D86E0F40111928A95E9F792CFF8018A
:10493000808191810E9444148111E0CF80916305B0
:10494000816080936305C8010E94891D55CF81E075
:104950008E256ECF2813B5CFF80180818913B1CF92
:10496000E110AFCFD582C8010E94891D86E0F80111
:10497000AEE5B5E001900D928A95E1F73DCFF801E3
:10498000218182139ECFF801808189139ACFE11093
:1049900098CFD582C8010E94891D86E0F40111924A
:1049A0008A95E9F729CFF80121818213C0CFF80158
:1049B00080818913BCCF8091630580FDD7CF982F6C
:1049C000907FA1F28583903F71F2982F907F905F46
:1049D0008F70892B8583C7CFF0906005A501421B9E
:1049E000530B9A01F110E7CE283C3105B0F6FE2CAE
:1049F000E110D9CFC8010E94891D8ACF1F93CF93A0
:104A0000DF93CDB7DEB767970FB6F894DEBF0FBE62
:104A1000CDBF342F4B8B252F5C8B962F6D8B7E8BD0
:104A20008F8B4E895F89611110922B051A8A3D8701
:104A30002E879F87598B488B86E0FE013D96DE01CD
:104A4000179601900D928A95E1F7CE0107960E9484
:104A50009023882389F016E080912D0590912C05F4
:104A6000891349C067960FB6F894DEBF0FBECDBF5D
:104A7000DF91CF911F91089586E0FE013796DE0108
:104A8000119601900D928A95E1F79F81888520917A
:104A90002C0540912D056A857B85672BE1F28923E2
:104AA0008F3FC9F230E0C9010196877099274817F6
:104AB000190671F40E94071910922C0510922D0509
:104AC00086E0EEE5F5E0DF011D928A95E9F7C3CFB8
:104AD00096E0929FD001939FB00D1124A25DBA4F32
:104AE000FE01319601900D929A95E1F780932C0585
:104AF0000E945F04B0CF819FC0011124825D9A4F54
:104B00000E949023882309F4ADCF80912D0590E079
:104B100001968770992780932D059ECFCDB7DEB77C
:104B2000AA970FB6F894DEBF0FBECDBF84B7877FBC
:104B300084BF0FB6F894A895809160008861809337
:104B40006000109260000FBE80E890E00FB6F8940D
:104B500080936100909361000FBE85B7806885BF28
:104B600085B7806885BF86EC96E090938B02809332
:104B70008A020E942F0C0E94DD118091E200846065
:104B80008093E20078948091D904882399F08091F1
:104B9000E9001091EC001795112717958F70182BCD
:104BA0001092E9008091E80083FD0E941C191F709B
:104BB0001093E90082E084BD93E095BD9AEF97BD24
:104BC00080936E000E949C13811102C00E947F138B
:104BD00007E412E0ECE4EE2EE2E0FE2ED8018D9127
:104BE0008D018F3F11F00E94C806E016F106B1F763
:104BF0000CE412E07BE5E72E72E0F72EF8018191DC
:104C00008F018F3F11F00E94C806E016F106B1F740
:104C10008AE0EDEDF4E0DF01282F1D922A95E9F7F7
:104C2000E7EEF4E0DF011D928A95E9F70E94DB14BC
:104C3000811102C00E94711482E090E00E94B32CA6
:104C40008093CE040E948E1390932A0580932905A9
:104C50000E94521CEFEBFDE53197F1F700C0000018
:104C60000E94521C8091DD0480FF08C06FEF7FEF2F
:104C700090E080E00E94EF2C0E943E1283E090E0E2
:104C80000E94B32C0E94E01B0E94C5161092A00443
:104C900040E150E06FEF70E089EB94E00E949C2CC3
:104CA0000E94DB14811104C00E9471140E94E6145A
:104CB00046E050E06CE170E08EE195E00E94A32CAC
:104CC00010921D0580911E058C7F11F40E94E61440
:104CD00085E091E09093F2048093F10448E1242E62
:104CE000312CBB24B39457EE452E54E0552E68E08A
:104CF000662E712C8091D904853089F420E4F22E3F
:104D000033E0E32E00E112E18091D904853009F40B
:104D1000A0C00E9407190E94F30A10929E040E94EC
:104D2000521C81110E94610B9DEDC92E94E0D92E79
:104D3000EFECF4E0D60110E000E0602FED90FD9084
:104D4000219131912E153F0509F4F9C12E253F25FA
:104D5000A12C88248394912CA90148215921452B09
:104D600009F4E7C1A9826A83E820F92081E0E1140F
:104D7000F10409F480E08B830E94F8178160782F9A
:104D80009D838C8349815A816B81892F0E94FE24E7
:104D9000F801EE0FFF1FE153FB4F808191818825C1
:104DA000992591838083EF2871F08FE0809FF00137
:104DB000819FF00D1124ED5CFE4FEA0DF11D808105
:104DC0008F3F09F094C0A12C0A2D10E08091A0041F
:104DD000800F912F911D09975CF17301E01AF10A80
:104DE000B8016F557B4FA70181EA94E00E94932C94
:104DF000B80167557B4FA70189EA94E00E94932C84
:104E0000A701440F551FB801660F771F67547B4FEA
:104E100089EB94E00E94932CB8016F547B4FA7015B
:104E200081EB94E00E94932C88E08A198093A0047F
:104E30008091A00490E0EAA5AE2FB0E09D01220F82
:104E4000331F22583E4FAA0FBB1FBD0161587E4F32
:104E500067C08091D904843009F437C00E940115DD
:104E600080919E0481110DC00E94670E1092120164
:104E700080911E058370809311010E94BA17E09201
:104E80001401F1E0F0939E0410929D040FB6F89483
:104E9000A895209260000FBEF092600083B7817FDA
:104EA000846083BF83B7816083BF7894889583B71C
:104EB0008E7F83BF0FB6F894A895809160008861BB
:104EC00080936000109260000FBE80919F04882341
:104ED00009F41ACF0E94521CEDEDF4E081919191FA
:104EE000892B09F08CC24E165F06C1F70DCF8AA739
:104EF000AA24A39469CF90E0FC01E056FB4FD901AE
:104F00005C915183DB015C915187BAA5B18B880F0D
:104F1000991FFC01E056FB4F128E118E842F91E0F9
:104F200041E0480F9A1538F38093A0040E940115C0
:104F300086E0E5E1F5E0DE01119601900D928A959B
:104F4000E1F7F0901705E090180510911905009110
:104F50001A05109217051092180510921905109253
:104F60001A058F2D8E2909F448C08091CB049091A9
:104F7000CC040E94431C9C0180911405882309F4F1
:104F800062C223333105C8F18F3F19F08F5F8093E0
:104F90001405FF2059F00E94E1069FEF1F140CF446
:104FA00091E0899F802D112480931705EE2059F000
:104FB0000E94E1069FEF1E140CF491E0899F802D62
:104FC000112480931805309117053323B1F02091F7
:104FD0001805222391F055EB3503C00111249923C4
:104FE00009F4C4C09093170545EB240390011124E4
:104FF000332309F4BEC030931805812F802B09F4A8
:1050000048C08091C9049091CA040E94431C9C012D
:1050100080911305882309F411C225363105C8F1A2
:105020008F3F19F08F5F80931305112359F00E9471
:1050300001079FEF11160CF491E0899F802D112438
:1050400080931905002359F00E9401079FEF101665
:105050000CF491E0899F802D112480931A053091E2
:10506000190520911A053323A1F0222391F055EB65
:105070003503C0011124992309F47EC090931905CA
:1050800045EB240390011124332309F478C03093B5
:105090001A058091170590911805892B9091190593
:1050A000892B90911A05892B11F00E94041886E033
:1050B000FE013196A5E1B5E001900D928A95E1F7E8
:1050C0000E94F30A9091CD04891721F00E94F30AFF
:1050D0008093CD048091D904843009F00BCE83E015
:1050E0008093E9008091E80082FF04CE8091E8007F
:1050F00090E085FF0CC00E94FE0B30E2E32EF12C05
:105100008E010F5F1F4F882309F446C091E0809104
:10511000E8008B778093E800992309F4EBCDE981CF
:10512000E150E33108F0A7C0F0E0ED59F24D0C94E6
:10513000702CA394880C991C4FE0A4120DCE0F5F25
:105140001F4F0530110509F0F8CD8FEF89A38AA311
:105150001BA20E94F8178160782F9DA38CA349A100
:105160005AA16BA1892F0E94FE24E0CEB0921705B0
:105170003BCFB092180541CFB092190581CFB092C4
:105180001A0587CF8091F100D8018D938D01B1E090
:10519000EB1AF10809F4BACF8091E80085FDF2CF4F
:1051A0008091E8008B778093E8000E94FE0B8823B3
:1051B00099F3ACCF1A8289E08B8311C08A81823047
:1051C00009F433C1833089F1813009F054C00E9461
:1051D000610B0E94762C6B837C838D839E838091F0
:1051E000D904843009F086CD8091E9001091EC005B
:1051F0001795112717958F70182B82E08093E9007F
:105200008091E80080FF0DC050E040E060E270E077
:10521000CE0101960E94A00C8091E8008E778093C9
:10522000E8001F701093E90065CDFE013196D601AC
:105230008C9111969C91B2E0CB0ED11C928383830A
:10524000329627EEC21624E0D20689F7C8CF8A81AB
:10525000823089F48B819C81AD81BE818EA39FA316
:10526000A8A7B9A7BC01CD010E94762C86E290E0E8
:105270000E94D12CB4CF8FEF8983B1CF4C816B8149
:105280008A810E94B5139827892798279E838D834A
:10529000A6CF0D811E811027012710278A81EB8060
:1052A0009EE1E99E70011124A6E98A9FE00CF11CA1
:1052B00011248C8190E0880F991FE80EF91E612F50
:1052C000C70187960E94D12C602FC7018896D0CF46
:1052D0000E94F61284CF80E18A8381CFBA8281E86E
:1052E0006BCFCA80DB80DC24CD24DC248C8176016A
:1052F000E80EF11C8E010B5F1F4FC60181589D4FB8
:10530000CE14DF0409F46BCFB1E8CB16B1E0DB06B5
:1053100048F40E94B32CF80181938F01FFEFCF1A5C
:10532000DF0AEBCF80E0F7CF0A811B81102701272E
:105330001027AE014F5F5F4F6A018C817A01E80E42
:10534000F11CC80181589D4FEC14FD0409F447CFAE
:10535000013851E0150728F4D60114966C910E948B
:10536000D12C0F5F1F4FBFEFCB1ADB0AEACF0E9491
:105370006F1335CF84E0B0CFCA80DB80DC24CD242E
:10538000DC248C817601E80EF11C8E010B5F1F4F2F
:10539000C6018796CE14DF0409F421CFE8E5CE16C6
:1053A000E2E0DE0648F40E94B32CD8018D938D0113
:1053B000BFEFCB1ADB0AECCF80E0F7CF0A811B816D
:1053C000102701271027FE0131966F018C817F0184
:1053D000E80EF11CC8018796EC14FD0409F4FFCE19
:1053E0000835F2E01F0728F4D60114966C910E944C
:1053F000D12C0F5F1F4FBFEFCB1ADB0AEBCF09BDDC
:1054000019BD09B400FEFDCF8091D8008F7D809337
:10541000D8008091E00082608093E0008091E000FD
:1054200081FDFCCF0E9407196FCC86E290E00E94BC
:10543000B32C1B821C821D828E83D1CE2D32314033
:1054400008F0F0CD26CE2D32314008F09FCDD5CDDD
:1054500078941F921FB61F9211248F939F93AF933E
:10546000BF938091420490914304A0914404B09171
:1054700045040196A11DB11D8093420490934304FD
:10548000A0934404B0934504BF91AF919F918F9135
:105490001F901FBE1F9018951F920F920FB60F926C
:1054A00011242F933F934F935F936F937F938F9329
:1054B0009F93AF93BF93EF93FF938091E10082FF9F
:1054C00009C08091E20082FF05C08091E1008B7FDE
:1054D0008093E1008091DA0080FF24C08091D800A1
:1054E00080FF20C08091DA008E7F8093DA00809167
:1054F000D90080FF9BC080E189BD82E189BD09B4EC
:1055000000FEFDCF81E08093D9048091B10281112A
:1055100009C00E942F0C0E94DD118091E20084607E
:105520008093E2008091E10080FF17C08091E2004B
:1055300080FF13C08091E2008E7F8093E200809113
:10554000E20080618093E2008091D80080628093C5
:10555000D80019BC85E08093D9048091E10084FFD4
:1055600029C08091E20084FF25C080E189BD82E1ED
:1055700089BD09B400FEFDCF8091D8008F7D809356
:10558000D8008091E1008F7E8093E1008091E2005D
:105590008F7E8093E2008091E20081608093E20040
:1055A0008091B002882309F447C084E08093D90435
:1055B0008091D9048091E10083FF27C08091E200AF
:1055C00083FF23C08091E100877F8093E10082E028
:1055D0008093D9041092B0028091E1008E7F809375
:1055E000E1008091E2008E7F8093E2008091E200F2
:1055F00080618093E20042E060E080E00E94AD11B3
:105600008091F00088608093F000FF91EF91BF914E
:10561000AF919F918F917F916F915F914F913F914A
:105620002F910F900FBE0F901F90189519BC1092DC
:10563000D9041092B10276CF8091E30087FD02C0B9
:1056400081E0B4CF83E0B2CF1F920F920FB60F92DA
:105650001124FF920F931F932F933F934F935F93C8
:105660006F937F938F939F93AF93BF93CF93DF936A
:10567000EF93FF9309EE10E0F8018081C091EC00F8
:10568000C795CC27C7958F70FC2EF82A1082C0EFE3
:10569000D0E08881877F888378940E941C19F80164
:1056A0001082888188608883CF2DCF70C083FF915E
:1056B000EF91DF91CF91BF91AF919F918F917F91AA
:1056C0006F915F914F913F912F911F910F91FF909B
:1056D0000F900FBE0F901F9018951092B9008CE09C
:1056E0008093B80008959F92AF92BF92CF92DF92BD
:1056F000EF92FF920F931F93CF93DF93B82EEB019E
:105700000E94F8176C01EE24E394F12CC431D1050A
:1057100060F025E0E22EF12CCF3FDC0731F0CE0126
:1057200064E170E00E94482C7B0184EAA82E94E892
:10573000992E1092BC00A092BC000E94F8178C0118
:105740008091BC0087FF0CC08091B900887F8830B1
:1057500031F18091B900887F803109F10FEF08C0E5
:105760000E94F817801B910B8E159F0548F30EEFD2
:105770001FEFCF3FDC07E9F2C6010E94431C8C17E4
:105780009D07B8F2C801DF91CF911F910F91FF9053
:10579000EF90DF90CF90BF90AF909F900895B09220
:1057A000BB009092BC000E94F8178C018091BC0055
:1057B00087FF0AC02091B900287F283111F02034DA
:1057C00069F600E010E0DECF0E94F817801B910B15
:1057D0008E159F0558F3CBCF0F931F93CF93DF9375
:1057E000EB018093BB0084E88093BC000E94F81713
:1057F0008C018091BC0087FF11C02091B900287FE7
:1058000081E090E0283211F490E080E0919581955C
:105810009109DF91CF911F910F910895CF3FDC0740
:1058200041F30E94F817801B910B8C179D0708F31A
:105830008EEF9FEFEECFCF92DF92EF92FF920F931A
:105840001F93CF93DF936B018A01F22EE32E622F19
:10585000732F0E94732BAC01E6010C0D1D1DC017A8
:10586000D10711F057FF0DC084E98093BC00CA0135
:10587000DF91CF911F910F91FF90EF90DF90CF902C
:1058800008956F2D7E2D89910E94EC2BAC01E7CFFE
:10589000AA1BBB1B51E107C0AA1FBB1FA617B70756
:1058A00010F0A61BB70B881F991F5A95A9F7809572
:1058B0009095BC01CD01089597FB072E16F4009436
:1058C00007D077FD09D00E94482C07FC05D03EF494
:1058D000909581959F4F0895709561957F4F08959C
:1058E000EE0FFF1F0590F491E02D0994692796278C
:1058F00069277827872778270895FB01DC0102C0F4
:1059000005900D9241505040D8F70895FB01DC01FD
:1059100004C08D910190801921F441505040C8F786
:10592000881B990B0895FB01DC0102C001900D92C8
:1059300041505040D8F70895DC0101C06D934150AB
:105940005040E0F70895DC01CB01FC01F999FECF4E
:1059500006C0F2BDE1BDF89A319600B40D924150F7
:105960005040B8F70895F999FECF92BD81BDF89ADD
:10597000992780B50895A8E1B0E042E050E00C948A
:10598000A52CDC01A40FB51F4150504048F0CB01BD
:10599000840F951F2E910E94D22C41505040D0F779
:1059A0000895262FF999FECF92BD81BDF89A0197EF
:1059B00000B4021639F01FBA20BD0FB6F894FA9A57
:1059C000F99A0FBE08950396272F0E94D22C0E94A9
:1059D000D12C252F0E94D22C242F0C94D22C01964E
:1059E000272F0E94D22C0C94D12CF894FFCF2C0797
:1059F000320735073B07500750075007500750073D
:105A00003E07430747074D075E0764076807A00E78
:105A1000AC0EDB0E420F840FC80FCD0FD20FD70F85
:105A2000DA0FDD0FE00FE30FE60FE90FEC0FEF0FDA
:105A3000F40FF70FFA0F3E1041104410AE10FF198B
:105A4000271AC81B271AC81B5A1A7B1AC81B771B90
:105A5000841B45204C20512056205B20602065206F
:105A60006A206F20742079207D207F208120D21D24
:105A7000D21DD21DD21DD21D481F4E1F521F601FA6
:105A8000641F681F6C1F721F7A1F7E1F821F861F74
:105A9000921F961F9A1F9E1FA41FC21FAC1F5C1F40
:105AA0008A1F8E1F761FA81FB81FCB1FD11FAE20C5
:105AB000AE20E820E8209621B02116211621BB2136
:105AC0002B223A223A22DA28DE2827293E294929A0
:105AD00068293B293B293B293B293B296B296E2916
