:100000000C94A5030C94DD030C94DD030C94DD0328
:100010000C94DD030C94DD030C94DD030C94DD03E0
:100020000C94DD030C94DD030C9430310C940832F5
:100030000C9475160C94DD030C94DD030C94DD0315
:100040000C94DD030C94DD030C94DD030C94DD03B0
:100050000C94DD030C940C310C94DD030C94DD0343
:100060000C94DD030C94DD030C94DD030C94DD0390
:100070000C94DD030C94DD030C94DD030C94DD0380
:100080000C94DD030C94DD030C94DD030C94DD0370
:100090000C94DD030C94DD030C94DD030C94DD0360
:1000A0000C94DD030C94DD030C94DD0305010902BF
:1000B000A10185020901A1000509190129081500FE
:1000C0002501950875018102050109300931158165
:1000D000257F95027508810609381581257F9501D0
:1000E00075088106050C0A38021581257F95017572
:1000F000088106C0C005010980A101850319012AF4
:10010000B700150126B700950175108100C0050CD8
:100110000901A101850419012AA002150126A002E6
:10012000950175108100C005010906A1018506052C
:100130000719E029E71500250195087501810205D9
:1001400007190029EF1500250195F07501810205B9
:10015000081901290595057501910295017503910D
:1001600001C00660FF0961A1010962150026FF00B8
:100170009520750881020963150026FF00952075FA
:10018000089102C005010906A101050719E029E748
:1001900015002501950875018102950175088101F9
:1001A0000507190029FF150026FF0095067508812F
:1001B000000508190129059505750191029501753C
:1001C000039101C009025B00030100A0FA090400C9
:1001D0000001030101000921110100012240000773
:1001E0000581030800010904010002030000000961
:1001F00021110100012222000705820320000107CE
:1002000005030320000109040200010300000009A6
:10021000211101000122B60007058403200001120C
:1002200001000200000008424B0900010001020029
:10023000011C03420045004C004C004100200052CC
:1002400000470042002000490053004F000000100A
:10025000034B0042004400460041004E00530000A2
:100260000004030904290000003A003B003C003D63
:10027000003E003F004000410000004200430044B7
:100280000045004B0035001E001F00200021002209
:1002900000230024002500260027002D002E00004A
:1002A000002A0049002B0014001A0008001500174E
:1002B000001C0018000C00120013002F0030003149
:1002C0000000004C00390004001600070009000A75
:1002D000000B000D000E000F00330034000000285A
:1002E0000000004E00E10064001D001B0006001924
:1002F00000050011001000360037003800E500004E
:100300000052000000E000E300E2000000000000F6
:10031000002C00000000000000E600015150000029
:100320000051004F00010000000100010001000128
:1003300000010001000100010000000100010001B6
:1003400000010001000100010001000100010001A5
:100350000001000100010001000100010001000096
:1003600000010001000100C35C0100010001000167
:100370000001000100010001000100010001000076
:100380005C0000010001000100010001000100010A
:10039000000100010001000100010001000000DE79
:1003A0005C000001000100010001000100010001EA
:1003B0000001000100010001000100010001000036
:1003C0000001000000010001000100000000000029
:1003D0000001000000000000000100010001000019
:1003E00000010001004400C10334C1C412ACA146A5
:1003F0001A2482C8219C624A291443CC308C234E93
:100400003850308104C810030C40F18413B8D10671
:100410001B30B28822A8920A2A20738C3138D0006F
:1004200003B0B0820A28910412A0718619185208EC
:100430002190328A2808130C3080F38D375C60419C
:1004400005D440C30C4C214514C401C71B3CE248F1
:1004500023B4C2CA2A2CA34C322CA04002A480C2CE
:10046000091C6144119441C6180C2248208402CA18
:1004700027FCE24B2F74C3CD3668900106E07083F1
:100480000D58510515D031871C48120924C0F28A35
:100490002B38D30C3320708001985002091031841E
:1004A000108811061800F2871F78D20927F0B28B46
:1004B0002E68930D3674C0C106ECA0430E6481C54E
:1004C00015DC61471D5442C9244403CD331440C098
:1004D000008C2042080401C40F7CE14517F4C1C719
:1004E0001E6CA24926E482CB2D5C634D3540F4900E
:1004F000436484D14588141248ACA4524AD0349342
:100500004CF4C4D34E0810000080F08107F8D003EB
:100510000F481515549444D248B8D4124BDC645398
:100520004D00F5934F2485D4510404D03FBCE042E4
:100530000BECA34F3E98530E391C645041A483CE5C
:1005400039E0738F3DB0B38E3A18551451607595EC
:10055000556CA5555670B49146C8130F3C70B185C3
:100560001600000000000000000000000000000075
:10057000000000000000000000000000000000007B
:10058000000000000000000000000000000000006B
:100590000000000000000000000001010101010155
:1005A000010101020202020202020202030303032A
:1005B00003030303040404040404040505050505FA
:1005C00006060606060707070707080808080909B8
:1005D00009090A0A0A0B0B0B0C0C0C0D0D0D0E0E63
:1005E0000E0F0F0F101011111112121313141415F6
:1005F0001516161717181819191A1A1B1B1C1D1D6A
:100600001E1E1F20202122222324242526262728BF
:1006100029292A2B2C2D2D2E2F30313232333435EF
:10062000363738393A3B3C3D3E3F404142434445F2
:10063000464748494A4C4D4E4F50515354555658D1
:10064000595A5B5D5E5F616264656668696B6C6D7B
:100650006F7072737577787A7B7D7E8082838587F1
:10066000888A8C8E8F91939596989A9C9EA0A2A32F
:10067000A5A7A9ABADAFB1B3B5B7BABCBEC0C2C434
:10068000C6C9CBCDCFD1D4D6D8DBDDDFE2E4E7E9F4
:10069000EBEEF0F3F5F8FAFDFF00000000000000BB
:1006A000000000000000000000000000000000004A
:1006B000000000000000000000000000007E0F00AD
:1006C000D4FFFFFFC700000078000000000000001A
:1006D000002A2B280000000000000000000000009D
:1006E0000000000029000000002C1E3420212224DC
:1006F000342627252E362D3738271E1F202122236A
:100700002425263333362E37381F040506070809FB
:100710000A0B0C0D0E0F10111213141516171819C1
:100720001A1B1C1D2F3130232D350405060708091F
:100730000A0B0C0D0E0F10111213141516171819A1
:100740001A1B1C1D2F3130354C0011241FBECFEF5A
:10075000DAE0DEBFCDBF04B603FE18C080918C097D
:1007600090918D09A0918E09B0918F098730904B9F
:10077000A740B04B59F410928C0910928D09109239
:100780008E0910928F09E0E0F8E3099529E0A6E3CD
:10079000B3E001C01D92AC38B207E1F713E0A0E06E
:1007A000B1E0E2EBFAE602C005900D92A633B10784
:1007B000D9F70E94D12B0C94C6340C94000092956A
:1007C000907FE92FE80F877041E001C0440F8A95C0
:1007D000EAF7E695E695E69583E0E89FF0011124B7
:1007E000EA5EF64F30E020E070E05191DF011197B2
:1007F000CB01022E02C0969587950A94E2F781708C
:1008000081958527842385278C932F5F3F4F233045
:10081000310559F70895E92FE295E07FE80F982F09
:100820009770E695E695E69583E0E89FF001112440
:10083000EA5EF64F50E040E080E0219130E0092E82
:1008400002C0369527950A94E2F721703327042ECB
:1008500001C0220F0A94EAF7822B4F5F5F4F4330AB
:10086000510559F7089580915509909154099813AD
:1008700001C008958F5F8770FACF90912B01992363
:10088000E1F09091510997FF18C0E82FE695E695A1
:10089000E695803FF0F4F0E0E85CFC4F877021E0E3
:1008A00030E0A90102C0440F551F8A95E2F7CA0142
:1008B00080959281892382830895EAE3F3E0919100
:1008C000891303C0DF0111971C9253E0E034F50750
:1008D000B1F70895982F909580914C0989238093C2
:1008E0004C09089580914D09811110924D09089588
:1008F0009091510992FF06C0282F28712830F9F4F1
:10090000877F846093FF06C0282F28712831F1F477
:10091000877E84612091520920FF06C0382F3871EC
:100920003830D9F4877F816021FF06C0282F2871D5
:100930002831D1F4877E816194FD877E0895282F28
:1009400024712430F9F68B7F8860DCCF282F247146
:10095000243101F78B7E8861DDCF382F3171313042
:1009600019F78E7F8860E0CF282F2171213121F780
:100970008E7E8861E1CFCF93DF93EC01803E9105BD
:1009800009F460C050F58133910509F4A6C090F4D4
:100990008932910509F49AC08A9709F4A5C0C1303B
:1009A000D10509F462C0CE010497813A910508F09F
:1009B00055C05BC089339105F1F182389105D9F1B9
:1009C000C59709F47CC0C83AD10508F094C0C53A6F
:1009D000D10528F3A497D06448C0843E910509F45A
:1009E00053C068F4823E9105E1F1833E910509F41C
:1009F00040C0CE01805E9109089780F536C0863EE2
:100A0000910509F44CC0873E910509F44DC081154C
:100A100023E5920708F09AC0811532E5930708F0A4
:100A200000C18F3F910511F008F074C0803F91051F
:100A300050F2D0651AC0809151098370B1F0C0EEB8
:100A4000D0E013C08091510980FD15C190915209E9
:100A500090FF0BC0C3EED0E084FF07C0D0E0C0E041
:100A600004C08091510982FDF5CFCE01DF91CF9175
:100A700008958091510982FD01C19091520990FD24
:100A8000DECF84FFF2CFEACF8091520981FFEDCF14
:100A900080915109C7EED0E084FDE0CFE6CF809190
:100AA000510983FDF7CFE1CF8091510983FDE9C062
:100AB0009091520991FFE5CFC4EED0E0D6CF80915E
:100AC000510985FFD2CFC9E2D0E0CFCF8091510943
:100AD00085FFCBCFC5E3D0E0C8CF8091510986FF19
:100AE000C4CFCAE2D0E0C1CF8091510986FFBDCF0B
:100AF000C1E3D0E0BACFCF3BD10508F07ACFC85AD6
:100B0000D0E0CC0FDD1FC85FDC4F0990D881C02D2D
:100B1000D464ABCFC11581E5D80798F4C11520E5A1
:100B2000D20708F061C0C11530E2D30708F49DCFA9
:100B3000CE0190548115904108F090CFDF70D06ABB
:100B400094CFDC2FCC27C16FD06A8FCF811539E5C8
:100B50009307A0F5C11588E5D80708F07AC0C1153C
:100B600025E5D207C8F4C11534E5D30708F06CC0F9
:100B70009E012370332781E090E002C0880F991F07
:100B80002A95E2F7C695C69520E2C29FE00111249E
:100B9000C82BD92BDA6869CFCE0195558F3F9105C7
:100BA00011F008F05BCF8C2F0E947804C82FD0E0A2
:100BB000DC2FCC27CC27DF71D06257CF81153AE5E7
:100BC000930708F44BC090568115904208F046CF29
:100BD0008D2F8F710E94780490E0982F88278827A6
:100BE0009F718C2BEC01E8CF9E0174E03695279520
:100BF0007A95E1F723708C2F86958695837030E285
:100C0000839FC0011124922BC37021E030E002C009
:100C1000220F331FCA95E2F7822B932BEC01DC687D
:100C200024CF9C012370332781E090E002C0880F1D
:100C3000991F2A95E2F7C695C69520E2C29FE0016A
:100C40001124C82BD92BEBCFDC2FCC27C46FD06A53
:100C50000CCFDC2FCC27C06FD06A07CF8F700E94DB
:100C6000780434E0D695C7953A95E1F7CF709C2F7C
:100C7000EC01D069FACEC9E3D0E0F7CEC2EED0E005
:100C8000F4CEC6EED0E0F1CE80E00895F894E82FDF
:100C9000E295EF70F0E041A18F7021E030E0B90102
:100CA00002C0660F771F8A95E2F7CB01962F9095C9
:100CB000942391A392A1892B82A378940895809183
:100CC0003A0980FD14C081FD14C082FD16C08091D8
:100CD0003C09882381F08E3180F420E5829FC00199
:100CE00011246EE170E00E944033862F089584E164
:100CF000089588E2089588E0089580E50895809138
:100D00003A0980FD16C081FD16C082FD16C0809193
:100D10003B098823A1F0883280F428E0829FC0013B
:100D2000112468E270E00E944033862F672B39F06F
:100D3000089582E0089584E0089588E0089581E0B0
:100D40000895E0E1E80FE031E0F5F0E0E853FB4C16
:100D50000C9454330E945F06819580934009089556
:100D60000E945F06FACF0E945F06819580933F093B
:100D700008950E945F06FACF0E947F068093410982
:100D800008950E947F068195F9CF0E947F06819584
:100D90008093420908950E947F06FACF845F990BE1
:100DA00021E030E001C0220F8A95EAF780913E09E8
:100DB000822B80933E09089580913A098160809347
:100DC0003A09089580913A098260F9CF80913A09F1
:100DD0008460F5CF40913F09803F59F480914009EC
:100DE00087FF0DC01092400941110BC010923C09C1
:100DF00008C0813F81F48091400918169CF3442378
:100E000081F08091410990914209892B09F05AC0E3
:100E100010923B090895823F49F447FFF0CF1092AA
:100E20003F09809140098111ECCFE0CF833F19F455
:100E30001416ACF3E4CF90914109893F29F41916B7
:100E4000F4F610924109DBCF8A3F19F497FFD7CF10
:100E5000F8CF909142098B3F29F497FFD0CF1092A1
:100E60004209CDCF8C3F19F41916CCF3C8CF9CE0C2
:100E7000980F953090F4845F990B21E030E0B90130
:100E800002C0660F771F8A95E2F7CB01809590919B
:100E90003E09892380933E09B2CF8D3F31F4809182
:100EA0003A098E7F80933A09AACF8E3F21F4809130
:100EB0003A098D7FF7CF8F3F09F0A1CF80913A0992
:100EC0008B7FF0CF0895AF92BF92CF92DF92EF92D7
:100ED000FF920F931F93CF93DF93262FD72EE82FE8
:100EE000F0E0E756FA4F71110FC06491862FE62F9C
:100EF0007E2FDF91CF911F910F91FF90EF90DF90A8
:100F0000CF90BF90AF900895E72EF12CE49186E04A
:100F1000689F80011124CFEFD0E0C801BE010E947C
:100F20002C33AB0130E0220F331F65E5649FC00115
:100F3000659F900D1124281B390B922F990F920F4A
:100F40009E012E193F09E29FD001E39FB00D1124AD
:100F50006B2FD99E90011124232F33276E01C21AC3
:100F6000D30A9601E29F6001E39FD00C11248D2DDE
:100F70005E01A91AB108AE9C9001AF9C300DBE9CD9
:100F8000300D1124232F3327C21BD30BEC9F90016C
:100F9000ED9F300D112443305105C1F00C3F93E01B
:100FA000190768F441305105A9F042305105B1F0FC
:100FB0000F3F110508F09CCF8B2F632F99CF443042
:100FC000510579F046305105B9F392CF6D2D8E2F32
:100FD000EB2F8ECF6E2FED2D8B2F8ACF832F6E2F81
:100FE000F7CF8E2FE32F84CF9C0190E080E0269FE7
:100FF000812D369F800D911D112408959C01823012
:10100000910508F408959FEF213E8EE1380740F4E2
:10101000C90145E0969587954A95E1F798E0980FC4
:1010200061E0E62FE90FFF27FF1FAF0155954795B8
:10103000842F449FF001459FF00DF00D11242E17D1
:101040003F0738F49FEF940F961758F78FEF860FEE
:1010500008954F3FE9F361E0640FF6CF40911D0121
:1010600050911E0125E038E0429FC001439F900D42
:10107000529F900D1124875E994C90931E0180938E
:101080001D01890F0895982FE82F96FDE0952E2FCA
:101090002F7096FD2F5FE695E695E695E670F0E0F9
:1010A000ED5BFE4F8181829F802D212D1124829541
:1010B0008F702295207F822B2081820F97FD819552
:1010C00080580895FC019B01009719F4832F8078C4
:1010D0000895AC0197FF04C044275527481B590BBE
:1010E000B901640F751F37FD0FC0241B350BC901F3
:1010F000A5E0880F991FAA95E1F70E94403380E28E
:10110000861BF7FD81950895CB0165E0880F991F37
:101110006A95E1F7BA01621B730B0E94403380E6C7
:10112000EFCF1F93172F922FE42FF0E0EE0FFF1F4A
:10113000E555FE4F2081322F24EE329F312D1124B0
:10114000472F50E0232F30E0245E3F4F291B310909
:1011500037FF03C031952195310993E0220F331FEA
:101160009A95E1F7421B530B57FD40E0742F719F96
:10117000712D11241F9108951F93182F822FE42F92
:10118000F0E0EE0FFF1FE555FE4F2081322F24EED9
:10119000329F312D1124412F50E0232F30E0245E67
:1011A0003F4F281B310937FF03C031952195310985
:1011B00083E0220F331F8A95E1F7CA01821B930B4C
:1011C0009C0197FD20E0219F212D1124822F1F914A
:1011D00008950F931F93CF93DF93D62F172FC82F08
:1011E000BA01C901212F201B022F0E946208982FEB
:1011F000990F990F782F791B700F719F712D112402
:101200006D2F8C2FDF91CF911F910F9108950F9328
:101210001F93CF93DF93D62FC72F182FBA01C90181
:10122000212F201B022F0E946208982F990F990FDF
:10123000282F291B200F219F212D11246D2F7C2F5A
:10124000822FDF91CF911F910F910895EF920F930D
:101250001F93CF93DF93D62F172FC82FBA01C90141
:101260000E19010F0E946208702F781B719F712D5B
:1012700011246D2F8C2FDF91CF911F910F91EF9043
:101280000895EF920F931F93CF93DF93D62FC72F1D
:10129000182FBA01C9010E19010F0E946208081B1C
:1012A000019F012D11246D2F7C2F802FDF91CF9175
:1012B0001F910F91EF900895622F0895E42FF0E0B1
:1012C000EE0FFF1FE555FE4F6081621B0895E42F6E
:1012D000F0E0EE0FFF1FE455FE4F6081621B0895A2
:1012E000322F50E0FA01EE0FFF1FE455FE4F9081C0
:1012F000905297FD9195440F551FFA01E555FE4F09
:101300002081231B330B290F311D97FD3A95620F66
:101310000895EF920F931F9393E0099F800111248A
:10132000159507956E2D600F1F910F91EF90089501
:101330000F93CF93DF93D72FC82FB90147FD419566
:1013400028E330E0241B310947FD3395229FA0019B
:10135000239F500D500D1124669FC001679F900D73
:10136000900D1124840F951F0E94FE07982F990F4E
:10137000692F680F600F7D2F8C2FDF91CF910F9118
:1013800008950F93CF93DF93D72FC82FBA01C901C8
:101390000E946208682F600F7D2F8C2FDF91CF9104
:1013A0000F910895EF920F93CF93DF93D72FC82F0C
:1013B000BA01C9010E190E946208602F681B7D2FB7
:1013C0008C2FDF91CF910F91EF9008950F931F9382
:1013D000522F10E0F801EE0FFF1FE455FE4FA081E1
:1013E000A052BB0B9D015203F001539FF00D11243D
:1013F000000F111FD801A555BE4F2C912057330B5C
:101400004203D001439FB00D11249F012A0F3B1FBF
:1014100037FF02C021583F4F220F232F221F330BCB
:10142000620F1F910F9108950F931F93522F10E099
:10143000F801EE0FFF1FE455FE4FA081A052BB0B39
:101440009D015203F001539FF00D1124000F111F55
:10145000D801A555BE4F2C912057330B4203D00124
:10146000439FB00D11249F012A0F3B1F37FF02C07D
:10147000215C3F4F96E0359527959A95E1F7620FED
:101480001F910F9108950F931F93A42F10E0F8015F
:10149000EE0FFF1FE555FE4F9081905797FD9195F8
:1014A000000F111FF801E455FE4F00810052110B8F
:1014B0002003A001219F500D112428E330E0291BB7
:1014C000310997FD33951A2F1203F001139FF00D88
:1014D00011244E0F5F1F9A01220F331F240F351F57
:1014E00037FF02C021583F4F220F232F221F330BFB
:1014F000620F1F910F9108950F931F93CF93DF9366
:101500008B01D82FC42F822F0E944308EC2FF0E0CC
:10151000EE0FFF1FE555FE4F90819058980F97FDF5
:101520009195990F692F2CE0629F612D1124600F16
:10153000712F8D2FDF91CF911F910F910895E42F7F
:10154000F0E0EE0FFF1FE555FE4F9081921B97FDD7
:101550009195292F38E1239F212D1124620F0895A1
:10156000CF93DF9300D000D0CDB7DEB720914A09EA
:1015700030E1230F08F42FEF60E1822F90E00E940A
:10158000F407BC0188EB9BE00E942C33B0E0A0E0A4
:10159000CD010F900F900F900F90DF91CF91089594
:1015A0004095282F429F412D1124842F089522E831
:1015B000241B08F420E0620F0895EF92FF920F932E
:1015C000282FC70135E0039F800D911D11248F3F07
:1015D000910519F010F08FEF90E08095382F230FD0
:1015E00008F42FEF822F0F91FF90EF900895EF9264
:1015F000FF920F93E00EF11CF90137FF03C0F19544
:10160000E195F10924E0EE0FFF1F2A95E1F7EF3F86
:10161000F10519F014F0EFEFF0E09A0157FF03C065
:1016200031952195310994E0220F331F9A95E1F706
:101630002E173F070CF4F901EE0DFF1DEF3FF105EA
:1016400019F010F0EFEFF0E0E095282F3E2F230F78
:1016500008F42FEF822F0F91FF90EF900895EF92F3
:10166000FF920F93972FFA01B9019701093430F4D3
:10167000201B31092F3F310519F010F02FEF30E01A
:101680003896719740F0AB01485F5F4F413151058B
:1016900010F02FEF30E02095382F320F08F43FEF95
:1016A00077FF02C06D5F7F4F75956795759567955C
:1016B00080914709680F792F832F0F91FF90EF904A
:1016C0000895EF92FF920F93282FC701801B910975
:1016D0008F3F910519F010F08FEF90E08095382F33
:1016E000230F08F42FEF822F0F91FF90EF900895B2
:1016F0000C94B4140C94261580931C018091460917
:10170000837080931B010E94181683E080932C0144
:101710000895E6E4F9E0248130E1230F08F42FEF87
:101720002483809145098160809345090895E6E40A
:10173000F9E0248130E1231B08F420E02483809128
:1017400045098160809345090895FA018111099442
:10175000FB01FDCFE091F408F091F508309721F0FE
:101760000190F081E02D099480E0089520918C0390
:1017700030918D032817390771F090938D03809372
:101780008C03E091F408F091F508309721F0068081
:10179000F781E02D0994089520918A0330918B03FD
:1017A0002817390771F090938B0380938A03E09197
:1017B000F408F091F508309721F00084F185E02DD0
:1017C000099408959C0180912B018823C1F0809198
:1017D000510987FF14C0862F869586958695603FB0
:1017E000F8F4F901E80FF11D677021E030E001C065
:1017F000220F6A95EAF78281822B82830895F9018C
:1018000032968FEF90E04191641751F08F3F19F4B9
:10181000411101C0892F9F5F9630A9F78F3F09F4CE
:101820000895280F311D87FD3A95F90162830895C7
:10183000CF93DF9300D000D0CDB7DEB78FB7F89449
:10184000209152063091530640915406509155060E
:1018500029833A834B835C838FBF69817A818B8133
:101860009C810F900F900F900F90DF91CF91089572
:101870008091890308950895FC01CB0120916403B0
:10188000309165032617370790F0009729F42091CF
:10189000E8002E772093E80040E0009751F44111D2
:1018A00008C08091E80082FF31C080E00895C9013E
:1018B000F3CF2091D8082223A9F12530A9F1209156
:1018C000E80023FD2DC02091E80022FDEACF209101
:1018D000E80020FFE2CF3091F3002091F200009762
:1018E00019F02830310558F041E02830310509F071
:1018F00040E02091E8002E772093E800CECF419180
:101900004093F10001972F5F3F4FE9CF8091D808B6
:10191000882341F0853041F08091E80083FFC1CFFA
:1019200081E0089582E0089583E0089580915E0348
:1019300087FF13C08091E80082FF06C08091E80015
:101940008B778093E80004C08091D8088111F2CF92
:1019500008958091D8088823D9F38091E80080FF0A
:10196000F8CF8091E8008E77ECCF2091E4003091A1
:10197000E50095E6A9012091EC00822F817020FFFF
:1019800006C08091E80080FF06C080E008952091A5
:10199000E80022FD1AC08091D808882389F085309C
:1019A00089F08091EB0085FD0FC02091E40030911B
:1019B000E50042175307F9F29150E1F684E00895EB
:1019C00082E0089583E0089581E00895E8EDF0E075
:1019D00080818E7F80831092E2001092DA00109254
:1019E000E100A0EEB0E08C9181608C9380818F77D4
:1019F000808319BCA7EDB0E08C918E7F8C938081A1
:101A00008F7E808310925D030895909146099370B4
:101A100059F08093470960934809409349098091A0
:101A200045098160809345090895E6E4F9E08181E4
:101A300090E04381628108960C94050DE6E4F9E09C
:101A40008181438162818850990B0C94050DE6E4F5
:101A5000F9E0628120E1620F08F46FEF8181438138
:101A600090E00C94050DE6E4F9E0628120E1621B50
:101A700008F460E08181438190E00C94050DE6E478
:101A8000F9E0438120E1420F08F44FEF8181628148
:101A900090E00C94050DE6E4F9E0438120E1421B5F
:101AA00008F440E08181628190E00C94050DEF9292
:101AB000FF920F931F93CF937C018B010E94B50C73
:101AC000C82F811117C08091E80085FD0BC080915F
:101AD000E8008E778093E8000E94B50C882399F384
:101AE000C82F08C0F70181917F018093F100015058
:101AF000110949F78C2FCF911F910F91FF90EF9013
:101B00000895909146099370A1F0882399F08A3244
:101B100098F48F73880F880F909146099370892BE2
:101B20008093460910922C01809145098160809331
:101B30004509089581E0EECF89E2ECCF8091460916
:101B4000869586958F5F8A3208F081E00C94810D2E
:101B500090914609969596958FEF890F913009F4EB
:101B600089E20C94810DAF92BF92CF92DF92EF92F7
:101B7000FF920F931F93CF93DF935C01C0911801E5
:101B8000CC0FCC0F14E01C0FC12E1E3610F03DE61A
:101B9000C32E60914A09669580910D0890910E08B8
:101BA0000E94F407D82ED0E0CE01880F991F9C0127
:101BB00025553E4F7901CC1578F081E01D3608F0AF
:101BC00080E0DF91CF911F910F91FF90EF90DF9018
:101BD000CF90BF90AF900895FE01EB57FD4F8081ED
:101BE000909119018923C1F0F70121812052330B13
:101BF00040814057550B6091470970914809809189
:101C000049090D2DF50109950E946307462F672F9D
:101C1000282FCE010E94780BF2E0EF0EF11C2196E6
:101C2000CACF5F926F927F928F929F92AF92BF9234
:101C3000CF92DF92EF92FF920F931F93CF93DF9398
:101C40004C01C0911801CC0FCC0F14E01C0F512E89
:101C50001E3610F03DE6532E60914A09669580913C
:101C60000D0890910E080E94F407F82ED0E0CE01E6
:101C7000880F991F9C0125553E4F6901C515A0F09D
:101C800081E01D3608F080E0DF91CF911F910F9128
:101C9000FF90EF90DF90CF90BF90AF909F908F908C
:101CA0007F906F905F900895FE01EB57FD4F80810C
:101CB00090911901892379F1F6018081282F20570D
:101CC000330B59018181E82FE052FF0B3F01AA9CA1
:101CD0009001AB9C300D300D1124EE9FC001EF9FA1
:101CE000900D900D1124820F931F0E94FE07082F64
:101CF000609147097091480980914909EF2C93013F
:101D0000A501F40109950E946307462F672F282F2C
:101D1000CE010E94780BF2E0CF0ED11C2196AECFFF
:101D2000BF92CF92DF92EF92FF920F931F93CF93C8
:101D3000DF9300D000D00F92CDB7DEB76C01809159
:101D40001801880F880F8B8394E0F92EF80EBF2CB2
:101D50009DE69F1510F48DE6B82E60914A096695B0
:101D6000669580910D0890910E080E94F407182F37
:101D700080E4810F0E94430880588983812F0E944C
:101D8000430880588A83FB81EF2FF0E0FD83EC83CA
:101D90009C819B15A0F081E0ECE6EF1508F480E053
:101DA0000F900F900F900F900F90DF91CF911F9198
:101DB0000F91FF90EF90DF90CF90BF900895EC814E
:101DC000FD81EB57FD4F8081909119018923A9F086
:101DD000609147097091480980914909E12E0C8171
:101DE0002A814981F60109950E946307462F672FD2
:101DF000282F8C819D810E94780B8C819D8101967A
:101E00009D838C83C5CFDF92EF92FF920F931F9338
:101E1000CF93DF937C01C0911801CC0FCC0F14E05D
:101E20001C0FD12E1E3610F08DE6D82E60914A0977
:101E30006695669521E0620F08F46FEF80910D08BA
:101E400090910E080E94F407082FD0E0CD1560F0A5
:101E500081E01D3608F080E0DF91CF911F910F9156
:101E6000FF90EF90DF900895FE01EB57FD4F8081CA
:101E700090911901892391F0609147097091480967
:101E800080914909202F4C2FF70109950E94630783
:101E9000462F672F282FCE010E94780B2196D6CF90
:101EA000AF92BF92CF92DF92EF92FF920F931F9368
:101EB000CF93DF938C01C0911801CC0FCC0F24E09D
:101EC000D22EDC0ECD2C2DE62D1510F49DE6C92E5C
:101ED00020914A0931E0230F08F42FEF30E050E061
:101EE00040E06FEF7FEF80E090E00E946334790183
:101EF000D0E0B22EAF2C2C2FCC1580F081E0FCE688
:101F0000FD1508F480E0DF91CF911F910F91FF90B4
:101F1000EF90DF90CF90BF90AF900895FE01EB5708
:101F2000FD4F808190911901892319F14091110889
:101F30004150042E000C550B47FF1DC08B2D9A2DD0
:101F400060914A0921E0620F08F46FEF0E94F407E4
:101F5000AC01609147097091480980914909F801E5
:101F600009950E946307462F672F282FCE010E94F4
:101F7000780B2196C0CFFA01EF5EF74F818982136B
:101F80000AC0FA01EE0FFF1FEF5EF74F818D928DB1
:101F90008E159F05A8F241505109CECF2F923F9246
:101FA0004F925F926F927F928F929F92AF92BF9269
:101FB000CF92DF92EF92FF920F931F93CF93DF9315
:101FC000CDB7DEB729970FB6F894DEBF0FBECDBFF1
:101FD000282E6A837B8320911801220F220F2E83E3
:101FE0002C5F29832C832E3610F03DE63C838091B4
:101FF00011088D83FE81EF2FF0E0F987E887CF018C
:10200000880F991F9C0125553E4F6901822D90E054
:10201000FC013196FF83EE838C8198859817F0F050
:1020200081E0E981ED3608F080E029960FB6F8945A
:10203000DEBF0FBECDBFDF91CF911F910F91FF90FB
:10204000EF90DF90CF90BF90AF909F908F907F9058
:102050006F905F904F903F902F900895E885F9859D
:10206000EB57FD4F8081909119018923F1F0409049
:102070004709509048092E813F812F5E374F390123
:10208000322C10E0FD813F16D0F020914909129FBB
:10209000112D1124B201812F0E946307462F672F53
:1020A000282F888599850E94780B288539852F5F90
:1020B0003F4F3987288732E0C30ED11CADCFF301E3
:1020C00081913F01F601A080A81ABB088180F3012D
:1020D0008781881A9908AA9C9001AB9C300D300D1D
:1020E0001124889CC001899C900D900D1124820FB1
:1020F000931F0E94FE07082F60914A0921E0620F9A
:1021000008F46FEFF301EE0FFF1FE151F8408589EE
:1021100096890E94F4077C019401A501B201812FE8
:10212000EA81FB8109952B01182F3394ABCF982FAF
:102130009093E900242F762F50E0891731F07091A9
:10214000EC002091ED005091F00021FD06C09F5F52
:10215000973071F78093E90008953091EB003E7F4E
:102160003093EB003091ED003D7F3093ED003091E6
:10217000EB0031603093EB007093EC002093ED00A6
:102180005093F0002091EE0027FDE1CF0895CF920B
:10219000DF92EF92FF920F931F93CF93DF93C8EDDF
:1021A000D0E088818F7E8883E7EDF0E080818160D8
:1021B000808384E082BF81E080935D0388818E7F8D
:1021C000888302EE10E0F80110821092DA0081EEAE
:1021D000C82ED12CF601108288818F778883888160
:1021E0008068888388818F7D888319BC1092D80885
:1021F00010925C0310923C0810925B0390EEE92E63
:10220000F12CF70180818B7F8083888181608883B6
:1022100042E060E080E00E949710F60180818E7FAE
:102220008083F801808181608083808188608083E1
:10223000F70180818E7F8083888180618883DF9130
:10224000CF911F910F91FF90EF90DF90CF90089565
:1022500081E08093E00080E28093D8001092C90072
:102260008FE19EE40197F1F700C0000087E090EB5A
:10227000DC0180938C0990938D09A0938E09B09313
:102280008F0988E19CE00FB6F894A89580936000D0
:102290000FBE90936000FFCFCF93DF93D82FC92F4D
:1022A00080912B018823C1F18091510987FF34C0AF
:1022B00060E284E08093E9008FEF9091E800815024
:1022C00095FD06C095ED9A95F1F700008111F5CFC7
:1022D0008091E80085FF1DC080912B0170E050E0E7
:1022E00040E0811104C050E040E068E070E08D2FD4
:1022F0009C2F0E94570D8091E8008E778093E80014
:1023000080E2ED2FFC2FA9E6B3E001900D928A95B3
:10231000E1F7DF91CF91089568E081E0CBCF24E031
:102320002093E9002FEF3091E800215035FD06C0E1
:1023300035ED3A95F1F700002111F5CF2091E80035
:1023400025FF0BC050E040E066E070E00E94570DB2
:102350008091E8008E778093E8000895809366036B
:1023600070936803609367038091D8088430F9F410
:102370008093E9008FEF9091E800815095FD06C0B1
:1023800095ED9A95F1F700008111F5CF8091E80065
:1023900085FF0DC050E040E063E070E086E693E02A
:1023A0000E94570D8091E8008E778093E800089591
:1023B000BC0183E00C94AE11BC0184E00C94AE111E
:1023C0004F925F926F927F928F929F92AF92BF9245
:1023D000CF92DF92EF92FF920F931F93CF93DF93F1
:1023E000D0E0C0E030ECA32EB12C8E01000F111F05
:1023F0003E011DC0F60185909490692DC7010E9491
:102400003F34682DC70101960E943F3422E0C20E7E
:10241000D11C32E0E30EF11C4E145F0459F7005E4C
:102420001F4F80E1680E711CA016B10681F0C30138
:10243000880F991F9C012B593D4F6901780137E2A4
:10244000E30EF11C280187E4480E511CD3CF20EC89
:10245000A20EB11CC05ADF4FC03CD10531F6DF914E
:10246000CF911F910F91FF90EF90DF90CF90BF9091
:10247000AF909F908F907F906F905F904F90089556
:10248000CF93C82F6FEF811162E283E290E00E9448
:102490003F346FEFC11164E084E290E00E943F346A
:1024A0006FEFC11165E285E290E0CF910C943F346B
:1024B000CF93DF93C7EAD1E060E0CE010E943F34C2
:1024C0002196C11584E0D807B9F7DF91CF9108951F
:1024D00080E00E94401260E086E290E00E943F347B
:1024E0000E94E0110E94581281E00C944012CF9398
:1024F00084E090E00E942134C82F82E290E00E94A4
:102500002134982F8C2FCF91089583E290E00E9480
:102510002134823289F484E290E00E9421348430B4
:1025200059F485E290E00E94213491E0853209F06F
:1025300090E0892F8170089580E0FCCF0F931F9366
:10254000CF93DF9320E2629FE001112450E0440F1B
:10255000551FC40FD51F30EC839FC00DD11D112412
:10256000CE0187960E942134082F10E0102F0027FB
:10257000CE0188960E9421349801282BC901DF9151
:10258000CF911F910F910895462F672F823030F41D
:10259000763020F4403110F40C949E1290E080E0EC
:1025A0000895DF92EF92FF920F931F93CF93DF93E3
:1025B0007C0100914F0980914E09082BC7E0D0E0C3
:1025C00010E0DC2EC8010C2E02C0959587950A9468
:1025D000E2F780FD0CC02197A0F7D12C8D2DDF9163
:1025E000CF911F910F91FF90EF90DF900895B70169
:1025F0008C2F0E94C4120E94BB04019761F3EECF9E
:102600000F931F93CF93FC01828100811181882356
:1026100089F0662379F0C8010E94D112C82F682F73
:10262000C8010E94DF03B8018C2FCF911F910F9139
:102630000C94C412C8010E940B04C82FF4CFCF938E
:10264000DF93D82FC92F0E94D1126D2F7C2F0E94AB
:10265000C412DF91CF910C94BB040E941F13282F4A
:1026600092959F70963091F060F4925F9F709230D7
:1026700030F481E0203F81F030F4283E30F080E0FB
:1026800008959A5FF3CF243FD1F7089581E0283E63
:10269000E0F3213FA1F7F9CF089580914C09909183
:1026A0005309892B8093380390914D099923A1F008
:1026B000892B8093380380912B018823D9F1809155
:1026C000510987FF37C08EE1EAE3F3E090E08150E3
:1026D00098F591110E94720440E250E066EF78E0B4
:1026E00088E393E00E94E233892B59F180E2E8E32A
:1026F000F3E0A6EFB8E001900D928A95E1F7E09142
:10270000F408F091F5083097E1F080912B018823CF
:1027100059F08091510987FF07C080913803809359
:10272000390386E0809338030280F381E02D88E34B
:1027300093E0099486E0C8CF2191222341F29F5F64
:10274000C6CF0895882339F090914C09892B809346
:102750004C090C944D130895882321F00E946A04BB
:102760000C944D13089569EE7EEF90E080E00E9496
:102770005D3460E082E090E00E943F3460E083E0FE
:1027800090E00E943F3410924E0960E084E090E0B7
:102790000E943F3460E082E290E00E943F3460E0BB
:1027A00085E090E00E943F3460E086E090E00E9487
:1027B0003F346FEF87E090E00E943F3440E050E00C
:1027C000BA0188E090E00E94513460E08DE090E032
:1027D0000E943F3440E050E0BA0188E190E00E945E
:1027E000513460E087E190E00E943F3440E050E0E7
:1027F000BA018CE190E00E94513470E060E080E228
:1028000090E00E945D3440E050E0BA0188E190E041
:102810000E94513480E00E9440120E94681240E001
:1028200050E0BA018FE090E00E94513440E050E067
:10283000BA0183E190E00C94513490E080E00E9472
:102840002934893E9E4F11F40C94851280E008953E
:10285000E6E4F9E081E3808380912D0190912E01DF
:10286000A0912F0181839283A3838FE784838FEFCD
:10287000858346E050E06CE170E0CF010E942F3488
:10288000109245090895DF92EF92FF920F931F93E4
:10289000CF93DF93EC01FC01EB57FD4F80819091CA
:1028A0001901892381F1D0904809009149091091BB
:1028B0004709E12EF12C0E94C933282FC7018C54FF
:1028C0009F4F68E671E00E9440338E199F0997FD83
:1028D000039695958795959587952370612F289FE9
:1028E000600D11247D2D802F0E946307462F672FD6
:1028F000282FCE01DF91CF911F910F91FF90EF9084
:10290000DF900C94780BDF91CF911F910F91FF9086
:10291000EF90DF9008951F93CF93DF93EC01FC01BC
:10292000EB57FD4F8081909119018923C9F00E94D6
:10293000C933182F0E94C933782F7F7720E8720F90
:1029400008F47FEF612F809149090E946307462FA9
:10295000672F282FCE01DF91CF911F910C94780B18
:10296000DF91CF911F910895FF920F931F93CF9303
:10297000DF9300D000D0CDB7DEB7FC01F62E042FD8
:10298000122F8D36910508F057C0EE0FFF1FEE0F86
:10299000FF1FBF016B517C4F44E050E0CE01019618
:1029A0000E94D9338981982F9370492F50E08695E2
:1029B00086952A81322F3295330F330F307CE32FE7
:1029C000E82B822F86958695F82FF370AFE5B1E05E
:1029D0009A9FB0019B9F700D1124CB0182579C4F91
:1029E000E80FF91FF08222952F703B81E32FE295CB
:1029F000E07F6E2F622B232F22952F70722F737022
:102A0000680F791FFB010083329536953695337038
:102A10002C81E22FEE0FEE0F6E2F632B722F72952B
:102A2000769576957370860F971FFC01108343513E
:102A30005B4F81E0FA0180830F900F900F900F9011
:102A4000DF91CF911F910F91FF900895FF920F9307
:102A50001F93CF93DF93182F062FF42ED0E0C0E002
:102A60002F2D402F612FCE010E94B4142196CD3618
:102A7000D105B1F7DF91CF911F910F91FF9008958C
:102A8000E4E0F1E08083618324E630E042E050E05E
:102A9000BF0180E60C94FF32AF92BF92CF92DF92DB
:102AA000EF92FF920F931F93CF93DF9300D000D04C
:102AB000CDB7DEB70E94513265EC8EEF0E94401513
:102AC00064E08DEF0E94401561E080E00E944015B7
:102AD0006FEF81E00E94401567E782E00E94401599
:102AE0008FE39CE90197F1F700C0000025EEC22EAC
:102AF00023E0D22E09E915E03FE5E32EFF24F3940D
:102B0000BB24BA94AA24A39444E050E0B601CE01B9
:102B100001960E94D9338981982F9370692F70E0B4
:102B2000869586952A81322F3295330F330F307C6C
:102B3000432F482B822F86958695582F53709E9D44
:102B4000F0019F9DF00D1124CF0182519B4F480F42
:102B5000591FFA01B082322F32953F702B81E22F3C
:102B6000E295E07F4E2F432B322F32953F70532F4B
:102B70005370480F591FFA01B08222952695269569
:102B800023703C81E32FEE0FEE0F4E2F422B532F7D
:102B90005295569556955370840F951FFC01B0823F
:102BA000635B794FFB01A082F4E0CF0ED11C0C15C2
:102BB0001D0509F0A9CF65EC8EEF0E94401562E07B
:102BC0008DEF0E9440159EEEE92E94E0F92E10E064
:102BD000F70161917F01812F0E9440151F5F143B17
:102BE000B9F765EC8EEF0E94401563E08DEF0E940F
:102BF000401582EAE82E85E0F82E10E0F701619199
:102C00007F01812F0E9440151F5F1B3AB9F7109278
:102C10004D060F900F900F900F90DF91CF911F9165
:102C20000F91FF90EF90DF90CF90BF90AF900895FD
:102C30000F931F93CF93DF938091ED04882309F4C2
:102C400041C065EC8EEF0E94401560E08DEF0E9460
:102C50004015D0E0C0E004EB10E0CE01B8010E94C6
:102C600040338093040182E1FE01E257FC4FA5E06E
:102C7000B1E001900D928A95E1F724E630E043E15E
:102C800050E064E071E080E60E94FF32892BD1F4CD
:102C90006296C63581E0D807E1F482EA80930401A8
:102CA00089E0E4EEF4E0A5E0B1E001900D928A95B0
:102CB000E1F724E630E04AE050E064E071E080E6CD
:102CC0000E94FF321092ED04DF91CF911F910F917E
:102CD0000895C43BD10509F665EC8EEF0E944015BE
:102CE00061E08DEF0E944015B8CF1F921FB61F9272
:102CF00011248F939F93AF93BF9380913A088111D2
:102D000013C08091520690915306A0915406B09141
:102D100055064196A11DB11D80935206909353060E
:102D2000A0935406B0935506BF91AF919F918F9198
:102D30001F901FBE1F9018952FB7F89480915206D0
:102D400090915306A0915406B09155062FBF089557
:102D50000E949C1620913F0930914009232B21F0BD
:102D60008093D5089093D60820914109309142096B
:102D7000232B21F08093D3089093D408E091F4089A
:102D8000F091F508309749F082E080933D09048086
:102D9000F581E02D8DE399E009940895CF93C82F34
:102DA000882309F46BC08CEF8C0F813AA8F58091D1
:102DB0002B01882301F18091510987FF1CC0EC2F62
:102DC000E695E695E695F0E0E85CFC4F828190E0C0
:102DD0004C2F477021E030E002C0220F331F4A958C
:102DE000E2F782239323892B79F08C2F0E943D04F4
:102DF0000E944D1309C0EAE3F3E08191C817A9F3DB
:102E000023E0E034F207C9F76C2F88E393E00E94D7
:102E1000E20BCF910C944D1380E28C0F883068F454
:102E2000C77021E030E001C0220FCA95EAF7809117
:102E30004C09822B80934C09ECCF8BE58C0F8330AF
:102E400038F42C2F2452330BC901CF910C94B60BBC
:102E5000E8E5EC0FE73150F4F0E0EE0FFF1FE85F1C
:102E6000FC4F80819181CF910C94CC0BC03F30F00E
:102E70008C2F0E94A106CF910C94A816CF91089593
:102E8000882361F19CEF980F913A20F40E943D0451
:102E90000C944D1390E2980F983050F4877091E0A5
:102EA00001C0990F8A95EAF7892F0E946A04F0CF32
:102EB0009BE5980F933020F490E080E00C94B60BE3
:102EC00098E5980F973120F490E080E00C94CC0BBB
:102ED000803F20F00E94EA060C94A81608950F93F4
:102EE0001F93CF93C82F10E000E0893311F400E561
:102EF00010E08C2F0E94CE160115110531F48C2F95
:102F0000CF911F910F910C9440178FE99FE001978B
:102F1000F1F700C0000001501109EECF90E080E011
:102F20000E94B60B90E080E00E94CC0B10925309F7
:102F30000E944D1386E0EDE3F9E0DF011D928A95D2
:102F4000E9F710923C0910923B0910923A090C944F
:102F5000A81610924C0980912B01EAE3F3E0882334
:102F600059F08091510987FF07C08EE1DF011D9262
:102F70008A95E9F70C948E1786E0F8CF1F93CF93CC
:102F8000DF93CDB7DEB7AA970FB6F894DEBF0FBEBA
:102F9000CDBF8EE593E0FC0101962091F1002083E6
:102FA00023E086369207B9F780915F03893009F4F0
:102FB00056C0C8F4823009F4B3C0833009F482C02B
:102FC000813071F18091E80083FF84C280915E03BB
:102FD00090915F039A3008F07DC2E92FF0E0E8524B
:102FE000FB4C0C9454338A3009F489C08B3051F770
:102FF00080915E03813231F7809162039091630387
:10300000892B01F78091E800877F8093E8000E9478
:10301000960C8091600380932B010E94A917D2CF58
:1030200080915E03813A71F68091E800877F8093FA
:10303000E8008091620390916303892B61F460E260
:1030400089E693E070E00E943C0C8091E8008B7769
:103050008093E800B7CF60E090E080E0F3CF80910C
:103060005E03813209F0AECF8091620390916303D9
:103070008D7F892B09F0A6CF8091E800877F809310
:10308000E8008091E80082FF18C09091F3008091E1
:10309000F200029731F48091F100813011F0863016
:1030A00021F48091F100809389038091E8008B776F
:1030B0008093E8000E94960C85CF8091D8088111FA
:1030C000E0CF80CF80915E03813A09F07BCF809181
:1030D000620390916303892B09F074CF8091E8001B
:1030E000877F8093E8008091E80080FFFCCF80918B
:1030F0002B018093F1008091E8008E77D9CF8091E9
:103100005E03813209F05ECF8091E800877F809373
:10311000E8000E94960C8091610380935A0352CF7D
:1031200080915E03813A09F04DCF8091E800877F5E
:103130008093E8008091E80080FFFCCF80915A03E3
:10314000D8CF803899F0823809F0C4C180916203E9
:103150008F70873008F0BEC18093E9008091EB004A
:1031600085FB882780F91092E90006C080915B03F7
:1031700090913C08911182609091E800977F909324
:10318000E8008093F1001092F1008091E8008E77C2
:103190009DC1882309F48BC1823009F09BC18091C5
:1031A000600381118EC1809162038F702FEF280F11
:1031B000263008F08FC18093E9002091EB0020FFBA
:1031C00080C1933031F48091EB0080628093EB00FA
:1031D00078C19091EB0090619093EB0021E030E09A
:1031E00001C0220F8A95EAF72093EA001092EA00C4
:1031F0008091EB008860EACF81116CC1109160036F
:103200001F778091E3008078812B8093E300809189
:10321000E800877F8093E8000E94960C8091E80088
:1032200080FFFCCF8091E30080688093E30082E020
:10323000111183E08093D8084DC18058823008F086
:1032400049C140916003509161034C3D83E05807B0
:1032500099F583E08A838AE289834FB7F894DE0187
:10326000139620E03EE051E2E32FF0E05093570048
:10327000849120FF03C082958F703F5F8F708A30EA
:10328000C8F0895C90E08D939D932F5F243161F7A6
:103290004FBF8091E800877F8093E8006AE270E08A
:1032A000CE0101960E943C0C8091E8008B778093C0
:1032B000E80010C1805DE6CF8091620390916303C6
:1032C000252F33272330310509F44AC078F5213002
:1032D000310509F479C08BE590E0E4ECF1E02230AF
:1032E000310509F0F7C02091E800277F2093E8001E
:1032F00020916403309165038217930708F49C01C1
:1033000040E02115310509F064C0411162C080918F
:10331000E80082FDC9CF8091D808882329F2853042
:1033200019F28091E80083FFF2CFBECF2132310540
:1033300009F43BC02232310509F0CCC0833091053D
:1033400008F0C8C0FC01EE0FFF1FE95CFE4F0190C2
:10335000F081E02D8C5C9E4FDC018C9190E011C0DF
:10336000CA019927413089F082309105B1F0892B4B
:1033700009F0B0C0E1E6F2E0E4918E2F90E0E1E6E2
:10338000F2E0009709F4A6C0AECFEFE4F2E0E491DA
:103390008E2F90E0EFE4F2E0F4CFE1E3F2E0E4918D
:1033A0008E2F90E0E1E3F2E0ECCF8330910508F05E
:1033B00091C0880F991FFC01E35CFE4F0190F081E2
:1033C000E02D89E090E08FCF82E190E0EFE1F2E044
:1033D0008ACF8091D808882309F466CF853009F414
:1033E00063CF8091E80083FD5FCF8091E80082FD8C
:1033F0008ECF8091E80080FF84CF9091F300809180
:10340000F2002115310519F08830910550F041E0A6
:10341000089709F040E08091E8008E778093E800FB
:1034200070CF44914093F1003196215031090196BB
:10343000E8CF803809F04EC08091E800877F809304
:10344000E80080915C038093F1009FCE811142C01F
:10345000109160031230F0F58091E800877F80932F
:10346000E80010935C030E94960C112311F084E095
:1034700005C08091E30087FDFACF81E08093D808F2
:1034800042E061EC81E00E94971042E261EC84E04E
:103490000E94971042E261EC82E00E94971042E2A3
:1034A00060EC83E00E9497108091D80813C080914F
:1034B0006003813079F481E0933009F080E08093FB
:1034C0003C081092E9008091E800877F8093E80033
:1034D0000E94960C8091E80083FF0AC08091E8006A
:1034E000877F8093E8008091EB0080628093EB00FF
:1034F000AA960FB6F894DEBF0FBECDBFDF91CF9175
:103500001F91089580934E090C948E1780934F0954
:103510000C948E1721E030E001C0220F8A95EAF763
:1035200080914F09822B0C94861A21E030E001C073
:10353000220F8A95EAF7209580914F0982230C94F7
:10354000861A909150098095892380935009282FDD
:10355000277091F4282F082E000C330B92171306B6
:1035600059F09091520992FD07C0859585958595F2
:103570000E94951A109250090895CF93C091520954
:10358000C2FB992790F9981799F080FBC2F9C09374
:1035900052096091510984E090E00E943F346C2F01
:1035A00082E290E00E943F3482E0CF910C94A11A15
:1035B000CF91089580914F09982F9670963019F405
:1035C00088600C94861A877FFCCF9C014FB7F894D3
:1035D0008091520690915306A0915406B0915506E1
:1035E0004FBF821B930B08954F925F926F927F9211
:1035F0008F929F92AF92BF92CF92DF92EF92FF9203
:103600000F931F93CF93DF93CDB7DEB72C970FB6F1
:10361000F894DEBF0FBECDBFFE0131968CE0DF0116
:103620001D928A95E9F792EFE92E92E0F92E8F012B
:1036300028EF622E22E0722E2F01AA24A394B12C2F
:1036400048E0842E43E0942EF70181917F018F3F63
:1036500009F445C0F894E82FE295EF70F0E021A15D
:103660008F70A50102C0440F551F8A95E2F7CA0169
:10367000922F982B91A392A18095892382A378946D
:1036800000C0E8EFF2E021E030E0D12CC12C419104
:103690004F3F09F45DC0A42FA295AF70A05EB0E0CB
:1036A0008C9190E04F7002C0959587954A95E2F70E
:1036B00080FD4EC0C901C82AD92A220F331F8E1699
:1036C0009F0629F7F701319780818F3F11F00E9403
:1036D000460650EA5A95F1F7D801CD92DC920E5F7A
:1036E0001F4F6E147F0409F0AFCF4CE050E0B201E1
:1036F00088EE98E00E94E2339C0111E0892B09F4E6
:1037000010E0232B41F18CE0F201A8EEB8E001902B
:103710000D928A95E1F781E08093DB080E949C1668
:103720009093DA088093D9088091D9089091DA08AB
:103730000E94E51A059798F08CE0E8EEF8E0ACED11
:10374000B8E001900D928A95E1F71092DB0807C06E
:1037500080E090E0B0CF8091DB088111E5CF812F30
:103760002C960FB6F894DEBF0FBECDBFDF91CF9180
:103770001F910F91FF90EF90DF90CF90BF90AF908F
:103780009F908F907F906F905F904F9008953F92A1
:103790004F925F926F927F928F929F92AF92BF9261
:1037A000CF92DF92EF92FF920F931F93CF93DF930D
:1037B00000D000D00F92CDB7DEB7782E80911C01DB
:1037C000871124C090914609937020911B0130E02D
:1037D00081E09217130609F480E0817080931A014A
:1037E00080914B0990911901981739F08093190134
:1037F00040E060E080E00E947A0B09E2071560F08B
:10380000E72DF0E0EE51FB4C0C94543381E0E5CF12
:1038100080911A01811102C01D82C8C140E060E0A0
:1038200080E00E947A0BF8CF10911801110F110F50
:1038300019831C5FD12E1E3610F0FDE6DF2E60913D
:10384000470970914809809149090E946307062F32
:10385000F72EE82E3981232F30E03A8329835981CE
:103860005D1530F001E00D831D3608F49FC1D4CF03
:10387000E981FA81EB57FD4F8081909119018923ED
:1038800039F02E2D402F6F2D89819A810E94780B5F
:1038900049815A814F5F5F4F5A834983E0CF10912E
:1038A0001801110F110F19831C5FA12E1E3610F085
:1038B000EDE6AE2E009147090D83C0904809D090E7
:1038C0004909602F7C2D8D2D0E946307062FF72E4E
:1038D000E82E80914A096D81680F7C2D8D2D0E9404
:1038E0006307D62EC72EB82E3981232F30E03A83B6
:1038F000298359815A1508F0B5CFE981FA81EB5730
:10390000FD4F908180911901892361F02B2D4D2D60
:103910006C2D90FD03C02E2D402F6F2D89819A8133
:103920000E94780B49815A814F5F5F4F5A834983C8
:10393000E0CF10911801110F110F19831C5FF12EA8
:103940001E3610F07DE6F72EE0904809D090490928
:1039500020914A0900E4029F012D11243981232F6F
:1039600030E03A83298359815F1508F07BCFE981E4
:10397000FA81EB57FD4F8081909119018923C9F09D
:10398000E981FA81EE0FFF1FE455FE4F8081829599
:103990008F7060914709809F600D11247E2D8D2DC1
:1039A0000E946307462F672F282F89819A810E94E2
:1039B000780B49815A814F5F5F4F5A834983D3CF38
:1039C00010911801110F110F19831C5FF12E1E3673
:1039D00010F05DE6F52EE0904809D090490920915D
:1039E0004A0900E4029F012D11243981232F30E080
:1039F0003A83298359815F1508F034CFE981FA8130
:103A0000EB57FD4F8081909119018923E9F0E981FD
:103A1000FA81EE0FFF1FE555FE4F8081089FC00120
:103A2000112445E0959587954A95E1F760914709FE
:103A3000680F7E2D8D2D0E946307462F672F282F3C
:103A400089819A810E94780B49815A814F5F5F4F2B
:103A50005A834983CFCF10911801110F110F198389
:103A60001C5FD12E1E3610F02DE6D22E0091470994
:103A7000209148092D83F090490960914A09669583
:103A80006695669580910D0890910E080E94F40746
:103A90000E944308805887FD8195880F282F3F2D6D
:103AA000239F212D1124602F7D81822F0E94630787
:103AB000062FF72EE82E5981452F50E05A8349836F
:103AC00099819D1508F0CECEE981FA81EB57FD4F23
:103AD000808190911901892339F02E2D402F6F2D6F
:103AE00089819A810E94780B89819A8101969A83B3
:103AF0008983E6CF81E998E00E94030F8D8356C049
:103B00008CEB98E0F9CF89EE98E00E94B30DF6CFE8
:103B100087E099E0FACF86E299E00E94110EEECF9D
:103B200081E499E0FACF8CE599E0E6CF8EE599E063
:103B3000E3CF87E699E0E0CF80E799E0DDCF89E841
:103B400099E0EBCF88E999E0E0CF81EC99E0DDCF17
:103B500082ED99E0E2CF86EE99E00E94900ECECF02
:103B600084E19AE0FACF83E49AE0F7CF10911A014A
:103B70001D83111146C060914A0920E1620F08F4CB
:103B80006FEF80910D0890910E080E94F4076AE093
:103B900070E00E942C33892B09F03ECE0E94C9337D
:103BA0006DE670E00E9440330E944314809118013A
:103BB0008F5F809318011D8111110CC082E08093EA
:103BC0002C0180911A01811105C0711003C083E09E
:103BD00080932C010F900F900F900F900F90DF911A
:103BE000CF911F910F91FF90EF90DF90CF90BF90FA
:103BF000AF909F908F907F906F905F904F903F908D
:103C0000089520911801220F220F298394E0F92EA4
:103C1000F20E0F2D3DE63F1508F40DE65981452FB4
:103C200050E05A83498310E0A981BA81A017B107F7
:103C30003CF001E00D831CE61F1508F0B7CFECCD7A
:103C400089819A810E94431489819A8101969A837D
:103C50008983EACF00911A010D8301111CC0609184
:103C60004A0920E1620F08F46FEF80910D089091EE
:103C70000E080E94F40765E070E00E942C33892B47
:103C800009F0CACD0E94C9336DE670E00E9440334E
:103C90000E948B148BCF10911801110F110F1983F3
:103CA00084E0F82EF10E0F2D2DE62F1508F40DE609
:103CB0005981452F50E05A83498310E0A981BA8188
:103CC000A017B1070CF0B5CF89819A810E948B149F
:103CD00089819A8101969A838983F0CF2091180176
:103CE000220F220F2983122F1C5FD12E1E3610F0B7
:103CF0000DE6D02EF090480900914909309147090E
:103D00003D8360914A0966956695669580910D0898
:103D100090910E080E94F4070E944308805887FD86
:103D20008195880F682F3CE0639F612D11244D81A0
:103D3000640F7F2D802F0E946307062FF72EE82E39
:103D40009981892F90E09A838983B981BD1508F004
:103D500089CDE981FA81EB57FD4F8081909119015E
:103D6000892339F02E2D402F6F2D89819A810E9451
:103D7000780BA981BA811196BA83A983E6CF8CE723
:103D80009AE0BACE8FE99AE0B7CE409156065091AC
:103D90005706609158067091590680910D089091D0
:103DA0000E08A0910F08B091100884179507A60778
:103DB000B70708F431CD0E942E08182F0E942E0854
:103DC0009DE6891BF0F7890F282F30E03A8329837D
:103DD000F901EB57FD4F808190911901892309F476
:103DE00075C320E040E060E011FD13C00E942E0882
:103DF000182F0E942E08782F76952FE7720F08F45F
:103E00007FEF612F809149090E946307462F672F3A
:103E1000282F89819A810E94780B20914A0930E1EC
:103E2000230F08F42FEF60E1822F90E00E94F40747
:103E3000BC0184EF91E00E942C3380910D08909199
:103E40000E08A0910F08B0911008860F971FA11DB2
:103E5000B11D8093560690935706A0935806B093D1
:103E60005906DACC4091A1075091A2076091A307AF
:103E70007091A40780910D0890910E08A0910F08F1
:103E8000B091100884179507A607B70708F4C4CCAB
:103E900080911A01811152C030911801330F330FF4
:103EA0003983132F1C5F012F1E3608F00DE6498160
:103EB000E42EF12CA3E04A9FC0011124865A994FA9
:103EC0009A838983E01608F479C001E00D831D36DA
:103ED00008F01D821D3608F469CE44E451E06DE51A
:103EE00076E08AE596E00E94F8330E942E0881FF72
:103EF0007FC010929E0710929F071092A0070E9409
:103F0000B00A69837A838B839C8380910D0890919A
:103F10000E08A0910F08B091100829813A814B81B9
:103F20005C81820F931FA41FB51F8093A1079093FC
:103F3000A207A093A307B093A40738CE40E060E0A7
:103F400080E00E947A0BAAE5EA2EA6E0FA2E10E0A5
:103F500000E0BFE7CB2E0E942E0881FF10C0D701E2
:103F60001C9211961C92119712961C920F5F1F4F74
:103F7000B3E0EB0EF11C0D36110569F78DCF0E94F1
:103F80002E08D82E0E942E08782F76952C2D720F91
:103F900008F47FEFA801440F551F400F511F465AE8
:103FA000594F5A8349836D2D809149090E946307B7
:103FB000A981BA816D937D938C93D8CFF701EB578C
:103FC000FD4F808190911901892341F0E981FA81A7
:103FD000228140816181C7010E94780B29813A8149
:103FE0002D5F3F4F3A8329833FEFE31AF30A6ACFED
:103FF0000E942E0889830E942E08782F76952FE73D
:10400000720F08F47FEF6981809149090E9463076C
:1040100060939E0770939F078093A00770CF409195
:104020000508509106086091070870910808809172
:104030000D0890910E08A0910F08B09110088417F8
:104040009507A607B70708F4E7CB80911A018823E4
:1040500029F040E060E080E00E947A0B609147091F
:1040600070914809809149090E946307962E872E16
:10407000682E05EA17E01A8309830BE411E0E5E0F6
:104080004E2EE8E05E2E6801E980FA80B12CD7015F
:104090002D917D01F60181916F0190E0222309F4B9
:1040A0005FC0262D492D682D0E94780BD7018C9179
:1040B000F70131978083B394B7E0BB12E8CFE98072
:1040C000FA80EFE0EE0EF11C6801F0E1CF0ED11C9A
:1040D00056017FE0372ED5018E915D0190E0F7010A
:1040E0002081222309F440C0262D492D682D0E94ED
:1040F000780BD7018E917D0111968C933A94B8E09C
:104100003B12E9CFF801808590E0A981BA81189629
:104110002C91222369F1262D492D682D0E94780BC0
:10412000F801878190E0A981BA8117962C9122230A
:1041300019F1262D492D682D0E94780B0E942E081A
:10414000837091E009F090E0E981FA81978390878C
:104150007096FA83E9834E165F0691F0860193CF3D
:1041600020E040E060E0A0CF20E040E060E0BFCF92
:1041700020E040E060E0D2CF20E040E060E0DCCF33
:104180000E94B00A69837A838B839C8380910D0897
:1041900090910E08A0910F08B091100809811A8122
:1041A0002B813C81800F911FA21FB31F80930508B4
:1041B00090930608A0930708B09308082DCB1091A0
:1041C0001801110F110F198364E0562E510E152D91
:1041D00020E6251508F410E680911A01882361F085
:1041E00040E060E080E00E947A0BEDE3F8E080E6DA
:1041F000DF011D928A95E9F780911801811117C09E
:1042000080910A0890910B080E94E51A9C0181E0B8
:104210002931310508F480E08093090829313105FE
:1042200030F00E949C1690930B0880930A08F98145
:10423000EF2FF0E0FA83E983812E912C46E0A42E43
:10424000B12C5AEA452E09811A81081519053CF04E
:1042500011E01D832FE5251508F0A8CCDDCA898162
:104260009A81B5010E9440336B018C0134E0000F4C
:10427000111F3A95E1F7F801E35CF74FE60FF71FDE
:104280006080F801E55BFE4FE60FF71F80818F3FEE
:1042900051F1E82EF12CF701EB57FD4F8081909101
:1042A0001901892301F1462D25E5421B08F440E060
:1042B00070914809342D562D350F08F43FEF509179
:1042C0004909232F220F230F2E5F259F212D112413
:1042D000642D641B822F0E946307462F672F282FAF
:1042E000C7010E94780B80910908882359F0262D78
:1042F00031E0231B08F420E0035C174FF801EC0DBC
:10430000FD1D208309811A810F5F1F4F1A830983C6
:104310009ACF80911A01882371F040E060E080E03C
:104320000E947A0BEDE3F8E080E6DF011D928A95AA
:10433000E9F710920C080DE318E0F12CE12C55245C
:104340005A9480EDA82EB12C90EC492E2FE2822EAB
:10435000912C67011A830983612C80910C088629AE
:1043600009F040C00E94C93385359540DCF5F8015D
:104370005082F601E55BFE4FE081EF3FA9F0A98195
:10438000BA812C91F0E0213DA8F1205D330B429ED3
:10439000C001439E900D1124B4010E942C33262F9E
:1043A0004FEFCF010E94780B6394E981FA817096F8
:1043B000FA83E983F0E1CF0ED11C26E06212CDCF63
:1043C0003FEFE31AF30A0F5F1F4F40E1E416F104D9
:1043D00009F0BFCF80910C088F5F8D31A8F48093D6
:1043E0000C081ACAA981BA818C9181508E3F08F6B7
:1043F0008C93BFCF259DC0011124B5010E942C33A1
:10440000462F20E060E0CDCF10920C082DE738E079
:1044100085E06DE978E09EEFEDE8F8E07901853020
:1044200021F440814F3F09F49083D7014D917D01E4
:104430004F3F49F46D01B1E0CB1AD108D6019C93EE
:10444000D7011F964C9331966E177F0741F7815025
:10445000205131098111E0CFDFC980ED9AE00E943F
:10446000500F4CCB87ED9AE0FACF2091110831E044
:10447000231B08F420E06DED7AE0822F03C06DED80
:104480007AE080E00E94CE0F39CB2091110831E014
:10449000231B08F420E067EF7AE0EFCF67EF7AE0C4
:1044A000F0CF2091110831E0231B08F420E06FE2E7
:1044B0007BE0E3CF6FE27BE0E4CF2091110831E0B5
:1044C000231B08F420E061E67BE0D7CF01E00D83F9
:1044D0006DCB4F925F926F927F928F929F92AF922D
:1044E000BF92CF92DF92EF92FF92CF93C0904E0691
:1044F000D0904F06E0905006F09051068FB7F89498
:1045000040905206509053066090540670905506A5
:104510008FBF530142018C189D08AE08BF080E944E
:10452000180C60934E0670934F068093500690933C
:104530005106A0919D08EDE9F8E04A2F50E02FEFD9
:10454000C20ED21EE11CF11CC418D508E608F708FB
:10455000A5132EC040939D0820913B08C0E0211177
:1045600008C020914609C22FC37019F0C22FC6950A
:10457000C69520912C01223009F45AC060F5211112
:104580003AC01092180160930D0870930E08809342
:104590000F089093100889E2EDE9F8E0A1E1B8E096
:1045A00001900D928A95E1F781E080932C0115C06E
:1045B000218D328D2901712C612CC414D504E6049F
:1045C000F70420F441505F5F3296C2CF280D391DA9
:1045D000328F218FF8CF2330D9F1CF91FF90EF9018
:1045E000DF90CF90BF90AF909F908F907F906F9013
:1045F0005F904F9008958C2F0E94C71BCC2369F3C6
:104600000E94AA0B81FFE9CF2FEF4FEF6FEF8CE2F3
:1046100090E0CF91FF90EF90DF90CF90BF90AF9060
:104620009F908F907F906F905F904F900C94780B3D
:104630008C2FCF91FF90EF90DF90CF90BF90AF90F5
:104640009F908F907F906F905F904F900C947C0B19
:1046500080914509882351F046E050E06CE170E01C
:1046600086E499E00E942F341092450940910D088C
:1046700050910E0860910F08709110082FB7F894B0
:104680008091520690915306A0915406B091550620
:104690002FBF841B950BA60BB70B4A97A105B1053D
:1046A00008F49BCF10922C0198CFFF920F931F9389
:1046B000CF93DF93C62FD42F122F8823A9F06093B6
:1046C00043090E949C169093590380935803C77026
:1046D00081E001C0880FCA95EAF7DF91CF911F9161
:1046E0000F91FF900C94A21380914309681334C07A
:1046F00080915803909159030E94E51A883C9105D6
:1047000058F500E20D0FCD17A9F0C770FF24F39400
:104710008F2D01C0880FCA95EAF70E94AC130830AC
:1047200048F48D2F877001C0FF0C8A95EAF78F2D12
:104730000E94A213812F0E946F170830A0F4D77037
:1047400081E001C0880FDA95EAF7DF91CF911F91E0
:104750000F91FF900C94AC13C77081E001C0880FDB
:10476000CA95EAF7F2CFDF91CF911F910F91FF9099
:1047700008953F924F925F926F927F928F929F9295
:10478000AF92BF92CF92DF92EF92FF920F931F935F
:10479000CF93DF9300D000D0CDB7DEB77C01FC0112
:1047A0009081818123813481232B21F089238F3FC4
:1047B00009F073C50F900F900F900F90DF91CF917C
:1047C0001F910F91FF90EF90DF90CF90BF90AF902F
:1047D0009F908F907F906F905F904F903F90089543
:1047E000980122513F452031310508F0FCC48FEF7C
:1047F00093E00E942134025147EA842E9924939435
:10480000882389F1809150098770A1F2F701828194
:10481000882381F28091520982FDCCCF82E00F90F3
:104820000F900F900F90DF91CF911F910F91FF90FC
:10483000EF90DF90CF90BF90AF909F908F907F9040
:104840006F905F904F903F900C94A11A8114F4E008
:104850009F06C1F2C4010E942134811101C00150A0
:104860002FEF821A920A0111F1CF809130019091BD
:104870003101A0913201B091330189839A83AB83D6
:10488000BC83442443943AE0332E84010F5F1F4FCE
:10489000C4010E94213489831A82882309F4B2CF8B
:1048A0009FEF980F9330F8F48A83498232E0830EA9
:1048B000911CC8010E9421348B83882309F4A2CF64
:1048C0008E010F5F1F4FF80120812223F1F221306A
:1048D00009F044C091818281913039F40E5F1F4FFD
:1048E0000E946F1708C04801EBCF923039F40E5F79
:1048F0001F4F0E94CE160F5F1F4FE5CF933029F454
:104900000E5F1F4F0E944017F6CF943019F00F5FD3
:104910001F4FF1CF0E5F1F4F20E030E0A8014F5F27
:104920005F4F8053990B8A30910560F02115310556
:1049300011F38FE99FE00197F1F700C000002150CB
:104940003109F4CF329EB001339E700D11249C01C9
:10495000260F371FF80181818A01E0CFE22FF0E0B6
:10496000E753F94F5490822F86958695869590E06F
:10497000FC01E754F94FE4912770F0E0022E02C0E9
:10498000F595E7950A94E2F73F0131E06322772439
:10499000FC01E755F94FA490B12C022E02C0B5944A
:1049A000A7940A94E2F7E1E0AE22BB24FC01E756AB
:1049B000F94FC490D12C02C0D594C7942A95E2F740
:1049C000F1E0CF22DD246114710419F081EE0E9420
:1049D000CE16A114B10419F086EE0E94CE16852DD4
:1049E0000E946F17AB2819F086EE0E9440176728C7
:1049F00019F081EE0E944017CD2809F47CCF8CE29B
:104A00006FCF81E00E948A1A0E94DA1AFBCE81E001
:104A10000E94951AF9CF82E0F5CF053F2CE51207E9
:104A2000D1F027E245EE66EE063F3CE5130741F084
:104A300027E245EE64EE043F9CE5190709F0F8C350
:104A40000E945523DFCE27E245EE65EEF9CF26E240
:104A500041EE60EEF5CF26E241EE62EEF1CF980135
:104A60002A5F3C452930310508F4F7C306313CE59F
:104A7000130709F42CC405C0053A8DE5180709F49D
:104A8000ECC30A35FDE51F0709F07AC181E096C144
:104A9000F801E350FC45809151098160E331F10553
:104AA00050F5E45FFA4C0C9454330330FDE51F07D6
:104AB00078F40A3F2CE5120708F4DFC3F801EB5F36
:104AC000FC45E830F10510F5E15EFA4C0C945433E6
:104AD00001363DE5130709F496C0053A1D4509F076
:104AE000CCC390915109892F8E7F90FF816003C0C4
:104AF00080915109826080935109BFC3809151090F
:104B00008460F9CF809151098860F5CF8091520976
:104B1000816080935209B1C3809152098260F9CFBC
:104B2000809151098061E7CF809151098062E3CF84
:104B3000809151098064DFCF0E94A91780915109AB
:104B40008068D9CF809151098C60D5CF809152096E
:104B50008360DFCF809151098E7FCDCF8091510945
:104B60008D7FC9CF809151098B7FC5CF809151092D
:104B7000877FC1CF809152098E7FCBCF8091520920
:104B80008D7FC7CF809151098F7EB5CF809151091C
:104B90008F7DB1CF809151098F7BADCF0E94A91736
:104BA000809151098F77A7CF80915109837FA3CF3F
:104BB000809152098C7FADCF8091510982FB99275A
:104BC00090F921E0922790FB82F990FB83F993CF33
:104BD00080915209982F909591708E7F892B90FB30
:104BE00081F997CF0E94A91790915109892F97FBBE
:104BF00087F9805880CF61E08EE090E00E943F34DA
:104C00003CC360E0F9CF90915109892F8F7E94FFCA
:104C1000806171CF80914409811104C089E20E94B2
:104C20003D0468C385E3FBCF80914C098272063D49
:104C30009CE5190778F4023CECE51E0778F0F801D2
:104C4000E35CFC45E331F10508F04EC0E95DFA4C48
:104C50000C9454330D351D4509F4D4CDF7018281F0
:104C6000C080D180882309F4BBC0C6010E94D11244
:104C7000182F682FC6010E94DF03B601812F0E9402
:104C8000C4120E94BB048C01F7019280858082943B
:104C90002FE08222809150098770C1F0C92C9920A1
:104CA000B1F0812F807F803421F080E2800F883046
:104CB00068F08091520982FD09C082E00E94A11A29
:104CC000809150098770CC24C3948111C12C812F0D
:104CD00082958F70A82EB12C8C3008F0EEC0F501B3
:104CE000E65CFA4C0C9454338091460991E0892794
:104CF0008093460910922C01809145098160809330
:104D0000450980CD48EA5DE06EE97DE00E94A50B93
:104D100079CD4EE95DE068EA7DE0F8CF4EE15DE0F7
:104D200065E17DE0F3CF45E15DE06EE17DE0EECF52
:104D300043E35DE067E27DE0E9CF47E25DE063E306
:104D40007DE0E4CF4BE45DE06FE37DE0DFCF4FE358
:104D50005DE06BE47DE0DACF47E95BE069E87BE0AA
:104D6000D5CF49E85BE067E97BE0D0CF81E00E94E6
:104D7000810D48CD85E0FBCF8DE0F9CF82E1F7CF03
:104D80000B352DE5120758F401153CE51307C9F062
:104D90000E3D1C4509F062CF0E94B31333CD0B3595
:104DA0009DE51907D9F00C351D4509F057CF8091C5
:104DB000520982FB882780F991E089270E94BD1A59
:104DC0004DCF0E94A917FFEF24E33CE0F1502040B3
:104DD0003040E1F700C000000E94281180E0EECFD3
:104DE000C6010E940B04182F48CFF12FFF70DF2E51
:104DF000107F19F0D29490EFD9229920B9F0DD20DC
:104E000069F080E2800F883010F0011109C08091B4
:104E10004C098D2980934C090E944D13802F4BC063
:104E2000809153098D2980935309F6CF802F0E94DA
:104E30004017DD2009F441C080E2800F883010F077
:104E4000011104C08D2D0E946A0406C0D094809187
:104E500053098D21809353090E944D132EC0212F99
:104E60002F70D22E107F103219F0D29480EFD822FA
:104E7000002381F0013009F482C0992009F48CC02C
:104E8000882009F482C0F701858180FFC7CF8F7029
:104E900085837BC02091520922FF4EC0992009F4DE
:104EA00045C0DD2039F080914C098D2980934C0953
:104EB0000E944D1380E00E94CE1698E0A91AB10816
:104EC000E4E0AE16B10410F40E94AA0BCC20A9F0C5
:104ED0008091500980FD11C0F7011282859585955A
:104EE00085950E948A1AC7010E94B92380915009B2
:104EF0008595859585950E94951A60E0C7010F906C
:104F00000F900F900F90DF91CF911F910F91FF9015
:104F1000EF90DF90CF90BF90AF909F908F907F9059
:104F20006F905F904F903F900C94001380E00E9430
:104F30004017DD2011F286CF9920A1F090914D0904
:104F40008D2D892B811003C00E94A213B6CF31E0B2
:104F50008312FACF22FDB1CF981709F4AECF809318
:104F60004D09ABCF811006C00E9472048D2D0E94A6
:104F7000AC13A3CF81E0881609F49FCFF5CF992019
:104F800031F095E0981508F498CF8D2DDDCFE4E051
:104F9000E81508F492CFEACF882041F3093349F4A9
:104FA000FFEF27EE33E0F15020403040E1F700C042
:104FB0000000802F0E94401780CF812F8695869514
:104FC000837061F0813009F078CFC801937091103F
:104FD00002C090E080E00E94CC0B6FCFC8019370BC
:104FE000911002C090E080E00E94B60B66CF802F47
:104FF000992029F00E94A1060E94A8165ECF0E9467
:10500000EA06FACF812F8370A1F5911056CF802F39
:10501000829586958770880F880F402F4F70082ED5
:1050200001C0440F0A94EAF7202F207104FF07C043
:105030002FE030E001C0220F8A95EAF720951695FF
:1050400016951370123081F0822F842B133031F0BB
:1050500080914E09113029F0242B82230E94821A5C
:105060002CCF842B822BFACF242B80914E098227C0
:10507000F5CF992061F110FF20CF802F8295869582
:105080008770880F880F402F4F70082E01C0440F83
:105090000A94EAF7202F207104FF07C02FE030E0C8
:1050A00001C0220F8A95EAF7209516951695137080
:1050B000123099F0822F842B133031F080914F09F8
:1050C000113041F0242B82230E94861AF6CE11FF64
:1050D000F4CED3CF842B822BF7CF242B80914F0992
:1050E0008227F2CF1F70992029F0812F0E948A1AFF
:1050F000802F2ACF802F0E94AC13812F0E94951AF7
:10510000DCCE023F81F160F4003FB9F0013F81F055
:10511000992009F458C0811081CE812F8F7127C04A
:10512000033F41F1043FA1F78091520982FF2DC056
:10513000812F8F71992011F31AC0992079F084E0A2
:10514000881508F4BACE1F7181E090E001C0880F85
:105150001A95EAF790914F098927B6CF95E09815EF
:1051600008F4ABCEF0CF812F8F719110C7CF0E9482
:105170008A1AA3CE80E0992009F4A6CF1F7181E09E
:1051800001C0880F1A95EAF79FCF992089F01F7107
:10519000812F0E948A1A8091520982FD07C0E8E09F
:1051A0001E9FC0011124836080935009812FDFCF9F
:1051B00081E00E94A11AF1E0F81508F07ECE82E0AD
:1051C0000E94A11A7ACE882059F0093309F0F1CE55
:1051D0002FEF37EE83E0215030408040E1F7E7CEFB
:1051E000812F8F718BCF0031FFE51F0709F409CCA8
:1051F00001312FE5120709F40ECC033F2CE512070D
:1052000009F425CC08F009CC083D9CE5190709F400
:105210001ACC28E241E0093DECE51E0709F415CC63
:1052200026E241EE61EE073DFCE51F0709F408CCDC
:10523000882309F447C0109243090136EDE51E07A3
:1052400061F008F019CC06312CE5120708F007CC04
:1052500002303CE5130708F414CC0E9477129093B7
:1052600052098093510906319CE5190708F01DCCBD
:105270000230ECE51E0708F00BCC6091510910914B
:10528000520984E090E00E943F34612F82E290E076
:105290000E943F340E94A917B5CA61E0C7010E946D
:1052A00000138C01F701828181119ACA00313FE518
:1052B000130709F4ACCB01319FE5190709F09DCF25
:1052C00082E0A6CB06312CE5120709F0ADCC909117
:1052D0004C09882309F49ECC892F8A7A91E009F43D
:1052E00090E09093440969E2811165E388E393E0DB
:1052F0000E94E20B0E944D1385CA1F93CF93DF9348
:1053000080918B09807FA9F480918809882389F096
:1053100080915509C091540970918609609187095F
:10532000A0918909B0918A09D62FD72316E0C81316
:1053300004C0DF91CF911F91089590E0109711F074
:10534000DF3F19F401968770F2CF189F9001199FE3
:10535000300D1124F901EA5AF64F41816413F2CF5E
:1053600040814713EFCF42814111ECCF43815481FB
:105370004A1B5B0B483C510528F780918B098F70C5
:10538000806180938B09F901E55AF64F80818F7017
:105390008061808386E899E00E94B923DF91CF91F4
:1053A0001F910C9433048F929F92AF92BF92DF9221
:1053B000EF92FF920F931F93CF93DF93CDB7DEB79A
:1053C0002B970FB6F894DEBF0FBECDBF8C0185E0E2
:1053D000F801DE01179601900D928A95E1F7F80128
:1053E000E280A380B48086E8882E89E0982E909190
:1053F0008609809187092091890930918A092115B0
:10540000310529F0482F49234F3F09F028C1EE20EC
:1054100009F433C1F801808191810E942D13F82E87
:10542000882309F42AC186E0F801A6E8B9E00190D2
:105430000D928A95E1F70E947D2921C0D0908B09B9
:105440004D2D407F283C310508F0A8C0F80121818E
:105450004111C3C0FE2C281325C08081891322C0AE
:10546000E11020C08D2D8F70806180938B0986E8BC
:1054700099E00E94B92380918B09F80185838F2DD3
:105480002B960FB6F894DEBF0FBECDBFDF91CF9144
:105490001F910F91FF90EF90DF90BF90AF909F9082
:1054A0008F9008953F81AB2829F0822F83238F3F6F
:1054B00009F090C080E0F82FF170DF2EE0915509DF
:1054C0004091540956E080FD1CC0EE20C1F280914D
:1054D0008B09816080938B09F12CD1CF8E2F90E0C6
:1054E0005E9FF0011124EA5AF64F6181261306C02F
:1054F0006081361303C06281E612E7CF0196E82F80
:10550000E770E413EBCF8F8198850E941F13292F3A
:1055100022952F70903260F0225F2F70223078F445
:105520009F7051F0F8019581907F31F4D12C0AC021
:105530009F7011F08823D1F3805E8830B8F3C801E2
:105540000E94B923FD2C9BCFF801808191810E949C
:105550002D13882309F491C0EE2009F48EC08091A8
:105560008B09803270F080918609909187099A8327
:1055700089831B82BD82AC82DE82CE0101960E94AD
:10558000B92386E0F801A6E8B9E001900D928A956A
:10559000E1F70E947D29FF24F39471CF411132C0BD
:1055A00086E899E00E94B92386E0F40111928A9579
:1055B000E9F792CFF801808191810E942D1381112A
:1055C000E0CF80918B09816080938B09C8010E9494
:1055D000B92355CF81E08E256ECF2813B5CFF801C2
:1055E00080818913B1CFE110AFCFD582C8010E946D
:1055F000B92386E0F801A6E8B9E001900D928A95FA
:10560000E1F73DCFF801218182139ECFF80180811F
:1056100089139ACFE11098CFD582C8010E94B9238F
:1056200086E0F40111928A95E9F729CFF8012181EA
:105630008213C0CFF80180818913BCCF80918B0980
:1056400080FDD7CF982F907FA1F28583903F71F294
:10565000982F907F905F8F70892B8583C7CFF090B4
:105660008809A501421B530B9A01F110E7CE283C93
:105670003105B0F6FE2CE110D9CFC8010E94B92344
:105680008ACF1F93CF93DF93CDB7DEB767970FB65F
:10569000F894DEBF0FBECDBF342F4B8B252F5C8B14
:1056A000962F6D8B7E8B8F8B4E895F896111109247
:1056B00053091A8A3D872E879F87598B488B86E02E
:1056C000FE013D96DE01179601900D928A95E1F755
:1056D000CE0107960E94D329882389F016E0809195
:1056E000550990915409891349C067960FB6F894EB
:1056F000DEBF0FBECDBFDF91CF911F91089586E031
:10570000FE013796DE01119601900D928A95E1F720
:105710009F81888520915409409155096A857B8530
:10572000672BE1F289238F3FC9F230E0C90101966E
:10573000877099274817190671F40E94A9171092CB
:1057400054091092550986E0E6E8F9E0DF011D9260
:105750008A95E9F7C3CF96E0929FD001939FB00D51
:105760001124AA5AB64FFE01319601900D929A95D6
:10577000E1F7809354090E943304B0CF819FC001A8
:1057800011248A5A964F0E94D329882309F4ADCF59
:105790008091550990E0019687709927809355096B
:1057A0009ECFCDB7DEB7A5970FB6F894DEBF0FBE7C
:1057B000CDBF84B7877F84BF0FB6F894A89580913A
:1057C0006000886180936000109260000FBE80E8E6
:1057D00090E00FB6F89480936100909361000FBE43
:1057E00085B7806885BF85B7806885BF84E496E00B
:1057F00090933703809336030E94E60C0E94C710F3
:105800008091E20084608093E20078948091D808CF
:10581000882399F08091E9001091EC0017951127E9
:1058200017958F70182B1092E9008091E80083FD86
:105830000E94BE171F701093E90082E084BD93E0C0
:1058400095BD9AEF97BD80936E000E9485128111DD
:1058500002C00E94681202EF12E078EFE72E72E0B9
:10586000F72ED8018D918D018F3F11F00E944606D1
:10587000E016F106B1F708EF12E068E0E62E63E00B
:10588000F62EF80181918F018F3F11F00E9446069C
:10589000E016F106B1F78CE0ECEDF8E0DF01282F1F
:1058A0001D922A95E9F7E8EEF8E0DF011D928A954E
:1058B000E9F70E941D14811102C00E94B31382E017
:1058C00090E00E9421348093C6080E947712909342
:1058D0005209809351090E94F41AEFE3FCE93197D1
:1058E000F1F700C000000E94F41A8091DC0880FFEC
:1058F00008C06FEF7FEF90E080E00E945D340E946F
:10590000281183E090E00E9421340E94821A0E94B4
:105910004C151092110840E150E06FEF70E08AE200
:1059200098E00E940A3410929D0840E150E06FEF29
:1059300070E086EB98E00E940A340E941D148111E9
:1059400004C00E94B3130E94281446E050E06CE1AA
:1059500070E086E499E00E9411341092450980912C
:1059600046098C7F11F40E9428148FE191E09093F6
:10597000F5088093F4085524539448EE642E48E0CB
:10598000742E58E0252E312C8091D80830E4F32E67
:1059900000E112E1853009F4ECC00E94F41A811193
:1059A0000E94180C2CEDA22E28E0B22EE7ECF8E0B5
:1059B000D50110E000E0E02ECD90DD9021913191F5
:1059C0002C153D0509F499C22C253D25F12C882480
:1059D0008394912CA90148215921452B09F487C2B0
:1059E000F982EA82C820D92081E0C114D10409F4E7
:1059F00080E08B830E949C168160782F9D838C832E
:105A000049815A816B81892F0E94412BF801EE0F49
:105A1000FF1FE953F74F8081918188259925918354
:105A20008083CD2871F0F801B4E0EE0FFF1FBA9526
:105A3000E1F7E55BFE4FEF0DF11D80818F3F09F02F
:105A4000A4C0412CC42CD12C80919D088C0D9D2D7F
:105A5000911D09975CF141018C189D08B6016256B1
:105A6000774FA4018EE998E00E94EF33B6016A55A2
:105A7000774FA40186EA98E00E94EF33A401440F17
:105A8000551FB601660F771F6A54774F86EB98E073
:105A90000E94EF33B6016255774FA4018EEA98E079
:105AA0000E94EF3388E0841980939D0880919D08BF
:105AB00090E0EDA1AE2FB0E09D01220F331F2555E0
:105AC0003E4FAA0FBB1FBD0164557E4F77C080912A
:105AD000D808843009F43DC080913B08811105C08D
