:100000000C94B4030C94EC030C94EC030C94EC03EC
:100010000C94EC030C94EC030C94EC030C94EC03A4
:100020000C94EC030C94EC030C94A02C0C94782D01
:100030000C94151A0C94EC030C94EC030C94EC0344
:100040000C94EC030C94EC030C94EC030C94EC0374
:100050000C94EC030C947C2C0C94EC030C94EC03AB
:100060000C94EC030C94EC030C94EC030C94EC0354
:100070000C94EC030C94EC030C94EC030C94EC0344
:100080000C94EC030C94EC030C94EC030C94EC0334
:100090000C94EC030C94EC030C94EC030C94EC0324
:1000A0000C94EC030C94EC030C94EC030501090292
:1000B000A10185020901A1000509190129081500FE
:1000C0002501950875018102050109300931158165
:1000D000257F95027508810609381581257F9501D0
:1000E00075088106050C0A38021581257F95017572
:1000F000088106C0C005010980A101850319012AF4
:10010000B700150126B700950175108100C0050CD8
:100110000901A101850419012AA002150126A002E6
:10012000950175108100C005010906A1018506052C
:100130000719E029E71500250195087501810205D9
:1001400007190029EF1500250195F07501810205B9
:10015000081901290595057501910295017503910D
:1001600001C00660FF0961A1010962150026FF00B8
:100170009520750881020963150026FF00952075FA
:10018000089102C005010906A101050719E029E748
:1001900015002501950875018102950175088101F9
:1001A0000507190029FF150026FF0095067508812F
:1001B000000508190129059505750191029501753C
:1001C000039101C009025B00030100A0FA090400C9
:1001D0000001030101000921110100012240000773
:1001E0000581030800010904010002030000000961
:1001F00021110100012222000705820320000107CE
:1002000005030320000109040200010300000009A6
:10021000211101000122B60007058403200001120C
:1002200001000200000008424B686001000102006A
:10023000010A034D0041004A004100000010034B39
:100240000042004400460041004E005300000004FC
:10025000030904165C1E001F002000210022002359
:100260000024002500260027002D002E002A004A29
:10027000002B0014001A000800150017001C0018BD
:10028000000C00120013002F00300031004B003929
:100290006104001600070009000A000B000D000EA3
:1002A000000F0033003400000028004E00E1001D64
:1002B000001B000600190005000151110010003656
:1002C0000037003800E50052000000E0000000E3C5
:1002D00000E20000002C000000E6000000E4000046
:1002E000000000500051004F00165C3A003B003CFB
:1002F000003D003E003F00400041004200430044FA
:10030000004500005C4A000100C25CC35CC55CC6DD
:100310005CC75CC85CC95CCA5C0100460047004819
:1003200000005C4B003961CB5CCC5C01000100013A
:10033000000100010001000100010001000000DED9
:100340005C4E00E10001000100010001000100011C
:100350000001000100010001000100A900A8000047
:100360000001000000010001000000010000000188
:10037000000000010000000000AC00AA00AB00017A
:100380000001000100010001000100010001000165
:100390000001000100010001000100010001000155
:1003A0000001000100010001000100010001000145
:1003B0000001000100010001000100010001000135
:1003C0000001000100010001000100010001000125
:1003D0000001000000010001000100010001000116
:1003E0000001000100010001000100010001000105
:1003F00000010001000000010000000100010000F8
:1004000000010000000100000001000000000001E8
:1004100000010001000100010001000100010001D4
:1004200000010001000100010001000100010001C4
:1004300000010001000100010001000100010001B4
:1004400000010001000100010001000100010001A4
:100450000001000100010001000100010001000194
:100460000001000100010001000000010001000185
:100470000001000100010001000100010001000174
:100480000001000100010001000100000001000066
:100490000001000100000001000000010000000157
:1004A000000000000001000100010000344454007D
:1004B0002445550025355600263646002737470087
:1004C0002838480029394900324252003141510050
:1004D000304050002F3F4F002E3E4E002D3D5E001D
:1004E0002C4D5D003C4C5C00A7978700A6968600CB
:1004F000A5958500A49484002B3B4B002A3A4A0022
:1005000033435300AC9C8C00AD9D8D00AE9E8E009D
:10051000AF9F8F00B0A09000B1A19100B2A2810066
:10052000B3928200A8988800A9998900AA9A7900B4
:10053000AB8A7A009B8B7B013444540132425201D6
:1005400031415101304050012F3F4F012E3E4E01AD
:100550002D3D5E012C4D5D00A39383012939490196
:1005600028384801273747012636460125355601E8
:100570002445550133435301AC9C8C01AD9D8D0145
:10058000AE9E8E01AF9F8F01B0A09001B1A19101ED
:100590003C4C5C012A3A4A012B3B4B01A494840158
:1005A000A5958501A6968601A7978701B2A281012C
:1005B000B3928201A39383000101010101010101B2
:1005C0000102020202020202020203030303030306
:1005D00003030404040404040405050505050606D4
:1005E0000606060707070707080808080909090992
:1005F0000A0A0A0B0B0B0C0C0C0D0D0D0E0E0E0F38
:100600000F0F1010111111121213131414151516C7
:10061000161717181819191A1A1B1B1C1D1D1E1E38
:100620001F20202122222324242526262728292989
:100630002A2B2C2D2D2E2F303132323334353637B4
:1006400038393A3B3C3D3E3F4041424344454647B2
:1006500048494A4C4D4E4F50515354555658595A8B
:100660005B5D5E5F616264656668696B6C6D6F702F
:1006700072737577787A7B7D7E8082838587888A9E
:100680008C8E8F91939596989A9C9EA0A2A3A5A7D5
:10069000A9ABADAFB1B3B5B7BABCBEC0C2C4C6C9D1
:1006A000CBCDCFD1D4D6D8DBDDDFE2E4E7E9EBEE8A
:1006B000F0F3F5F8FAFDFF00000000000000000074
:1006C000000000000000000000000000000000002A
:1006D00000000000000000000000007E0F00D4FFBA
:1006E000FFFFC70000007800000000000000002AA3
:1006F0002B280000000000000000000000000000A7
:10070000000029000000002C1E3420212224342661
:1007100027252E362D3738271E1F2021222324255A
:10072000263333362E37381F0405060708090A0B0F
:100730000C0D0E0F101112131415161718191A1B81
:100740001C1D2F3130232D350405060708090A0B1F
:100750000C0D0E0F101112131415161718191A1B61
:100760001C1D2F3130354C0011241FBECFEFDAE0B5
:10077000DEBFCDBF04B603FE18C080915406909131
:100780005506A0915606B09157068730904BA7406A
:10079000B04B59F41092540610925506109256061A
:1007A00010925706E0E0F8E3099526E0AEE8B2E0E3
:1007B00001C01D92A435B207E1F712E0A0E0B1E05C
:1007C000E4E7F1E602C005900D92AE38B107D9F723
:1007D0000E94E3270C9436300C940000E82F2FE0A1
:1007E000929FE00D11248E2F877041E001C0440FCD
:1007F0008A95EAF7E695E695E69583E0E89FF001AD
:100800001124EC51FA4F30E020E070E05191DF010B
:100810001197CB01022E02C0969587950A94E2F7B4
:10082000817081958527842385278C932F5F3F4F87
:100830002330310559F70895E82F2FE0929FE00DFE
:1008400011249E2F9770E695E695E69583E0E89F44
:10085000F0011124EC51FA4F50E040E080E021918A
:1008600030E0092E02C0369527950A94E2F72170F0
:100870003327042E01C0220F0A94EAF7822B4F5F20
:100880005F4F4330510559F7089580911D069091AF
:100890001C06981301C008958F5F8770FACF90915E
:1008A00017019923E1F09091190697FF18C0E82FDE
:1008B000E695E695E695803FF0F4F0E0E057FD4FD1
:1008C000877021E030E0A90102C0440F551F8A95CE
:1008D000E2F7CA0180959281892382830895E2E933
:1008E000F2E09191891303C0DF0111971C9252E04D
:1008F000E839F507B1F70895982F9095809114067F
:100900008923809314060895809115068111109211
:10091000150608959091190692FF06C0282F287198
:100920002830F9F4877F846093FF06C0282F287150
:100930002831F1F4877E846120911A0620FF06C0D9
:10094000382F38713830D9F4877F816021FF06C095
:10095000282F28712831D1F4877E816194FD877E0C
:100960000895282F24712430F9F68B7F8860DCCF1E
:10097000282F2471243101F78B7E8861DDCF382F39
:100980003171313019F78E7F8860E0CF282F2171C7
:10099000213121F78E7E8861E1CFCF93DF93EC0187
:1009A000803E910509F460C050F58133910509F44A
:1009B000A6C090F48932910509F49AC08A9709F487
:1009C000A5C0C130D10509F462C0CE010497813AB7
:1009D000910508F055C05BC089339105F1F182386B
:1009E0009105D9F1C59709F47CC0C83AD10508F042
:1009F00094C0C53AD10528F3A497D06448C0843E7A
:100A0000910509F453C068F4823E9105E1F1833EFB
:100A1000910509F440C0CE01805E9109089780F5E8
:100A200036C0863E910509F44CC0873E910509F415
:100A30004DC0811523E5920708F09AC0811532E573
:100A4000930708F000C18F3F910511F008F074C0C2
:100A5000803F910550F2D0651AC0809119068370CD
:100A6000B1F0C0EED0E013C08091190680FD15C131
:100A700090911A0690FF0BC0C3EED0E084FF07C030
:100A8000D0E0C0E004C08091190682FDF5CFCE0110
:100A9000DF91CF9108958091190682FD01C1909157
:100AA0001A0690FDDECF84FFF2CFEACF80911A06BE
:100AB00081FFEDCF80911906C7EED0E084FDE0CF35
:100AC000E6CF8091190683FDF7CFE1CF809119061B
:100AD00083FDE9C090911A0691FFE5CFC4EED0E006
:100AE000D6CF8091190685FFD2CFC9E2D0E0CFCF13
:100AF0008091190685FFCBCFC5E3D0E0C8CF8091A8
:100B0000190686FFC4CFCAE2D0E0C1CF8091190692
:100B100086FFBDCFC1E3D0E0BACFCF3BD10508F00F
:100B20007ACFC85AD0E0CC0FDD1FC15ADD4F0990F3
:100B3000D881C02DD464ABCFC11581E5D80798F416
:100B4000C11520E5D20708F061C0C11530E2D30716
:100B500008F49DCFCE0190548115904108F090CFBC
:100B6000DF70D06A94CFDC2FCC27C16FD06A8FCFD3
:100B7000811539E59307A0F5C11588E5D80708F078
:100B80007AC0C11525E5D207C8F4C11534E5D307ED
:100B900008F06CC09E012370332781E090E002C012
:100BA000880F991F2A95E2F7C695C69520E2C29F45
:100BB000E0011124C82BD92BDA6869CFCE019555F5
:100BC0008F3F910511F008F05BCF8C2F0E948A04B3
:100BD000C82FD0E0DC2FCC27CC27DF71D06257CFD5
:100BE00081153AE5930708F44BC090568115904261
:100BF00008F046CF8D2F8F710E948A0490E0982FC5
:100C0000882788279F718C2BEC01E8CF9E0174E028
:100C1000369527957A95E1F723708C2F86958695E2
:100C2000837030E2839FC0011124922BC37021E0B6
:100C300030E002C0220F331FCA95E2F7822B932BBC
:100C4000EC01DC6824CF9C012370332781E090E025
:100C500002C0880F991F2A95E2F7C695C69520E233
:100C6000C29FE0011124C82BD92BEBCFDC2FCC275E
:100C7000C46FD06A0CCFDC2FCC27C06FD06A07CFEF
:100C80008F700E948A0434E0D695C7953A95E1F7B3
:100C9000CF709C2FEC01D069FACEC9E3D0E0F7CE3B
:100CA000C2EED0E0F4CEC6EED0E0F1CE80E0089502
:100CB000F894E82FE295EF70F0E041A18F7021E009
:100CC00030E0B90102C0660F771F8A95E2F7CB01C9
:100CD000962F9095942391A392A1892B82A3789427
:100CE00008958091020680FD14C081FD14C082FD2C
:100CF00016C080910406882381F08E3180F420E5AF
:100D0000829FC00111246EE170E00E94B02E862FF8
:100D1000089584E1089588E2089588E0089580E5C3
:100D200008958091020680FD16C081FD16C082FDE7
:100D300016C0809103068823A1F0883280F428E051
:100D4000829FC001112468E270E00E94B02E862FBD
:100D5000672B39F0089582E0089584E0089588E0D3
:100D6000089581E00895E0E1E80FE031E0F5F0E07A
:100D7000E85CFF4C0C94C42E0E9471068195809310
:100D8000080608950E947106FACF0E9471068195A7
:100D90008093070608950E947106FACF0E9491067B
:100DA0008093090608950E9491068195F9CF0E94CB
:100DB0009106819580930A0608950E949106FACFC4
:100DC000845F990B21E030E001C0220F8A95EAF799
:100DD00080910606822B8093060608958091020674
:100DE0008160809302060895809102068260F9CFA7
:100DF000809102068460F5CF40910706803F59F448
:100E00008091080687FF0DC01092080641110BC0A3
:100E10001092040608C0813F81F4809108061816DC
:100E20009CF3442381F08091090690910A06892B56
:100E300009F05AC0109203060895823F49F447FF13
:100E4000F0CF10920706809108068111ECCFE0CF19
:100E5000833F19F41416ACF3E4CF90910906893F4F
:100E600029F41916F4F610920906DBCF8A3F19F41B
:100E700097FFD7CFF8CF90910A068B3F29F497FFC1
:100E8000D0CF10920A06CDCF8C3F19F41916CCF3AF
:100E9000C8CF9CE0980F953090F4845F990B21E0C7
:100EA00030E0B90102C0660F771F8A95E2F7CB01E7
:100EB000809590910606892380930606B2CF8D3FD8
:100EC00031F4809102068E7F80930206AACF8E3F76
:100ED00021F4809102068D7FF7CF8F3F09F0A1CFDB
:100EE000809102068B7FF0CF0895AF92BF92CF9290
:100EF000DF92EF92FF920F931F93CF93DF93262FF2
:100F0000D72EE82FF0E0E954FA4F71110FC0649129
:100F1000862FE62F7E2FDF91CF911F910F91FF90AB
:100F2000EF90DF90CF90BF90AF900895E72EF12C17
:100F3000E49186E0689F80011124CFEFD0E0C801E2
:100F4000BE010E949C2EAB0130E0220F331F65E5ED
:100F5000649FC001659F900D1124281B390B922FAF
:100F6000990F920F9E012E193F09E29FD001E39F36
:100F7000B00D11246B2FD99E90011124232F3327FC
:100F80006E01C21AD30A9601E29F6001E39FD00C62
:100F900011248D2D5E01A91AB108AE9C9001AF9C61
:100FA000300DBE9C300D1124232F3327C21BD30BD1
:100FB000EC9F9001ED9F300D112443305105C1F09D
:100FC0000C3F93E0190768F441305105A9F0423015
:100FD0005105B1F00F3F110508F09CCF8B2F632F07
:100FE00099CF4430510579F046305105B9F392CF8D
:100FF0006D2D8E2FEB2F8ECF6E2FED2D8B2F8ACF59
:10100000832F6E2FF7CF8E2FE32F84CF9C0190E09C
:1010100080E0269F812D369F800D911D112408951B
:101020009C018230910508F408959FEF213E8EE1E6
:10103000380740F4C90145E0969587954A95E1F750
:1010400098E0980F61E0E62FE90FFF27FF1FAF013F
:1010500055954795842F449FF001459FF00DF00D65
:1010600011242E173F0738F49FEF940F961758F767
:101070008FEF860F08954F3FE9F361E0640FF6CFDD
:101080004091090150910A0125E038E0429FC001DA
:10109000439F900D529F900D1124875E994C909321
:1010A0000A0180930901890F0895982FE82F96FD72
:1010B000E0952E2F2F7096FD2F5FE695E695E6952D
:1010C000E670F0E0E15DFE4F8181829F802D212D51
:1010D000112482958F702295207F822B2081820F90
:1010E00097FD819580580895FC019B01009719F4A4
:1010F000832F80780895AC0197FF04C044275527BB
:10110000481B590BB901640F751F37FD0FC0241B15
:10111000350BC901A5E0880F991FAA95E1F70E9438
:10112000B02E80E2861BF7FD81950895CB0165E026
:10113000880F991F6A95E1F7BA01621B730B0E9431
:10114000B02E80E6EFCF1F93182F822FE42FF0E010
:10115000EE0FFF1FEE57FE4F2081322F24EE329FFD
:10116000312D1124412F50E0232F30E0245E3F4FDA
:10117000281B310937FF03C031952195310983E0E0
:10118000220F331F8A95E1F7CA01821B930B9C0142
:1011900097FD20E0219F212D1124822F1F9108957A
:1011A0000F931F93CF93DF93D62FC72F182FBA011A
:1011B000C901212F201B022F0E947408982F990F1C
:1011C000990F282F291B200F219F212D11246D2FCE
:1011D0007C2F822FDF91CF911F910F910895EF9275
:1011E0000F931F93CF93DF93D62FC72F182FBA01DA
:1011F000C9010E19010F0E947408081B019F012DDF
:1012000011246D2F7C2F802FDF91CF911F910F9193
:10121000EF900895622F0895E42FF0E0EE0FFF1F86
:10122000EE57FE4F6081621B0895E42FF0E0EE0F51
:10123000FF1FED57FE4F6081621B0895322F50E073
:10124000FA01EE0FFF1FED57FE4F9081905297FD70
:101250009195440F551FFA01EE57FE4F2081231B35
:10126000330B290F311D97FD3A95620F0895EF92C8
:101270000F931F9393E0099F800111241595079503
:101280006E2D600F1F910F91EF9008950F93CF93E4
:10129000DF93D72FC82FB90147FD419528E330E0F0
:1012A000241B310947FD3395229FA001239F500D38
:1012B000500D1124669FC001679F900D900D112461
:1012C000840F951F0E941008982F990F692F680F9F
:1012D000600F7D2F8C2FDF91CF910F9108950F9389
:1012E000CF93DF93D72FC82FBA01C9010E9474088A
:1012F000682F600F7D2F8C2FDF91CF910F91089574
:10130000EF920F93CF93DF93D72FC82FBA01C90164
:101310000E190E947408602F681B7D2F8C2FDF919F
:10132000CF910F91EF9008950F931F93522F10E0DC
:10133000F801EE0FFF1FED57FE4FA081A052BB0B2F
:101340009D015203F001539FF00D1124000F111F56
:10135000D801AE57BE4F2C912057330B4203D0011A
:10136000439FB00D11249F012A0F3B1F37FF02C07E
:1013700021583F4F220F232F221F330B620F1F9143
:101380000F9108950F931F93522F10E0F801EE0F65
:10139000FF1FED57FE4FA081A052BB0B9D015203D2
:1013A000F001539FF00D1124000F111FD801AE570B
:1013B000BE4F2C912057330B4203D001439FB00DF9
:1013C00011249F012A0F3B1F37FF02C0215C3F4FB2
:1013D00096E0359527959A95E1F7620F1F910F9149
:1013E00008950F931F93A42F10E0F801EE0FFF1F35
:1013F000EE57FE4F9081905797FD9195000F111F6A
:10140000F801ED57FE4F00810052110B2003A0019F
:10141000219F500D112428E330E0291B310997FD4D
:1014200033951A2F1203F001139FF00D11244E0F64
:101430005F1F9A01220F331F240F351F37FF02C091
:1014400021583F4F220F232F221F330B620F1F9172
:101450000F9108950F931F93CF93DF938B01D82F94
:10146000C42F822F0E945508EC2FF0E0EE0FFF1FD3
:10147000EE57FE4F90819058980F97FD9195990FD8
:10148000692F2CE0629F612D1124600F712F8D2F29
:10149000DF91CF911F910F910895E42FF0E0EE0FAF
:1014A000FF1FEE57FE4F9081921B97FD9195292FBC
:1014B00038E1239F212D1124620F0895CF93DF93EC
:1014C00000D000D0CDB7DEB72091120630E1230F57
:1014D00008F42FEF60E1822F90E00E940608BC0123
:1014E00088EB9BE00E949C2EB0E0A0E0CD010F9025
:1014F0000F900F900F90DF91CF9108950C942318C7
:101500000C946B188093080180910E068370809371
:1015100007010E94FE1983E0809318010895EEE010
:10152000F6E0248130E1230F08F42FEF248380912B
:101530000D06816080930D060895EEE0F6E02481AB
:1015400030E1231B08F420E0248380910D068160A4
:1015500080930D060895FA0181110994FB01FDCFD6
:10156000E091C205F091C305309721F00190F08120
:10157000E02D099480E008952091E4023091E50285
:101580002817390771F09093E5028093E402E09107
:10159000C205F091C305309721F00680F781E02D58
:1015A000099408952091E2023091E3022817390747
:1015B00071F09093E3028093E202E091C205F09112
:1015C000C305309721F00084F185E02D099408953A
:1015D0009C01809117018823C1F08091190687FF33
:1015E00014C0862F869586958695603FF8F4F9019C
:1015F000E80FF11D677021E030E001C0220F6A950D
:10160000EAF78281822B82830895F90132968FEF67
:1016100090E04191641751F08F3F19F4411101C0DE
:10162000892F9F5F9630A9F78F3F09F40895280FFF
:10163000311D87FD3A95F90162830895CF93DF93B9
:1016400000D000D0CDB7DEB78FB7F8942091460414
:1016500030914704409148045091490429833A83CA
:101660004B835C838FBF69817A818B819C810F90D2
:101670000F900F900F90DF91CF9108958091E1022C
:1016800008950895FC01CB012091BC023091BD0268
:101690002617370790F0009729F42091E8002E775D
:1016A0002093E80040E0009751F4411108C0809178
:1016B000E80082FF31C080E00895C901F3CF209196
:1016C000AA052223A9F12530A9F12091E80023FDE4
:1016D0002DC02091E80022FDEACF2091E80020FFF4
:1016E000E2CF3091F3002091F200009719F02830FA
:1016F000310558F041E02830310509F040E02091F3
:10170000E8002E772093E800CECF41914093F1007E
:1017100001972F5F3F4FE9CF8091AA05882341F0C1
:10172000853041F08091E80083FFC1CF81E00895CA
:1017300082E0089583E008958091B60287FF13C088
:101740008091E80082FF06C08091E8008B7780934B
:10175000E80004C08091AA058111F2CF089580911C
:10176000AA058823D9F38091E80080FFF8CF809103
:10177000E8008E77ECCF2091E4003091E50095E60B
:10178000A9012091EC00822F817020FF06C080917A
:10179000E80080FF06C080E008952091E80022FD67
:1017A0001AC08091AA05882389F0853089F080913C
:1017B000EB0085FD0FC02091E4003091E500421759
:1017C0005307F9F29150E1F684E0089582E008951C
:1017D00083E0089581E00895E8EDF0E080818E7F58
:1017E00080831092E2001092DA001092E100A0EEE5
:1017F000B0E08C9181608C9380818F77808319BC5D
:10180000A7EDB0E08C918E7F8C9380818F7E80835A
:101810001092B502089590910E06937059F080933E
:101820000F06609310064093110680910D068160AB
:1018300080930D060895EEE0F6E0818190E043810B
:10184000628108960C940B0CEEE0F6E081814381F6
:1018500062818850990B0C940B0CEEE0F6E06281EB
:1018600020E1620F08F46FEF8181438190E00C94D6
:101870000B0CEEE0F6E0628120E1621B08F460E010
:101880008181438190E00C940B0CEEE0F6E0438103
:1018900020E1420F08F44FEF8181628190E00C94C7
:1018A0000B0CEEE0F6E0438120E1421B08F440E03F
:1018B0008181628190E00C940B0CEF92FF920F9368
:1018C0001F93CF937C018B010E94BB0BC82F81110A
:1018D00017C08091E80085FD0BC08091E8008E77ED
:1018E0008093E8000E94BB0B882399F3C82F08C09F
:1018F000F70181917F018093F1000150110949F7AF
:101900008C2FCF911F910F91FF90EF9008959091A0
:101910000E069370A1F0882399F08B3198F48F73A1
:10192000880F880F90910E069370892B80930E0676
:101930001092180180910D06816080930D06089524
:1019400081E0EECF8AE1ECCF80910E0686958695F8
:101950008F5F8B3108F081E00C94870C90910E061C
:10196000969596958FEF890F913009F48AE10C9442
:10197000870CAF92BF92CF92DF92EF92FF920F93BC
:101980001F93CF93DF935C01C0910401CC0FCC0F68
:1019900014E01C0FC12E143410F033E4C32E6091F8
:1019A0001206669580916A0590916B050E94060863
:1019B000D82ED0E0CE01880F991F9C012E573E4FA4
:1019C0007901CC1578F081E0133408F080E0DF91E4
:1019D000CF911F910F91FF90EF90DF90CF90BF902C
:1019E000AF900895FE01E85FFD4F80819091050161
:1019F0008923C1F0F70121812052330B40814057E8
:101A0000550B60910F0670911006809111060D2DF7
:101A1000F50109950E947507462F672F282FCE01E3
:101A20000E947E0AF2E0EF0EF11C2196CACF5F926F
:101A30006F927F928F929F92AF92BF92CF92DF92DE
:101A4000EF92FF920F931F93CF93DF934C01C091BE
:101A50000401CC0FCC0F14E01C0F512E143410F0E5
:101A600033E4532E60911206669580916A05909139
:101A70006B050E940608F82ED0E0CE01880F991F52
:101A80009C012E573E4F6901C515A0F081E013342B
:101A900008F080E0DF91CF911F910F91FF90EF90C0
:101AA000DF90CF90BF90AF909F908F907F906F907E
:101AB0005F900895FE01E85FFD4F808190910501E0
:101AC000892379F1F6018081282F2057330B5901A2
:101AD0008181E82FE052FF0B3F01AA9C9001AB9C53
:101AE000300D300D1124EE9FC001EF9F900D900D31
:101AF0001124820F931F0E941008082F60910F0677
:101B00007091100680911106EF2C9301A501F4014C
:101B100009950E947507462F672F282FCE010E9436
:101B20007E0AF2E0CF0ED11C2196AECFBF92CF92AB
:101B3000DF92EF92FF920F931F93CF93DF9300D02A
:101B400000D00F92CDB7DEB76C0180910401880FF1
:101B5000880F8B8394E0F92EF80EBF2C93E49F1529
:101B600010F483E4B82E6091120666956695809114
:101B70006A0590916B050E940608182F80E4810F7A
:101B80000E94550880588983812F0E9455088058EB
:101B90008A83FB81EF2FF0E0FD83EC839C819B1512
:101BA000A0F081E0E2E4EF1508F480E00F900F90E0
:101BB0000F900F900F90DF91CF911F910F91FF9099
:101BC000EF90DF90CF90BF900895EC81FD81E85FAA
:101BD000FD4F8081909105018923A9F060910F0646
:101BE0007091100680911106E12E0C812A814981A5
:101BF000F60109950E947507462F672F282F8C81C3
:101C00009D810E947E0A8C819D8101969D838C839B
:101C1000C5CFDF92EF92FF920F931F93CF93DF9385
:101C20007C01C0910401CC0FCC0F14E01C0FD12E0D
:101C3000143410F083E4D82E6091120666956695F0
:101C400021E0620F08F46FEF80916A0590916B05B7
:101C50000E940608082FD0E0CD1560F081E0133413
:101C600008F080E0DF91CF911F910F91FF90EF90EE
:101C7000DF900895FE01E85FFD4F8081909105019E
:101C8000892391F060910F067091100680911106E2
:101C9000202F4C2FF70109950E947507462F672FBB
:101CA000282FCE010E947E0A2196D6CF982F90939E
:101CB000E900242F762F50E0891731F07091EC0065
:101CC0002091ED005091F00021FD06C09F5F9730FC
:101CD00071F78093E90008953091EB003E7F3093D7
:101CE000EB003091ED003D7F3093ED003091EB0043
:101CF00031603093EB007093EC002093ED00509333
:101D0000F0002091EE0027FDE1CF0895CF92DF9201
:101D1000EF92FF920F931F93CF93DF93C8EDD0E024
:101D200088818F7E8883E7EDF0E080818160808309
:101D300084E082BF81E08093B50288818E7F8883B2
:101D400002EE10E0F80110821092DA0081EEC82E47
:101D5000D12CF601108288818F77888388818068F2
:101D6000888388818F7D888319BC1092AA05109280
:101D7000B402109270051092B30290EEE92EF12C8D
:101D8000F70180818B7F808388818160888342E036
:101D900060E080E00E94560EF60180818E7F808395
:101DA000F801808181608083808188608083F70171
:101DB00080818E7F8083888180618883DF91CF914D
:101DC0001F910F91FF90EF90DF90CF90089581E0E9
:101DD0008093E00080E28093D8001092C9008FE1E8
:101DE0009EE40197F1F700C0000087E090EBDC0172
:101DF0008093540690935506A0935606B0935706C9
:101E000088E19CE00FB6F894A895809360000FBE1F
:101E100090936000FFCFCF93DF93D82FC92F80918D
:101E200017018823C1F18091190687FF34C060E251
:101E300084E08093E9008FEF9091E800815095FD58
:101E400006C095ED9A95F1F700008111F5CF8091CC
:101E5000E80085FF1DC08091170170E050E040E070
:101E6000811104C050E040E068E070E08D2F9C2FAD
:101E70000E945D0C8091E8008E778093E80080E2FC
:101E8000ED2FFC2FA1ECB2E001900D928A95E1F7C5
:101E9000DF91CF91089568E081E0CBCF24E02093DB
:101EA000E9002FEF3091E800215035FD06C035EDF7
:101EB0003A95F1F700002111F5CF2091E80025FFB8
:101EC0000BC050E040E066E070E00E945D0C809145
:101ED000E8008E778093E80008958093BE027093A7
:101EE000C0026093BF028091AA058430F9F4809308
:101EF000E9008FEF9091E800815095FD06C095EDC7
:101F00009A95F1F700008111F5CF8091E80085FFE7
:101F10000DC050E040E063E070E08EEB92E00E9484
:101F20005D0C8091E8008E778093E8000895BC01F5
:101F300083E00C946D0FBC0184E00C946D0F4F9204
:101F40005F926F927F928F929F92AF92BF92CF9249
:101F5000DF92EF92FF920F931F93CF93DF9310E0E6
:101F600000E036E9632E712CE801CC0FDD1F58012B
:101F70001CC0F60185909490692DC7010E94AF2F77
:101F8000682DC70101960E94AF2F22E0C20ED11C1E
:101F900032E0E30EF11C4E145F0459F76E968FE0A9
:101FA000A80EB11CC615D70581F0C501880F991F71
:101FB0009C012D5A3D4F69017E0137E2E30EF11C71
:101FC0002E0185E4480E511CD4CF3E0126E9620E55
:101FD000711C055B1F4F0C3231E0130729F6DF91AE
:101FE000CF911F910F91FF90EF90DF90CF90BF9016
:101FF000AF909F908F907F906F905F904F900895DB
:10200000CF93C82F6FEF811162E283E290E00E94CC
:10201000AF2F6FEFC11164E084E290E00E94AF2F18
:102020006FEFC11165E285E290E0CF910C94AF2F84
:10203000CF93DF93CFE7D2E060E0CE010E94AF2FD5
:102040002196C11584E0D807B9F7DF91CF910895A3
:1020500080E00E94001060E086E290E00E94AF2FD6
:102060000E949F0F0E94181081E00C940010CF93E3
:1020700084E090E00E94912FC82F82E290E00E94BD
:10208000912F982F8C2FCF91089583E290E00E949A
:10209000912F823289F484E290E00E94912F843063
:1020A00059F485E290E00E94912F91E0853209F089
:1020B00090E0892F8170089580E0FCCF0F931F93EB
:1020C000CF93DF93C42FD0E0CC0FDD1F2EE1629FB2
:1020D000C00DD11D112436E9839FC00DD11D1124DF
:1020E000CE0187960E94912F082F10E0102F002715
:1020F000CE0188960E94912F9801282BC901DF916B
:10210000CF911F910F910895462F672F843030F49F
:10211000753020F44F3010F40C945E1090E080E0A5
:102120000895DF92EF92FF920F931F93CF93DF9367
:102130007C010091170680911606082BC7E0D0E0BD
:1021400010E0DC2EC8010C2E02C0959587950A94EC
:10215000E2F780FD0CC02197A0F7D12C8D2DDF91E7
:10216000CF911F910F91FF90EF90DF900895B701ED
:102170008C2F0E9484100E94CD04019761F3EECF52
:102180000F931F93CF93FC018281008111818823DB
:1021900089F0662379F0C8010E949110C82F682F3A
:1021A000C8010E94EE03B8018C2FCF911F910F91AF
:1021B0000C948410C8010E941C04C82FF4CFCF9344
:1021C000DF93D82FC92F0E9491106D2F7C2F0E9472
:1021D0008410DF91CF910C94CD040E94DF10282F42
:1021E00092959F70963091F060F4925F9F7092305C
:1021F00030F481E0203F81F030F4283E30F080E080
:1022000008959A5FF3CF243FD1F7089581E0283EE7
:10221000E0F3213FA1F7F9CF089580911406909142
:102220001B06892B80939002909115069923A1F0AB
:10223000892B80939002809117018823D9F1809196
:10224000190687FF37C08EE1E2E9F2E090E08150A5
:1022500098F591110E94840440E250E064EC75E02E
:1022600080E992E00E94522F892B59F180E2E0E947
:10227000F2E0A4ECB5E001900D928A95E1F7E091CF
:10228000C205F091C3053097E1F0809117018823D2
:1022900059F08091190687FF07C0809190028093C2
:1022A000910286E0809390020280F381E02D80E924
:1022B00092E0099486E0C8CF2191222341F29F5FEA
:1022C000C6CF0895882339F090911406892B809306
:1022D00014060C940D110895882321F00E947C04AB
:1022E0000C940D11089569EE7EEF90E080E00E945D
:1022F000CD2F60E082E090E00E94AF2F60E083E0AD
:1023000090E00E94AF2F1092160660E084E090E00B
:102310000E94AF2F60E082E290E00E94AF2F60E069
:1023200085E090E00E94AF2F60E086E090E00E94A0
:10233000AF2F6FEF87E090E00E94AF2F40E050E0BA
:10234000BA0188E090E00E94C12F60E08DE090E04B
:102350000E94AF2F40E050E0BA0188E190E00E9477
:10236000C12F60E087E190E00E94AF2F40E050E095
:10237000BA018CE190E00E94C12F70E060E080E241
:1023800090E00E94CD2F40E050E0BA0188E190E05B
:102390000E94C12F80E00E9400100E94281040E09F
:1023A00050E0BA018FE090E00E94C12F40E050E081
:1023B000BA0183E190E00C94C12F90E080E00E948C
:1023C000992F893E9E4F11F40C94451080E008959A
:1023D000EEE0F6E081E280838091190190911A018C
:1023E000A0911B0181839283A3838FE784838FEF66
:1023F000858346E050E06CE170E0CF010E949F2FA2
:1024000010920D060895DF92EF92FF920F931F93A3
:10241000CF93DF93EC01FC01E85FFD4F8081909149
:102420000501892381F1D0901006009111061091C9
:102430000F06E12EF12C0E94392F282FC7018C5452
:102440009F4F68E671E00E94B02E8E199F0997FD9C
:10245000039695958795959587952370612F289F6D
:10246000600D11247D2D802F0E947507462F672F48
:10247000282FCE01DF91CF911F910F91FF90EF9008
:10248000DF900C947E0ADF91CF911F910F91FF9006
:10249000EF90DF9008951F93CF93DF93EC01FC0141
:1024A000E85FFD4F8081909105018923C9F00E946A
:1024B000392F182F0E94392F782F7F7720E8720F3D
:1024C00008F47FEF612F809111060E947507462F57
:1024D000672F282FCE01DF91CF911F910C947E0A98
:1024E000DF91CF911F9108955F926F927F928F92AB
:1024F0009F92AF92BF92CF92DF92EF92FF920F9393
:102500001F93CF93DF9300D000D00F92CDB7DEB7EB
:10251000182F80910801811323C090910E069370AB
:102520002091070130E081E09217130609F480E062
:102530008170809306018091130690910501981790
:1025400039F08093050140E060E080E00E94800A5D
:102550001B3160F4E12FF0E0E85BFF4C0C94C42EDB
:1025600081E0E6CF8091060181112AC01D82809111
:1025700004018F5F809304014D8141110CC082E002
:102580008093180180910601811105C0111103C0CB
:1025900083E0809318010F900F900F900F900F9091
:1025A000DF91CF911F910F91FF90EF90DF90CF902F
:1025B000BF90AF909F908F907F906F905F900895A5
:1025C00040E060E080E00E94800AD0CF20910401CA
:1025D000220F220F2983022F0C5FC02E043410F02B
:1025E00033E4C32E60910F0670911006809111069E
:1025F0000E947507F62EE72ED82E5981452F50E000
:102600005A83498399819C1530F0E1E0ED830334CE
:1026100008F4ADCFABCFE981FA81E85FFD4F80814F
:1026200090910501892339F02D2D4F2D6E2D898133
:102630009A810E947E0A89819A8101969A83898370
:10264000E1CFF0910401FF0FFF0FF9830F2F0C5F13
:10265000902E043410F023E4922E20910F062D8347
:10266000B0901006C0901106622F7B2D8C2D0E9419
:102670007507F62EE72ED82E809112066D81680F11
:102680007B2D8C2D0E947507C62EB72EA82E598142
:10269000452F50E05A8349839981991508F0B5CFA9
:1026A000E981FA81E85FFD4F9081809105018923DE
:1026B00061F02A2D4C2D6B2D90FD03C02D2D4F2D3B
:1026C0006E2D89819A810E947E0A89819A81019664
:1026D0009A838983E1CFF0910401FF0FFF0FF98303
:1026E0000F2F0C5FE02E043410F093E4E92ED0900D
:1026F0001006C09011062091120680E4F82E3F2D9E
:10270000329F312D1124F32E5981452F50E05A83E9
:10271000498399819E1508F078CFE981FA81E85FB5
:10272000FD4F8081909105018923E9F0E981FA81CB
:10273000EE0FFF1FEE57FE4F8081F89EC00111245F
:10274000B5E095958795BA95E1F760910F06680F0A
:102750007D2D8C2D0E947507462F672F282F89818C
:102760009A810E947E0A89819A8101969A8389833F
:10277000D0CFF0910401FF0FFF0FF9830F2F0C5FF3
:10278000C02E043410F0E3E4CE2EF0900F0620911A
:1027900010062D83E09011066091120666956695ED
:1027A000669580916A0590916B050E9406080E94CB
:1027B0005508805887FD8195880F282F3E2D239F2F
:1027C000212D11246F2D7D81822F0E947507F62EF9
:1027D000E72ED82E5981452F50E05A83498399819D
:1027E0009C1508F012CFE981FA81E85FFD4F8081E6
:1027F00090910501892339F02D2D4F2D6E2D898162
:102800009A810E947E0A89819A8101969A8389839E
:10281000E6CF83EA98E00E94090E04C080ED98E0BC
:102820000E94B90C8D83A3CE8FEE98E00E94170D05
:10283000F9CF8AE099E0EFCF8CE099E0ECCF85E129
:1028400099E0E9CF8EE199E0E6CF87E399E0EECF1A
:1028500086E499E0E5CF8FE699E0E2CF80E899E061
:10286000E5CF84E999E00E94960DDCCF82EC99E0F7
:10287000FACF81EF99E0F7CFF0910601FD83F111D6
:102880001CC06091120620E1620F08F46FEF809186
:102890006A0590916B050E9406086AE070E00E944C
:1028A0009C2E892B09F062CE0E94392F63E470E0E0
:1028B0000E94B02E0E9403125ACE20910401220FD2
:1028C000220F2983022F0C5F802F043408F083E449
:1028D0005981452F50E05A834983E82EF12CE98134
:1028E000FA81EE15FF051CF0F1E0FD8390CE8981A1
:1028F0009A810E94031289819A8101969A83898321
:10290000EECF209106012D8321111CC0609112068B
:1029100020E1620F08F46FEF80916A0590916B05DA
:102920000E94060865E070E00E949C2E892B09F049
:102930001DCE0E94392F63E470E00E94B02E0E94E9
:102940004B1215CE30910401330F330F3983032F0F
:102950000C5F802F043408F083E45981452F50E048
:102960005A834983E82EF12CE981FA81EE15FF059F
:102970000CF0BACF89819A810E944B1289819A8189
:1029800001969A838983F0CF20910401220F220FB0
:102990002983022F0C5FC02E043410F073E4C72E7D
:1029A000E0901006F090110630910F063D83609183
:1029B000120666956695669580916A0590916B05FD
:1029C0000E9406080E94550890E8980F97FD91957F
:1029D000990F692F3CE0639F612D11244D81640F95
:1029E0007E2D8F2D0E947507F62EE72ED82E998109
:1029F000892F90E09A838983F981FC1518F021E0F2
:102A00002D8305CEE981FA81E85FFD4F80819091A9
:102A10000501892339F02D2D4F2D6E2D89819A8145
:102A20000E947E0AE981FA813196FA83E983E4CF34
:102A30008AE29AE0F0CE8DE49AE0EDCE40914A042D
:102A400050914B0460914C0470914D0480916A0543
:102A500090916B05A0916C05B0916D058417950759
:102A6000A607B70708F482CD0E944008082F0E94ED
:102A7000400893E4891BF0F7890F482F50E05A83F0
:102A80004983FA01E85FFD4F808190910501892318
:102A900009F4F3C120E040E060E001FD13C00E94B2
:102AA0004008082F0E944008782F76952FE7720F74
:102AB00008F47FEF602F809111060E947507462F62
:102AC000672F282F89819A810E947E0A2091120601
:102AD00030E1230F08F42FEF60E1822F90E00E9495
:102AE0000608BC0184EF91E00E949C2E80916A054B
:102AF00090916B05A0916C05B0916D05860F971FA5
:102B0000A11DB11D80934A0490934B04A0934C04E3
:102B1000B0934D042BCD409117055091180560914D
:102B2000190570911A0580916A0590916B05A09125
:102B30006C05B0916D0584179507A607B70708F4D3
:102B400015CD80910601811153C050910401550F9C
:102B5000550F5983052F0C5FD02E043410F063E419
:102B6000D62E8981E82EF12C23E0829FF0011124DA
:102B7000E25BFB4FFA83E983ED1408F478C041E08F
:102B80004D83033408F01D82033408F4F0CC46EC86
:102B900050E061E574E08EE494E00E94682F0E94AA
:102BA000400881FF7EC01092140510921505109206
:102BB00016050E945E0A69837A838B839C838091C9
:102BC0006A0590916B05A0916C05B0916D05298106
:102BD0003A814B815C81820F931FA41FB51F8093A4
:102BE000170590931805A0931905B0931A05BFCC4B
:102BF00040E060E080E00E94800A4EE4C42E44E0A1
:102C0000D42EF12CE12C5FE7B52E0E94400881FF05
:102C10000FC0F601108211821282FFEFEF1AFF0A35
:102C200023E0C20ED11C33E4E316F10471F78DCF1B
:102C30000E944008082F0E944008782F76952B2D7F
:102C4000720F08F47FEFA701440F551F4E0D5F1D53
:102C5000425B5B4F5A834983602F809111060E942B
:102C60007507E981FA81608371838283D6CFF7018A
:102C7000E85FFD4F808190910501892341F0E98152
:102C8000FA81228140816181C7010E947E0A2981E7
:102C90003A812D5F3F4F3A8329833FEFE31AF30ACE
:102CA0006BCF0E94400889830E944008782F769558
:102CB0002FE7720F08F47FEF6981809111060E945F
:102CC000750760931405709315058093160571CFF1
:102CD000409166055091670560916805709169059E
:102CE00080916A0590916B05A0916C05B0916D057E
:102CF00084179507A607B70708F438CC809106011A
:102D0000882329F040E060E080E00E94800A609122
:102D10000F0670911006809111060E947507062F0C
:102D2000772E682E4BE155E05A83498397E3E92ECD
:102D300091E0F92E2EE0A22EB12C4701C980DA8055
:102D4000512CF60121916F01F40181914F0190E026
:102D5000222309F482C0262D402F672D0E947E0A6F
:102D6000F6018081319780835394F6E05F12E9CFBA
:102D700065018EE0582E9601255E3A4F4901F60115
:102D8000E95CFE4F808190E0F9012081222309F463
:102D900068C0262D402F672D0E947E0AF4013197CE
:102DA0008081F40180835A94F1E0CF1AD10827E0A2
:102DB0005212E1CFF701878190E0E981FA81278102
:102DC000222309F452C0262D402F672D0E947E0A2F
:102DD000F701868190E0E981FA812681222309F4B6
:102DE00048C0262D402F672D0E947E0A0E94400871
:102DF000837091E009F090E0E981FA8196839783EE
:102E00003F96FA83E983FFE0EF0EF11C2FE0A20E5C
:102E1000B11C39E5A316B10409F08FCF0E945E0AF8
:102E200069837A838B839C8380916A0590916B057B
:102E3000A0916C05B0916D0529813A814B815C812F
:102E4000820F931FA41FB51F80936605909367059B
:102E5000A0936805B093690589CB20E040E060E06D
:102E60007DCF20E040E060E097CF20E040E060E0F0
:102E7000ADCF20E040E060E0B7CF31E03D8377CBDD
:102E80004F925F926F927F928F929F92AF92BF927A
:102E9000CF92DF92EF92FF92CF93C0904204D090F6
:102EA0004304E0904404F09045048FB7F8944090B8
:102EB00046045090470460904804709049048FBFC6
:102EC000530142018C189D08AE08BF080E941E0BDA
:102ED00060934204709343048093440490934504A8
:102EE000A0917105E1E7F5E04A2F50E02FEFC20E07
:102EF000D21EE11CF11CC418D508E608F708A5137A
:102F000025C04093710520916F05C0E0211108C0D4
:102F100020910E06C22FC37019F0C22FC695C69518
:102F200020911801223009F451C018F5211131C047
:102F30001092040160936A0570936B0580936C0591
:102F400090936D0581E08093180115C0218D328D1D
:102F50002901712C612CC414D504E604F70420F473
:102F600041505F5F3296CBCF280D391D328F218FB4
:102F7000F8CF2330D9F1CF91FF90EF90DF90CF9031
:102F8000BF90AF909F908F907F906F905F904F9089
:102F900008958C2F0E947412CC2369F30E94B00A0A
:102FA00081FFE9CF2FEF4FEF6FEF8EE190E0CF91F0
:102FB000FF90EF90DF90CF90BF90AF909F908F9059
:102FC0007F906F905F904F900C947E0A8C2FCF91E2
:102FD000FF90EF90DF90CF90BF90AF909F908F9039
:102FE0007F906F905F904F900C94820A80910D06B5
:102FF000882351F046E050E06CE170E08EE096E00E
:103000000E949F2F10920D0640916A0550916B050A
:1030100060916C0570916D052FB7F894809146040E
:1030200090914704A0914804B09149042FBF841B9C
:10303000950BA60BB70B4A97A105B10508F49BCFDA
:103040001092180198CFFF920F931F93CF93DF93A5
:1030500000D000D0CDB7DEB7FC01F62E042F122F22
:103060008334910570F5EE0FFF1FEE0FFF1FBF01B8
:1030700065557B4F44E050E0CE0101960E94492FF8
:1030800089818370282F30E04A8150E9859FC001F3
:10309000112486509D4FFC01E40FF11DB497F0827E
:1030A0004B81FC01E40FF11DB49700834C81840F28
:1030B000911DFC01B4971083F901E65EFB4F81E09E
:1030C00080830F900F900F900F90DF91CF911F9101
:1030D0000F91FF900895FF920F931F93CF93DF936B
:1030E000182F062FF42ED0E0C0E02F2D402F612F97
:1030F000CE010E9423182196C334D105B1F7DF9188
:10310000CF911F910F91FF900895E6EEF2E060835A
:10311000418324E630E042E050E0BF01880F0C9488
:103120006F2ECF93DF93C82F4BE06DEF0E94851871
:1031300040E06AE08C2F0E9485188FE39CE901979C
:10314000F1F700C0000040E060E08C2F0E9485187D
:1031500040E061E08C2F0E94851840E066E08C2FF3
:103160000E94851840E06DEF8C2F0E948518D0E0FA
:1031700040E06D2F8C2F0E948518DF5FD231C1F7A0
:1031800040E06D2F8C2F0E948518DF5FD432C1F78D
:1031900040E06D2F8C2F0E948518DF5FD43BC1F774
:1031A0004BE06DEF8C2F0E94851841E06AE08C2F78
:1031B0000E94851840E06DEF8C2FDF91CF910C9429
:1031C0008518EF92FF920F931F93CF93DF93E82E12
:1031D000062F10E0045E1B4FF8018081882381F0E8
:1031E000F2E16F9FE0011124C25EDB4FF12C4991A7
:1031F0006F2D8E2D0E948518F39482E1F812F7CF7F
:10320000F8011082DF91CF911F910F91FF90EF9005
:1032100008954F925F926F927F928F929F92AF929A
:10322000BF92CF92DF92EF92FF920F931F93CF93B3
:10323000DF9300D000D0CDB7DEB70E94C12D84E768
:103240000E94911886E70E9491180BEA14E077EB30
:10325000472E75E0572EE2E17E2EF8E0CF2ED12CDE
:10326000EE24E394F12C6624639444E050E0B8012A
:10327000CE0101960E94492F6A8170E0CB018497AC
:103280002B81422F4452550B4A01EC81E452FF0B33
:103290002981237030E0AC0197FF02C0495F5F4F86
:1032A00063E0559547956A95E1F7729E5001739ECC
:1032B000B00C1124B501625E7B4F5B01A40EB11C02
:1032C000B6010E94B02EA70101C0440F8A95EAF70B
:1032D000D5018C91842B8C93C40197FC079653E005
:1032E000959587955A95E1F7729E5001739EB00CA3
:1032F0001124A501425E5B4F5A01A80EB11CC40106
:10330000B6010E94B02EA70101C0440F8A95EAF7CA
:10331000D5018C91842B8C93CF01F7FD079643E068
:10332000959587954A95E1F7729E5001739EB00C72
:103330001124A501425E5B4F5A01A80EB11CCF01BA
:10334000B6010E94B02EA70101C0440F8A95EAF78A
:10335000D5018C91842B8C93245E3B4FF9016082C4
:103360000C5F1F4F4016510609F07FCF60E084E7E5
:103370000E94E11861E086E70F900F900F900F9088
:10338000DF91CF911F910F91FF90EF90DF90CF9041
:10339000BF90AF909F908F907F906F905F904F9075
:1033A0000C94E118EF92FF921F93CF93DF937B0170
:1033B000182F110FD0E0C0E08C2F8C5D8093E602B7
:1033C000D701AC0FBD1FE7EEF2E08D91819382E053
:1033D000E73FF807D1F724E630E041E150E066EE40
:1033E00072E0812F0E946F2E6096C039D10521F7BF
:1033F000DF91CF911F91FF90EF90089580911A0473
:10340000882329F06AEF72E084E70E94D2191092B3
:103410001A0480911B04882329F06AE873E086E788
:103420000E94D21910921B0408951F921FB61F927A
:1034300011248F939F93AF93BF9380916E05811159
:1034400013C08091460490914704A0914804B09124
:1034500049044196A11DB11D8093460490934704F1
:10346000A0934804B0934904BF91AF919F918F916D
:103470001F901FBE1F9018952FB7F8948091460497
:1034800090914704A0914804B09149042FBF08953A
:103490000E943C1A2091070630910806232B21F048
:1034A0008093A7059093A8052091090630910A06FC
:1034B000232B21F08093A5059093A605E091C205EA
:1034C000F091C305309749F082E0809305060480AF
:1034D000F581E02D85E096E009940895CF93C82FFB
:1034E000882309F46BC08CEF8C0F813AA8F580918A
:1034F0001701882301F18091190687FF1CC0EC2F6A
:10350000E695E695E695F0E0E057FD4F828190E084
:103510004C2F477021E030E002C0220F331F4A9544
:10352000E2F782239323892B79F08C2F0E944F049A
:103530000E940D1109C0E2E9F2E08191C817A9F3D8
:1035400022E0E839F207C9F76C2F80E992E00E9487
:10355000E80ACF910C940D1180E28C0F883068F44A
:10356000C77021E030E001C0220FCA95EAF78091D0
:103570001406822B80931406ECCF8BE58C0F8330DE
:1035800038F42C2F2452330BC901CF910C94BC0A70
:10359000E8E5EC0FE73150F4F0E0EE0FFF1FE15AE1
:1035A000FD4F80819181CF910C94D20AC03F30F0C1
:1035B0008C2F0E94B306CF910C94481ACF91089596
:1035C000882361F19CEF980F913A20F40E944F04F8
:1035D0000C940D1190E2980F983050F4877091E0A0
:1035E00001C0990F8A95EAF7892F0E947C04F0CFD9
:1035F0009BE5980F933020F490E080E00C94BC0A97
:1036000098E5980F973120F490E080E00C94D20A6E
:10361000803F20F00E94FC060C94481A08950F93F6
:103620001F93CF93C82F10E000E0893311F400E519
:1036300010E08C2F0E946E1A0115110531F48C2FA9
:10364000CF911F910F910C94E01A8FE99FE00197A1
:10365000F1F700C0000001501109EECF90E080E0CA
:103660000E94BC0A90E080E00E94D20A10921B06E1
:103670000E940D1186E0E5E0F6E0DF011D928A95DB
:10368000E9F71092040610920306109202060C94B9
:10369000481A1092140680911701E2E9F2E088239B
:1036A00059F08091190687FF07C08EE1DF011D9256
:1036B0008A95E9F70C942E1B86E0F8CF1F93CF93E1
:1036C000DF93CDB7DEB7AA970FB6F894DEBF0FBE73
:1036D000CDBF86EB92E0FC0101962091F1002083A2
:1036E00022E08E3B9207B9F78091B702893009F446
:1036F00056C0C8F4823009F4B3C0833009F482C0E4
:10370000813071F18091E80083FF84C28091B6021C
:103710009091B7029A3008F07DC2E92FF0E0ED59A0
:10372000FF4C0C94C42E8A3009F489C08B3051F7B9
:103730008091B602813231F78091BA029091BB023A
:10374000892B01F78091E800877F8093E8000E9431
:103750009C0B8091B802809317010E94491BD2CF25
:103760008091B602813A71F68091E800877F80935C
:10377000E8008091BA029091BB02892B61F460E26B
:1037800081EC92E070E00E94420B8091E8008B7720
:103790008093E800B7CF60E090E080E0F3CF8091C5
:1037A000B602813209F0AECF8091BA029091BB028D
:1037B0008D7F892B09F0A6CF8091E800877F8093C9
:1037C000E8008091E80082FF18C09091F30080919A
:1037D000F200029731F48091F100813011F08630CF
:1037E00021F48091F1008093E1028091E8008B77D1
:1037F0008093E8000E949C0B85CF8091AA058111DF
:10380000E0CF80CF8091B602813A09F07BCF8091E2
:10381000BA029091BB02892B09F074CF8091E80025
:10382000877F8093E8008091E80080FFFCCF809143
:1038300017018093F1008091E8008E77D9CF8091B5
:10384000B602813209F05ECF8091E800877F8093D5
:10385000E8000E949C0B8091B9028093B20252CF83
:103860008091B602813A09F04DCF8091E800877FC0
:103870008093E8008091E80080FFFCCF8091B20245
:10388000D8CF803899F0823809F0C4C18091BA024B
:103890008F70873008F0BEC18093E9008091EB0003
:1038A00085FB882780F91092E90006C08091B30259
:1038B00090917005911182609091E800977F9093AC
:1038C000E8008093F1001092F1008091E8008E777B
:1038D0009DC1882309F48BC1823009F09BC180917E
:1038E000B80281118EC18091BA028F702FEF280F1C
:1038F000263008F08FC18093E9002091EB0020FF73
:1039000080C1933031F48091EB0080628093EB00B2
:1039100078C19091EB0090619093EB0021E030E052
:1039200001C0220F8A95EAF72093EA001092EA007C
:103930008091EB008860EACF81116CC11091B802D0
:103940001F778091E3008078812B8093E300809142
:10395000E800877F8093E8000E949C0B8091E8003C
:1039600080FFFCCF8091E30080688093E30082E0D9
:10397000111183E08093AA054DC18058823008F070
:1039800049C14091B8025091B9024C3D83E05807BB
:1039900099F583E08A838AE289834FB7F894DE0140
:1039A000139620E03EE051E2E32FF0E05093570001
:1039B000849120FF03C082958F703F5F8F708A30A3
:1039C000C8F0895C90E08D939D932F5F243161F75F
:1039D0004FBF8091E800877F8093E8006AE270E043
:1039E000CE0101960E94420B8091E8008B77809374
:1039F000E80010C1805DE6CF8091BA029091BB02D1
:103A0000252F33272330310509F44AC078F52130BA
:103A1000310509F479C08BE590E0E4ECF1E0223067
:103A2000310509F0F7C02091E800277F2093E800D6
:103A30002091BC023091BD028217930708F49C01CB
:103A400040E02115310509F064C0411162C0809148
:103A5000E80082FDC9CF8091AA05882329F285302C
:103A600019F28091E80083FFF2CFBECF21323105F9
:103A700009F43BC02232310509F0CCC083309105F6
:103A800008F0C8C0FC01EE0FFF1FED5DFE4F019076
:103A9000F081E02D805E9E4FDC018C9190E011C0A2
:103AA000CA019927413089F082309105B1F0892B04
:103AB00009F0B0C0EFE4F2E0E4918E2F90E0EFE483
:103AC000F2E0009709F4A6C0AECFEDE3F2E0E49196
:103AD0008E2F90E0EDE3F2E0F4CFE1E3F2E0E49149
:103AE0008E2F90E0E1E3F2E0ECCF8330910508F017
:103AF00091C0880F991FFC01E75DFE4F0190F08196
:103B0000E02D89E090E08FCF82E190E0EFE1F2E0FC
:103B10008ACF8091AA05882309F466CF853009F4FD
:103B200063CF8091E80083FD5FCF8091E80082FD44
:103B30008ECF8091E80080FF84CF9091F300809138
:103B4000F2002115310519F08830910550F041E05F
:103B5000089709F040E08091E8008E778093E800B4
:103B600070CF44914093F100319621503109019674
:103B7000E8CF803809F04EC08091E800877F8093BD
:103B8000E8008091B4028093F1009FCE811142C081
:103B90001091B8021230F0F58091E800877F809391
:103BA000E8001093B4020E949C0B112311F084E0F2
:103BB00005C08091E30087FDFACF81E08093AA05DC
:103BC00042E061EC81E00E94560E42E261EC84E04A
:103BD0000E94560E42E261EC82E00E94560E42E2E2
:103BE00060EC83E00E94560E8091AA0513C080917C
:103BF000B802813079F481E0933009F080E080935D
:103C000070051092E9008091E800877F8093E800BA
:103C10000E949C0B8091E80083FF0AC08091E8001D
:103C2000877F8093E8008091EB0080628093EB00B7
:103C3000AA960FB6F894DEBF0FBECDBFDF91CF912D
:103C40001F910895809316060C942E1B80931706DF
:103C50000C942E1B21E030E001C0220F8A95EAF778
:103C600080911706822B0C94261E21E030E001C0C3
:103C7000220F8A95EAF720958091170682230C94EB
:103C8000261E909118068095892380931806282F68
:103C9000277091F4282F082E000C330B921713066F
:103CA00059F090911A0692FD07C0859585958595E6
:103CB0000E94351E109218060895CF93C0911A06DF
:103CC000C2FB992790F9981799F080FBC2F9C0932D
:103CD0001A066091190684E090E00E94AF2F6C2FC5
:103CE00082E290E00E94AF2F82E0CF910C94411EBF
:103CF000CF91089580911706982F9670963019F4F9
:103D000088600C94261E877FFCCF9C014FB7F894E7
:103D10008091460490914704A0914804B0914904D1
:103D20004FBF821B930B08954F925F926F927F92C9
:103D30008F929F92AF92BF92CF92DF92EF92FF92BB
:103D40000F931F93CF93DF93CDB7DEB72A970FB6AC
:103D5000F894DEBF0FBECDBFFE0131968AE0DF01D1
:103D60001D928A95E9F79BE4E92E92E0F92E8F01E6
:103D700020E5622E22E0722E2F01AA24A394B12CFA
:103D80004FE5842E42E0942EF70181917F018F3F11
:103D900009F445C0F894E82FE295EF70F0E021A116
:103DA0008F70A50102C0440F551F8A95E2F7CA0122
:103DB000922F982B91A392A18095892382A3789426
:103DC00000C0E0E5F2E021E030E0D12CC12C4191CF
:103DD0004F3F09F45DC0A42FA295AF70A05EB0E084
:103DE0008C9190E04F7002C0959587954A95E2F7C7
:103DF00080FD4EC0C901C82AD92A220F331F8E1652
:103E00009F0629F7F701319780818F3F11F00E94BB
:103E1000580650EA5A95F1F7D801CD92DC920E5F20
:103E20001F4F6E147F0409F0AFCF4AE050E0B2019B
:103E300088EB95E00E94522F9C0111E0892B09F438
:103E400010E0232B41F18AE0F201A8EBB5E00190EC
:103E50000D928A95E1F781E08093AD050E943C1AAE
:103E60009093AC058093AB058091AB059091AC0528
:103E70000E94851E039798F08AE0E8EBF5E0AEEA31
:103E8000B5E001900D928A95E1F71092AD0507C05B
:103E900080E090E0B0CF8091AD058111E5CF812F1A
:103EA0002A960FB6F894DEBF0FBECDBFDF91CF913B
:103EB0001F910F91FF90EF90DF90CF90BF90AF9048
:103EC0009F908F907F906F905F904F900895FF929A
:103ED0000F931F93CF93DF93C62FD42F122F8823D6
:103EE000A9F060930B060E943C1A9093B102809354
:103EF000B002C77081E001C0880FCA95EAF7DF9170
:103F0000CF911F910F91FF900C94621180910B063D
:103F1000681334C08091B0029091B1020E94851E56
:103F2000883C910558F500E20D0FCD17A9F0C77038
:103F3000FF24F3948F2D01C0880FCA95EAF70E94E1
:103F40006C11083048F48D2F877001C0FF0C8A95E2
:103F5000EAF78F2D0E946211812F0E940F1B0830FB
:103F6000A0F4D77081E001C0880FDA95EAF7DF91FD
:103F7000CF911F910F91FF900C946C11C77081E04D
:103F800001C0880FCA95EAF7F2CFDF91CF911F9158
:103F90000F91FF9008953F924F925F926F927F92A0
:103FA0008F929F92AF92BF92CF92DF92EF92FF9249
:103FB0000F931F93CF93DF9300D000D0CDB7DEB720
:103FC0007C01FC019081818123813481232B21F0AC
:103FD00089238F3F09F073C50F900F900F900F90BA
:103FE000DF91CF911F910F91FF90EF90DF90CF90D5
:103FF000BF90AF909F908F907F906F905F904F9009
:104000003F900895980122513F452031310508F035
:10401000FCC48FEF93E00E94912F02514FE7842E52
:1040200042E0942E882389F1809118068770A1F2CE
:10403000F7018281882381F280911A0682FDCCCF1C
:1040400082E00F900F900F900F90DF91CF911F9112
:104050000F91FF90EF90DF90CF90BF90AF909F9027
:104060008F907F906F905F904F903F900C94411E87
:104070008114F4E09F06C1F2C4010E94912F8111C6
:1040800001C001502FEF821A920A0111F1CF8091E5
:104090001C0190911D01A0911E01B0911F01898307
:1040A0009A83AB83BC83442443943AE0332E840147
:1040B0000F5F1F4FC4010E94912F89831A828823AA
:1040C00009F4B2CF9FEF980F9330F8F48A834982B6
:1040D00032E0830E911CC8010E94912F8B838823AC
:1040E00009F4A2CF8E010F5F1F4FF8012081222318
:1040F000F1F2213009F044C091818281913039F48C
:104100000E5F1F4F0E940F1B08C04801EBCF92307B
:1041100039F40E5F1F4F0E946E1A0F5F1F4FE5CFDD
:10412000933029F40E5F1F4F0E94E01AF6CF9430AF
:1041300019F00F5F1F4FF1CF0E5F1F4F20E030E0EF
:10414000A8014F5F5F4F8053990B8A30910560F053
:104150002115310511F38FE99FE00197F1F700C0B8
:10416000000021503109F4CF329EB001339E700D12
:1041700011249C01260F371FF80181818A01E0CFAD
:10418000E22FF0E0E951F94F5490822F8695869501
:10419000869590E0FC01E952F94FE4912770F0E038
:1041A000022E02C0F595E7950A94E2F73F0131E04F
:1041B00063227724FC01E953F94FA490B12C022E1D
:1041C00002C0B594A7940A94E2F7E1E0AE22BB24C2
:1041D000FC01E954F94FC490D12C02C0D594C79486
:1041E0002A95E2F7F1E0CF22DD246114710419F081
:1041F00081EE0E946E1AA114B10419F086EE0E949D
:104200006E1A852D0E940F1BAB2819F086EE0E94B6
:10421000E01A672819F081EE0E94E01ACD2809F40F
:104220007CCF8CE26FCF81E00E942A1E0E947A1E12
:10423000FBCE81E00E94351EF9CF82E0F5CF053F2D
:104240002CE51207D1F027E245EE66EE063F3CE58D
:10425000130741F027E245EE64EE043F9CE51907A1
:1042600009F0F8C30E94671FDFCE27E245EE65EE36
:10427000F9CF26E241EE60EEF5CF26E241EE62EEA6
:10428000F1CF98012A5F3C452930310508F4F7C386
:1042900006313CE5130709F42CC405C0053A8DE549
:1042A000180709F4ECC30A35FDE51F0709F07AC1C8
:1042B00081E096C1F801E350FC45809119068160C8
:1042C000E331F10550F5E359FF4C0C94C42E033053
:1042D000FDE51F0778F40A3F2CE5120708F4DFC359
:1042E000F801EB5FFC45E830F10510F5E058FF4CB4
:1042F0000C94C42E01363DE5130709F496C0053A27
:104300001D4509F0CCC390911906892F8E7F90FF2F
:10431000816003C080911906826080931906BFC333
:10432000809119068460F9CF809119068860F5CFD5
:1043300080911A06816080931A06B1C380911A0693
:104340008260F9CF809119068061E7CF80911906CC
:104350008062E3CF809119068064DFCF0E94491B01
:10436000809119068068D9CF809119068C60D5CFCD
:1043700080911A068360DFCF809119068E7FCDCFA2
:10438000809119068D7FC9CF809119068B7FC5CF8B
:1043900080911906877FC1CF80911A068E7FCBCF7F
:1043A00080911A068D7FC7CF809119068F7EB5CF79
:1043B000809119068F7DB1CF809119068F7BADCF8B
:1043C0000E94491B809119068F77A7CF809119060B
:1043D000837FA3CF80911A068C7FADCF8091190681
:1043E00082FB992790F921E0922790FB82F990FBBC
:1043F00083F993CF80911A06982F909591708E7FB4
:10440000892B90FB81F997CF0E94491B9091190647
:10441000892F97FB87F9805880CF61E08EE090E08C
:104420000E94AF2F3CC360E0F9CF90911906892F0D
:104430008F7E94FF806171CF80910C06811104C042
:1044400089E20E944F0468C385E3FBCF8091140684
:104450008272063D9CE5190778F4023CECE51E07E4
:1044600078F0F801E35CFC45E331F10508F04EC05B
:10447000E857FF4C0C94C42E0D351D4509F4D4CDDE
:10448000F7018281C080D180882309F4BBC0C601B6
:104490000E949110182F682FC6010E94EE03B601EA
:1044A000812F0E9484100E94CD048C01F70192801C
:1044B000858082942FE08222809118068770C1F057
:1044C000C92C9920B1F0812F807F803421F080E2C7
:1044D000800F883068F080911A0682FD09C082E062
:1044E0000E94411E809118068770CC24C3948111CC
:1044F000C12C812F82958F70A82EB12C8C3008F0A2
:10450000EEC0F501E556FF4C0C94C42E80910E06CA
:1045100091E0892780930E061092180180910D0674
:10452000816080930D0680CD4EEA5CE064EA7CE019
:104530000E94AB0A79CD44EA5CE06EEA7CE0F8CFF9
:1045400044E25CE06BE17CE0F3CF4BE15CE064E2F1
:104550007CE0EECF49E35CE06DE27CE0E9CF4DE248
:104560005CE069E37CE0E4CF41E55CE065E47CE0AD
:10457000DFCF45E45CE061E57CE0DACF4DE95AE06D
:104580006FE87AE0D5CF4FE85AE06DE97AE0D0CF16
:1045900081E00E94870C48CD84E0FBCF89E0F9CF11
:1045A0008EE0F7CF0B352DE5120758F401153CE5E9
:1045B0001307C9F00E3D1C4509F062CF0E9473112C
:1045C00033CD0B359DE51907D9F00C351D4509F0A4
:1045D00057CF80911A0682FB882780F991E08927BE
:1045E0000E945D1E4DCF0E94491BFFEF24E33CE07B
:1045F000F15020403040E1F700C000000E94E70E7B
:1046000080E0EECFC6010E941C04182F48CFF12F86
:10461000FF70DF2E107F19F0D29490EFD9229920ED
:10462000B9F0DD2069F080E2800F883010F00111D0
:1046300009C0809114068D29809314060E940D11E3
:10464000802F4BC080911B068D2980931B06F6CFCF
:10465000802F0E94E01ADD2009F441C080E2800F23
:10466000883010F0011104C08D2D0E947C0406C01A
:10467000D09480911B068D2180931B060E940D1102
:104680002EC0212F2F70D22E107F103219F0D2940D
:1046900080EFD822002381F0013009F482C09920F4
:1046A00009F48CC0882009F482C0F701858180FF5D
:1046B000C7CF8F7085837BC020911A0622FF4EC022
:1046C000992009F445C0DD2039F0809114068D2928
:1046D000809314060E940D1180E00E946E1A98E0EB
:1046E000A91AB108E4E0AE16B10410F40E94B00AB1
:1046F000CC20A9F08091180680FD11C0F70112822C
:104700008595859585950E942A1EC7010E94CB1F1D
:10471000809118068595859585950E94351E60E0E7
:10472000C7010F900F900F900F90DF91CF911F91C5
:104730000F91FF90EF90DF90CF90BF90AF909F9040
:104740008F907F906F905F904F903F900C94C0102F
:1047500080E00E94E01ADD2011F286CF9920A1F0BE
:10476000909115068D2D892B811003C00E94621136
:10477000B6CF31E08312FACF22FDB1CF981709F4FA
:10478000AECF80931506ABCF811006C00E94840483
:104790008D2D0E946C11A3CF81E0881609F49FCF64
:1047A000F5CF992031F095E0981508F498CF8D2D2C
:1047B000DDCFE4E0E81508F492CFEACF882041F39A
:1047C000093349F4FFEF27EE33E0F1502040304049
:1047D000E1F700C00000802F0E94E01A80CF812FF7
:1047E00086958695837061F0813009F078CFC80195
:1047F0009370911002C090E080E00E94D20A6FCFC7
:10480000C8019370911002C090E080E00E94BC0A41
:1048100066CF802F992029F00E94B3060E94481A83
:104820005ECF0E94FC06FACF812F8370A1F5911014
:1048300056CF802F829586958770880F880F402FDE
:104840004F70082E01C0440F0A94EAF7202F207100
:1048500004FF07C02FE030E001C0220F8A95EAF77D
:104860002095169516951370123081F0822F842BA7
:10487000133031F080911606113029F0242B822359
:104880000E94221E2CCF842B822BFACF242B8091C6
:1048900016068227F5CF992061F110FF20CF802FD7
:1048A000829586958770880F880F402F4F70082E4D
:1048B00001C0440F0A94EAF7202F207104FF07C0BB
:1048C0002FE030E001C0220F8A95EAF72095169577
:1048D00016951370123099F0822F842B133031F01B
:1048E00080911706113041F0242B82230E94261E4E
:1048F000F6CE11FFF4CED3CF842B822BF7CF242B0F
:10490000809117068227F2CF1F70992029F0812FFE
:104910000E942A1E802F2ACF802F0E946C11812F87
:104920000E94351EDCCE023F81F160F4003FB9F0F9
:10493000013F81F0992009F458C0811081CE812F68
:104940008F7127C0033F41F1043FA1F780911A0600
:1049500082FF2DC0812F8F71992011F31AC09920E9
:1049600079F084E0881508F4BACE1F7181E090E0F8
:1049700001C0880F1A95EAF7909117068927B6CFDC
:1049800095E0981508F4ABCEF0CF812F8F71911080
:10499000C7CF0E942A1EA3CE80E0992009F4A6CF9B
:1049A0001F7181E001C0880F1A95EAF79FCF992007
:1049B00089F01F71812F0E942A1E80911A0682FDA4
:1049C00007C0E8E01E9FC001112483608093180691
:1049D000812FDFCF81E00E94411EF1E0F81508F041
:1049E0007ECE82E00E94411E7ACE882059F00933A3
:1049F00009F0F1CE2FEF37EE83E0215030408040B8
:104A0000E1F7E7CE812F8F718BCF0031FFE51F07D4
:104A100009F409CC01312FE5120709F40ECC033F4C
:104A20002CE5120709F425CC08F009CC083D9CE5DB
:104A3000190709F41ACC28E241E0093DECE51E070C
:104A400009F415CC26E241EE61EE073DFCE51F07B7
:104A500009F408CC882309F447C010920B060136EC
:104A6000EDE51E0761F008F019CC06312CE51207C0
:104A700008F007CC02303CE5130708F414CC0E9480
:104A8000371090931A068093190606319CE5190792
:104A900008F01DCC0230ECE51E0708F00BCC60914D
:104AA000190610911A0684E090E00E94AF2F612F42
:104AB00082E290E00E94AF2F0E94491BB5CA61E0DC
:104AC000C7010E94C0108C01F701828181119ACA2E
:104AD00000313FE5130709F4ACCB01319FE519071D
:104AE00009F09DCF82E0A6CB06312CE5120709F034
:104AF000ADCC90911406882309F49ECC892F8A7A34
:104B000091E009F490E090930C0669E2811165E36D
:104B100080E992E00E94E80A0E940D1185CA1F9365
:104B2000CF93DF9380915306807FA9F48091500644
:104B3000882389F080911D06C0911C0670914E0655
:104B400060914F06A0915106B0915206D62FD723FF
:104B500016E0C81304C0DF91CF911F91089590E033
:104B6000109711F0DF3F19F401968770F2CF189F6C
:104B70009001199F300D1124F901E25EF94F418136
:104B80006413F2CF40814713EFCF42814111ECCF44
:104B9000438154814A1B5B0B483C510528F78091A7
:104BA00053068F70806180935306F901ED5DF94FD4
:104BB00080818F70806180838EE496E00E94CB1F9D
:104BC000DF91CF911F910C9445048F929F92AF92E9
:104BD000BF92DF92EF92FF920F931F93CF93DF93D9
:104BE000CDB7DEB72B970FB6F894DEBF0FBECDBFA3
:104BF0008C0185E0F801DE01179601900D928A95EF
:104C0000E1F7F801E280A380B4808EE4882E86E08C
:104C1000982E90914E0680914F062091510630912A
:104C200052062115310529F0482F49234F3F09F03D
:104C300028C1EE2009F433C1F801808191810E94DE
:104C4000ED10F82E882309F42AC186E0F801AEE4BD
:104C5000B6E001900D928A95E1F70E948F2521C060
:104C6000D09053064D2D407F283C310508F0A8C058
:104C7000F80121814111C3C0FE2C281325C0808179
:104C8000891322C0E11020C08D2D8F708061809328
:104C900053068EE496E00E94CB1F80915306F801E4
:104CA00085838F2D2B960FB6F894DEBF0FBECDBF38
:104CB000DF91CF911F910F91FF90EF90DF90BF9008
:104CC000AF909F908F9008953F81AB2829F0822F5D
:104CD00083238F3F09F090C080E0F82FF170DF2E22
:104CE000E0911D0640911C0656E080FD1CC0EE20A0
:104CF000C1F280915306816080935306F12CD1CF8D
:104D00008E2F90E05E9FF0011124E25EF94F6181E9
:104D1000261306C06081361303C06281E612E7CF16
:104D20000196E82FE770E413EBCF8F8198850E94FE
:104D3000DF10292F22952F70903260F0225F2F70A4
:104D4000223078F49F7051F0F8019581907F31F412
:104D5000D12C0AC09F7011F08823D1F3805E883077
:104D6000B8F3C8010E94CB1FFD2C9BCFF8018081B6
:104D700091810E94ED10882309F491C0EE2009F47E
:104D80008EC080915306803270F080914E069091D3
:104D90004F069A8389831B82BD82AC82DE82CE015C
:104DA00001960E94CB1F86E0F801AEE4B6E00190C8
:104DB0000D928A95E1F70E948F25FF24F39471CF1D
:104DC000411132C08EE496E00E94CB1F86E0F401D0
:104DD00011928A95E9F792CFF801808191810E9422
:104DE000ED108111E0CF80915306816080935306CE
:104DF000C8010E94CB1F55CF81E08E256ECF2813AE
:104E0000B5CFF80180818913B1CFE110AFCFD58242
:104E1000C8010E94CB1F86E0F801AEE4B6E0019025
:104E20000D928A95E1F73DCFF801218182139ECF43
:104E3000F801808189139ACFE11098CFD582C801FB
:104E40000E94CB1F86E0F40111928A95E9F729CFE1
:104E5000F80121818213C0CFF80180818913BCCF72
:104E60008091530680FDD7CF982F907FA1F2858344
:104E7000903F71F2982F907F905F8F70892B858380
:104E8000C7CFF0905006A501421B530B9A01F110B9
:104E9000E7CE283C3105B0F6FE2CE110D9CFC80191
:104EA0000E94CB1F8ACF1F93CF93DF93CDB7DEB77E
:104EB00067970FB6F894DEBF0FBECDBF342F4B8B74
:104EC000252F5C8B962F6D8B7E8B8F8B4E895F8908
:104ED000611110921B061A8A3D872E879F87598B76
:104EE000488B86E0FE013D96DE01179601900D92FB
:104EF0008A95E1F7CE0107960E94E525882389F07F
:104F000016E080911D0690911C06891349C0679692
:104F10000FB6F894DEBF0FBECDBFDF91CF911F91CA
:104F2000089586E0FE013796DE01119601900D92FC
:104F30008A95E1F79F81888520911C0640911D0686
:104F40006A857B85672BE1F289238F3FC9F230E0C8
:104F5000C9010196877099274817190671F40E94B4
:104F6000491B10921C0610921D0686E0EEE4F6E046
:104F7000DF011D928A95E9F7C3CF96E0929FD00199
:104F8000939FB00D1124A25EB94FFE01319601909E
:104F90000D929A95E1F780931C060E944504B0CFCC
:104FA000819FC0011124825E994F0E94E5258823CC
:104FB00009F4ADCF80911D0690E001968770992786
:104FC00080931D069ECFCDB7DEB7A5970FB6F89498
:104FD000DEBF0FBECDBF84B7877F84BF0FB6F89406
:104FE000A8958091600088618093600010926000B5
:104FF0000FBE80E890E00FB6F89480936100909324
:1050000061000FBE85B7806885BF85B7806885BFA2
:1050100086E596E090938F0280938E020E94EC0BBF
:105020000E94860E8091E20084608093E200789472
:105030008091AA05882399F08091E9001091EC00F5
:105040001795112717958F70182B1092E9008091F2
:10505000E80083FD0E945E1B1F701093E90082E050
:1050600084BD93E095BD9AEF97BD80936E000E943A
:105070004510811102C00E9428100BE412E070E577
:10508000E72E72E0F72ED8018D918D018F3F11F040
:105090000E945806E016F106B1F700E512E06FE550
:1050A000E62E62E0F62EF80181918F018F3F11F01C
:1050B0000E945806E016F106B1F78AE0EEEAF5E044
:1050C000DF01282F1D922A95E9F7E8EBF5E0DF01D3
:1050D0001D928A95E9F70E94DD11811102C00E949C
:1050E000731182E090E00E94912F80939A050E94B4
:1050F000371090931A06809319060E94941EEFEBC6
:10510000FDE53197F1F700C000000E94941E8091E8
:10511000AE0580FF08C06FEF7FEF90E080E00E9457
:10512000CD2F0E94E70E83E090E00E94912F0E9415
:10513000221E0E9409191092710540E150E06FEFA4
:1051400070E08AE895E00E947A2F0E94DD118111BB
:1051500004C00E9473110E94E81146E050E06CE127
:1051600070E08EE096E00E94812F10920D068091F3
:105170000E068C7F11F40E94E8118BE091E0909371
:10518000C3058093C20538E1232E312CBB24B39490
:1051900048EB442E45E0542E58E0652E712C80914A
:1051A000AA0520E4F22E00E112E1853009F4EAC0FC
:1051B0000E94941E81110E941E0B9EEAC92E95E04A
:1051C000D92EEBE9F5E0D60110E000E0602FED907C
:1051D000FD90219131912E153F0509F404C22E2531
:1051E0003F25A12C88248394912CA9014821592181
:1051F000452B09F4F2C1A9826A83E820F92081E0F5
:10520000E114F10409F480E08B830E943C1A816070
:10521000782F9D838C8349815A816B81892F0E94CD
:105220005327F801EE0FFF1FE556FA4F8081918159
:105230008825992591838083EF2871F08FE0809FE6
:10524000F001819FF00D1124E95CFE4FEA0DF11D84
:1052500080818F3F09F0A2C0A12C0A2D10E080911F
:105260007105800F912F911D09975CF17301E01A70
:10527000F10AB8016E587A4FA70182E795E00E94C3
:105280005F2FB80166587A4FA7018AE795E00E9420
:105290005F2FA701440F551FB801660F771F665790
:1052A0007A4F8AE895E00E945F2FB8016E577A4FD7
:1052B000A70182E895E00E945F2F88E08A19809319
:1052C00071058091710590E0EDA1AE2FB0E09D01D8
:1052D000220F331F2E573E4FAA0FBB1FBD016D5724
:1052E0007E4F75C08091AA05843009F43BC080913F
:1052F0006F05811105C00E94741280E00E94820A2D
:10530000F1E0F0936F050E94401780916F058111C5
:1053100005C00E94741280E00E94820A21E020935E
:105320006F0510926E050FB6F894A8952092600054
:105330000FBEF092600083B7817F846083BF83B724
:10534000816083BF7894889583B78E7F83BF0FB6C3
:10535000F894A89580916000886180936000109215
:1053600060000FBE80917005882361F00E94941E3A
:10537000EEEAF5E081919191892B09F094C24E16E5
:105380005F06C1F78091AA05853009F4ABCF0E9472
:10539000491B0E94B00A10926F050ACF8DA3AA2460
:1053A000A3945BCF90E0FC01EF58FA4FD9015C91D8
:1053B0005183DB015C915187BDA1B18B880F991F8F
:1053C000FC01EF58FA4F128E118E842F91E041E0CC
:1053D000480F9A1538F3809371050E94401786E0B4
:1053E000E5E0F6E0DE01119601900D928A95E1F775
:1053F000F0900706E09008061091090600910A0651
:1054000010920706109208061092090610920A06DA
:105410008F2D8E2909F448C08091A7059091A80589
:105420000E94851E9C0180910406882309F45FC2B6
:1054300025313105C8F18F3F19F08F5F8093040645
:10544000FF2059F00E9471069FEF1F140CF491E0A9
:10545000899F802D112480930706EE2059F00E9429
:1054600071069FEF1E140CF491E0899F802D11248A
:1054700080930806309107063323B1F02091080687
:10548000222391F055EB3503C0011124992309F42F
:10549000C1C09093070645EB2403900111243323E8
:1054A00009F4BBC030930806812F802B09F448C053
:1054B0008091A5059091A6050E94851E9C01809172
:1054C0000306882309F40EC221353105C8F18F3F48
:1054D00019F08F5F80930306112359F00E94910603
:1054E0009FEF11160CF491E0899F802D1124809379
:1054F0000906002359F00E9491069FEF10160CF444
:1055000091E0899F802D112480930A06309109062D
:1055100020910A063323A1F0222391F055EB3503A5
:10552000C0011124992309F47BC09093090645EB2F
:10553000240390011124332309F475C030930A0623
:105540008091070690910806892B90910906892B76
:1055500090910A06892B11F00E94481A86E0FE01FC
:105560003196A5E0B6E001900D928A95E1F70E9490
:10557000B00A9091A90589138093A9058091AA0585
:10558000843009F00CCE83E08093E9008091E8003C
:1055900082FF05CE8091E80090E085FF0CC00E945C
:1055A000BB0B30E2E32EF12C8E010F5F1F4F8823DF
:1055B00009F446C091E08091E8008B778093E80081
:1055C000992309F4ECCDE981E150E33108F0A7C05B
:1055D000F0E0E955FF4C0C94C42EA394880C991C60
:1055E0004FE0A41202CE0F5F1F4F0530110509F0E6
:1055F000EDCD8FEF89838A831B820E943C1A8160E4
:10560000782F9D838C8349815A816B81892F0E94D9
:105610005327E3CEB09207063ECFB092080644CFA0
:10562000B092090684CFB0920A068ACF8091F10029
:10563000D8018D938D01B1E0EB1AF10809F4BACFCE
:105640008091E80085FDF2CF8091E8008B77809310
:10565000E8000E94BB0B882399F3ACCF1A8289E043
:105660008B8311C08A81823009F433C1833089F180
:10567000813009F054C00E941E0B0E94CA2E6B8319
:105680007C838D839E838091AA05843009F087CD29
:105690008091E9001091EC001795112717958F70F4
:1056A000182B82E08093E9008091E80080FF0DC014
:1056B00050E040E060E270E0CE0101960E945D0C97
:1056C0008091E8008E778093E8001F701093E900C6
:1056D00066CDFE013196D6018C9111969C91B2E077
:1056E000CB0ED11C92838383329628EBC21625E021
:1056F000D20689F7C8CF8A81823089F48B819C8158
:10570000AD81BE8189A39AA3ABA3BCA3BC01CD018B
:105710000E94CA2E86E290E00E94AF2FB4CF8FEF96
:105720008983B1CF4C816B818A810E945E1098275A
:10573000892798279E838D83A6CF0D811E811027F0
:10574000012710278A81EB809EE1E99E70011124D8
:10575000A6E98A9FE00CF11C11248C8190E0880F4F
:10576000991FE80EF91E612FC70187960E94AF2F7F
:10577000602FC7018896D0CF0E949F0F84CF80E111
:105780008A8381CFBA8281E86BCFCA80DB80DC2438
:10579000CD24DC248C817601E80EF11C8E010B5F98
:1057A0001F4FC60181589D4FCE14DF0409F46BCF03
:1057B000B1E8CB16B1E0DB0648F40E94912FF80166
:1057C00081938F01FFEFCF1ADF0AEBCF80E0F7CF95
:1057D0000A811B81102701271027AE014F5F5F4F01
:1057E0006A018C817A01E80EF11CC80181589D4F35
:1057F000EC14FD0409F447CF013851E0150728F4F3
:10580000D60114966C910E94AF2F0F5F1F4FBFEF10
:10581000CB1ADB0AEACF0E94181035CF84E0B0CF54
:10582000CA80DB80DC24CD24DC248C817601E80E68
:10583000F11C8E010B5F1F4FC6018796CE14DF044B
:1058400009F421CFE8E5CE16E2E0DE0648F40E9436
:10585000912FD8018D938D01BFEFCB1ADB0AECCFCE
:1058600080E0F7CF0A811B81102701271027FE0156
:1058700031966F018C817F01E80EF11CC80187967B
:10588000EC14FD0409F4FFCE0835F2E01F0728F4FC
:10589000D60114966C910E94AF2F0F5F1F4FBFEF80
:1058A000CB1ADB0AEBCF09BD19BD09B400FEFDCF51
:1058B0008091D8008F7D8093D8008091E000826035
:1058C0008093E0008091E00081FDFCCF0E94491BA5
:1058D00059CD86E290E00E94912F1B821C821D828E
:1058E0008E83D1CE2B30310508F0F3CD29CE2B306D
:1058F000310508F0A2CDD8CD78941F921FB61F9223
:1059000011248F939F93AF93BF93809146049091FE
:105910004704A0914804B09149040196A11DB11D0E
:105920008093460490934704A0934804B09349049D
:10593000BF91AF919F918F911F901FBE1F9018959F
:105940001F920F920FB60F9211242F933F934F93F4
:105950005F936F937F938F939F93AF93BF93EF93D7
:10596000FF938091E10082FF09C08091E20082FFF5
:1059700005C08091E1008B7F8093E1008091DA0087
:1059800080FF24C08091D80080FF20C08091DA0081
:105990008E7F8093DA008091D90080FF9BC080E1E8
:1059A00089BD82E189BD09B400FEFDCF81E080930D
:1059B000AA058091B502811109C00E94EC0B0E94DA
:1059C000860E8091E20084608093E2008091E10085
:1059D00080FF17C08091E20080FF13C08091E20039
:1059E0008E7F8093E2008091E20080618093E200EC
:1059F0008091D80080628093D80019BC85E08093A4
:105A0000AA058091E10084FF29C08091E20084FF13
:105A100025C080E189BD82E189BD09B400FEFDCFCA
:105A20008091D8008F7D8093D8008091E1008F7E97
:105A30008093E1008091E2008F7E8093E20080916C
:105A4000E20081608093E2008091B402882309F42F
:105A500047C084E08093AA058091AA058091E10067
:105A600083FF27C08091E20083FF23C08091E10083
:105A7000877F8093E10082E08093AA051092B402B0
:105A80008091E1008E7F8093E1008091E2008E7F23
:105A90008093E2008091E20080618093E20042E026
:105AA00060E080E00E94560E8091F0008860809354
:105AB000F000FF91EF91BF91AF919F918F917F91F6
:105AC0006F915F914F913F912F910F900FBE0F906B
:105AD0001F90189519BC1092AA051092B50276CFA6
