:100000000C94B7020C94EF020C94EF020C94EF02E4
:100010000C94EF020C94EF020C94EF020C94EF029C
:100020000C94EF020C94EF020C94391F0C941120E5
:100030000C94EE1E0C94EF020C94EF020C94EF0261
:100040000C94EF020C94EF020C94EF020C94EF026C
:100050000C94EF020C94151F0C94EF020C94EF0219
:100060000C94EF020C94EF020C94EF020C94EF024C
:100070000C94EF020C94EF020C94EF020C94EF023C
:100080000C94EF020C94EF020C94EF020C94EF022C
:100090000C94EF020C94EF020C94EF020C94EF021C
:1000A0000C94EF020C94EF020C94EF02050109028C
:1000B000A10185020901A1000509190129081500FE
:1000C0002501950875018102050109300931158165
:1000D000257F95027508810609381581257F9501D0
:1000E00075088106050C0A38021581257F95017572
:1000F000088106C0C005010980A101850319012AF4
:10010000B700150126B700950175108100C0050CD8
:100110000901A101850419012AA002150126A002E6
:10012000950175108100C005010906A1018506052C
:100130000719E029E71500250195087501810205D9
:1001400007190029EF1500250195F07501810205B9
:10015000081901290595057501910295017503910D
:1001600001C00660FF0961A1010962150026FF00B8
:100170009520750881020963150026FF00952075FA
:10018000089102C005010906A101050719E029E748
:1001900015002501950875018102950175088101F9
:1001A0000507190029FF150026FF0095067508812F
:1001B000000508190129059505750191029501753C
:1001C000039101C009025B00030100A0FA090400C9
:1001D0000001030101000921110100012240000773
:1001E0000581030800010904010002030000000961
:1001F00021110100012222000705820320000107CE
:1002000005030320000109040200010300000009A6
:10021000211101000122B60007058403200001120C
:1002200001000200000008424B6960010001020069
:10023000011C034D0041004A0041005F0053004F84
:10024000004C0044004500520045004400000010EE
:10025000034B0042004400460041004E00530000A2
:100260000004030904165C1E001F00200021002268
:1002700000230024002500260027002D002E002A40
:10028000004A002B0014001A000800150017001C7B
:100290000018000C00120013002F00300031004B3A
:1002A00000396104001600070009000A000B000D68
:1002B000000E000F0033003400000028004E00E163
:1002C000001D001B0006001900050001511100105F
:1002D00000360037003800E50052004C00E0000016
:1002E00000E300E20000002C000000E6000000E453
:1002F0000000000000500051004F00165C3A003B27
:10030000003C003D003E003F0040004100420043F1
:100310000044004500005C4A000100C25CC35CC5AB
:100320005CC65CC75CC85CC95CCA5C01004600472F
:10033000004800005C4B003961CB5CCC5C010001E3
:1003400000010001000100010001000100010000A6
:1003500000DE5C4E00E1000100010001000100012F
:1003600000010001000100010001000100A900A836
:100370000001000100000001000100000001000078
:100380000001000000010000000000AC00AA00AB6A
:100390000001000100010001000100010001000155
:1003A0000001000100010001000100010001000145
:1003B0000001000100010001000100010001000135
:1003C0000001000100010001000100010001000125
:1003D0000001000100010001000100010001000115
:1003E0000001000100000001000100010001000106
:1003F00000010001000100010001000100010001F5
:1004000000010001000100010001000000010001E5
:1004100000000001000000010000000100000000D9
:1004200000010001000100010001000100010001C4
:1004300000010001000100010001000100010001B4
:1004400000010001000100010001000100010001A4
:100450000001000100010001000100010001000194
:100460000001000100010001000100010001000184
:100470000001000100010001000100000001000175
:100480000001000100010001000100010001000164
:100490000001000100010001000100010001000154
:1004A0000000000100010000000100000001000048
:1004B0000001000000000001000100010000000038
:1004C000000000000000000000000000000000002C
:1004D000000000000000000000000000000000001C
:1004E000007E0F00D4FFFFFFC7000000780000006F
:1004F00000000000002A2B2800000000000000007F
:10050000000000000000000029000000002C1E3444
:1005100020212224342627252E362D3738271E1F4A
:10052000202122232425263333362E37381F040575
:10053000060708090A0B0C0D0E0F101112131415E3
:10054000161718191A1B1C1D2F3130232D350405C1
:10055000060708090A0B0C0D0E0F101112131415C3
:10056000161718191A1B1C1D2F3130354C00112479
:100570001FBECFEFDAE0DEBFCDBF04B603FE18C06A
:100580008091740290917502A0917602B0917702E9
:100590008730904BA740B04B59F4109274021092E0
:1005A00075021092760210927702E0E0F8E3099566
:1005B00011E0A0E0B1E0E0E0F3E402C005900D92AC
:1005C000A236B107D9F722E0A2E6B1E001C01D9240
:1005D000A437B207E1F70E94A91A0C942A210C94BF
:1005E000000081FD02C05C9A08955C980895E82F90
:1005F0002FE0929FE00D11248E2F877041E001C003
:10060000440F8A95EAF7E695E695E69583E0E89F3C
:10061000F0011124E65FFD4F30E020E070E05191E1
:10062000DF011197CB01022E02C0969587950A949F
:10063000E2F7817081958527842385278C932F5F2E
:100640003F4F2330310559F70895E82F2FE0929F4F
:10065000E00D11249E2F9770E695E695E69583E0D0
:10066000E89FF0011124E65FFD4F50E040E080E09C
:10067000219130E0092E02C0369527950A94E2F7C1
:1006800021703327042E01C0220F0A94EAF7822B2F
:100690004F5F5F4F4330510559F7089580913D02F8
:1006A00090913C02981301C008958F5F8770FACF34
:1006B00090910C019923C1F09091390297FF14C0D9
:1006C000E82FE695E695E695803FF8F4F0E0EC59E2
:1006D000FE4F877021E030E001C0220F8A95EAF7D3
:1006E0008281822B82830895A6E6B1E0EFEF90E04D
:1006F0002D91821751F0EF3F19F4211101C0E92F1C
:100700009F5F9630A9F7EF3F09F408950E2E000C75
:10071000FF0BEC59FE4FE6CF90910C019923E1F0CD
:100720009091390297FF18C0E82FE695E695E69577
:10073000803FF0F4F0E0EC59FE4F877021E030E0AC
:10074000A90102C0440F551F8A95E2F7CA0180959E
:100750009281892382830895E6E6F1E091918913DD
:1007600003C0DF0111971C9251E0EC36F507B1F799
:100770000895982F909580913402892380933402B4
:10078000089580913502811110923502089590915B
:10079000390292FF06C0282F28712830F9F4877F8C
:1007A000846093FF06C0282F28712831F1F4877EDA
:1007B000846120913A0220FF06C0382F387138300A
:1007C000D9F4877F816021FF06C0282F2871283146
:1007D000D1F4877E816194FD877E0895282F24714E
:1007E0002430F9F68B7F8860DCCF282F24712431E8
:1007F00001F78B7E8861DDCF382F3171313019F7E9
:100800008E7F8860E0CF282F2171213121F78E7EE5
:100810008861E1CFCF93DF93EC01803E910509F42D
:1008200060C050F58133910509F4A6C090F4893277
:10083000910509F49AC08A9709F4A5C0C130D10581
:1008400009F462C0CE010497813A910508F055C0C1
:100850005BC089339105F1F182389105D9F1C597D3
:1008600009F47CC0C83AD10508F094C0C53AD10556
:1008700028F3A497D06448C0843E910509F453C07E
:1008800068F4823E9105E1F1833E910509F440C090
:10089000CE01805E9109089780F536C0863E9105AD
:1008A00009F44CC0873E910509F44DC0811523E53C
:1008B000920708F09AC0811532E5930708F000C14D
:1008C0008F3F910511F008F074C0803F910550F200
:1008D000D0651AC0809139028370B1F0C0EED0E0CB
:1008E00013C08091390280FD15C190913A0290FFAA
:1008F0000BC0C3EED0E084FF07C0D0E0C0E004C06E
:100900008091390282FDF5CFCE01DF91CF9108951C
:100910008091390282FD01C190913A0290FDDECFB3
:1009200084FFF2CFEACF80913A0281FFEDCF809130
:100930003902C7EED0E084FDE0CFE6CF80913902E6
:1009400083FDF7CFE1CF8091390283FDE9C090911B
:100950003A0291FFE5CFC4EED0E0D6CF80913902C4
:1009600085FFD2CFC9E2D0E0CFCF8091390285FF99
:10097000CBCFC5E3D0E0C8CF8091390286FFC4CF8A
:10098000CAE2D0E0C1CF8091390286FFBDCFC1E37A
:10099000D0E0BACFCF3BD10508F07ACFC85AD0E02B
:1009A000CC0FDD1FCC5CDE4F0990D881C02DD46404
:1009B000ABCFC11581E5D80798F4C11520E5D20762
:1009C00008F061C0C11530E2D30708F49DCFCE0115
:1009D00090548115904108F090CFDF70D06A94CF89
:1009E000DC2FCC27C16FD06A8FCF811539E59307F3
:1009F000A0F5C11588E5D80708F07AC0C11525E52E
:100A0000D207C8F4C11534E5D30708F06CC09E01C5
:100A10002370332781E090E002C0880F991F2A9548
:100A2000E2F7C695C69520E2C29FE0011124C82BCB
:100A3000D92BDA6869CFCE0195558F3F910511F01A
:100A400008F05BCF8C2F0E94C703C82FD0E0DC2FAB
:100A5000CC27CC27DF71D06257CF81153AE59307B9
:100A600008F44BC090568115904208F046CF8D2F68
:100A70008F710E94C70390E0982F882788279F7165
:100A80008C2BEC01E8CF9E0174E0369527957A9582
:100A9000E1F723708C2F86958695837030E2839FD3
:100AA000C0011124922BC37021E030E002C0220F5C
:100AB000331FCA95E2F7822B932BEC01DC6824CF1D
:100AC0009C012370332781E090E002C0880F991FBA
:100AD0002A95E2F7C695C69520E2C29FE00111244F
:100AE000C82BD92BEBCFDC2FCC27C46FD06A0CCF0F
:100AF000DC2FCC27C06FD06A07CF8F700E94C7034E
:100B000034E0D695C7953A95E1F7CF709C2FEC016C
:100B1000D069FACEC9E3D0E0F7CEC2EED0E0F4CE91
:100B2000C6EED0E0F1CE80E00895F894E82FE2958B
:100B3000EF70F0E041A18F7021E030E0B90102C018
:100B4000660F771F8A95E2F7CB01962F9095942335
:100B500091A392A1892B82A3789408958091280271
:100B600080FD14C081FD14C082FD16C080912A0250
:100B7000882381F08E3180F420E5829FC00111240A
:100B80006EE170E00E947E20862F089584E1089532
:100B900088E2089588E0089580E50895809128020C
:100BA00080FD16C081FD16C082FD16C0809129020D
:100BB0008823A1F0883280F428E0829FC0011124AC
:100BC00068E270E00E947E20862F672B39F008953E
:100BD00082E0089584E0089588E0089581E0089512
:100BE000E0E1E80FE031E0F5F0E0E45DFE4D0C946B
:100BF000B4200E94AE05819580932E0208950E9434
:100C0000AE05FACF0E94AE05819580932D0208951E
:100C10000E94AE05FACF0E94CE0580932F02089560
:100C20000E94CE058195F9CF0E94CE0581958093D3
:100C3000300208950E94CE05FACF845F990B21E01F
:100C400030E001C0220F8A95EAF780912C02822BB6
:100C500080932C020895809128028160809328025D
:100C60000895809128028260F9CF809128028460E3
:100C7000F5CF40912D02803F59F480912E0287FFDD
:100C80000DC010922E0241110BC010922A0208C012
:100C9000813F81F480912E0218169CF3442381F049
:100CA00080912F0290913002892B09F05AC0109246
:100CB00029020895823F49F447FFF0CF10922D0298
:100CC00080912E028111ECCFE0CF833F19F41416EE
:100CD000ACF3E4CF90912F02893F29F41916F4F672
:100CE00010922F02DBCF8A3F19F497FFD7CFF8CFAE
:100CF000909130028B3F29F497FFD0CF10923002B1
:100D0000CDCF8C3F19F41916CCF3C8CF9CE0980FC7
:100D1000953090F4845F990B21E030E0B90102C076
:100D2000660F771F8A95E2F7CB01809590912C0290
:100D3000892380932C02B2CF8D3F31F48091280219
:100D40008E7F80932802AACF8E3F21F480912802C3
:100D50008D7FF7CF8F3F09F0A1CF809128028B7F45
:100D6000F0CF0895EF92FF920F931F93CF93DF93ED
:100D7000CDB7DEB728970FB6F894DEBF0FBECDBF54
:100D80008430E8F581113CC0909180009F7790936A
:100D900080002D98A0918600B0918700282F30E028
:100DA0000E94C12069837A838B839C8323E030E097
:100DB00040E050E00E94922089019A0180918600D3
:100DC000909187006CE070E00E946A2060177107C4
:100DD000E8F0C80169E070E00E946A207093890021
:100DE0006093880028960FB6F894DEBF0FBECDBF83
:100DF000DF91CF911F910F91FF90EF90089583E0C5
:100E000090918000906890938000C4CF809186007C
:100E100090918700E0908600F0908700E091860036
:100E2000F091870066E070E00E946A20060F171FAD
:100E3000211D311DD901C80125E0880F991FAA1F66
:100E4000BB1F2A95D1F789839A83AB83BC83C701E3
:100E500066E070E00E946A209F0150E040E0260FAB
:100E6000371F411D511D69817A818B819C810E94B0
:100E7000922029833A834B835C83E0918600F09132
:100E80008700CA01B9010E945A20DF019B01AC0111
:100E90000E94D0206D837E838F8398879B01AC0155
:100EA00069817A818B819C810E945A2069837A832F
:100EB0008B839C83DC01CB013FE0B695A79597958A
:100EC00087953A95D1F7409186005091870070E060
:100ED00060E0481759076A077B0720F48091860075
:100EE00090918700BC017ACF282F220F220F220F6A
:100EF000909131029770922B90933102987F21E06C
:100F000009F420E09091310220FB90F99093310296
:100F10000C94B206E091E801F091E901309721F0DC
:100F20000190F081E02D099480E008952091B801AE
:100F30003091B9012817390771F09093B901809366
:100F4000B801E091E801F091E901309721F00680C5
:100F5000F781E02D099408952091B6013091B701F1
:100F60002817390771F09093B7018093B601E0918B
:100F7000E801F091E901309721F00084F185E02D3E
:100F8000099408952FB7F8948091CC019091CD01E8
:100F9000A091CE01B091CF012FBF08950E94C2074A
:100FA00020912D0230912E02232B21F08093C90134
:100FB0009093CA0120912F0230913002232B21F00F
:100FC0008093C7019093C801E091E801F091E90195
:100FD000309749F082E080932B020480F581E02D68
:100FE0008BE292E0099408959C014FB7F8948091A8
:100FF000CC019091CD01A091CE01B091CF014FBF16
:10100000821B930B08958091B50108950895FC010A
:10101000CB0120919001309191012617370790F074
:10102000009729F42091E8002E772093E80040E013
:10103000009751F4411108C08091E80082FF31C04F
:1010400080E00895C901F3CF2091D0012223A9F1B6
:101050002530A9F12091E80023FD2DC02091E80062
:1010600022FDEACF2091E80020FFE2CF3091F3008B
:101070002091F200009719F02830310558F041E036
:101080002830310509F040E02091E8002E772093C8
:10109000E800CECF41914093F10001972F5F3F4F81
:1010A000E9CF8091D001882341F0853041F08091D3
:1010B000E80083FFC1CF81E0089582E0089583E0D6
:1010C000089580918A0187FF13C08091E80082FF14
:1010D00006C08091E8008B778093E80004C080917F
:1010E000D0018111F2CF08958091D0018823D9F3E6
:1010F0008091E80080FFF8CF8091E8008E77ECCFF8
:101100002091E4003091E50095E6A9012091EC00E2
:10111000822F817020FF06C08091E80080FF06C00A
:1011200080E008952091E80022FD1AC08091D0014E
:10113000882389F0853089F08091EB0085FD0FC010
:101140002091E4003091E50042175307F9F29150E5
:10115000E1F684E0089582E0089583E0089581E057
:101160000895E8EDF0E080818E7F80831092E200A8
:101170001092DA001092E100A0EEB0E08C91816054
:101180008C9380818F77808319BCA7EDB0E08C9120
:101190008E7F8C9380818F7E808310928901089549
:1011A000EF92FF920F931F93CF937C018B010E94CC
:1011B0008008C82F811117C08091E80085FD0BC001
:1011C0008091E8008E778093E8000E948008882351
:1011D00099F3C82F08C0F70181917F018093F10036
:1011E0000150110949F78C2FCF911F910F91FF905A
:1011F000EF900895982F9093E900242F762F50E0D8
:10120000891731F07091EC002091ED005091F000C1
:1012100021FD06C09F5F973071F78093E900089524
:101220003091EB003E7F3093EB003091ED003D7F3D
:101230003093ED003091EB0031603093EB00709310
:10124000EC002093ED005093F0002091EE0027FD7C
:10125000E1CF0895CF92DF92EF92FF920F931F9309
:10126000CF93DF93C8EDD0E088818F7E8883E7ED50
:10127000F0E080818160808384E082BF81E08093A0
:10128000890188818E7F888302EE10E0F801108248
:101290001092DA0081EEC82ED12CF60110828881DE
:1012A0008F77888388818068888388818F7D888311
:1012B00019BC1092D001109288011092BB011092BB
:1012C000870190EEE92EF12CF70180818B7F8083DE
:1012D00088818160888342E060E080E00E94FA08B3
:1012E000F60180818E7F8083F80180818160808318
:1012F000808188608083F70180818E7F80838881F0
:1013000080618883DF91CF911F910F91FF90EF90C3
:10131000DF90CF90089581E08093E00080E2809399
:10132000D8001092C9008FE19EE40197F1F700C048
:10133000000087E090EBDC018093740290937502CB
:10134000A0937602B093770288E19CE00FB6F89400
:10135000A895809360000FBE90936000FFCFCF935D
:10136000DF93D82FC92F80910C018823C1F1809180
:10137000390287FF34C060E284E08093E9008FEF98
:101380009091E800815095FD06C095ED9A95F1F792
:1013900000008111F5CF8091E80085FF1DC080918C
:1013A0000C0170E050E040E0811104C050E040E0EA
:1013B00068E070E08D2F9C2F0E94D0088091E8009B
:1013C0008E778093E80080E2ED2FFC2FA5E9B1E055
:1013D00001900D928A95E1F7DF91CF91089568E031
:1013E00081E0CBCF24E02093E9002FEF3091E8009B
:1013F000215035FD06C035ED3A95F1F70000211179
:10140000F5CF2091E80025FF0BC050E040E066E0FA
:1014100070E00E94D0088091E8008E778093E80009
:101420000895809392017093940160939301809149
:10143000D0018430F9F48093E9008FEF9091E800B7
:10144000815095FD06C095ED9A95F1F70000811148
:10145000F5CF8091E80085FF0DC050E040E063E0EB
:1014600070E082E991E00E94D0088091E8008E77D8
:101470008093E8000895BC0183E00C94110ABC013C
:1014800084E00C94110A4F925F926F927F928F9238
:101490009F92AF92BF92CF92DF92EF92FF920F9303
:1014A0001F93CF93DF9310E000E036E9632E712C99
:1014B000E801CC0FDD1F58011CC0F6018590949007
:1014C000692DC7010E94E920682DC70101960E947D
:1014D000E92022E0C20ED11C32E0E30EF11C4E14D2
:1014E0005F0459F76E968FE0A80EB11CC615D7059C
:1014F00081F0C501880F991F9C012B593D4F69014F
:101500007E0137E2E30EF11C2E0185E4480E511CEA
:10151000D4CF3E0126E9620E711C055B1F4F0C32D1
:1015200031E0130729F6DF91CF911F910F91FF90C2
:10153000EF90DF90CF90BF90AF909F908F907F9073
:101540006F905F904F900895682F86E090E00C9424
:10155000E920CF93C82F6FEF811162E283E290E020
:101560000E94E9206FEFC11164E084E290E00E94E4
:10157000E9206FEFC11165E285E290E0CF910C9414
:10158000E920CF93DF93CFE7D2E060E0CE010E9465
:10159000E9202196C11584E0D807B9F7DF91CF91F2
:1015A000089580E00E94A90A60E086E290E00E942F
:1015B000E9200E94430A0E94C10A81E00C94A90A12
:1015C000CF9384E090E00E94DB20C82F82E290E07D
:1015D0000E94DB20982F8C2FCF91089583E290E01A
:1015E0000E94DB20823289F484E290E00E94DB20BA
:1015F000843059F485E290E00E94DB2091E085324E
:1016000009F090E0892F8170089580E0FCCF0F935E
:101610001F93CF93DF93C42FD0E0CC0FDD1F2EE1BB
:10162000629FC00DD11D112436E9839FC00DD11DCD
:101630001124CE0187960E94DB20082F10E0102F86
:101640000027CE0188960E94DB209801282BC90133
:10165000DF91CF911F910F910895462F672F84300E
:1016600030F4753020F44F3010F40C94070B90E0F8
:1016700080E00895DF92EF92FF920F931F93CF9334
:10168000DF937C010091370280913602082BC7E07E
:10169000D0E010E0DC2EC8010C2E02C09595879595
:1016A0000A94E2F780FD0CC02197A0F7D12C8D2D74
:1016B000DF91CF911F910F91FF90EF90DF900895F0
:1016C000B7018C2F0E942D0B0E940A04019761F331
:1016D000EECF0F931F93CF93FC0182810081118184
:1016E000882389F0662379F0C8010E943A0BC82F3D
:1016F000682FC8010E94F702B8018C2FCF911F916B
:101700000F910C942D0BC8010E942503C82FF4CF14
:10171000CF93DF93D82FC92F0E943A0B6D2F7C2FC8
:101720000E942D0BDF91CF910C940A040E94880B2C
:10173000282F92959F70963091F060F4925F9F7081
:10174000923030F481E0203F81F030F4283E30F0D8
:1017500080E008959A5FF3CF243FD1F7089581E0A8
:10176000283EE0F3213FA1F7F9CF0895809134029C
:1017700090913B02892B80936401909135029923CB
:10178000A1F0892B8093640180910C018823D9F109
:101790008091390287FF37C08EE1E6E6F1E090E004
:1017A000815098F591110E94C10340E250E06AEE29
:1017B00071E084E691E00E941D21892B59F180E2BD
:1017C000E4E6F1E0AAEEB1E001900D928A95E1F72E
:1017D000E091E801F091E9013097E1F080910C018E
:1017E000882359F08091390287FF07C080916401F6
:1017F0008093650186E0809364010280F381E02D8F
:1018000084E691E0099486E0C8CF2191222341F239
:101810009F5FC6CF0895CF93C82F882309F4AEC029
:101820008238C1F40E948A0781FDA8C089E30E9422
:1018300058030E94B60B2FEF31EE84E02150304068
:101840008040E1F700C0000089E30E948C03CF9143
:101850000C94B60B8338A1F40E948A0780FD8EC0D9
:1018600083E50E9458030E94B60B9FEF21EE34E0FF
:10187000915020403040E1F700C0000083E5E5CF03
:101880008438A1F40E948A0782FD78C087E40E9410
:1018900058030E94B60B8FEF91EE24E081509040E8
:1018A0002040E1F700C0000087E4CFCF8CEF8C0F21
:1018B000813A90F580910C01882301F180913902E1
:1018C00087FF1CC0EC2FE695E695E695F0E0EC5915
:1018D000FE4F828190E04C2F477021E030E002C043
:1018E000220F331F4A95E2F782239323892B81F03D
:1018F0008C2F0E948C030E94B60B0AC0E6E6F1E032
:101900008CE691E02191C21799F38E179F07D1F7CA
:101910008C2F0E9458039BCF80E28C0F883068F494
:10192000C77021E030E001C0220FCA95EAF780912C
:101930003402822B809334028ACF8BE58C0F833064
:1019400038F42C2F2452330BC901CF910C949607F5
:10195000E8E5EC0FE73150F4F0E0EE0FFF1FEC5C30
:10196000FE4F80819181CF910C94AC07C03F30F045
:101970008C2F0E94F005CF910C94CE07CF91089543
:10198000882309F452C0823871F40E948A0781FFCB
:101990004CC089E30E9458030E94B60B89E30E9461
:1019A0008C030C94B60B833859F40E948A0780FF8D
:1019B0003CC083E50E9458030E94B60B83E5EFCF3D
:1019C000843859F40E948A0782FF2FC087E40E945E
:1019D00058030E94B60B87E4E2CF9CEF980F913A30
:1019E000F0F290E2980F983050F4877091E001C0C7
:1019F000990F8A95EAF7892F0E94B903D2CF9BE508
:101A0000980F933020F490E080E00C94960798E5CE
:101A1000980F973120F490E080E00C94AC07803F61
:101A200020F00E9439060C94CE0708950F931F935F
:101A3000CF93C82F10E000E0893311F400E510E0E7
:101A40008C2F0E940B0C0115110531F48C2FCF91B6
:101A50001F910F910C94C00C8FE99FE00197F1F753
:101A600000C0000001501109EECF882339F0909199
:101A70003402892B809334020C94B60B089588238A
:101A800021F00E94B9030C94B60B0895FF920F93B6
:101A90001F93CF93DF93C62FD42F122F8823A9F043
:101AA000609332020E94C207909385018093840163
:101AB000C77081E001C0880FCA95EAF7DF91CF9126
:101AC0001F910F91FF900C94350D80913202681395
:101AD00034C080918401909185010E94F407883C74
:101AE000910558F500E20D0FCD17A9F0C770FF243E
:101AF000F3948F2D01C0880FCA95EAF70E943F0D1D
:101B0000083048F48D2F877001C0FF0C8A95EAF7E2
:101B10008F2D0E94350D812F0E94160D0830A0F4E4
:101B2000D77081E001C0880FDA95EAF7DF91CF9195
:101B30001F910F91FF900C943F0DC77081E001C081
:101B4000880FCA95EAF7F2CFDF91CF911F910F91DD
:101B5000FF90089590E080E00E94960790E080E07A
:101B60000E94AC0710923B020E94B60B86E0EBE2AB
:101B7000F2E0DF011D928A95E9F710922A02109295
:101B80002902109228020C94CE0710923402809100
:101B90000C01E6E6F1E0882359F08091390287FFD5
:101BA00007C08EE1DF011D928A95E9F70C94AA0D1A
:101BB00086E0F8CF1F93CF93DF93CDB7DEB7AA9718
:101BC0000FB6F894DEBF0FBECDBF8AE891E0FC01EE
:101BD00001962091F100208321E082399207B9F724
:101BE00080918B01893009F456C0C8F4823009F421
:101BF000B3C0833009F482C0813071F18091E80074
:101C000083FF84C280918A0190918B019A3008F001
:101C10007DC2E92FF0E0E45CFE4D0C94B4208A30E4
:101C200009F489C08B3051F780918A01813231F7F4
:101C300080918E0190918F01892B01F78091E800AE
:101C4000877F8093E8000E94610880918C018093D7
:101C50000C010E94C50DD2CF80918A01813A71F6A4
:101C60008091E800877F8093E80080918E019091B9
:101C70008F01892B61F460E285E991E070E00E94B8
:101C800007088091E8008B778093E800B7CF60E089
:101C900090E080E0F3CF80918A01813209F0AECFED
:101CA00080918E0190918F018D7F892B09F0A6CFB5
:101CB0008091E800877F8093E8008091E80082FFB0
:101CC00018C09091F3008091F200029731F4809156
:101CD000F100813011F0863021F48091F100809381
:101CE000B5018091E8008B778093E8000E9461083D
:101CF00085CF8091D0018111E0CF80CF80918A0182
:101D0000813A09F07BCF80918E0190918F01892BD0
:101D100009F074CF8091E800877F8093E80080917C
:101D2000E80080FFFCCF80910C018093F10080914E
:101D3000E8008E77D9CF80918A01813209F05ECF99
:101D40008091E800877F8093E8000E94610880917D
:101D50008D018093860152CF80918A01813A09F0EA
:101D60004DCF8091E800877F8093E8008091E80064
:101D700080FFFCCF80918601D8CF803899F08238DF
:101D800009F0C4C180918E018F70873008F0BEC108
:101D90008093E9008091EB0085FB882780F9109201
:101DA000E90006C0809187019091BB01911182608A
:101DB0009091E800977F9093E8008093F100109253
:101DC000F1008091E8008E779DC1882309F48BC1D2
:101DD000823009F09BC180918C0181118EC180916C
:101DE0008E018F702FEF280F263008F08FC180935F
:101DF000E9002091EB0020FF80C1933031F4809105
:101E0000EB0080628093EB0078C19091EB009061D1
:101E10009093EB0021E030E001C0220F8A95EAF7B1
:101E20002093EA001092EA008091EB008860EACFEC
:101E300081116CC110918C011F778091E300807833
:101E4000812B8093E3008091E800877F8093E800F6
:101E50000E9461088091E80080FFFCCF8091E30040
:101E600080688093E30082E0111183E08093D001C9
:101E70004DC18058823008F049C140918C01509189
:101E80008D014C3D83E0580799F583E08A838AE20F
:101E900089834FB7F894DE01139620E03EE051E2CB
:101EA000E32FF0E050935700849120FF03C0829508
:101EB0008F703F5F8F708A30C8F0895C90E08D939F
:101EC0009D932F5F243161F74FBF8091E800877F9A
:101ED0008093E8006AE270E0CE0101960E94070854
:101EE0008091E8008B778093E80010C1805DE6CF99
:101EF00080918E0190918F01252F3327233031055A
:101F000009F44AC078F52130310509F479C08BE530
:101F100090E0E4ECF1E02230310509F0F7C02091C7
:101F2000E800277F2093E8002091900130919101F3
:101F30008217930708F49C0140E02115310509F050
:101F400064C0411162C08091E80082FDC9CF8091D8
:101F5000D001882329F2853019F28091E80083FFAF
:101F6000F2CFBECF2132310509F43BC02232310518
:101F700009F0CCC08330910508F0C8C0FC01EE0F19
:101F8000FF1FEC5EFE4F0190F081E02D8F5E9E4FB3
:101F9000DC018C9190E011C0CA019927413089F091
:101FA00082309105B1F0892B09F0B0C0E1E6F2E092
:101FB000E4918E2F90E0E1E6F2E0009709F4A6C0EC
:101FC000AECFEFE4F2E0E4918E2F90E0EFE4F2E0A8
:101FD000F4CFE1E3F2E0E4918E2F90E0E1E3F2E070
:101FE000ECCF8330910508F091C0880F991FFC0158
:101FF000E65EFE4F0190F081E02D89E090E08FCF0A
:1020000082E190E0EFE1F2E08ACF8091D001882375
:1020100009F466CF853009F463CF8091E80083FD31
:102020005FCF8091E80082FD8ECF8091E80080FF35
:1020300084CF9091F3008091F2002115310519F0C1
:102040008830910550F041E0089709F040E0809118
:10205000E8008E778093E80070CF44914093F100C0
:102060003196215031090196E8CF803809F04EC0F1
:102070008091E800877F8093E800809188018093B9
:10208000F1009FCE811142C010918C011230F0F509
:102090008091E800877F8093E800109388010E9478
:1020A0006108112311F084E005C08091E30087FDF1
:1020B000FACF81E08093D00142E061EC81E00E94A0
:1020C000FA0842E261EC84E00E94FA0842E261EC24
:1020D00082E00E94FA0842E260EC83E00E94FA0883
:1020E0008091D00113C080918C01813079F481E01E
:1020F000933009F080E08093BB011092E900809159
:10210000E800877F8093E8000E9461088091E800E2
:1021100083FF0AC08091E800877F8093E800809168
:10212000EB0080628093EB00AA960FB6F894DEBFB6
:102130000FBECDBFDF91CF911F91089580933602DE
:102140000C94AA0D809337020C94AA0D21E030E084
:1021500001C0220F8A95EAF780913702822B0C94F6
:10216000A21021E030E001C0220F8A95EAF7209505
:102170008091370282230C94A210909138028095AE
:10218000892380933802282F277091F4282F082E56
:10219000000C330B9217130659F090913A0292FDFE
:1021A00007C08595859585950E94B11010923802DB
:1021B0000895CF93C0913A02C2FB992790F99817DE
:1021C00099F080FBC2F9C0933A026091390284E031
:1021D00090E00E94E9206C2F82E290E00E94E920CA
:1021E00082E0CF910C94BD10CF9108958091370279
:1021F000982F9670963019F488600C94A210877FFF
:10220000FCCF4F925F926F927F928F929F92AF928C
:10221000BF92CF92DF92EF92FF920F931F93CF93D3
:10222000DF93CDB7DEB72A970FB6F894DEBF0FBEA7
:10223000CDBFFE0131968AE0DF011D928A95E9F754
:1022400090E2E92E91E0F92E8F0125E2622E21E045
:10225000722E2F01AA24A394B12C44E3842E41E0D2
:10226000942EF70181917F018F3F09F445C0F894C6
:10227000E82FE295EF70F0E021A18F70A50102C078
:10228000440F551F8A95E2F7CA01922F982B91A30C
:1022900092A18095892382A3789400C0E5E2F1E0C1
:1022A00021E030E0D12CC12C41914F3F09F45DC0B9
:1022B000A42FA295AF70A05EB0E08C9190E04F701B
:1022C00002C0959587954A95E2F780FD4EC0C901F9
:1022D000C82AD92A220F331F8E169F0629F7F70125
:1022E000319780818F3F11F00E94950550EA5A95F1
:1022F000F1F7D801CD92DC920E5F1F4F6E147F0470
:1023000009F0AFCF4AE050E0B2018EED91E00E94BB
:102310001D219C0111E0892B09F410E0232B41F1D0
:102320008AE0F201AEEDB1E001900D928A95E1F7FD
:1023300081E08093D3010E94C2079093D2018093E1
:10234000D1018091D1019091D2010E94F4070397AD
:1023500098F08AE0EEEDF1E0A4EDB1E001900D928D
:102360008A95E1F71092D30107C080E090E0B0CFEA
:102370008091D3018111E5CF812F2A960FB6F89471
:10238000DEBF0FBECDBFDF91CF911F910F91FF90A8
:10239000EF90DF90CF90BF90AF909F908F907F9005
:1023A0006F905F904F90089569EE7EEF90E080E02F
:1023B0000E94072160E082E090E00E94E92060E056
:1023C00083E090E00E94E9201092360260E084E011
:1023D00090E00E94E92060E082E290E00E94E92023
:1023E00060E085E090E00E94E92060E086E090E017
:1023F0000E94E9206FEF87E090E00E94E92040E032
:1024000050E0BA0188E090E00E94FB2060E08DE09F
:1024100090E00E94E92040E050E0BA0188E190E0BD
:102420000E94FB2060E087E190E00E94E92040E00C
:1024300050E0BA018CE190E00E94FB2070E060E087
:1024400080E290E00E94072140E050E0BA0188E17C
:1024500090E00E94FB2080E00E94A90A0E94D10A1D
:1024600040E050E0BA018FE090E00E94FB2040E0A5
:1024700050E0BA0183E190E00C94FB203F924F9230
:102480005F926F927F928F929F92AF92BF92CF9204
:10249000DF92EF92FF920F931F93CF93DF9300D0C1
:1024A00000D0CDB7DEB77C01FC0190818181238112
:1024B0003481232B21F089238F3F09F0B0C50F9081
:1024C0000F900F900F90DF91CF911F910F91FF9080
:1024D000EF90DF90CF90BF90AF909F908F907F90C4
:1024E0006F905F904F903F900895980122513F4523
:1024F0002031310508F041C58FEF93E00E94DB20C9
:1025000002514FE7842E42E0942E882389F1809176
:1025100038028770A1F2F7018281882381F28091CD
:102520003A0282FDCCCF82E00F900F900F900F9077
:10253000DF91CF911F910F91FF90EF90DF90CF909F
:10254000BF90AF909F908F907F906F905F904F90D3
:102550003F900C94BD108114F4E09F06C1F2C401B9
:102560000E94DB20811101C001502FEF821A920AD4
:102570000111F1CF80910D0190910E01A0910F01F9
:10258000B091100189839A83AB83BC834424439424
:102590003AE0332E84010F5F1F4FC4010E94DB20FD
:1025A00089831A82882309F4B2CF9FEF980F933062
:1025B000F8F48A83498232E0830E911CC8010E949C
:1025C000DB208B83882309F4A2CF8E010F5F1F4F7E
:1025D000F80120812223F1F2213009F044C09181D9
:1025E0008281913039F40E5F1F4F0E94160D08C092
:1025F0004801EBCF923039F40E5F1F4F0E940B0C55
:102600000F5F1F4FE5CF933029F40E5F1F4F0E94DD
:10261000C00CF6CF943019F00F5F1F4FF1CF0E5F53
:102620001F4F20E030E0A8014F5F5F4F8053990BB0
:102630008A30910560F02115310511F38FE99FE093
:102640000197F1F700C0000021503109F4CF329E0C
:10265000B001339E700D11249C01260F371FF80125
:1026600081818A01E0CFE22FF0E0E351FB4F5490EB
:10267000822F86958695869590E0FC01E352FB4F6C
:10268000E4912770F0E0022E02C0F595E7950A94D8
:10269000E2F73F0131E063227724FC01E353FB4F73
:1026A000A490B12C022E02C0B594A7940A94E2F72C
:1026B000E1E0AE22BB24FC01E354FB4FC490D12CDB
:1026C00002C0D594C7942A95E2F7F1E0CF22DD2429
:1026D0006114710419F081EE0E940B0CA114B10475
:1026E00019F086EE0E940B0C852D0E94160DAB286A
:1026F00019F086EE0E94C00C672819F081EE0E9446
:10270000C00CCD2809F47CCF8CE26FCF81E00E9411
:10271000A6100E94F610FBCE81E00E94B110F9CF06
:1027200082E0F5CF0F3B2CE5120709F46AC0003CAC
:102730003CE5130709F488C0033F9CE5190709F439
:10274000B1C008F095C0083DFCE51F0709F4A6C01C
:10275000093D2CE5120709F4ADC026E241EE61EE19
:10276000073D3CE5130709F496C0811126C40631E4
:102770001C4509F0C5C090913402882309F4CAC1F0
:10278000892F8A7A91E009F490E0909333028111C5
:10279000BFC189E20E9458030E94B60BB8CE83E005
:1027A0000E947407809131020E94A40AB0CE80E09A
:1027B000F7CF80913102982F987F09F43FC088505D
:1027C00080933102887F91E009F490E0809131029A
:1027D00090FB80F913C080913102982F96959695C1
:1027E0009695883140F49F5F990F990F990F8770E4
:1027F000892B809331028091310281608093310274
:102800001BC08091310280FF09C08E7F809331020E
:102810000E94A40A80E00E94B20679CE8091310223
:1028200080FD75CE816080933102813019F489E09A
:1028300080933102809131020E94A40A809131027A
:10284000869586958695E7CF90913102892F86955A
:10285000869586958F5F8F719770843020F4880FEE
:10286000880F880F982B9093310280913102AACF64
:10287000053F9CE51907D1F027E245EE66EE063FDD
:10288000ECE51E0741F027E245EE64EE043FFCE56F
:102890001F0709F06ACF0E94460D39CE27E245EEA8
:1028A00065EEF9CF26E241EE60EEF5CF26E241EE8D
:1028B00062EEF1CF28E241E0F3CF98012A5F3C4578
:1028C0002930310508F48BC306312CE5120709F4D1
:1028D00052CF0A352DE5120709F445C108F024C18D
:1028E00001158CE5180709F431C10E3D1C4541F472
:1028F0000E94D4110CCE053AFDE51F0709F46FC301
:10290000F7018281C080D180882309F430C1C601DB
:102910000E943A0B182F682FC6010E94F702B601D9
:10292000812F0E942D0B0E940A048C01F7019280D6
:10293000858082942FE08222809138028770C1F0D6
:10294000C92C9920B1F0812F807F803421F080E262
:10295000800F883068F080913A0282FD09C082E0E1
:102960000E94BD10809138028770CC24C3948111DD
:10297000C12C812F82958F70A82EB12C8C3008F03D
:1029800063C1F501EA5BFE4D0C94B420F801E350FD
:10299000FC45809139028160E331F10530F5EE5A52
:1029A000FE4D0C94B42003308DE5180778F40A3FEF
:1029B0009CE5190708F423C3F801EB5FFC45E830F8
:1029C000F10510F5EB59FE4D0C94B4200136EDE500
:1029D0001E0709F496C090913902892F8E7F90FFCF
:1029E0008160053A1D4509F00AC38093390207C387
:1029F000809139028260F9CF809139028460F5CFED
:102A0000809139028860F1CF80913A028160809391
:102A10003A02F5C280913A028260F9CF8091390280
:102A20008061E3CF809139028062DFCF80913902EB
:102A30008064DBCF0E94C50D809139028068D5CFBC
:102A4000809139028C60D1CF80913A028360DFCFD0
:102A5000809139028E7FC9CF809139028D7FC5CF99
:102A6000809139028B7FC1CF80913902877FBDCFA2
:102A700080913A028E7FCBCF80913A028D7FC7CF73
:102A8000809139028F7EB1CF809139028F7DADCF99
:102A9000809139028F7BA9CF0E94C50D80913902A8
:102AA0008F77A3CF80913902837F9FCF80913A02A5
:102AB0008C7FADCF8091390282FB992790F921E07C
:102AC000922790FB82F990FB83F98FCF80913A0295
:102AD000982F909591708E7F892B90FB81F997CFDD
:102AE0000E94C50D90913902892F97FB87F9805874
:102AF0007CCF61E08EE090E00E94E92080C260E03F
:102B0000F9CF90913902892F8F7E94FF80616DCF2C
:102B100085E340CE80913302811104C089E20E9496
:102B20008C033ACE85E3FBCF0B35EDE51E07E9F0CC
:102B30000C351D4509F0E4CE80913A0282FB8827CE
:102B400080F991E089270E94D910DACE0E94C50D44
:102B50002FEF34E38CE0215030408040E1F700C09B
:102B600000000E948B0981E0EECF80E0ECCFC6012F
:102B70000E942503182FD3CEF12FFF70DF2E107F78
:102B800019F0D29490EFD9229920B9F0DD2069F0A4
:102B900080E2800F883010F0011109C0809134026A
:102BA0008D29809334020E94B60B802F4BC08091F8
:102BB0003B028D2980933B02F6CF802F0E94C00CF0
:102BC000DD2009F441C080E2800F883010F001114F
:102BD00004C08D2D0E94B90306C0D09480913B02A1
:102BE0008D2180933B020E94B60B2EC0212F2F70A7
:102BF000D22E107F103219F0D29480EFD822002309
:102C000081F0013009F485C0992009F48FC0882033
:102C100009F485C0F701858180FFC7CF8F70858358
:102C20007EC020913A0222FF51C0992009F447C08A
:102C3000DD2039F0809134028D29809334020E9486
:102C4000B60B80E00E940B0C98E0A91AB108E4E0F2
:102C5000AE16B10420F40E948A070E94F102CC2033
:102C6000A9F08091380280FD11C0F701128285958C
:102C7000859585950E94A610C7010E943E128091FD
:102C800038028595859585950E94B11060E0C70151
:102C90000F900F900F900F90DF91CF911F910F9198
:102CA000FF90EF90DF90CF90BF90AF909F908F906C
:102CB0007F906F905F904F903F900C94690B80E0F5
:102CC0000E94C00CDD2009F4BFCF83CF9920A1F072
:102CD000909135028D2D892B811003C00E94350DF6
:102CE000B3CF31E08312FACF22FDAECF981709F4AB
:102CF000ABCF80933502A8CF811006C00E94C103DC
:102D00008D2D0E943F0DA0CF81E0881609F49CCF45
:102D1000F5CF992031F095E0981508F495CF8D2DD9
:102D2000DDCFE4E0E81508F48FCFEACF882041F347
:102D3000093349F4FFEF27EE33E0F15020403040F3
:102D4000E1F700C00000802F0E94C00C7DCF812FD2
:102D500086958695837061F0813009F075CFC80142
:102D60009370911002C090E080E00E94AC076CCF9D
:102D7000C8019370911002C090E080E00E94960715
:102D800063CF802F992029F00E94F0050E94CE0782
:102D90005BCF0E943906FACF812F8370A1F5911085
:102DA00053CF802F829586958770880F880F402F8C
:102DB0004F70082E01C0440F0A94EAF7202F2071AB
:102DC00004FF07C02FE030E001C0220F8A95EAF728
:102DD0002095169516951370123081F0822F842B52
:102DE000133031F080913602113029F0242B8223E8
:102DF0000E949E1029CF842B822BFACF242B809106
:102E000036028227F5CF992061F110FF1DCF802F68
:102E1000829586958770880F880F402F4F70082EF7
:102E200001C0440F0A94EAF7202F207104FF07C065
:102E30002FE030E001C0220F8A95EAF72095169521
:102E400016951370123099F0822F842B133031F0C5
:102E500080913702113041F0242B82230E94A2106E
:102E6000F3CE11FFF1CED3CF842B822BF7CF242BBF
:102E7000809137028227F2CF1F70992029F0812F8D
:102E80000E94A610802F2ACF802F0E943F0D812FF5
:102E90000E94B110D9CE023F81F160F4003FB9F039
:102EA000013F81F0992009F458C081107ECE812F16
:102EB0008F7127C0033F41F1043FA1F780913A028F
:102EC00082FF2DC0812F8F71992011F31AC0992094
:102ED00079F084E0881508F4B7CE1F7181E090E0A6
:102EE00001C0880F1A95EAF7909137028927B6CF6B
:102EF00095E0981508F4A8CEF0CF812F8F7191102E
:102F0000C7CF0E94A610A0CE80E0992009F4A6CFDA
:102F10001F7181E001C0880F1A95EAF79FCF9920B1
:102F200089F01F71812F0E94A61080913A0282FDC4
:102F300007C0E8E01E9FC00111248360809338021F
:102F4000812FDFCF81E00E94BD10F1E0F81508F07D
:102F50007BCE82E00E94BD1077CE882059F00933E5
:102F600009F0F1CE2FEF37EE83E021503040804062
:102F7000E1F7E7CE812F8F718BCF0031FFE51F077F
:102F800009F4C4CB01312FE5120709F4C9CB0E3B7C
:102F90002CE5120709F41FCC08F0C4CB0C3B9CE5D0
:102FA000190709F404CC0D3BECE51E0709F401CC2C
:102FB0000B3BFCE51F0709F4F2CB109232020136FD
:102FC0002DE5120761F008F096CC06319CE5190753
:102FD00008F073CC0230ECE51E0708F481CC0E94A7
:102FE000E00A90933A028093390206312CE51207E9
:102FF00008F0D9CC02303CE5130708F0C7CC60914B
:10300000390210913A0284E090E00E94E920612F99
:1030100082E290E00E94E9200E94C50D78CA61E03A
:10302000C7010E94690B8C01F701828181115DCA81
:1030300000313FE5130709F46FCB01319FE5190714
:1030400009F07ACB82E069CB1F93CF93DF93809115
:103050007302807FA9F480917002882389F08091A7
:103060003D02C0913C0270916E0260916F02A0918E
:103070007102B0917202D62FD72316E0C81304C094
:10308000DF91CF911F91089590E0109711F0DF3FED
:1030900019F401968770F2CF189F9001199F300D97
:1030A0001124F901E25CFD4F41816413F2CF4081AC
:1030B0004713EFCF42814111ECCF438154814A1B2A
:1030C0005B0B483C510528F7809173028F7080613B
:1030D00080937302F901ED5BFD4F80818F708061F9
:1030E00080838EE692E00E943E12DF91CF911F9185
:1030F0000C944E038F929F92AF92BF92DF92EF9209
:10310000FF920F931F93CF93DF93CDB7DEB72B972B
:103110000FB6F894DEBF0FBECDBF8C0185E0F8017D
:10312000DE01179601900D928A95E1F7F801E28091
:10313000A380B4808EE6882E82E0982E90916E0255
:1031400080916F0220917102309172022115310538
:1031500029F0482F49234F3F09F028C1EE2009F4F8
:1031600033C1F801808191810E94960BF82E88234B
:1031700009F42AC186E0F801AEE6B2E001900D92B2
:103180008A95E1F70E94241821C0D09073024D2D3A
:10319000407F283C310508F0A8C0F8012181411189
:1031A000C3C0FE2C281325C08081891322C0E110E2
:1031B00020C08D2D8F708061809373028EE692E027
:1031C0000E943E1280917302F80185838F2D2B9609
:1031D0000FB6F894DEBF0FBECDBFDF91CF911F9128
:1031E0000F91FF90EF90DF90BF90AF909F908F90E6
:1031F00008953F81AB2829F0822F83238F3F09F068
:1032000090C080E0F82FF170DF2EE0913D024091F8
:103210003C0256E080FD1CC0EE20C1F2809173029A
:10322000816080937302F12CD1CF8E2F90E05E9F4E
:10323000F0011124E25CFD4F6181261306C060811C
:10324000361303C06281E612E7CF0196E82FE770DC
:10325000E413EBCF8F8198850E94880B292F22954C
:103260002F70903260F0225F2F70223078F49F70C0
:1032700051F0F8019581907F31F4D12C0AC09F70F4
:1032800011F08823D1F3805E8830B8F3C8010E9422
:103290003E12FD2C9BCFF801808191810E94960BFC
:1032A000882309F491C0EE2009F48EC08091730246
:1032B000803270F080916E0290916F029A838983C0
:1032C0001B82BD82AC82DE82CE0101960E943E123C
:1032D00086E0F801AEE6B2E001900D928A95E1F742
:1032E0000E942418FF24F39471CF411132C08EE65E
:1032F00092E00E943E1286E0F40111928A95E9F76D
:1033000092CFF801808191810E94960B8111E0CFCC
:1033100080917302816080937302C8010E943E1203
:1033200055CF81E08E256ECF2813B5CFF80180816F
:103330008913B1CFE110AFCFD582C8010E943E12F0
:1033400086E0F801AEE6B2E001900D928A95E1F7D1
:103350003DCFF801218182139ECFF801808189132E
:103360009ACFE11098CFD582C8010E943E1286E024
:10337000F40111928A95E9F729CFF801218182138E
:10338000C0CFF80180818913BCCF8091730280FD8A
:10339000D7CF982F907FA1F28583903F71F2982F1D
:1033A000907F905F8F70892B8583C7CFF0907002DC
:1033B000A501421B530B9A01F110E7CE283C3105C1
:1033C000B0F6FE2CE110D9CFC8010E943E128ACF80
:1033D0001F93CF93DF93CDB7DEB767970FB6F894FF
:1033E000DEBF0FBECDBF342F4B8B252F5C8B962FAE
:1033F0006D8B7E8B8F8B4E895F89611110923B02A2
:103400001A8A3D872E879F87598B488B86E0FE015D
:103410003D96DE01179601900D928A95E1F7CE0157
:1034200007960E947A18882389F016E080913D0261
:1034300090913C02891349C067960FB6F894DEBF9D
:103440000FBECDBFDF91CF911F91089586E0FE01A1
:103450003796DE01119601900D928A95E1F79F81D2
:10346000888520913C0240913D026A857B85672BCF
:10347000E1F289238F3FC9F230E0C90101968770DC
:1034800099274817190671F40E94C50D10923C0245
:1034900010923D0286E0EEE6F2E0DF011D928A9591
:1034A000E9F7C3CF96E0929FD001939FB00D11240E
:1034B000A25CBD4FFE01319601900D929A95E1F705
:1034C00080933C020E944E03B0CF819FC001112423
:1034D000825C9D4F0E947A18882309F4ADCF8091B9
:1034E0003D0290E001968770992780933D029ECF20
:1034F00090E080E00E94E320893E9E4F11F40C94FE
:10350000EE0A80E008950E94781A81110AC00E9494
:10351000D4118091310284708961809331020E94BC
:10352000A40A86E090E00E94DB2080933102803282
:1035300020F0877088618093310290913102892F49
:10354000817090FF04C0892F8695869586950C948E
:10355000B206CDB7DEB7A4970FB6F894DEBF0FBEA4
:10356000CDBF84B7877F84BF0FB6F894A8958091AC
:103570006000886180936000109260000FBE80E858
:1035800090E00FB6F89480936100909361000FBEB5
:1035900085B7806885BF85B7806885BF83E995E07A
:1035A00090936301809362010E94B1080E942A09EE
:1035B0008091E20084608093E20078948091D00151
:1035C000882399F08091E9001091EC00179511275C
:1035D00017958F70182B1092E9008091E80083FDF9
:1035E0000E94DA0D1F701093E90082E084BD93E021
:1035F00095BD9AEF97BD80936E000E94EE0A8111EF
:1036000002C00E94D10A00E211E0B5E2EB2EB1E067
:10361000FB2ED8018D918D018F3F11F00E949505F1
:10362000E016F106B1F705E211E0A4E3EA2EA1E00D
:10363000FA2EF80181918F018F3F11F00E949505BC
:10364000E016F106B1F78AE0E4EDF1E0DF01282FA2
:103650001D922A95E9F7EEEDF1E0DF011D928A95C2
:10366000E9F7549A0E94781A811102C00E94D4117D
:1036700082E090E00E94DB208093BC010E94E00A7F
:1036800090933A02809339020E940111EFEBFDE51D
:103690003197F1F700C000000E9401118091D40120
:1036A00080FF08C06FEF7FEF90E080E00E9407216D
:1036B0000E948B0983E090E00E94DB200E949E1014
:1036C000259A2D9882E88093800089E1809381007B
:1036D0008FEF9FEF90938700809386000E94831A5C
:1036E0000E94831A80E091E09093E9018093E801C1
:1036F00068E1662E712C70E4572EEEEDAE2EE1E0FF
:10370000BE2EF3E08F2E912C8091D00100E112E1CA
:10371000853009F484C10E940111882359F08FB7C4
:10372000F8944091CC015091CD016091CE017091FF
:10373000CF018FBF54EDE52E51E0F52EEDEBF1E01A
:10374000D70110E000E0702F8D919D912191319172
:103750002817390709F477C12827392760E0CC24D6
:10376000C394D12CA9014C215D21452B09F465C1DD
:1037700069837A839C012C213D2191E0232B09F45C
:1037800090E09B830E94C2078160782F9D838C8389
:1037900049815A816B81892F0E94E819000F111FFE
:1037A000F801E354FE4F808191818C259D25918302
:1037B000808386E0EBE2F2E0DE01119601900D924B
:1037C0008A95E1F7C0902D02D0902E0200912F0231
:1037D0001091300210922D0210922E0210922F02A0
:1037E000109230028C2D8D2909F448C08091C901B6
:1037F0009091CA010E94F4079C0180912A028823BB
:1038000009F4E7C225313105C8F18F3F19F08F5F08
:1038100080932A02CC2059F00E94AE059FEF1C1421
:103820000CF491E0899F802D112480932D02DD20DE
:1038300059F00E94AE059FEF1D140CF491E0899F92
:10384000802D112480932E0230912D023323B1F06C
:1038500020912E02222391F045EB3403C001112464
:10386000992309F407C190932D0255EB250390018C
:103870001124332309F402C130932E02802F812BAF
:1038800009F448C08091C7019091C8010E94F407D3
:103890009C0180912902882309F496C221353105C3
:1038A000C8F18F3F19F08F5F80932902002359F0F0
:1038B0000E94CE059FEF10160CF491E0899F802D99
:1038C000112480932F02112359F00E94CE059FEFFF
:1038D00011160CF491E0899F802D11248093300201
:1038E00030912F02209130023323A1F0222391F056
:1038F00045EB3403C0011124992309F4C3C090930C
:103900002F0255EB250390011124332309F4BEC087
:103910003093300280912D0290912E02892B90914C
:103920002F02892B90913002892B11F00E94CE0733
:1039300086E0FE013196ABE2B2E001900D928A95ED
:10394000E1F70E948A079091CB01891721F08093BB
:10395000CB010E94F1028091D001843009F0D4CED5
:1039600083E08093E9008091E80082FFCDCE8091D2
:10397000E80090E085FF06C00E948008882309F4D3
:1039800089C091E08091E8008B778093E8009923CB
:1039900009F4BACEE981E150E33108F008C1F0E062
:1039A000E359FE4D0C94B4208091D001843039F15C
:1039B00080E00E94B20680E00E94F1021092BA01FB
:1039C0000FB6F894A895609260000FBE5092600008
:1039D00083B7817F846083BF83B7816083BF78941E
:1039E000889583B78E7F83BF0FB6F894A895809192
:1039F0006000886180936000109260000FBE80912B
:103A0000BB01882361F00E940111E4EDF1E0819196
:103A10009191892B09F0B9C1AE16BF06C1F780910B
:103A2000D001853009F4C0CF0E94C50D0E94831AD1
:103A30000E948A070E94F1026ECE6F5FCC0CDD1CE3
:103A40006F3009F08FCE0F5F1F4F0530110509F061
:103A50007ACE8FEF89838A831B820E94C20781609E
:103A6000782F9D838C8349815A816B81892F0E9495
:103A7000E8199FCE81E080932D02F7CE81E08093FC
:103A80002E02FCCE81E080932F023BCF81E0809319
:103A9000300240CF00E210E0CE0101966C0180912F
:103AA000E80085FD0AC08091E8008B778093E800EC
:103AB0000E948008882399F364CF8091F100D60199
:103AC0008D936D010150110951F75BCF1A8289E086
:103AD0008B8323C08A81823009F46DC1833009F45D
:103AE00042C0813009F063C08FB7F8942091CC01B7
:103AF0003091CD014091CE015091CF0129A33AA33D
:103B00004BA35CA38FBF69A17AA18BA19CA10E944A
:103B1000BA206B837C838D839E838091D001843017
:103B200009F0F2CD1091E9008091EC001F708795AB
:103B300088278795182B82E08093E9008091E80020
:103B400080FF0DC050E040E060E270E0CE010196E1
:103B50000E94D0088091E8008E778093E8001F7063
:103B60001093E900D1CDFE013196D7018C911196C9
:103B70009C91B2E0EB0EF11C928383833296AE14DB
:103B8000BF0499F7CACF8A81823089F42B813C81A6
:103B90004D815E8129A33AA34BA35CA3CA01B9015D
:103BA0000E94BA2086E290E00E94E920B6CF8FEF13
:103BB0008983B3CF4C816B818A810E94070B982740
:103BC000892798279E838D83A8CF0D811E8110277A
:103BD000012710278A81EB803EE1E39E70011124CA
:103BE00046E9849FE00CF11C11248C8190E0880F41
:103BF000991FE80EF91E612FC70187960E94E920E0
:103C0000602FC7018896D0CF0E94430A86CF8A8151
:103C1000893009F082CF8B8153E0859FC001112448
:103C20006FEF70E00E946A20862F0E94740775CFA4
:103C30008A81893029F08A3009F06FCF1B826DCFDD
:103C400080913102869586958695AFEF8A9FC00157
:103C50001124B4010E946A206B835FCF80913102EE
:103C60000E94A40A5ACF80E18A8357CF81E08A83D9
:103C700081E82ECF0A811B811027012710278C8114
:103C80006801C80ED11C7E01B5E0EB0EF11CC80125
:103C900081589D4FC016D10609F43FCF0138E1E0AD
:103CA0001E0740F40E94DB20D7018D937D010F5F3A
:103CB0001F4FEDCF80E0F8CF0A811B81102701272D
:103CC0001027FE0131967F018C816F01C80ED11C37
:103CD000C80181589D4FEC14FD0409F41ECF013832
:103CE000F1E01F0728F4D70114966C910E94E92097
:103CF0000F5F1F4FBFEFEB1AFB0AEACF0E94C10A0A
:103D00000CCF84E0B1CF0A811B8110270127102737
:103D10008C816801C80ED11C7E01E5E0EE0EF11C1D
:103D2000C80187960C151D0509F4F7CE0835F2E099
:103D30001F0740F40E94DB20D7018D937D010F5FA8
:103D40001F4FEECF80E0F8CF0A811B81102701279B
:103D50001027FE0131967F018C816F01C80ED11CA6
:103D6000C8018796CE14DF0409F4D7CE0835F2E0F7
:103D70001F0728F4D70114966C910E94E9200F5F69
:103D80001F4FBFEFEB1AFB0AEBCF09BD19BD09B4FA
:103D900000FEFDCF8091D8008F7D8093D800809168
:103DA000E00082608093E0008091E00081FDFCCF24
:103DB0000E94C50D34CE86E290E00E94DB201B827B
:103DC0001C821D828E83A9CE2B30310508F06BCD6D
:103DD000A1CD2B30310508F01ACD50CD1F921FB662
:103DE0001F9211248F939F93AF93BF938091BA0139
:103DF000811113C08091CC019091CD01A091CE0191
:103E0000B091CF014196A11DB11D8093CC0190933B
:103E1000CD01A093CE01B093CF01BF91AF919F91FF
:103E20008F911F901FBE1F90189578941F921FB6F8
:103E30001F9211248F939F93AF93BF938091CC01D6
:103E40009091CD01A091CE01B091CF010196A11D1D
:103E5000B11D8093CC019093CD01A093CE01B0937E
:103E6000CF01BF91AF919F918F911F901FBE1F9067
:103E700018951F920F920FB60F9211242F933F9314
:103E80004F935F936F937F938F939F93AF93BF9362
:103E9000EF93FF938091E10082FF09C08091E200DF
:103EA00082FF05C08091E1008B7F8093E1008091CB
:103EB000DA0080FF24C08091D80080FF20C080916C
:103EC000DA008E7F8093DA008091D90080FF9BC05A
:103ED00080E189BD82E189BD09B400FEFDCF81E0AA
:103EE0008093D00180918901811109C00E94B1089D
:103EF0000E942A098091E20084608093E200809110
:103F0000E10080FF17C08091E20080FF13C0809124
:103F1000E2008E7F8093E2008091E20080618093D6
:103F2000E2008091D80080628093D80019BC85E0BF
:103F30008093D0018091E10084FF29C08091E2004C
:103F400084FF25C080E189BD82E189BD09B400FEFE
:103F5000FDCF8091D8008F7D8093D8008091E100C3
:103F60008F7E8093E1008091E2008F7E8093E2005B
:103F70008091E20081608093E20080918801882333
:103F800009F447C084E08093D0018091D0018091F2
:103F9000E10083FF27C08091E20083FF23C080916E
:103FA000E100877F8093E10082E08093D00110924E
:103FB00088018091E1008E7F8093E1008091E20092
:103FC0008E7F8093E2008091E20080618093E20026
:103FD00042E060E080E00E94FA088091F000886092
:103FE0008093F000FF91EF91BF91AF919F918F91DE
:103FF0007F916F915F914F913F912F910F900FBEE5
:104000000F901F90189519BC1092D0011092890141
:1040100076CF8091E30087FD02C081E0B4CF83E0DA
:10402000B2CF1F920F920FB60F921124FF920F93EF
:104030001F932F933F934F935F936F937F938F9330
:104040009F93AF93BF93CF93DF93EF93FF9309EECB
:1040500010E0F8018081C091EC00C795CC27C7958E
:104060008F70FC2EF82A1082C0EFD0E08881877F05
:10407000888378940E94DA0DF80110828881886024
:104080008883CF2DCF70C083FF91EF91DF91CF91C7
:10409000BF91AF919F918F917F916F915F914F9160
:1040A0003F912F911F910F91FF900F900FBE0F9096
:1040B0001F901895DB018F939F930E94D020BF9192
:1040C000AF91A29F800D911DA39F900DB29F900D67
:1040D00011240895AA1BBB1B51E107C0AA1FBB1FD7
:1040E000A617B70710F0A61BB70B881F991F5A9584
:1040F000A9F780959095BC01CD01089597FB072EF7
:1041000016F4009407D077FD09D00E946A2007FCBE
:1041100005D03EF4909581959F4F089570956195D7
:104120007F4F0895A1E21A2EAA1BBB1BFD010DC0F3
:10413000AA1FBB1FEE1FFF1FA217B307E407F50757
:1041400020F0A21BB30BE40BF50B661F771F881F33
:10415000991F1A9469F760957095809590959B01C9
:10416000AC01BD01CF010895EE0FFF1F0590F49142
:10417000E02D0994692796276927782787277827CC
:104180000895A29FB001B39FC001A39F700D811D30
:104190001124911DB29F700D811D1124911D089550
:1041A0000E94C120A59F900DB49F900DA49F800DEB
:1041B000911D11240895F999FECF92BD81BDF89A01
:1041C000992780B50895A8E1B0E042E050E00C9452
:1041D0000F21262FF999FECF92BD81BDF89A019744
:1041E00000B4021639F01FBA20BD0FB6F894FA9A3F
:1041F000F99A0FBE08950396272F0E94EA200E9485
:10420000E920252F0E94EA20242F0C94EA20019611
:10421000272F0E94EA200C94E920DC01CB01FC014D
:10422000F999FECF06C0F2BDE1BDF89A319600B40F
:104230000D9241505040B8F70895FB01DC0104C0D5
:104240008D910190801921F441505040C8F7881B8E
:10425000990B0895F894FFCFF905FF0502060806AB
:104260001D061D061D061D061D060B06100614065E
:104270001A062B0631063506BD0EE50E8610E50E34
:104280008610180F390F861035104210BC15BC155A
:10429000F615F615A716C11624162416CC163C17CB
:1042A0004B174B17F814FC1400150E1512151615A4
:1042B0001A15201528152C153015341540154415E0
:1042C00048154C15521570155A150A1538153C1518
:1042D00024155615661579157F15661D6A1DC31DB3
:1042E000DA1DE51D041E071E181E2E1ED71DD71D24
:1042F000331E361E3A1E5C1E7E1E811E831EA41EA9
:104300000308AF09F2093B0A3F0A06080100000052
:10431000004022B684016201AC00D601EF010F0219
:10432000F0369634976667F7F6F5F4F130313233AC
:1043300037929395E200E900EA00B500B600B700B5
:10434000CD008301CC008A01920194012102230255
:1043500024022502260227022A02B300B4006F00BD
:024360007000EB
:00000001FF
