:100000000C9400040C9438040C9438040C943804B8
:100010000C9438040C9438040C9438040C94380470
:100020000C9438040C9438040C948A260C9462279F
:100030000C943F260C9438040C9438040C94380427
:100040000C9438040C9438040C9438040C94380440
:100050000C9438040C9466260C9438040C943804E0
:100060000C9438040C9438040C9438040C94380420
:100070000C9438040C9438040C9438040C94380410
:100080000C9438040C9438040C9438040C94380400
:100090000C9438040C9438040C9438040C943804F0
:1000A0000C9438040C9438040C94380405010902AB
:1000B000A10185020901A1000509190129081500FE
:1000C0002501950875018102050109300931158165
:1000D000257F95027508810609381581257F9501D0
:1000E00075088106050C0A38021581257F95017572
:1000F000088106C0C005010980A101850319012AF4
:10010000B700150126B700950175108100C0050CD8
:100110000901A101850419012AA002150126A002E6
:10012000950175108100C005010906A1018506052C
:100130000719E029E71500250195087501810205D9
:1001400007190029EF1500250195F07501810205B9
:10015000081901290595057501910295017503910D
:1001600001C00660FF0961A1010962150026FF00B8
:100170009520750881020963150026FF00952075FA
:10018000089102C005010906A101050719E029E748
:1001900015002501950875018102950175088101F9
:1001A0000507190029FF150026FF0095067508812F
:1001B000000508190129059505750191029501753C
:1001C000039101C009025B00030100A0FA090400C9
:1001D0000001030101000921110100012240000773
:1001E0000581030800010904010002030000000961
:1001F00021110100012222000705820320000107CE
:1002000005030320000109040200010300000009A6
:10021000211101000122B60007058403200001120C
:1002200001000200000008424B626003000102006E
:10023000011C034B0042004400370035005F0048BA
:10024000004F0054005300570041005000000010C0
:10025000034B0042004400460041004E00530000A2
:10026000000403090429003A003B003C003D003E25
:10027000003F00400041004200430044004500466A
:10028000004A0035001E001F00200021002200232C
:100290000024002500260027002D002E002A004DF6
:1002A000002B0014001A000800150017001C00188D
:1002B000000C00120013002F00300031004B0039F9
:1002C0000004001600070009000A000B000D000ED4
:1002D000000F0033003400490028004E00E1001DEB
:1002E000001B000600190005001100100036003741
:1002F000003800E500000052004C00E000E300E29E
:1003000000000000002C0000000000E600E700E410
:10031000005000000051004F0001000100010001E9
:1003200000010001000100010001000100010001C5
:1003300000010001000100010001000100010001B5
:1003400000010001000100010001000100010001A5
:1003500000005C01000100C25CC35CC55CC65CC7F8
:100360005CC85CC95CCA5C010001000100010001BD
:100370000001000100010001000100010001000175
:100380000001000100010001000100010001000165
:10039000000100010001000100BD5CBF5CBE5CC04B
:1003A0005C010001000100010000000100010001EA
:1003B0000001000100000000000100000000000139
:1003C0000001000100010000000100010001000126
:1003D0000001000100010001000100010001000115
:1003E0000001000100010001000100010001000105
:1003F00000010001000100010001000100010001F5
:100400000001000100005C01000100C25CC35CC58A
:100410005CC65CC75CC85CC95CCA5C0100010001C9
:1004200000010001000100010001000100010001C4
:1004300000010001000100010001000100010001B4
:1004400000010001000100010001000100BD5CBFCE
:100450005CBE5CC05C010001000100010000000105
:100460000001000100010001000000000001000087
:100470000000000100010001000100000001000176
:100480000001000100010001000100010001000164
:100490000001000100010001000100010001000154
:1004A0000001000100010001000100010001000144
:1004B000000100010001000100005C01000100C218
:1004C0005CC35CC55CC65CC75CC85CC95CCA5C01DB
:1004D0000001000100010001000100010001000114
:1004E0000001000100010001000100010001000104
:1004F00000010001000100010001000100010001F4
:1005000000BD5CBF5CBE5CC05C010001000100017D
:1005100000000001000100010001000100000000D6
:1005200000010000000000010001000100010000C6
:1005300000010001002223252628292A2C2D2F30F6
:1005400032333536383A3B3D3E4042434547494ACF
:100550004C4E5051535557595A5C5E606264666800
:10056000696B6D6F71737577797B7D7F818385870B
:10057000898A8C8E90929496989A9C9E9FA1A3A50E
:10058000A7A8AAACAEAFB1B3B4B6B8B9BBBCBEBF36
:10059000C1C2C3C5C6C7C9CACBCCCDCED0D1D2D2B9
:1005A000D3D4D5D6D7D7D8D9D9DADADBDBDBDCDCC4
:1005B000DCDCDCDDDDDDDDDCDCDCDCDCDBDBDBDA7C
:1005C000DAD9D9D8D7D7D6D5D4D3D2D2D1D0CECDE7
:1005D000CCCBCAC9C7C6C5C3C2C1BFBEBCBBB9B8F4
:1005E000B6B4B3B1AFAEACAAA8A7A5A3A19F9E9C79
:1005F0009A98969492908E8C8A89878583817F7D44
:100600007B79777573716F6D6B6968666462605E24
:100610005C5A5957555351504E4C4A4947454342ED
:10062000403E3D3B3A3836353332302F2D2C2A2987
:100630002826252322FFAA7F554000010101010140
:10064000010101010202020202020202020303038B
:10065000030303030304040404040404050505055B
:10066000050606060606070707070708080808091B
:100670000909090A0A0A0B0B0B0C0C0C0D0D0D0EC7
:100680000E0E0F0F0F10101111111212131314145C
:10069000151516161717181819191A1A1B1B1C1DD1
:1006A0001D1E1E1F2020212222232424252626272A
:1006B0002829292A2B2C2D2D2E2F3031323233345C
:1006C00035363738393A3B3C3D3E3F404142434462
:1006D00045464748494A4C4D4E4F50515354555644
:1006E00058595A5B5D5E5F616264656668696B6CF0
:1006F0006D6F7072737577787A7B7D7E808283856B
:1007000087888A8C8E8F91939596989A9C9EA0A2AA
:10071000A3A5A7A9ABADAFB1B3B5B7BABCBEC0C2B4
:10072000C4C6C9CBCDCFD1D4D6D8DBDDDFE2E4E778
:10073000E9EBEEF0F3F5F8FAFDFF1E0F0500047F7C
:100740003F1F643214643214783C1E1E140A0500E4
:100750000000000000000000000000000000000099
:100760000000000000000000000000000000000089
:100770000000007E0F00D4FFFFFFC70000007800DC
:10078000000000000000002A2B28000000000000EC
:100790000000000000000000000029000000002C04
:1007A0001E3420212224342627252E362D373827A3
:1007B0001E1F202122232425263333362E37381FAF
:1007C0000405060708090A0B0C0D0E0F1011121371
:1007D0001415161718191A1B1C1D2F3130232D350F
:1007E0000405060708090A0B0C0D0E0F1011121351
:1007F0001415161718191A1B1C1D2F3130354C00F3
:1008000011241FBECFEFDAE0DEBFCDBF04B603FE7A
:1008100018C08091600390916103A0916203B09130
:1008200063038730904BA740B04B59F4109260039C
:10083000109261031092620310926303E0E0F8E308
:10084000099523E0A0EAB1E001C01D92A036B207ED
:10085000E1F711E0A0E0B1E0EEE5F3E502C00590BC
:100860000D92A03AB107D9F70E9490200C94462926
:100870000C94000081FF02C0469A0895469808959E
:10088000E82F2FE0929FE00D11248E2F877041E01A
:1008900001C0440F8A95EAF7E695E695E69583E070
:1008A000E89FF0011124E651FD4F30E020E070E0B8
:1008B0005191DF011197CB01022E02C096958795C9
:1008C0000A94E2F7817081958527842385278C938C
:1008D0002F5F3F4F2330310559F70895E82F2FE060
:1008E000929FE00D11249E2F9770E695E695E69570
:1008F00083E0E89FF0011124E651FD4F50E040E015
:1009000080E0219130E0092E02C0369527950A94A7
:10091000E2F721703327042E01C0220F0A94EAF770
:10092000822B4F5F5F4F4330510559F708958091F7
:10093000290390912803981301C008958F5F877051
:10094000FACF90911E019923E1F09091250397FF32
:1009500018C0E82FE695E695E695803FF0F4F0E0C4
:10096000EE55FE4F877021E030E0A90102C0440F30
:10097000551F8A95E2F7CA01809592818923828367
:100980000895E4EAF1E09191891303C0DF01119722
:100990001C9251E0EA3AF507B1F70895982F909527
:1009A000809120038923809320030895809121035F
:1009B00081111092210308959091250392FF06C0A2
:1009C000282F28712830F9F4877F846093FF06C0B0
:1009D000282F28712831F1F4877E84612091260325
:1009E00020FF06C0382F38713830D9F4877F8160F6
:1009F00021FF06C0282F28712831D1F4877E81611C
:100A000094FD877E0895282F24712430F9F68B7F7A
:100A10008860DCCF282F2471243101F78B7E886118
:100A2000DDCF382F3171313019F78E7F8860E0CFFC
:100A3000282F2171213121F78E7E8861E1CFCF935C
:100A4000DF93EC01803E910509F460C050F58133DD
:100A5000910509F4A6C090F48932910509F49AC071
:100A60008A9709F4A5C0C130D10509F462C0CE014E
:100A70000497813A910508F055C05BC08933910510
:100A8000F1F182389105D9F1C59709F47CC0C83AD3
:100A9000D10508F094C0C53AD10528F3A497D064D5
:100AA00048C0843E910509F453C068F4823E910524
:100AB000E1F1833E910509F440C0CE01805E9109C9
:100AC000089780F536C0863E910509F44CC0873EF4
:100AD000910509F44DC0811523E5920708F09AC0ED
:100AE000811532E5930708F000C18F3F910511F0A1
:100AF00008F074C0803F910550F2D0651AC0809113
:100B000025038370B1F0C0EED0E013C080912503BF
:100B100080FD15C19091260390FF0BC0C3EED0E07D
:100B200084FF07C0D0E0C0E004C08091250382FDAF
:100B3000F5CFCE01DF91CF9108958091250382FDFD
:100B400001C19091260390FDDECF84FFF2CFEACF62
:100B50008091260381FFEDCF80912503C7EED0E081
:100B600084FDE0CFE6CF8091250383FDF7CFE1CF71
:100B70008091250383FDE9C09091260391FFE5CF85
:100B8000C4EED0E0D6CF8091250385FFD2CFC9E255
:100B9000D0E0CFCF8091250385FFCBCFC5E3D0E058
:100BA000C8CF8091250386FFC4CFCAE2D0E0C1CF71
:100BB0008091250386FFBDCFC1E3D0E0BACFCF3B04
:100BC000D10508F07ACFC85AD0E0CC0FDD1FCE583F
:100BD000DE4F0990D881C02DD464ABCFC11581E51B
:100BE000D80798F4C11520E5D20708F061C0C115F7
:100BF00030E2D30708F49DCFCE0190548115904187
:100C000008F090CFDF70D06A94CFDC2FCC27C16F73
:100C1000D06A8FCF811539E59307A0F5C11588E516
:100C2000D80708F07AC0C11525E5D207C8F4C11568
:100C300034E5D30708F06CC09E012370332781E0B0
:100C400090E002C0880F991F2A95E2F7C695C695D5
:100C500020E2C29FE0011124C82BD92BDA6869CFAA
:100C6000CE0195558F3F910511F008F05BCF8C2F89
:100C70000E94DC04C82FD0E0DC2FCC27CC27DF710A
:100C8000D06257CF81153AE5930708F44BC09056D0
:100C90008115904208F046CF8D2F8F710E94DC04A1
:100CA00090E0982F882788279F718C2BEC01E8CF44
:100CB0009E0174E0369527957A95E1F723708C2F85
:100CC00086958695837030E2839FC0011124922B14
:100CD000C37021E030E002C0220F331FCA95E2F753
:100CE000822B932BEC01DC6824CF9C0123703327EB
:100CF00081E090E002C0880F991F2A95E2F7C6951F
:100D0000C69520E2C29FE0011124C82BD92BEBCF5E
:100D1000DC2FCC27C46FD06A0CCFDC2FCC27C06F60
:100D2000D06A07CF8F700E94DC0434E0D695C79557
:100D30003A95E1F7CF709C2FEC01D069FACEC9E368
:100D4000D0E0F7CEC2EED0E0F4CEC6EED0E0F1CEE9
:100D500080E00895F894E82FE295EF70F0E041A16B
:100D60008F7021E030E0B90102C0660F771F8A95CD
:100D7000E2F7CB01962F9095942391A392A1892B12
:100D800082A378940895089580910E0380FD14C085
:100D900081FD14C082FD16C080911003882381F06C
:100DA0008E3180F420E5829FC00111246EE170E055
:100DB0000E94D927862F089584E1089588E2089536
:100DC00088E0089580E5089580910E0380FD16C0A7
:100DD00081FD16C082FD16C080910F038823A1F00B
:100DE000883280F428E0829FC001112468E270E01C
:100DF0000E94D927862F672B39F0089582E0089545
:100E000084E0089588E0089581E00895E0E1E80F26
:100E1000E031E0F5F0E0E85BF64D0C94ED270E9440
:100E2000C40681958093140308950E94C406FACFE6
:100E30000E94C40681958093130308950E94C406FE
:100E4000FACF0E94E4068093150308950E94E406F9
:100E50008195F9CF0E94E406819580931603089549
:100E60000E94E406FACF845F990B21E030E001C0D4
:100E7000220F8A95EAF780911203822B8093120346
:100E8000089580910E03816080930E0308958091F0
:100E90000E038260F9CF80910E038460F5CF4091FC
:100EA0001303803F59F48091140387FF0DC0109203
:100EB000140341110BC01092100308C0813F81F44C
:100EC0008091140318169CF3442381F0809115033C
:100ED00090911603892B09F05AC010920F030895C0
:100EE000823F49F447FFF0CF10921303809114031F
:100EF0008111ECCFE0CF833F19F41416ACF3E4CFAB
:100F000090911503893F29F41916F4F610921503F0
:100F1000DBCF8A3F19F497FFD7CFF8CF9091160314
:100F20008B3F29F497FFD0CF10921603CDCF8C3F83
:100F300019F41916CCF3C8CF9CE0980F953090F4B3
:100F4000845F990B21E030E0B90102C0660F771F82
:100F50008A95E2F7CB0180959091120389238093C3
:100F60001203B2CF8D3F31F480910E038E7F8093B8
:100F70000E03AACF8E3F21F480910E038D7FF7CF11
:100F80008F3F09F0A1CF80910E038B7FF0CF0895A2
:100F90006F927F928F929F92AF92BF92CF92DF9289
:100FA000EF92FF920F931F93CF93DF93B82EA62E4D
:100FB0008901E42FF0E0E65CF94F611119C0E4917A
:100FC0008E2F2E2FD80111962C931197EC931296F9
:100FD0008C93DF91CF911F910F91FF90EF90DF9055
:100FE000CF90BF90AF909F908F907F906F9008951B
:100FF000E62EF12C249186E0B89E60011124CFEFFB
:10100000D0E0C601BE010E94C5278B2D90E0880F5D
:10101000991F35E5369FA001379F500D1124841B81
:10102000950B982F990F980FAE014E195F09249FC9
:10103000D001259FB00D1124EB2FA99E5001112442
:10104000AB2CBB24AE014A195B09249F5001259F9C
:10105000B00C11248B2D3E01691A71086E9C400161
:101060006F9C900C7E9C900C1124892C9924C8199B
:10107000D9092C9FA0012D9F500D112463307105BB
:10108000D1F09CEFC91693E0D90670F46130710578
:10109000B1F062307105B9F0FFEFCF16D10408F05E
:1010A00091CF8B2FE52F8ECF6430710579F06630AC
:1010B0007105B9F387CFEB2D822F2B2F83CFE22F32
:1010C0002B2D8B2F7FCF852FE22FF7CF822F252F30
:1010D00079CF80911B03982F9E7F29F481708260C5
:1010E00080931B0308958635E8F381708465F8CFFB
:1010F000FA0181110994FB01FDCFE091C802F09142
:10110000C902309721F00190F081E02D099480E030
:1011100008952091F6013091F7012817390771F0F1
:101120009093F7018093F601E091C802F091C90213
:10113000309721F00680F781E02D099408952091E1
:10114000F4013091F5012817390771F09093F501FA
:101150008093F401E091C802F091C902309721F028
:101160000084F185E02D099408959C0180911E0171
:101170008823C1F08091250387FF14C0862F8695B0
:1011800086958695603FF8F4F901E80FF11D6770C8
:1011900021E030E001C0220F6A95EAF78281822BBC
:1011A00082830895F90132968FEF90E041916417A0
:1011B00051F08F3F19F4411101C0892F9F5F963084
:1011C000A9F78F3F09F40895280F311D87FD3A953F
:1011D000F901628308952FB7F8948091A802909145
:1011E000A902A091AA02B091AB022FBF08950E945C
:1011F000EB082091130330911403232B21F08093EB
:10120000A5029093A6022091150330911603232B7B
:1012100021F08093A3029093A402E091C802F09180
:10122000C902309749F082E0809311030480F58170
:10123000E02D81E193E0099408959C014FB7F89463
:101240008091A8029091A902A091AA02B091AB024C
:101250004FBF821B930B08958091F3010895089569
:10126000FC01CB012091CE013091CF012617370729
:1012700090F0009729F42091E8002E772093E80061
:1012800040E0009751F4411108C08091E80082FFCE
:1012900031C080E00895C901F3CF2091AC02222330
:1012A000A9F12530A9F12091E80023FD2DC020915E
:1012B000E80022FDEACF2091E80020FFE2CF309144
:1012C000F3002091F200009719F02830310558F012
:1012D00041E02830310509F040E02091E8002E7708
:1012E0002093E800CECF41914093F10001972F5F0A
:1012F0003F4FE9CF8091AC02882341F0853041F027
:101300008091E80083FFC1CF81E0089582E00895D5
:1013100083E008958091C80187FF13C08091E800A1
:1013200082FF06C08091E8008B778093E80004C0BC
:101330008091AC028111F2CF08958091AC02882394
:10134000D9F38091E80080FFF8CF8091E8008E7794
:10135000ECCF2091E4003091E50095E6A9012091C1
:10136000EC00822F817020FF06C08091E80080FF92
:1013700006C080E008952091E80022FD1AC0809107
:10138000AC02882389F0853089F08091EB0085FDDF
:101390000FC02091E4003091E50042175307F9F2A5
:1013A0009150E1F684E0089582E0089583E0089585
:1013B00081E00895E8EDF0E080818E7F80831092D7
:1013C000E2001092DA001092E100A0EEB0E08C9101
:1013D00081608C9380818F77808319BCA7EDB0E00A
:1013E0008C918E7F8C9380818F7E80831092C70139
:1013F0000895EF92FF920F931F93CF937C018B017F
:101400000E94A909C82F811117C08091E80085FDAD
:101410000BC08091E8008E778093E8000E94A909B4
:10142000882399F3C82F08C0F70181917F01809329
:10143000F1000150110949F78C2FCF911F910F91A5
:10144000FF90EF900895982F9093E900242F762F26
:1014500050E0891731F07091EC002091ED0050912F
:10146000F00021FD06C09F5F973071F78093E9007F
:1014700008953091EB003E7F3093EB003091ED000A
:101480003D7F3093ED003091EB0031603093EB0005
:101490007093EC002093ED005093F0002091EE004B
:1014A00027FDE1CF0895CF92DF92EF92FF920F9345
:1014B0001F93CF93DF93C8EDD0E088818F7E888320
:1014C000E7EDF0E080818160808384E082BF81E08D
:1014D0008093C70188818E7F888302EE10E0F80137
:1014E00010821092DA0081EEC82ED12CF601108203
:1014F00088818F77888388818068888388818F7DC1
:10150000888319BC1092AC021092C60110928F020F
:101510001092C50190EEE92EF12CF70180818B7FAE
:10152000808388818160888342E060E080E00E945F
:10153000230AF60180818E7F8083F801808181609B
:101540008083808188608083F70180818E7F8083A3
:10155000888180618883DF91CF911F910F91FF90E7
:10156000EF90DF90CF90089580911B0380FD0AC01B
:10157000E5E5F2E0118210821282339652E0EB38F8
:10158000F507C1F7809A31B33E7F21B321604FB791
:10159000F89485E592E0FC010196508168E021BB5A
:1015A000000000C057FF31BB550F000000C000C055
:1015B00000C031BB00C06A9591F752E08B389507A7
:1015C00051F74FBF8FE594E00197F1F700C000009D
:1015D0000895EF92FF921F93CF93DF93EC0185E57F
:1015E000E82E82E0F82E10E08C81970140911E03D6
:1015F00060911D03810F0E94C807125F83E0E80E0F
:10160000F11C1C3F89F70E94B40A9A818C8190FFDB
:1016100008C08F5F8C83DF91CF911F91FF90EF9077
:1016200008958150F7CFCF92DF92EF92FF920F9300
:101630001F93CF93DF93FC018281DD24DA9480FD38
:1016400002C0DD24D39405E512E0D0E0C0E0F8014B
:1016500011821082128294E0E92EF12CC12C80912B
:1016600054028C0D8331E4F162E10E94B727892F87
:10167000082E000C990B8C179D0791F480911E0386
:101680008E9DA0018F9D500D112455954795559520
:101690004795980160911D0380911C030E94C80723
:1016A000CD0CF1E0EF1AF108D1F621960D5F1F4F36
:1016B000C231D10561F60E94B40A8091540291E0D2
:1016C000D91212C08823B1F0815080935402DF9167
:1016D000CF911F910F91FF90EF90DF90CF900895E1
:1016E00087FFC6CF8E5EC4CF90E00196BE010E94F8
:1016F000D927EBCF81E1E9CF0F931F93CF93DF93EE
:10170000C5E5D2E0FE01118210821282339682E09A
:10171000EB38F807C1F710E000E080915302082E83
:10172000000C990B081719078CF180910601082EFF
:10173000000C990B801791074CF19E0140911E03FC
:1017400060911D0380911C030E94C8070F5F1F4F0B
:1017500023960231110509F70E94B40A8091050110
:1017600090915302980F9093530220910601280FF5
:1017700020930601121614F491311CF08195809388
:101780000501DF91CF911F910F9108951982188261
:101790001A82DCCFCF92DF92EF92FF920F931F93CA
:1017A000CF93DF93CDB7DEB72E970FB6F894DEBF99
:1017B0000FBECDBF8D879E87AD85BE8514961C91CB
:1017C000212F30E0D9010E9437299B01AC010E94F2
:1017D000022969837A838B839C83E0E2F0E0E11B3A
:1017E000F109A5E5B0E09B01AC010E9402296987DF
:1017F0007A878B879C879F01DF010E94FA279B01D4
:10180000AC010E940D296D837E838F8398879B0195
:10181000AC0189819A81AB81BC81280F391F4A1F95
:101820005B1F69857A858B859C850E941529F22E20
:10183000422F50E099E29F1508F442C0A3E02A9F8E
:101840009001112435952795122F109595E5C92EF5
:1018500092E0D92E00E085E5E82EEF188E2D01FDEF
:101860008F2D9601412F60911D030E94C8070F5FC5
:10187000B3E0CB0ED11C023189F70E94B40AED858A
:10188000FE85948181E0992319F0903219F48FEF4D
:101890008093040180910401890FAD85BE85149663
:1018A0008C932E960FB6F894DEBF0FBECDBFDF919E
:1018B000CF911F910F91FF90EF90DF90CF900895FF
:1018C00085E590E0841B950B9C01220F331F280FA8
:1018D000391F37FFB7CF2F5F3F4FB4CFEF92FF9243
:1018E0000F931F93CF93DF93EC0105E512E0F12CEA
:1018F000E12C9C8160911D0380911C0329E0E2167C
:10190000F104FCF49923F9F0980140911E030E9420
:10191000C8078FEFE81AF80A0D5F1F4F22E1E216A1
:10192000F10439F70E94B40A8C8190E0019681702D
:1019300099278C83DF91CF911F910F91FF90EF90AA
:101940000895992309F3980140E0E1CF90911B039A
:1019500090FF0CC0E5E5F2E081836083428333961B
:1019600092E0EB38F907C1F70C94B40A08950F938D
:101970001F93CF93DF9300D00F92CDB7DEB78C01CA
:101980008091520281110AC09E012F5F3F4F4FEF9D
:101990006FEF0E94C8078A8180935202F801648128
:1019A000613049F06230F1F08091520240E06623EC
:1019B00031F040E019C06091520240E080E00E94A6
:1019C000A60CF801848190E0019663E070E00E942B
:1019D000D92784830F900F900F90DF91CF911F91A3
:1019E0000F9108954091520280E060E0E8CFCF93DC
:1019F000DF9300D00F92CDB7DEB790911B0390FF1D
:101A00000FC09E012F5F3F4F0E94C8074B81698125
:101A10008A810F900F900F90DF91CF910C94A60CBC
:101A20000F900F900F90DF91CF910895CF93DF9398
:101A3000EC01EC81F0E0EB5CFA4F4491EBE1F3E078
:101A4000628181810E94F70C8C818F5F8C83DF9192
:101A5000CF910895CF93DF93EC01EBE1F3E0438165
:101A600062818C810E94F70C8C818F5F8C83DF9167
:101A7000CF91089581E08093E00080E28093D800C8
:101A80001092C9008FE19EE40197F1F700C00000B9
:101A900087E090EBDC018093600390936103A09357
:101AA0006203B093630388E19CE00FB6F894A895B5
:101AB000809360000FBE90936000FFCFCF93DF93C1
:101AC000D82FC92F80911E018823C1F18091250351
:101AD00087FF34C060E284E08093E9008FEF90914B
:101AE000E800815095FD06C095ED9A95F1F700004C
:101AF0008111F5CF8091E80085FF1DC080911E0106
:101B000070E050E040E0811104C050E040E068E047
:101B100070E08D2F9C2F0E94F9098091E8008E774C
:101B20008093E80080E2ED2FFC2FA3EDB1E001905F
:101B30000D928A95E1F7DF91CF91089568E081E0F9
:101B4000CBCF24E02093E9002FEF3091E800215023
:101B500035FD06C035ED3A95F1F700002111F5CFBE
:101B60002091E80025FF0BC050E040E066E070E007
:101B70000E94F9098091E8008E778093E80008952B
:101B80008093D0017093D2016093D1018091AC0217
:101B90008430F9F48093E9008FEF9091E800815050
:101BA00095FD06C095ED9A95F1F700008111F5CFEE
:101BB0008091E80085FF0DC050E040E063E070E0F8
:101BC00080ED91E00E94F9098091E8008E77809382
:101BD000E8000895BC0183E00C94C00DBC0184E0D2
:101BE0000C94C00DCF93682FC92F84E090E00E9421
:101BF000AF286C2F82E290E0CF910C94AF284F92E7
:101C00005F926F927F928F929F92AF92BF92CF928C
:101C1000DF92EF92FF920F931F93CF93DF9310E029
:101C200000E034EB632E712CE801CC0FDD1F58016E
:101C30001CC0F60185909490692DC7010E94AF28C1
:101C4000682DC70101960E94AF2822E0C20ED11C68
:101C500032E0E30EF11C4E145F0459F76E968FE0EC
:101C6000A80EB11CC615D70581F0C501880F991FB4
:101C70009C012B593D4F69017E0138E2E30EF11CB6
:101C80002E0186E4480E511CD4CF3E0124EB620E97
:101C9000711C065A1F4F083631E0130729F6DF91F1
:101CA000CF911F910F91FF90EF90DF90CF90BF9059
:101CB000AF909F908F907F906F905F904F9008951E
:101CC000CF93C82F6FEF811162E283E290E00E9410
:101CD000AF286FEFC11164E084E290E00E94AF286A
:101CE0006FEFC11165E285E290E0CF910C94AF28CF
:101CF000CF93DF93C8EFD2E060E0CE010E94AF281F
:101D00002196C11584E0D807B9F7DF91CF910895E6
:101D100080E00E94600E60E087E290E00E94AF28C1
:101D200060E086E290E00E94AF280E94FF0D0E94D2
:101D3000780E81E00C94600ECF9384E090E00E94D6
:101D40009B28C82F82E290E00E949B28982F8C2F1E
:101D5000CF91089583E290E00E949B28823289F41B
:101D600084E290E00E949B28843059F485E290E060
:101D70000E949B2891E0853209F090E0892F8170C4
:101D8000089580E0FCCF0F931F93CF93DF93C42F70
:101D9000D0E0CC0FDD1F2EE1629FC00DD11D1124BC
:101DA00034EB839FC00DD11D1124CE0188960E9473
:101DB0009B28082F10E0102F0027CE0189960E9443
:101DC0009B289801282BC901DF91CF911F910F917A
:101DD0000895462F672F843030F4763020F44F304A
:101DE00010F40C94C30E90E080E00895DF92EF921F
:101DF000FF920F931F93CF93DF937C0100912303F6
:101E000080912203082BC7E0D0E010E0DC2EC8014F
:101E10000C2E02C0959587950A94E2F780FD0CC0C0
:101E20002197A0F7D12C8D2DDF91CF911F910F918C
:101E3000FF90EF90DF900895B7018C2F0E94E90E7C
:101E40000E941F05019761F3EECF0F931F93CF936D
:101E5000FC01828100811181882389F0662379F059
:101E6000C8010E94F60EC82F682FC8010E944004C6
:101E7000B8018C2FCF911F910F910C94E90EC801DE
:101E80000E946E04C82FF4CFCF93DF93D82FC92FB1
:101E90000E94F60E6D2F7C2F0E94E90EDF91CF91EC
:101EA0000C941F050E94440F282F92959F70963026
:101EB00091F060F4925F9F70923030F481E0203FA7
:101EC00081F030F4283E30F080E008959A5FF3CF3F
:101ED000243FD1F7089581E0283EE0F3213FA1F7A8
:101EE000F9CF08958091200390912703892B809347
:101EF000A201909121039923A1F0892B8093A20143
:101F000080911E018823D9F18091250387FF37C076
:101F10008EE1E4EAF1E090E0815098F591110E94A1
:101F2000D60440E250E06AEC72E082EA91E00E945E
:101F30008E28892B59F180E2E2EAF1E0AAECB2E0C6
:101F400001900D928A95E1F7E091C802F091C902E3
:101F50003097E1F080911E01882359F0809125038C
:101F600087FF07C08091A2018093A30186E0809340
:101F7000A2010280F381E02D82EA91E0099486E0DB
:101F8000C8CF2191222341F29F5FC6CF0895CF93FE
:101F9000C82F882309F46BC08CEF8C0F813AA8F509
:101FA00080911E01882301F18091250387FF1CC0C9
:101FB000EC2FE695E695E695F0E0EE55FE4F828132
:101FC00090E04C2F477021E030E002C0220F331F19
:101FD0004A95E2F782239323892B79F08C2F0E9474
:101FE000A1040E94720F09C0E4EAF1E08191C817D0
:101FF000A9F321E0EA3AF207C9F76C2F82EA91E0EF
:102000000E94B508CF910C94720F80E28C0F88303B
:1020100068F4C77021E030E001C0220FCA95EAF7EA
:1020200080912003822B80932003ECCF8BE58C0FD3
:10203000833038F42C2F2452330BC901CF910C94E8
:102040008908E8E5EC0FE73150F4F0E0EE0FFF1FF0
:10205000EE58FE4F80819181CF910C949F08C03F34
:1020600030F08C2F0E940607CF910C94F708CF9187
:102070000895882361F19CEF980F913A20F40E9413
:10208000A1040C94720F90E2980F983050F487706E
:1020900091E001C0990F8A95EAF7892F0E94CE043A
:1020A000F0CF9BE5980F933020F490E080E00C9403
:1020B000890898E5980F973120F490E080E00C941F
:1020C0009F08803F20F00E944F070C94F708089566
:1020D0000F931F93CF93C82F10E000E0893311F4C2
:1020E00000E510E08C2F0E94C70F0115110531F497
:1020F0008C2FCF911F910F910C9439108FE99FE095
:102100000197F1F700C0000001501109EECF8823BC
:1021100039F090912003892B809320030C94720F47
:102120000895882321F00E94CE040C94720F089524
:10213000FF920F931F93CF93DF93C62FD42F122FAD
:102140008823A9F0609317030E94EB089093C301C2
:102150008093C201C77081E001C0880FCA95EAF779
:10216000DF91CF911F910F91FF900C948710809178
:102170001703681334C08091C2019091C3010E947B
:102180001D09883C910558F500E20D0FCD17A9F007
:10219000C770FF24F3948F2D01C0880FCA95EAF70A
:1021A0000E949110083048F48D2F877001C0FF0CF9
:1021B0008A95EAF78F2D0E948710812F0E94681060
:1021C0000830A0F4D77081E001C0880FDA95EAF7F3
:1021D000DF91CF911F910F91FF900C949110C770D8
:1021E00081E001C0880FCA95EAF7F2CFDF91CF9165
:1021F0001F910F91FF90089590E080E00E94890860
:1022000090E080E00E949F08109227030E94720FC6
:1022100086E0E1E1F3E0DF011D928A95E9F7109293
:10222000100310920F0310920E030C94F7081092F3
:10223000200380911E01E4EAF1E0882359F08091A7
:10224000250387FF07C08EE1DF011D928A95E9F71C
:102250000C94FC1086E0F8CF1F93CF93DF93CDB79B
:10226000DEB7AA970FB6F894DEBF0FBECDBF88ECDD
:1022700091E0FC0101962091F100208321E0803D56
:102280009207B9F78091C901893009F456C0C8F4A2
:10229000823009F4B3C0833009F482C0813071F117
:1022A0008091E80083FF84C28091C8019091C901A8
:1022B0009A3008F07DC2E92FF0E0E85AF64D0C9410
:1022C000ED278A3009F489C08B3051F78091C8011D
:1022D000813231F78091CC019091CD01892B01F7AA
:1022E0008091E800877F8093E8000E948A098091AE
:1022F000CA0180931E010E941711D2CF8091C8019C
:10230000813A71F68091E800877F8093E8008091A0
:10231000CC019091CD01892B61F460E283ED91E0D5
:1023200070E00E9430098091E8008B778093E8008C
:10233000B7CF60E090E080E0F3CF8091C8018132B8
:1023400009F0AECF8091CC019091CD018D7F892B8A
:1023500009F0A6CF8091E800877F8093E800809104
:10236000E80082FF18C09091F3008091F20002977C
:1023700031F48091F100813011F0863021F48091A8
:10238000F1008093F3018091E8008B778093E8005F
:102390000E948A0985CF8091AC028111E0CF80CF65
:1023A0008091C801813A09F07BCF8091CC01909156
:1023B000CD01892B09F074CF8091E800877F80934D
:1023C000E8008091E80080FFFCCF80911E0180939F
:1023D000F1008091E8008E77D9CF8091C8018132D9
:1023E00009F05ECF8091E800877F8093E8000E942B
:1023F0008A098091CB018093C40152CF8091C8019A
:10240000813A09F04DCF8091E800877F8093E80002
:102410008091E80080FFFCCF8091C401D8CF803844
:1024200099F0823809F0C4C18091CC018F70873057
:1024300008F0BEC18093E9008091EB0085FB8827FE
:1024400080F91092E90006C08091C50190918F0239
:10245000911182609091E800977F9093E8008093BB
:10246000F1001092F1008091E8008E779DC18823E1
:1024700009F48BC1823009F09BC18091CA0181119E
:102480008EC18091CC018F702FEF280F263008F07D
:102490008FC18093E9002091EB0020FF80C1933031
:1024A00031F48091EB0080628093EB0078C19091D1
:1024B000EB0090619093EB0021E030E001C0220F2F
:1024C0008A95EAF72093EA001092EA008091EB00E7
:1024D0008860EACF81116CC11091CA011F77809189
:1024E000E3008078812B8093E3008091E800877F70
:1024F0008093E8000E948A098091E80080FFFCCF69
:102500008091E30080688093E30082E0111183E012
:102510008093AC024DC18058823008F049C140918F
:10252000CA015091CB014C3D83E0580799F583E0F7
:102530008A838AE289834FB7F894DE01139620E0FC
:102540003EE051E2E32FF0E050935700849120FFEA
:1025500003C082958F703F5F8F708A30C8F0895CAE
:1025600090E08D939D932F5F243161F74FBF809151
:10257000E800877F8093E8006AE270E0CE01019670
:102580000E9430098091E8008B778093E80010C1A9
:10259000805DE6CF8091CC019091CD01252F33272E
:1025A0002330310509F44AC078F52130310509F4AA
:1025B00079C08BE590E0E4ECF1E02230310509F0E0
:1025C000F7C02091E800277F2093E8002091CE01FA
:1025D0003091CF018217930708F49C0140E0211548
:1025E000310509F064C0411162C08091E80082FDAC
:1025F000C9CF8091AC02882329F2853019F28091ED
:10260000E80083FFF2CFBECF2132310509F43BC091
:102610002232310509F0CCC08330910508F0C8C0E2
:10262000FC01EE0FFF1FEA5DFE4F0190F081E02DEF
:102630008D5D9E4FDC018C9190E011C0CA019927FD
:10264000413089F082309105B1F0892B09F0B0C09A
:10265000E1E6F2E0E4918E2F90E0E1E6F2E000970F
:1026600009F4A6C0AECFEFE4F2E0E4918E2F90E043
:10267000EFE4F2E0F4CFE1E3F2E0E4918E2F90E0BA
:10268000E1E3F2E0ECCF8330910508F091C0880FD0
:10269000991FFC01E45DFE4F0190F081E02D89E07F
:1026A00090E08FCF82E190E0EFE1F2E08ACF80917D
:1026B000AC02882309F466CF853009F463CF80919A
:1026C000E80083FD5FCF8091E80082FD8ECF80918E
:1026D000E80080FF84CF9091F3008091F2002115F3
:1026E000310519F08830910550F041E0089709F064
:1026F00040E08091E8008E778093E80070CF4491AD
:102700004093F1003196215031090196E8CF80388D
:1027100009F04EC08091E800877F8093E8008091A7
:10272000C6018093F1009FCE811142C01091CA0171
:102730001230F0F58091E800877F8093E8001093D5
:10274000C6010E948A09112311F084E005C080911E
:10275000E30087FDFACF81E08093AC0242E061ECB8
:1027600081E00E94230A42E261EC84E00E94230A95
:1027700042E261EC82E00E94230A42E260EC83E0E4
:102780000E94230A8091AC0213C08091CA0181305B
:1027900079F481E0933009F080E080938F02109209
:1027A000E9008091E800877F8093E8000E948A0911
:1027B0008091E80083FF0AC08091E800877F8093C2
:1027C000E8008091EB0080628093EB00AA960FB640
:1027D000F894DEBF0FBECDBFDF91CF911F9108955A
:1027E000809322030C94FC10809323030C94FC1020
:1027F00021E030E001C0220F8A95EAF7809123039F
:10280000822B0C94F41321E030E001C0220F8A9552
:10281000EAF720958091230382230C94F41390917E
:1028200024038095892380932403282F277091F413
:10283000282F082E000C330B9217130659F0909195
:10284000260392FD07C08595859585950E94031402
:102850001092240308959091260392FB222720F9D9
:10286000281769F080FB92F9909326038091250345
:10287000909126030E94F20D82E00C940F140895AB
:1028800080912303982F9670963019F488600C94E9
:10289000F413877FFCCF4F925F926F927F928F925B
:1028A0009F92AF92BF92CF92DF92EF92FF920F93DF
:1028B0001F93CF93DF93CDB7DEB72C970FB6F89465
:1028C000DEBF0FBECDBFFE0131968CE0DF011D9251
:1028D0008A95E9F79DE5E92E91E0F92E8F0123E62F
:1028E000622E21E0722E2F01AA24A394B12C42E77C
:1028F000842E41E0942EF70181917F018F3F09F4EE
:1029000045C0F894E82FE295EF70F0E021A18F70B8
:10291000A50102C0440F551F8A95E2F7CA01922F04
:10292000982B91A392A18095892382A3789400C0CB
:10293000E3E6F1E021E030E0D12CC12C41914F3FA2
:1029400009F45DC0A42FA295AF70A05EB0E08C9199
:1029500090E04F7002C0959587954A95E2F780FD0B
:102960004EC0C901C82AD92A220F331F8E169F06CE
:1029700029F7F701319780818F3F11F00E94AA0655
:1029800050EA5A95F1F7D801CD92DC920E5F1F4FB5
:102990006E147F0409F0AFCF4CE050E0B2018CEB35
:1029A00092E00E948E289C0111E0892B09F410E02E
:1029B000232B41F18CE0F201ACEBB2E001900D92DF
:1029C0008A95E1F781E08093AF020E94EB08909333
:1029D000AE028093AD028091AD029091AE020E9452
:1029E0001D09059798F08CE0ECEBF2E0A0EBB2E06B
:1029F00001900D928A95E1F71092AF0207C080E036
:102A000090E0B0CF8091AF028111E5CF812F2C965D
:102A10000FB6F894DEBF0FBECDBFDF91CF911F91EF
:102A20000F91FF90EF90DF90CF90BF90AF909F906D
:102A30008F907F906F905F904F9008950F931F93AA
:102A4000CF93DF938B01D82FC92F0E946908A8016B
:102A50006D2F7C2F88E090E0DF91CF911F910F9137
:102A60000C94C128EBE1F3E08DE0808311828FEFBD
:102A7000828383838FE084836DE070E08FEF9FEF2C
:102A80000C941E15CF93DF9300D000D0CDB7DEB7E6
:102A900080911F03833018F48F5F80931F03809110
:102AA0001B0390911C03A0911D03B0911E03898309
:102AB0009A83AB83BC83BC01CD010F900F900F9024
:102AC0000F90DF91CF910C941E15CF93DF9300D020
:102AD00000D0CDB7DEB780911F03882319F0815055
:102AE00080931F0380911B0390911C03A0911D03F1
:102AF000B0911E0389839A83AB83BC83BC01CD0153
:102B00000F900F900F900F90DF91CF910C941E15A6
:102B10005F926F927F928F929F92AF92BF92CF926D
:102B2000DF92EF92FF920F931F93CF93DF9300D02A
:102B300000D000D00F92CDB7DEB7182F762E042F1D
:102B4000622E90911B0390FF83C0E92FE695AE2F74
:102B5000B0E0AE5CBE4F8C91809319039E7F9230A3
:102B6000C9F59E012F5F3F4F812F0E94C8074B81FF
:102B700069818A810E94A60C10931C0370921D0328
:102B800000931E03662009F463C080911B0390919B
:102B90001C03A0911D03B0911E038C839D83AE8303
:102BA000BF83BC01CD0127960FB6F894DEBF0FBEE0
:102BB000CDBFDF91CF911F910F91FF90EF90DF90EC
:102BC000CF90BF90AF909F908F907F906F905F90CD
:102BD0000C941E15823019F400911E03CDCF86305F
:102BE00019F410911C03C8CF8930D9F3893121F62B
:102BF000E9518E2F8170582EE695F0E0EB5CF94F8D
:102C0000A590B490BB2485E5E82E82E0F82ED12C67
:102C1000C12C92E1892E912CC601B4010E94C527D6
:102C2000812F511013C0860F9701402F672D0E94EE
:102C3000C807CA0CDB1C93E0E90EF11CABE8EA16EE
:102C4000A2E0FA0649F70E94B40A96CF861BECCFA1
:102C500027960FB6F894DEBF0FBECDBFDF91CF91A0
:102C60001F910F91FF90EF90DF90CF90BF90AF90AA
:102C70009F908F907F906F905F900895EBE1F3E0CD
:102C8000818121E043816281865F0C948815EBE1AC
:102C9000F3E0818121E0438162818A500C948815A0
:102CA000EBE1F3E062812AE0620F08F46FEF21E0CC
:102CB000438181810C948815EBE1F3E062812AE085
:102CC000621B08F460E021E0438181810C94881547
:102CD000EBE1F3E043812AE0420F08F44FEF21E0FB
:102CE000628181810C948815EBE1F3E043812AE055
:102CF000421B08F440E021E0628181810C94881538
:102D000069EE7EEF90E080E00E94CD2860E082E0F6
:102D100090E00E94AF2860E083E090E00E94AF283E
:102D20001092220360E084E090E00E94AF2860E00F
:102D300082E290E00E94AF2860E085E090E00E948F
:102D4000AF2860E086E090E00E94AF286FEF87E058
:102D500090E00E94AF2840E050E0BA0188E090E0A7
:102D60000E94C12860E08DE090E00E94AF2840E022
:102D700050E0BA0188E190E00E94C12860E087E15C
:102D800090E00E94AF2840E050E0BA018CE190E072
:102D90000E94C12870E060E080E290E00E94CD28AF
:102DA00040E050E0BA0188E190E00E94C12880E054
:102DB0000E94600E0E94880E40E050E0BA018FE051
:102DC00090E00E94C12840E050E0BA0183E190E029
:102DD0000C94C12890E080E00E94A928893E9E4F73
:102DE00011F40C94AA0E80E008954F925F926F92B6
:102DF0007F928F929F92AF92BF92CF92DF92EF928B
:102E0000FF920F931F93CF93DF93FC016280448066
:102E100081E08483E5E3F5E07490E4EBF5E0E49190
:102E2000C8EFD1E095E5E92E92E0F92E22E5C22E19
:102E300022E0D22E32E0A32EBB24B39488248A94BD
:102E4000912C55245A94E7190E2F10E082E0861534
:102E500030F080911C03888380911D038983411089
:102E600021C01B821A8297014A81698188810E9450
:102E7000C807259683E0E80EF11CCC16DD0631F775
:102E8000DF91CF911F910F91FF90EF90DF90CF9046
:102E9000BF90AF909F908F907F906F905F904F907A
:102EA0000C94B40A8B818823E9F081508B83859D33
:102EB000C00111246C8170E00E94C527FB01FF272F
:102EC000EB5CFA4F8491E82FE719E59DC0011124CE
:102ED000B8010E94C52780911E03689FB00111248C
:102EE0007A83C1CF0E947128AC0190911E03969500
:102EF00091589A9D90019B9D300D1124232F3327CB
:102F0000421753070CF0AFCF82E0861588F40E9479
:102F10007128B4010E94D92788830E9471282091CA
:102F20001D032695622F70E00E94D927280F298360
:102F30001A8280911E03893C20F088EC8C838B835D
:102F400092CF8431D8F784E1F9CF60911B03669565
:102F500070E04BE050E087E091E00E948128892BEF
:102F600019F481E080931A030E94EB0890939E026B
:102F700080939D020895CF93DF9300D000D0CDB70A
:102F8000DEB790911B0390FF45C08823E1F18B329F
:102F9000E0F58F77880F90911B039170892B8093B8
:102FA0001B03662381F080911B0390911C03A09169
:102FB0001D03B0911E0389839A83AB83BC83BC013C
:102FC000CD010E941E1560911B03669570E04BE0D9
:102FD00050E087E091E00E948128892BC1F0109297
:102FE0001A0381E08093A00220E040911E036091CB
:102FF0001D0380911C030F900F900F900F90DF9195
:10300000CF910C94881581E0C5CF8AE2C3CF0E948E
:10301000A517E7CF0F900F900F900F90DF91CF91F2
:10302000089580911B0386958F5F8B3208F081E0B5
:1030300061E00C94BB1790911B0396958FEF890F5D
:10304000913009F48AE261E00C94BB1790911B0364
:1030500090FF07C09695981720F0961710F40C94DF
:10306000111861E00C94BB173F924F925F926F92E0
:103070007F928F929F92AF92BF92CF92DF92EF9208
:10308000FF920F931F93CF93DF93CDB7DEB72897AF
:103090000FB6F894DEBF0FBECDBF7C01DC019C9162
:1030A00011968C91119713962D913C91232B21F021
:1030B00089238F3F09F0AFC528960FB6F894DEBF7D
:1030C0000FBECDBFDF91CF911F910F91FF90EF9079
:1030D000DF90CF90BF90AF909F908F907F906F9038
:1030E0005F904F903F900895980122513F452031C5
:1030F000310508F03DC58FEF93E00E949B280251F7
:1031000048EF842E42E0942E882399F18091240385
:10311000877091F2F7018281882371F280912603F2
:1031200082FDCACF82E028960FB6F894DEBF0FBEAC
:10313000CDBFDF91CF911F910F91FF90EF90DF9066
:10314000CF90BF90AF909F908F907F906F905F9047
:103150004F903F900C940F148114B4E09B06B1F291
:10316000C4010E949B28811101C00150EFEF8E1A0B
:103170009E0A0111F1CF80911F0190912001A09131
:103180002101B091220189839A83AB83BC834424BB
:1031900043943AE0332E84010F5F1F4FC4010E9415
:1031A0009B2889831A82882309F4B0CF9FEF980F58
:1031B000933010F58A834982F2E08F0E911CC8018A
:1031C0000E949B288B83882309F4A0CF8E010F5F78
:1031D0001F4FD8012C912223F1F2213009F047C072
:1031E00011969C91119712968C91913039F40E5F43
:1031F0001F4F0E94681008C04801E8CF923039F490
:103200000E5F1F4F0E94C70F0F5F1F4FE2CF93301B
:1032100029F40E5F1F4F0E943910F6CF943019F039
:103220000F5F1F4FF1CF0E5F1F4F20E030E0A8016E
:103230004F5F5F4F8053990B8A30910560F02115E5
:10324000310511F38FE99FE00197F1F700C000000D
:1032500021503109F4CF329EB001339E700D1124FC
:103260009C01260F371FF80181818A01E0CFE22FF0
:10327000F0E0E158F84F5490822F86958695869518
:1032800090E0FC01E159F84FE4912770F0E0022E44
:1032900002C0F595E7950A94E2F73F01A1E06A22A2
:1032A0007724FC01E15AF84FA490B12C022E02C001
:1032B000B594A7940A94E2F7B1E0AB22BB24FC01D9
:1032C000E15BF84FC490D12C02C0D594C7942A95E5
:1032D000E2F7E1E0CE22DD246114710419F081EE01
:1032E0000E94C70FA114B10419F086EE0E94C70F07
:1032F000852D0E946810AB2819F086EE0E943910C7
:10330000672819F081EE0E943910CD2809F47CCF8E
:103310008CE26FCF81E00E94F8130E944014F6CE39
:1033200081E00E940314F9CF82E0F5CF053FBCE5B0
:103330001B07D1F027E245EE66EE063FECE51E07DF
:1033400041F027E245EE64EE043FFCE51F0709F07B
:1033500034C40E949810DACE27E245EE65EEF9CF2C
:1033600026E241EE60EEF5CF26E241EE62EEF1CFCD
:1033700098012A5F3C452930310508F433C40631F1
:10338000FCE51F0709F462C405C0053ABDE51B074B
:1033900009F428C40A35BDE51B0709F0B0C181E076
:1033A000CCC1F801E350FC45809125038160E331F5
:1033B000F10530F5EE59F64D0C94ED2703302DE56F
:1033C000120778F40A3F3CE5130708F41BC4F80120
:1033D000EB5FFC45E830F10510F5EB58F64D0C9429
:1033E000ED2701368DE5180709F496C09091250365
:1033F000892F8E7F90FF8160053A1D4509F002C438
:1034000080932503FFC3809125038260F9CF8091CB
:1034100025038460F5CF809125038860F1CF8091EA
:103420002603816080932603EDC38091260382608A
:10343000F9CF809125038061E3CF809125038062DD
:10344000DFCF809125038064DBCF0E94171180912C
:1034500025038068D5CF809125038C60D1CF8091E2
:1034600026038360DFCF809125038E7FC9CF8091B3
:1034700025038D7FC5CF809125038B7FC1CF8091A0
:103480002503877FBDCF809126038E7FCBCF809190
:1034900026038D7FC7CF809125038F7EB1CF80918A
:1034A00025038F7DADCF809125038F7BA9CF0E940F
:1034B0001711809125038F77A3CF80912503837FF8
:1034C0009FCF809126038C7FADCF8091250382FB17
:1034D000992790F921E0922790FB82F990FB83F9DC
:1034E0008FCF80912603982F909591708E7F892B96
:1034F00090FB81F997CF0E94171190912503892F96
:1035000097FB87F980587CCF61E08EE090E00E94C5
:10351000AF2878C360E0F9CF90912503892F8F7E83
:1035200094FF80616DCF80911803811104C089E2FE
:103530000E94A1049EC385E3FBCF80912003827289
:10354000063DACE51A0778F4023CBCE51B0788F0A1
:10355000F801E35CFC45E331F10508F052C0E358A3
:10356000F64D0C94ED276AE285E20D351D4509F410
:10357000AEC0D70112968C911297CD90DC90882323
:1035800009F4EDC0C6010E94F60E182F682FC6017F
:103590000E944004B601812F0E94E90E0E941F057F
:1035A0008C01F7019280858082942FE082228091A5
:1035B00024038770C1F0C92C9920B1F0812F807F3E
:1035C000803421F080E2800F883068F080912603FB
:1035D00082FD09C082E00E940F148091240387704D
:1035E000CC24C3948111C12C812F82958F70A82E79
:1035F000B12C8C3008F020C1F501E057F64D0C9449
:10360000ED2780911B0380FF21C08E7F80931B03D9
:1036100080911B0390911C03A0911D03B0911E0388
:103620008D839E83AF83B887BC01CD010E941E1598
:1036300010921A039FEFA0E7B2E09150A040B04073
:10364000E1F700C000000E94B40A60CD8160809361
:103650001B0361E086950E94BB1758CD4BE158E1F2
:1036600061E178E10E94780851CD41E158E16BE1D8
:1036700078E1F8CF47E456E16EE376E1F3CF4EE32D
:1036800056E167E476E1EECF4CE556E160E576E1A0
:10369000E9CF40E556E16CE576E1E4CF44E756E159
:1036A00068E676E1DFCF48E656E164E776E1DACF17
:1036B00045E655E162E475E1D5CF42E455E165E6C2
:1036C00075E1D0CF61E081E0C6CF65E082E00E9485
:1036D00026181CCD68E086E0FACF6EE089E0F7CFCF
:1036E00064E18FE0F4CF67E185E1F1CF61E088E14B
:1036F000B2CF62E289E1EBCF61E083E2ACCF0B3580
:10370000EDE51E0758F40115FCE51F07C9F00E3D55
:103710001C4509F02ECF0E948016F8CC0B353DE5F4
:103720001307D9F00C351D4509F023CF80912603EE
:1037300082FB882780F991E089270E942B1419CFFA
:103740000E9417119FEFA4E3BCE09150A040B0404D
:10375000E1F700C000000E943A0D80E0EECFC60104
:103760000E946E04182F16CFF12FFF70DF2E107FEE
:1037700019F0D29490EFD9229920B9F0DD2069F0A8
:1037800080E2800F883010F0011109C08091200381
:103790008D29809320030E94720F802F4BC080914F
:1037A00027038D2980932703F6CF802F0E9439109D
:1037B000DD2009F441C080E2800F883010F0011153
:1037C00004C08D2D0E94CE0406C0D09480912703A2
:1037D0008D21809327030E94720F2EC0212F2F70FE
:1037E000D22E107F103219F0D29480EFD82200230D
:1037F00081F0013009F488C0992009F492C0882032
:1038000009F488C0F701858180FFC7CF8F70858359
:1038100081C02091260322FF54C0992009F44AC098
:10382000DD2039F0809120038D29809320030E94B0
:10383000720F80E00E94C70F38E0A31AB10884E03D
:10384000A816B10420F40E947D080E943A04CC20FE
:10385000B1F08091240380FD12C0D70112961C9212
:103860008595859585950E94F813C7010E943418A7
:10387000809124038595859585950E94031460E0C9
:10388000C70128960FB6F894DEBF0FBECDBFDF91FB
:10389000CF911F910F91FF90EF90DF90CF90BF904D
:1038A000AF909F908F907F906F905F904F903F90E0
:1038B0000C94250F80E00E943910DD2009F4BCCF64
:1038C00080CF9920A1F0909121038D2D892B81101B
:1038D00003C00E948710B0CF31E08312FACF22FDDF
:1038E000ABCF981709F4A8CF80932103A5CF8110FF
:1038F00006C00E94D6048D2D0E9491109DCF81E0BC
:10390000881609F499CFF5CF992031F095E09815F4
:1039100008F492CF8D2DDDCFA4E0A81508F48CCF4C
:10392000EACF882041F3093349F4FFEF27EE33E073
:10393000F15020403040E1F700C00000802F0E948D
:1039400039107ACF812F86958695837061F081300A
:1039500009F072CFC8019370911002C090E080E02E
:103960000E949F0869CFC8019370911002C090E037
:1039700080E00E94890860CF802F992029F00E9462
:1039800006070E94F70858CF0E944F07FACF812FF1
:103990008370A1F5911050CF802F82958695877006
:1039A000880F880F402F4F70082E01C0440F0A94D3
:1039B000EAF7202F207104FF07C02FE030E001C09C
:1039C000220F8A95EAF720951695169513701230F6
:1039D00081F0822F842B133031F08091220311303B
:1039E00029F0242B82230E94F01326CF842B822BD4
:1039F000FACF242B809122038227F5CF992061F101
:103A000010FF1ACF802F829586958770880F880FB8
:103A1000402F4F70082E01C0440F0A94EAF7202F60
:103A2000207104FF07C02FE030E001C0220F8A950B
:103A3000EAF72095169516951370123099F0822F9B
:103A4000842B133031F080912303113041F0242B6B
:103A500082230E94F413F0CE11FFEECED3CF842B3D
:103A6000822BF7CF242B809123038227F2CF1F7064
:103A7000992029F0812F0E94F813802F2ACF802FC0
:103A80000E949110812F0E940314D6CE023F81F133
:103A900060F4003FB9F0013F81F0992009F458C06B
:103AA00081107BCE812F8F7127C0033F41F1043FEE
:103AB000A1F78091260382FF2DC0812F8F7199205D
:103AC00011F31AC0992079F084E0881508F4B4CE77
:103AD0001F7181E090E001C0880F1A95EAF790917C
:103AE00023038927B6CF95E0981508F4A5CEF0CF2B
:103AF000812F8F719110C7CF0E94F8139DCE80E067
:103B0000992009F4A6CF1F7181E001C0880F1A9592
:103B1000EAF79FCF992089F01F71812F0E94F81337
:103B20008091260382FD07C0A8E01A9FC0011124DE
:103B3000836080932403812FDFCF81E00E940F14E4
:103B4000B1E0B81508F078CE82E00E940F1474CE70
:103B5000882059F0093309F0F1CEEFEFF7EE23E0BA
:103B6000E150F0402040E1F7E7CE812F8F718BCFFD
:103B70000031BFE51B0709F4CDCB0131EFE51E078E
:103B800009F4D2CB033FFCE51F0709F4E9CB08F0A9
:103B9000CDCB083D3CE5130709F4DECB28E241E03C
:103BA000093D9CE5190709F4D9CB26E241EE61EE07
:103BB000073DACE51A0709F4CCCB882309F441C0D2
:103BC0001092170301362DE5120761F008F0DDCBE6
:103BD00006319CE5190708F0CBCB0230ACE51A079B
:103BE00008F4D8CB0E949C0E909326038093250363
:103BF0000631ECE51E0708F0E1CB0230FCE51F07BB
:103C000008F0CFCB80912503909126030E94F20DFE
:103C10000E9417117BCA61E0C7010E94250F8C0129
:103C2000D70112968C9181115FCA0031FFE51F0701
:103C300009F476CB01312FE5120709F0A3CF82E01A
:103C400070CB0631ECE51E0709F077CC909120038C
:103C5000882309F468CC892F8A7A91E009F490E0EE
:103C60009093180369E2811165E382EA91E00E9472
:103C7000B5080E94720F4ACA1F93CF93DF938091B9
:103C80005F03807FA9F480915C03882389F0809191
:103C90002903C091280370915A0360915B03A0919E
:103CA0005D03B0915E03D62FD72316E0C81304C07E
:103CB000DF91CF911F91089590E0109711F0DF3FB1
:103CC00019F401968770F2CF189F9001199F300D5B
:103CD0001124F901E65DFC4F41816413F2CF40816C
:103CE0004713EFCF42814111ECCF438154814A1BEE
:103CF0005B0B483C510528F780915F038F70806112
:103D000080935F03F901E15DFC4F80818F708061DA
:103D100080838AE593E00E943418DF91CF911F9150
:103D20000C9497048F929F92AF92BF92DF92EF9282
:103D3000FF920F931F93CF93DF93CDB7DEB72B97EF
:103D40000FB6F894DEBF0FBECDBF8C0185E0F80141
:103D5000DE01179601900D928A95E1F7F801E28055
:103D6000A380B4808AE5882E83E0982E90915A0330
:103D700080915B0320915D0330915E032115310535
:103D800029F0482F49234F3F09F028C1EE2009F4BC
:103D900033C1F801808191810E94520FF82E88234F
:103DA00009F42AC186E0F801AAE5B3E001900D927A
:103DB0008A95E1F70E943C1E21C0D0905F034D2DF3
:103DC000407F283C310508F0A8C0F801218141114D
:103DD000C3C0FE2C281325C08081891322C0E110A6
:103DE00020C08D2D8F70806180935F038AE593E002
:103DF0000E94341880915F03F80185838F2D2B96E4
:103E00000FB6F894DEBF0FBECDBFDF91CF911F91EB
:103E10000F91FF90EF90DF90BF90AF909F908F90A9
:103E200008953F81AB2829F0822F83238F3F09F02B
:103E300090C080E0F82FF170DF2EE09129034091CF
:103E4000280356E080FD1CC0EE20C1F280915F0384
:103E5000816080935F03F12CD1CF8E2F90E05E9F25
:103E6000F0011124E65DFC4F6181261306C06081DC
:103E7000361303C06281E612E7CF0196E82FE770A0
:103E8000E413EBCF8F8198850E94440F292F229550
:103E90002F70903260F0225F2F70223078F49F7084
:103EA00051F0F8019581907F31F4D12C0AC09F70B8
:103EB00011F08823D1F3805E8830B8F3C8010E94E6
:103EC0003418FD2C9BCFF801808191810E94520F04
:103ED000882309F491C0EE2009F48EC080915F031D
:103EE000803270F080915A0390915B039A838983AA
:103EF0001B82BD82AC82DE82CE0101960E94341804
:103F000086E0F801AAE5B3E001900D928A95E1F709
:103F10000E943C1EFF24F39471CF411132C08AE508
:103F200093E00E94341886E0F40111928A95E9F733
:103F300092CFF801808191810E94520F8111E0CFD0
:103F400080915F03816080935F03C8010E943418F1
:103F500055CF81E08E256ECF2813B5CFF801808133
:103F60008913B1CFE110AFCFD582C8010E943418B8
:103F700086E0F801AAE5B3E001900D928A95E1F799
:103F80003DCFF801218182139ECFF80180818913F2
:103F90009ACFE11098CFD582C8010E94341886E0EC
:103FA000F40111928A95E9F729CFF8012181821352
:103FB000C0CFF80180818913BCCF80915F0380FD61
:103FC000D7CF982F907FA1F28583903F71F2982FE1
:103FD000907F905F8F70892B8583C7CFF0905C03B3
:103FE000A501421B530B9A01F110E7CE283C310585
:103FF000B0F6FE2CE110D9CFC8010E9434188ACF48
:104000001F93CF93DF93CDB7DEB767970FB6F894C2
:10401000DEBF0FBECDBF342F4B8B252F5C8B962F71
:104020006D8B7E8B8F8B4E895F8961111092270378
:104030001A8A3D872E879F87598B488B86E0FE0121
:104040003D96DE01179601900D928A95E1F7CE011B
:1040500007960E94921E882389F016E0809129031A
:1040600090912803891349C067960FB6F894DEBF74
:104070000FBECDBFDF91CF911F91089586E0FE0165
:104080003796DE01119601900D928A95E1F79F8196
:10409000888520912803409129036A857B85672BB9
:1040A000E1F289238F3FC9F230E0C90101968770A0
:1040B00099274817190671F40E94171110922803C6
:1040C0001092290386E0EAE5F3E0DF011D928A956C
:1040D000E9F7C3CF96E0929FD001939FB00D1124D2
:1040E000A65DBC4FFE01319601900D929A95E1F7C5
:1040F000809328030E949704B0CF819FC0011124B0
:10410000865D9C4F0E94921E882309F4ADCF80915A
:10411000290390E0019687709927809329039ECF09
:10412000CDB7DEB7A4970FB6F894DEBF0FBECDBFF4
:1041300084B7877F84BF0FB6F894A89580916000FC
:10414000886180936000109260000FBE80E890E06C
:104150000FB6F89480936100909361000FBE85B70D
:10416000806885BF85B7806885BF88EA96E09093B0
:10417000A1018093A0010E94DA090E94530A809154
:10418000E20084608093E20078948091AC028823FE
:1041900099F08091E9001091EC001795112717957F
:1041A0008F70182B1092E9008091E80083FD0E9427
:1041B0002C111F701093E90082E084BD93E095BD3F
:1041C0009AEF97BD80936E000E94AA0E811102C0E3
:1041D0000E94880E0DE511E0A3E6EA2EA1E0FA2E7A
:1041E000D8018D918D018F3F11F00E94AA06E01633
:1041F000F106B1F703E611E0F2E7EF2EF1E0FF2E52
:10420000F80181918F018F3F11F00E94AA06E016FC
:10421000F106B1F78CE0E0EBF2E0DF01282F1D9210
:104220002A95E9F7ECEBF2E0DF011D928A95E9F7B8
:104230000E94EA16811102C00E94801682E090E07E
:104240000E949B28809390020E949C0E90932603CC
:10425000809325030E944B14EFE3FCE93197F1F7BB
:1042600000C000000E944B148091B00280FF08C083
:104270006FEF7FEF90E080E00E94CD280E943A0D22
:1042800083E090E00E949B280E94F0133E9A46989B
:1042900080918B02811133C00E94EA16811104C003
:1042A0000E9480160E94321588E090E00E94A328A8
:1042B00060931B0370931C0380931D0390931E0354
:1042C0006E7F71F40E94321588E090E00E94A3286E
:1042D00060931B0370931C0380931D0390931E0334
:1042E0000E94690810921A0380911B0380FF04C08A
:1042F00060E086950E94BB1781E080938B028091DD
:1043000025038068809325038091250390912603DF
:104310000E94F20D82E191E09093C9028093C8025D
:1043200068E1862E912C70E4772EECEBAE2EE2E065
:10433000BE2E8091AC02FF24F39400E112E185309F
:1043400009F4E2C10E944B14882359F08FB7F89406
:104350004091A8025091A9026091AA027091AB020B
:104360008FBF50EBE52E52E0F52EE1E9F2E0D701E8
:1043700010E000E0702F8D919D91219131912817CF
:10438000390709F4E4C12827392760E0CC24C39415
:10439000D12CA9014C215D21452B09F4D2C169839F
:1043A0007A8396012823392391E0232B09F490E0A6
:1043B0009B830E94EB088160782F9D838C834981C9
:1043C0005A816B81892F0E940020000F111FF80174
:1043D000EF56FD4F808191818C259D2591838083AF
:1043E00080911A038823D1F180911903E0911B0376
:1043F000E695E81BE0939F02823009F0BFC1F0E030
:10440000E55BF84FE4910E2F10E036E1C32E3DE05E
:10441000D32E8091A002882361F01092A0020E9406
:10442000EB0890939E0280939D021092A20210923C
:10443000A1020E94EB0820919D0230919E02821BF6
:10444000930B8F3F9F4750F4200F311F30939E02F4
:1044500020939D028DE992E0F601099586E0E1E165
:10446000F3E0DE01119601900D928A95E1F7C0907C
:104470001303D090140300911503109116031092AA
:1044800013031092140310921503109216038C2D2F
:104490008D2909F448C08091A5029091A6020E943E
:1044A0001D099C0180911003882309F4E3C3253181
:1044B0003105C8F18F3F19F08F5F80931003CC2036
:1044C00059F00E94C4069FEF1C140CF491E0899FE0
:1044D000802D112480931303DD2059F00E94C4061F
:1044E0009FEF1D140CF491E0899F802D112480937F
:1044F0001403309113033323B1F0209114032223CA
:1045000091F045EB3403C0011124992309F4A6C1AD
:104510009093130355EB250390011124332309F4E1
:10452000A1C130931403802F812B09F448C08091DE
:10453000A3029091A4020E941D099C0180910F0387
:10454000882309F492C321353105C8F18F3F19F052
:104550008F5F80930F03002359F00E94E4069FEFC2
:1045600010160CF491E0899F802D1124809315037F
:10457000112359F00E94E4069FEF11160CF491E00C
:10458000899F802D1124809316033091150320916B
:1045900016033323A1F0222391F045EB3403C0012D
:1045A0001124992309F462C19093150355EB250357
:1045B00090011124332309F45DC1309316038091D7
:1045C000130390911403892B90911503892B9091DB
:1045D0001603892B11F00E94F70886E0FE01319640
:1045E000A1E1B3E001900D928A95E1F70E947D0868
:1045F0009091A702891721F08093A7020E943A04A4
:104600008091AC02843009F094CE83E08093E9007D
:104610008091E80082FF8DCE8091E80090E085FFD8
:104620000CC00E94A90950E2C52ED12C8E010F5F4B
:104630001F4F882309F42CC191E08091E8008B770B
:104640008093E800992309F474CEE981E150E331C5
:1046500008F0BEC1F0E0E456F64D0C94ED278091D1
:10466000AC02843009F440C080E00E943A04109209
:104670001A0380918E02811116C0F0928E028091F1
:104680001B03982F917090938D028E7F80931B0354
:10469000FFEF20E732E0F15020403040E1F700C06A
:1046A00000000E94B40A10928C020FB6F894A895EC
:1046B000809260000FBE7092600083B7817F84603B
:1046C00083BF83B7816083BF7894889583B78E7FDB
:1046D00083BF0FB6F894A89580916000886180939D
:1046E0006000109260000FBE80918F02882361F0FD
:1046F0000E944B14E0EBF2E081919191892B09F03B
:104700009EC2AE16BF06C1F78091AC02853009F497
:10471000A6CF0E9417110E947D080E943A041092B1
:104720008E0280918D02882349F080911B03816065
:1047300080931B0360E086950E94BB170E94A5171B
:1047400001CE6F5FCC0CDD1C6F3009F022CE0F5F05
:104750001F4F0630110509F00DCE8FEF89838A8334
:104760001B820E94EB088160782F9D838C83498196
:104770005A816B81892F0E94002032CE08E210E01E
:104780007AECC72E7BE0D72E883109F442CEE8F4CC
:104790008F3009F447C060F4863069F1893009F43C
:1047A00035C000ED17E023ECC22E26E0D22E31CE2C
:1047B0008531B9F7F0E0E15CF84FE4910E2F10E09D
:1047C000ACE7CA2EABE0DA2E24CE04EF11E06EE6A1
:1047D000C62E6CE0D62E843209F41BCE853271F1E0
:1047E0008332F9F6EDE3F7E005911491F7EBCF2E64
:1047F000FCE0DF2E0ECEF0E0E85BF84FE4910E2FE8
:1048000010E09AE2C92E9DE0D92E03CEE695F0E0A5
:10481000EB5BF84FE4910E2F10E089EEC82E8AE092
:10482000D82EF7CDE695F0E0EE5BF84FE4910E2F31
:1048300010E0B3E1CB2EBBE0DB2EEBCD8E2F63E09F
:104840000E94AB27E92FF0E0E65CF84FE4910E2FD1
:1048500010E0E5EFCE2EE6E1DE2EDBCD81E08093A9
:10486000130358CE81E0809314035DCE81E08093E2
:1048700015039CCE81E080931603A1CE8091F100B8
:10488000D8018D938D01B1E0CB1AD10809F4D4CEB3
:104890008091E80085FDF2CF8091E8008B778093CE
:1048A000E8000E94A909882399F3C6CE1A8289E0FC
:1048B0008B833AC08A81823001F1833009F45AC077
:1048C000813009F085C08FB7F8942091A80230910B
:1048D000A9024091AA025091AB0229A33AA34BA38B
:1048E0005CA38FBF69A17AA18BA19CA10E94F32731
:1048F0006B837C838D839E8317C086E290E00E9449
:104900009B2890E0B0E0A0E0CC24D82EE92EFA2E2F
:1049100087E290E00E949B281B821C82C82ADC242C
:10492000CD24DC24DE82CD828091AC02843009F07B
:1049300000CD1091E9008091EC001F7087958827C9
:104940008795182B82E08093E9008091E80080FF32
:104950000DC050E040E060E270E0CE0101960E94A0
:10496000F9098091E8008E778093E8001F7010931A
:10497000E900DFCCFE013196D7018C9111969C9114
:10498000B2E0EB0EF11C928383833296AE14BF0427
:1049900099F7CACF8A818230D9F42B813C814D812D
:1049A0005E8129A33AA34BA35CA3CA01B9010E946B
:1049B000F3276B017C0187E290E00E94AF289927E2
:1049C0008F2D7E2D6D2D86E290E00E94AF28ACCF1A
:1049D0008FEF8983A9CF4C816B818A810E94C30E9E
:1049E0009827892798279E838D839ECFED80FE8010
:1049F000FE24EF24FE248A810B813EE1039F800187
:104A0000112444EB849F000D111D11248C8190E032
:104A1000880F991F080F191F6F2DC80188960E94D3
:104A2000AF286E2DC8018996D0CF0E94FF0D7CCF94
:104A30008A818238D1F1F8F4803831F1813809F077
:104A400073CF60E08B810E94BB179B8180911B0319
:104A5000911123C08E7F80931B0310921A035FEF86
:104A600080E792E0515080409040E1F700C00000A4
:104A70000E94B40A59CF833809F056CF20E0409104
:104A80001E036C818B8106C020E04B8160911D0369
:104A900080911C030E94881547CF816080931B037F
:104AA00060E086950E94BB173FCF8B8180931F03E8
:104AB0003BCF8A818238D9F058F4803899F0813818
:104AC00009F032CF80911B0380FF0FC08695F0CE96
:104AD000833809F029CF80911C038B8380911D03BB
:104AE0008C8322CF80911E03E3CE80E0E1CE8091C3
:104AF0001F03DECE20911B0330911C0340911D0348
:104B000050911E0329A33AA34BA35CA3CA01B90188
:104B10000E941E1509CF80E18A8306CF81E08A8337
:104B200088E0C6CECA80DB80DC24CD24DC248C81E6
:104B30007601E80EF11C8E010B5F1F4FC6018850F5
:104B40009D4FEC14FD0409F4EFCE38E0C31631E0BC
:104B5000D30648F40E949B28D8018D938D01BFEFA6
:104B6000CB1ADB0AEBCF80E0F7CF0A811B8110273D
:104B700001271027FE0131966F018C817F01E80E1D
:104B8000F11CC80188509D4FCE14DF0409F4CCCE2F
:104B90000830F1E01F0728F4D60114966C910E94AA
:104BA000AF280F5F1F4FBFEFCB1ADB0AEACF0E947F
:104BB000780EBACE84E0B0CFCA80DB80DC24CD246E
:104BC000DC248C817601E80EF11C8E010B5F1F4FF7
:104BD000C6018896CE14DF0409F4A6CEE0EDCE1609
:104BE000E2E0DE0648F40E949B28D8018D938D01F7
:104BF000BFEFCB1ADB0AECCF80E0F7CF0A811B8135
:104C0000102701271027FE0131966F018C817F014B
:104C1000E80EF11CC8018896EC14FD0409F484CE5A
:104C2000003DF2E01F0728F4D60114966C910E9413
:104C3000AF280F5F1F4FBFEFCB1ADB0AEBCF09BDC9
:104C400019BD09B400FEFDCF8091D8008F7D8093FF
:104C5000D8008091E00082608093E0008091E000C5
:104C600081FDFCCF0E9417114FCD2B30310508F08C
:104C70006FCCA5CC2B30310508F01ECC54CC1F9244
:104C80001FB61F9211248F939F93AF93BF93809170
:104C90008C02811113C08091A8029091A902A09169
:104CA000AA02B091AB024196A11DB11D8093A8024A
:104CB0009093A902A093AA02B093AB02BF91AF91C7
:104CC0009F918F911F901FBE1F90189578941F92EF
:104CD0001FB61F9211248F939F93AF93BF93809120
:104CE000A8029091A902A091AA02B091AB020196EC
:104CF000A11DB11D8093A8029093A902A093AA02BE
:104D0000B093AB02BF91AF919F918F911F901FBE47
:104D10001F9018951F920F920FB60F9211242F9388
:104D20003F934F935F936F937F938F939F93AF9333
:104D3000BF93EF93FF938091E10082FF09C08091C0
:104D4000E20082FF05C08091E1008B7F8093E1004B
:104D50008091DA0080FF24C08091D80080FF20C0BD
:104D60008091DA008E7F8093DA008091D90080FFF5
:104D70009BC080E189BD82E189BD09B400FEFDCF01
:104D800081E08093AC028091C701811109C00E942B
:104D9000DA090E94530A8091E20084608093E20065
:104DA0008091E10080FF17C08091E20080FF13C076
:104DB0008091E2008E7F8093E2008091E20080612A
:104DC0008093E2008091D80080628093D80019BC63
:104DD00085E08093AC028091E10084FF29C080913E
:104DE000E20084FF25C080E189BD82E189BD09B46C
:104DF00000FEFDCF8091D8008F7D8093D8008091F8
:104E0000E1008F7E8093E1008091E2008F7E8093AD
:104E1000E2008091E20081608093E2008091C6010F
:104E2000882309F447C084E08093AC028091AC02EF
:104E30008091E10083FF27C08091E20083FF23C0BF
:104E40008091E100877F8093E10082E08093AC0253
:104E50001092C6018091E1008E7F8093E1008091E5
:104E6000E2008E7F8093E2008091E2008061809377
:104E7000E20042E060E080E00E94230A8091F000BE
:104E800088608093F000FF91EF91BF91AF919F9167
:104E90008F917F916F915F914F913F912F910F90E3
:104EA0000FBE0F901F90189519BC1092AC02109273
:104EB000C70176CF8091E30087FD02C081E0B4CFC7
:104EC00083E0B2CF1F920F920FB60F921124FF9280
:104ED0000F931F932F933F934F935F936F937F9302
:104EE0008F939F93AF93BF93CF93DF93EF93FF93F2
:104EF00009EE10E0F8018081C091EC00C795CC2745
:104F0000C7958F70FC2EF82A1082C0EFD0E0888100
:104F1000877F888378940E942C11F8011082888101
:104F200088608883CF2DCF70C083FF91EF91DF9190
:104F3000CF91BF91AF919F918F917F916F915F9131
:104F40004F913F912F911F910F91FF900F900FBEA6
:104F50000F901F901895991B79E004C0991F961720
:104F600008F0961B881F7A95C9F78095089587FBEE
:104F7000082E062687FD819567FD61950E94AB2767
:104F80000EF4919507FC81950895AA1BBB1B51E176
:104F900007C0AA1FBB1FA617B70710F0A61BB70BA9
:104FA000881F991F5A95A9F780959095BC01CD014E
:104FB000089597FB072E16F4009407D077FD09D0CB
:104FC0000E94C52707FC05D03EF4909581959F4F20
:104FD0000895709561957F4F0895EE0FFF1F05901E
:104FE000F491E02D09946927962769277827872768
:104FF000782708950E943729332312F48A1B9B0BCC
:105000000C9404280E943729B7FF0895821B930B44
:105010000895CF92DF92EF92FF92CF93DF93CDB7B7
:10502000DEB72A970FB6F894DEBF0FBECDBF8987D3
:105030009A87A985BA852D913D914D915C912983DF
:105040003A834B835C83232B242B252B41F424E2CE
:1050500039ED4BE557E029833A834B835C836981C3
:105060007A818B819C812DE133EF41E050E00E94F9
:10507000E32869017A01A7EAB1E49B01AC010E942F
:10508000022969837A838B839C83ACEEB4EFA701FA
:1050900096010E9410299B01AC0189819A81AB8104
:1050A000BC81820F931FA41FB51FB7FF03C00197D8
:1050B000A109B048E985FA8580839183A283B383EF
:1050C0009F772A960FB6F894DEBF0FBECDBFDF9153
:1050D000CF91FF90EF90DF90CF9008950E94092824
:1050E000089580E091E00E9409280895B0E0A0E0D2
:1050F0008093000190930101A0930201B0930301FA
:105100000895FC014150504030F001900616D1F74F
:105110003197CF010895882799270895FB01DC0175
:1051200004C08D910190801921F441505040C8F77E
:10513000881B990B0895F999FECF92BD81BDF89A0D
:10514000992780B50895A6E1B0E044E050E00C94C2
:10515000D528A8E1B0E042E050E00C94D528262FF5
:10516000F999FECF92BD81BDF89A019700B402165D
:1051700039F01FBA20BD0FB6F894FA9AF99A0FBE0B
:1051800008950396272F0E94B0280E94AF28252F4C
:105190000E94B028242F0C94B0280196272F0E943B
:1051A000B0280C94AF28DC01CB01FC01F999FECFAB
:1051B00006C0F2BDE1BDF89A319600B40D9241509F
:1051C0005040B8F70895052E97FB1EF400940E94F6
:1051D000FA2857FD07D00E94152907FC03D04EF48A
:1051E0000C94FA2850954095309521953F4F4F4F9C
:1051F0005F4F089590958095709561957F4F8F4F83
:105200009F4F08950E943729A59F900DB49F900D40
:10521000A49F800D911D11240895B7FF0C940229BD
:105220000E940229821B930B0895A1E21A2EAA1B49
:10523000BB1BFD010DC0AA1FBB1FEE1FFF1FA21746
:10524000B307E407F50720F0A21BB30BE40BF50B43
:10525000661F771F881F991F1A9469F760957095CC
:10526000809590959B01AC01BD01CF010895A29F4F
:10527000B001B39FC001A39F700D811D1124911D2A
:10528000B29F700D811D1124911D0895F894FFCFD8
:105290000F07150718071E073307330733073307B0
:1052A0003307210726072A073007410747074B071F
:1052B0000F123712D8133712D8136A128B12D81361
:1052C00087139413031A071A0B1A191A1D1A211A95
:1052D000251A2B1A331A371A3B1A3F1A4B1A4F1A30
:1052E000531A571A5D1A7B1A651A151A431A471A68
:1052F0002F1A611A711A841A8A1A2E1B351B3A1B2F
:105300003F1B441B491B4E1B531B581B5D1B621B41
:10531000651B6A1B6D1B701B731B761B791B7C1B2B
:10532000B41BB41BEE1BEE1BA21CBC1C1C1C1C1CC7
:10533000C71C371D461D461D56245A24CA24EB247B
:10534000F6241525182559257A25E824E8248B25E7
:0E5350008E259225B525D725DA25DC25FE25EC
:10535E000100000001010201191A1B1C1D1E1F2055
:10536E0021222C095E0DA10DEA0DEE0D2F09010073
:10537E000000004022B684016201AC00D601EF01AC
:10538E000F020001020202020606060909090909B6
:10539E00090F0F0F0F0F0F151515181919191919C8
:1053AE0019191919192324252525252525C6303126
:1053BE00323336F7F6F5F4F19091929395949697E1
:1053CE003435E200E900EA00B500B600B700CD00C2
:1053DE008301CC008A01920194012102230224024E
:1053EE002502260227022A02B300B4006F007000C5
:00000001FF
