:100000000C9483040C94BB040C94BB040C94BB04AC
:100010000C94BB040C94BB040C94BB040C94BB0464
:100020000C94BB040C94BB040C94912A0C94692B83
:100030000C94462A0C94BB040C94BB040C94BB0493
:100040000C94BB040C94BB040C94BB040C94BB0434
:100050000C94D4290C946D2A0C94BB040C94BB040E
:100060000C94BB040C94BB040C94BB040C94BB0414
:100070000C94BB040C94BB040C94BB040C94BB0404
:100080000C94BB040C94BB040C94BB040C94BB04F4
:100090000C94BB040C94BB040C94BB040C94BB04E4
:1000A0000C94BB040C94BB040C94BB040501090222
:1000B000A10185020901A1000509190129081500FE
:1000C0002501950875018102050109300931158165
:1000D000257F95027508810609381581257F9501D0
:1000E00075088106050C0A38021581257F95017572
:1000F000088106C0C005010980A101850319012AF4
:10010000B700150126B700950175108100C0050CD8
:100110000901A101850419012AA002150126A002E6
:10012000950175108100C005010906A1018506052C
:100130000719E029E71500250195087501810205D9
:1001400007190029EF1500250195F07501810205B9
:10015000081901290595057501910295017503910D
:1001600001C00660FF0961A1010962150026FF00B8
:100170009520750881020963150026FF00952075FA
:10018000089102C005010906A101050719E029E748
:1001900015002501950875018102950175088101F9
:1001A0000507190029FF150026FF0095067508812F
:1001B000000508190129059505750191029501753C
:1001C000039101C009025B00030100A0FA090400C9
:1001D0000001030101000921110100012240000773
:1001E0000581030800010904010002030000000961
:1001F00021110100012222000705820320000107CE
:1002000005030320000109040200010300000009A6
:10021000211101000122B60007058403200001120C
:100220000100020000000803A10500010001020016
:100230000116034B0042004400380058002D004DC9
:10024000004B0049004900000010034B00420044ED
:1002500000660061006E00730000000403090429B9
:10026000003A003C003E0040004200440046004886
:100270000000003B003D003F0041004300450047B7
:1002800000000035001F0021002300250027002E5C
:100290000049004B001E0020002200240026002DF3
:1002A000002A004A0000002B001A0015001C000C58
:1002B00000130030004C004E001400080017001816
:1002C0000012002F0031004D000000390016000917
:1002D000000B000E0033004C00000000000400077B
:1002E000000A000D000F003400280000000000E1AB
:1002F000001D000600050010003700E500000000AA
:100300000031001B0019001100360038004C00526B
:10031000000000E000E20000002C000000E60065A4
:100320000050004F00E3000000000000000000E764
:1003300000E4005100000001000100010001000183
:1003400000010001000100010000000100010001A6
:100350000001000100010001000000010001000196
:100360000001000100010001000100010001000185
:100370000001000100010001000100010000000176
:100380000001000100010001000100010001000165
:100390000001000100010001000100010001000155
:1003A0000000000100010001000100010001000146
:1003B0000000000000010001000100010001000137
:1003C0000001000000000001000100010001000127
:1003D0000001000100000000000100010001000117
:1003E0000001000100010001000000010001000007
:1003F00000010000000100010001000100010000F7
:1004000000000000000000010001000100000001E8
:1004100000010001000100010001000100010001D4
:1004200000000001000100010001000100010001C5
:1004300000000001000100010001000100010001B5
:1004400000010001000100010001000100010001A4
:100450000001000100000001000100010001000195
:100460000001000100010001000100010001000184
:100470000001000100010001000000010001000175
:100480000001000100010001000000000001000166
:100490000001000100010001000100000000000156
:1004A0000001000100010001000100010000000046
:1004B0000001000100010001000100010001000134
:1004C0000000000100010000000100000001000127
:1004D0000001000100010000000000000000000118
:1004E0000001000100000001000100010001000105
:1004F00000010001000100010000000100010001F5
:1005000000010001000100010000000100010001E4
:1005100000010001000100010001000100010001D3
:1005200000010001000100010001000100000001C4
:1005300000010001000100010001000100010001B3
:1005400000010001000100010001000100010001A3
:100550000000000100010001000100010001000194
:100560000000000000010001000100010001000185
:100570000001000000000001000100010001000175
:100580000001000100000000000100010001000165
:100590000001000100010001000000010001000055
:1005A0000001000000010001000100010001000045
:1005B0000000000000000001000100010000000038
:1005C000000000000000000000000101020304051B
:1005D00006080A0C0F1114181C2024292E33393F49
:1005E000464C535B626A7179818A929AA2AAB2B927
:1005F000C1C8CFD5DCE1E7EBF0F4F7FAFCFDFEFF74
:10060000FEFDFCFAF7F4F0EBE7E1DCD5CFC8C1B9A9
:10061000B2AAA29A928A8179716A625B534C463F70
:1006200039332E2924201C1814110F0C0A08060532
:10063000040302010100000000000000000000228D
:1006400023252628292A2C2D2F3032333536383AC7
:100650003B3D3E4042434547494A4C4E505153551D
:1006600057595A5C5E6062646668696B6D6F71733E
:100670007577797B7D7F81838587898A8C8E90923F
:100680009496989A9C9E9FA1A3A5A7A8AAACAEAF4A
:10069000B1B3B4B6B8B9BBBCBEBFC1C2C3C5C6C78F
:1006A000C9CACBCCCDCED0D1D2D2D3D4D5D6D7D740
:1006B000D8D9D9DADADBDBDBDCDCDCDCDCDDDDDD88
:1006C000DDDCDCDCDCDCDBDBDBDADAD9D9D8D7D784
:1006D000D6D5D4D3D2D2D1D0CECDCCCBCAC9C7C631
:1006E000C5C3C2C1BFBEBCBBB9B8B6B4B3B1AFAE6F
:1006F000ACAAA8A7A5A3A19F9E9C9A989694929015
:100700008E8C8A89878583817F7D7B7977757371EC
:100710006F6D6B6968666462605E5C5A59575553C9
:1007200051504E4C4A4947454342403E3D3B3A3882
:1007300036353332302F2D2C2A292826252322FF27
:10074000AA7F5540000101010101010101010202DE
:10075000020202020202020303030303030303046F
:10076000040404040404050505050506060606063A
:10077000070707070708080808090909090A0A0AF4
:100780000B0B0B0C0C0C0D0D0D0E0E0E0F0F0F1096
:100790001011111112121313141415151616171720
:1007A000181819191A1A1B1B1C1D1D1E1E1F20208C
:1007B000212222232424252626272829292A2B2CD6
:1007C0002D2D2E2F30313232333435363738393AF9
:1007D0003B3C3D3E3F404142434445464748494AF1
:1007E0004C4D4E4F50515354555658595A5B5D5EBF
:1007F0005F616264656668696B6C6D6F707273755A
:1008000077787A7B7D7E8082838587888A8C8E8FBD
:1008100091939596989A9C9EA0A2A3A5A7A9ABADEB
:10082000AFB1B3B5B7BABCBEC0C2C4C6C9CBCDCFD9
:10083000D1D4D6D8DBDDDFE2E4E7E9EBEEF0F3F587
:10084000F8FAFDFF00047F3F1F643214643214780D
:100850003C1E1E140A0500000000000000000000FD
:100860000000000000000000000000000000000088
:10087000000000000000000000007E0F00D4FFFF19
:10088000FFC70000007800000000000000002A2BD5
:100890002800000000000000000000000000000030
:1008A0000029000000002C1E342021222434262799
:1008B000252E362D3738271E1F20212223242526BA
:1008C0003333362E37381F0405060708090A0B0C88
:1008D0000D0E0F101112131415161718191A1B1CD0
:1008E0001D2F3130232D350405060708090A0B0C8E
:1008F0000D0E0F101112131415161718191A1B1CB0
:100900001D2F3130354C11241FBECFEFDAE0DEBF92
:10091000CDBF04B603FE18C080913C0390913D0307
:10092000A0913E03B0913F038730904BA740B04B5E
:1009300059F410923C0310923D0310923E03109222
:100940003F03E0E0F8E3099511E0A0E0B1E0EAEE52
:10095000FAE502C005900D92AE39B107D9F723E050
:10096000AEE9B1E001C01D92AC33B207E1F70E94DD
:10097000F4230C94C62C0C940000982F909581FDC4
:1009800005C0769A92FF04C02A9A08957698FACF05
:100990002A980895E82F29E0929FE00D11248E2FC8
:1009A000877041E001C0440F8A95EAF7E695E69525
:1009B000E69583E0E89FF0011124E554FD4F30E017
:1009C00020E070E05191DF011197CB01022E02C0AF
:1009D000969587950A94E2F78170819585278423FF
:1009E00085278C932F5F3F4F2330310559F70895AA
:1009F000E82F29E0929FE00D11249E2F9770E69535
:100A0000E695E69583E0E89FF0011124E554FD4F5B
:100A100050E040E080E0219130E0092E02C03695A0
:100A200027950A94E2F721703327042E01C0220F84
:100A30000A94EAF7822B4F5F5F4F4330510559F715
:100A400008958091050390910403981301C00895BF
:100A50008F5F8770FACF909121019923C1F0909117
:100A6000010397FF14C0E82FE695E695E695803FD1
:100A7000F8F4F0E0E056FE4F877021E030E001C06E
:100A8000220F8A95EAF78281822B82830895A2EA57
:100A9000B1E0EFEF90E02D91821751F0EF3F19F4A4
:100AA000211101C0E92F9F5F9630A9F7EF3F09F4AC
:100AB00008950E2E000CFF0BE056FE4FE6CF9091EE
:100AC00021019923E1F09091010397FF18C0E82FCD
:100AD000E695E695E695803FF0F4F0E0E056FE4FAF
:100AE000877021E030E0A90102C0440F551F8A95AC
:100AF000E2F7CA0180959281892382830895E2EA10
:100B0000F1E09191891303C0DF0111971C9251E02C
:100B1000E83AF507B1F70895982F90958091FC0277
:100B200089238093FC0208958091FD028111109227
:100B3000FD0208959091010392FF06C0282F2871AD
:100B40002830F9F4877F846093FF06C0282F28712E
:100B50002831F1F4877E84612091020320FF06C0D2
:100B6000382F38713830D9F4877F816021FF06C073
:100B7000282F28712831D1F4877E816194FD877EEA
:100B80000895282F24712430F9F68B7F8860DCCFFC
:100B9000282F2471243101F78B7E8861DDCF382F17
:100BA0003171313019F78E7F8860E0CF282F2171A5
:100BB000213121F78E7E8861E1CFCF93DF93EC0165
:100BC000803E910509F460C050F58133910509F428
:100BD000A6C090F48932910509F49AC08A9709F465
:100BE000A5C0C130D10509F462C0CE010497813A95
:100BF000910508F055C05BC089339105F1F1823849
:100C00009105D9F1C59709F47CC0C83AD10508F01F
:100C100094C0C53AD10528F3A497D06448C0843E57
:100C2000910509F453C068F4823E9105E1F1833ED9
:100C3000910509F440C0CE01805E9109089780F5C6
:100C400036C0863E910509F44CC0873E910509F4F3
:100C50004DC0811523E5920708F09AC0811532E551
:100C6000930708F000C18F3F910511F008F074C0A0
:100C7000803F910550F2D0651AC0809101038370C6
:100C8000B1F0C0EED0E013C08091010380FD15C12A
:100C90009091020390FF0BC0C3EED0E084FF07C029
:100CA000D0E0C0E004C08091010382FDF5CFCE0109
:100CB000DF91CF9108958091010382FD01C1909150
:100CC000020390FDDECF84FFF2CFEACF80910203D2
:100CD00081FFEDCF80910103C7EED0E084FDE0CF2E
:100CE000E6CF8091010383FDF7CFE1CF809101032F
:100CF00083FDE9C09091020391FFE5CFC4EED0E0FF
:100D0000D6CF8091010385FFD2CFC9E2D0E0CFCF0B
:100D10008091010385FFCBCFC5E3D0E0C8CF8091A0
:100D2000010386FFC4CFCAE2D0E0C1CF80910103A6
:100D300086FFBDCFC1E3D0E0BACFCF3BD10508F0ED
:100D40007ACFC85AD0E0CC0FDD1FC159DE4F0990D1
:100D5000D881C02DD464ABCFC11581E5D80798F4F4
:100D6000C11520E5D20708F061C0C11530E2D307F4
:100D700008F49DCFCE0190548115904108F090CF9A
:100D8000DF70D06A94CFDC2FCC27C16FD06A8FCFB1
:100D9000811539E59307A0F5C11588E5D80708F056
:100DA0007AC0C11525E5D207C8F4C11534E5D307CB
:100DB00008F06CC09E012370332781E090E002C0F0
:100DC000880F991F2A95E2F7C695C69520E2C29F23
:100DD000E0011124C82BD92BDA6869CFCE019555D3
:100DE0008F3F910511F008F05BCF8C2F0E949A0580
:100DF000C82FD0E0DC2FCC27CC27DF71D06257CFB3
:100E000081153AE5930708F44BC09056811590423E
:100E100008F046CF8D2F8F710E949A0590E0982F91
:100E2000882788279F718C2BEC01E8CF9E0174E006
:100E3000369527957A95E1F723708C2F86958695C0
:100E4000837030E2839FC0011124922BC37021E094
:100E500030E002C0220F331FCA95E2F7822B932B9A
:100E6000EC01DC6824CF9C012370332781E090E003
:100E700002C0880F991F2A95E2F7C695C69520E211
:100E8000C29FE0011124C82BD92BEBCFDC2FCC273C
:100E9000C46FD06A0CCFDC2FCC27C06FD06A07CFCD
:100EA0008F700E949A0534E0D695C7953A95E1F780
:100EB000CF709C2FEC01D069FACEC9E3D0E0F7CE19
:100EC000C2EED0E0F4CEC6EED0E0F1CE80E00895E0
:100ED000F894E82FE295EF70F0E041A18F7021E0E7
:100EE00030E0B90102C0660F771F8A95E2F7CB01A7
:100EF000962F9095942391A392A1892B82A3789405
:100F0000089508958091E50280FF0DC060911E0153
:100F100070E0660F771F6038710570F56115710517
:100F200069F1862F089581FF07C060911E0184E05A
:100F3000689FB0011124EFCF82FF04C060911E01B1
:100F400088E0F6CF8091E702882399F020911D0177
:100F500060911E018217A0F7869FC001112433E023
:100F6000880F991F3A95E1F7622F70E00E94E42BF9
:100F7000D2CF68E070E0D5CF8FE7089581E0089583
:100F80008091E50280FF0CC060911C0170E07595B6
:100F90006795759567956115710549F1862F0895D7
:100FA00081FF06C060911C0170E075956795F3CFD5
:100FB00060911C0182FD0BC09091E6029923A1F083
:100FC00060911B0180911C01961738F0682F70E02A
:100FD0006038710500F38FE70895899FC0011124DF
:100FE00070E00E94E42BF4CF61E070E0D7CF81E0A5
:100FF0000895E0E1E80FE031E0F5F0E0E853F34D6B
:101000000C941A2C0E94820781958093EB0208951C
:101010000E948207FACF0E94820781958093EA029C
:1010200008950E948207FACF0E94C0078093EC02C5
:1010300008950E94C0078195F9CF0E94C00781954D
:101040008093ED0208950E94C007FACF845F990B48
:1010500021E030E001C0220F8A95EAF78091E90291
:10106000822B8093E90208958091E502816080934C
:10107000E50208958091E5028260F9CF8091E50252
:101080008460F5CF4091EA02803F59F48091EB02F1
:1010900087FF0DC01092EB0241110BC01092E702C6
:1010A00008C0813F81F48091EB0218169CF3442321
:1010B00081F08091EC029091ED02892B09F05AC0E9
:1010C0001092E6020895823F49F447FFF0CF109254
:1010D000EA028091EB028111ECCFE0CF833F19F45B
:1010E0001416ACF3E4CF9091EC02893F29F4191661
:1010F000F4F61092EC02DBCF8A3F19F497FFD7CFBA
:10110000F8CF9091ED028B3F29F497FFD0CF10924A
:10111000ED02CDCF8C3F19F41916CCF3C8CF9CE06B
:10112000980F953090F4845F990B21E030E0B9017D
:1011300002C0660F771F8A95E2F7CB0180959091E8
:10114000E90289238093E902B2CF8D3F31F4809187
:10115000E5028E7F8093E502AACF8E3F21F4809135
:10116000E5028D7FF7CF8F3F09F0A1CF8091E50297
:101170008B7FF0CF08956F927F928F929F92AF9264
:10118000BF92CF92DF92EF92FF920F931F93CF9374
:10119000DF93B82EA62E8901E42FF0E0EC5BF84F28
:1011A000611119C0E4918E2F2E2FD80111962C9326
:1011B0001197EC9312968C93DF91CF911F910F9121
:1011C000FF90EF90DF90CF90BF90AF909F908F9067
:1011D0007F906F900895E62EF12C249186E0B89EC2
:1011E00060011124CFEFD0E0C601BE010E94D02BD8
:1011F0008B2D90E0880F991F35E5369FA001379F12
:10120000500D1124841B950B982F990F980FAE0148
:101210004E195F09249FD001259FB00D1124EB2F9B
:10122000A99E50011124AB2CBB24AE014A195B09C5
:10123000249F5001259FB00C11248B2D3E01691A6B
:1012400071086E9C40016F9C900C7E9C900C112448
:10125000892C9924C819D9092C9FA0012D9F500DC4
:10126000112463307105D1F09CEFC91693E0D906C3
:1012700070F461307105B1F062307105B9F0FFEFC3
:10128000CF16D10408F091CF8B2FE52F8ECF64308D
:10129000710579F066307105B9F387CFEB2D822F98
:1012A0002B2F83CFE22F2B2D8B2F7FCF852FE22F5C
:1012B000F7CF822F252F79CF8091F702982F9E7F2D
:1012C00061F4817082608093F7028091FA02893C18
:1012D00018F088EC8093FA0208958A34B0F3817094
:1012E0008864F1CFFA0181110994FB01FDCF0F93BE
:1012F0001F93CF93DF93CDB7DEB728970FB6F8943F
:10130000DEBF0FBECDBF8C0180918600909187001B
:101310006CE070E00E94D02B6017710788F0C80164
:1013200069E070E00E94D02BCB0128960FB6F894AC
:10133000DEBF0FBECDBFDF91CF911F910F910895FA
:1013400080918600909187002091860030918700DF
:101350003E832D832091860030918700E6E0F0E007
:10136000BF010E94D02BC801B0E0A0E0860F971FFC
:10137000A11DB11DAC01BD0185E0440F551F661FC5
:10138000771F8A95D1F749835A836B837C838D813C
:101390009E81BF010E94D02B50E040E0260F371FF6
:1013A000411D511D69817A818B819C810E94F82B9E
:1013B00029833A834B835C83E0918600F091870018
:1013C000CA01B9010E94B22BDF019B01AC010E944E
:1013D000452C6D837E838F8398879B01AC01698147
:1013E0007A818B819C810E94B22B69837A838B8363
:1013F0009C83AB01BC019FE0769567955795479517
:101400009A95D1F78091860090918700B0E0A0E096
:1014100084179507A607B70720F4409186005091DE
:101420008700CA0182CFCF93DF9300D000D0CDB721
:10143000DEB7843020F5811123C090918000977F22
:10144000909380002F98A0918600B0918700282F5C
:1014500030E00E942F2C23E030E040E050E00E947A
:10146000F82BC9010E94770990938D0080938C001E
:101470000F900F900F900F90DF91CF91089583E020
:1014800090918000986090938000DDCF282F220FEC
:10149000220F220F9091F2029770922B9093F202FA
:1014A000987F21E009F420E09091F20220FB90F96E
:1014B0009093F2020C94130AE0919902F0919A022F
:1014C000309721F00190F081E02D099480E008959B
:1014D0002091F4013091F5012817390771F09093AC
:1014E000F5018093F401E0919902F0919A0230970E
:1014F00021F00680F781E02D099408952091F201F2
:101500003091F3012817390771F09093F30180931C
:10151000F201E0919902F0919A02309721F0008453
:10152000F185E02D099408952FB7F8948091610218
:1015300090916202A0916302B09164022FBF08955E
:101540000E94940A2091EA023091EB02232B21F0B1
:1015500080935E0290935F022091EC023091ED0245
:10156000232B21F080935C0290935D02E09199021D
:10157000F0919A02309749F082E08093E80204806B
:10158000F581E02D88EE92E0099408959C014FB713
:10159000F8948091610290916202A0916302B091EF
:1015A00064024FBF821B930B08958091F10108954F
:1015B0000895FC01CB012091CC013091CD0126177B
:1015C000370790F0009729F42091E8002E772093B8
:1015D000E80040E0009751F4411108C08091E80014
:1015E00082FF31C080E00895C901F3CF20916502E8
:1015F0002223A9F12530A9F12091E80023FD2DC077
:101600002091E80022FDEACF2091E80020FFE2CF00
:101610003091F3002091F200009719F02830310545
:1016200058F041E02830310509F040E02091E80011
:101630002E772093E800CECF41914093F10001979F
:101640002F5F3F4FE9CF80916502882341F08530BD
:1016500041F08091E80083FFC1CF81E0089582E0EE
:10166000089583E008958091C60187FF13C080919B
:10167000E80082FF06C08091E8008B778093E80045
:1016800004C0809165028111F2CF089580916502B6
:101690008823D9F38091E80080FFF8CF8091E8009B
:1016A0008E77ECCF2091E4003091E50095E6A9011A
:1016B0002091EC00822F817020FF06C08091E8000D
:1016C00080FF06C080E008952091E80022FD1AC046
:1016D00080916502882389F0853089F08091EB0044
:1016E00085FD0FC02091E4003091E50042175307BB
:1016F000F9F29150E1F684E0089582E0089583E0E4
:10170000089581E00895E8EDF0E080818E7F808388
:101710001092E2001092DA001092E100A0EEB0E028
:101720008C9181608C9380818F77808319BCA7ED29
:10173000B0E08C918E7F8C9380818F7E808310921D
:10174000C5010895EF92FF920F931F93CF937C01F1
:101750008B010E94520BC82F811117C08091E800A5
:1017600085FD0BC08091E8008E778093E8000E9491
:10177000520B882399F3C82F08C0F70181917F018C
:101780008093F1000150110949F78C2FCF911F91DF
:101790000F91FF90EF900895982F9093E900242FD8
:1017A000762F50E0891731F07091EC002091ED0018
:1017B0005091F00021FD06C09F5F973071F7809334
:1017C000E90008953091EB003E7F3093EB003091BB
:1017D000ED003D7F3093ED003091EB0031603093B0
:1017E000EB007093EC002093ED005093F0002091FB
:1017F000EE0027FDE1CF0895CF92DF92EF92FF92A6
:101800000F931F93CF93DF93C8EDD0E088818F7E35
:101810008883E7EDF0E080818160808384E082BF8F
:1018200081E08093C50188818E7F888302EE10E07D
:10183000F80110821092DA0081EEC82ED12CF60148
:10184000108288818F7788838881806888838881E7
:101850008F7D888319BC109265021092C40110928A
:101860003C021092C30190EEE92EF12CF701808129
:101870008B7F808388818160888342E060E080E0A4
:101880000E94CC0BF60180818E7F8083F8018081DD
:1018900081608083808188608083F70180818E7F72
:1018A0008083888180618883DF91CF911F910F9120
:1018B000FF90EF90DF90CF9008958091F70280FD28
:1018C0000AC0E9EFF1E0118210821282339652E0F1
:1018D000E533F507C1F7239A35B1377F25B1286085
:1018E0004FB7F89489EF91E0FC010196508168E0D0
:1018F00025B9000000C057FF35B9550F000000C0E2
:1019000000C000C035B900C06A9591F752E0853338
:10191000950751F74FBF8FE594E00197F1F700C0AD
:1019200000000895EF92FF920F931F93CF93DF93E0
:10193000EC0109EF11E0F12CE12C9C816091F9029E
:101940008091F8022AE0E216F10414F5992311F1CE
:101950004091FA02493C08F048EC98010E94BB080B
:101960008FEFE81AF80A0D5F1F4F24E1E216F10429
:1019700021F70E945D0C8C8190E00196817099277F
:101980008C83DF91CF911F910F91FF90EF9008957D
:101990009923F1F2980140E0E1CFEF92FF921F937B
:1019A000CF93DF93EC0189EFE82E81E0F82E10E071
:1019B0004091FA02493C08F048EC8C819701609113
:1019C000F902810F0E94BB08145F83E0E80EF11C4E
:1019D000103F71F70E945D0C9A818C8190FF08C0C6
:1019E0008F5F8C83DF91CF911F91FF90EF900895CF
:1019F0008150F7CFCF92DF92EF92FF920F931F9318
:101A0000CF93DF93FC018281DD24DA9480FD02C054
:101A1000DD24D39409EF11E0D0E0C0E0F801118299
:101A20001082128294E0E92EF12CC12C8091F801F1
:101A30008C0D85310CF43FC064E10E94C22B892FCC
:101A4000082E000C990B8C179D07A9F48091FA02BF
:101A50008E9DA0018F9D500D11245595479555954C
:101A60004795493C08F048EC98016091F902809153
:101A7000F8020E94BB08CD0CF1E0EF1AF108B1F6B4
:101A800021960D5F1F4FC431D10541F60E945D0CB8
:101A90008091F80191E0D91212C08823B1F08150F1
:101AA0008093F801DF91CF911F910F91FF90EF90FC
:101AB000DF90CF90089587FFC3CF8C5EC1CF90E0B9
:101AC0000196BE010E94E42BEBCF83E1E9CF0F9397
:101AD0001F93CF93DF93C9EFD1E0FE0111821082F3
:101AE0001282339682E0E533F807C1F710E000E098
:101AF0008091F701082E000C990B08171907A4F123
:101B000080910301082E000C990B8017910764F156
:101B10004091FA02493C08F048EC9E016091F902BC
:101B20008091F8020E94BB080F5F1F4F239604317B
:101B30001105F1F60E945D0C809102019091F70170
:101B4000980F9093F70120910301280F2093030130
:101B5000121614F493311CF0819580930201DF91E9
:101B6000CF911F910F910895198218821A82DCCFAC
:101B7000CF92DF92EF92FF920F931F93CF93DF9359
:101B8000CDB7DEB72E970FB6F894DEBF0FBECDBF30
:101B90008D879E87AD85BE8514961C91212F30E0E0
:101BA000D9010E942F2C9B01AC010E94452C698316
:101BB0007A838B839C83E0E2F0E0E11BF109A5E5E9
:101BC000B0E09B01AC010E94452C69877A878B8726
:101BD0009C879F01DF010E94272C9B01AC010E9482
:101BE000502C6D837E838F8398879B01AC01898104
:101BF0009A81AB81BC81280F391F4A1F5B1F698501
:101C00007A858B859C850E94F82BF22E422F50E01E
:101C100099E29F1508F445C0A3E02A9F9001112482
:101C200035952795122F109599EFC92E91E0D92E51
:101C300000E085E5E82EEF188E2D01FD8F2D412F58
:101C4000193C08F048EC96016091F9020E94BB082B
:101C50000F5FB3E0CB0ED11C043171F70E945D0C15
:101C6000ED85FE85948181E0992319F0903219F475
:101C70008FEF8093010180910101890FAD85BE85B1
:101C800014968C932E960FB6F894DEBF0FBECDBF80
:101C9000DF91CF911F910F91FF90EF90DF90CF9048
:101CA000089585E590E0841B950B9C01220F331F5E
:101CB000280F391F37FFB4CF2F5F3F4FB1CF90911F
:101CC000F70290FF0CC0E9EFF1E08183608342836B
:101CD000339692E0E533F907C1F70C945D0C089553
:101CE0000F931F93CF93DF9300D00F92CDB7DEB742
:101CF0008C018091F60181110AC09E012F5F3F4F38
:101D000048EC6FEF0E94BB088A818093F601F801CE
:101D10006481613049F06230F1F08091F60140E079
:101D2000662331F040E019C06091F60140E080E0A8
:101D30000E945F0EF801848190E0019663E070E0FC
:101D40000E94E42B84830F900F900F90DF91CF912E
:101D50001F910F9108954091F60180E060E0E8CF77
:101D6000CF93DF9300D00F92CDB7DEB79091F702FB
:101D700090FF12C0493C08F048EC9E012F5F3F4F96
:101D80000E94BB084B8169818A810F900F900F9050
:101D9000DF91CF910C945F0E0F900F900F90DF9119
:101DA000CF910895CF93DF93EC01EC81F0E0E15CFB
:101DB000F94F4491E7EFF2E0628181810E94B00E19
:101DC0008C818F5F8C83DF91CF910895CF93DF93C8
:101DD000EC01E7EFF2E0438162818C810E94B00E5A
:101DE0008C818F5F8C83DF91CF91089581E0809308
:101DF000E00080E28093D8001092C9008FE19EE459
:101E00000197F1F700C0000087E090EBDC018093C0
:101E10003C0390933D03A0933E03B0933F0388E1BE
:101E20009CE00FB6F894A895809360000FBE909345
:101E30006000FFCFCF93DF93D82FC92F809121016E
:101E40008823C1F18091010387FF34C060E284E000
:101E50008093E9008FEF9091E800815095FD06C0D6
:101E600095ED9A95F1F700008111F5CF8091E8008A
:101E700085FF1DC08091210170E050E040E081119C
:101E800004C050E040E068E070E08D2F9C2F0E947D
:101E9000A20B8091E8008E778093E80080E2ED2F1E
:101EA000FC2FA1EDB1E001900D928A95E1F7DF9151
:101EB000CF91089568E081E0CBCF24E02093E90042
:101EC0002FEF3091E800215035FD06C035ED3A95F1
:101ED000F1F700002111F5CF2091E80025FF0BC09C
:101EE00050E040E066E070E00E94A20B8091E800C4
:101EF0008E778093E80008958093CE017093D0018F
:101F00006093CF01809165028430F9F48093E900F9
:101F10008FEF9091E800815095FD06C095ED9A9560
:101F2000F1F700008111F5CF8091E80085FF0DC029
:101F300050E040E063E070E08EEC91E00E94A20B84
:101F40008091E8008E778093E8000895BC0183E0DB
:101F50000C947C0FBC0184E00C947C0F4F925F9238
:101F60006F927F928F929F92AF92BF92CF92DF92A9
:101F7000EF92FF920F931F93CF93DF9310E000E057
:101F800038ED632E712CE801CC0FDD1F58011CC009
:101F9000F60185909490692DC7010E94782C682DD8
:101FA000C70101960E94782C22E0C20ED11C32E0BB
:101FB000E30EF11C4E145F0459F7629689E0A80EF7
:101FC000B11CC615D70581F0C501880F991F9C016A
:101FD000215A3D4F69017E0137E2E30EF11C2E01CB
:101FE00089E3480E511CD4CF3E0128ED620E711CCE
:101FF00004591F4F003B31E0130729F6DF91CF91C1
:102000001F910F91FF90EF90DF90CF90BF90AF9016
:102010009F908F907F906F905F904F900895682F62
:1020200086E090E00C94782C8091F20281FD10C043
:1020300082608093F2020E940F1010923702109279
:1020400036021092350280916F00816080936F009C
:1020500008958091F20281FF11C08D7F8093F2027A
:102060000E940F1080916F008E7F80936F0080918F
:10207000F2028695869586950C94130A0895CF935F
:10208000C82F6FEF811162E283E290E00E94782C0A
:102090006FEFC11164E084E290E00E94782C6FEF52
:1020A000C11165E285E290E0CF910C94782CCF933A
:1020B000DF93C7E8D3E060E0CE010E94782C219640
:1020C000C11584E0D807B9F7DF91CF91089580E07A
:1020D0000E943F1060E086E290E00E94782C0E940F
:1020E000AE0F0E94571081E00C943F10CF9384E014
:1020F00090E00E94642CC82F82E290E00E94642C41
:10210000982F8C2FCF91089583E290E00E94642C49
:10211000823289F484E290E00E94642C843059F485
:1021200085E290E00E94642C91E0853209F090E015
:10213000892F8170089580E0FCCF0F931F93CF9378
:10214000DF93C42FD0E0CC0FDD1F22E1629FC00DD2
:10215000D11D112438ED839FC00DD11D1124CE0156
:1021600087960E94642C082F10E0102F0027CE01C4
:1021700088960E94642C9801282BC901DF91CF9189
:102180001F910F910895462F672F843030F47C30D3
:1021900020F4493010F40C949D1090E080E00895F4
:1021A000DF92EF92FF920F931F93CF93DF937C0107
:1021B0000091FF028091FE02082BC7E0D0E010E002
:1021C000DC2EC8010C2E02C0959587950A94E2F783
:1021D00080FD0CC02197A0F7D12C8D2DDF91CF91E0
:1021E0001F910F91FF90EF90DF900895B7018C2F12
:1021F0000E94C3100E94DD05019761F3EECF0F939B
:102200001F93CF93FC01828100811181882389F083
:10221000662379F0C8010E94D010C82F682FC8012A
:102220000E94CA04B8018C2FCF911F910F910C947A
:10223000C310C8010E94F804C82FF4CFCF93DF93D6
:10224000D82FC92F0E94D0106D2F7C2F0E94C31051
:10225000DF91CF910C94DD050E941E11282F9295DD
:102260009F70963091F060F4925F9F70923030F4DE
:1022700081E0203F81F030F4283E30F080E0089586
:102280009A5FF3CF243FD1F7089581E0283EE0F331
:10229000213FA1F7F9CF08958091FC0290910303AB
:1022A000892B8093A0019091FD029923A1F0892BA5
:1022B0008093A001809121018823D9F180910103AD
:1022C00087FF37C08EE1E2EAF1E090E0815098F5B7
:1022D00091110E94940540E250E06BE972E080EABF
:1022E00091E00E94B92C892B59F180E2E0EAF1E0FB
:1022F000ABE9B2E001900D928A95E1F7E091990285
:10230000F0919A023097E1F080912101882359F0F1
:102310008091010387FF07C08091A0018093A101F4
:1023200086E08093A0010280F381E02D80EA91E0B5
:10233000099486E0C8CF2191222341F29F5FC6CF46
:102340000895882309F452C0823871F40E945C0A0F
:1023500081FF4CC089E30E942B050E944C1189E348
:102360000E945F050C944C11833859F40E945C0A5A
:1023700080FF3CC083E50E942B050E944C1183E541
:10238000EFCF843859F40E945C0A82FF2FC087E4A3
:102390000E942B050E944C1187E4E2CF9CEF980F1E
:1023A000913AF0F290E2980F983050F4877091E0F3
:1023B00001C0990F8A95EAF7892F0E948C05D2CF28
:1023C0009BE5980F933020F490E080E00C94680A2D
:1023D00098E5980F973120F490E080E00C947E0A05
:1023E000803F20F00E9442080C94A00A08958823A0
:1023F00039F09091FC02892B8093FC020C944C11D3
:102400000895882321F00E948C050C944C110895A6
:1024100090E080E00E94680A90E080E00E947E0ADE
:10242000109203030E944C1186E0E8EEF2E0DF0117
:102430001D928A95E9F71092E7021092E602109237
:10244000E5020C94A00A1092FC0280912101E2EABC
:10245000F1E0882359F08091010387FF07C08EE1E6
:10246000DF011D928A95E9F70C94081286E0F8CFF7
:102470001F93CF93DF93CDB7DEB7AA970FB6F8942B
:10248000DEBF0FBECDBF86EC91E0FC01019620912E
:10249000F100208321E08E3C9207B9F78091C701BB
:1024A000893009F456C0C8F4823009F4B3C08330CF
:1024B00009F482C0813071F18091E80083FF84C209
:1024C0008091C6019091C7019A3008F07DC2E92F32
:1024D000F0E0E852F34D0C941A2C8A3009F489C0CC
:1024E0008B3051F78091C601813231F78091CA015A
:1024F0009091CB01892B01F78091E800877F809331
:10250000E8000E94330B8091C801809321010E9452
:102510002312D2CF8091C601813A71F68091E800F2
:10252000877F8093E8008091CA019091CB01892B2D
:1025300061F460E281ED91E070E00E94D90A80913F
:10254000E8008B778093E800B7CF60E090E080E010
:10255000F3CF8091C601813209F0AECF8091CA01DC
:102560009091CB018D7F892B09F0A6CF8091E80057
:10257000877F8093E8008091E80082FF18C09091E7
:10258000F3008091F200029731F48091F1008130E4
:1025900011F0863021F48091F1008093F101809157
:1025A000E8008B778093E8000E94330B85CF809101
:1025B00065028111E0CF80CF8091C601813A09F098
:1025C0007BCF8091CA019091CB01892B09F074CF08
:1025D0008091E800877F8093E8008091E80080FF89
:1025E000FCCF809121018093F1008091E8008E77EB
:1025F000D9CF8091C601813209F05ECF8091E80089
:10260000877F8093E8000E94330B8091C9018093FB
:10261000C20152CF8091C601813A09F04DCF80911D
:10262000E800877F8093E8008091E80080FFFCCF7E
:102630008091C201D8CF803899F0823809F0C4C1A6
:102640008091CA018F70873008F0BEC18093E90085
:102650008091EB0085FB882780F91092E90006C085
:102660008091C30190913C02911182609091E800A9
:10267000977F9093E8008093F1001092F100809191
:10268000E8008E779DC1882309F48BC1823009F060
:102690009BC18091C80181118EC18091CA018F7048
:1026A0002FEF280F263008F08FC18093E90020918A
:1026B000EB0020FF80C1933031F48091EB00806209
:1026C0008093EB0078C19091EB0090619093EB00C8
:1026D00021E030E001C0220F8A95EAF72093EA005A
:1026E0001092EA008091EB008860EACF81116CC102
:1026F0001091C8011F778091E3008078812B80932F
:10270000E3008091E800877F8093E8000E94330B0C
:102710008091E80080FFFCCF8091E3008068809387
:10272000E30082E0111183E0809365024DC180587F
:10273000823008F049C14091C8015091C9014C3D17
:1027400083E0580799F583E08A838AE289834FB74B
:10275000F894DE01139620E03EE051E2E32FF0E032
:1027600050935700849120FF03C082958F703F5F84
:102770008F708A30C8F0895C90E08D939D932F5FB5
:10278000243161F74FBF8091E800877F8093E80094
:102790006AE270E0CE0101960E94D90A8091E800B9
:1027A0008B778093E80010C1805DE6CF8091CA01ED
:1027B0009091CB01252F33272330310509F44AC0EE
:1027C00078F52130310509F479C08BE590E0E4EC2F
:1027D000F1E02230310509F0F7C02091E800277FB1
:1027E0002093E8002091CC013091CD01821793070E
:1027F00008F49C0140E02115310509F064C0411145
:1028000062C08091E80082FDC9CF80916502882373
:1028100029F2853019F28091E80083FFF2CFBECF14
:102820002132310509F43BC02232310509F0CCC018
:102830008330910508F0C8C0FC01EE0FFF1FE75D73
:10284000FE4F0190F081E02D8A5D9E4FDC018C915E
:1028500090E011C0CA019927413089F0823091057A
:10286000B1F0892B09F0B0C0EBE5F2E0E4918E2FD6
:1028700090E0EBE5F2E0009709F4A6C0AECFE9E402
:10288000F2E0E4918E2F90E0E9E4F2E0F4CFE1E3AE
:10289000F2E0E4918E2F90E0E1E3F2E0ECCF8330C0
:1028A000910508F091C0880F991FFC01E15DFE4F72
:1028B0000190F081E02D89E090E08FCF82E190E0FF
:1028C000EFE1F2E08ACF80916502882309F466CFB8
:1028D000853009F463CF8091E80083FD5FCF80915C
:1028E000E80082FD8ECF8091E80080FF84CF909138
:1028F000F3008091F2002115310519F0883091051F
:1029000050F041E0089709F040E08091E8008E77B0
:102910008093E80070CF44914093F10031962150AC
:1029200031090196E8CF803809F04EC08091E80067
:10293000877F8093E8008091C4018093F1009FCE4F
:10294000811142C01091C8011230F0F58091E80069
:10295000877F8093E8001093C4010E94330B1123FA
:1029600011F084E005C08091E30087FDFACF81E09B
:102970008093650242E061EC81E00E94CC0B42E270
:1029800061EC84E00E94CC0B42E261EC82E00E94A8
:10299000CC0B42E260EC83E00E94CC0B809165029C
:1029A00013C08091C801813079F481E0933009F03F
:1029B00080E080933C021092E9008091E800877FDC
:1029C0008093E8000E94330B8091E80083FF0AC0E7
:1029D0008091E800877F8093E8008091EB0080621F
:1029E0008093EB00AA960FB6F894DEBF0FBECDBF62
:1029F000DF91CF911F9108958093FE020C940812ED
:102A00008093FF020C94081221E030E001C0220FF5
:102A10008A95EAF78091FF02822B0C94001521E041
:102A200030E001C0220F8A95EAF720958091FF02DD
:102A300082230C9400159091000380958923809344
:102A40000003282F277091F4282F082E000C330B39
:102A50009217130659F09091020392FD07C08595D5
:102A6000859585950E940F15109200030895CF93C8
:102A7000C0910203C2FB992790F9981799F080FB47
:102A8000C2F9C09302036091010384E090E00E94C8
:102A9000782C6C2F82E290E00E94782C82E0CF911B
:102AA0000C941B15CF9108958091FF02982F96707A
:102AB000963019F488600C940015877FFCCF4F92F4
:102AC0005F926F927F928F929F92AF92BF92CF92BE
:102AD000DF92EF92FF920F931F93CF93DF93CDB7C7
:102AE000DEB768970FB6F894DEBF0FBECDBFFE010C
:102AF000319688E1DF011D928A95E9F79AE5E92E82
:102B000091E0F92E8F0126E6622E21E0722E2F0130
:102B1000AA24A394B12C4FE6842E41E0942EF70111
:102B200081917F018F3F09F445C0F894E82FE29529
:102B3000EF70F0E021A18F70A50102C0440F551F76
:102B40008A95E2F7CA01922F982B91A392A18095C2
:102B5000892382A3789400C0E6E6F1E021E030E02A
:102B6000D12CC12C41914F3F09F45DC0A42FA295F7
:102B7000AF70A05EB0E08C9190E04F7002C0959570
:102B800087954A95E2F780FD4EC0C901C82AD92A27
:102B9000220F331F8E169F0629F7F7013197808188
:102BA0008F3F11F00E94680750EA5A95F1F7D8015B
:102BB000CD92DC920E5F1F4F6E147F0409F0AFCFF1
:102BC00048E150E0B20181E892E00E94B92C9C01FA
:102BD00011E0892B09F410E0232B41F188E1F20187
:102BE000A1E8B2E001900D928A95E1F781E080932F
:102BF00068020E94940A9093670280936602809113
:102C00006602909167020E94C60A059798F088E1D3
:102C1000E1E8F2E0A9E6B2E001900D928A95E1F7D1
:102C20001092680207C080E090E0B0CF8091680207
:102C30008111E5CF812F68960FB6F894DEBF0FBEE5
:102C4000CDBFDF91CF911F910F91FF90EF90DF905B
:102C5000CF90BF90AF909F908F907F906F905F903C
:102C60004F9008950F931F93CF93DF938B01D82F2D
:102C7000C92F0E945C09A8016D2F7C2F88E090E08D
:102C8000DF91CF911F910F910C948A2CE7EFF2E026
:102C900083E0808311828FEF828388EC83831482A8
:102CA00063E070E08FEF98EC0C943216CF93DF93D3
:102CB00000D000D0CDB7DEB78091FB02833018F48E
:102CC0008F5F8093FB028091F7029091F802A091B0
:102CD000F902B091FA0289839A83AB83BC83BC0169
:102CE000CD010F900F900F900F90DF91CF910C942A
:102CF0003216CF93DF9300D000D0CDB7DEB78091EE
:102D0000FB02882319F081508093FB028091F70227
:102D10009091F802A091F902B091FA0289839A8306
:102D2000AB83BC83BC01CD010F900F900F900F902F
:102D3000DF91CF910C9432165F926F927F928F92B7
:102D40009F92AF92BF92CF92DF92EF92FF920F933A
:102D50001F93CF93DF9300D000D000D00F92CDB758
:102D6000DEB7082F762E142F622E9091F70290FF77
:102D70008AC0E92FE695AE2FB0E0AB5CBE4F8C91D8
:102D80008093F5029E7F9230E9F5493C08F048ECCB
:102D90009E012F5F3F4F672D802F0E94BB084B8104
:102DA00069818A810E945F0E0093F8027092F90295
:102DB0001093FA02662009F466C08091F7029091A0
:102DC000F802A091F902B091FA028C839D83AE8340
:102DD000BF83BC01CD0127960FB6F894DEBF0FBEAE
:102DE000CDBFDF91CF911F910F91FF90EF90DF90BA
:102DF000CF90BF90AF909F908F907F906F905F909B
:102E00000C943216823019F41091FA02CDCF86302C
:102E100019F40091F802C8CF8930D9F3893121F62D
:102E2000E9518E2F8170582EE695F0E0E15CF84F65
:102E3000A590B490BB2489EFE82E81E0F82ED12C28
:102E4000C12C94E1892E912CC601B4010E94D02B93
:102E5000802F511016C0860F412F193C08F048EC06
:102E60009701672D0E94BB08CA0CDB1C93E0E90E9A
:102E7000F11CA5E3EA16A2E0FA0631F70E945D0C08
:102E800093CF861BE9CF27960FB6F894DEBF0FBE0F
:102E9000CDBFDF91CF911F910F91FF90EF90DF9009
:102EA000CF90BF90AF909F908F907F906F905F90EA
:102EB0000895E7EFF2E0818121E043816281885F3C
:102EC0000C949C16E7EFF2E0818121E0438162815E
:102ED00088500C949C16E7EFF2E0628128E0620FC4
:102EE00008F46FEF21E0438181810C949C16E7EF99
:102EF000F2E0628128E0621B08F460E021E0438197
:102F000081810C949C16E7EFF2E0438128E0420FA8
:102F100008F44FEF21E0628181810C949C16E7EF69
:102F2000F2E0438128E0421B08F440E021E06281A6
:102F300081810C949C1669EE7EEF90E080E00E9407
:102F4000962C60E082E090E00E94782C60E083E0C4
:102F500090E00E94782C1092FE0260E084E090E005
:102F60000E94782C60E082E290E00E94782C60E081
:102F700085E090E00E94782C60E086E090E00E947E
:102F8000782C6FEF87E090E00E94782C40E050E0D2
:102F9000BA0188E090E00E948A2C60E08DE090E029
:102FA0000E94782C40E050E0BA0188E190E00E9455
:102FB0008A2C60E087E190E00E94782C40E050E0AD
:102FC000BA018CE190E00E948A2C70E060E080E21F
:102FD00090E00E94962C40E050E0BA0188E190E039
:102FE0000E948A2C80E00E943F100E94671040E0FF
:102FF00050E0BA018FE090E00E948A2C40E050E05F
:10300000BA0183E190E00C948A2CEBEFE80FEF33E8
:1030100008F06CC0F0E0EE51F34D0C941A2C0E94B5
:103020009B1781E0089580913D02807F80933D024F
:1030300081E08093F10208950E9423122FEF84E330
:103040009CE0215080409040E1F700C000000E94C9
:10305000F60E90913D02892F8E7F90FF81608093C4
:103060003D0280FDDECF817F80933D02DACF9091DB
:103070003D02892F8D7F91FF826080933D0281FF09
:10308000D0CF80913D028160EFCF90913D02892F9A
:103090008B7F92FF846080933D0282FDF2CFC1CF8F
:1030A00090913D02892F877F93FF886080933D0236
:1030B00083FDE7CFB6CF0E94231290910103892FA1
:1030C00097FB87F9805880930103ABCF81E00E9482
:1030D000FC140E942312A5CF895391E001C0990FDF
:1030E0008A95EAF7892FF3CF8D51F7CF80E00895C5
:1030F000CF93C82F882309F487C08238C1F40E9477
:103100005C0A81FD81C089E30E942B050E944C115D
:103110002FEF31EE84E0215030408040E1F700C0D5
:10312000000089E30E945F05CF910C944C11833815
:10313000A1F40E945C0A80FD67C083E50E942B0514
:103140000E944C119FEF21EE34E09150204030401E
:10315000E1F700C0000083E5E5CF8438A1F40E94C8
:103160005C0A82FD51C087E40E942B050E944C112D
:103170008FEF91EE24E0815090402040E1F700C0B5
:10318000000087E4CFCF8CEF8C0F813A08F0DEC0CF
:103190008091F102813079F0823049F18111A2C031
:1031A0008091FC02823209F09FC08C2F0E9405188A
:1031B00081112AC099C08091FC028232B1F3C431DE
:1031C00071F030F4CB3089F0C03161F080E005C09F
:1031D000C93229F081E0C833C9F78170E9CF109274
:1031E000F102F4CF82E08093F10281E0F6CFCF3498
:1031F00009F470C0C0F4C83248F4CE3188F5C73045
:1032000009F455C0C43121F0CF910895C932E1F7D6
:103210008091F0028823C1F31092F0021092EF0225
:103220001092EE02F1CFC13509F456C081E0C235EB
:1032300019F086EFC03541F7E091EE02F091EF0210
:10324000309711F32081082E000C990B820F911DED
:103250008F3F910509F00CF441C08FEF8083D4CFEC
:10326000CD51C093F002C430E1F068F4C230B1F047
:103270008EE191E0C33069F080E291E0C13049F025
:103280001092F002C1CFC53079F08BE191E0C630E9
:10329000B9F79093EF028093EE02B6CF8FE191E001
:1032A000F8CF8DE191E0F5CF8CE191E0F2CF81E0B4
:1032B0008093200184E180931F018AE080931E01A6
:1032C0008EE180931D0188E080931C0188E2809349
:1032D0001B019ACF8AE0B0CF8FEFAECF97FFBECF62
:1032E000108292CF1092F10280912101882301F186
:1032F0008091010387FF1CC0EC2FE695E695E695CB
:10330000F0E0E056FE4F828190E04C2F477021E0C4
:1033100030E002C0220F331F4A95E2F78223932345
:10332000892B81F08C2F0E945F050E944C110AC0EE
:10333000E2EAF1E088EA91E02191C21799F38E1751
:103340009F07D1F78C2F0E942B05EECE80E28C0FC9
:10335000883068F4C77021E030E001C0220FCA95C0
:10336000EAF78091FC02822B8093FC02DDCE8BE594
:103370008C0F833038F42C2F2452330BC901CF919A
:103380000C94680AE8E5EC0FE73150F4F0E0EE0F3A
:10339000FF1FE159FE4F80819181CF910C947E0AED
:1033A000C03F08F431CF8C2F0E94F907CF910C94C5
:1033B000A00A0F931F93CF93C82F10E000E089332A
:1033C00011F400E510E08C2F0E947818011511050A
:1033D00031F48C2FCF911F910F910C94A1118FE993
:1033E0009FE00197F1F700C0000001501109EECFF6
:1033F000FF920F931F93CF93DF93C62FD42F122FDB
:103400008823A9F06093F3020E94940A9093C1016B
:103410008093C001C77081E001C0880FCA95EAF7A8
:10342000DF91CF911F910F91FF900C94F711809134
:10343000F302681334C08091C0019091C1010E94D1
:10344000C60A883C910558F500E20D0FCD17A9F08A
:10345000C770FF24F3948F2D01C0880FCA95EAF737
:103460000E940112083048F48D2F877001C0FF0CB4
:103470008A95EAF78F2D0E94F711812F0E94D919A2
:103480000830A0F4D77081E001C0880FDA95EAF720
:10349000DF91CF911F910F91FF900C940112C77093
:1034A00081E001C0880FCA95EAF7F2CFDF91CF9192
:1034B0001F910F91FF90089590E080E00E94722C80
:1034C000893E9E4F11F40C94841080E008950E9470
:1034D0005C1A81110AC00E949B178091F2028470CD
:1034E00089618093F2020E940F1086E090E00E94B2
:1034F000642C8093F202803220F087708861809380
:10350000F2029091F202892F817090FF04C0892FFE
:103510008695869586950C94130A6091F7026695B8
:1035200070E04BE050E084E091E00E94AC2C892BED
:1035300019F481E08093F6020E94940A9093570256
:10354000809356020895CF93DF9300D000D0CDB77B
:10355000DEB79091F70290FF45C08823E1F18532F4
:10356000E0F58F77880F9091F7029170892B809307
:10357000F702662381F08091F7029091F802A09102
:10358000F902B091FA0289839A83AB83BC83BC01B0
:10359000CD010E9432166091F702669570E04BE013
:1035A00050E084E091E00E94AC2C892BC1F0109295
:1035B000F60281E08093590220E04091FA02609186
:1035C000F9028091F8020F900F900F900F90DF9109
:1035D000CF910C949C1681E0C5CF84E2C3CF0E94AA
:1035E0008D1AE7CF0F900F900F900F90DF91CF9132
:1035F00008958091F70286958F5F853208F081E00B
:1036000061E00C94A31A9091F70296958FEF890FC1
:10361000913009F484E261E00C94A31A9091F702CE
:1036200090FF07C09695981720F0961710F40C9409
:10363000F91A61E00C94A31A3F924F925F926F9235
:103640007F928F929F92AF92BF92CF92DF92EF9232
:10365000FF920F931F93CF93DF93CDB7DEB72897D9
:103660000FB6F894DEBF0FBECDBF7C01DC019C918C
:1036700011968C91119713962D913C91232B21F04B
:1036800089238F3F09F0E0C528960FB6F894DEBF76
:103690000FBECDBFDF91CF911F910F91FF90EF90A3
:1036A000DF90CF90BF90AF909F908F907F906F9062
:1036B0005F904F903F900895980122513F452031EF
:1036C000310508F0ADC58FEF93E00E94642C0251E4
:1036D00047E8842E43E0942E882399F180910003DB
:1036E000877091F2F7018281882371F28091020341
:1036F00082FDCACF82E028960FB6F894DEBF0FBED7
:10370000CDBFDF91CF911F910F91FF90EF90DF9090
:10371000CF90BF90AF909F908F907F906F905F9071
:103720004F903F900C941B158114B4E09B06B1F2AE
:10373000C4010E94642C811101C00150EFEF8E1A68
:103740009E0A0111F1CF8091220190912301A09155
:103750002401B091250189839A83AB83BC834424DF
:1037600043943AE0332E84010F5F1F4FC4010E943F
:10377000642C89831A82882309F4B0CF9FEF980FB5
:10378000933010F58A834982F2E08F0E911CC801B4
:103790000E94642C8B83882309F4A0CF8E010F5FD5
:1037A0001F4FD8012C912223F1F2213009F047C09C
:1037B00011969C91119712968C91913039F40E5F6D
:1037C0001F4F0E94D91908C04801E8CF923039F440
:1037D0000E5F1F4F0E9478180F5F1F4FE2CF93308C
:1037E00029F40E5F1F4F0E94A111F6CF943019F0FB
:1037F0000F5F1F4FF1CF0E5F1F4F20E030E0A80199
:103800004F5F5F4F8053990B8A30910560F021150F
:10381000310511F38FE99FE00197F1F700C0000037
:1038200021503109F4CF329EB001339E700D112426
:103830009C01260F371FF80181818A01E0CFE22F1A
:10384000F0E0EA57F74F5490822F8695869586953B
:1038500090E0FC01EA58F74FE4912770F0E0022E67
:1038600002C0F595E7950A94E2F73F01A1E06A22CC
:103870007724FC01EA59F74FA490B12C022E02C024
:10388000B594A7940A94E2F7B1E0AB22BB24FC0103
:10389000EA5AF74FC490D12C02C0D594C7942A9508
:1038A000E2F7E1E0CE22DD246114710419F081EE2B
:1038B0000E947818A114B10419F086EE0E947818BD
:1038C000852D0E94D919AB2819F086EE0E94A1110E
:1038D000672819F081EE0E94A111CD2809F47CCF50
:1038E0008CE26FCF81E00E9404150E945415F6CE41
:1038F00081E00E940F15F9CF82E0F5CF82E0F9CF89
:1039000083E00E94460A8091F2020E940F10E6CEE8
:1039100080E0F7CF8091F202982F987F79F088505D
:103920008093F202887F91E009F490E08091F202A6
:1039300090FB80F98093F2020E940F108091F202B6
:103940008695869586950E94130AC8CE8091F202CC
:10395000982F969596959695883140F49F5F990F8C
:10396000990F990F8770892B8093F2028091F20250
:103970008160E0CF8091F20280FF07C08E7F80934C
:10398000F2020E940F1080E0DECF81608093F2028D
:10399000813019F489E08093F2028091F202CCCF59
:1039A0009091F202892F8695869586958F5F8F710B
:1039B0009770843020F4880F880F880F982B90938D
:1039C000F2028091F202AECF8091F20281FF03C039
:1039D0000E94291083CE0E94141080CE053FBCE5C2
:1039E0001B07D1F027E245EE66EE063FECE51E0729
:1039F00041F027E245EE64EE043FFCE51F0709F0C5
:103A000052C40E94F8196ACE27E245EE65EEF9CF5E
:103A100026E241EE60EEF5CF26E241EE62EEF1CF16
:103A200098012A5F3C452930310508F450C406311D
:103A3000FCE51F0709F470C405C0053ABDE51B0786
:103A400009F445C40A35BDE51B0709F0B0C181E0A2
:103A5000CCC1F801E350FC45809101038160E33162
:103A6000F10530F5EF5DF24D0C941A2C03302DE585
:103A7000120778F40A3F3CE5130708F438C4F8014C
:103A8000EB5FFC45E830F10510F5EC5CF24D0C9471
:103A90001A2C01368DE5180709F496C090910103A0
:103AA000892F8E7F90FF8160053A1D4509F01FC464
:103AB000809301031CC4809101038260F9CF80913F
:103AC00001038460F5CF809101038860F1CF80917C
:103AD00002038160809302030AC480910203826022
:103AE000F9CF809101038061E3CF8091010380626F
:103AF000DFCF809101038064DBCF0E94231280918D
:103B000001038068D5CF809101038C60D1CF809173
:103B100002038360DFCF809101038E7FC9CF809144
:103B200001038D7FC5CF809101038B7FC1CF809131
:103B30000103877FBDCF809102038E7FCBCF809121
:103B400002038D7FC7CF809101038F7EB1CF80911B
:103B500001038F7DADCF809101038F7BA9CF0E94A0
:103B60002312809101038F77A3CF80910103837F7C
:103B70009FCF809102038C7FADCF8091010382FBA8
:103B8000992790F921E0922790FB82F990FB83F925
:103B90008FCF80910203982F909591708E7F892B03
:103BA00090FB81F997CF0E94231290910103892FF6
:103BB00097FB87F980587CCF61E08EE090E00E940F
:103BC000782C95C360E0F9CF90910103892F8F7E07
:103BD00094FF80616DCF85E3AEC38091F4028111C3
:103BE00004C089E20E945F05A8C385E3FBCF8091F2
:103BF000FC028272063DACE51A0778F4023CBCE593
:103C00001B0778F0F801E35CFC45E331F10508F0AF
:103C100050C0E45CF24D0C941A2C0D351D4509F48E
:103C20005DCDD70112968C911297CD90DC908823B0
:103C300009F4EDC0C6010E94D010182F682FC601EC
:103C40000E94CA04B601812F0E94C3100E94DD05A4
:103C50008C01F7019280858082942FE082228091EE
:103C600000038770C1F0C92C9920B1F0812F807FAB
:103C7000803421F080E2800F883068F08091020368
:103C800082FD09C082E00E941B15809100038770AD
:103C9000CC24C3948111C12C812F82958F70A82EC2
:103CA000B12C8C3008F020C1F501E15BF24D0C9491
:103CB0001A2C8091F70280FF21C08E7F8093F7023B
:103CC0008091F7029091F802A091F902B091FA0266
:103CD0008D839E83AF83B887BC01CD010E943216CD
:103CE0001092F6029FEFA0E7B2E09150A040B040E2
:103CF000E1F700C000000E945D0CF0CC8160809371
:103D0000F70261E086950E94A31AE8CC43E05BE1EC
:103D100069EF7AE10E947209E1CC49EF5AE163E070
:103D20007BE1F8CF42E657E169E577E1F3CF49E57A
:103D300057E162E677E1EECF47E757E16BE677E1DF
:103D4000E9CF4BE657E167E777E1E4CF4FE857E18A
:103D500063E877E1DFCF43E857E16FE877E1DACF57
:103D600049E756E166E576E1D5CF46E556E169E7F4
:103D700076E1D0CF61E081E0C6CF65E082E00E94CD
:103D80000E1BACCC68E086E0FACF6EE089E0F7CF9E
:103D900064E18FE0F4CF67E185E1F1CF61E088E194
:103DA000B2CF62E289E1EBCF61E083E2ACCF0B35C9
:103DB000EDE51E0758F40115FCE51F07C9F00E3D9F
:103DC0001C4509F02ECF0E949B1788CC0B353DE592
:103DD0001307D9F00C351D4509F023CF809102035C
:103DE00082FB882780F991E089270E94371519CF37
:103DF0000E9423129FEFA4E3BCE09150A040B0408A
:103E0000E1F700C000000E94F60E80E0EECFC60190
:103E10000E94F804182F16CFF12FFF70DF2E107FAD
:103E200019F0D29490EFD9229920B9F0DD2069F0F1
:103E300080E2800F883010F0011109C08091FC02EF
:103E40008D298093FC020E944C11802F4BC08091E1
:103E500003038D2980930303F6CF802F0E94A111C5
:103E6000DD2009F441C080E2800F883010F001119C
:103E700004C08D2D0E948C0506C0D0948091030350
:103E80008D21809303030E944C112EC0212F2F708F
:103E9000D22E107F103219F0D29480EFD822002356
:103EA00081F0013009F488C0992009F492C088207B
:103EB00009F488C0F701858180FFC7CF8F708583A3
:103EC00081C02091020322FF54C0992009F44AC006
:103ED000DD2039F08091FC028D298093FC020E9444
:103EE0004C1180E00E94781838E0A31AB10884E0F1
:103EF000A816B10420F40E945C0A0E94BD04CC20E4
:103F0000B1F08091000380FD12C0D70112961C927F
:103F10008595859585950E940415C7010E941C1BF7
:103F2000809100038595859585950E940F1560E029
:103F3000C70128960FB6F894DEBF0FBECDBFDF9144
:103F4000CF911F910F91FF90EF90DF90CF90BF9096
:103F5000AF909F908F907F906F905F904F903F9029
:103F60000C94FF1080E00E94A111DD2009F4BCCF69
:103F700080CF9920A1F09091FD028D2D892B811089
:103F800003C00E94F711B0CF31E08312FACF22FDB7
:103F9000ABCF981709F4A8CF8093FD02A5CF81106D
:103FA00006C00E9494058D2D0E9401129DCF81E0D4
:103FB000881609F499CFF5CF992031F095E098153E
:103FC00008F492CF8D2DDDCFA4E0A81508F48CCF96
:103FD000EACF882041F3093349F4FFEF27EE33E0BD
:103FE000F15020403040E1F700C00000802F0E94D7
:103FF000A1117ACF812F86958695837061F08130EB
:1040000009F072CFC8019370911002C090E080E077
:104010000E947E0A69CFC8019370911002C090E09F
:1040200080E00E94680A60CF802F992029F00E94CA
:10403000F9070E94A00A58CF0E944208FACF812FA8
:104040008370A1F5911050CF802F8295869587704F
:10405000880F880F402F4F70082E01C0440F0A941C
:10406000EAF7202F207104FF07C02FE030E001C0E5
:10407000220F8A95EAF7209516951695137012303F
:1040800081F0822F842B133031F08091FE021130A9
:1040900029F0242B82230E94FC1426CF842B822B10
:1040A000FACF242B8091FE028227F5CF992061F16F
:1040B00010FF1ACF802F829586958770880F880F02
:1040C000402F4F70082E01C0440F0A94EAF7202FAA
:1040D000207104FF07C02FE030E001C0220F8A9555
:1040E000EAF72095169516951370123099F0822FE5
:1040F000842B133031F08091FF02113041F0242BDA
:1041000082230E940015F0CE11FFEECED3CF842B78
:10411000822BF7CF242B8091FF028227F2CF1F70D2
:10412000992029F0812F0E940415802F2ACF802FFB
:104130000E940112812F0E940F15D6CE023F81F1FD
:1041400060F4003FB9F0013F81F0992009F458C0B4
:1041500081107BCE812F8F7127C0033F41F1043F37
:10416000A1F78091020382FF2DC0812F8F719920CA
:1041700011F31AC0992079F084E0881508F4B4CEC0
:104180001F7181E090E001C0880F1A95EAF79091C5
:10419000FF028927B6CF95E0981508F4A5CEF0CF99
:1041A000812F8F719110C7CF0E9404159DCE80E0A2
:1041B000992009F4A6CF1F7181E001C0880F1A95DC
:1041C000EAF79FCF992089F01F71812F0E94041573
:1041D0008091020382FD07C0A8E01A9FC00111244C
:1041E000836080930003812FDFCF81E00E941B1545
:1041F000B1E0B81508F078CE82E00E941B1574CEAD
:10420000882059F0093309F0F1CEEFEFF7EE23E003
:10421000E150F0402040E1F7E7CE812F8F718BCF46
:104220000031BFE51B0709F45DCB0131EFE51E0747
:1042300009F462CBF801EB5BFC45E730F105C0F413
:10424000E55AF24D0C941A2C61E0C7010E94FF1050
:104250008C01D70112968C9181112ECA0031FFE595
:104260001F0709F445CB01312FE5120709F446CBAE
:10427000033FFCE51F0709F4CBCB08F0AFCB083DAB
:104280003CE5130709F4C0CB28E241E0093D9CE579
:10429000190709F4BBCB26E241EE61EE073DACE520
:1042A0001A0709F4AECB882391F11092F30201367C
:1042B0002DE5120761F008F0C0CB06319CE5190727
:1042C00008F0AECB0230ACE51A0708F4BBCB0E9475
:1042D000761090930203809301030631ECE51E07EC
:1042E00008F0C4CB0230FCE51F0708F0B2CB6091A8
:1042F00001031091020384E090E00E94782C612F6A
:1043000082E290E00E94782C0E942312E7C90631D5
:10431000ECE51E0709F06BCC9091FC02882309F4B0
:104320005CCC892F8A7A91E009F490E09093F402B2
:10433000811151CC89E20E942B050E944C11CEC9FB
:104340001F93CF93DF9380913B03807FA9F48091EB
:104350003803882389F080910503C091040370918C
:10436000360360913703A0913903B0913A03D62FF9
:10437000D72316E0C81304C0DF91CF911F91089591
:1043800090E0109711F0DF3F19F401968770F2CF9B
:10439000189F9001199F300D1124F901EA5FFC4F1D
:1043A00041816413F2CF40814713EFCF4281411125
:1043B000ECCF438154814A1B5B0B483C510528F7E5
:1043C00080913B038F70806180933B03F901E55F2F
:1043D000FC4F80818F708061808386E393E00E9430
:1043E0001C1BDF91CF911F910C9421058F929F92FE
:1043F000AF92BF92DF92EF92FF920F931F93CF93F2
:10440000DF93CDB7DEB72B970FB6F894DEBF0FBEA4
:10441000CDBF8C0185E0F801DE01179601900D9269
:104420008A95E1F7F801E280A380B48086E3882EC4
:1044300083E0982E909136038091370320913903C1
:1044400030913A032115310529F0482F49234F3F78
:1044500009F028C1EE2009F433C1F801808191816F
:104460000E942C11F82E882309F42AC186E0F80155
:10447000A6E3B3E001900D928A95E1F70E94A02196
:1044800021C0D0903B034D2D407F283C310508F0E2
:10449000A8C0F80121814111C3C0FE2C281325C0FA
:1044A0008081891322C0E11020C08D2D8F70806122
:1044B00080933B0386E393E00E941C1B80913B03A7
:1044C000F80185838F2D2B960FB6F894DEBF0FBEB3
:1044D000CDBFDF91CF911F910F91FF90EF90DF90B3
:1044E000BF90AF909F908F9008953F81AB2829F0A7
:1044F000822F83238F3F09F090C080E0F82FF17066
:10450000DF2EE09105034091040356E080FD1CC0BE
:10451000EE20C1F280913B03816080933B03F12C3C
:10452000D1CF8E2F90E05E9FF0011124EA5FFC4F07
:104530006181261306C06081361303C06281E612D2
:10454000E7CF0196E82FE770E413EBCF8F819885D2
:104550000E941E11292F22952F70903260F0225F49
:104560002F70223078F49F7051F0F8019581907F80
:1045700031F4D12C0AC09F7011F08823D1F3805EF2
:104580008830B8F3C8010E941C1BFD2C9BCFF8019A
:10459000808191810E942C11882309F491C0EE2022
:1045A00009F48EC080913B03803270F08091360315
:1045B000909137039A8389831B82BD82AC82DE820D
:1045C000CE0101960E941C1B86E0F801A6E3B3E031
:1045D00001900D928A95E1F70E94A021FF24F394A7
:1045E00071CF411132C086E393E00E941C1B86E02C
:1045F000F40111928A95E9F792CFF80180819181B7
:104600000E942C118111E0CF80913B038160809347
:104610003B03C8010E941C1B55CF81E08E256ECF45
:104620002813B5CFF80180818913B1CFE110AFCF46
:10463000D582C8010E941C1B86E0F801A6E3B3E006
:1046400001900D928A95E1F73DCFF8012181821307
:104650009ECFF801808189139ACFE11098CFD5823F
:10466000C8010E941C1B86E0F40111928A95E9F7AB
:1046700029CFF80121818213C0CFF80180818913ED
:10468000BCCF80913B0380FDD7CF982F907FA1F2C4
:104690008583903F71F2982F907F905F8F70892B68
:1046A0008583C7CFF0903803A501421B530B9A01B5
:1046B000F110E7CE283C3105B0F6FE2CE110D9CF41
:1046C000C8010E941C1B8ACF1F93CF93DF93CDB7E5
:1046D000DEB767970FB6F894DEBF0FBECDBF342F9D
:1046E0004B8B252F5C8B962F6D8B7E8B8F8B4E8902
:1046F0005F896111109203031A8A3D872E879F8775
:10470000598B488B86E0FE013D96DE01179601909D
:104710000D928A95E1F7CE0107960E94F621882333
:1047200089F016E08091050390910403891349C034
:1047300067960FB6F894DEBF0FBECDBFDF91CF9165
:104740001F91089586E0FE013796DE0111960190D3
:104750000D928A95E1F79F8188852091040340910D
:1047600005036A857B85672BE1F289238F3FC9F2B8
:1047700030E0C9010196877099274817190671F42E
:104780000E942312109204031092050386E0E6E3D0
:10479000F3E0DF011D928A95E9F7C3CF96E0929F7F
:1047A000D001939FB00D1124AA5FBC4FFE0131963A
:1047B00001900D929A95E1F7809304030E942105E0
:1047C000B0CF819FC00111248A5F9C4F0E94F621C7
:1047D000882309F4ADCF8091050390E0019687709E
:1047E0009927809305039ECFCDB7DEB7A4970FB668
:1047F000F894DEBF0FBECDBF84B7877F84BF0FB6EE
:10480000F894A89580916000886180936000109270
:1048100060000FBE80E890E00FB6F89480936100CE
:10482000909361000FBE85B7806885BF85B78068AB
:1048300085BF86E697E090939F0180939E010E943A
:10484000830B0E94FC0B8091E20084608093E20065
:10485000789480916502882399F08091E900109105
:10486000EC001795112717958F70182B1092E900FF
:104870008091E80083FD0E9438121F701093E900B8
:1048800082E084BD93E095BD9AEF97BD80936E0062
:104890000E948410811102C00E9467100AE511E095
:1048A000A6E6EA2EA1E0FA2ED8018D918D018F3F68
:1048B00011F00E946807E016F106B1F706E611E074
:1048C000FFE6EF2EF1E0FF2EF80181918F018F3F7F
:1048D00011F00E946807E016F106B1F788E1E9E6F9
:1048E000F2E0DF01282F1D922A95E9F7E1E8F2E0D6
:1048F000DF011D928A95E9F70E945C1A811102C0BE
:104900000E949B1782E090E00E94642C80933D02FD
:104910000E94761090930203809301030E945F151A
:10492000EFE3FCE93197F1F700C000000E945F154A
:104930008091690280FF08C06FEF7FEF90E080E018
:104940000E94962C0E94F60E83E090E00E94642C58
:104950000E94FC146E9A769A229A2A9A279A2F9885
:104960008AE08093800089E1809381008FEF9FEF40
:1049700090938700809386000E94671A8091F202CC
:1049800081FF0BC01092370210923602109235024E
:1049900080916F00816080936F000E94671A809100
:1049A0003802811133C00E945C1A811104C00E9438
:1049B0009B170E94461688E090E00E946C2C609342
:1049C000F7027093F8028093F9029093FA026E7FD7
:1049D00071F40E94461688E090E00E946C2C60936F
:1049E000F7027093F8028093F9029093FA020E9402
:1049F0005C091092F6028091F70280FF04C060E02B
:104A000086950E94A31A81E0809338028FE091E09E
:104A100090939A028093990268E1862E912C70E41B
:104A2000772EE1E8AE2EE2E0BE2E80916502FF24F3
:104A3000F39400E112E1853009F4AEC10E945F15E4
:104A4000882359F08FB7F894409161025091620227
:104A500060916302709164028FBF59E6E52E52E0C7
:104A6000F52EEEE3F2E0D70110E000E0702F8D911B
:104A70009D91219131912817390709F4B2C1282756
:104A8000392760E0CC24C394D12CA60142235323C0
:104A9000452B09F4A0C169837A8396012823392321
:104AA00091E0232B09F490E09B830E94940A81609B
:104AB000782F9D838C8349815A816B81892F0E9435
:104AC0006423000F111FF801E25CFD4F808191818A
:104AD0008C259D25918380838091F6028823D1F1D6
:104AE0008091F502E091F702E695E81BE093580209
:104AF000823009F08DC1F0E0EE5AF74FE4910E2FAD
:104B000010E082EDC82E8EE0D82E809159028823C5
:104B100061F0109259020E94940A90935702809378
:104B2000560210925B0210925A020E94940A20913F
:104B3000560230915702821B930B8F3F9F4750F4D0
:104B4000200F311F309357022093560286E592E0E2
:104B5000F601099586E0E8EEF2E0DE01119601909B
:104B60000D928A95E1F7C090EA02D090EB02009195
:104B7000EC021091ED021092EA021092EB021092F8
:104B8000EC021092ED028C2D8D2991F080915E0245
:104B900090915F020E94C60A9C018091E7028823DF
:104BA00009F494C190911F019217130608F49CC157
:104BB000802F812B09F448C080915C0290915D02A6
:104BC0000E94C60A9C018091E602882309F4E7C38B
:104BD00021353105C8F18F3F19F08F5F8093E602D0
:104BE000002359F00E94C0079FEF10160CF491E0CB
:104BF000899F802D11248093EC02112359F00E948B
:104C0000C0079FEF11160CF491E0899F802D1124AD
:104C10008093ED023091EC022091ED023323A1F05C
:104C2000222391F045EB3403C0011124992309F4A8
:104C30009AC19093EC0255EB250390011124332384
:104C400009F495C13093ED028091EA029091EB0254
:104C5000892B9091EC02892B9091ED02892B11F018
:104C60000E94A00A86E0FE013196A8EEB2E0019013
:104C70000D928A95E1F70E945C0A90916002891773
:104C800021F0809360020E94BD048091650284300F
:104C900009F0CBCE83E08093E9008091E80082FFA9
:104CA000C4CE8091E80090E085FF0CC00E94520BBA
:104CB00030E2C32ED12C8E010F5F1F4F882309F4E1
:104CC00064C191E08091E8008B778093E80099239C
:104CD00009F4ABCEE981E150E33108F0D5C1F0E051
:104CE000EE59F24D0C941A2C80916502843009F42F
:104CF00043C080E00E94130A80E00E94BD0410922D
:104D0000F60280913B02811116C0F0923B02809125
:104D1000F702982F917090933A028E7F8093F7025A
:104D2000FFEF20E732E0F15020403040E1F700C0D3
:104D300000000E945D0C109239020FB6F894A895FD
:104D4000809260000FBE7092600083B7817F8460A4
:104D500083BF83B7816083BF7894889583B78E7F44
:104D600083BF0FB6F894A895809160008861809306
:104D70006000109260000FBE80913C02882361F0B9
:104D80000E945F15E9E6F2E081919191892B09F08B
:104D9000E7C2AE16BF06C1F780916502853009F4FF
:104DA000A3CF0E9423120E94671A0E945C0A0E94ED
:104DB000BD0410923B0280913A02882349F0809111
:104DC000F70281608093F70260E086950E94A31A43
:104DD0000E948D1A33CE6F5FCC0CDD1C693009F058
:104DE00054CE0F5F1F4F0C30110509F03FCE8FEFEF
:104DF00089838A831B820E94940A8160782F9D8315
:104E00008C8349815A816B81892F0E94642364CEEF
:104E1000853109F447C068F4893061F18F30B1F110
:104E20008630E9F000ED17E041E8C42E47E0D42ECB
:104E30006CCE833209F441C004EF11E052E9C52E73
:104E40005CE0D52E843209F460CE08E210E0B8EBC5
:104E5000CB2EBDE0DB2E883109F457CEE3CFF0E056
:104E6000E15BF74FE4910E2F10E0A6EECA2EAEE004
:104E7000DA2E4BCEE695F0E0E45BF74FE4910E2F8F
:104E800010E0FDECCF2EFCE0DF2E3FCEE695F0E00B
:104E9000E75BF74FE4910E2F10E0EAEFCE2EECE047
:104EA000DE2E33CEF0E0EA5BF74FE4910E2F10E0F8
:104EB00077E6C72E7DE0D72E28CEE4E4F8E0059112
:104EC000149160E7C62E6EE0D62E1FCE40912001D1
:104ED000FAE04F9FA00111244217530708F068CE53
:104EE0008F5F8093E70202C08F3FD1F7CC2059F04B
:104EF0000E9482079FEF1C140CF491E0899F802D83
:104F000011248093EA02DD2059F00E9482079FEF6E
:104F10001D140CF491E0899F802D11248093EB02E5
:104F20003091EA02332309F443CE2091EB0222238D
:104F300009F43ECE45EB3403C0011124992359F006
:104F40009093EA0255EB250390011124332339F0A5
:104F50003093EB022DCE81E08093EA02F3CF81E023
:104F60008093EB0225CE81E08093EC0264CE81E059
:104F70008093ED0269CE8091F100D8018D938D016F
:104F8000B1E0CB1AD10809F49CCE8091E80085FDF0
:104F9000F2CF8091E8008B778093E8000E94520B5B
:104FA000882399F38ECE1A8289E08B8323C08A816D
:104FB000823009F4EBC1833009F442C0813009F03A
:104FC00063C08FB7F89420916102309162024091E2
:104FD00063025091640229A33AA34BA35CA38FBF41
:104FE00069A17AA18BA19CA10E94202C6B837C8358
:104FF0008D839E8380916502843009F016CD809167
:10500000E9001091EC001795112717958F70182B58
:1050100082E08093E9008091E80080FF0DC050E0BD
:1050200040E060E270E0CE0101960E94A20B809108
:10503000E8008E778093E8001F701093E900F5CCAC
:10504000FE013196D7018C9111969C91B2E0EB0E46
:10505000F11C928383833296AE14BF0499F7CACFB2
:105060008A81823089F42B813C814D815E8129A324
:105070003AA34BA35CA3CA01B9010E94202C86E28B
:1050800090E00E94782CB6CF8FEF8983B3CF4C810C
:105090006B818A810E949D109827892798279E837B
:1050A0008D83A8CFED80FE80FE24EF24FE248A812C
:1050B0000B8132E1039F8001112448ED849F000D94
:1050C000111D11248C8190E0880F991F080F191F62
:1050D0006F2DC80187960E94782C6E2DC801889686
:1050E000D0CF0E94AE0F86CF8A81893031F18A30CD
:1050F00089F18A81823809F450C0A8F58038E1F13D
:10510000813809F077CF60E08B810E94A31A9B81E0
:105110008091F702911139C08E7F8093F70210922F
:10512000F6028FEF90E7A2E081509040A040E1F7B7
:1051300000C000000E945D0C5DCF8B8153E0859F15
:10514000C00111246FEF70E00E94D02B862F0E94C7
:10515000460ACFCF8B81811103C00E942910C9CF8D
:105160000E941410C6CF833809F044CF20E040914C
:10517000FA026C818B8106C020E04B816091F902BC
:105180008091F8020E949C1635CF81608093F702CF
:1051900060E086950E94A31A2DCF8B818093FB023D
:1051A00029CF8A81893059F08A30C1F0813839F1AC
:1051B000D0F4803809F01ECF8091FA02F6CE8091AB
:1051C000F202869586958695BFEF8B9FC0011124CC
:1051D00063E070E00E94D02B6B830CCF8091F202D1
:1051E00086958170E2CE823891F0833809F002CF43
:1051F0008091F8028B838091F9028C83FBCE8091A1
:10520000F70280FF02C08695D0CE80E0CECE80919E
:10521000FB02CBCE8091F2020E940F102091F70288
:105220003091F8024091F9025091FA0229A33AA371
:105230004BA35CA3CA01B9010E943216DBCE80E108
:105240008A83D8CE1A8289E7B0CECA80DB80DC247C
:10525000CD24DC248C817601E80EF11C8E010B5FDD
:105260001F4FC60189579C4FEC14FD0409F4C2CEB0
:1052700039E7C316D10448F40E94642CD8018D93F9
:105280008D01BFEFCB1ADB0AECCF80E0F7CF0A81AC
:105290001B81102701271027FE0131966F018C8199
:1052A0007F01E80EF11CC80189579C4FCE14DF0422
:1052B00009F4A0CE0937110528F4D60114966C9193
:1052C0000E94782C0F5F1F4FBFEFCB1ADB0AEBCF8A
:1052D0000E9457108FCE84E0B3CFCA80DB80DC24DD
:1052E000CD24DC248C817601E80EF11C8E010B5F4D
:1052F0001F4FC6018796CE14DF0409F47BCEE0E68B
:10530000CE16E3E0DE0648F40E94642CD8018D93AB
:105310008D01BFEFCB1ADB0AECCF80E0F7CF0A811B
:105320001B81102701271027FE0131966F018C8108
:105330007F01E80EF11CC8018796EC14FD0409F406
:1053400059CE0036F3E01F0728F4D60114966C916D
:105350000E94782C0F5F1F4FBFEFCB1ADB0AEBCFF9
:1053600009BD19BD09B400FEFDCF8091D8008F7D25
:105370008093D8008091E00082608093E00080916B
:10538000E00081FDFCCF0E94231206CD86E290E072
:105390000E94642C1B821C821D828E832BCE2B309C
:1053A000310508F01ACC50CC1F920F920FB60F9215
:1053B00011242F933F934F935F936F937F938F931A
:1053C0009F93AF93BF93EF93FF938091000182303F
:1053D000A1F08F5F80930001FF91EF91BF91AF919A
:1053E0009F918F917F916F915F914F913F912F91FD
:1053F0000F900FBE0F901F90189581E080930001D1
:105400008091360290913702019660ED72E00E9421
:10541000D02B909337028093360265E070E00E94B3
:10542000D02B6F7780913502823041F4603451F493
:1054300080916F008E7F80936F0004C0813011F4E3
:105440006F37B1F3E62FF0E0E154FA4FE491209189
:10545000860030918700E29FC001E39F900D1124E8
:105460006DEF72E00E94D02B8091F20286958695B6
:105470008695282F269FC001279F900D11240E94FA
:10548000770990938D0080938C00A6CF1F921FB652
:105490001F9211248F939F93AF93BF9380913902F2
:1054A000811113C08091610290916202A091630208
:1054B000B09164024196A11DB11D80936102909349
:1054C0006202A0936302B0936402BF91AF919F9177
:1054D0008F911F901FBE1F90189578941F921FB632
:1054E0001F9211248F939F93AF93BF93809161027A
:1054F00090916202A0916302B09164020196A11D95
:10550000B11D8093610290936202A0936302B093F5
:105510006402BF91AF919F918F911F901FBE1F900A
:1055200018951F920F920FB60F9211242F933F934D
:105530004F935F936F937F938F939F93AF93BF939B
:10554000EF93FF938091E10082FF09C08091E20018
:1055500082FF05C08091E1008B7F8093E100809104
:10556000DA0080FF24C08091D80080FF20C08091A5
:10557000DA008E7F8093DA008091D90080FF9BC093
:1055800080E189BD82E189BD09B400FEFDCF81E0E3
:10559000809365028091C501811109C00E94830B2F
:1055A0000E94FC0B8091E20084608093E200809175
:1055B000E10080FF17C08091E20080FF13C080915E
:1055C000E2008E7F8093E2008091E2008061809310
:1055D000E2008091D80080628093D80019BC85E0F9
:1055E000809365028091E10084FF29C08091E200F0
:1055F00084FF25C080E189BD82E189BD09B400FE38
:10560000FDCF8091D8008F7D8093D8008091E100FC
:105610008F7E8093E1008091E2008F7E8093E20094
:105620008091E20081608093E2008091C401882330
:1056300009F447C084E080936502809165028091FF
:10564000E10083FF27C08091E20083FF23C08091A7
:10565000E100877F8093E10082E0809365021092F1
:10566000C4018091E1008E7F8093E1008091E2008F
:105670008E7F8093E2008091E20080618093E2005F
:1056800042E060E080E00E94CC0B8091F0008860F6
:105690008093F000FF91EF91BF91AF919F918F9117
:1056A0007F916F915F914F913F912F910F900FBE1E
:1056B0000F901F90189519BC109265021092C501A9
:1056C00076CF8091E30087FD02C081E0B4CF83E014
:1056D000B2CF1F920F920FB60F921124FF920F9329
:1056E0001F932F933F934F935F936F937F938F936A
:1056F0009F93AF93BF93CF93DF93EF93FF9309EE05
:1057000010E0F8018081C091EC00C795CC27C795C7
:105710008F70FC2EF82A1082C0EFD0E08881877F3E
:10572000888378940E943812F801108288818860FA
:105730008883CF2DCF70C083FF91EF91DF91CF9100
:10574000BF91AF919F918F917F916F915F914F9199
:105750003F912F911F910F91FF900F900FBE0F90CF
:105760001F901895DB018F939F930E94452CBF914A
:10577000AF91A29F800D911DA39F900DB29F900DA0
:105780001124089587FB082E062687FD819567FD65
:1057900061950E94582C0EF4919507FC819508950F
:1057A000AA1BBB1B51E107C0AA1FBB1FA617B70747
:1057B00010F0A61BB70B881F991F5A95A9F7809563
:1057C0009095BC01CD01089597FB072E16F4009427
:1057D00007D077FD09D00E94D02B07FC05D03EF4FE
:1057E000909581959F4F0895709561957F4F08958D
:1057F000A1E21A2EAA1BBB1BFD010DC0AA1FBB1FD5
:10580000EE1FFF1FA217B307E407F50720F0A21B46
:10581000B30BE40BF50B661F771F881F991F1A94B3
:1058200069F760957095809590959B01AC01BD01DD
:10583000CF010895EE0FFF1F0590F491E02D09941C
:1058400069279627692778278727782708950E9450
:105850002F2C332312F48A1B9B0B0C94402CA29FF9
:10586000B001B39FC001A39F700D811D1124911D34
:10587000B29F700D811D1124911D08950E942F2C3F
:10588000B7FF0895821B930B08950E942F2CA59FAC
:10589000900DB49F900DA49F800D911D112408952B
:1058A000B7FF0C94452C0E94452C821B930B089546
:1058B000991B79E004C0991F961708F0961B881F62
:1058C0007A95C9F780950895F999FECF92BD81BD6B
:1058D000F89A992780B50895A6E1B0E044E050E039
:1058E0000C949E2CA8E1B0E042E050E00C949E2C79
:1058F000262FF999FECF92BD81BDF89A019700B489
:10590000021639F01FBA20BD0FB6F894FA9AF99A28
:105910000FBE08950396272F0E94792C0E94782CA1
:10592000252F0E94792C242F0C94792C0196272F57
:105930000E94792C0C94782CDC01CB01FC01F999A4
:10594000FECF06C0F2BDE1BDF89A319600B40D92CB
:1059500041505040B8F70895FC014150504030F09C
:1059600001900616D1F73197CF010895882799271E
:105970000895FB01DC0104C08D910190801921F490
:1059800041505040C8F7881B990B0895F894FFCFF9
:10599000020808080B081108260826082608260809
:1059A0002608140819081D08230834083A083E0878
:1059B0001B134313E4144313E41476139713E414F2
:1059C0009314A0141C181318291811187618761897
:1059D0001118761876184518761850185B1876182E
:1059E0007618761876181118761876181118761811
:1059F0003718761876187418741874187418741880
:105A00007418741874187418661876181C180F18FF
:105A10007618761876187618761876187618761816
:105A200076187618661876187618111876186C1885
:105A30006C186C186C186C186C186C186C186C1846
:105A400066185B1D5F1D631D711D751D791D7D1D14
:105A5000831D8B1D8F1D931D971DA31DA71DAB1DA2
:105A6000AF1DB51DD31DBD1D6D1D9B1D9F1D871D2C
:105A7000B91DC91DDC1DE21D861E8D1E921E971EBE
:105A80009C1EA11EA61EAB1EB01EB51EBA1EBD1EBC
:105A9000C21EC51EC81ECB1ECE1ED11ED41E0C1F7C
:105AA0000C1F461F461FFA1F1420741F741F1F204F
:105AB0008F209E209E20801C881C8A1CA61CBA1C3D
:105AC000D01CE41CD327D727302847285228712818
:105AD0007428D1280A29442844281F292229252945
