:100000000C94D0030C9417040C9417040C9417044C
:100010000C9417040C9417040C9417040C941704F4
:100020000C9417040C9417040C9449270C94212861
:100030000C94FE260C9417040C9417040C941704CB
:100040000C9417040C9417040C9417040C941704C4
:100050000C9417040C9425270C9417040C94170483
:100060000C9417040C9417040C9417040C941704A4
:100070000C9417040C9417040C9417040C94170494
:100080000C9417040C9417040C9417040C94170484
:100090000C9417040C9417040C9417040C94170474
:1000A0000C9417040C9417040C941704050109020E
:1000B000A10185020901A1000509190129081500FE
:1000C0002501950875018102050109300931158165
:1000D000257F95027508810609381581257F9501D0
:1000E00075088106050C0A38021581257F95017572
:1000F000088106C0C005010980A101850319012AF4
:10010000B700150126B700950175108100C0050CD8
:100110000901A101850419012AA002150126A002E6
:10012000950175108100C005010906A1018506052C
:100130000719E029E71500250195087501810205D9
:1001400007190029EF1500250195F07501810205B9
:10015000081901290595057501910295017503910D
:1001600001C00660FF0961A1010962150026FF00B8
:100170009520750881020963150026FF00952075FA
:10018000089102C005010906A101050719E029E748
:1001900015002501950875018102950175088101F9
:1001A0000507190029FF150026FF0095067508812F
:1001B000000508190129059505750191029501753C
:1001C000039101C009025B00030100A0FA090400C9
:1001D0000001030101000921110100012240000773
:1001E00005810308000A0904010002030000000958
:1001F00021110100012222000705820320000107CE
:1002000005030320000109040200010300000009A6
:10021000211101000122B6000705840320000A1203
:1002200001000200000008424B676002000102006A
:100230000110034B004200440036003700760032C4
:1002400000000010034B0042004400460061006EB5
:1002500000730000000403090429001E001F002091
:100260000021002200230024002500260027002D65
:10027000002E0000002A004A002B00000014001A83
:10028000000800150017001C0018000C00120013D5
:10029000002F00300031004B003900000004001630
:1002A00000070009000A000B000D000E000F0033CC
:1002B000003400280000004E00E10000001D001B7B
:1002C0000006001900050011001000360037003844
:1002D000000000E50052004D00E000E3000000E2F5
:1002E00000000000002C00000000000000E60001FB
:1002F00051E400500051004F0035003A003B003CF3
:10030000003D003E003F00400041004200430044E9
:1003100000450000004C00490001000000010052AF
:1003200000010001000100010001004600470048F3
:1003300000520001000100010001000000500051C6
:10034000004F0001000100010001004A004B005075
:10035000004F000100000001000100000001000149
:1003600000010001000100010001004D004E00519C
:1003700000000001004B000100010001000000012D
:10038000000000000001000000000000000100016A
:100390000001004A004E004D000100010001000173
:1003A0000001000100010001000100010001000145
:1003B0000001000000010001000100000001000137
:1003C0000001000100010001000100010001000125
:1003D0000001000100010001000100000001000116
:1003E0000001000100010001000100010001000105
:1003F00000010001000000010001000000010001F7
:1004000000010001000100010001000100010001E4
:1004100000000001000100010001000100000001D6
:1004200000000000000100000000000000010001C9
:1004300000010001000100010001000100010001B4
:1004400000010001000100010001000100010001A4
:100450000001000000010001000100000001000196
:100460000001000100010001000100010001000184
:100470000001000100010001000100000001000175
:100480000001000100010001000100010001000164
:100490000001000100000001000100000001000156
:1004A0000001000100010001000100010001000144
:1004B0000000000100010001000100010000000136
:1004C0000000000000010000000000000001000129
:1004D0000001000100010001002223252628292A0D
:1004E0002C2D2F3032333536383A3B3D3E40424397
:1004F0004547494A4C4E5051535557595A5C5E60D6
:1005000062646668696B6D6F71737577797B7D7FE7
:1005100081838587898A8C8E90929496989A9C9EE6
:100520009FA1A3A5A7A8AAACAEAFB1B3B4B6B8B902
:10053000BBBCBEBFC1C2C3C5C6C7C9CACBCCCDCE6A
:10054000D0D1D2D2D3D4D5D6D7D7D8D9D9DADADB4D
:10055000DBDBDCDCDCDCDCDDDDDDDDDCDCDCDCDCD9
:10056000DBDBDBDADAD9D9D8D7D7D6D5D4D3D2D218
:10057000D1D0CECDCCCBCAC9C7C6C5C3C2C1BFBE00
:10058000BCBBB9B8B6B4B3B1AFAEACAAA8A7A5A36B
:10059000A19F9E9C9A98969492908E8C8A8987852A
:1005A00083817F7D7B79777573716F6D6B69686609
:1005B0006462605E5C5A5957555351504E4C4A49DB
:1005C00047454342403E3D3B3A3836353332302F83
:1005D0002D2C2A292826252322FFAA7F55400001F9
:1005E00001010101010101010202020202020202F3
:1005F00002030303030303030304040404040404C5
:100600000505050505060606060607070707070888
:10061000080808090909090A0A0A0B0B0B0C0C0C3B
:100620000D0D0D0E0E0E0F0F0F10101111111212D5
:1006300013131414151516161717181819191A1A52
:100640001B1B1C1D1D1E1E1F2020212222232424B3
:10065000252626272829292A2B2C2D2D2E2F3031EF
:100660003232333435363738393A3B3C3D3E3F4001
:100670004142434445464748494A4C4D4E4F5051EC
:100680005354555658595A5B5D5E5F6162646566A6
:1006900068696B6C6D6F7072737577787A7B7D7E2D
:1006A0008082838587888A8C8E8F91939596989A7D
:1006B0009C9EA0A2A3A5A7A9ABADAFB1B3B5B7BA95
:1006C000BCBEC0C2C4C6C9CBCDCFD1D4D6D8DBDD69
:1006D000DFE2E4E7E9EBEEF0F3F5F8FAFDFF000402
:1006E0007F3F1F643214643214783C1E1E140A05C6
:1006F00000000000000000000000000000000000FA
:1007000000000000000000000000000000000000E9
:10071000000000007E0F00D4FFFFFFC7000000783C
:1007200000000000000000002A2B2800000000004C
:100730000000000000000000000000290000000090
:100740002C1E3420212224342627252E362D3738FE
:10075000271E1F202122232425263333362E373807
:100760001F0405060708090A0B0C0D0E0F101112C5
:10077000131415161718191A1B1C1D2F3130232D91
:10078000350405060708090A0B0C0D0E0F1011128F
:10079000131415161718191A1B1C1D2F3130354C40
:1007A00011241FBECFEFDAE0DEBFCDBF04B603FEDB
:1007B00027C08091CC029091CD02A091CE02B09141
:1007C000CF028730904BA740B04BD1F41092CC02AF
:1007D0001092CD021092CE021092CF0214BE84B7B6
:1007E000877F84BF0FB6F894A895809160008861D8
:1007F00080936000109260000FBEE0E0F8E309957E
:1008000011E0A0E0B1E0EAE9F3E502C005900D9245
:10081000A639B107D9F722E0A6E9B1E001C01D92DF
:10082000AC3CB207E1F70E9443210C9464290C947C
:10083000000081FD02C05C9A08955C98089592952D
:10084000907FE92FE80F877041E001C0440F8A953F
:10085000EAF7E695E695E69583E0E89FF001112436
:10086000E65AFD4F30E020E070E05191DF01119732
:10087000CB01022E02C0969587950A94E2F781700B
:1008800081958527842385278C932F5F3F4F2330C5
:10089000310559F70895E92FE295E07FE80F982F89
:1008A0009770E695E695E69583E0E89FF0011124C0
:1008B000E65AFD4F50E040E080E0219130E0092E03
:1008C00002C0369527950A94E2F721703327042E4B
:1008D00001C0220F0A94EAF7822B4F5F5F4F43302B
:1008E000510559F7089580919502909194029813BB
:1008F00001C008958F5F8770FACF90911A019923F4
:10090000E1F09091910297FF18C0E82FE695E695E7
:10091000E695803FF0F4F0E0E856FE4F877021E066
:1009200030E0A90102C0440F551F8A95E2F7CA01C1
:1009300080959281892382830895EAE9F1E091917B
:10094000891303C0DF0111971C9251E0E03AF507CB
:10095000B1F70895982F909580918C028923809308
:100960008C02089580918D02811110928D0208955C
:1009700080918C0290919302892B90917802892B1F
:100980008093980190918D029923A1F0892B8093F7
:10099000980180911A01882341F18091910287FF8B
:1009A00024C08EE1EAE9F1E090E0815000F5911178
:1009B0000E94B204E0915802F09159023097E1F0A0
:1009C00080911A01882359F08091910287FF07C016
:1009D000809198018093990186E08093980102802C
:1009E000F381E02D88E991E0099486E0DBCF219145
:1009F0002223D9F29F5FD9CF0895882339F09091AF
:100A00008C02892B80938C020C94B804089588235F
:100A100021F00E94AA040C94B804089590919102C8
:100A200092FF06C0282F28712830F9F4877F846050
:100A300093FF06C0282F28712831F1F4877E846146
:100A40002091920220FF06C0382F38713830D9F437
:100A5000877F816021FF06C0282F28712831D1F4BB
:100A6000877E816194FD877E0895282F247124302C
:100A7000F9F68B7F8860DCCF282F2471243101F7B1
:100A80008B7E8861DDCF382F3171313019F78E7F41
:100A90008860E0CF282F2171213121F78E7E886177
:100AA000E1CFCF93DF93EC01803E910509F460C064
:100AB00050F58133910509F4A6C090F4893291056F
:100AC00009F49AC08A9709F4A5C0C130D10509F488
:100AD00062C0CE010497813A910508F055C05BC011
:100AE00089339105F1F182389105D9F1C59709F45F
:100AF0007CC0C83AD10508F094C0C53AD10528F3A6
:100B0000A497D06448C0843E910509F453C068F4AA
:100B1000823E9105E1F1833E910509F440C0CE018A
:100B2000805E9109089780F536C0863E910509F4EC
:100B30004CC0873E910509F44DC0811523E592070D
:100B400008F09AC0811532E5930708F000C18F3F85
:100B5000910511F008F074C0803F910550F2D06506
:100B60001AC0809191028370B1F0C0EED0E013C042
:100B70008091910280FD15C19091920290FF0BC06F
:100B8000C3EED0E084FF07C0D0E0C0E004C0809195
:100B9000910282FDF5CFCE01DF91CF910895809132
:100BA000910282FD01C19091920290FDDECF84FFFF
:100BB000F2CFEACF8091920281FFEDCF8091910236
:100BC000C7EED0E084FDE0CFE6CF8091910283FDB7
:100BD000F7CFE1CF8091910283FDE9C0909192021D
:100BE00091FFE5CFC4EED0E0D6CF8091910285FF92
:100BF000D2CFC9E2D0E0CFCF8091910285FFCBCF99
:100C0000C5E3D0E0C8CF8091910286FFC4CFCAE28D
:100C1000D0E0C1CF8091910286FFBDCFC1E3D0E08B
:100C2000BACFCF3BD10508F07ACFC85AD0E0CC0F6D
:100C3000DD1FC859DE4F0990D881C02DD464ABCFD9
:100C4000C11581E5D80798F4C11520E5D20708F051
:100C500061C0C11530E2D30708F49DCFCE01905496
:100C60008115904108F090CFDF70D06A94CFDC2FCF
:100C7000CC27C16FD06A8FCF811539E59307A0F5D6
:100C8000C11588E5D80708F07AC0C11525E5D20757
:100C9000C8F4C11534E5D30708F06CC09E01237079
:100CA000332781E090E002C0880F991F2A95E2F770
:100CB000C695C69520E2C29FE0011124C82BD92B0E
:100CC000DA6869CFCE0195558F3F910511F008F094
:100CD0005BCF8C2F0E940E05C82FD0E0DC2FCC27D5
:100CE000CC27DF71D06257CF81153AE5930708F41E
:100CF0004BC090568115904208F046CF8D2F8F71D2
:100D00000E940E0590E0982F882788279F718C2BD2
:100D1000EC01E8CF9E0174E0369527957A95E1F7CE
:100D200023708C2F86958695837030E2839FC00157
:100D30001124922BC37021E030E002C0220F331F38
:100D4000CA95E2F7822B932BEC01DC6824CF9C013F
:100D50002370332781E090E002C0880F991F2A9505
:100D6000E2F7C695C69520E2C29FE0011124C82B88
:100D7000D92BEBCFDC2FCC27C46FD06A0CCFDC2F64
:100D8000CC27C06FD06A07CF8F700E940E0534E069
:100D9000D695C7953A95E1F7CF709C2FEC01D069B5
:100DA000FACEC9E3D0E0F7CEC2EED0E0F4CEC6EE84
:100DB000D0E0F1CE80E00895F894E82FE295EF704E
:100DC000F0E041A18F7021E030E0B90102C0660F70
:100DD000771F8A95E2F7CB01962F9095942391A3E4
:100DE00092A1892B82A37894089508958091790225
:100DF00080FD14C081FD14C082FD16C080917B026D
:100E0000882381F0843180F422E3829FC001112481
:100E100064E170E00E948E28862F08958CE008958A
:100E200089E1089585E0089582E30895809179022B
:100E300080FD16C081FD16C082FD16C080917A0229
:100E40008823A1F0883280F428E0829FC001112419
:100E500068E270E00E948E28862F672B39F0089593
:100E600082E0089584E0089588E0089581E008957F
:100E7000E0E1E80FE031E0F5F0E0EA59F64D0C94DE
:100E8000C4280E94F606819580937F0208950E94EF
:100E9000F606FACF0E94F606819580937E020895A9
:100EA0000E94F606FACF0E941607809380020895EA
:100EB0000E9416078195F9CF0E94160781958093AD
:100EC000810208950E941607FACF845F990B21E0F2
:100ED00030E001C0220F8A95EAF780917D02822BD3
:100EE00080937D02089580917902816080937902D8
:100EF0000895809179028260F9CF809179028460AF
:100F0000F5CF40917E02803F59F480917F0287FFA8
:100F10000DC010927F0241110BC010927B0208C0DD
:100F2000813F81F480917F0218169CF3442381F065
:100F30008091800290918102892B09F05AC0109211
:100F40007A020895823F49F447FFF0CF10927E0263
:100F500080917F028111ECCFE0CF833F19F414160A
:100F6000ACF3E4CF90918002893F29F41916F4F68E
:100F700010928002DBCF8A3F19F497FFD7CFF8CFCA
:100F8000909181028B3F29F497FFD0CF109281027C
:100F9000CDCF8C3F19F41916CCF3C8CF9CE0980F35
:100FA000953090F4845F990B21E030E0B90102C0E4
:100FB000660F771F8A95E2F7CB01809590917D02AD
:100FC000892380937D02B2CF8D3F31F480917902E5
:100FD0008E7F80937902AACF8E3F21F4809179028F
:100FE0008D7FF7CF8F3F09F0A1CF809179028B7F62
:100FF000F0CF08956F927F928F929F92AF92BF929F
:10100000CF92DF92EF92FF920F931F93CF93DF93D4
:10101000B82EA62E8901E42FF0E0E252FA4F6111BA
:1010200019C0E4918E2F2E2FD80111962C93119771
:10103000EC9312968C93DF91CF911F910F91FF90BB
:10104000EF90DF90CF90BF90AF909F908F907F9068
:101050006F900895E62EF12C249186E0B89E6001F1
:101060001124CFEFD0E0C601BE010E947A288B2D5B
:1010700090E0880F991F35E5369FA001379F500DEE
:101080001124841B950B982F990F980FAE014E19C0
:101090005F09249FD001259FB00D1124EB2FA99E3D
:1010A00050011124AB2CBB24AE014A195B09249FCB
:1010B0005001259FB00C11248B2D3E01691A710837
:1010C0006E9C40016F9C900C7E9C900C1124892C8E
:1010D0009924C819D9092C9FA0012D9F500D1124C6
:1010E00063307105D1F09CEFC91693E0D90670F416
:1010F00061307105B1F062307105B9F0FFEFCF16C4
:10110000D10408F091CF8B2FE52F8ECF643071057D
:1011100079F066307105B9F387CFEB2D822F2B2F35
:1011200083CFE22F2B2D8B2F7FCF852FE22FF7CF71
:10113000822F252F79CF80918702982F9E7F61F48F
:10114000817082608093870280918A02813F18F0CB
:1011500080EF80938A0208958A34B0F381708864A6
:10116000F1CFFA0181110994FB01FDCFEF92FF92BB
:101170000F931F93CF93DF93CDB7DEB728970FB6AA
:10118000F894DEBF0FBECDBF8430E8F581113CC0BE
:10119000909180009F77909380002D98A091860079
:1011A000B0918700282F30E00E94D92869837A8384
:1011B0008B839C8323E030E040E050E00E94A22833
:1011C00089019A0180918600909187006CE070E01F
:1011D0000E947A2860177107E8F0C80169E070E0A2
:1011E0000E947A28709389006093880028960FB631
:1011F000F894DEBF0FBECDBFDF91CF911F910F914D
:10120000FF90EF90089583E0909180009068909314
:101210008000C4CF8091860090918700E090860086
:10122000F0908700E0918600F091870066E070E022
:101230000E947A28060F171F211D311DD901C801F0
:1012400025E0880F991FAA1FBB1F2A95D1F7898314
:101250009A83AB83BC83C70166E070E00E947A2862
:101260009F0150E040E0260F371F411D511D69814D
:101270007A818B819C810E94A22829833A834B83A7
:101280005C83E0918600F0918700CA01B9010E9459
:101290006A28DF019B01AC010E94EF286D837E83E9
:1012A0008F8398879B01AC0169817A818B819C81B6
:1012B0000E946A2869837A838B839C83DC01CB013B
:1012C0003FE0B695A795979587953A95D1F74091C8
:1012D00086005091870070E060E0481759076A0760
:1012E0007B0720F48091860090918700BC017ACF23
:1012F000282F220F220F220F909182029770922B9B
:1013000090938202987F21E009F420E0909182027C
:1013100020FB90F9909382020C94B608E091580259
:10132000F0915902309721F00190F081E02D09945D
:1013300080E008952091EC013091ED0128173907E4
:1013400071F09093ED018093EC01E0915802F091DF
:101350005902309721F00680F781E02D0994089515
:101360002091EA013091EB012817390771F0909331
:10137000EB018093EA01E0915802F0915902309715
:1013800021F00084F185E02D099408959C0180915D
:101390001A018823C1F08091910287FF14C0862F23
:1013A000869586958695603FF8F4F901E80FF11D62
:1013B000677021E030E001C0220F6A95EAF7828170
:1013C000822B82830895F90132968FEF90E041914C
:1013D000641751F08F3F19F4411101C0892F9F5FAD
:1013E0009630A9F78F3F09F40895280F311D87FD26
:1013F0003A95F901628308952FB7F89480913C02E1
:1014000090913D02A0913E02B0913F022FBF0895FE
:101410000E94FC0920917E0230917F02232B21F053
:1014200080932E0290932F022091800230918102AE
:10143000232B21F080932C0290932D02E0915802EF
:10144000F0915902309749F082E080937C02048049
:10145000F581E02D8CE792E009940895CF93C82F91
:10146000882309F46BC08CEF8C0F813AA8F580912A
:101470001A01882301F18091910287FF1CC0EC2F93
:10148000E695E695E695F0E0E856FE4F828190E01D
:101490004C2F477021E030E002C0220F331F4A95E5
:1014A000E2F782239323892B79F08C2F0E947D040D
:1014B0000E94B80409C0EAE9F1E08191C817A9F3D4
:1014C00021E0E03AF207C9F76C2F88E991E00E9429
:1014D000C609CF910C94B80480E28C0F883068F470
:1014E000C77021E030E001C0220FCA95EAF7809171
:1014F0008C02822B80938C02ECCF8BE58C0F833097
:1015000038F42C2F2452330BC901CF910C949A0933
:10151000E8E5EC0FE73150F4F0E0EE0FFF1FE8597B
:10152000FE4F80819181CF910C94B009C03F30F083
:101530008C2F0E943807CF910C94080ACF91089500
:10154000882361F19CEF980F913A20F40E947D046A
:101550000C94B80490E2980F983050F4877091E0A2
:1015600001C0990F8A95EAF7892F0E94AA04F0CF4B
:101570009BE5980F933020F490E080E00C949A095A
:1015800098E5980F973120F490E080E00C94B00932
:10159000803F20F00E9481070C94080A089590E093
:1015A00080E00E949A0990E080E00E94B0091092C9
:1015B0009302109278020E94B80486E0ECE7F2E011
:1015C000DF011D928A95E9F710927B0210927A0250
:1015D000109279020C94080A80938E020C94CF0A20
:1015E00080938F020C94CF0A21E030E001C0220FDB
:1015F0008A95EAF780918F02822B0C94F00A21E001
:1016000030E001C0220F8A95EAF7209580918F0281
:1016100082230C94F00A9091900280958923809304
:101620009002282F277091F4282F082E000C330BDE
:101630009217130659F09091920292FD07C085957A
:10164000859585950E94FF0A1092900208959C014D
:101650004FB7F89480913C0290913D02A0913E02D8
:10166000B0913F024FBF821B930B08958091E90117
:1016700008950895FC01CB012091C4013091C5016A
:101680002617370790F0009729F42091E8002E776D
:101690002093E80040E0009751F4411108C0809188
:1016A000E80082FF31C080E00895C901F3CF2091A6
:1016B00040022223A9F12530A9F12091E80023FD61
:1016C0002DC02091E80022FDEACF2091E80020FF04
:1016D000E2CF3091F3002091F200009719F028300A
:1016E000310558F041E02830310509F040E0209103
:1016F000E8002E772093E800CECF41914093F1008F
:1017000001972F5F3F4FE9CF80914002882341F03E
:10171000853041F08091E80083FFC1CF81E00895DA
:1017200082E0089583E008958091BE0187FF13C091
:101730008091E80082FF06C08091E8008B7780935B
:10174000E80004C0809140028111F2CF0895809199
:1017500040028823D9F38091E80080FFF8CF809180
:10176000E8008E77ECCF2091E4003091E50095E61B
:10177000A9012091EC00822F817020FF06C080918A
:10178000E80080FF06C080E008952091E80022FD77
:101790001AC080914002882389F0853089F08091B9
:1017A000EB0085FD0FC02091E4003091E500421769
:1017B0005307F9F29150E1F684E0089582E008952C
:1017C00083E0089581E00895E8EDF0E080818E7F68
:1017D00080831092E2001092DA001092E100A0EEF5
:1017E000B0E08C9181608C9380818F77808319BC6D
:1017F000A7EDB0E08C918E7F8C9380818F7E80836B
:101800001092BD010895EF92FF920F931F93CF9313
:101810007C018B010E94B30BC82F811117C08091EE
:10182000E80085FD0BC08091E8008E778093E8008A
:101830000E94B30B882399F3C82F08C0F701819148
:101840007F018093F1000150110949F78C2FCF914E
:101850001F910F91FF90EF90089580918F02982F24
:101860009670963019F488600C94F00A877FFCCF4C
:10187000982F9093E900242F762F50E0891731F0AC
:101880007091EC002091ED005091F00021FD06C018
:101890009F5F973071F78093E90008953091EB00D6
:1018A0003E7F3093EB003091ED003D7F3093ED00B3
:1018B0003091EB0031603093EB007093EC0020939B
:1018C000ED005093F0002091EE0027FDE1CF089548
:1018D000CF92DF92EF92FF920F931F93CF93DF93FC
:1018E000C8EDD0E088818F7E8883E7EDF0E08081CD
:1018F0008160808384E082BF81E08093BD01888124
:101900008E7F888302EE10E0F80110821092DA00D8
:1019100081EEC82ED12CF601108288818F778883C2
:1019200088818068888388818F7D888319BC109224
:1019300040021092BC01109225021092BB0190EE61
:10194000E92EF12CF70180818B7F80838881816073
:10195000888342E060E080E00E94380CF6018081DC
:101960008E7F8083F80180818160808380818860A0
:101970008083F70180818E7F808388818061888366
:10198000DF91CF911F910F91FF90EF90DF90CF905B
:1019900008950F931F93CF93C82F10E000E0893371
:1019A00011F400E510E08C2F0E942E0A011511059C
:1019B00031F48C2FCF911F910F910C94A00A8FE9D5
:1019C0009FE00197F1F700C0000001501109EECF30
:1019D000FF920F931F93CF93DF93C62FD42F122F15
:1019E0008823A9F0609383020E94FC099093B901B7
:1019F0008093B801C77081E001C0880FCA95EAF7EB
:101A0000DF91CF911F910F91FF900C94FD04809175
:101A10008302681334C08091B8019091B9010E948B
:101A2000270B883C910558F500E20D0FCD17A9F062
:101A3000C770FF24F3948F2D01C0880FCA95EAF771
:101A40000E940705083048F48D2F877001C0FF0CF5
:101A50008A95EAF78F2D0E94FD04812F0E94C90C00
:101A60000830A0F4D77081E001C0880FDA95EAF75A
:101A7000DF91CF911F910F91FF900C940705C770D4
:101A800081E001C0880FCA95EAF7F2CFDF91CF91CC
:101A90001F910F91FF9008958091870280FD0AC0E9
:101AA000E1EFF1E0118210821282339652E0E132CE
:101AB000F507C1F76A9A3EB13B7F2EB124604FB75C
:101AC000F89481EF91E0FC010196508168E02EB915
:101AD000000000C057FF3EB9550F000000C000C015
:101AE00000C03EB900C06A9591F752E08132950777
:101AF00051F74FBF8FE594E00197F1F700C0000068
:101B00000895EF92FF920F931F93CF93DF93EC0111
:101B100001EF11E0F12CE12C9C8160918902809110
:101B2000880228E0E216F10414F5992311F140919E
:101B30008A02413F08F040EF98010E94FA078FEFB8
:101B4000E81AF80A0D5F1F4F20E1E216F10421F7B1
:101B50000E944C0D8C8190E00196817099278C83B6
:101B6000DF91CF911F910F91FF90EF9008959923EE
:101B7000F1F2980140E0E1CFEF92FF921F93CF93F3
:101B8000DF93EC0181EFE82E81E0F82E10E0409128
:101B90008A02413F08F040EF8C81970160918902F1
:101BA000810F0E94FA07115F83E0E80EF11C103FDD
:101BB00071F70E944C0D9A818C8190FF08C08F5F55
:101BC0008C83DF91CF911F91FF90EF90089581500A
:101BD000F7CFCF92DF92EF92FF920F931F93CF93A5
:101BE000DF93FC018281DD24DA9480FD02C0DD24D4
:101BF000D394C1EFD1E010E000E0198218821A827C
:101C000094E0E92EF12CC12C8091F0018C0D8131F2
:101C1000E4F18F70082E000C990B80179107A9F43E
:101C200080918A028E9DA0018F9D500D11245595A3
:101C3000479555954795413F08F040EF9E016091CB
:101C40008902809188020E94FA07CD0CF1E0EF1A18
:101C5000F108D1F60F5F1F4F23960031110569F689
:101C60000E944C0D8091F00191E0D91212C088239E
:101C700099F081508093F001DF91CF911F910F91E6
:101C8000FF90EF90DF90CF90089587FFC3CF805FE4
:101C9000C1CF8F5F8F70EECF8FE0ECCF0F931F938C
:101CA000CF93DF93C1EFD1E0FE0111821082128247
:101CB000339682E0E132F807C1F710E000E080914E
:101CC000EF01082E000C990B08171907A4F1809159
:101CD0000201082E000C990B8017910764F14091C6
:101CE0008A02413F08F040EF9E0160918902809195
:101CF00088020E94FA070F5F1F4F239600311105DB
:101D0000F1F60E944C0D809101019091EF01980F26
:101D10009093EF0120910201280F209302011216E7
:101D200014F49F301CF0819580930101DF91CF91D5
:101D30001F910F910895198218821A82DCCFCF92D9
:101D4000DF92EF92FF920F931F93CF93DF93CDB764
:101D5000DEB72E970FB6F894DEBF0FBECDBF8D87CE
:101D60009E87AD85BE8514961C91212F30E0D90148
:101D70000E94D9289B01AC010E94EF2869837A83D5
:101D80008B839C83E0E2F0E0E11BF109A5E5B0E084
:101D90009B01AC010E94EF2869877A878B879C871B
:101DA0009F01DF010E94D1289B01AC010E94FA280B
:101DB0006D837E838F8398879B01AC0189819A8193
:101DC000AB81BC81280F391F4A1F5B1F69857A854B
:101DD0008B859C850E94A228F22E422F50E099E22A
:101DE0009F1508F445C0A3E02A9F90011124359562
:101DF0002795122F109591EFC92E91E0D92E00E072
:101E000085E5E82EEF188E2D01FD8F2D412F113F16
:101E100008F040EF9601609189020E94FA070F5F77
:101E2000B3E0CB0ED11C003171F70E944C0DED8553
:101E3000FE85948181E0992319F0903219F48FEF97
:101E40008093000180910001890FAD85BE851496B5
:101E50008C932E960FB6F894DEBF0FBECDBFDF91E8
:101E6000CF911F910F91FF90EF90DF90CF90089549
:101E700085E590E0841B950B9C01220F331F280FF2
:101E8000391F37FFB4CF2F5F3F4FB1CF90918702FB
:101E900090FF0CC0E1EFF1E08183608342833396D1
:101EA00092E0E132F907C1F70C944C0D08950F93BD
:101EB0001F93CF93DF9300D00F92CDB7DEB78C0185
:101EC0008091EE0181110AC09E012F5F3F4F40EFCC
:101ED0006FEF0E94FA078A818093EE01F801648116
:101EE000613049F06230F1F08091EE0140E066230C
:101EF00031F040E019C06091EE0140E080E00E94C6
:101F0000460FF801848190E0019663E070E00E9442
:101F10008E2884830F900F900F90DF91CF911F91A7
:101F20000F9108954091EE0180E060E0E8CFCF93FB
:101F3000DF9300D00F92CDB7DEB79091870290FF6C
:101F400012C0413F08F040EF9E012F5F3F4F0E94BB
:101F5000FA074B8169818A810F900F900F90DF9172
:101F6000CF910C94460F0F900F900F90DF91CF916F
:101F70000895CF93DF93EC01EC81F0E0E752FB4F43
:101F80004491E7E8F2E0628181810E94970F8C81A1
:101F90008F5F8C83DF91CF910895CF93DF93EC0116
:101FA000E7E8F2E0438162818C810E94970F8C8187
:101FB0008F5F8C83DF91CF91089581E08093E00063
:101FC00080E28093D8001092C9008FE19EE40197CF
:101FD000F1F700C0000087E090EBDC018093CC02B9
:101FE0009093CD02A093CE02B093CF0288E19CE003
:101FF0000FB6F894A895809360000FBE9093600090
:10200000FFCFCF93DF93D82FC92F80911A01882358
:10201000C1F18091910287FF34C060E284E0809337
:10202000E9008FEF9091E800815095FD06C095ED95
:102030009A95F1F700008111F5CF8091E80085FFB6
:102040001DC080911A0170E050E040E0811104C091
:1020500050E040E068E070E08D2F9C2F0E94030C60
:102060008091E8008E778093E80080E2ED2FFC2FCE
:10207000A9ECB1E001900D928A95E1F7DF91CF9143
:10208000089568E081E0CBCF24E02093E9002FEFB2
:102090003091E800215035FD06C035ED3A95F1F755
:1020A00000002111F5CF2091E80025FF0BC050E082
:1020B00040E066E070E00E94030C8091E8008E77BB
:1020C0008093E80008958093C6017093C8016093DF
:1020D000C701809140028430F9F48093E9008FEFCA
:1020E0009091E800815095FD06C095ED9A95F1F725
:1020F00000008111F5CF8091E80085FF0DC050E010
:1021000040E063E070E086EC91E00E94030C809177
:10211000E8008E778093E8000895BC0183E00C947A
:102120006310BC0184E00C946310CF93C0919202C1
:10213000C2FB992790F9981799F080FBC2F9C093D8
:1021400092026091910284E090E00E9416296C2F27
:1021500082E290E00E94162982E0CF910C940B0B52
:10216000CF9108954F925F926F927F928F929F923C
:10217000AF92BF92CF92DF92EF92FF920F931F9395
:10218000CF93DF93D0E0C0E030EAA32EB12C8E01D4
:10219000000F111F3E011DC0F60185909490692D1E
:1021A000C7010E941629682DC70101960E941629B1
:1021B00022E0C20ED11C32E0E30EF11C4E145F048B
:1021C00059F7005E1F4F80E1680E711CA016B10622
:1021D00081F0C301880F991F9C01275A3D4F690167
:1021E000780137E2E30EF11C280187E4480E511C08
:1021F000D3CF20EAA20EB11CC05BDF4FC03431E068
:10220000D30729F6DF91CF911F910F91FF90EF90A7
:10221000DF90CF90BF90AF909F908F907F906F9006
:102220005F904F900895682F86E090E00C941629F7
:10223000CF93C82F6FEF811162E283E290E00E949A
:1022400016296FEFC11163E084E290E00E94162925
:102250006FEFC11169E085E290E0CF910C941629EF
:10226000CF93DF93C7EAD2E060E0CE010E94162947
:102270002196C11584E0D807B9F7DF91CF91089571
:1022800080E00E94181160E086E290E00E9416292A
:102290000E94B2100E94301181E00C941811CF936B
:1022A00084E090E00E940229C82F82E290E00E9420
:1022B0000229982F8C2FCF91089583E290E00E94FD
:1022C0000229823289F484E290E00E94022983305C
:1022D00059F485E290E00E94022991E0893009F0EA
:1022E00090E0892F8170089580E0FCCF0F931F93B9
:1022F000CF93DF9320E2629FE001112450E0440F6E
:10230000551FC40FD51F30EA839FC00DD11D112466
:10231000CE0187960E940229082F10E0102F002777
:10232000CE0188960E9402299801282BC901DF91CD
:10233000CF911F910F910895462F672F843030F46D
:10234000753020F4403110F40C94761190E080E068
:102350000895DF92EF92FF920F931F93CF93DF9335
:102360007C0100918F0280918E02082BC7E0D0E0A3
:1023700010E0DC2EC8010C2E02C0959587950A94BA
:10238000E2F780FD0CC02197A0F7D12C8D2DDF91B5
:10239000CF911F910F91FF90EF90DF900895B701BB
:1023A0008C2F0E949C110E945105019761F3EECF82
:1023B0000F931F93CF93FC018281008111818823A9
:1023C00089F0662379F0C8010E94A911C82F682FEF
:1023D000C8010E941F04B8018C2FCF911F910F914B
:1023E0000C949C11C8010E944B04C82FF4CFCF93CA
:1023F000DF93D82FC92F0E94A9116D2F7C2F0E9427
:102400009C11DF91CF910C9451050E94F711282F58
:10241000892F8F70392F32953F70903C80F43A307D
:10242000B0F4343020F4323090F480E00895363047
:10243000E1F781E0283E88F0213FB9F70EC03C303B
:1024400011F03F3091F7869586958695089581E045
:10245000203F39F018F4283E40F70895243F29F72B
:10246000FCCF089510928C0280911A01EAE9F1E004
:10247000882359F08091910287FF07C08EE1DF0128
:102480001D928A95E9F70C94CF0A86E0F8CF1F9346
:10249000CF93DF93CDB7DEB7AA970FB6F894DEBF20
:1024A0000FBECDBF8EEB91E0FC0101962091F100B3
:1024B000208321E0863C9207B9F78091BF018930E3
:1024C00009F456C0C8F4823009F4B3C0833009F46B
:1024D00082C0813071F18091E80083FF84C28091D5
:1024E000BE019091BF019A3008F07DC2E92FF0E063
:1024F000EA58F64D0C94C4288A3009F489C08B3010
:1025000051F78091BE01813231F78091C2019091E3
:10251000C301892B01F78091E800877F8093E80051
:102520000E94940B8091C00180931A010E94321284
:10253000D2CF8091BE01813A71F68091E800877F09
:102540008093E8008091C2019091C301892B61F4CE
:1025500060E289EC91E070E00E943A0B8091E80023
:102560008B778093E800B7CF60E090E080E0F3CF16
:102570008091BE01813209F0AECF8091C20190916D
:10258000C3018D7F892B09F0A6CF8091E800877F5A
:102590008093E8008091E80082FF18C09091F300DA
:1025A0008091F200029731F48091F100813011F0B6
:1025B000863021F48091F1008093E9018091E80058
:1025C0008B778093E8000E94940B85CF8091400226
:1025D0008111E0CF80CF8091BE01813A09F07BCF9D
:1025E0008091C2019091C301892B09F074CF809131
:1025F000E800877F8093E8008091E80080FFFCCFAF
:1026000080911A018093F1008091E8008E77D9CFF4
:102610008091BE01813209F05ECF8091E800877F12
:102620008093E8000E94940B8091C1018093BA01CD
:1026300052CF8091BE01813A09F04DCF8091E800E0
:10264000877F8093E8008091E80080FFFCCF809135
:10265000BA01D8CF803899F0823809F0C4C180918E
:10266000C2018F70873008F0BEC18093E90080916D
:10267000EB0085FB882780F91092E90006C0809165
:10268000BB0190912502911182609091E800977FA3
:102690009093E8008093F1001092F1008091E8009F
:1026A0008E779DC1882309F48BC1823009F09BC1CC
:1026B0008091C00181118EC18091C2018F702FEF76
:1026C000280F263008F08FC18093E9002091EB009D
:1026D00020FF80C1933031F48091EB0080628093C1
:1026E000EB0078C19091EB0090619093EB0021E0BA
:1026F00030E001C0220F8A95EAF72093EA00109299
:10270000EA008091EB008860EACF81116CC11091E2
:10271000C0011F778091E3008078812B8093E300D4
:102720008091E800877F8093E8000E94940B80915D
:10273000E80080FFFCCF8091E30080688093E30095
:1027400082E0111183E0809340024DC180588230B5
:1027500008F049C14091C0015091C1014C3D83E056
:10276000580799F583E08A838AE289834FB7F89402
:10277000DE01139620E03EE051E2E32FF0E05093BB
:102780005700849120FF03C082958F703F5F8F7048
:102790008A30C8F0895C90E08D939D932F5F24313F
:1027A00061F74FBF8091E800877F8093E8006AE27D
:1027B00070E0CE0101960E943A0B8091E8008B7781
:1027C0008093E80010C1805DE6CF8091C2019091B6
:1027D000C301252F33272330310509F44AC078F58A
:1027E0002130310509F479C08BE590E0E4ECF1E0AB
:1027F0002230310509F0F7C02091E800277F2093AF
:10280000E8002091C4013091C5018217930708F4B4
:102810009C0140E02115310509F064C0411162C0FE
:102820008091E80082FDC9CF80914002882329F27F
:10283000853019F28091E80083FFF2CFBECF2132BC
:10284000310509F43BC02232310509F0CCC0833098
:10285000910508F0C8C0FC01EE0FFF1FEE5DFE4FB2
:102860000190F081E02D815E9E4FDC018C9190E023
:1028700011C0CA019927413089F082309105B1F029
:10288000892B09F0B0C0E5E5F2E0E4918E2F90E0ED
:10289000E5E5F2E0009709F4A6C0AECFE3E4F2E08C
:1028A000E4918E2F90E0E3E4F2E0F4CFE1E3F2E094
:1028B000E4918E2F90E0E1E3F2E0ECCF83309105DC
:1028C00008F091C0880F991FFC01E85DFE4F019050
:1028D000F081E02D89E090E08FCF82E190E0EFE1A0
:1028E000F2E08ACF80914002882309F466CF8530D8
:1028F00009F463CF8091E80083FD5FCF8091E80009
:1029000082FD8ECF8091E80080FF84CF9091F3000C
:102910008091F2002115310519F08830910550F0B1
:1029200041E0089709F040E08091E8008E778093BD
:10293000E80070CF44914093F10031962150310965
:102940000196E8CF803809F04EC08091E800877F7B
:102950008093E8008091BC018093F1009FCE8111AB
:1029600042C01091C0011230F0F58091E800877FDD
:102970008093E8001093BC010E94940B112311F086
:1029800084E005C08091E30087FDFACF81E0809369
:10299000400242E061EC81E00E94380C42E261ECCE
:1029A00084E00E94380C42E261EC82E00E94380C24
:1029B00042E260EC83E00E94380C8091400213C038
:1029C0008091C001813079F481E0933009F080E09A
:1029D000809325021092E9008091E800877F809320
:1029E000E8000E94940B8091E80083FF0AC0809168
:1029F000E800877F8093E8008091EB0080628093FD
:102A0000EB00AA960FB6F894DEBF0FBECDBFDF91E4
:102A1000CF911F9108950F931F93CF93DF938B0155
:102A2000D82FC92F0E949B08A8016D2F7C2F88E00A
:102A300090E0DF91CF911F910F910C942829E7E846
:102A4000F2E083E0808311828FEF828380EF8383C3
:102A5000148263E070E08FEF90EF0C940B15CF932E
:102A6000DF9300D000D0CDB7DEB780918B028330EA
:102A700018F48F5F80938B02809187029091880277
:102A8000A0918902B0918A0289839A83AB83BC8327
:102A9000BC01CD010F900F900F900F90DF91CF915F
:102AA0000C940B15CF93DF9300D000D0CDB7DEB7D9
:102AB00080918B02882319F0815080938B02809142
:102AC000870290918802A0918902B0918A0289833D
:102AD0009A83AB83BC83BC01CD010F900F900F9004
:102AE0000F90DF91CF910C940B157F928F929F9254
:102AF000AF92BF92CF92DF92EF92FF920F931F930C
:102B0000CF93DF9300D000D000D00F92CDB7DEB7C7
:102B1000082FF62E142FE22E9091870290FF88C086
:102B2000E92FE695AE2FB0E0A25DBE4F8C91809369
:102B300085029E7F9230D9F5413F08F040EF9E011B
:102B40002F5F3F4F6F2D802F0E94FA074B816981C5
:102B50008A810E94460F00938802F09289021093A6
:102B60008A02EE2009F464C0809187029091880265
:102B7000A0918902B0918A028C839D83AE83BF832A
:102B8000BC01CD0127960FB6F894DEBF0FBECDBFB6
:102B9000DF91CF911F910F91FF90EF90DF90CF9039
:102BA000BF90AF909F908F907F900C940B158230C8
:102BB00019F410918A02CFCF863019F4009188025F
:102BC000CACF8930D9F3893131F6E9512E2F2170DE
:102BD000722EE695F0E0E752FA4F85909490992492
:102BE00031EFC32E31E0D32EB12CA12CC50124E04E
:102BF000969587952A95E1F7711016C0800F412FA1
:102C0000113F08F040EF96016F2D0E94FA07A80CC3
:102C1000B91CB3E0CB0ED11C21E2C21622E0D206D1
:102C200029F70E944C0D97CFA02FA81B8A2FE7CF22
:102C300027960FB6F894DEBF0FBECDBFDF91CF91C0
:102C40001F910F91FF90EF90DF90CF90BF90AF90CA
:102C50009F908F907F900895E7E8F2E0818121E0D6
:102C600043816281885F0C947515E7E8F2E0818109
:102C700021E04381628188500C947515E7E8F2E009
:102C8000628128E0620F08F46FEF21E043818181C7
:102C90000C947515E7E8F2E0628128E0621B08F405
:102CA00060E021E0438181810C947515E7E8F2E052
:102CB000438128E0420F08F44FEF21E062818181D7
:102CC0000C947515E7E8F2E0438128E0421B08F414
:102CD00040E021E0628181810C94751569EE7EEF00
:102CE00090E080E00E94342960E082E090E00E9461
:102CF000162960E083E090E00E94162910928E026F
:102D000060E084E090E00E94162960E082E290E0BA
:102D10000E94162960E085E090E00E94162960E09C
:102D200086E090E00E9416296FEF87E090E00E9415
:102D3000162940E050E0BA0188E090E00E9428297E
:102D400060E08DE090E00E94162940E050E0BA017A
:102D500088E190E00E94282960E087E190E00E94ED
:102D6000162940E050E0BA018CE190E00E94282949
:102D700070E060E080E290E00E94342940E050E0A2
:102D8000BA0188E190E00E94282980E00E94181191
:102D90000E94401140E050E0BA018FE090E00E94B4
:102DA000282940E050E0BA0183E190E00C94282902
:102DB00090E080E00E941029893E9E4F11F40C940F
:102DC0005D1180E008950E94D81681110AC00E940A
:102DD0006E168091820284708961809382020E94C3
:102DE000131186E090E00E940229809382028032D3
:102DF00020F0877088618093820290918202892FEF
:102E0000817090FF04C0892F8695869586950C94D5
:102E1000B6084F925F926F927F928F929F92AF927D
:102E2000BF92CF92DF92EF92FF920F931F93CF93B7
:102E3000DF93CDB7DEB72A970FB6F894DEBF0FBE8B
:102E4000CDBFFE0131968AE0DF011D928A95E9F738
:102E500093E5E92E91E0F92E8F0128E5622E21E01D
:102E6000722E2F01AA24A394B12C48E6842E41E0AF
:102E7000942EF70181917F018F3F09F445C0F894AA
:102E8000E82FE295EF70F0E021A18F70A50102C05C
:102E9000440F551F8A95E2F7CA01922F982B91A3F0
:102EA00092A18095892382A3789400C0E8E5F1E09F
:102EB00021E030E0D12CC12C41914F3F09F45DC09D
:102EC000A42FA295AF70A05EB0E08C9190E04F70FF
:102ED00002C0959587954A95E2F780FD4EC0C901DD
:102EE000C82AD92A220F331F8E169F0629F7F70109
:102EF000319780818F3F11F00E94DC0650EA5A958D
:102F0000F1F7D801CD92DC920E5F1F4F6E147F0453
:102F100009F0AFCF4AE050E0B2018EE492E00E94A7
:102F200057299C0111E0892B09F410E0232B41F172
:102F30008AE0F201AEE4B2E001900D928A95E1F7E9
:102F400081E0809343020E94FC09909342028093A7
:102F5000410280914102909142020E94270B059705
:102F600098F08AE0EEE4F2E0A4E4B2E001900D9281
:102F70008A95E1F71092430207C080E090E0B0CF5D
:102F8000809143028111E5CF812F2A960FB6F894E4
:102F9000DEBF0FBECDBFDF91CF911F910F91FF908C
:102FA000EF90DF90CF90BF90AF909F908F907F90E9
:102FB0006F905F904F90089560918702669570E0E2
:102FC0004BE050E083E091E00E944A29892B19F4FC
:102FD00081E0809386020E94FC09909327028093EF
:102FE00026020895CF93DF9300D000D0CDB7DEB78F
:102FF0009091870290FF45C08823E1F18532E0F58A
:103000008F77880F909187029170892B8093870228
:10301000662381F08091870290918802A0918902B5
:10302000B0918A0289839A83AB83BC83BC01CD01B2
:103030000E940B1560918702669570E04BE050E0AE
:1030400083E091E00E944A29892BC1F01092860208
:1030500081E08093290220E040918A0260918902F8
:10306000809188020F900F900F900F90DF91CF9179
:103070000C94751581E0C5CF84E2C3CF0E94DC17A4
:10308000E7CF0F900F900F900F90DF91CF910895A1
:103090008091870286958F5F853208F081E061E03C
:1030A0000C94F2179091870296958FEF890F9130CB
:1030B00009F484E261E00C94F2179091870290FF8A
:1030C00007C09695981720F0961710F40C9448189E
:1030D00061E00C94F2173F924F925F926F927F9251
:1030E0008F929F92AF92BF92CF92DF92EF92FF9218
:1030F0000F931F93CF93DF93CDB7DEB728970FB60B
:10310000F894DEBF0FBECDBF7C01DC019C9111960F
:103110008C91119713962D913C91232B21F08923AB
:103120008F3F09F046C628960FB6F894DEBF0FBE53
:10313000CDBFDF91CF911F910F91FF90EF90DF9066
:10314000CF90BF90AF909F908F907F906F905F9047
:103150004F903F900895980122513F45203131050D
:1031600008F0D5C58FEF93E00E940229025147EA8B
:10317000842E42E0942E8823A1F1809190028770E2
:1031800091F2D70112968C91882369F28091920274
:1031900082FDC9CF82E028960FB6F894DEBF0FBE3D
:1031A000CDBFDF91CF911F910F91FF90EF90DF90F6
:1031B000CF90BF90AF909F908F907F906F905F90D7
:1031C0004F903F900C940B0B8114B4E09B06A9F236
:1031D000C4010E940229811101C00150EFEF8E1A33
:1031E0009E0A0111F1CF80911B0190911C01A091C9
:1031F0001D01B0911E0189839A83AB83BC83442453
:1032000043943AE0332E84010F5F1F4FC4010E94A4
:10321000022989831A82882309F4AFCF9FEF980F80
:10322000933010F58A834982F2E08F0E911CC80119
:103230000E9402298B83882309F49FCF8E010F5FA0
:103240001F4FD8012C912223F1F211969C911197D6
:10325000213009F045C012968C91913039F40E5FFF
:103260001F4F0E94C90C08C04801E8CF923039F4C2
:103270000E5F1F4F0E942E0A0F5F1F4FE2CF933049
:1032800029F40E5F1F4F0E94A00AF6CF943019F068
:103290000F5F1F4FF1CF0E5F1F4F20E030E0B801EE
:1032A0006F5F7F4FF80141818053990B8A30910500
:1032B00060F02115310501F38FE99FE00197F1F7E7
:1032C00000C0000021503109F4CF329EF001339E3E
:1032D000F00D11249C012E0F3F1F842F8B01DFCF97
:1032E000E22FF0E0E05EF84F5490822F86958695AD
:1032F000869590E0FC01E05FF84FE4912770F0E0E4
:10330000022E02C0F595E7950A94E2F73F01A1E08D
:103310006A227724FC01E050F94FA490B12C022ED0
:1033200002C0B594A7940A94E2F7B1E0AB22BB24A3
:10333000FC01E051F94FC490D12C02C0D594C79440
:103340002A95E2F7E1E0CE22DD246114710419F040
:1033500081EE0E942E0AA114B10419F086EE0E949B
:103360002E0A852D0E94C90CAB2819F086EE0E940A
:10337000A00A672819F081EE0E94A00ACD2809F45E
:103380007BCF8CE26ECF81E00E94F40A0E942D0C6C
:10339000F4CE81E00E94FF0AF9CF82E0F5CF0F3B27
:1033A000BCE51B0709F46FC0003CECE51E0709F4FF
:1033B0008DC0033FFCE51F0709F4B6C008F09AC0B2
:1033C000083D3CE5130709F4ABC028E241E0093DA4
:1033D0009CE5190709F4A6C026E241EE61EE073D1F
:1033E000ACE51A0709F499C08111B1C406312CE586
:1033F000120709F07EC190918C02882309F46FC1F5
:10340000892F8A7A91E009F490E09093840269E22E
:10341000811165E388E991E00E94C6090E94B80421
:10342000ACCE83E00E947809809182020E94131141
:10343000A4CE80E0F7CF80918202982F987F09F484
:103440003FC0885080938202887F91E009F490E029
:103450008091820290FB80F913C080918202982FA4
:10346000969596959695883140F49F5F990F990FA0
:10347000990F8770892B80938202809182028160EC
:10348000809382021BC08091820280FF09C08E7FE0
:10349000809382020E94131180E00E94B6086DCED4
:1034A0008091820280FD69CE8160809382028130AA
:1034B00019F489E080938202809182020E941311A4
:1034C00080918202869586958695E7CF90918202BB
:1034D000892F8695869586958F5F8F71977084303A
:1034E00020F4880F880F880F982B90938202809188
:1034F0008202AACF053FBCE51B07D1F027E245EECB
:1035000066EE063FECE51E0741F027E245EE64EE6D
:10351000043FFCE51F0709F067CF0E94E80C2DCEA1
:1035200027E245EE65EEF9CF26E241EE60EEF5CFFB
:1035300026E241EE62EEF1CF01368DE5180709F47F
:1035400018C480918C028272063D3CE5130708F096
:103550001BC1023C9CE5190708F422C1F801E35C99
:10356000FC45E331F10508F027C1E058F64D0C9415
:10357000C428F801E350FC45809191028160E33159
:10358000F10528F5ED56F64D0C94C4280330BDE541
:103590001B0778F40A3FECE51E0708F4FAC3F801AC
:1035A000EB5FFC45E830F105E8F4EA55F64D0C9484
:1035B000C42801361D4509F0ECC390919102892F72
:1035C0008F7E94FF806103C080919102826080931E
:1035D0009102DFC3809191028460F9CF80919102C2
:1035E0008860F5CF80919202816080939202D1C36E
:1035F000809192028260F9CF809191028061E7CF41
:10360000809191028062E3CF809191028064DFCF4C
:103610000E943212809191028068D9CF80919102EC
:103620008C60D5CF809192028360DFCF8091910230
:103630008E7FCDCF809191028D7FC9CF80919102F5
:103640008B7FC5CF80919102877FC1CF80919202FD
:103650008E7FCBCF809192028D7FC7CF80919102D8
:103660008F7EB5CF809191028F7DB1CF80919102F5
:103670008F7BADCF0E943212809191028F77A7CFBE
:1036800080919102837FA3CF809192028C7FADCFF6
:103690008091910282FB992790F921E0922790FB7B
:1036A00082F990FB83F993CF80919202982F9095A5
:1036B00091708E7F892B90FB81F997CF0E943212F7
:1036C00090919102892F97FB87F9805880CF61E014
:1036D0008EE090E00E9416295CC360E0F9CF8091F3
:1036E0008402811104C089E20E947D0497CE85E3A3
:1036F000FBCF811126CFF7018281C080D180882342
:1037000009F4F9C0C6010E94A911182F682FC6013B
:103710000E941F04B601812F0E949C110E94510536
:103720008C01D70112969C90129715968C908294DA
:103730002FE08222809190028770C1F0C92C9920DD
:10374000B1F0812F807F803421F080E2800F8830BB
:1037500068F08091920282FD09C082E00E940B0B0A
:10376000809190028770CC24C3948111C12C812F49
:1037700082958F70A82EB12C8C3008F02CC1F501E9
:10378000E255F64D0C94C4280D35100709F4F5CC1C
:1037900081E00A35EDE51E0709F49BC008F08AC0F8
:1037A00001152CE5120709F497C00E3D1C4509F0E0
:1037B000A2CF0E946E16E1CC8091870280FF21C0CB
:1037C0008E7F809387028091870290918802A091DA
:1037D0008902B0918A028D839E83AF83B887BC0132
:1037E000CD010E940B15109286029FEFA0E7B2E078
:1037F0009150A040B040E1F700C000000E944C0D85
:10380000BCCC81608093870261E086950E94F217AC
:10381000B4CC42E558E168E478E10E94B108ADCC4F
:1038200048E458E162E578E1F8CF45E356E16CE21F
:1038300076E1F3CF4CE256E165E376E1EECF4AE480
:1038400056E16EE376E1E9CF4EE356E16AE476E1D4
:10385000E4CF42E656E166E576E1DFCF46E556E1A4
:1038600062E676E1DACF42E555E16FE275E1D5CF68
:103870004FE255E162E575E1D0CF61E081E0C6CF6E
:1038800065E082E00E945D1878CC68E086E0FACFBF
:103890006EE089E0F7CF64E18FE0F4CF67E185E186
:1038A000F1CF61E088E1B2CF62E289E1EBCF61E084
:1038B00083E2ACCF0B358DE51807D9F00C351D45EB
:1038C00009F019CF8091920282FB882780F991E05C
:1038D00089270E9495100FCF0E943212AFEFB4E3F8
:1038E000ECE0A150B040E040E1F700C000000E94D1
:1038F000DD0F80E0EECFC6010E944B04182F0ACFE7
:10390000B12FBF70DB2E107F19F0D29490EFD92227
:103910009920B9F0DD2069F080E2800F883010F046
:10392000011109C080918C028D2980938C020E9424
:10393000B804802F4EC0809193028D29809393020A
:10394000F6CF802F0E94A00ADD2009F444C080E257
:10395000800F883010F0011104C08D2D0E94AA0440
:1039600006C0D094809193028D21809393020E948F
:10397000B80431C0E12FEF70DE2E107F103219F045
:10398000D29480EFD822002399F0013009F48BC043
:10399000992009F495C0882009F48BC0D7011596A9
:1039A0008C91159780FFC5CF8F7015968C9381C031
:1039B0002091920222FF54C0992009F44AC0DD20D0
:1039C00039F080918C028D2980938C020E94B8047A
:1039D00080E00E942E0A38E0A31AB10884E0A816FD
:1039E000B10420F40E948E090E941904CC20B1F089
:1039F0008091900280FD12C0D70112961C9285958D
:103A0000859585950E94F40AC7010E946B188091E4
:103A100090028595859585950E94FF0A60E0C70113
:103A200028960FB6F894DEBF0FBECDBFDF91CF91C1
:103A30001F910F91FF90EF90DF90CF90BF90AF90CC
:103A40009F908F907F906F905F904F903F900C94DD
:103A5000D81180E00E94A00ADD2009F4BCCF7DCF00
:103A60009920A1F090918D028D2D892B811003C09A
:103A70000E94FD04B0CFF1E08F12FACF22FDABCF50
:103A8000981709F4A8CF80938D02A5CF811006C0A6
:103A90000E94B2048D2D0E9407059DCF21E0821661
:103AA00009F499CFF5CF992031F035E0381508F4B5
:103AB00092CF8D2DDDCF84E0881508F48CCFEACF2E
:103AC000882041F3093349F4BFEFE7EEF3E0B1504A
:103AD000E040F040E1F700C00000802F0E94A00A03
:103AE0007ACF812F86958695837061F0813009F0B9
:103AF00072CFC8019370911002C090E080E00E94E4
:103B0000B00969CFC8019370911002C090E080E0C5
:103B10000E949A0960CF802F992029F00E943807CF
:103B20000E94080A58CF0E948107FACF812F837024
:103B3000A1F5911050CF802F829586958770880FC0
:103B4000880F402F4F70082E01C0440F0A94EAF7E7
:103B5000202F207104FF07C02FE030E001C0220FAA
:103B60008A95EAF72095169516951370123081F014
:103B7000822F842B133031F080918E02113029F086
:103B8000242B82230E94EC0A26CF842B822BFACF8F
:103B9000242B80918E028227F5CF992061F110FFAE
:103BA0001ACF802F829586958770880F880F402FB7
:103BB0004F70082E01C0440F0A94EAF7202F20719D
:103BC00004FF07C02FE030E001C0220F8A95EAF71A
:103BD0002095169516951370123099F0822F842B2C
:103BE000133031F080918F02113041F0242B822369
:103BF0000E94F00AF0CE11FFEECED3CF842B822BA1
:103C0000F7CF242B80918F028227F2CF1F7099204B
:103C100029F0812F0E94F40A802F2ACF802F0E9442
:103C20000705812F0E94FF0AD6CE023F81F160F482
:103C3000003FB9F0013F81F0992009F458C081108C
:103C400078CE812F8F7127C0033F41F1043FA1F748
:103C50008091920282FF2DC0812F8F71992011F3E4
:103C60001AC0992079F024E0281508F4B4CE1F7109
:103C700081E090E001C0880F1A95EAF790918F02D9
:103C80008927B6CF35E0381508F4A5CEF0CF812FBF
:103C90008F719110C7CF0E94F40A9DCE80E09920C9
:103CA00009F4A6CF1F7181E001C0880F1A95EAF7C9
:103CB0009FCF992089F01F71812F0E94F40A809173
:103CC000920282FD07C0A8E01A9FC0011124836000
:103CD00080939002812FDFCF81E00E940B0BB1E037
:103CE000B81508F078CE82E00E940B0B74CE8820C5
:103CF00059F0093309F0F1CEEFEFF7EE23E0E15090
:103D0000F0402040E1F7E7CE812F8F718BCF00315B
:103D1000BFE51B0709F437CB0131EFE51E0709F4B6
:103D20003CCB0E3BFCE51F0709F497CB08F037CBE3
:103D30000C3B3CE5130709F47CCB0D3B9CE51907D4
:103D400009F479CB0B3BACE51A0709F46ACB109266
:103D5000830203302DE5120708F0EECB0A3F3CE565
:103D6000130738F4980122503C452431310508F0FE
:103D70003DCB0E944F1190939202809391020631A5
:103D80009CE5190708F002CC0230ACE51A0708F0F0
:103D9000F0CB609191021091920284E090E00E9439
:103DA0001629612F82E290E00E9416290E943212A9
:103DB000E4C961E0C7010E94D8118C01D7011296B5
:103DC0008C918111C8C90031FFE51F0709F4E1CAD0
:103DD00001312FE5120709F0ECCA82E0DBCA1F931C
:103DE000CF93DF938091CB02807FA9F48091C802AA
:103DF000882389F080919502C09194027091C60247
:103E00006091C702A091C902B091CA02D62FD723F0
:103E100016E0C81304C0DF91CF911F91089590E080
:103E2000109711F0DF3F19F401968770F2CF189FB9
:103E30009001199F300D1124F901EA56FD4F41817F
:103E40006413F2CF40814713EFCF42814111ECCF91
:103E5000438154814A1B5B0B483C510528F78091F4
:103E6000CB028F7080618093CB02F901E556FD4F44
:103E700080818F708061808386EC92E00E946B1855
:103E8000DF91CF911F910C9473048F929F92AF9208
:103E9000BF92DF92EF92FF920F931F93CF93DF9326
:103EA000CDB7DEB72B970FB6F894DEBF0FBECDBFF0
:103EB0008C0185E0F801DE01179601900D928A953C
:103EC000E1F7F801E280A380B48086EC882E82E0DE
:103ED000982E9091C6028091C7022091C90230911C
:103EE000CA022115310529F0482F49234F3F09F017
:103EF00028C1EE2009F433C1F801808191810E942C
:103F00000512F82E882309F42AC186E0F801A6ECF0
:103F1000B2E001900D928A95E1F70E94EF1E21C058
:103F2000D090CB024D2D407F283C310508F0A8C031
:103F3000F80121814111C3C0FE2C281325C08081C6
:103F4000891322C0E11020C08D2D8F708061809375
:103F5000CB0286EC92E00E946B188091CB02F801B4
:103F600085838F2D2B960FB6F894DEBF0FBECDBF85
:103F7000DF91CF911F910F91FF90EF90DF90BF9055
:103F8000AF909F908F9008953F81AB2829F0822FAA
:103F900083238F3F09F090C080E0F82FF170DF2E6F
:103FA000E09195024091940256E080FD1CC0EE2005
:103FB000C1F28091CB0281608093CB02F12CD1CFF2
:103FC0008E2F90E05E9FF0011124EA56FD4F618133
:103FD000261306C06081361303C06281E612E7CF64
:103FE0000196E82FE770E413EBCF8F8198850E944C
:103FF000F711292F22952F70903260F0225F2F70D9
:10400000223078F49F7051F0F8019581907F31F45F
:10401000D12C0AC09F7011F08823D1F3805E8830C4
:10402000B8F3C8010E946B18FD2C9BCFF80180816A
:1040300091810E940512882309F491C0EE2009F4B1
:104040008EC08091CB02803270F08091C602909138
:10405000C7029A8389831B82BD82AC82DE82CE0135
:1040600001960E946B1886E0F801A6ECB2E0019080
:104070000D928A95E1F70E94EF1EFF24F39471CF11
:10408000411132C086EC92E00E946B1886E0F40188
:1040900011928A95E9F792CFF801808191810E946F
:1040A00005128111E0CF8091CB0281608093CB0219
:1040B000C8010E946B1855CF81E08E256ECF281362
:1040C000B5CFF80180818913B1CFE110AFCFD58290
:1040D000C8010E946B1886E0F801A6ECB2E00190DE
:1040E0000D928A95E1F73DCFF801218182139ECF91
:1040F000F801808189139ACFE11098CFD582C80149
:104100000E946B1886E0F40111928A95E9F729CF95
:10411000F80121818213C0CFF80180818913BCCFBF
:104120008091CB0280FDD7CF982F907FA1F285831D
:10413000903F71F2982F907F905F8F70892B8583CD
:10414000C7CFF090C802A501421B530B9A01F11092
:10415000E7CE283C3105B0F6FE2CE110D9CFC801DE
:104160000E946B188ACF1F93CF93DF93CDB7DEB732
:1041700067970FB6F894DEBF0FBECDBF342F4B8BC1
:10418000252F5C8B962F6D8B7E8B8F8B4E895F8955
:104190006111109293021A8A3D872E879F87598B4F
:1041A000488B86E0FE013D96DE01179601900D9248
:1041B0008A95E1F7CE0107960E94451F882389F072
:1041C00016E08091950290919402891349C06796F8
:1041D0000FB6F894DEBF0FBECDBFDF91CF911F9118
:1041E000089586E0FE013796DE01119601900D924A
:1041F0008A95E1F79F8188852091940240919502EC
:104200006A857B85672BE1F289238F3FC9F230E015
:10421000C9010196877099274817190671F40E9401
:104220003212109294021092950286E0E6ECF2E0CF
:10423000DF011D928A95E9F7C3CF96E0929FD001E6
:10424000939FB00D1124AA56BD4FFE0131960190E7
:104250000D929A95E1F7809394020E947304B0CF77
:10426000819FC00111248A569D4F0E94451F8823BB
:1042700009F4ADCF8091950290E00196877099275F
:10428000809395029ECFCDB7DEB7A9970FB6F8946D
:10429000DEBF0FBECDBF84B7877F84BF0FB6F89453
:1042A000A895809160008861809360001092600002
:1042B0000FBE80E890E00FB6F89480936100909371
:1042C00061000FBE85B7806885BF85B7806885BFF0
:1042D0008AED96E090939701809396010E94E40BFB
:1042E0000E94680C8091E20084608093E2007894E0
:1042F00080914002882399F08091E9001091EC00B0
:104300001795112717958F70182B1092E90080913F
:10431000E80083FD0E9447121F701093E90082E0BD
:1043200084BD93E095BD9AEF97BD80936E000E9487
:104330005D11811102C00E94401103E511E0A8E562
:10434000EA2EA1E0FA2ED8018D918D018F3F11F058
:104350000E94DC06E016F106B1F708E511E0F8E688
:10436000EF2EF1E0FF2EF80181918F018F3F11F0C8
:104370000E94DC06E016F106B1F78AE0E4E4F2E020
:10438000DF01282F1D922A95E9F7EEE4F2E0DF0124
:104390001D928A95E9F70E94D816811102C00E94E9
:1043A0006E1682E090E00E940229809331020E9402
:1043B0004F1190939202809391020E940917EFE3AC
:1043C000FCE93197F1F700C000000E9409178091C5
:1043D000440280FF08C06FEF7FEF90E080E00E9412
:1043E00034290E94DD0F83E090E00E9402290E94A0
:1043F000EC0A549A5C9A259A2D9882E88093800062
:1044000089E1809381008FEF9FEF909387008093E5
:1044100086000E94E3160E94E3168091210281111A
:1044200033C00E94D816811104C00E946E160E94EB
:104430001F1588E090E00E940A296093870270931C
:1044400088028093890290938A026E7F71F40E94A1
:104450001F1588E090E00E940A29609387027093FC
:1044600088028093890290938A020E949B0810928E
:1044700086028091870280FF04C060E086950E94DA
:10448000F21781E0809321028EE091E0909359022F
:104490008093580268E1862E912C70E4772EEEE42A
:1044A000AE2EE2E0BE2E80914002FF24F39400E1A4
:1044B00012E1853009F4E7C10E940917882359F0F9
:1044C0008FB7F89440913C0250913D0260913E02BA
:1044D00070913F028FBF54E4E52E52E0F52EE2E3E7
:1044E000F2E0D70110E000E0702F8D919D912191B5
:1044F00031912817390709F4EBC12827392760E0E3
:10450000CC24C394D12CA9014C215D21452B09F465
:10451000D9C169837A839C012C213D2191E0232B11
:1045200009F490E09B830E94FC098160782F9D83B1
:104530008C8349815A816B81892F0E94B320000F9F
:10454000111FF801EE5CFD4F808191818C259D2526
:1045500091838083809186028823D1F180918502A6
:10456000E0918702E695E81BE0932802823009F08B
:10457000C6C1F0E0E451F94FE4910E2F10E089EB51
:10458000C82E8FE0D82E80912902882361F01092E6
:1045900029020E94FC099093270280932602109220
:1045A0002B0210922A020E94FC09209126023091CF
:1045B0002702821B930B8F3F9F4750F4200F311F20
:1045C000309327022093260286E292E0F6010995B5
:1045D00086E0ECE7F2E0DE01119601900D928A95FB
:1045E000E1F7C0907E02D0907F020091800210918E
:1045F000810210927E0210927F021092800210922D
:1046000081028C2D8D2909F448C080912E02909151
:104610002F020E94270B9C0180917B02882309F4C2
:10462000E8C323333105C8F18F3F19F08F5F8093C2
:104630007B02CC2059F00E94F6069FEF1C140CF46C
:1046400091E0899F802D112480937E02DD2059F016
:104650000E94F6069FEF1D140CF491E0899F802DB7
:10466000112480937F0230917E023323B1F0209198
:104670007F02222391F045EB3403C00111249923DA
:1046800009F49BC190937E0255EB25039001112400
:10469000332309F496C130937F02802F812B09F4D4
:1046A00048C080912C0290912D020E94270B9C0102
:1046B00080917A02882309F497C325363105C8F121
:1046C0008F3F19F08F5F80937A02002359F00E9488
:1046D00016079FEF10160CF491E0899F802D11248E
:1046E00080938002112359F00E9416079FEF111644
:1046F0000CF491E0899F802D1124809381023091E8
:104700008002209181023323A1F0222391F045EB16
:104710003403C0011124992309F457C190938002F6
:1047200055EB250390011124332309F452C1309332
:10473000810280917E0290917F02892B909180026C
:10474000892B90918102892B11F00E94080A86E042
:10475000FE013196ACE7B2E001900D928A95E1F747
:104760000E948E0990913002891731F00E948E09C3
:10477000809330020E94190480914002843009F035
:1047800092CE83E08093E9008091E80082FF8BCE97
:104790008091E80090E085FF0CC00E94B30B30E2EE
:1047A000C32ED12C8E010F5F1F4F882309F41FC128
:1047B00091E08091E8008B778093E800992309F4D9
:1047C00072CEE981E150E33108F090C1F0E0E654A7
:1047D000F64D0C94C42880914002843009F443C003
:1047E00080E00E94B60880E00E94190410928602C0
:1047F00080912402811116C0F092240280918702D8
:10480000982F9170909323028E7F80938702FFEF01
:1048100020E732E0F15020403040E1F700C00000D6
:104820000E944C0D109222020FB6F894A895809227
:1048300060000FBE7092600083B7817F846083BF89
:1048400083B7816083BF7894889583B78E7F83BF59
:104850000FB6F894A89580916000886180936000FD
:10486000109260000FBE80912502882361F00E94A3
:104870000917E4E4F2E081919191892B09F095C246
:10488000AE16BF06C1F780914002853009F4A3CF70
:104890000E9432120E94E3160E948E090E9419049F
:1048A0001092240280912302882349F0809187028C
:1048B00081608093870260E086950E94F2170E94D3
:1048C000DC17FACD6F5FCC0CDD1C603109F01BCE1C
:1048D0000F5F1F4F0530110509F006CE8FEF89A33A
:1048E0008AA31BA20E94FC098160782F9DA38CA340
:1048F00049A15AA16BA1892F0E94B3202BCE8531EB
:1049000009F447C068F4893061F18F30B1F1863025
:10491000E9F000ED17E045EFC42E46E0D42E33CE8B
:10492000833209F441C004EF11E051E8C52E5DE087
:10493000D52E843209F427CE08E210E0BFE9CB2E51
:10494000BEE0DB2E883109F41ECEE3CFF0E0E75164
:10495000F94FE4910E2F10E0ADECCA2EAFE0DA2E45
:1049600012CEE695F0E0EA51F94FE4910E2F10E0F7
:10497000FCEBCF2EFDE0DF2E06CEE695F0E0ED510C
:10498000F94FE4910E2F10E0E9EECE2EEDE0DE2E91
:10499000FACDF0E0E052F94FE4910E2F10E07EE402
:1049A000C72E7EE0D72EEFCDEEEDF6E00591149107
:1049B00067E5C62E6FE0D62EE6CD81E080937E02BD
:1049C00063CE81E080937F0268CE81E08093800295
:1049D000A7CE81E080938102ACCE8091F100D80116
:1049E0008D938D01B1E0CB1AD10809F4E1CE80910D
:1049F000E80085FDF2CF8091E8008B778093E80096
:104A00000E94B30B882399F3D3CE1A8289E08B835B
:104A100023C08A81823009F4DEC1833009F442C0A8
:104A2000813009F063C08FB7F89420913C02309137
:104A30003D0240913E0250913F022EA33FA348A762
:104A400059A78FBF6EA17FA188A599A50E94CA28EA
:104A50006B837C838D839E8380914002843009F038
:104A600022CD8091E9001091EC0017951127179540
:104A70008F70182B82E08093E9008091E80080FF1E
:104A80000DC050E040E060E270E0CE0101960E946F
:104A9000030C8091E8008E778093E8001F701093DC
:104AA000E90001CDFE013196D7018C9111969C91C0
:104AB000B2E0EB0EF11C928383833296AE14BF04F6
:104AC00099F7CACF8A81823089F42B813C814D814C
:104AD0005E812EA33FA348A759A7CA01B9010E942E
:104AE000CA2886E290E00E941629B6CF8FEF89830C
:104AF000B3CF4C816B818A810E94761198278927D8
:104B000098279E838D83A8CFED80FE80FE24EF241E
:104B1000FE248A810B8130E2039F8001112440EA48
:104B2000849F000D111D11248C8190E0880F991F26
:104B3000080F191F6F2DC80187960E9416296E2D28
:104B4000C8018896D0CF0E94B21086CF8A81893062
:104B500061F48B8153E0859FC00111246FEF70E0F9
:104B60000E947A28862F0E9478098A818238D1F1A2
:104B7000F8F4803831F1813809F06ECF60E08B8134
:104B80000E94F2179B8180918702911123C08E7F32
:104B900080938702109286028FEF90E7A2E0815007
:104BA0009040A040E1F700C000000E944C0D54CF9F
:104BB000833809F051CF20E040918A026C818B81CB
:104BC00006C020E04B8160918902809188020E949A
:104BD000751542CF81608093870260E086950E94C0
:104BE000F2173ACF8B8180938B0236CF8A8189303E
:104BF00059F08A30C1F0813821F1B8F4803809F0D9
:104C00002BCF80918A0203CF809182028695869570
:104C10008695BFEF8B9FC001112463E070E00E9476
:104C20007A286B8319CF1B8217CF823891F0833893
:104C300009F012CF809188028B83809189028C8346
:104C40000BCF8091870280FF02C08695E0CE80E086
:104C5000DECE80918B02DBCE809182020E94131106
:104C600020918702309188024091890250918A02F6
:104C70002EA33FA348A759A7CA01B9010E940B154B
:104C8000EBCE80E18A83E8CE81E08A8389E5BFCEDE
:104C9000CA80DB80DC24CD24DC248C817601E80E04
:104CA000F11C8E010B5F1F4FC60189559D4FEC14FF
:104CB000FD0409F4D1CE39E5C31631E0D30648F43A
:104CC0000E940229D8018D938D01BFEFCB1ADB0A18
:104CD000EBCF80E0F7CF0A811B8110270127102737
:104CE000FE0131966F018C817F01E80EF11CC80135
:104CF00089559D4FCE14DF0409F4AECE0935F1E09D
:104D00001F0728F4D60114966C910E9416290F5F94
:104D10001F4FBFEFCB1ADB0AEACF0E9430119CCEA7
:104D200084E0B0CFCA80DB80DC24CD24DC248C81FD
:104D30007601E80EF11C8E010B5F1F4FC6018796AE
:104D4000CE14DF0409F488CEE0E8CE16E2E0DE06F9
:104D500048F40E940229D8018D938D01BFEFCB1A30
:104D6000DB0AECCF80E0F7CF0A811B8110270127F7
:104D70001027FE0131966F018C817F01E80EF11C36
:104D8000C8018796EC14FD0409F466CE0038F2E001
:104D90001F0728F4D60114966C910E9416290F5F04
:104DA0001F4FBFEFCB1ADB0AEBCF09BD19BD09B40A
:104DB00000FEFDCF8091D8008F7D8093D800809138
:104DC000E00082608093E0008091E00081FDFCCFF4
:104DD0000E94321258CD86E290E00E9402291B8286
:104DE0001C821D828E8338CE2D32314008F06ACC71
:104DF000A0CC2D32314008F019CC4FCC1F921FB6F9
:104E00001F9211248F939F93AF93BF93809122029F
:104E1000811113C080913C0290913D02A0913E020D
:104E2000B0913F024196A11DB11D80933C02909329
:104E30003D02A0933E02B0933F02BF91AF919F917C
:104E40008F911F901FBE1F90189578941F921FB6C8
:104E50001F9211248F939F93AF93BF9380913C0235
:104E600090913D02A0913E02B0913F020196A11D9A
:104E7000B11D80933C0290933D02A0933E02B093FB
:104E80003F02BF91AF919F918F911F901FBE1F90C6
:104E900018951F920F920FB60F9211242F933F93E4
:104EA0004F935F936F937F938F939F93AF93BF9332
:104EB000EF93FF938091E10082FF09C08091E200AF
:104EC00082FF05C08091E1008B7F8093E10080919B
:104ED000DA0080FF24C08091D80080FF20C080913C
:104EE000DA008E7F8093DA008091D90080FF9BC02A
:104EF00080E189BD82E189BD09B400FEFDCF81E07A
:104F0000809340028091BD01811109C00E94E40B91
:104F10000E94680C8091E20084608093E20080919E
:104F2000E10080FF17C08091E20080FF13C08091F4
:104F3000E2008E7F8093E2008091E20080618093A6
:104F4000E2008091D80080628093D80019BC85E08F
:104F5000809340028091E10084FF29C08091E200AB
:104F600084FF25C080E189BD82E189BD09B400FECE
:104F7000FDCF8091D8008F7D8093D8008091E10093
:104F80008F7E8093E1008091E2008F7E8093E2002B
:104F90008091E20081608093E2008091BC018823CF
:104FA00009F447C084E080934002809140028091E0
:104FB000E10083FF27C08091E20083FF23C080913E
:104FC000E100877F8093E10082E0809340021092AD
:104FD000BC018091E1008E7F8093E1008091E2002E
:104FE0008E7F8093E2008091E20080618093E200F6
:104FF00042E060E080E00E94380C8091F000886020
:105000008093F000FF91EF91BF91AF919F918F91AD
:105010007F916F915F914F913F912F910F900FBEB4
:105020000F901F90189519BC109240021092BD016C
:1050300076CF8091E30087FD02C081E0B4CF83E0AA
:10504000B2CF1F920F920FB60F921124FF920F93BF
:105050001F932F933F934F935F936F937F938F9300
:105060009F93AF93BF93CF93DF93EF93FF9309EE9B
:1050700010E0F8018081C091EC00C795CC27C7955E
:105080008F70FC2EF82A1082C0EFD0E08881877FD5
:10509000888378940E944712F80110828881886082
:1050A0008883CF2DCF70C083FF91EF91DF91CF9197
:1050B000BF91AF919F918F917F916F915F914F9130
:1050C0003F912F911F910F91FF900F900FBE0F9066
:1050D0001F901895DB018F939F930E94EF28BF913B
:1050E000AF91A29F800D911DA39F900DB29F900D37
:1050F00011240895AA1BBB1B51E107C0AA1FBB1FA7
:10510000A617B70710F0A61BB70B881F991F5A9553
:10511000A9F780959095BC01CD01089597FB072EC6
:1051200016F4009407D077FD09D00E947A2807FC76
:1051300005D03EF4909581959F4F089570956195A7
:105140007F4F0895A1E21A2EAA1BBB1BFD010DC0C3
:10515000AA1FBB1FEE1FFF1FA217B307E407F50727
:1051600020F0A21BB30BE40BF50B661F771F881F03
:10517000991F1A9469F760957095809590959B0199
:10518000AC01BD01CF010895EE0FFF1F0590F49112
:10519000E02D09946927962769277827872778279C
:1051A00008950E94D928332312F48A1B9B0B0C9478
:1051B000EA28A29FB001B39FC001A39F700D811D7B
:1051C0001124911DB29F700D811D1124911D089510
:1051D0000E94D928B7FF0895821B930B08950E945F
:1051E000D928A59F900DB49F900DA49F800D911D6F
:1051F00011240895B7FF0C94EF280E94EF28821B1A
:10520000930B0895F999FECF92BD81BDF89A992725
:1052100080B50895A6E1B0E044E050E00C943C294C
:10522000A8E1B0E042E050E00C943C29262FF99927
:10523000FECF92BD81BDF89A019700B4021639F0F5
:105240001FBA20BD0FB6F894FA9AF99A0FBE0895C6
:105250000396272F0E9417290E941629252F0E94A6
:105260001729242F0C9417290196272F0E941729FC
:105270000C941629DC01CB01FC01F999FECF06C084
:10528000F2BDE1BDF89A319600B40D924150504004
:10529000B8F70895FC014150504030F001900616D7
:1052A000D1F73197CF010895882799270895FB01F9
:1052B000DC0104C08D910190801921F441505040CF
:1052C000C8F7881B990B0895F894FFCF410747074B
:1052D0004A075007650765076507650765075307B0
:1052E00058075C076207730779077D072A13521373
:1052F000F3145213F3148513A613F314A214AF146A
:10530000091C101C151C1A1C1F1C241C291C2E1CDB
:10531000331C381C3D1C401C451C481C4B1C4E1C9F
:10532000511C541C571CE41AEA1AEE1AFC1A001BF2
:10533000041B081B0E1B161B1A1B1E1B221B2E1BDD
:10534000321B361B3A1B401B5E1B481BF81A261BE0
:105350002A1B121B441B541B671B6D1B801C801CCB
:10536000BA1CBA1C711D8B1DEB1CEB1C961D061E76
:10537000151E151E05250925622579258425A325D9
:10538000A625F6252C267625762541264426482670
:0A5390006B268D2690269226B42687
:10539A0001010201191A1B1C1D1E1F202122360B96
:1053AA00011044108D109110390B010000000040CB
:1053BA0022B684016201AC00D601EF010F0200019E
:1053CA00020202020606060909090909090F0F0F56
:1053DA000F0F0F151515181919191919191919195E
:1053EA001923243790F0F1F43031323391929396A5
:1053FA009734366667F7F6F5E200E900EA00B50089
:10540A00B600B700CD008301CC008A019201940155
:10541A002102230224022502260227022A02B300BD
:06542A00B4006F007000E9
:00000001FF
