:100000000C9411040C9449040C9449040C94490474
:100010000C9449040C9449040C9449040C9449042C
:100020000C9449040C9449040C94CE270C94A628F3
:100030000C9483270C9449040C9449040C944904AF
:100040000C9449040C9449040C9449040C944904FC
:100050000C9449040C94AA270C9449040C94490468
:100060000C9449040C9449040C9449040C944904DC
:100070000C9449040C9449040C9449040C944904CC
:100080000C9449040C9449040C9449040C944904BC
:100090000C9449040C9449040C9449040C944904AC
:1000A0000C9449040C9449040C9449040501090278
:1000B000A10185020901A1000509190129081500FE
:1000C0002501950875018102050109300931158165
:1000D000257F95027508810609381581257F9501D0
:1000E00075088106050C0A38021581257F95017572
:1000F000088106C0C005010980A101850319012AF4
:10010000B700150126B700950175108100C0050CD8
:100110000901A101850419012AA002150126A002E6
:10012000950175108100C005010906A1018506052C
:100130000719E029E71500250195087501810205D9
:1001400007190029EF1500250195F07501810205B9
:10015000081901290595057501910295017503910D
:1001600001C00660FF0961A1010962150026FF00B8
:100170009520750881020963150026FF00952075FA
:10018000089102C005010906A101050719E029E748
:1001900015002501950875018102950175088101F9
:1001A0000507190029FF150026FF0095067508812F
:1001B000000508190129059505750191029501753C
:1001C000039101C009025B00030100A0FA090400C9
:1001D0000001030101000921110100012240000773
:1001E0000581030800010904010002030000000961
:1001F00021110100012222000705820320000107CE
:1002000005030320000109040200010300000009A6
:10021000211101000122B60007058403200001120C
:1002200001000200000008424B6160020001020070
:10023000010C034B0042004400370035000000165B
:100240000371006D006B006200750069006C006452
:10025000006500720000000403090429003A003B15
:10026000003C003D003E003F004000410042004392
:100270000044004500460001514C0035001E001F9F
:100280000020002100220023002400250026002752
:10029000002D002E004C002A004A002B0000001404
:1002A000001A000800150017001C0018000C0012AE
:1002B0000013002F00300031004B00390000000413
:1002C000001600070009000A000B000D000E000FC9
:1002D0000033003400280000004E00E10001511DF1
:1002E000001B000600190005001100100036003741
:1002F0000038000000E50052004D00E000E300007F
:1003000000E2002C0000002C0000002C000000E6A1
:10031000000151E400500051004F000100010001B4
:1003200000010001000100010001000100010001C5
:1003300000010001000100010001000100010001B5
:1003400000010001000100010001000100010001A5
:1003500000010001000100005C010001000000C27A
:100360005CC35CC55CC65CC75CC85CC95CCA5C013C
:100370000001000100010001000100010000000176
:100380000001000100010001000100010001000165
:100390000001000100010000000100010001000156
:1003A000000100BD5CBF5CBE5CC05C0100010001DF
:1003B0000001000000010001000100010001000037
:1003C0000001000100000001000000010000000128
:1003D0000001000100010001000100010001000115
:1003E0000001000100010001000100010001000105
:1003F00000010001000100010001000100010001F5
:1004000000010001000100010001000100010001E4
:1004100000010001000100010001000100000001D5
:1004200000010001000100010001000100010001C4
:1004300000010001000100010001000100000001B5
:1004400000010001000100010001000100010001A4
:100450000001000100010000000100010001000195
:100460000001000100010001000100010001000184
:100470000001000000010001000100010001000076
:100480000001000100000001000000010000000167
:100490000001000100010001000100010001000154
:1004A0000001000100010001000100010001000144
:1004B0000001000100010001000100010001000134
:1004C0000001000100010001000100010001000124
:1004D0000001000100010001000100010000000115
:1004E0000001000100010001000100010001000104
:1004F00000010001000100010001000100000001F5
:1005000000010001000100010001000100010001E3
:1005100000010001000100000001000100010001D4
:1005200000010001000100010001000100010001C3
:1005300000010000000100010001000100010000B5
:1005400000010001000000010000000100000001A6
:1005500000010001000100010001002223252628DE
:10056000292A2C2D2F3032333536383A3B3D3E4048
:1005700042434547494A4C4E5051535557595A5C8E
:100580005E6062646668696B6D6F71737577797BA5
:100590007D7F81838587898A8C8E90929496989AA4
:1005A0009C9E9FA1A3A5A7A8AAACAEAFB1B3B4B6B9
:1005B000B8B9BBBCBEBFC1C2C3C5C6C7C9CACBCC14
:1005C000CDCED0D1D2D2D3D4D5D6D7D7D8D9D9DAE7
:1005D000DADBDBDBDCDCDCDCDCDDDDDDDDDCDCDC5C
:1005E000DCDCDBDBDBDADAD9D9D8D7D7D6D5D4D384
:1005F000D2D2D1D0CECDCCCBCAC9C7C6C5C3C2C159
:10060000BFBEBCBBB9B8B6B4B3B1AFAEACAAA8A7B5
:10061000A5A3A19F9E9C9A98969492908E8C8A896D
:10062000878583817F7D7B79777573716F6D6B694A
:1006300068666462605E5C5A5957555351504E4C1F
:100640004A4947454342403E3D3B3A3836353332CE
:10065000302F2D2C2A292826252322FFAA7F55401A
:100660000001010101010101010102020202020275
:100670000202020303030303030303040404040448
:10068000040405050505050606060606070707070F
:100690000708080808090909090A0A0A0B0B0B0CC4
:1006A0000C0C0D0D0D0E0E0E0F0F0F101011111161
:1006B00012121313141415151616171718181919E2
:1006C0001A1A1B1B1C1D1D1E1E1F20202122222347
:1006D0002424252626272829292A2B2C2D2D2E2F88
:1006E00030313232333435363738393A3B3C3D3E9F
:1006F0003F404142434445464748494A4C4D4E4F8E
:1007000050515354555658595A5B5D5E5F6162644F
:10071000656668696B6C6D6F7072737577787A7BDC
:100720007D7E8082838587888A8C8E8F9193959633
:10073000989A9C9EA0A2A3A5A7A9ABADAFB1B3B553
:10074000B7BABCBEC0C2C4C6C9CBCDCFD1D4D6D82F
:10075000DBDDDFE2E4E7E9EBEEF0F3F5F8FAFDFFCD
:1007600000047F3F1F643214643214783C1E1E1450
:100770000A0500000000000000000000000000006A
:100780000000000000000000000000000000000069
:100790000000000000007E0F00D4FFFFFFC7000034
:1007A000007800000000000000002A2B2800000054
:1007B0000000000000000000000000000029000010
:1007C00000002C1E3420212224342627252E362DED
:1007D0003738271E1F202122232425263333362E87
:1007E00037381F0405060708090A0B0C0D0E0F10F9
:1007F0001112131415161718191A1B1C1D2F31303E
:10080000232D350405060708090A0B0C0D0E0F10E1
:100810001112131415161718191A1B1C1D2F31301D
:10082000354C11241FBECFEFDAE0DEBFCDBF04B6DA
:1008300003FE18C08091F9029091FA02A091FB0288
:10084000B091FC028730904BA740B04B59F4109206
:10085000F9021092FA021092FB021092FC02E0E000
:10086000F8E3099511E0A0E0B1E0E4EAF4E502C0A4
:1008700005900D92A839B107D9F722E0A8E9B1E0B7
:1008800001C01D92A93FB207E1F70E94CE210C944E
:10089000E9290C94000081FD02C02A9A08952A9843
:1008A00008959295907FE92FE80F877041E001C08D
:1008B000440F8A95EAF7E695E695E69583E0E89F8A
:1008C000F0011124EE57FD4F30E020E070E051912F
:1008D000DF011197CB01022E02C0969587950A94ED
:1008E000E2F7817081958527842385278C932F5F7C
:1008F0003F4F2330310559F70895E92FE295E07F06
:10090000E80F982F9770E695E695E69583E0E89FC7
:10091000F0011124EE57FD4F50E040E080E02191BE
:1009200030E0092E02C0369527950A94E2F721702F
:100930003327042E01C0220F0A94EAF7822B4F5F5F
:100940005F4F4330510559F708958091C20290914D
:10095000C102981301C008958F5F8770FACF9091FC
:100960001A019923C1F09091BE0297FF14C0E82F9D
:10097000E695E695E695803FF8F4F0E0E656FE4F02
:10098000877021E030E001C0220F8A95EAF782816A
:10099000822B82830895ACE9B1E0EFEF90E02D91D6
:1009A000821751F0EF3F19F4211101C0E92F9F5F29
:1009B0009630A9F7EF3F09F408950E2E000CFF0BB7
:1009C000E656FE4FE6CF90911A019923E1F09091FF
:1009D000BE0297FF18C0E82FE695E695E695803FA2
:1009E000F0F4F0E0E656FE4F877021E030E0A90118
:1009F00002C0440F551F8A95E2F7CA018095928183
:100A0000892382830895ECE9F1E09191891303C071
:100A1000DF0111971C9251E0E23AF507B1F7089512
:100A2000982F90958091B90289238093B9020895F7
:100A30008091BA0281111092BA0208959091BE027B
:100A400092FF06C0282F28712830F9F4877F846030
:100A500093FF06C0282F28712831F1F4877E846126
:100A60002091BF0220FF06C0382F38713830D9F4EA
:100A7000877F816021FF06C0282F28712831D1F49B
:100A8000877E816194FD877E0895282F247124300C
:100A9000F9F68B7F8860DCCF282F2471243101F791
:100AA0008B7E8861DDCF382F3171313019F78E7F21
:100AB0008860E0CF282F2171213121F78E7E886157
:100AC000E1CFCF93DF93EC01803E910509F460C044
:100AD00050F58133910509F4A6C090F4893291054F
:100AE00009F49AC08A9709F4A5C0C130D10509F468
:100AF00062C0CE010497813A910508F055C05BC0F1
:100B000089339105F1F182389105D9F1C59709F43E
:100B10007CC0C83AD10508F094C0C53AD10528F385
:100B2000A497D06448C0843E910509F453C068F48A
:100B3000823E9105E1F1833E910509F440C0CE016A
:100B4000805E9109089780F536C0863E910509F4CC
:100B50004CC0873E910509F44DC0811523E59207ED
:100B600008F09AC0811532E5930708F000C18F3F65
:100B7000910511F008F074C0803F910550F2D065E6
:100B80001AC08091BE028370B1F0C0EED0E013C0F5
:100B90008091BE0280FD15C19091BF0290FF0BC0F5
:100BA000C3EED0E084FF07C0D0E0C0E004C0809175
:100BB000BE0282FDF5CFCE01DF91CF9108958091E5
:100BC000BE0282FD01C19091BF0290FDDECF84FF85
:100BD000F2CFEACF8091BF0281FFEDCF8091BE02BC
:100BE000C7EED0E084FDE0CFE6CF8091BE0283FD6A
:100BF000F7CFE1CF8091BE0283FDE9C09091BF02A3
:100C000091FFE5CFC4EED0E0D6CF8091BE0285FF44
:100C1000D2CFC9E2D0E0CFCF8091BE0285FFCBCF4B
:100C2000C5E3D0E0C8CF8091BE0286FFC4CFCAE240
:100C3000D0E0C1CF8091BE0286FFBDCFC1E3D0E03E
:100C4000BACFCF3BD10508F07ACFC85AD0E0CC0F4D
:100C5000DD1FC759DE4F0990D881C02DD464ABCFBA
:100C6000C11581E5D80798F4C11520E5D20708F031
:100C700061C0C11530E2D30708F49DCFCE01905476
:100C80008115904108F090CFDF70D06A94CFDC2FAF
:100C9000CC27C16FD06A8FCF811539E59307A0F5B6
:100CA000C11588E5D80708F07AC0C11525E5D20737
:100CB000C8F4C11534E5D30708F06CC09E01237059
:100CC000332781E090E002C0880F991F2A95E2F750
:100CD000C695C69520E2C29FE0011124C82BD92BEE
:100CE000DA6869CFCE0195558F3F910511F008F074
:100CF0005BCF8C2F0E941E05C82FD0E0DC2FCC27A5
:100D0000CC27DF71D06257CF81153AE5930708F4FD
:100D10004BC090568115904208F046CF8D2F8F71B1
:100D20000E941E0590E0982F882788279F718C2BA2
:100D3000EC01E8CF9E0174E0369527957A95E1F7AE
:100D400023708C2F86958695837030E2839FC00137
:100D50001124922BC37021E030E002C0220F331F18
:100D6000CA95E2F7822B932BEC01DC6824CF9C011F
:100D70002370332781E090E002C0880F991F2A95E5
:100D8000E2F7C695C69520E2C29FE0011124C82B68
:100D9000D92BEBCFDC2FCC27C46FD06A0CCFDC2F44
:100DA000CC27C06FD06A07CF8F700E941E0534E039
:100DB000D695C7953A95E1F7CF709C2FEC01D06995
:100DC000FACEC9E3D0E0F7CEC2EED0E0F4CEC6EE64
:100DD000D0E0F1CE80E00895F894E82FE295EF702E
:100DE000F0E041A18F7021E030E0B90102C0660F50
:100DF000771F8A95E2F7CB01962F9095942391A3C4
:100E000092A1892B82A37894089508958091A602D7
:100E100080FD14C081FD14C082FD16C08091A8021F
:100E2000882381F08E3180F420E5829FC001112457
:100E30006EE170E00E941329862F089584E10895E1
:100E400088E2089588E0089580E508958091A602DB
:100E500080FD16C081FD16C082FD16C08091A702DC
:100E60008823A1F0883280F428E0829FC0011124F9
:100E700068E270E00E941329862F672B39F00895ED
:100E800082E0089584E0089588E0089581E008955F
:100E9000E0E1E80FE031E0F5F0E0E551F64D0C94CB
:100EA00049290E94060781958093AC0208950E940B
:100EB0000607FACF0E94060781958093AB0208953A
:100EC0000E940607FACF0E9426078093AD0208957C
:100ED0000E9426078195F9CF0E942607819580936D
:100EE000AE0208950E942607FACF845F990B21E095
:100EF00030E001C0220F8A95EAF78091AA02822B86
:100F00008093AA0208958091A60281608093A60230
:100F100008958091A6028260F9CF8091A602846034
:100F2000F5CF4091AB02803F59F48091AC0287FF2E
:100F30000DC01092AC0241110BC01092A80208C063
:100F4000813F81F48091AC0218169CF3442381F018
:100F50008091AD029091AE02892B09F05AC0109297
:100F6000A7020895823F49F447FFF0CF1092AB02E9
:100F70008091AC028111ECCFE0CF833F19F41416BD
:100F8000ACF3E4CF9091AD02893F29F41916F4F641
:100F90001092AD02DBCF8A3F19F497FFD7CFF8CF7D
:100FA0009091AE028B3F29F497FFD0CF1092AE0202
:100FB000CDCF8C3F19F41916CCF3C8CF9CE0980F15
:100FC000953090F4845F990B21E030E0B90102C0C4
:100FD000660F771F8A95E2F7CB0180959091AA0260
:100FE00089238093AA02B2CF8D3F31F48091A6026B
:100FF0008E7F8093A602AACF8E3F21F48091A60215
:101000008D7FF7CF8F3F09F0A1CF8091A6028B7F14
:10101000F0CF08956F927F928F929F92AF92BF927E
:10102000CF92DF92EF92FF920F931F93CF93DF93B4
:10103000B82EA62E8901E42FF0E0E05AF94F611195
:1010400019C0E4918E2F2E2FD80111962C93119751
:10105000EC9312968C93DF91CF911F910F91FF909B
:10106000EF90DF90CF90BF90AF909F908F907F9048
:101070006F900895E62EF12C249186E0B89E6001D1
:101080001124CFEFD0E0C601BE010E94FF288B2DB6
:1010900090E0880F991F35E5369FA001379F500DCE
:1010A0001124841B950B982F990F980FAE014E19A0
:1010B0005F09249FD001259FB00D1124EB2FA99E1D
:1010C00050011124AB2CBB24AE014A195B09249FAB
:1010D0005001259FB00C11248B2D3E01691A710817
:1010E0006E9C40016F9C900C7E9C900C1124892C6E
:1010F0009924C819D9092C9FA0012D9F500D1124A6
:1011000063307105D1F09CEFC91693E0D90670F4F5
:1011100061307105B1F062307105B9F0FFEFCF16A3
:10112000D10408F091CF8B2FE52F8ECF643071055D
:1011300079F066307105B9F387CFEB2D822F2B2F15
:1011400083CFE22F2B2D8B2F7FCF852FE22FF7CF51
:10115000822F252F79CF8091B402982F9E7F29F47A
:10116000817082608093B40208958A34E8F38170BC
:101170008864F8CFFA0181110994FB01FDCFEF9249
:10118000FF920F931F93CF93DF93CDB7DEB72897CE
:101190000FB6F894DEBF0FBECDBF8630E8F58111E3
:1011A0003CC0909180009F7D909380002E98A091EC
:1011B0008600B0918700282F30E00E945E29698365
:1011C0007A838B839C8325E030E040E050E00E94EE
:1011D000272989019A0180918600909187006CE00F
:1011E00070E00E94FF2860177107E8F0C80169E00D
:1011F00070E00E94FF2870938B0060938A0028960D
:101200000FB6F894DEBF0FBECDBFDF91CF911F9117
:101210000F91FF90EF90089585E09091800090628B
:1012200090938000C4CF8091860090918700E090D9
:101230008600F0908700E0918600F091870066E0DC
:1012400070E00E94FF28060F171F211D311DD901D4
:10125000C80125E0880F991FAA1FBB1F2A95D1F747
:1012600089839A83AB83BC83C70166E070E00E94E8
:10127000FF289F0150E040E0260F371F411D511D00
:1012800069817A818B819C810E94272929833A83F5
:101290004B835C83E0918600F0918700CA01B9011D
:1012A0000E94EF28DF019B01AC010E9474296D832D
:1012B0007E838F8398879B01AC0169817A818B81C2
:1012C0009C810E94EF2869837A838B839C83DC0155
:1012D000CB013FE0B695A795979587953A95D1F7BD
:1012E000409186005091870070E060E048175907F0
:1012F0006A077B0720F48091860090918700BC01EB
:101300007ACF282F220F220F220F9091AF029770D1
:10131000922B9093AF02987F21E009F420E0909106
:10132000AF0220FB90F99093AF020C94BF08E091BC
:101330006002F0916102309721F00190F081E02D80
:10134000099480E008952091EE013091EF01281773
:10135000390771F09093EF018093EE01E091600204
:10136000F0916102309721F00680F781E02D099419
:1013700008952091EC013091ED012817390771F0A3
:101380009093ED018093EC01E0916002F091610295
:10139000309721F00084F185E02D099408952FB74E
:1013A000F8948091400290914102A0914202B09144
:1013B00043022FBF08950E94CF092091AB023091C4
:1013C000AC02232B21F080933D0290933E022091AA
:1013D000AD023091AE02232B21F080933B0290931B
:1013E0003C02E0916002F0916102309749F082E0A6
:1013F0008093A9020480F581E02D89EA92E00994A6
:1014000008959C014FB7F894809140029091410259
:10141000A0914202B09143024FBF821B930B0895EB
:101420008091EB0108950895FC01CB012091C60144
:101430003091C7012617370790F0009729F42091C3
:10144000E8002E772093E80040E0009751F4411126
:1014500008C08091E80082FF31C080E00895C90192
:10146000F3CF209144022223A9F12530A9F1209144
:10147000E80023FD2DC02091E80022FDEACF209155
:10148000E80020FFE2CF3091F3002091F2000097B6
:1014900019F02830310558F041E02830310509F0C5
:1014A00040E02091E8002E772093E800CECF4191D4
:1014B0004093F10001972F5F3F4FE9CF80914402A5
:1014C000882341F0853041F08091E80083FFC1CF4F
:1014D00081E0089582E0089583E008958091C0013D
:1014E00087FF13C08091E80082FF06C08091E8006A
:1014F0008B778093E80004C0809144028111F2CF81
:101500000895809144028823D9F38091E80080FFF8
:10151000F8CF8091E8008E77ECCF2091E4003091F5
:10152000E50095E6A9012091EC00822F817020FF53
:1015300006C08091E80080FF06C080E008952091F9
:10154000E80022FD1AC080914402882389F085308A
:1015500089F08091EB0085FD0FC02091E40030916F
:10156000E50042175307F9F29150E1F684E008953F
:1015700082E0089583E0089581E00895E8EDF0E0C9
:1015800080818E7F80831092E2001092DA001092A8
:10159000E100A0EEB0E08C9181608C9380818F7728
:1015A000808319BCA7EDB0E08C918E7F8C938081F5
:1015B0008F7E80831092BF010895EF92FF920F9368
:1015C0001F93CF937C018B010E948D0AC82F81113C
:1015D00017C08091E80085FD0BC08091E8008E77F0
:1015E0008093E8000E948D0A882399F3C82F08C0D1
:1015F000F70181917F018093F1000150110949F7B2
:101600008C2FCF911F910F91FF90EF900895982FFD
:101610009093E900242F762F50E0891731F07091D4
:10162000EC002091ED005091F00021FD06C09F5F7D
:10163000973071F78093E90008953091EB003E7F79
:101640003093EB003091ED003D7F3093ED00309111
:10165000EB0031603093EB007093EC002093ED00D1
:101660005093F0002091EE0027FDE1CF0895CF9236
:10167000DF92EF92FF920F931F93CF93DF93C8ED0A
:10168000D0E088818F7E8883E7EDF0E08081816003
:10169000808384E082BF81E08093BF0188818E7F58
:1016A000888302EE10E0F80110821092DA0081EED9
:1016B000C82ED12CF601108288818F77888388818B
:1016C0008068888388818F7D888319BC109244024A
:1016D0001092BE01109227021092BD0190EEE92EE9
:1016E000F12CF70180818B7F8083888181608883E2
:1016F00042E060E080E00E94070BF60180818E7F6F
:101700008083F8018081816080838081886080830C
:10171000F70180818E7F8083888180618883DF915B
:10172000CF911F910F91FF90EF90DF90CF90089590
:101730008091B40280FD0AC0E3EFF1E011821082D3
:101740001282339652E0E332F507C1F76A9A3EB14E
:101750003B7F2EB124604FB7F89483EF91E0FC01FA
:101760000196508168E02EB9000000C057FF3EB9D5
:10177000550F000000C000C000C03EB900C06A950F
:1017800091F752E08332950751F74FBF8FE594E010
:101790000197F1F700C000000895EF92FF920F93B8
:1017A0001F93CF93DF93EC0103EF11E0F12CE12CB9
:1017B0009C816091B6028091B50228E0E216F104A6
:1017C000FCF49923F9F098014091B7020E940A08AD
:1017D0008FEFE81AF80A0D5F1F4F20E1E216F104BF
:1017E00039F70E94980B8C8190E0019681709927BF
:1017F0008C83DF91CF911F910F91FF90EF9008950F
:10180000992309F3980140E0E1CFEF92FF921F93F3
:10181000CF93DF93EC0183EFE82E81E0F82E10E008
:101820008C8197014091B7026091B602810F0E94AE
:101830000A08115F83E0E80EF11C103F89F70E944F
:10184000980B9A818C8190FF08C08F5F8C83DF9109
:10185000CF911F91FF90EF9008958150F7CFCF92D5
:10186000DF92EF92FF920F931F93CF93DF93FC01D0
:101870008281DD24DA9480FD02C0DD24D394C3EF9D
:10188000D1E010E000E0198218821A8294E0E92E7B
:10189000F12CC12C8091F2018C0D8131CCF18F7033
:1018A000082E000C990B8017910791F48091B702D4
:1018B0008E9DA0018F9D500D1124559547955595EE
:1018C00047959E016091B6028091B5020E940A0878
:1018D000CD0CF1E0EF1AF108E9F60F5F1F4F2396E8
:1018E0000031110581F60E94980B8091F20191E080
:1018F000D91212C0882399F081508093F201DF91B0
:10190000CF911F910F91FF90EF90DF90CF900895AE
:1019100087FFC6CF805FC4CF8F5F8F70EECF8FE021
:10192000ECCF0F931F93CF93DF93C3EFD1E0FE0172
:10193000118210821282339682E0E332F807C1F7F7
:1019400010E000E08091F101082E000C990B0817BF
:1019500019078CF180910201082E000C990B801759
:1019600091074CF19E014091B7026091B6028091BF
:10197000B5020E940A080F5F1F4F23960031110520
:1019800009F70E94980B809101019091F101980F45
:101990009093F10120910201280F20930201121669
:1019A00014F49F301CF0819580930101DF91CF9159
:1019B0001F910F910895198218821A82DCCFCF925D
:1019C000DF92EF92FF920F931F93CF93DF93CDB7E8
:1019D000DEB72E970FB6F894DEBF0FBECDBF8D8752
:1019E0009E87AD85BE8514961C91212F30E0D901CC
:1019F0000E945E299B01AC010E94742969837A834D
:101A00008B839C83E0E2F0E0E11BF109A5E5B0E007
:101A10009B01AC010E94742969877A878B879C8718
:101A20009F01DF010E9456299B01AC010E947F2982
:101A30006D837E838F8398879B01AC0189819A8116
:101A4000AB81BC81280F391F4A1F5B1F69857A85CE
:101A50008B859C850E942729F22E422F50E099E227
:101A60009F1508F442C0A3E02A9F900111243595E8
:101A70002795122F109593EFC92E91E0D92E00E0F3
:101A800085E5E82EEF188E2D01FD8F2D9601412F53
:101A90006091B6020E940A080F5FB3E0CB0ED11C22
:101AA000003189F70E94980BED85FE85948181E0D5
:101AB000992319F0903219F48FEF809300018091EF
:101AC0000001890FAD85BE8514968C932E960FB6B6
:101AD000F894DEBF0FBECDBFDF91CF911F910F9164
:101AE000FF90EF90DF90CF90089585E590E0841B04
:101AF000950B9C01220F331F280F391F37FFB7CFDB
:101B00002F5F3F4FB4CF9091B40290FF0CC0E3EF32
:101B1000F1E0818360834283339692E0E332F907F8
:101B2000C1F70C94980B08950F931F93CF93DF93F5
:101B300000D00F92CDB7DEB78C018091F0018111FA
:101B40000AC09E012F5F3F4F4FEF6FEF0E940A08C0
:101B50008A818093F001F8016481613049F062303C
:101B6000F1F08091F00140E0662331F040E019C0CF
:101B70006091F00140E080E00E94830DF8018481D3
:101B800090E0019663E070E00E94132984830F9037
:101B90000F900F90DF91CF911F910F910895409179
:101BA000F00180E060E0E8CFCF93DF9300D00F92A8
:101BB000CDB7DEB79091B40290FF0FC09E012F5FAA
:101BC0003F4F0E940A084B8169818A810F900F90D4
:101BD0000F90DF91CF910C94830D0F900F900F9089
:101BE000DF91CF910895CF93DF93EC01EC81F0E08A
:101BF000E55AFA4F4491E4EBF2E0628181810E9460
:101C0000D40D8C818F5F8C83DF91CF910895CF931A
:101C1000DF93EC01E4EBF2E0438162818C810E946E
:101C2000D40D8C818F5F8C83DF91CF91089581E0FB
:101C30008093E00080E28093D8001092C9008FE189
:101C40009EE40197F1F700C0000087E090EBDC0113
:101C50008093F9029093FA02A093FB02B093FC02E6
:101C600088E19CE00FB6F894A895809360000FBEC1
:101C700090936000FFCFCF93DF93D82FC92F80912F
:101C80001A018823C1F18091BE0287FF34C060E24F
:101C900084E08093E9008FEF9091E800815095FDFA
:101CA00006C095ED9A95F1F700008111F5CF80916E
:101CB000E80085FF1DC080911A0170E050E040E00F
:101CC000811104C050E040E068E070E08D2F9C2F4F
:101CD0000E94DD0A8091E8008E778093E80080E220
:101CE000ED2FFC2FABECB1E001900D928A95E1F75E
:101CF000DF91CF91089568E081E0CBCF24E020937D
:101D0000E9002FEF3091E800215035FD06C035ED98
:101D10003A95F1F700002111F5CF2091E80025FF59
:101D20000BC050E040E066E070E00E94DD0A809168
:101D3000E8008E778093E80008958093C80170933F
:101D4000CA016093C901809144028430F9F4809300
:101D5000E9008FEF9091E800815095FD06C095ED68
:101D60009A95F1F700008111F5CF8091E80085FF89
:101D70000DC050E040E063E070E088EC91E00E942C
:101D8000DD0A8091E8008E778093E8000895BC0119
:101D900083E00C949D0EBC0184E00C949D0E4F9248
:101DA0005F926F927F928F929F92AF92BF92CF92EB
:101DB000DF92EF92FF920F931F93CF93DF93D0E0C8
:101DC000C0E030ECA32EB12C8E01000F111F3E019C
:101DD0001DC0F60185909490692DC7010E949B2932
:101DE000682DC70101960E949B2922E0C20ED11CDA
:101DF00032E0E30EF11C4E145F0459F7005E1F4FF2
:101E000080E1680E711CA016B10681F0C301880F35
:101E1000991F9C01255A3D4F6901780137E2E30E75
:101E2000F11C280187E4480E511CD3CF20ECA20EF0
:101E3000B11CC05ADF4FC03831E0D30729F6DF911B
:101E4000CF911F910F91FF90EF90DF90CF90BF90B7
:101E5000AF909F908F907F906F905F904F9008957C
:101E6000682F86E090E00C949B29CF93C82F6FEFEA
:101E7000811162E283E290E00E949B296FEFC11121
:101E800064E084E290E00E949B296FEFC11165E25B
:101E900085E290E0CF910C949B29CF93DF93C7E22A
:101EA000D3E060E0CE010E949B292196C11584E019
:101EB000D807B9F7DF91CF91089580E00E94350FE0
:101EC00060E086E290E00E949B290E94CF0E0E9473
:101ED0004D0F81E00C94350FCF9384E090E00E9489
:101EE0008729C82F82E290E00E948729982F8C2FA3
:101EF000CF91089583E290E00E948729823289F48D
:101F000084E290E00E948729843059F485E290E0D1
:101F10000E94872991E0853209F090E0892F817035
:101F2000089580E0FCCF0F931F93CF93DF9320E2BF
:101F3000629FE001112450E0440F551FC40FD51FCC
:101F400030EC839FC00DD11D1124CE0187960E94D5
:101F50008729082F10E0102F0027CE0188960E94B5
:101F600087299801282BC901DF91CF911F910F91EB
:101F70000895462F672F843030F4763020F44031B6
:101F800010F40C94930F90E080E00895DF92EF92AC
:101F9000FF920F931F93CF93DF937C010091BC02BC
:101FA0008091BB02082BC7E0D0E010E0DC2EC80116
:101FB0000C2E02C0959587950A94E2F780FD0CC01F
:101FC0002197A0F7D12C8D2DDF91CF911F910F91EB
:101FD000FF90EF90DF900895B7018C2F0E94B90F0A
:101FE0000E946105019761F3EECF0F931F93CF938A
:101FF000FC01828100811181882389F0662379F0B8
:10200000C8010E94C60FC82F682FC8010E94510442
:10201000B8018C2FCF911F910F910C94B90FC8016B
:102020000E947D04C82FF4CFCF93DF93D82FC92F00
:102030000E94C60F6D2F7C2F0E94B90FDF91CF91A8
:102040000C9461050E941410282F92959F70963071
:1020500091F060F4925F9F70923030F481E0203F05
:1020600081F030F4283E30F080E008959A5FF3CF9D
:10207000243FD1F7089581E0283EE0F3213FA1F706
:10208000F9CF08958091B9029091C002892B809375
:102090009A019091BA029923A1F0892B80939A0119
:1020A00080911A018823D9F18091BE0287FF37C041
:1020B0008EE1ECE9F1E090E0815098F591110E94F9
:1020C000180540E250E062E672E08AE991E00E9481
:1020D000DC29892B59F180E2EAE9F1E0A2E6B2E0DD
:1020E00001900D928A95E1F7E0916002F091610212
:1020F0003097E1F080911A01882359F08091BE0257
:1021000087FF07C080919A0180939B0186E08093AE
:102110009A010280F381E02D8AE991E0099486E03A
:10212000C8CF2191222341F29F5FC6CF0895CF935C
:10213000C82F882309F4AEC08238C1F40E949709E1
:1021400081FDA8C089E30E94AF040E9442102FEFD6
:1021500031EE84E0215030408040E1F700C00000C3
:1021600089E30E94E304CF910C9442108338A1F4D8
:102170000E94970980FD8EC083E50E94AF040E94F3
:1021800042109FEF21EE34E0915020403040E1F7C3
:1021900000C0000083E5E5CF8438A1F40E949709D0
:1021A00082FD78C087E40E94AF040E9442108FEF46
:1021B00091EE24E0815090402040E1F700C0000003
:1021C00087E4CFCF8CEF8C0F813A90F580911A0184
:1021D000882301F18091BE0287FF1CC0EC2FE69599
:1021E000E695E695F0E0E656FE4F828190E04C2FB2
:1021F000477021E030E002C0220F331F4A95E2F71A
:1022000082239323892B81F08C2F0E94E3040E9468
:1022100042100AC0ECE9F1E082EA91E02191C21794
:1022200099F38E179F07D1F78C2F0E94AF049BCF95
:1022300080E28C0F883068F4C77021E030E001C084
:10224000220FCA95EAF78091B902822B8093B902D6
:102250008ACF8BE58C0F833038F42C2F2452330B2C
:10226000C901CF910C94A309E8E5EC0FE73150F4D4
:10227000F0E0EE0FFF1FE759FE4F80819181CF9173
:102280000C94B909C03F30F08C2F0E944807CF91C1
:102290000C94DB09CF910895882309F452C0823849
:1022A00071F40E94970981FF4CC089E30E94AF043A
:1022B0000E94421089E30E94E3040C944210833888
:1022C00059F40E94970980FF3CC083E50E94AF0447
:1022D0000E94421083E5EFCF843859F40E94970999
:1022E00082FF2FC087E40E94AF040E94421087E45F
:1022F000E2CF9CEF980F913AF0F290E2980F98306D
:1023000050F4877091E001C0990F8A95EAF7892F00
:102310000E941005D2CF9BE5980F933020F490E0F7
:1023200080E00C94A30998E5980F973120F490E091
:1023300080E00C94B909803F20F00E9491070C9432
:10234000DB0908950F931F93CF93C82F10E000E08F
:10235000893311F400E510E08C2F0E9497100115CD
:10236000110531F48C2FCF911F910F910C944C11CA
:102370008FE99FE00197F1F700C0000001501109BB
:10238000EECF882339F09091B902892B8093B9025E
:102390000C9442100895882321F00E9410050C949B
:1023A00042100895FF920F931F93CF93DF93C62F90
:1023B000D42F122F8823A9F06093B0020E94CF0976
:1023C0009093BB018093BA01C77081E001C0880F70
:1023D000CA95EAF7DF91CF911F910F91FF900C946E
:1023E000C1118091B002681334C08091BA019091FC
:1023F000BB010E94010A883C910558F500E20D0FCF
:10240000CD17A9F0C770FF24F3948F2D01C0880F5A
:10241000CA95EAF70E94CB11083048F48D2F8770D7
:1024200001C0FF0C8A95EAF78F2D0E94C111812F00
:102430000E94A2110830A0F4D77081E001C0880F7B
:10244000DA95EAF7DF91CF911F910F91FF900C94ED
:10245000CB11C77081E001C0880FCA95EAF7F2CFAF
:10246000DF91CF911F910F91FF90089590E080E050
:102470000E94A30990E080E00E94B9091092C00276
:102480000E94421086E0E9EAF2E0DF011D928A959F
:10249000E9F71092A8021092A7021092A6020C94DB
:1024A000DB091092B90280911A01ECE9F1E088236E
:1024B00059F08091BE0287FF07C08EE1DF011D92B7
:1024C0008A95E9F70C94361286E0F8CF1F93CF93E4
:1024D000DF93CDB7DEB7AA970FB6F894DEBF0FBE75
:1024E000CDBF80EC91E0FC0101962091F1002083AA
:1024F00021E0883C9207B9F78091C101893009F445
:1025000056C0C8F4823009F4B3C0833009F482C0E5
:10251000813071F18091E80083FF84C28091C00115
:102520009091C1019A3008F07DC2E92FF0E0E550AA
:10253000F64D0C9449298A3009F489C08B3051F743
:102540008091C001813231F78091C4019091C50121
:10255000892B01F78091E800877F8093E8000E9433
:102560006E0A8091C20180931A010E945112D2CF4B
:102570008091C001813A71F68091E800877F809355
:10258000E8008091C4019091C501892B61F460E25B
:102590008BEC91E070E00E94140A8091E8008B7748
:1025A0008093E800B7CF60E090E080E0F3CF8091C7
:1025B000C001813209F0AECF8091C4019091C50174
:1025C0008D7F892B09F0A6CF8091E800877F8093CB
:1025D000E8008091E80082FF18C09091F30080919C
:1025E000F200029731F48091F100813011F08630D1
:1025F00021F48091F1008093EB018091E8008B77CA
:102600008093E8000E946E0A85CF80914402811178
:10261000E0CF80CF8091C001813A09F07BCF8091DB
:10262000C4019091C501892B09F074CF8091E80015
:10263000877F8093E8008091E80080FFFCCF809145
:102640001A018093F1008091E8008E77D9CF8091B4
:10265000C001813209F05ECF8091E800877F8093CE
:10266000E8000E946E0A8091C3018093BC0152CFA2
:102670008091C001813A09F04DCF8091E800877FB9
:102680008093E8008091E80080FFFCCF8091BC013E
:10269000D8CF803899F0823809F0C4C18091C40144
:1026A0008F70873008F0BEC18093E9008091EB0005
:1026B00085FB882780F91092E90006C08091BD0152
:1026C00090912702911182609091E800977F9093FA
:1026D000E8008093F1001092F1008091E8008E777D
:1026E0009DC1882309F48BC1823009F09BC1809180
:1026F000C20181118EC18091C4018F702FEF280F0C
:10270000263008F08FC18093E9002091EB0020FF74
:1027100080C1933031F48091EB0080628093EB00B4
:1027200078C19091EB0090619093EB0021E030E054
:1027300001C0220F8A95EAF72093EA001092EA007E
:102740008091EB008860EACF81116CC11091C201C9
:102750001F778091E3008078812B8093E300809144
:10276000E800877F8093E8000E946E0A8091E8006D
:1027700080FFFCCF8091E30080688093E30082E0DB
:10278000111183E0809344024DC18058823008F0DB
:1027900049C14091C2015091C3014C3D83E05807AB
:1027A00099F583E08A838AE289834FB7F894DE0142
:1027B000139620E03EE051E2E32FF0E05093570003
:1027C000849120FF03C082958F703F5F8F708A30A5
:1027D000C8F0895C90E08D939D932F5F243161F761
:1027E0004FBF8091E800877F8093E8006AE270E045
:1027F000CE0101960E94140A8091E8008B778093A5
:10280000E80010C1805DE6CF8091C4019091C501C0
:10281000252F33272330310509F44AC078F52130BC
:10282000310509F479C08BE590E0E4ECF1E0223069
:10283000310509F0F7C02091E800277F2093E800D8
:102840002091C6013091C7018217930708F49C01BB
:1028500040E02115310509F064C0411162C080914A
:10286000E80082FDC9CF80914402882329F2853097
:1028700019F28091E80083FFF2CFBECF21323105FB
:1028800009F43BC02232310509F0CCC083309105F8
:1028900008F0C8C0FC01EE0FFF1FEE5DFE4F019077
:1028A000F081E02D815E9E4FDC018C9190E011C0A3
:1028B000CA019927413089F082309105B1F0892B06
:1028C00009F0B0C0E7E5F2E0E4918E2F90E0E7E593
:1028D000F2E0009709F4A6C0AECFEFE3F2E0E49196
:1028E0008E2F90E0EFE3F2E0F4CFE1E3F2E0E49149
:1028F0008E2F90E0E1E3F2E0ECCF8330910508F019
:1029000091C0880F991FFC01E85DFE4F0190F08196
:10291000E02D89E090E08FCF82E190E0EFE1F2E0FE
:102920008ACF80914402882309F466CF853009F468
:1029300063CF8091E80083FD5FCF8091E80082FD46
:102940008ECF8091E80080FF84CF9091F30080913A
:10295000F2002115310519F08830910550F041E061
:10296000089709F040E08091E8008E778093E800B6
:1029700070CF44914093F100319621503109019676
:10298000E8CF803809F04EC08091E800877F8093BF
:10299000E8008091BE018093F1009FCE811142C07A
:1029A0001091C2011230F0F58091E800877F80938A
:1029B000E8001093BE010E946E0A112311F084E01A
:1029C00005C08091E30087FDFACF81E08093440247
:1029D00042E061EC81E00E94070B42E261EC84E09E
:1029E0000E94070B42E261EC82E00E94070B42E288
:1029F00060EC83E00E94070B8091440213C0809139
:102A0000C201813079F481E0933009F080E0809355
:102A100027021092E9008091E800877F8093E80008
:102A20000E946E0A8091E80083FF0AC08091E8004E
:102A3000877F8093E8008091EB0080628093EB00B9
:102A4000AA960FB6F894DEBF0FBECDBFDF91CF912F
:102A50001F9108958093BB020C9436128093BC02A0
:102A60000C94361221E030E001C0220F8A95EAF77B
:102A70008091BC02822B0C942E1521E030E001C025
:102A8000220F8A95EAF720958091BC0282230C944C
:102A90002E159091BD02809589238093BD02282F29
:102AA000277091F4282F082E000C330B9217130671
:102AB00059F09091BF0292FD07C085958595859547
:102AC0000E943D151092BD020895CF93C091BF02A0
:102AD000C2FB992790F9981799F080FBC2F9C0932F
:102AE000BF026091BE0284E090E00E949B296C2F9F
:102AF00082E290E00E949B2982E0CF910C944915DC
:102B0000CF9108958091BC02982F9670963019F459
:102B100088600C942E15877FFCCF4F925F926F9246
:102B20007F928F929F92AF92BF92CF92DF92EF925D
:102B3000FF920F931F93CF93DF93CDB7DEB72C9700
:102B40000FB6F894DEBF0FBECDBFFE0131968CE00C
:102B5000DF011D928A95E9F793E5E92E91E0F92EC0
:102B60008F0129E5622E21E0722E2F01AA24A39461
:102B7000B12C49E6842E41E0942EF70181917F012A
:102B80008F3F09F445C0F894E82FE295EF70F0E02C
:102B900021A18F70A50102C0440F551F8A95E2F74D
:102BA000CA01922F982B91A392A18095892382A389
:102BB000789400C0E9E5F1E021E030E0D12CC12CAF
:102BC00041914F3F09F45DC0A42FA295AF70A05E64
:102BD000B0E08C9190E04F7002C0959587954A9532
:102BE000E2F780FD4EC0C901C82AD92A220F331F3F
:102BF0008E169F0629F7F701319780818F3F11F0DC
:102C00000E94EC0650EA5A95F1F7D801CD92DC9279
:102C10000E5F1F4F6E147F0409F0AFCF4CE050E001
:102C2000B20184E592E00E94DC299C0111E0892B2D
:102C300009F410E0232B41F18CE0F201A4E5B2E0AD
:102C400001900D928A95E1F781E0809347020E94FE
:102C5000CF0990934602809345028091450290915E
:102C600046020E94010A059798F08CE0E4E5F2E044
:102C7000A8E4B2E001900D928A95E1F71092470224
:102C800007C080E090E0B0CF809147028111E5CF8E
:102C9000812F2C960FB6F894DEBF0FBECDBFDF910B
:102CA000CF911F910F91FF90EF90DF90CF90BF9049
:102CB000AF909F908F907F906F905F904F9008950E
:102CC0000F931F93CF93DF938B01D82FC92F0E94AF
:102CD000AB08A8016D2F7C2F88E090E0DF91CF91A9
:102CE0001F910F910C94AD29E4EBF2E083E0808317
:102CF00011828FEF82838383148263E070E08FEF11
:102D00009FEF0C946016CF93DF9300D000D0CDB727
:102D1000DEB78091B802833018F48F5F8093B802D9
:102D20008091B4029091B502A091B602B091B70221
:102D300089839A83AB83BC83BC01CD010F900F9034
:102D40000F900F90DF91CF910C946016CF93DF938B
:102D500000D000D0CDB7DEB78091B802882319F03B
:102D600081508093B8028091B4029091B502A091F5
:102D7000B602B091B70289839A83AB83BC83BC014E
:102D8000CD010F900F900F900F90DF91CF910C9489
:102D900060167F928F929F92AF92BF92CF92DF92F6
:102DA000EF92FF920F931F93CF93DF9300D000D049
:102DB00000D00F92CDB7DEB7182FF62E042FE22EDB
:102DC0009091B40290FF81C0E92FE695AE2FB0E05C
:102DD000A25DBE4F8C918093B2029E7F9230B9F576
:102DE0009E012F5F3F4F812F0E940A084B8169810E
:102DF0008A810E94830D1093B502F092B60200936F
:102E0000B702EE2009F461C08091B4029091B5023E
:102E1000A091B602B091B7028C839D83AE83BF832D
:102E2000BC01CD0127960FB6F894DEBF0FBECDBF13
:102E3000DF91CF911F910F91FF90EF90DF90CF9096
:102E4000BF90AF909F908F907F900C9460168230CF
:102E500019F40091B702CFCF863019F41091B50262
:102E6000CACF8930D9F3893131F6E9512E2F21703B
:102E7000722EE695F0E0E55AF94F859094909924EA
:102E800033EFC32E31E0D32EB12CA12CC50124E0A9
:102E9000969587952A95E1F7711013C0810F9601D9
:102EA000402F6F2D0E940A08A80CB91CB3E0CB0E6E
:102EB000D11C23E2C21622E0D20641F70E94980BF1
:102EC0009ACFA12FA81B8A2FEACF27960FB6F89486
:102ED000DEBF0FBECDBFDF91CF911F910F91FF904D
:102EE000EF90DF90CF90BF90AF909F908F907F90AA
:102EF0000895E4EBF2E0818121E043816281885F03
:102F00000C94C916E4EBF2E0818121E043816281F7
:102F100088500C94C916E4EBF2E0628128E0620F5D
:102F200008F46FEF21E0438181810C94C916E4EB32
:102F3000F2E0628128E0621B08F460E021E0438156
:102F400081810C94C916E4EBF2E0438128E0420F42
:102F500008F44FEF21E0628181810C94C916E4EB03
:102F6000F2E0438128E0421B08F440E021E0628166
:102F700081810C94C91669EE7EEF90E080E00E949A
:102F8000B92960E082E090E00E949B2960E083E044
:102F900090E00E949B291092BB0260E084E090E0E8
:102FA0000E949B2960E082E290E00E949B2960E001
:102FB00085E090E00E949B2960E086E090E00E941E
:102FC0009B296FEF87E090E00E949B2940E050E052
:102FD000BA0188E090E00E94AD2960E08DE090E0C9
:102FE0000E949B2940E050E0BA0188E190E00E94F5
:102FF000AD2960E087E190E00E949B2940E050E02D
:10300000BA018CE190E00E94AD2970E060E080E2BE
:1030100090E00E94B92940E050E0BA0188E190E0D8
:103020000E94AD2980E00E94350F0E945D0F40E0B4
:1030300050E0BA018FE090E00E94AD2940E050E0FE
:10304000BA0183E190E00C94AD2990E080E00E9409
:103050009529893E9E4F11F40C947A0F80E00895D3
:103060000E94251881110AC00E94BB178091AF02EF
:10307000847089628093AF020E94300F86E090E0F6
:103080000E9487298093AF02803320F08770886286
:103090008093AF029091AF02892F817090FF04C09E
:1030A000892F8695869586950C94BF086091B40209
:1030B000669570E04BE050E083E091E00E94CF29FC
:1030C000892B19F481E08093B3020E94CF09909379
:1030D0003602809335020895CF93DF9300D000D05D
:1030E000CDB7DEB79091B40290FF45C08823E1F1DF
:1030F0008532E0F58F77880F9091B4029170892B1B
:103100008093B402662381F08091B4029091B5025D
:10311000A091B602B091B70289839A83AB83BC8336
:10312000BC01CD010E9460166091B402669570E00A
:103130004BE050E083E091E00E94CF29892BC1F061
:103140001092B30281E08093380220E04091B702F0
:103150006091B6028091B5020F900F900F900F9082
:10316000DF91CF910C94C91681E0C5CF84E2C3CF23
:103170000E945618E7CF0F900F900F900F90DF919D
:10318000CF9108958091B40286958F5F853208F0C3
:1031900081E061E00C946C189091B40296958FEFE9
:1031A000890F913009F484E261E00C946C189091DD
:1031B000B40290FF07C09695981720F0961710F468
:1031C0000C94C21861E00C946C183F924F925F927D
:1031D0006F927F928F929F92AF92BF92CF92DF9227
:1031E000EF92FF920F931F93CF93DF93CDB7DEB78C
:1031F00028970FB6F894DEBF0FBECDBF7C01DC016F
:103200009C9111968C91119713962D913C91232BA3
:1032100021F089238F3F09F057C628960FB6F894FE
:10322000DEBF0FBECDBFDF91CF911F910F91FF90F9
:10323000EF90DF90CF90BF90AF909F908F907F9056
:103240006F905F904F903F900895980122513F45B5
:103250002031310508F0E6C58FEF93E00E94872901
:10326000025147E2842E43E0942E882399F1809105
:10327000BD02877091F2F7018281882371F28091FB
:10328000BF0282FDCACF82E028960FB6F894DEBF57
:103290000FBECDBFDF91CF911F910F91FF90EF90A7
:1032A000DF90CF90BF90AF909F908F907F906F9066
:1032B0005F904F903F900C9449158114B4E09B06A9
:1032C000B1F2C4010E948729811101C00150EFEFC2
:1032D0008E1A9E0A0111F1CF80911B0190911C0161
:1032E000A0911D01B0911E0189839A83AB83BC8399
:1032F000442443943AE0332E84010F5F1F4FC401EE
:103300000E94872989831A82882309F4B0CF9FEF0E
:10331000980F933010F58A834982F2E08F0E911C4A
:10332000C8010E9487298B83882309F4A0CF8E01CE
:103330000F5F1F4FD8012C912223F1F2213009F0A9
:1033400047C011969C91119712968C91913039F447
:103350000E5F1F4F0E94A21108C04801E8CF9230B3
:1033600039F40E5F1F4F0E9497100F5F1F4FE2CF7F
:10337000933029F40E5F1F4F0E944C11F6CF94300A
:1033800019F00F5F1F4FF1CF0E5F1F4F20E030E0AD
:10339000A8014F5F5F4F8053990B8A30910560F011
:1033A0002115310511F38FE99FE00197F1F700C076
:1033B000000021503109F4CF329EB001339E700DD0
:1033C00011249C01260F371FF80181818A01E0CF6B
:1033D000E22FF0E0EE55F84F5490822F86958695B7
:1033E000869590E0FC01EE56F84FE4912770F0E0EE
:1033F000022E02C0F595E7950A94E2F73F01A1E09D
:103400006A227724FC01EE57F84FA490B12C022ECB
:1034100002C0B594A7940A94E2F7B1E0AB22BB24B2
:10342000FC01EE58F84FC490D12C02C0D594C7943B
:103430002A95E2F7E1E0CE22DD246114710419F04F
:1034400081EE0E949710A114B10419F086EE0E943B
:103450009710852D0E94A211AB2819F086EE0E94CC
:103460004C11672819F081EE0E944C11CD2809F407
:103470007CCF8CE26FCF81E00E9432150E948215D2
:10348000F6CE81E00E943D15F9CF82E0F5CF0F3BEB
:10349000BCE51B0709F46DC0003CECE51E0709F410
:1034A0008BC0033FFCE51F0709F4B4C008F098C0C7
:1034B000083D3CE5130709F4A9C028E241E0093DB5
:1034C0009CE5190709F4A4C026E241EE61EE073D30
:1034D000ACE51A0709F497C08111C4C40631ECE5C4
:1034E0001E0709F086C19091B902882309F477C1BB
:1034F000892F8A7A91E009F490E09093B1028111CA
:103500006CC189E20E94AF040E944210B0CE85E0F7
:103510000E9481098091AF020E94300FA8CE80E006
:10352000F7CF8091AF02982F987F09F43FC0885061
:103530008093AF02887F91E009F490E08091AF0220
:1035400090FB80F913C08091AF02982F96959695C5
:103550009695883240F49F5F990F990F990F877065
:10356000892B8093AF028091AF0281608093AF027C
:103570001BC08091AF0280FF09C08E7F8093AF0295
:103580000E94300F80E00E94BF0871CE8091AF0290
:1035900080FD6DCE81608093AF02813019F489E0A7
:1035A0008093AF028091AF020E94300F8091AF02F2
:1035B000869586958695E7CF9091AF02892F86955F
:1035C000869586958F5F8F719770863020F4880F6F
:1035D000880F880F982B9093AF028091AF02AACFEB
:1035E000053FBCE51B07D1F027E245EE66EE063F3E
:1035F000ECE51E0741F027E245EE64EE043FFCE5F2
:103600001F0709F069CF0E94D21131CE27E245EEA3
:1036100065EEF9CF26E241EE60EEF5CF26E241EE0F
:1036200062EEF1CF98012A5F3C452930310508F45C
:103630002BC40631FCE51F0709F455CF05C0053A38
:10364000BDE51B0709F420C40A35BDE51B0709F0D9
:10365000B0C181E0CCC1F801E350FC458091BE02CD
:103660008160E331F10530F5EB5FF54D0C944929AC
:1036700003302DE5120778F40A3F3CE5130708F400
:1036800013C4F801EB5FFC45E830F10510F5E85E86
:10369000F54D0C94492901368DE5180709F496C0BB
:1036A0009091BE02892F8E7F90FF8160053A1D4563
:1036B00009F0FAC38093BE02F7C38091BE02826014
:1036C000F9CF8091BE028460F5CF8091BE02886000
:1036D000F1CF8091BF0281608093BF02E5C38091EA
:1036E000BF028260F9CF8091BE028061E3CF8091FA
:1036F000BE028062DFCF8091BE028064DBCF0E9479
:1037000051128091BE028068D5CF8091BE028C603C
:10371000D1CF8091BF028360DFCF8091BE028E7FC8
:10372000C9CF8091BE028D7FC5CF8091BE028B7FB5
:10373000C1CF8091BE02877FBDCF8091BF028E7FB7
:10374000CBCF8091BF028D7FC7CF8091BE028F7E8D
:10375000B1CF8091BE028F7DADCF8091BE028F7BB5
:10376000A9CF0E9451128091BE028F77A3CF809182
:10377000BE02837F9FCF8091BF028C7FADCF8091AF
:10378000BE0282FB992790F921E0922790FB82F9F3
:1037900090FB83F98FCF8091BF02982F9095917005
:1037A0008E7F892B90FB81F997CF0E9451129091C7
:1037B000BE02892F97FB87F980587CCF61E08EE0AD
:1037C00090E00E949B2970C360E0F9CF9091BE0207
:1037D000892F8F7E94FF80616DCF85E393CE80919A
:1037E000B102811104C089E20E94E3048DCE85E319
:1037F000FBCF8091B9028272063DACE51A0778F4DE
:10380000023CBCE51B0778F0F801E35CFC45E331C2
:10381000F10508F050C0E05EF54D0C9449290D35D6
:103820001D4509F424CDD70112968C911297CD90A5
:10383000DC90882309F4EDC0C6010E94C60F182F42
:10384000682FC6010E945104B601812F0E94B90F52
:103850000E9461058C01F7019280858082942FE09F
:1038600082228091BD028770C1F0C92C9920B1F0ED
:10387000812F807F803421F080E2800F883068F0D3
:103880008091BF0282FD09C082E00E9449158091AB
:10389000BD028770CC24C3948111C12C812F8295E5
:1038A0008F70A82EB12C8C3008F020C1F501ED5C92
:1038B000F54D0C9449298091B40280FF21C08E7F80
:1038C0008093B4028091B4029091B502A091B602A7
:1038D000B091B7028D839E83AF83B887BC01CD01C1
:1038E0000E9460161092B3029FEFA0E7B2E09150E1
:1038F000A040B040E1F700C000000E94980BB7CC98
:1039000081608093B40261E086950E946C18AFCC10
:103910004CEC58E162EC78E10E94BA08A8CC42EC89
:1039200058E16CEC78E1F8CF42E857E169E777E1DC
:10393000F3CF49E757E162E877E1EECF47E957E196
:103940006BE877E1E9CF4BE857E167E977E1E4CF4E
:103950004FEA57E163EA77E1DFCF43EA57E16FEAE5
:1039600077E1DACF46EA56E163E876E1D5CF43E87E
:1039700056E166EA76E1D0CF61E081E0C6CF65E04E
:1039800082E00E94D71873CC68E086E0FACF6EE040
:1039900089E0F7CF64E18FE0F4CF67E185E1F1CF13
:1039A00061E088E1B2CF62E289E1EBCF61E083E2DE
:1039B000ACCF0B35EDE51E0758F40115FCE51F07EC
:1039C000C9F00E3D1C4509F02ECF0E94BB174FCC0D
:1039D0000B353DE51307D9F00C351D4509F023CF14
:1039E0008091BF0282FB882780F991E089270E949D
:1039F000651519CF0E9451129FEFA4E3BCE09150CE
:103A0000A040B040E1F700C000000E94170E80E027
:103A1000EECFC6010E947D04182F16CFF12FFF7044
:103A2000DF2E107F19F0D29490EFD9229920B9F0AF
:103A3000DD2069F080E2800F883010F0011109C0AC
:103A40008091B9028D298093B9020E944210802F83
:103A50004BC08091C0028D298093C002F6CF802F89
:103A60000E944C11DD2009F441C080E2800F8830B3
:103A700010F0011104C08D2D0E94100506C0D094D5
:103A80008091C0028D218093C0020E9442102EC0FE
:103A9000212F2F70D22E107F103219F0D29480EF88
:103AA000D822002381F0013009F488C0992009F45C
:103AB00092C0882009F488C0F701858180FFC7CFB4
:103AC0008F70858381C02091BF0222FF54C099204E
:103AD00009F44AC0DD2039F08091B9028D29809324
:103AE000B9020E94421080E00E94971038E0A31AA9
:103AF000B10884E0A816B10420F40E9497090E943E
:103B00004B04CC20B1F08091BD0280FD12C0D701E2
:103B100012961C928595859585950E943215C70150
:103B20000E94E5188091BD028595859585950E9436
:103B30003D1560E0C70128960FB6F894DEBF0FBEB2
:103B4000CDBFDF91CF911F910F91FF90EF90DF904C
:103B5000CF90BF90AF909F908F907F906F905F902D
:103B60004F903F900C94F50F80E00E944C11DD20A7
:103B700009F4BCCF80CF9920A1F09091BA028D2D8D
:103B8000892B811003C00E94C111B0CF31E0831294
:103B9000FACF22FDABCF981709F4A8CF8093BA02D1
:103BA000A5CF811006C00E9418058D2D0E94CB1153
:103BB0009DCF81E0881609F499CFF5CF992031F097
:103BC00095E0981508F492CF8D2DDDCFA4E0A815CF
:103BD00008F48CCFEACF882041F3093349F4FFEF92
:103BE00027EE33E0F15020403040E1F700C0000004
:103BF000802F0E944C117ACF812F869586958370F5
:103C000061F0813009F072CFC8019370911002C049
:103C100090E080E00E94B90969CFC80193709110CB
:103C200002C090E080E00E94A30960CF802F99201D
:103C300029F00E9448070E94DB0958CF0E94910793
:103C4000FACF812F8370A1F5911050CF802F8295EC
:103C500086958770880F880F402F4F70082E01C0FF
:103C6000440F0A94EAF7202F207104FF07C02FE0C9
:103C700030E001C0220F8A95EAF720951695169537
:103C80001370123081F0822F842B133031F0809129
:103C9000BB02113029F0242B82230E942A1526CF43
:103CA000842B822BFACF242B8091BB028227F5CF65
:103CB000992061F110FF1ACF802F82958695877029
:103CC000880F880F402F4F70082E01C0440F0A94B0
:103CD000EAF7202F207104FF07C02FE030E001C079
:103CE000220F8A95EAF720951695169513701230D3
:103CF00099F0822F842B133031F08091BC02113067
:103D000041F0242B82230E942E15F0CE11FFEECE1F
:103D1000D3CF842B822BF7CF242B8091BC02822718
:103D2000F2CF1F70992029F0812F0E943215802F29
:103D30002ACF802F0E94CB11812F0E943D15D6CE15
:103D4000023F81F160F4003FB9F0013F81F099201A
:103D500009F458C081107BCE812F8F7127C0033F9B
:103D600041F1043FA1F78091BF0282FF2DC0812F56
:103D70008F71992011F31AC0992079F084E0881589
:103D800008F4B4CE1F7181E090E001C0880F1A954D
:103D9000EAF79091BC028927B6CF95E0981508F410
:103DA000A5CEF0CF812F8F719110C7CF0E94321511
:103DB0009DCE80E0992009F4A6CF1F7181E001C05B
:103DC000880F1A95EAF79FCF992089F01F71812FEC
:103DD0000E9432158091BF0282FD07C0A8E01A9FA1
:103DE000C001112483608093BD02812FDFCF81E069
:103DF0000E944915B1E0B81508F078CE82E00E9423
:103E0000491574CE882059F0093309F0F1CEEFEF4F
:103E1000F7EE23E0E150F0402040E1F7E7CE812FBC
:103E20008F718BCF0031BFE51B0709F424CB013123
:103E3000EFE51E0709F429CB0E3BFCE51F0709F44B
:103E400082CB08F024CB0C3B3CE5130709F467CB8D
:103E50000D3B9CE5190709F464CB0B3BACE51A0755
:103E600009F455CB1092B00201362DE5120761F02E
:103E700008F0E5CB06319CE5190708F0D3CB0230FA
:103E8000ACE51A0708F4E0CB0E946C0F9093BF02D8
:103E90008093BE020631ECE51E0708F0E9CB023044
:103EA000FCE51F0708F0D7CB6091BE021091BF025E
:103EB00084E090E00E949B29612F82E290E00E94C2
:103EC0009B290E945112D3C961E0C7010E94F50FDE
:103ED0008C01D70112968C918111B7C90031FFE591
:103EE0001F0709F4CECA01312FE5120709F0D9CA1C
:103EF00082E0C8CA1F93CF93DF938091F802807F3E
:103F0000A9F48091F502882389F08091C202C091C2
:103F1000C1027091F3026091F402A091F602B09197
:103F2000F702D62FD72316E0C81304C0DF91CF9134
:103F30001F91089590E0109711F0DF3F19F401965A
:103F40008770F2CF189F9001199F300D1124F9014D
:103F5000ED53FD4F41816413F2CF40814713EFCF02
:103F600042814111ECCF438154814A1B5B0B483C99
:103F7000510528F78091F8028F7080618093F802D4
:103F8000F901E853FD4F80818F708061808383EF5A
:103F900092E00E94E518DF91CF911F910C94A50447
:103FA0008F929F92AF92BF92DF92EF92FF920F9308
:103FB0001F93CF93DF93CDB7DEB72B970FB6F8944F
:103FC000DEBF0FBECDBF8C0185E0F801DE01179684
:103FD00001900D928A95E1F7F801E280A380B48008
:103FE00083EF882E82E0982E9091F3028091F40264
:103FF0002091F6023091F7022115310529F0482F62
:1040000049234F3F09F028C1EE2009F433C1F801DC
:10401000808191810E942210F82E882309F42AC100
:1040200086E0F801A3EFB2E001900D928A95E1F7E6
:104030000E947A1F21C0D090F8024D2D407F283C6D
:10404000310508F0A8C0F80121814111C3C0FE2C40
:10405000281325C08081891322C0E11020C08D2D36
:104060008F7080618093F80283EF92E00E94E518E0
:104070008091F802F80185838F2D2B960FB6F89466
:10408000DEBF0FBECDBFDF91CF911F910F91FF908B
:10409000EF90DF90BF90AF909F908F9008953F81F9
:1040A000AB2829F0822F83238F3F09F090C080E056
:1040B000F82FF170DF2EE091C2024091C10256E06C
:1040C00080FD1CC0EE20C1F28091F80281608093D7
:1040D000F802F12CD1CF8E2F90E05E9FF0011124D9
:1040E000ED53FD4F6181261306C06081361303C076
:1040F0006281E612E7CF0196E82FE770E413EBCF79
:104100008F8198850E941410292F22952F7090324C
:1041100060F0225F2F70223078F49F7051F0F80128
:104120009581907F31F4D12C0AC09F7011F08823C3
:10413000D1F3805E8830B8F3C8010E94E518FD2CE9
:104140009BCFF801808191810E942210882309F47D
:1041500091C0EE2009F48EC08091F802803270F098
:104160008091F3029091F4029A8389831B82BD822D
:10417000AC82DE82CE0101960E94E51886E0F8014D
:10418000A3EFB2E001900D928A95E1F70E947A1FA9
:10419000FF24F39471CF411132C083EF92E00E946B
:1041A000E51886E0F40111928A95E9F792CFF801BB
:1041B000808191810E9422108111E0CF8091F802CC
:1041C00081608093F802C8010E94E51855CF81E014
:1041D0008E256ECF2813B5CFF80180818913B1CF1A
:1041E000E110AFCFD582C8010E94E51886E0F80142
:1041F000A3EFB2E001900D928A95E1F73DCFF8016F
:10420000218182139ECFF801808189139ACFE1101A
:1042100098CFD582C8010E94E51886E0F40111927A
:104220008A95E9F729CFF80121818213C0CFF801DF
:1042300080818913BCCF8091F80280FDD7CF982F61
:10424000907FA1F28583903F71F2982F907F905FCD
:104250008F70892B8583C7CFF090F502A501421B93
:10426000530B9A01F110E7CE283C3105B0F6FE2C35
:10427000E110D9CFC8010E94E5188ACF1F93CF93D0
:10428000DF93CDB7DEB767970FB6F894DEBF0FBEEA
:10429000CDBF342F4B8B252F5C8B962F6D8B7E8B58
:1042A0008F8B4E895F8961111092C0021A8A3D87F7
:1042B0002E879F87598B488B86E0FE013D96DE0155
:1042C000179601900D928A95E1F7CE0107960E940C
:1042D000D01F882389F016E08091C2029091C1021C
:1042E000891349C067960FB6F894DEBF0FBECDBFE5
:1042F000DF91CF911F91089586E0FE013796DE0190
:10430000119601900D928A95E1F79F818885209101
:10431000C1024091C2026A857B85672BE1F2892345
:104320008F3FC9F230E0C90101968770992748177D
:10433000190671F40E9451121092C1021092C20229
:1043400086E0E3EFF2E0DF011D928A95E9F7C3CF43
:1043500096E0929FD001939FB00D1124AD53BD4FB5
:10436000FE01319601900D929A95E1F78093C1027A
:104370000E94A504B0CF819FC00111248D539D4F91
:104380000E94D01F882309F4ADCF8091C20290E033
:104390000196877099278093C2029ECFCDB7DEB772
:1043A000A4970FB6F894DEBF0FBECDBF84B7877F4A
:1043B00084BF0FB6F894A8958091600088618093BF
:1043C0006000109260000FBE80E890E00FB6F89495
:1043D00080936100909361000FBE85B7806885BFB0
:1043E00085B7806885BF8AEE96E0909399018093A7
:1043F00098010E94BE0A0E94370B8091E2008460FF
:104400008093E200789480914402882399F080910F
:10441000E9001091EC001795112717958F70182B54
:104420001092E9008091E80083FD0E9466121F70DF
:104430001093E90082E084BD93E095BD9AEF97BDAB
:1044400080936E000E947A0F811102C00E945D0F5E
:1044500003E511E0A9E5EA2EA1E0FA2ED8018D913D
:104460008D018F3F11F00E94EC06E016F106B1F7C6
:1044700009E511E0F9E6EF2EF1E0FF2EF801819158
:104480008F018F3F11F00E94EC06E016F106B1F7A4
:104490008CE0E8E4F2E0DF01282F1D922A95E9F78D
:1044A000E4E5F2E0DF011D928A95E9F70E94251804
:1044B000811102C00E94BB1782E090E00E94872910
:1044C000809328020E946C0F9093BF028093BE02DB
:1044D0000E948D15EFE3FCE93197F1F700C0000071
:1044E0000E948D158091480280FF08C06FEF7FEF1A
:1044F00090E080E00E94B9290E94170E83E090E0CE
:104500000E9487290E942A15229A2A9A269A2E9872
:1045100082E28093800089E1809381008FEF9FEF9A
:1045200090938700809386000E9430180E94301874
:1045300080912302811133C00E942518811104C08B
:104540000E94BB170E94741688E090E00E948F2999
:104550006093B4027093B5028093B6029093B70251
:104560006E7F71F40E94741688E090E00E948F299B
:104570006093B4027093B5028093B6029093B70231
:104580000E94AB081092B3028091B40280FF04C075
:1045900060E086950E946C1881E0809323028EE093
:1045A00091E0909361028093600268E1862E912CE5
:1045B00070E4772EE4E5AE2EE2E0BE2E8091440258
:1045C000FF24F39400E112E1853009F4E5C10E9473
:1045D0008D15882359F08FB7F8944091400250917F
:1045E000410260914202709143028FBF58E4E52E70
:1045F00052E0F52EE9E2F2E0D70110E000E0702F82
:104600008D919D91219131912817390709F4E9C1C4
:104610002827392760E0CC24C394D12CA60142235B
:104620005323452B09F4D7C169837A839601282344
:10463000392391E0232B09F490E09B830E94CF095A
:104640008160782F9D838C8349815A816B81892F6A
:104650000E943E21000F111FF801E75DFD4F808190
:1046600091818C259D25918380838091B30288233D
:10467000D1F18091B202E091B402E695E81BE0939B
:104680003702823009F0C4C1F0E0E259F84FE491FA
:104690000E2F10E083EFC82E8DE0D82E80913802C7
:1046A000882361F0109238020E94CF09909336025D
:1046B0008093350210923A02109239020E94CF097B
:1046C0002091350230913602821B930B8F3F9F471A
:1046D00050F4200F311F309336022093350285E3CA
:1046E00092E0F601099586E0E9EAF2E0DE01119632
:1046F00001900D928A95E1F7C090AB02D090AC0288
:104700000091AD021091AE021092AB021092AC0279
:104710001092AD021092AE028C2D8D2909F448C082
:1047200080913D0290913E020E94010A9C0180917D
:10473000A802882309F4E2C325313105C8F18F3F6F
:1047400019F08F5F8093A802CC2059F00E940607D1
:104750009FEF1C140CF491E0899F802D112480930D
:10476000AB02DD2059F00E9406079FEF1D140CF4E8
:1047700091E0899F802D11248093AC023091AB028F
:104780003323B1F02091AC02222391F045EB3403A6
:10479000C0011124992309F499C19093AB0255EB00
:1047A000250390011124332309F494C13093AC0202
:1047B000802F812B09F448C080913B0290913C02EC
:1047C0000E94010A9C018091A702882309F491C3E9
:1047D00021353105C8F18F3F19F08F5F8093A70213
:1047E000002359F00E9426079FEF10160CF491E069
:1047F000899F802D11248093AD02112359F00E94CE
:1048000026079FEF11160CF491E0899F802D11244B
:104810008093AE023091AD022091AE023323A1F01D
:10482000222391F045EB3403C0011124992309F4AC
:1048300055C19093AD0255EB25039001112433230C
:1048400009F450C13093AE028091AB029091AC025A
:10485000892B9091AD02892B9091AE02892B11F09A
:104860000E94DB0986E0FE013196A9EAB2E00190E0
:104870000D928A95E1F70E94970990913F0289175E
:1048800021F080933F020E944B04809144028430C7
:1048900009F094CE83E08093E9008091E80082FFE4
:1048A0008DCE8091E80090E085FF0CC00E948D0ABB
:1048B00030E2C32ED12C8E010F5F1F4F882309F4E5
:1048C0001FC191E08091E8008B778093E8009923E5
:1048D00009F474CEE981E150E33108F090C1F0E0D1
:1048E000E15CF54D0C94492980914402843009F42F
:1048F00043C080E00E94BF0880E00E944B041092F9
:10490000B30280912602811116C0F0922602809196
:10491000B402982F9170909325028E7F8093B402F9
:10492000FFEF20E732E0F15020403040E1F700C0D7
:1049300000000E94980B109224020FB6F894A895DC
:10494000809260000FBE7092600083B7817F8460A8
:1049500083BF83B7816083BF7894889583B78E7F48
:1049600083BF0FB6F894A89580916000886180930A
:104970006000109260000FBE80912702882361F0D2
:104980000E948D15E8E4F2E081919191892B09F064
:1049900091C2AE16BF06C1F780914402853009F47A
:1049A000A3CF0E9451120E9430180E9497090E94C2
:1049B0004B041092260280912502882349F08091B1
:1049C000B40281608093B40260E086950E946C1806
:1049D0000E945618FCCD6F5FCC0CDD1C603109F0D5
:1049E0001DCE0F5F1F4F0630110509F008CE8FEF67
:1049F00089838A831B820E94CF098160782F9D83DF
:104A00008C8349815A816B81892F0E943E212DCE52
:104A1000853109F447C068F4893061F18F30B1F114
:104A20008630E9F000ED17E045E0C42E47E0D42ED3
:104A300035CE833209F441C004EF11E05DECC52EA0
:104A40005BE0D52E843209F429CE08E210E0BFEDF8
:104A5000CB2EBCE0DB2E883109F420CEE3CFF0E092
:104A6000E559F84FE4910E2F10E0A7E0CA2EAEE012
:104A7000DA2E14CEE695F0E0E859F84FE4910E2FC7
:104A800010E0F5E0CF2EFCE0DF2E08CEE695F0E05A
:104A9000EB59F84FE4910E2F10E0EFE2CE2EECE050
:104AA000DE2EFCCDF0E0EE59F84FE4910E2F10E031
:104AB00071E9C72E7CE0D72EF1CDE0E6F7E0059155
:104AC000149164E9C62E6DE0D62EE8CD81E0809386
:104AD000AB0265CE81E08093AC026ACE81E0809328
:104AE000AD02A9CE81E08093AE02AECE8091F100FE
:104AF000D8018D938D01B1E0CB1AD10809F4E1CE34
:104B00008091E80085FDF2CF8091E8008B7780935B
:104B1000E8000E948D0A882399F3D3CE1A8289E097
:104B20008B8323C08A81823009F4DAC1833009F48F
:104B300042C0813009F063C08FB7F89420914002E1
:104B400030914102409142025091430229A33AA37D
:104B50004BA35CA38FBF69A17AA18BA19CA10E94EA
:104B60004F296B837C838D839E83809144028430A4
:104B700009F024CD8091E9001091EC0017951127E0
:104B800017958F70182B82E08093E9008091E800E0
:104B900080FF0DC050E040E060E270E0CE01019681
:104BA0000E94DD0A8091E8008E778093E8001F70F4
:104BB0001093E90003CDFE013196D7018C91119637
:104BC0009C91B2E0EB0EF11C928383833296AE147B
:104BD000BF0499F7CACF8A81823089F42B813C8146
:104BE0004D815E8129A33AA34BA35CA3CA01B901FD
:104BF0000E944F2986E290E00E949B29B6CF8FEF5A
:104C00008983B3CF4C816B818A810E94930F98274F
:104C1000892798279E838D83A8CFED80FE80FE2470
:104C2000EF24FE248A810B8130E2039F800111244E
:104C300040EC849F000D111D11248C8190E0880FA1
:104C4000991F080F191F6F2DC80187960E949B2975
:104C50006E2DC8018896D0CF0E94CF0E86CF8A8154
:104C6000893061F48B8155E0859FC00111246FEF7D
:104C700070E00E94FF28862F0E9481098A81823875
:104C8000D1F1F8F4803831F1813809F06ECF60E06D
:104C90008B810E946C189B818091B402911123C07A
:104CA0008E7F8093B4021092B3028FEF90E7A2E060
:104CB00081509040A040E1F700C000000E94980B96
:104CC00054CF833809F051CF20E04091B7026C8176
:104CD0008B8106C020E04B816091B6028091B502C5
:104CE0000E94C91642CF81608093B40260E086952D
:104CF0000E946C183ACF8B818093B80236CF8A819C
:104D0000893059F08A30C1F0813821F1B8F4803807
:104D100009F02BCF8091B70203CF8091AF02869527
:104D200086958695BFEF8B9FC001112465E070E0EA
:104D30000E94FF286B8319CF1B8217CF823891F016
:104D4000833809F012CF8091B5028B838091B6022F
:104D50008C830BCF8091B40280FF02C08695E0CE99
:104D600080E0DECE8091B802DBCE8091AF020E945F
:104D7000300F2091B4023091B5024091B6025091AB
:104D8000B70229A33AA34BA35CA3CA01B9010E94AD
:104D90006016EBCE80E18A83E8CE1A8289EDC0CE20
:104DA000CA80DB80DC24CD24DC248C817601E80EF3
:104DB000F11C8E010B5F1F4FC601895D9C4FEC14E7
:104DC000FD0409F4D2CE39EDC316D10448F40E9493
:104DD0008729D8018D938D01BFEFCB1ADB0AECCF69
:104DE00080E0F7CF0A811B81102701271027FE01E1
:104DF00031966F018C817F01E80EF11CC801895D3D
:104E00009C4FCE14DF0409F4B0CE093D110528F4FF
:104E1000D60114966C910E949B290F5F1F4FBFEF24
:104E2000CB1ADB0AEBCF0E944D0F9FCE84E0B3CFAD
:104E3000CA80DB80DC24CD24DC248C817601E80E62
:104E4000F11C8E010B5F1F4FC6018796CE14DF0445
:104E500009F48BCEC114E3E0DE0648F40E948729F2
:104E6000D8018D938D01BFEFCB1ADB0AEDCF80E027
:104E7000F7CF0A811B81102701271027FE013196E9
:104E80006F018C817F01E80EF11CC8018796EC143C
:104E9000FD0409F46ACE0115F3E01F0728F4D601DA
:104EA00014966C910E949B290F5F1F4FBFEFCB1A86
:104EB000DB0AEBCF09BD19BD09B400FEFDCF80911F
:104EC000D8008F7D8093D8008091E000826080932D
:104ED000E0008091E00081FDFCCF0E9451125CCD8A
:104EE00086E290E00E9487291B821C821D828E83AD
:104EF0003CCE2B30310508F070CCA6CC2B303105E0
:104F000008F01FCC55CC1F921FB61F9211248F930F
:104F10009F93AF93BF9380912402811113C080911E
:104F2000400290914102A0914202B0914302419609
:104F3000A11DB11D8093400290934102A0934202B3
:104F4000B0934302BF91AF919F918F911F901FBE6D
:104F50001F90189578941F921FB61F9211248F935B
:104F60009F93AF93BF938091400290914102A09193
:104F70004202B09143020196A11DB11D80934002EF
:104F800090934102A0934202B0934302BF91AF912C
:104F90009F918F911F901FBE1F9018951F920F9287
:104FA0000FB60F9211242F933F934F935F936F93FC
:104FB0007F938F939F93AF93BF93EF93FF938091D2
:104FC000E10082FF09C08091E20082FF05C080916C
:104FD000E1008B7F8093E1008091DA0080FF24C0A4
:104FE0008091D80080FF20C08091DA008E7F80936E
:104FF000DA008091D90080FF9BC080E189BD82E109
:1050000089BD09B400FEFDCF81E080934402809108
:10501000BF01811109C00E94BE0A0E94370B809116
:10502000E20084608093E2008091E10080FF17C07D
:105030008091E20080FF13C08091E2008E7F809318
:10504000E2008091E20080618093E2008091D800CC
:1050500080628093D80019BC85E0809344028091DF
:10506000E10084FF29C08091E20084FF25C080E137
:1050700089BD82E189BD09B400FEFDCF8091D800D1
:105080008F7D8093D8008091E1008F7E8093E10036
:105090008091E2008F7E8093E2008091E200816047
:1050A0008093E2008091BE01882309F447C084E028
:1050B00080934402809144028091E10083FF27C0E5
:1050C0008091E20083FF23C08091E100877F80937D
:1050D000E10082E0809344021092BE018091E100E1
:1050E0008E7F8093E1008091E2008E7F8093E200CA
:1050F0008091E20080618093E20042E060E080E025
:105100000E94070B8091F00088608093F000FF916F
:10511000EF91BF91AF919F918F917F916F915F912F
:105120004F913F912F910F900FBE0F901F901895A8
:1051300019BC109244021092BF0176CF8091E30017
:1051400087FD02C081E0B4CF83E0B2CF1F920F92FF
:105150000FB60F921124FF920F931F932F933F933B
:105160004F935F936F937F938F939F93AF93BF936F
:10517000CF93DF93EF93FF9309EE10E0F801808166
:10518000C091EC00C795CC27C7958F70FC2EF82AEC
:105190001082C0EFD0E08881877F888378940E9456
:1051A0006612F8011082888188608883CF2DCF70C5
:1051B000C083FF91EF91DF91CF91BF91AF919F910C
:1051C0008F917F916F915F914F913F912F911F919F
:1051D0000F91FF900F900FBE0F901F901895DB015D
:1051E0008F939F930E947429BF91AF91A29F800DCE
:1051F000911DA39F900DB29F900D11240895AA1B9D
:10520000BB1B51E107C0AA1FBB1FA617B70710F0B1
:10521000A61BB70B881F991F5A95A9F780959095E3
:10522000BC01CD01089597FB072E16F4009407D01A
:1052300077FD09D00E94FF2807FC05D03EF4909529
:1052400081959F4F0895709561957F4F0895A1E2D4
:105250001A2EAA1BBB1BFD010DC0AA1FBB1FEE1FF0
:10526000FF1FA217B307E407F50720F0A21BB30B3B
:10527000E40BF50B661F771F881F991F1A9469F7B7
:1052800060957095809590959B01AC01BD01CF0113
:105290000895EE0FFF1F0590F491E02D0994692702
:1052A0009627692778278727782708950E945E29FF
:1052B000332312F48A1B9B0B0C946F29A29FB0011D
:1052C000B39FC001A39F700D811D1124911DB29F3A
:1052D000700D811D1124911D08950E945E29B7FF54
:1052E0000895821B930B08950E945E29A59F900D3F
:1052F000B49F900DA49F800D911D11240895B7FFB8
:105300000C9474290E947429821B930B0895F999B7
:10531000FECF92BD81BDF89A992780B50895A6E188
:10532000B0E044E050E00C94C129A8E1B0E042E0D4
:1053300050E00C94C129262FF999FECF92BD81BD72
:10534000F89A019700B4021639F01FBA20BD0FB6C3
:10535000F894FA9AF99A0FBE08950396272F0E949F
:105360009C290E949B29252F0E949C29242F0C9464
:105370009C290196272F0E949C290C949B29DC01D3
:10538000CB01FC01F999FECF06C0F2BDE1BDF89A50
:10539000319600B40D9241505040B8F70895FC0189
:1053A0004150504030F001900616D1F73197CF01AF
:1053B0000895882799270895FB01DC0104C08D9189
:1053C0000190801921F441505040C8F7881B990B77
:1053D0000895F894FFCF510757075A0760077507DC
:1053E0007507750775077507630768076C07720708
:1053F000830789078D07491371131215711312154D
:10540000A413C5131215C114CE145D1B611B651BBB
:10541000731B771B7B1B7F1B851B8D1B911B951B98
:10542000991BA51BA91BAD1BB11BB71BD51BBF1B14
:105430006F1B9D1BA11B891BBB1BCB1BDE1BE41B16
:10544000881C8F1C941C991C9E1CA31CA81CAD1CA2
:10545000B21CB71CBC1CBF1CC41CC71CCA1CCD1C66
:10546000D01CD31CD61C0E1D0E1D481D481DFC1D36
:10547000161E761D761D211E911EA01EA01E8E25B5
:105480009225EB2502260D262C262F267F26B526D3
:10549000FF25FF25CA26CD26D026F226132716275C
:0454A0001827392769
:1054A40001010201191A1B1C1D1E1F202122100AB2
:1054B4003B0E7E0EC70ECB0E130A01000000004007
:1054C40022B684016201AC00D601EF010F02000193
:1054D400020202020606060909090909090F0F0F4B
:1054E4000F0F0F1515151819191919191919191953
:1054F400192324909192939537F0F1C66766F59439
:1055040031303534979633F4F6E200E900EA00B519
:1055140000B600B700CD008301CC008A019201944B
:10552400012102230224022502260227022A02B3B1
:0855340000B4006F00700000DC
:00000001FF
