:100000000C9418030C9450030C9450030C9450035C
:100010000C9450030C9450030C9450030C94500314
:100020000C9450030C9450030C9450030C94E5284A
:100030000C948F290C949A280C9450030C94500320
:100040000C9450030C9450030C942B280C94C1284E
:100050000C9450030C9450030C9450030C945003D4
:100060000C9450030C9450030C9450030C945003C4
:100070000C94500305010902A10185020901A100A8
:100080000509190129081500250195087501810246
:100090000501093009311581257F95027508810612
:1000A00009381581257F950175088106050C0A38E8
:1000B000021581257F950175088106C0C0050109DB
:1000C00080A101850319012AB700150126B7009503
:1000D0000175108100C0050C0901A10185041901F9
:1000E0002AA002150126A002950175108100C00505
:1000F000010906A1018506050719E029E715002574
:10010000019508750181020507190029EF150025E1
:100110000195F075018102050819012905950575FC
:10012000019102950175039101C00660FF0961A16B
:10013000010962150026FF009520750881020963F8
:10014000150026FF00952075089102C005010906DB
:10015000A101050719E029E715002501950875019A
:1001600081029501750881010507190029FF150015
:1001700026FF0095067508810005081901290595D7
:100180000575019102950175039101C009025B009B
:10019000030100A0FA090400000103010100092184
:1001A0001101000122400007058103080001090434
:1001B00001000203000000092111010001222200B8
:1001C000070582032000010705030320000109043D
:1001D0000200010300000009211101000122B60004
:1001E000070584032000011201000200000008033B
:1001F000A1060001000102000118034B0042004467
:10020000005000410044002D004D004B00490049C2
:1002100000000010034B0042004400660061006EC5
:100220000073000000040309042900E000E2002A32
:100230000053005400550056005F006000610057F5
:10024000005C005D005E00570059005A005B0058DA
:10025000006200620063005800010001000100011B
:100260000001000100010001000100010001000186
:100270000001000100010001000100010001000176
:100280000001000100010001000100010001000166
:100290000001000100010001000100010001000156
:1002A0000001000100010001000100010001000146
:1002B0000001000100010001000100010001000136
:1002C0000001000100010001000100010001000126
:1002D0000001000100010001000100010001000116
:1002E000000100010001000100000000000000000A
:1002F0000000000001010203040506080A0C0F11AA
:1003000014181C2024292E33393F464C535B626A53
:100310007179818A929AA2AAB2B9C1C8CFD5DCE11B
:10032000E7EBF0F4F7FAFCFDFEFFFEFDFCFAF7F454
:10033000F0EBE7E1DCD5CFC8C1B9B2AAA29A928AA4
:100340008179716A625B534C463F39332E292420F0
:100350001C1814110F0C0A08060504030201010001
:100360000000000000000000002223252628292A82
:100370002C2D2F3032333536383A3B3D3E40424308
:100380004547494A4C4E5051535557595A5C5E6047
:1003900062646668696B6D6F71737577797B7D7F59
:1003A00081838587898A8C8E90929496989A9C9E58
:1003B0009FA1A3A5A7A8AAACAEAFB1B3B4B6B8B974
:1003C000BBBCBEBFC1C2C3C5C6C7C9CACBCCCDCEDC
:1003D000D0D1D2D2D3D4D5D6D7D7D8D9D9DADADBBF
:1003E000DBDBDCDCDCDCDCDDDDDDDDDCDCDCDCDC4B
:1003F000DBDBDBDADAD9D9D8D7D7D6D5D4D3D2D28A
:10040000D1D0CECDCCCBCAC9C7C6C5C3C2C1BFBE71
:10041000BCBBB9B8B6B4B3B1AFAEACAAA8A7A5A3DC
:10042000A19F9E9C9A98969492908E8C8A8987859B
:1004300083817F7D7B79777573716F6D6B6968667A
:100440006462605E5C5A5957555351504E4C4A494C
:1004500047454342403E3D3B3A3836353332302FF4
:100460002D2C2A292826252322FFAA7F554000016A
:100470000101010101010101020202020202020264
:100480000203030303030303030404040404040436
:1004900005050505050606060606070707070708FA
:1004A000080808090909090A0A0A0B0B0B0C0C0CAD
:1004B0000D0D0D0E0E0E0F0F0F1010111111121247
:1004C00013131414151516161717181819191A1AC4
:1004D0001B1B1C1D1D1E1E1F202021222223242425
:1004E000252626272829292A2B2C2D2D2E2F303161
:1004F0003232333435363738393A3B3C3D3E3F4073
:100500004142434445464748494A4C4D4E4F50515D
:100510005354555658595A5B5D5E5F616264656617
:1005200068696B6C6D6F7072737577787A7B7D7E9E
:100530008082838587888A8C8E8F91939596989AEE
:100540009C9EA0A2A3A5A7A9ABADAFB1B3B5B7BA06
:10055000BCBEC0C2C4C6C9CBCDCFD1D4D6D8DBDDDA
:10056000DFE2E4E7E9EBEEF0F3F5F8FAFDFF000473
:100570007F3F1F643214643214783C1E1E140A0537
:10058000000000000000000000000000000000006B
:10059000000000000000000000000000000000005B
:1005A000000000007E0F00D4FFFFFFC700000078AE
:1005B00000000000000000002A2B280000000000BE
:1005C0000000000000000000000000290000000002
:1005D0002C1E3420212224342627252E362D373870
:1005E000271E1F202122232425263333362E373879
:1005F0001F0405060708090A0B0C0D0E0F10111237
:10060000131415161718191A1B1C1D2F3130232D02
:10061000350405060708090A0B0C0D0E0F10111200
:10062000131415161718191A1B1C1D2F3130354CB1
:1006300011241FBECFEFD4E0DEBFCDBF04B603FE52
:1006400018C08091CD029091CE02A091CF02B091BE
:10065000D0028730904BA740B04B59F41092CD0296
:100660001092CE021092CF021092D002E0E0F8E396
:10067000099522E0A2E9B1E001C01D92AD3CB207AC
:10068000E1F711E0A0E0B1E0E6EEF6E502C005908A
:100690000D92A239B107D9F70E9409220C94C42AFD
:1006A0000C94000080FD02C02C9A08952C980895A7
:1006B000262F990F990F890F982F977041E001C04D
:1006C000440F9A95EAF786958695869590E063E0C3
:1006D00070E00E94E129FC01E359FD4F90E080E0C9
:1006E000622F70E05191DF0111979B01082E02C02B
:1006F000369527950A94E2F7217021952527242322
:1007000025272C9301968330910561F70895990F61
:10071000990F890FA82FA77086958695869590E0EA
:1007200063E070E00E94E129FC01E359FD4F50E0D5
:1007300040E080E0219130E00A2E02C036952795F6
:100740000A94E2F721703327042E01C0220F0A9485
:10075000EAF7822B4F5F5F4F4330510559F70895F9
:100760008091960290919502981301C008958F5F31
:100770008770FACF909121019923C1F09091920254
:1007800097FF14C0E82FE695E695E695803FF8F4CC
:10079000F0E0EC56FE4F877021E030E001C0220F00
:1007A0008A95EAF78281822B82830895A6E9B1E0D7
:1007B000EFEF90E02D91821751F0EF3F19F42111E6
:1007C00001C0E92F9F5F9630A9F7EF3F09F4089524
:1007D0000E2E000CFF0BEC56FE4FE6CF9091210140
:1007E0009923E1F09091920297FF18C0E82FE695C7
:1007F000E695E695803FF0F4F0E0EC56FE4F87700A
:1008000021E030E0A90102C0440F551F8A95E2F7AC
:10081000CA0180959281892382830895E6E9F1E0F7
:100820009191891303C0DF0111971C9251E0EC39BB
:10083000F507B1F70895982F909580918D0289233F
:1008400080938D02089580918E02811110928E0204
:1008500008959091920292FF06C0282F28712830A7
:10086000F9F4877F846093FF06C0282F2871283110
:10087000F1F4877E84612091930220FF06C0382F17
:1008800038713830D9F4877F816021FF06C0282F66
:1008900028712831D1F4877E816194FD877E089587
:1008A000282F24712430F9F68B7F8860DCCF282F25
:1008B0002471243101F78B7E8861DDCF382F3171AF
:1008C000313019F78E7F8860E0CF282F21712131D8
:1008D00021F78E7E8861E1CFCF93DF93EC01803EDC
:1008E000910509F45FC050F58133910509F4A5C065
:1008F00090F48932910509F499C08A9709F4A4C04B
:10090000C130D10509F461C0CE010497813A910547
:1009100008F054C05AC089339105E9F18238910535
:10092000D1F1C59709F47BC0C83AD10508F093C04E
:10093000C53AD10528F3A497D06447C0843E9105F9
:1009400009F452C068F4823E9105D9F1833E9105C5
:1009500009F43FC0CE01805E9109089778F535C053
:10096000863E910509F44BC0873E910509F44CC0C1
:100970008115934508F09AC0C11582E5D80708F0A3
:1009800005C1CF3FD10511F008F074C0C03FD105BB
:1009900058F2D0651AC0809192028370B1F0C0EE17
:1009A000D0E013C08091920280FD1DC1909193020E
:1009B00090FF0BC0C3EED0E084FF07C0D0E0C0E0E2
:1009C00004C08091920282FDF5CFCE01DF91CF91DC
:1009D00008958091920282FD09C19091930290FD49
:1009E000DECF84FFF2CFEACF8091930281FFEDCF7B
:1009F00080919202C7EED0E084FDE0CFE6CF8091F7
:100A0000920283FDF7CFE1CF8091920283FDF1C086
:100A10009091930291FFE5CFC4EED0E0D6CF8091C4
:100A2000920285FFD2CFC9E2D0E0CFCF809192026F
:100A300085FFCBCFC5E3D0E0C8CF8091920286FF7F
:100A4000C4CFCAE2D0E0C1CF8091920286FFBDCF71
:100A5000C1E3D0E0BACFCF3BD10508F07BCFC85A75
:100A6000D0E0CC0FDD1FCC59DE4F0990D881C02DCE
:100A7000D464ABCFC11521E5D20798F4C11580E548
:100A8000D80708F064C0C11520E2D20708F49DCF52
:100A9000CE0190548115904108F090CFDF70D06A5C
:100AA00094CFDC2FCC27C16FD06A8FCFC11589E5D9
:100AB000D807B0F5C11528E5D20708F081C0C115E7
:100AC00085E5D807D8F4C11524E5D20708F073C02E
:100AD0009E012370332781E090E002C0880F991FA8
:100AE0002A95E2F7C695C695D0E0B5E0CC0FDD1F9C
:100AF000BA95E1F7C82BD92BDA6867CFCE019555A7
:100B00008F3F910511F008F059CF8C2F0E942904D6
:100B1000C82FD0E0DC2FCC27CC27DF71D06255CF97
:100B2000C1158AE5D80708F450C0CE01905681154A
:100B3000904208F043CF8D2F8F710E94290490E0DE
:100B4000982F882788279F718C2BEC01E7CF9E0177
:100B5000E4E036952795EA95E1F723708C2F86958A
:100B60008695837090E0F5E0880F991FFA95E1F77C
:100B7000922BC37021E030E002C0220F331FCA95D0
:100B8000E2F7822B932BEC01DC681FCF9E012370D0
:100B9000332781E090E002C0880F991F2A95E2F781
:100BA000C695C695D0E075E0CC0FDD1F7A95E1F7CC
:100BB000C82BD92BE9CFDC2FCC27C46FD06A05CF47
:100BC000DC2FCC27C06FD06A00CF8C2F8F700E9493
:100BD000290434E0D695C7953A95E1F7CF709C2F5C
:100BE000EC01D069F2CEC9E3D0E0EFCEC2EED0E0A6
:100BF000ECCEC6EED0E0E9CE80E00895F894E82F80
:100C0000E295EF70F0E041A18F7021E030E0B90192
:100C100002C0660F771F8A95E2F7CB01962F909559
:100C2000942391A392A1892B82A378940895089587
:100C30008091760280FF0DC060911E0170E0660F0A
:100C4000771F60387105A8F561157105A1F1862F30
:100C5000089581FF08C060911E0170E0660F771F44
:100C6000660F771FEECF60911E0170E082FD0BC012
:100C7000809178028823D1F020911D0160911E019E
:100C800070E0821730F043E0660F771F4A95E1F776
:100C9000D8CF90E00E94E12933E0880F991F3A9560
:100CA000E1F7622F70E00E94062ACBCF68E070E087
:100CB000CECF8FE7089581E008958091760280FF7E
:100CC0000CC060911C0170E07595679575956795EE
:100CD0006115710559F1862F089581FF06C0609155
:100CE0001C0170E075956795F3CF60911C0170E071
:100CF00082FD0CC0609177026623A9F020911B0150
:100D000080911C0190E0621730F0BC0160387105E1
:100D1000F8F28FE7089570E00E94E129622F70E0F9
:100D20000E94062AF3CF61E070E0D5CF81E00895FC
:100D3000E0E1E80FE031E0F5F0E0EA53F54D0C9426
:100D40001A2A0E941806819580937C0208950E94B9
:100D50001806FACF0E941806819580937B020895A9
:100D60000E941806FACF0E945D0680937D020895C6
:100D70000E945D068195F9CF0E945D068195809362
:100D80007E0208950E945D06FACF845F990B21E0F0
:100D900030E001C0220F8A95EAF780917A02822B17
:100DA00080937A0208958091760281608093760222
:100DB0000895809176028260F9CF809176028460F6
:100DC000F5CF40917B02803F59F480917C0287FFF0
:100DD0000DC010927C0241110BC01092780208C025
:100DE000813F81F480917C0218169CF3442381F0AA
:100DF00080917D0290917E02892B09F05AC0109259
:100E000077020895823F49F447FFF0CF10927B02AA
:100E100080917C028111ECCFE0CF833F19F414164E
:100E2000ACF3E4CF90917D02893F29F41916F4F6D2
:100E300010927D02DBCF8A3F19F497FFD7CFF8CF0E
:100E400090917E028B3F29F497FFD0CF10927E02C3
:100E5000CDCF8C3F19F41916CCF3C8CF9CE0980F76
:100E6000953090F4845F990B21E030E0B90102C025
:100E7000660F771F8A95E2F7CB01809590917A02F1
:100E8000892380937A02B2CF8D3F31F4809176022C
:100E90008E7F80937602AACF8E3F21F480917602D6
:100EA0008D7FF7CF8F3F09F0A1CF809176028B7FA6
:100EB000F0CF08959F92AF92BF92CF92DF92EF92C0
:100EC000FF920F931F93CF93DF938901E42FF0E0FC
:100ED000E259FB4F611113C03491232F432FF801C6
:100EE000418330832283DF91CF911F910F91FF9037
:100EF000EF90DF90CF90BF90AF909F900895282FF4
:100F000030E0C62FD0E04491C42ED12CC90166E058
:100F100070E00E94E1297C01EFEFF0E0BF010E9448
:100F2000F229DB01220F331FCB0165E570E00E943F
:100F3000E129281B390BA22EAA0CA20ECF018C1B73
:100F40009D0BB6010E94E129392F992EB12CC501C4
:100F5000BE010E94E129892F90E0BF01681B790B37
:100F6000CB01B6010E94E129292FCF018A199B09E3
:100F7000BE010E94E129892F90E0BF01681B790B17
:100F8000CB01B6010E94E129A330B105C1F07CEF8D
:100F9000E71673E0F70668F4A130B105A1F01297E7
:100FA000B1F08FEFE816F10408F099CF232F392F15
:100FB00096CFA430B10571F01697C1F390CF322FC0
:100FC000242F492D8CCF342F422F292D88CF292F24
:100FD000342FF7CF242F492F82CF80918802982F6A
:100FE0009E7F29F4817082608093880208958A34FC
:100FF000E8F381708864F8CFFA0181110994FB014C
:10100000FDCF0F931F93CF93DF9300D000D000D07C
:10101000CDB7DEB78C0180918600909187006CE09F
:1010200070E00E94F2296017710788F0C80169E03A
:1010300070E00E94F229CB0126960FB6F894DEBF2D
:101040000FBECDBFDF91CF911F910F910895809179
:1010500086009091870020918600309187003E8322
:101060002D832091860030918700E6E0F0E0BF01FB
:101070000E94F229C801B0E0A0E0860F971FA11DD1
:10108000B11DAC01BD0185E0440F551F661F771FE0
:101090008A95D1F749835A836B837C838D819E81A6
:1010A000BF010E94F22950E040E0260F371F411D8A
:1010B000511D69817A818B819C810E94A22A29839A
:1010C0003A834B835C8360918600709187007E83B6
:1010D0006D83CA01B9010E94892AED81FE819F01B9
:1010E00050E040E00E94892A29813A814B815C814D
:1010F0000E94892A69837A838B839C83AB01BC011C
:101100009FE076956795579547959A95D1F7809189
:10111000860090918700B0E0A0E084179507A607AD
:10112000B70720F44091860050918700CA0184CF10
:10113000CF93DF9300D000D0CDB7DEB7863088F5EF
:10114000811130C090918000977F909380002F98FC
:101150002091860030918700A90170E060E049830A
:101160005A836B837C83282F30E050E040E0698114
:101170007A818B819C810E94892A25E030E040E0C1
:1011800050E00E94A22AC9010E94010890938D009C
:1011900080938C000F900F900F900F90DF91CF9164
:1011A000089585E090918000986090938000D0CF62
:1011B000282F220F220F220F909183029770922BDB
:1011C00090938302987F21E009F420E090918302BC
:1011D00020FB90F9909383020C949808E0914B02C5
:1011E000F0914C02309721F00190F081E02D0994AC
:1011F00080E008952091E5013091E6012817390734
:1012000071F09093E6018093E501E0914B02F0913B
:101210004C02309721F00680F781E02D0994089563
:101220002091E3013091E4012817390771F0909380
:10123000E4018093E301E0914B02F0914C0230977E
:1012400021F00084F185E02D099408952FB7F894DA
:101250008091370290913802A0913902B0913A0200
:101260002FBF08950E94260920917B0230917C02B5
:10127000232B21F0809334029093350220917D023C
:1012800030917E02232B21F080933202909333021F
:10129000E0914B02F0914C02309749F082E080934C
:1012A00079020480F581E02D89E792E009940895A0
:1012B0009C014FB7F8948091370290913802A09129
:1012C0003902B0913A024FBF821B930B089580916F
:1012D000E20108950895FC01CB012091BD013091F8
:1012E000BE012617370790F0009729F42091E800F7
:1012F0002E772093E80040E0009751F4411108C098
:101300008091E80082FF30C080E00895C901F3CFEA
:1013100020913B022223A1F12530A1F12091E80088
:1013200023FD2CC02091E80022FDEACF2091E800A7
:1013300020FFE2CF2091F20030E0009719F0283032
:10134000310558F041E02830310509F040E02091A6
:10135000E8002E772093E800CFCF41914093F10031
:1013600001972F5F3F4FE9CF80913B02882341F0E7
:10137000853041F08091E80083FFC2CF81E008957D
:1013800082E0089583E008958091B70187FF13C03C
:101390008091E80082FF06C08091E8008B778093FF
:1013A000E80004C080913B028111F2CF0895809142
:1013B0003B028823D9F38091E80080FFF8CF809129
:1013C000E8008E77ECCF2091E4003091E50095E6BF
:1013D000A9012091EC00822F817020FF06C080912E
:1013E000E80080FF06C080E008952091E80022FD1B
:1013F0001AC080913B02882389F0853089F0809162
:10140000EB0085FD0FC02091E4003091E50042170C
:101410005307F9F29150E1F684E0089582E00895CF
:1014200083E0089581E00895EF92FF920F931F9358
:10143000CF937C018B010E94E309C82F811117C053
:101440008091E80085FD0BC08091E8008E77809345
:10145000E8000E94E309882399F3C82F08C0F70128
:1014600081917F018093F1000150110949F78C2F80
:10147000CF911F910F91FF90EF900895982F909327
:10148000E900242F762F50E0891731F07091EC009D
:101490002091ED005091F00021FD06C09F5F953036
:1014A00071F78093E90008953091EB003E7F30930F
:1014B000EB003091ED003D7F3093ED003091EB007B
:1014C00031603093EB007093EC002093ED0050936B
:1014D000F0002091EE0027FDE1CF08958091880271
:1014E00080FD0AC0EAEEF1E011821082128233968A
:1014F00052E0EA31F507C1F7259A35B13F7D25B1B4
:1015000020624FB7F8948AEE91E0FC010196508179
:1015100068E025B9000000C057FF35B9550F00003D
:1015200000C000C000C035B900C06A9591F752E014
:101530008A31950751F74FBF8FE594E00197F1F796
:1015400000C000000895EF92FF920F931F93CF9376
:10155000DF93EC010AEE11E0F12CE12C9C8160910B
:101560008A028091890228E0E216F104FCF49923B2
:10157000F9F0980140918B020E945A078FEFE81A08
:10158000F80A0D5F1F4F20E1E216F10439F70E94BF
:101590006E0A8C8190E00196817099278C83DF918F
:1015A000CF911F910F91FF90EF900895992309F328
:1015B000980140E0E1CFEF92FF921F93CF93DF932A
:1015C000EC018AEEE82E81E0F82E10E08C81970184
:1015D00040918B0260918A02810F0E945A07115F2D
:1015E00083E0E80EF11C103F89F70E946E0A9A8191
:1015F0008C8190FF08C08F5F8C83DF91CF911F910A
:10160000FF90EF9008958150F7CFCF92DF92EF9245
:10161000FF920F931F93CF93DF93FC018281DD2410
:10162000DA9480FD02C0DD24D394CAEED1E010E04C
:1016300000E0198218821A8294E0E92EF12CC12C64
:101640008091E9018C0D8131CCF18F70082E000C56
:10165000990B8017910791F480918B0290E0B7016C
:101660000E94E129AC0155954795559547959E01F6
:1016700060918A02809189020E945A07CD0CF1E0A4
:10168000EF1AF108E9F60F5F1F4F2396003111059D
:1016900081F60E946E0A8091E90191E0D91212C090
:1016A000882399F081508093E901DF91CF911F91B8
:1016B0000F91FF90EF90DF90CF90089587FFC6CFF6
:1016C000805FC4CF8F5F8F70EECF8FE0ECCF0F9332
:1016D0001F93CF93DF93CAEED1E0FE0111821082F7
:1016E0001282339682E0EA31F807C1F710E000E099
:1016F0008091E801082E000C990B081719078CF14E
:1017000080910301082E000C990B801791074CF172
:101710009E0140918B0260918A02809189020E9411
:101720005A070F5F1F4F23960031110509F70E94DA
:101730006E0A809102019091E801980F9093E80160
:1017400020910301280F20930301121614F49F30F7
:101750001CF0819580930201DF91CF911F910F9131
:101760000895198218821A82DCCFCF92DF92EF920D
:10177000FF920F931F93CF93DF93CDB7DEB72A97D6
:101780000FB6F894DEBF0FBECDBF8C01DC011496FE
:10179000BC91BD832B2F30E050E040E029833A8399
:1017A0004B835C83CA01B9010E94892A29813A814D
:1017B0004B815C810E94892A69837A838B839C8315
:1017C00080E290E04D81841B91099C01990F440BAC
:1017D000550B2D833E834F83588725E530E040E04D
:1017E00050E069817A818B819C810E94892A7B01EA
:1017F0008A8799872D813E814F815885CA01B90119
:101800000E94892A2D813E814F8158850E94892A14
:101810006D837E838F8398879B01AC0189819A8138
:10182000AB81BC81280F391F4A1F5B1FB7018A8516
:1018300099850E94A22AD22E822F90E0A9E2A217B7
:1018400008F449C063E070E00E94E129AC0197FF11
:1018500002C04F5F5F4F55954795B42FB095B98340
:101860008AEEE82E81E0F82E1D8285E5C82ECD187F
:101870002D818C2D21FD8D2D9701498160918A024A
:101880000E945A073D813F5F3D8343E0E40EF11C17
:10189000303171F70E946E0AD80114969C9181E054
:1018A000992319F0903219F48FEF80930101809100
:1018B0000101890FF80184832A960FB6F894DEBFE0
:1018C0000FBECDBFDF91CF911F910F91FF90EF9091
:1018D000DF90CF90089525E530E0F901E81BF90B82
:1018E000CF0163E070E00E94E129AC0197FF02C0E4
:1018F0004F5F5F4F55954795F42FF095F983B0CF23
:101900009091880290FF0CC0EAEEF1E08183608341
:101910004283339692E0EA31F907C1F70C946E0ADC
:1019200008950F931F93CF93DF9300D00F92CDB7FD
:10193000DEB78C018091E70181110AC09E012F5F03
:101940003F4F4FEF6FEF0E945A078A818093E70164
:10195000F8016481613049F06230F1F08091E70173
:1019600040E0662331F040E019C06091E70140E0BB
:1019700080E00E94800CF801848190E0019663E091
:1019800070E00E94062A84830F900F900F90DF91E1
:10199000CF911F910F9108954091E70180E060E0A1
:1019A000E8CFCF93DF9300D00F92CDB7DEB7909101
:1019B000880290FF0FC09E012F5F3F4F0E945A0781
:1019C0004B8169818A810F900F900F90DF91CF91A9
:1019D0000C94800C0F900F900F90DF91CF91089591
:1019E000CF93DF93EC01EC81F0E0E759FC4F449199
:1019F000E8E8F2E0628181810E94D10C8C818F5FE6
:101A00008C83DF91CF910895CF93DF93EC01E8E8C9
:101A1000F2E0438162818C810E94D10C8C818F5FC6
:101A20008C83DF91CF91089581E08093E00080E284
:101A30008093D8001092C9008FE19EE40197F1F7DE
:101A400000C0000087E090EBDC018093CD02909312
:101A5000CE02A093CF02B093D00288E19CE00FB6F3
:101A6000F894A895809360000FBE90936000FFCF1C
:101A7000CF93DF93D82FC92F809121018823C1F103
:101A80008091920287FF34C060E284E08093E90095
:101A90008FEF9091E800815095FD06C095ED9A95E5
:101AA000F1F700008111F5CF8091E80085FF1DC09E
:101AB0008091210170E050E040E0811104C050E0CD
:101AC00040E068E070E08D2F9C2F0E94140A809106
:101AD000E8008E778093E80080E2ED2FFC2FA2ECE7
:101AE000B1E001900D928A95E1F7DF91CF910895D1
:101AF00068E081E0CBCF24E02093E9002FEF309124
:101B0000E800215035FD06C035ED3A95F1F70000AB
:101B10002111F5CF2091E80025FF0BC050E040E0F7
:101B200066E070E00E94140A8091E8008E7780934E
:101B3000E80008958093BF017093C1016093C001D4
:101B400080913B028430F9F48093E9008FEF90910B
:101B5000E800815095FD06C095ED9A95F1F70000DB
:101B60008111F5CF8091E80085FF0DC050E040E085
:101B700063E070E08FEB91E00E94140A8091E8002E
:101B80008E778093E8000895BC0183E00C949A0D51
:101B9000BC0184E00C949A0D4F925F926F927F92F9
:101BA0008F929F92AF92BF92CF92DF92EF92FF926D
:101BB0000F931F93CF93DF93D0E0C0E030E3A32EC9
:101BC000B12C8E0183E0000F111F8A95E1F73E01D1
:101BD000660C771C660C771C1DC0F60185909490EE
:101BE000692DC7010E94552A682DC70101960E94E0
:101BF000552A22E0C20ED11C32E0E30EF11C4E1435
:101C00005F0459F7085F1F4F84E0680E711CA0162F
:101C1000B10681F0C301880F991F9C01275D3D4FDC
:101C20006901780137E2E30EF11C28018FE2480ECA
:101C3000511CD3CF20E3A20EB11C2696C831D1058A
:101C400009F0BFCFDF91CF911F910F91FF90EF90DF
:101C5000DF90CF90BF90AF909F908F907F906F90CC
:101C60005F904F900895682F86E090E00C94552A7D
:101C70008091830281FD10C08260809383020E9464
:101C8000330E10921F0210921E0210921D028091BC
:101C90006F00816080936F0008958091830281FFBF
:101CA00011C08D7F809383020E94330E80916F005C
:101CB0008E7F80936F0080918302869586958695AE
:101CC0000C9498080895CF93C82F6FEF811162E2AA
:101CD00083E290E00E94552A6FEFC11164E084E234
:101CE00090E00E94552A6FEFC11165E285E290E015
:101CF000CF910C94552ACF93DF93C7EED0E060E0EC
:101D0000CE010E94552A2196C11584E0D807B9F763
:101D1000DF91CF91089580E00E94630E60E086E23B
:101D200090E00E94552A0E94CC0D0E947B0E81E01B
:101D30000C94630ECF9384E090E00E94412AC82F58
:101D400082E290E00E94412A982F8C2FCF91089533
:101D500083E290E00E94412A823289F484E290E09A
:101D60000E94412A843059F485E290E00E94412A81
:101D700091E0853209F090E0892F8170089580E02C
:101D8000FCCF0F931F93CF93DF93C62FD0E093E048
:101D9000CC0FDD1F9A95E1F750E0440F551FC40F9B
:101DA000D51F90E060E370E00E94E129C80FD91FC1
:101DB000CE0187960E94412A082F10E0102F00279D
:101DC000CE0188960E94412A9801282BC901DF91F3
:101DD000CF911F910F910895462F672F763030F4E1
:101DE000982F942B943010F40C94C10E90E080E066
:101DF0000895DF92EF92FF920F931F93CF93DF939B
:101E00007C010091900280918F02082BC7E0D0E006
:101E100010E0DC2EC8010C2E02C0959587950A941F
:101E2000E2F780FD0CC02197A0F7D12C8D2DDF911A
:101E3000CF911F910F91FF90EF90DF900895B70120
:101E40008C2F0E94EC0E0E946C04019761F3EECF80
:101E50000F931F93CF93FC0182810081118188230E
:101E600089F0662379F0C8010E94F90EC82F682F07
:101E7000C8010E945803B8018C2FCF911F910F9178
:101E80000C94EC0EC8010E948703C82FF4CFCF93A7
:101E9000DF93D82FC92F0E94F90E6D2F7C2F0E943F
:101EA000EC0EDF91CF910C946C040E94470F282F09
:101EB00092959F70963091F060F4925F9F7092308F
:101EC00030F481E0203F81F030F4283E30F080E0B3
:101ED00008959A5FF3CF243FD1F7089581E0283E1B
:101EE000E0F3213FA1F7F9CF089580918D02909101
:101EF0009402892B8093940190918E029923A1F0F2
:101F0000892B80939401809121018823D9F18091BC
:101F1000920287FF37C08EE1E6E9F1E090E0815060
:101F200098F591110E94230440E250E06DE472E0C4
:101F300084E991E00E94342A892B59F180E2E4E996
:101F4000F1E0ADE4B2E001900D928A95E1F7E09105
:101F50004B02F0914C023097E1F0809121018823EF
:101F600059F08091920287FF07C08091940180937D
:101F7000950186E0809394010280F381E02D84E94D
:101F800091E0099486E0C8CF2191222341F29F5F1E
:101F9000C6CF0895882309F452C0823871F40E9494
:101FA000EE0881FF4CC089E30E94BA030E94750FBE
:101FB00089E30E94EE030C94750F833859F40E9454
:101FC000EE0880FF3CC083E50E94BA030E94750FB3
:101FD00083E5EFCF843859F40E94EE0882FF2FC0CA
:101FE00087E40E94BA030E94750F87E4E2CF9CEF5A
:101FF000980F913AF0F290E2980F983050F4877071
:1020000091E001C0990F8A95EAF7892F0E941B047D
:10201000D2CF9BE5980F933020F490E080E00C94B1
:10202000FA0898E5980F973120F490E080E00C943E
:102030001009803F20F00E94E1060C9432090895B7
:10204000882339F090918D02892B80938D020C9416
:10205000750F0895882321F00E941B040C94750FBE
:10206000089590E080E00E94FA0890E080E00E94ED
:102070001009109294020E94750F86E0E9E7F2E0E1
:10208000DF011D928A95E9F710927802109277028B
:10209000109276020C94320910928D0280912101E7
:1020A000E6E9F1E0882359F08091920287FF07C0AA
:1020B0008EE1DF011D928A95E9F70C94311086E0DC
:1020C000F8CF1F93CF93DF93CDB7DEB7AA970FB6A4
:1020D000F894DEBF0FBECDBF87EB91E0FC01019607
:1020E0002091F100208321E08F3B9207B9F7809186
:1020F000B801893009F456C0C8F4823009F4B1C07F
:10210000833009F480C0813071F18091E80083FF51
:1021100081C28091B7019091B8019A3008F07AC2DB
:10212000E92FF0E0EA52F54D0C941A2A8A3009F4AE
:1021300087C08B3051F78091B701813231F78091A0
:10214000BB019091BC01892B01F78091E800877F4A
:102150008093E8000E94C4098091B9018093210115
:102160000E944C10D2CF8091B701813A71F68091D4
:10217000E800877F8093E8008091BB019091BC01CB
:10218000892B61F460E282EC91E070E00E946B09BF
:102190008091E8008B778093E800B7CF60E090E013
:1021A00080E0F3CF8091B701813209F0AECF80910A
:1021B000BB019091BC018D7F892B09F0A6CF809146
:1021C000E800877F8093E8008091E80082FF16C0D6
:1021D0008091F200823031F48091F100813011F071
:1021E000863021F48091F1008093E2018091E80033
:1021F0008B778093E8000E94C40987CF80913B02CF
:102200008111E2CF82CF8091B701813A09F07DCF71
:102210008091BB019091BC01892B09F076CF809110
:10222000E800877F8093E8008091E80080FFFCCF82
:10223000809121018093F1008091E8008E77D9CFC1
:102240008091B701813209F060CF8091E800877FEB
:102250008093E8000E94C4098091BA018093B6017E
:1022600054CF8091B701813A09F04FCF8091E800B7
:10227000877F8093E8008091E80080FFFCCF809109
:10228000B601D8CF803899F0823809F0C3C1809167
:10229000BB018F70853008F0BDC18093E90080914B
:1022A000EB0085FB882780F91092E90006C0809139
:1022B0001A0290912402911182609091E800977F18
:1022C0009093E8008093F1001092F1008091E80073
:1022D0008E779CC1882309F48AC1823009F09AC1A3
:1022E0008091B90181118DC18091BB018F702FEF59
:1022F000280F243008F08EC18093E9002091EB0074
:1023000020FF7FC1933031F48091EB008062809395
:10231000EB0077C19091EB0090619093EB0021E08E
:1023200030E001C0220F8A95EAF72093EA0010926C
:10233000EA008091EB008860EACF81116BC11091B7
:10234000B9011F778091E3008078812B8093E300AF
:102350008091E800877F8093E8000E94C409809103
:10236000E80080FFFCCF8091E30080688093E30069
:1023700082E0111183E080933B024CC1805882308F
:1023800008F048C14091B9015091BA014C3D83E039
:10239000580799F583E08A838AE289834FB7F894D6
:1023A000DE01139620E03EE051E2E32FF0E050938F
:1023B0005700849120FF03C082958F703F5F8F701C
:1023C0008A30C8F0895C90E08D939D932F5F243113
:1023D00061F74FBF8091E800877F8093E8006AE251
:1023E00070E0CE0101960E946B098091E8008B7726
:1023F0008093E8000FC1805DE6CF8091BB01909192
:10240000BC01252F33272330310509F44AC078F564
:102410002130310509F479C08BE590E0ECE8F1E07A
:102420002230310509F0F6C02091E800277F209383
:10243000E8002091BD013091BE018217930708F496
:102440009C0140E02115310509F064C0411162C0D2
:102450008091E80082FDC9CF80913B02882329F258
:10246000853019F28091E80083FFF2CFBECF213290
:10247000310509F43BC02232310509F0CBC083306D
:10248000910508F0C7C0FC01EE0FFF1FE75DFE4F8E
:102490000190F081E02D8A5D9E4FDC018C9190E0EF
:1024A00011C0CA019927413089F082309105B1F0FD
:1024B000892B09F0AFC0E5E2F2E0E4918E2F90E0C5
:1024C000E5E2F2E0009709F4A5C0AECFE3E1F2E067
:1024D000E4918E2F90E0E3E1F2E0F4CFE9EFF1E058
:1024E000E4918E2F90E0E9EFF1E0ECCF833091059D
:1024F00008F090C0880F991FFC01E15DFE4F01902C
:10250000F081E02D89E090E08FCF82E190E0E7EE6E
:10251000F1E08ACF80913B02882309F466CF8530B1
:1025200009F463CF8091E80083FD5FCF8091E800DC
:1025300082FD8ECF8091E80080FF84CF8091F200F1
:1025400090E02115310519F08830910550F041E0F7
:10255000089709F040E08091E8008E778093E800CA
:1025600071CF44914093F100319621503109019689
:10257000E8CF803809F04EC08091E800877F8093D3
:10258000E80080911B028093F100A0CE811142C02F
:102590001091B9011230F0F58091E800877F8093A7
:1025A000E80010931B020E94C409112311F084E07B
:1025B00005C08091E30087FDFACF81E080933B0264
:1025C00042E061EC81E00E943E0A42E261EC84E07C
:1025D0000E943E0A42E261EC82E00E943E0A42E230
:1025E00060EC83E00E943E0A80913B0213C0809120
:1025F000B901813079F481E0933009F080E0809373
:1026000024021092E9008091E800877F8093E8001F
:102610000E94C4098091E80083FF0AC08091E8000D
:10262000877F8093E8008091EB0080628093EB00CD
:10263000AA960FB6F894DEBF0FBECDBFDF91CF9143
:102640001F91089580938F020C9431108093900213
:102650000C94311021E030E001C0220F8A95EAF796
:1026600080919002822B0C94261321E030E001C06F
:10267000220F8A95EAF720958091900282230C948C
:102680002613909191028095892380939102282F9F
:10269000277091F4282F082E000C330B9217130685
:1026A00059F09091930292FD07C085958595859587
:1026B0000E943513109291020895CF93C091930216
:1026C000C2FB992790F9981799F080FBC2F9C09343
:1026D00093026091920284E090E00E94552A6C2F50
:1026E00082E290E00E94552A82E0CF910C9441133F
:1026F000CF91089580919002982F9670963019F49A
:1027000088600C942613877FFCCF5F926F927F9234
:102710008F929F92AF92BF92CF92DF92EF92FF92F1
:102720000F931F93CF93DF9300D000D000D0CDB78D
:10273000DEB71A821982FE01339684E0DF011D9212
:102740008A95E9F78AE5E82E81E0F82E8E010F5F81
:102750001F4F90E6C92E91E0D92E3801AA24A394E8
:10276000B12C34E6832E31E0932EF70181917F0165
:102770008F3F09F440C0F894E82FE295EF70F0E045
:1027800021A18F70A50102C0440F551F8A95E2F761
:10279000CA01922F982B91A392A18095892382A39D
:1027A000789400C0E0E6F1E031E0512C21912F3F18
:1027B00009F45AC0A22FA295AF70A05EB0E08C9130
:1027C00090E02F7002C0959587952A95E2F780FDDD
:1027D0004BC0832F582A330F8E169F0639F7F70107
:1027E000319780818F3F11F00E94FE0550EA5A9583
:1027F000F1F7D8015C920F5F1F4FCE14DF0409F090
:10280000B4CF46E050E0B30185E492E00E94342A60
:102810009C0111E0892B09F410E0232B39F186E0AB
:10282000F301A5E4B2E001900D928A95E1F781E011
:1028300080933E020E94260990933D0280933C02C1
:1028400080913C0290913D020E945809059790F0BA
:1028500086E0E5E4F2E0AFE3B2E001900D928A9504
:10286000E1F710923E0206C080E0B4CF80913E02B4
:102870008111E6CF812F26960FB6F894DEBF0FBEEA
:10288000CDBFDF91CF911F910F91FF90EF90DF901F
:10289000CF90BF90AF909F908F907F906F905F9000
:1028A00008950F931F93CF93DF938B01D82FC92FD8
:1028B0000E94ED07A8016D2F7C2F88E090E0DF914A
:1028C000CF911F910F910C94672AE8E8F2E083E022
:1028D000808311828FEF82838383148263E070E0B0
:1028E0008FEF9FEF0C945114CF93DF9300D000D063
:1028F000CDB7DEB780918C02833018F48F5F809360
:102900008C028091880290918902A0918A02B091F4
:102910008B0289839A83AB83BC83BC01CD010F906A
:102920000F900F900F90DF91CF910C945114CF9393
:10293000DF9300D000D0CDB7DEB780918C02882322
:1029400019F0815080938C028091880290918902C5
:10295000A0918A02B0918B0289839A83AB83BC8356
:10296000BC01CD010F900F900F900F90DF91CF9190
:102970000C9451147F928F929F92AF92BF92CF92FC
:10298000DF92EF92FF920F931F93CF93DF9300D0CC
:1029900000D000D00F92CDB7DEB7182FF62E042F3F
:1029A000E22E9091880290FF81C0E92FE695AE2F2C
:1029B000B0E0AB5CBE4F8C91809386029E7F9230DC
:1029C000B9F59E012F5F3F4F812F0E945A074B811F
:1029D00069818A810E94800C10938902F0928A0298
:1029E00000938B02EE2009F461C0809188029091DF
:1029F0008902A0918A02B0918B028C839D83AE8361
:102A0000BF83BC01CD0127960FB6F894DEBF0FBE81
:102A1000CDBFDF91CF911F910F91FF90EF90DF908D
:102A2000CF90BF90AF909F908F907F900C94511457
:102A3000823019F400918B02CFCF863019F41091B7
:102A40008902CACF8930D9F3893131F6E9512E2F65
:102A50002170722EE695F0E0E759FB4F8590949037
:102A600099243AEEC32E31E0D32EB12CA12CC5010E
:102A700024E0969587952A95E1F7711013C0810F90
:102A80009601402F6F2D0E945A07A80CB91CB3E085
:102A9000CB0ED11C2AE1C21622E0D20641F70E94D9
:102AA0006E0A9ACFA12FA81B8A2FEACF27960FB6BE
:102AB000F894DEBF0FBECDBFDF91CF911F910F9174
:102AC000FF90EF90DF90CF90BF90AF909F908F904E
:102AD0007F900895E8E8F2E0818121E043816281FE
:102AE000885F0C94BA14E8E8F2E0818121E0438128
:102AF000628188500C94BA14E8E8F2E0628128E020
:102B0000620F08F46FEF21E0438181810C94BA14C5
:102B1000E8E8F2E0628128E0621B08F460E021E06E
:102B2000438181810C94BA14E8E8F2E0438128E003
:102B3000420F08F44FEF21E0628181810C94BA14B6
:102B4000E8E8F2E0438128E0421B08F440E021E09D
:102B5000628181810C94BA1469EE7EEF90E080E08E
:102B60000E94732A60E082E090E00E94552A60E0B3
:102B700083E090E00E94552A10928F0260E084E08A
:102B800090E00E94552A60E082E290E00E94552A7F
:102B900060E085E090E00E94552A60E086E090E0E9
:102BA0000E94552A6FEF87E090E00E94552A40E08E
:102BB00050E0BA0188E090E00E94672A60E08DE072
:102BC00090E00E94552A40E050E0BA0188E190E090
:102BD0000E94672A60E087E190E00E94552A40E069
:102BE00050E0BA018CE190E00E94672A70E060E05A
:102BF00080E290E00E94732A40E050E0BA0188E150
:102C000090E00E94672A80E00E94630E0E948B0E73
:102C100040E050E0BA018FE090E00E94672A40E077
:102C200050E0BA0183E190E00C94672AEBEFE80FE3
:102C3000EF3308F06CC0F0E0E052F54D0C941A2A26
:102C40000E94AC1581E0089580912502807F8093D9
:102C5000250281E08093820208950E944C102FEF9C
:102C600084E39CE0215080409040E1F700C00000E8
:102C70000E94140D90912502892F8E7F90FF816014
:102C80008093250280FDDECF817F80932502DACFFD
:102C900090912502892F8D7F91FF8260809325027C
:102CA00081FFD0CF809125028160EFCF90912502E6
:102CB000892F8B7F92FF84608093250282FDF2CF63
:102CC000C1CF90912502892F877F93FF88608093E1
:102CD000250283FDE7CFB6CF0E944C10909192025F
:102CE000892F97FB87F9805880939202ABCF81E0C0
:102CF0000E9422130E944C10A5CF895391E001C07D
:102D0000990F8A95EAF7892FF3CF8D51F7CF80E09D
:102D10000895CF93C82F882309F487C08238C1F45F
:102D20000E94EE0881FD81C089E30E94BA030E94DF
:102D3000750F2FEF31EE84E0215030408040E1F7F5
:102D400000C0000089E30E94EE03CF910C94750F40
:102D50008338A1F40E94EE0880FD67C083E50E94DD
:102D6000BA030E94750F9FEF21EE34E0915020408E
:102D70003040E1F700C0000083E5E5CF8438A1F4DE
:102D80000E94EE0882FD51C087E40E94BA030E94AF
:102D9000750F8FEF91EE24E0815090402040E1F7D5
:102DA00000C0000087E4CFCF8CEF8C0F813A08F091
:102DB000DEC080918202813079F0823049F1811148
:102DC000A2C080918D02823209F09FC08C2F0E9498
:102DD000161681112AC099C080918D028232B1F3FA
:102DE000C43171F030F4CB3089F0C03161F080E053
:102DF00005C0C93229F081E0C833C9F78170E9CF35
:102E000010928202F4CF82E08093820281E0F6CFBA
:102E1000CF3409F470C0C0F4C83248F4CE3188F51C
:102E2000C73009F455C0C43121F0CF910895C9329B
:102E3000E1F7809181028823C1F310928102109200
:102E4000800210927F02F1CFC13509F456C081E0B3
:102E5000C23519F086EFC03541F7E0917F02F0915D
:102E60008002309711F32081082E000C990B820FFD
:102E7000911D8F3F910509F00CF441C08FEF8083C5
:102E8000D4CFCD51C0938102C430E1F068F4C23098
:102E9000B1F08EE191E0C33069F080E291E0C130A1
:102EA00049F010928102C1CFC53079F08BE191E0F9
:102EB000C630B9F79093800280937F02B6CF8FE13E
:102EC00091E0F8CF8DE191E0F5CF8CE191E0F2CF88
:102ED00081E08093200184E180931F018AE0809348
:102EE0001E018EE180931D0188E080931C0188E221
:102EF00080931B019ACF8AE0B0CF8FEFAECF97FFC0
:102F0000BECF108292CF109282028091210188233D
:102F100001F18091920287FF1CC0EC2FE695E695A7
:102F2000E695F0E0EC56FE4F828190E04C2F477022
:102F300021E030E002C0220F331F4A95E2F78223DE
:102F40009323892B81F08C2F0E94EE030E94750F32
:102F50000AC0E6E9F1E08CE991E02191C21799F30A
:102F60008E179F07D1F78C2F0E94BA03EECE80E216
:102F70008C0F883068F4C77021E030E001C0220F68
:102F8000CA95EAF780918D02822B80938D02DDCE67
:102F90008BE58C0F833038F42C2F2452330BC9016E
:102FA000CF910C94FA08E8E5EC0FE73150F4F0E02B
:102FB000EE0FFF1FEC59FE4F80819181CF910C9451
:102FC0001009C03F08F431CF8C2F0E949806CF9192
:102FD0000C9432090F931F93CF93C82F10E000E099
:102FE000893311F400E510E08C2F0E948916011539
:102FF000110531F48C2FCF911F910F910C94CA0FB2
:103000008FE99FE00197F1F700C00000015011091E
:10301000EECFFF920F931F93CF93DF93C62FD42F42
:10302000122F8823A9F0609384020E9426099093AE
:10303000B5018093B401C77081E001C0880FCA95C3
:10304000EAF7DF91CF911F910F91FF900C94201020
:1030500080918402681334C08091B4019091B501CD
:103060000E945809883C910558F500E20D0FCD17D4
:10307000A9F0C770FF24F3948F2D01C0880FCA9563
:10308000EAF70E942A10083048F48D2F877001C09B
:10309000FF0C8A95EAF78F2D0E942010812F0E9445
:1030A000EA170830A0F4D77081E001C0880FDA95E4
:1030B000EAF7DF91CF911F910F91FF900C942A10A6
:1030C000C77081E001C0880FCA95EAF7F2CFDF919F
:1030D000CF911F910F91FF90089590E080E00E94A2
:1030E0004F2A893E9E4F11F40C94A80E80E008955B
:1030F0000E946D1881110AC00E94AC158091830254
:1031000084708962809383020E94330E86E090E08F
:103110000E94412A80938302803320F08770886266
:103120008093830290918302892F817090FF04C065
:10313000892F8695869586950C94980860918802CB
:10314000669570E04BE050E084E091E00E94272A11
:10315000892B19F481E0809387020E9426099093BD
:103160002D0280932C020895CF93DF9300D000D0DE
:10317000CDB7DEB79091880290FF45C08823E1F17A
:103180008532E0F58F77880F909188029170892BB6
:1031900080938802662381F0809188029091890251
:1031A000A0918A02B0918B0289839A83AB83BC83FE
:1031B000BC01CD010E94511460918802669570E0B7
:1031C0004BE050E084E091E00E94272A892BC1F077
:1031D0001092870281E080932F0220E040918B02C1
:1031E00060918A02809189020F900F900F900F904A
:1031F000DF91CF910C94BA1481E0C5CF84E2C3CFA4
:103200000E949E18E7CF0F900F900F900F90DF91C4
:10321000CF9108958091880286958F5F853208F05E
:1032200081E061E00C94B4189091880296958FEF3C
:10323000890F913009F484E261E00C94B418909104
:10324000880290FF07C09695981720F0961710F403
:103250000C940A1961E00C94B4184F925F926F922B
:103260007F928F929F92AF92BF92CF92DF92EF9216
:10327000FF920F931F93CF93DF93CDB7DEB72897BD
:103280000FB6F894DEBF0FBECDBF7C01DC019C9170
:1032900011968C91119713962D913C91232B21F02F
:1032A00089238F3F09F0E3C528960FB6F894DEBF57
:1032B0000FBECDBFDF91CF911F910F91FF90EF9087
:1032C000DF90CF90BF90AF909F908F907F906F9046
:1032D0005F904F900895980122513F45203131056C
:1032E00008F0B1C58FEF93E00E94412A025137EEFA
:1032F000832E912C882399F1809191028770A1F2FD
:10330000D70112968C91882379F28091930282FDE5
:10331000CBCF82E028960FB6F894DEBF0FBECDBFAC
:10332000DF91CF911F910F91FF90EF90DF90CF90A1
:10333000BF90AF909F908F907F906F905F904F90D5
:103340000C9441138114B4E09B06B1F2C4010E94B5
:10335000412A811101C00150EFEF8E1A9E0A01111E
:10336000F1CF8091220190912301A0912401B0918D
:10337000250189839A83AB83BC83442443948401CD
:103380000F5F1F4FC4010E94412A89831A8288233C
:1033900009F4B2CF9FEF980F933010F58A834982DA
:1033A000F2E08F0E911CC8010E94412A8B83882372
:1033B00009F4A2CF8E010F5F1F4FD8018C91882393
:1033C000F1F2813009F048C011969C911197129644
:1033D0008C91913039F40E5F1F4F0E94EA1708C09C
:1033E0004801E8CF923039F40E5F1F4F0E948916D2
:1033F0000F5F1F4FE2CF933029F40E5F1F4F0E94E3
:10340000CA0FF6CF943019F00F5F1F4FF1CF0E5F48
:103410001F4F20E030E0D8011196482F4053550B44
:10342000FA014A30510560F02115310509F38FE9A1
:103430009FE00197F1F700C0000021503109F4CF5F
:10344000C9016AE070E00E94E1299F01280F391F3D
:10345000F80181818D01DFCFE82FF0E0E055FA4FD0
:103460005490282F26952695269530E0F901E056B0
:10347000FA4FE4918770F0E0082E02C0F595E795C9
:103480000A94E2F73F0191E069227724F901E057BD
:10349000FA4FA490B12C082E02C0B594A7940A94B8
:1034A000E2F7A1E0AA22BB24F901E058FA4FC49048
:1034B000D12C02C0D594C7948A95E2F7B1E0CB2213
:1034C000DD246114710419F081EE0E948916A114A3
:1034D000B10419F086EE0E948916852D0E94EA1724
:1034E000AB2819F086EE0E94CA0F672819F081EE0A
:1034F0000E94CA0FCD2809F47BCF8CE26ECF81E009
:103500000E942A130E947A13F7CE81E00E9435139D
:10351000F9CF82E0F5CF82E0F9CF85E00E94D808AC
:10352000809183020E94330EE7CE80E0F7CF809136
:103530008302982F987F79F0885080938302887F48
:1035400091E009F490E08091830290FB80F98093F0
:1035500083020E94330E809183028695869586951C
:103560000E949808C9CE80918302982F96959695CF
:103570009695883240F49F5F990F990F990F877045
:10358000892B80938302809183028160E0CF8091B8
:10359000830280FF07C08E7F809383020E94330ED8
:1035A00080E0DECF816080938302813019F489E06E
:1035B0008093830280918302CCCF90918302892FE4
:1035C0008695869586958F5F8F719770863020F4EB
:1035D000880F880F880F982B909383028091830225
:1035E000AECF8091830281FF03C00E944D0E84CE36
:1035F0000E94380E81CE053F5CE51507F1F027E209
:1036000045EE66EE063F9CE5190741F027E245EEE0
:1036100064EE043FACE51A0709F055C40E9409188E
:103620006BCE26E241EE61EEF9CF27E245EE65EE84
:10363000F5CF26E241EE60EEF1CF26E241EE62EEFA
:10364000EDCF98012A5F3C452930310508F44FC47D
:103650000631FCE51F0709F46FC405C0053A3DE5D6
:10366000130709F444C40A35BDE51B0709F0B1C1CD
:1036700081E0CDC1F801E350FC4580919202816068
:10368000E331F10530F5E15EF44D0C941A2A033074
:103690008DE5180778F40A3F9CE5190708F437C44C
:1036A000F801EB5FFC45E830F10510F5EE5CF44DF8
:1036B0000C941A2A0136ADE51A0709F496C09091C8
:1036C0009202892F8E7F90FF8160053A1D4509F097
:1036D0001EC4809392021BC4809192028260F9CF33
:1036E000809192028460F5CF809192028860F1CF40
:1036F0008091930281608093930209C48091930228
:103700008260F9CF809192028061E3CF8091920232
:103710008062DFCF809192028064DBCF0E944C10E8
:10372000809192028068D5CF809192028C60D1CF37
:10373000809193028360DFCF809192028E7FC9CF08
:10374000809192028D7FC5CF809192028B7FC1CFF5
:1037500080919202877FBDCF809193028E7FCBCFE5
:10376000809193028D7FC7CF809192028F7EB1CFDF
:10377000809192028F7DADCF809192028F7BA9CFF5
:103780000E944C10809192028F77A3CF8091920279
:10379000837F9FCF809193028C7FADCF80919202E7
:1037A00082FB992790F921E0922790FB82F990FB08
:1037B00083F98FCF80919302982F909591708E7F8F
:1037C000892B90FB81F997CF0E944C109091920227
:1037D000892F97FB87F980587CCF61E08EE090E0DD
:1037E0000E94552A94C360E0F9CF90919202892FEC
:1037F0008F7E94FF80616DCF85E3ADC3809185029C
:10380000811104C089E20E94EE03A7C385E3FBCFC8
:1038100080918D028272063DECE51E0778F4023C31
:10382000FCE51F0778F0F801E35CFC45E331F105A6
:1038300008F051C0E65CF44D0C941A2A0D351D4574
:1038400009F45ACDF7018281C080D180882309F420
:10385000F0C0C6010E94F90E182F682FC6010E9401
:103860005803B601812F0E94EC0E0E946C048C015B
:10387000D70112969C90129715968C9082942FE007
:103880008222809191028770C1F0C92C9920B1F0F9
:10389000812F807F803421F080E2800F883068F0B3
:1038A0008091930282FD09C082E00E9441138091C1
:1038B00091028770CC24C3948111C12C812F8295F1
:1038C0008F70A82EB12C8C3008F023C1F501E35B7A
:1038D000F44D0C941A2A8091880280FF21C08E7FBB
:1038E000809388028091880290918902A0918A0237
:1038F000B0918B028D839E83AF83B887BC01CD01CD
:103900000E945114109287029FEFA0E7B2E09150FD
:10391000A040B040E1F700C000000E946E0AECCC6D
:1039200081608093880261E086950E94B418E4CC9F
:1039300044E159E16AE079E10E94FC07DDCC4AE00C
:1039400059E164E179E1F8CF43E755E16AE675E1D1
:10395000F3CF4AE655E163E775E1EECF48E855E17C
:103960006CE775E1E9CF4CE755E168E875E1E4CF34
:1039700040EA55E164E975E1DFCF44E955E160EAE9
:1039800075E1DACF47E954E164E774E1D5CF44E764
:1039900054E167E974E1D0CF61E081E0C6CF65E032
:1039A00082E00E941F19A8CC68E086E0FACF6EE0A2
:1039B00089E0F7CF64E18FE0F4CF67E185E1F1CFF3
:1039C00061E088E1B2CF62E289E1EBCF61E083E2BE
:1039D000ACCF0B35EDE51E0758F40115FCE51F07CC
:1039E000C9F00E3D1C4509F02DCF0E94AC1584CCCA
:1039F0000B353DE51307D9F00C351D4509F022CFF5
:103A00008091930282FB882780F991E089270E94A8
:103A10005D1318CF0E944C105FEF84E39CE051507F
:103A200080409040E1F700C000000E94140D80E04B
:103A3000EECFC6010E948703182F13CFB12FBF709E
:103A4000DB2E107F19F0D29490EFD9229920B9F093
:103A5000DD2069F080E2800F883010F0011109C08C
:103A600080918D028D2980938D020E94750F802F89
:103A70004EC0809194028D2980939402F6CF802FBE
:103A80000E94CA0FDD2009F444C080E2800F883014
:103A900010F0011104C08D2D0E941B0406C0D094AB
:103AA000809194028D21809394020E94750F31C001
:103AB000E12FEF70DE2E107F103219F0D29480EFDC
:103AC000D822002399F0013009F489C0992009F423
:103AD00093C0882009F489C0D70115968C91159759
:103AE00080FFC5CF8F7015968C937FC02091930275
:103AF00022FF52C0992009F448C0DD2039F080919E
:103B00008D028D2980938D020E94750F80E00E94A6
:103B10008916A8E0AA1AB108B4E0AB16B10420F4E3
:103B20000E94EE080E945203CC20A9F080919102DD
:103B300080FD11C0F70112828595859585950E94BB
:103B40002A13C7010E942D198091910285958595B0
:103B500085950E94351360E0C70128960FB6F8944A
:103B6000DEBF0FBECDBFDF91CF911F910F91FF90B0
:103B7000EF90DF90CF90BF90AF909F908F907F900D
:103B80006F905F904F900C94280F80E00E94CA0FB6
:103B9000DD2009F4BECF7FCF9920A1F090918E0255
:103BA0008D2D892B811003C00E942010B2CFF1E02F
:103BB0008F12FACF22FDADCF981709F4AACF8093C8
:103BC0008E02A7CF811006C00E9423048D2D0E9473
:103BD0002A109FCF21E0821609F49BCFF5CF9920C0
:103BE00031F035E0381508F494CF8D2DDDCF44E069
:103BF000481508F48ECFEACF882041F3093349F401
:103C0000BFEFE7EEF3E0B150E040F040E1F700C075
:103C10000000802F0E94CA0F7CCF812F8695869549
:103C2000837061F0813009F074CFC80193709110F6
:103C300002C090E080E00E9410096BCFC801937031
:103C4000911002C090E080E00E94FA0862CF802FBD
:103C5000992029F00E9498060E9432095ACF0E94AA
:103C6000E106FACF812F8370A1F5911052CF802FFA
:103C7000829586958770880F880F402F4F70082E89
:103C800001C0440F0A94EAF7202F207104FF07C0F7
:103C90002FE030E001C0220F8A95EAF720951695B3
:103CA00016951370123081F0822F842B133031F06F
:103CB00080918F02113029F0242B82230E9422133D
:103CC00028CF842B822BFACF242B80918F0282273E
:103CD000F5CF992061F110FF1CCF802F829586953A
:103CE0008770880F880F402F4F70082E01C0440F37
:103CF0000A94EAF7202F207104FF07C02FE030E07C
:103D000001C0220F8A95EAF7209516951695137033
:103D1000123099F0822F842B133031F08091900271
:103D2000113041F0242B82230E942613F2CE11FF82
:103D3000F0CED3CF842B822BF7CF242B809190020F
:103D40008227F2CF1F70992029F0812F0E942A1319
:103D5000802F2ACF802F0E942A10812F0E94351396
:103D6000D8CE023F81F160F4003FB9F0013F81F00D
:103D7000992009F458C081107ACE812F8F7127C005
:103D8000033F41F1043FA1F78091930282FF2DC0D0
:103D9000812F8F71992011F31AC0992079F024E0B6
:103DA000281508F4B6CE1F7181E090E001C0880F9D
:103DB0001A95EAF7909190028927B6CF35E0381529
:103DC00008F4A7CEF0CF812F8F719110C7CF0E943A
:103DD0002A139FCE80E0992009F4A6CF1F7181E0BD
:103DE00001C0880F1A95EAF79FCF992089F01F71BB
:103DF000812F0E942A138091930282FD07C0812F98
:103E0000880F880F880F836080939102812FDFCF06
:103E100081E00E94411341E0481508F07ACE82E02B
:103E20000E94411376CE882059F0093309F0F1CE73
:103E30005FEF87EE93E0515080409040E1F7E7CE8E
:103E4000812F8F718BCF0031FFE51F0709F457CB0E
:103E500001312FE5120709F45CCBF801EB5BFC455F
:103E6000E730F105C0F4E75AF44D0C941A2A61E0EA
:103E7000C7010E94280F8C01D70112968C918111E5
:103E80002ACA00313FE5130709F43FCB01314FE562
:103E9000140709F440CB033FECE51E0709F4C9CB36
:103EA00008F0A9CB083D2CE5120709F4BECB28E2A7
:103EB00041E0093D3CE5130709F4B9CB073D4CE56A
:103EC000140709F4AECB882391F1109284020136D5
:103ED000BDE51B0761F008F0C1CB0631FCE51F070B
:103EE00008F0AFCB02302CE5120708F4BCCB0E94DF
:103EF0009A0E909393028093920206314CE5140738
:103F000008F0C5CB02305CE5150708F0B3CB609133
:103F100092021091930284E090E00E94552A612F52
:103F200082E290E00E94552A0E944C10E5C90631B9
:103F3000ECE51E0709F06CCC90918D02882309F402
:103F40005DCC892F8A7A91E009F490E09093850204
:103F5000811152CC89E20E94BA030E94750FCCC92C
:103F60001F93CF93DF938091CC02807FA1F4809147
:103F7000C902882381F020919602D0919502C091C8
:103F8000C7024091C802A091CA02B091CB02142F7F
:103F90001C23D21304C0DF91CF911F91089530E00C
:103FA000109711F01F3F21F42F5F3F4F2770F1CF83
:103FB000C90166E070E00E94E129FC01E956FD4F6D
:103FC00081814813F1CF80818C13EECF82818111E2
:103FD000EBCF838194818A1B9B0B883C910520F752
:103FE0008091CC028F7080618093CC02C90166E021
:103FF00070E00E94E129FC01E456FD4F90819F7022
:104000009061908387EC92E00E942D19DF91CF910F
:104010001F910C94B0038F929F92AF92BF92DF9248
:10402000EF92FF920F931F93CF93DF93CDB7DEB73D
:104030002B970FB6F894DEBF0FBECDBF8C0185E085
:10404000F801DE01179601900D928A95E1F7F801CB
:10405000E280A380B48087EC882E82E0982E909135
:10406000C7028091C8022091CA023091CB0221156B
:10407000310529F0482F49234F3F09F029C1EE208F
:1040800009F434C1F801808191810E94550FF82E06
:10409000882309F42BC186E0F801A7ECB2E0019077
:1040A0000D928A95E1F70E94B01F21C0D090CC02FA
:1040B0005D2D507F283C310508F0A9C0F8014181F1
:1040C0005111C4C0FE2C481325C08081891322C021
:1040D000E11020C08D2D8F7080618093CC0287EC21
:1040E00092E00E942D198091CC02F80185838F2DDA
:1040F0002B960FB6F894DEBF0FBECDBFDF91CF91E8
:104100001F910F91FF90EF90DF90BF90AF909F9025
:104110008F900895AF81AB2829F0842F8A238F3F99
:1041200009F091C080E0F82FF170DF2E2091960207
:10413000B091950280FD1EC0EE20C9F28091CC02A4
:1041400081608093CC02F12CD2CF30E0C90166E0CF
:1041500070E00E94E129FC01E956FD4F818148137E
:1041600006C08081A81303C08281E812E5CF2F5FCB
:104170003F4F27702B13E9CF8F8198850E94470FFF
:10418000292F22952F70903260F0225F2F702230FD
:1041900078F49F7051F0F8019581907F31F4D12C23
:1041A0000AC09F7011F08823D1F3805E8830B8F385
:1041B000C8010E942D19FD2C9ACFF80180819181B0
:1041C0000E94550F882309F491C0EE2009F48EC097
:1041D0008091CC02803270F08091C7029091C80229
:1041E0009A8389831B82BD82AC82DE82CE010196D6
:1041F0000E942D1986E0F801A7ECB2E001900D9223
:104200008A95E1F70E94B01FFF24F39470CF5111FB
:1042100032C087EC92E00E942D1986E0F4011192E1
:104220008A95E9F790CFF801808191810E94550F1E
:104230008111E0CF8091CC0281608093CC02C801D3
:104240000E942D1954CF81E08E256DCF4813B5CF34
:10425000F80180818913B1CFE110AFCFD582C801B9
:104260000E942D1986E0F801A7ECB2E001900D92B2
:104270008A95E1F73CCFF801218182139ECFF801A6
:10428000808189139ACFE11098CFD582C8010E940E
:104290002D1986E0F40111928A95E9F728CFF801EB
:1042A00021818213C0CFF80180818913BCCF809116
:1042B000CC0280FDD7CF982F907FA1F28583903FCD
:1042C00071F2982F907F905F8F70892B8583C7CF75
:1042D000F090C902A501421B530B9A01F110E6CEE2
:1042E000283C3105B0F6FE2CE110D9CFC8010E9460
:1042F0002D198ACFCF93DF93CDB7DEB767970FB66F
:10430000F894DEBF0FBECDBF342F4B8B252F5C8BB7
:10431000962F6D8B7E8B8F8B4E895F8961111092EA
:1043200094021A8A3D872E879F87598B488B86E097
:10433000FE013D96DE01179601900D928A95E1F7F8
:10434000CE0107960E940B20811116C086E0FE0167
:104350003796DE01119601900D928A95E1F72F8133
:10436000988580919502409196026A857B85672B9E
:1043700019F092239F3FB1F580919602909195029A
:1043800089131CC067960FB6F894DEBF0FBECDBF71
:10439000DF91CF91089566E070E00E94E129DC0191
:1043A000A956BD4F86E0FE01319601900D928A9587
:1043B000E1F7209395020E94B003DECF90E066E023
:1043C00070E00E94E12989569D4F0E940B208823AE
:1043D000C9F28091960290E00196877099278093A8
:1043E0009602CACF90E09C012F5F3F4F2770332782
:1043F0004217130681F60E944C10109295021092FB
:10440000960286E0E7ECF2E0DF011D928A95E9F77B
:10441000B3CFCDB7DEB7A4970FB6F894DEBF0FBE0B
:10442000CDBF84B7877F84BF0FB6F894A8958091DD
:104430006000886180936000109260000FBE80E889
:1044400090E00FB6F89480936100909361000FBEE6
:104450008CEF95E090939301809392011092E2008B
:104460001092E1008091E00081608093E0008091F3
:10447000D8008F778093D80019BC80916300816049
:104480008093630010921C02809163008E7F809362
:10449000630081E080931C021092E2001092E10020
:1044A0008091D8008F778093D8008091D800806861
:1044B0008093D8008091D8008F7D8093D80084E0CD
:1044C00089BD86E089BD89B5282F2170622E80FFC5
:1044D000FACF10923B0210921B021092240210920B
:1044E0001A0242E060E080E00E943E0A8091E10012
:1044F0008E7F8093E1008091E20081608093E200F2
:104500008091E20088608093E2008091E0008E7FDD
:104510008093E0008091E20084608093E2007894D0
:1045200080913B02882399F08091E9001091EC0082
:104530001795112717958F70182B1092E90080910D
:10454000E80083FD0E9461101F701093E90082E073
:1045500084BD93E095BD9AEF97BD80936E000E9455
:10456000A80E811102C00E948B0E0AE511E060E6E0
:10457000E62E61E0F62ED8018D918D018F3F11F06E
:104580000E94FE05E016F106B1F784E60E94FE05E2
:1045900085E60E94FE0583E30E94FE0582E30E94F9
:1045A000FE0586E0EFE3F2E0DF01282F1D922A9559
:1045B000E9F7E5E4F2E0DF011D928A95E9F70E9450
:1045C0006D18811102C00E94AC1582E090E00E943B
:1045D000412A809325020E949A0E90939302809321
:1045E00092020E948513EFE3FCE93197F1F700C0D6
:1045F00000000E94851380913F0280FF08C06FEF8A
:104600007FEF90E080E00E94732A0E94140D83E007
:1046100090E00E94412A0E942213249A2C9A279A01
:104620002F988AE08093800089E1809381008FEF4A
:104630009FEF90938700809386000E947818809166
:10464000830281FF0BC010921F0210921E02109273
:104650001D0280916F00816080936F000E94781826
:1046600080912002811133C00E946D18811104C015
:104670000E94AC150E94651488E090E00E94492ACF
:10468000609388027093890280938A0290938B02D0
:104690006E7F71F40E94651488E090E00E94492AC0
:1046A000609388027093890280938A0290938B02B0
:1046B0000E94ED07109287028091880280FF04C05B
:1046C00060E086950E94B41881E0809320028FE01C
:1046D00091E090934C0280934B0238E1C32ED12C91
:1046E00040E4742E55E4A52E52E0B52E80913B0295
:1046F000FF24F39404E016E0853009F49AC10E9487
:104700008513882359F08FB7F89440913702509160
:1047100038026091390270913A028FBFAFE3B2E084
:10472000E6E2F2E010E000E0302F8D9191919817D1
:1047300009F4A3C1292F282790E0FF24F3944F2DDB
:10474000422309F495C199833A838F2191E009F4BA
:1047500090E09B830E9426098160782F9D838C8343
:1047600049815A816B81892F0E947A21F801EA5D83
:10477000FD4F80818F258083809187028823D1F12E
:1047800080918602E0918802E695E81BE0932E0274
:10479000823009F089C1F0E0E458FA4FE4910E2F1D
:1047A00010E020EFE22E2CE0F22E80912F028823E1
:1047B00061F010922F020E94260990932D0280939F
:1047C0002C0210923102109230020E942609209190
:1047D0002C0230912D02821B930B8F3F9F4750F488
:1047E000200F311F30932D0220932C028CE292E097
:1047F000F701099586E0E9E7F2E0DE011196019004
:104800000D928A95E1F7E0907B02F0907C02109186
:104810007D0200917E0210927B0210927C02109227
:104820007D0210927E028E2D8F2991F080913402AC
:10483000909135020E945809FC01209178022223B0
:1048400009F490C180911F018E171F0608F499C1C9
:10485000812F802B09F44DC0809132029091330258
:104860000E9458099C0180917702882309F4EEC3C5
:104870002135310508F43DC08F3F19F08F5F8093DB
:104880007702112351F00E945D066FEF11160CF4B0
:1048900061E00E94D82980937D02002351F00E949C
:1048A0005D066FEF10160CF461E00E94D82980932A
:1048B0007E0280917D0220917E028823D1F0222306
:1048C000C1F0082E000C990B65EB70E00E94E12905
:1048D000992309F499C190937D02822F220F990B9D
:1048E00065EB70E00E94E129992309F491C190934E
:1048F0007E0280917B0290917C02892B90917D02B7
:10490000892B90917E02892B11F00E94320986E05A
:10491000FE013196A9E7B2E001900D928A95E1F788
:104920000E94EE0890913602891721F0809336029A
:104930000E94520380913B02843009F0D7CE83E07D
:104940008093E9008091E80082FFD0CE8091E8005A
:1049500090E085FF06C00E94E309882309F45CC14A
:10496000962D8091E8008B778093E800992309F4D5
:10497000BDCEE981E150E33108F0D6C1F0E0E05A64
:10498000F44D0C941A2A80913B02843009F443C000
:1049900080E00E94980880E00E94520310928702F3
:1049A00080912302811116C0F09223028091880227
:1049B000982F9170909322028E7F80938802FFEF50
:1049C00020E732E0F15020403040E1F700C0000025
:1049D0000E946E0A109221020FB6F894A895C09218
:1049E00060000FBE7092600083B7817F846083BFD8
:1049F00083B7816083BF7894889583B78E7F83BFA8
:104A00000FB6F894A895809160008861809360004B
:104A1000109260000FBE80912402882351F00E9402
:104A20008513EFE3F2E081918111F1C2AE16BF066A
:104A3000D1F780913B02853009F4A5CF0E944C103C
:104A40000E9478180E94EE080E94520310922302DE
:104A500080912202882349F08091880281608093AE
:104A6000880260E086950E94B4180E949E1847CE86
:104A70009F5FFF0C943009F062CE0F5F1F4F06302E
:104A8000110509F051CE8FEF89838A831B820E9422
:104A900026098160782F9D838C8349815A816B819F
:104AA000892F0E947A2168CE853109F447C068F4C5
:104AB000893061F18F30B1F18630E9F000ED17E017
:104AC00067E1E62E66E0F62E70CE833209F441C02F
:104AD00004EF11E073EAE72E7AE0F72E843209F44E
:104AE00064CE08E210E095EBE92E9BE0F92E8831C8
:104AF00009F45BCEE3CFF0E0E758FA4FE4910E2FD4
:104B000010E084E0E82E8DE0F82E4FCEE695F0E040
:104B1000EA58FA4FE4910E2F10E0BBEDEB2EBAE00D
:104B2000FB2E43CEE695F0E0ED58FA4FE4910E2FC0
:104B300010E0A5E0EA2EABE0FA2E37CEF0E0E05927
:104B4000FA4FE4910E2F10E0F7E6EF2EFBE0FF2E78
:104B50002CCEEEE6F5E005911491E1E9EE2EECE0C5
:104B6000FE2E23CE8091200190E06AE070E00E944A
:104B7000E1298E179F0708F06BCE2F5F20937802F4
:104B800002C02F3FD1F7EE2051F00E9418066FEFC0
:104B90001E140CF461E00E94D82980937B02FF2050
:104BA00051F00E9418066FEF1F140CF461E00E9490
:104BB000D82980937C0280917B02882309F448CE17
:104BC00020917C02222309F443CE082E000C990B7D
:104BD00065EB70E00E94E129992371F090937B02CC
:104BE000822F220F990B65EB70E00E94E129992337
:104BF00039F090937C022CCE81E080937B02F0CF41
:104C000081E080937C0224CE81E080937D0265CE9A
:104C100081E080937E026DCE00E210E09E012F5F66
:104C20003F4F79018091E80085FD0AC08091E8003E
:104C30008B778093E8000E94E309882399F390CE54
:104C40008091F100D7018D937D010150110951F739
:104C500087CE1A8289E08B8323C08A81823009F44F
:104C6000ECC1833009F442C0813009F05DC08FB7D8
:104C7000F8942091370230913802409139025091D6
:104C80003A0229A33AA34BA35CA38FBF69A17AA1DF
:104C90008BA19CA10E94202A6B837C838D839E83A1
:104CA00080913B02843009F021CD8091E900109180
:104CB000EC001795112717958F70182B82E08093C1
:104CC000E9008091E80080FF0DC050E040E060E224
:104CD00070E0CE0101960E94140A8091E8008E7760
:104CE0008093E8001F701093E90000CD86E0EFE3A9
:104CF000F2E0DE01139601900D928A95E1F7D0CF94
:104D00008A81823089F48B819C81AD81BE8189A3A7
:104D10009AA3ABA3BCA3BC01CD010E94202A86E2CA
:104D200090E00E94552ABCCF8FEF8983B9CF4C8188
:104D30006B818A810E94C10E9827892798279E83BC
:104D40008D83AECFED80FE80FE24EF24FE248A8189
:104D500090E060E370E00E94E1292B8130E043E0C5
:104D6000220F331F4A95E1F78C01020F131F8C812C
:104D700090E0880F991F080F191F6F2DC8018796A3
:104D80000E94552A6E2DC8018896CBCF0E94CC0D6B
:104D900087CF8A81893031F18A3091F18A818238D6
:104DA00009F451C0B0F58038E9F1813809F078CFC5
:104DB00060E08B810E94B4189B81809188029111E0
:104DC0003AC08E7F80938802109287029FEFA0E7FF
:104DD000B2E09150A040B040E1F700C000000E9456
:104DE0006E0A5ECF8B8190E065E070E00E94E12961
:104DF0006FEF70E00E94F229862F0E94D808CECF74
:104E00008B81811103C00E944D0EC8CF0E94380EC5
:104E1000C5CF833809F044CF20E040918B026C81EC
:104E20008B8106C020E04B8160918A0280918902CB
:104E30000E94BA1435CF81608093880260E0869525
:104E40000E94B4182DCF8B8180938C0229CF8A8148
:104E5000893059F08A30C9F0813841F1D8F480386E
:104E600009F01ECF80918B02F6CE80918302869549
:104E70008695869590E06FEF70E00E94E12965E0ED
:104E800070E00E94F2296B830BCF8091830286959C
:104E90008170E1CE823891F0833809F001CF8091A2
:104EA00089028B8380918A028C83FACE809188025A
:104EB00080FF02C08695CFCE80E0CDCE80918C025F
:104EC000CACE809183020E94330E209188023091D5
:104ED000890240918A0250918B0229A33AA34BA3E5
:104EE0005CA3CA01B9010E945114DACE80E18A8321
:104EF000D7CE83E08A8389E1AECE8A809B809824D6
:104F0000892498248C817401E80EF11C8E010B5FBA
:104F10001F4FC40189519F4F8E149F0409F4C0CEC6
:104F200039E1831633E0930648F40E94412AD80100
:104F30008D938D01BFEF8B1A9B0AEBCF80E0F7CFEB
:104F40000A811B81102701271027FE0131964F018E
:104F50008C817F01E80EF11CC80189519F4F8E148E
:104F60009F0409F49DCE0931F3E01F0728F4D40112
:104F700014966C910E94552A0F5F1F4FBFEF8B1A3A
:104F80009B0AEACF0E947B0E8BCE84E0B0CF0A81D1
:104F90001B811027012710278C814801880E911C46
:104FA0007E01E5E0EE0EF11CC801879680169106A1
:104FB00009F476CE003C110540F40E94412AD70145
:104FC0008D937D010F5F1F4FEFCF80E0F8CF0A81F7
:104FD0001B81102701271027FE0131964F018C817C
:104FE0007F01E80EF11CC8018796E814F90409F462
:104FF00057CE003C110528F4D40114966C910E9400
:10500000552A0F5F1F4FBFEF8B1A9B0AECCF09BDCC
:1050100019BD09B400FEFDCF8091D8008F7D80932B
:10502000D8008091E00082608093E0008091E000F1
:1050300081FDFCCF0E944C10FCCC86E290E00E94E7
:10504000412A1B821C821D828E832ACE2B30310581
:1050500008F014CC4ECC1F920F920FB60F92112471
:105060002F933F934F935F936F937F938F939F9370
:10507000AF93BF93EF93FF93809100018230A1F033
:105080008F5F80930001FF91EF91BF91AF919F914E
:105090008F917F916F915F914F913F912F910F90E1
:1050A0000FBE0F901F90189581E0809300018091B2
:1050B0001E0290911F02019660ED72E00E94F2299B
:1050C00090931F0280931E0265E070E00E94F22917
:1050D0006F7780911D02823041F4603451F48091E9
:1050E0006F008E7F80936F0004C0813011F46F37A2
:1050F000B1F3E62FF0E0E751FD4F84916091860017
:105100007091870090E00E94E1296BEF74E00E94AB
:10511000F229CB0120918302269526952695622FB0
:1051200070E00E94E1290E94010890938D00809315
:105130008C00A9CF1F921FB61F9211248F939F93AB
:10514000AF93BF9380912102811113C080913702E8
:1051500090913802A0913902B0913A024196A11D76
:10516000B11D8093370290933802A0933902B09317
:105170003A02BF91AF919F918F911F901FBE1F90D8
:10518000189578941F921FB61F9211248F939F93A6
:10519000AF93BF938091370290913802A09139026A
:1051A000B0913A020196A11DB11D809337029093F0
:1051B0003802A0933902B0933A02BF91AF919F9108
:1051C0008F911F901FBE1F9018951F920F920FB6C0
:1051D0000F9211242F933F934F935F936F937F937D
:1051E0008F939F93AF93BF93EF93FF938091E100D1
:1051F00082FF09C08091E20082FF05C08091E1003A
:105200008B7F8093E1008091E10080FF17C0809147
:10521000E20080FF13C08091E2008E7F8093E20065
:105220008091E20080618093E2008091D8008062EA
:105230008093D80019BC85E080933B028091E10007
:1052400084FF29C08091E20084FF25C084E089BDED
:1052500086E089BD09B400FEFDCF8091D8008F7D26
:105260008093D8008091E1008F7E8093E10080914F
:10527000E2008F7E8093E2008091E2008160809363
:10528000E20080911B02882309F441C084E08093EE
:105290003B0280913B028091E10083FF27C0809117
:1052A000E20083FF23C08091E100877F8093E100CB
:1052B00082E080933B0210921B028091E1008E7F7E
:1052C0008093E1008091E2008E7F8093E2008091E4
:1052D000E20080618093E20042E060E080E00E94B2
:1052E0003E0A8091F00088608093F000FF91EF917A
:1052F000BF91AF919F918F917F916F915F914F91EE
:105300003F912F910F900FBE0F901F901895809195
:10531000E30087FD02C081E0BACF83E0B8CF1F92DF
:105320000F920FB60F921124FF920F931F932F939A
:105330003F934F935F936F937F938F939F93AF931D
:10534000BF93CF93DF93EF93FF9309EE10E0F80143
:105350008081C091EC00C795CC27C7958F70FC2E3B
:10536000F82A1082C0EFD0E08881877F8883789404
:105370000E946110F8011082888188608883CF2D97
:10538000CF70C083FF91EF91DF91CF91BF91AF912B
:105390009F918F917F916F915F914F913F912F914D
:1053A0001F910F91FF900F900FBE0F901F901895B7
:1053B000002480FD060E660F11F08695D1F7802D32
:1053C00008950024552704C0080E591F880F991FFF
:1053D000009729F076956795B8F37105B9F7802D98
:1053E000952F0895AA1BBB1B51E107C0AA1FBB1F25
:1053F000A617B70710F0A61BB70B881F991F5A9561
:10540000A9F780959095BC01CD01089597FB072ED3
:1054100016F4009407D077FD09D00E94F22907FC0A
:1054200005D03EF4909581959F4F089570956195B4
:105430007F4F0895EE0FFF1F0590F491E02D099422
:105440006927962769277827872778270895FC01F9
:105450004150504030F001900616D1F73197CF01FE
:105460000895882799270895FB01DC0104C08D91D8
:105470000190801921F441505040C8F7881B990BC6
:105480000895F999FECF92BD81BDF89A992780B50C
:105490000895A6E1B0E044E050E00C947B2AA8E136
:1054A000B0E042E050E00C947B2A262FF999FECF21
:1054B00092BD81BDF89A019700B4021639F01FBA67
:1054C00020BD0FB6F894FA9AF99A0FBE0895039684
:1054D000272F0E94562A0E94552A252F0E94562ABD
:1054E000242F0C94562A0196272F0E94562A0C949A
:1054F000552ADC01CB01FC01F999FECF06C0F2BDB3
:10550000E1BDF89A319600B40D9241505040B8F781
:105510000895EE27FF27AA27BB2708C0A20FB31FB5
:10552000E41FF51F220F331F441F551F96958795C3
:105530007795679598F37040A9F7009799F7BD01A3
:10554000CF010895A1E21A2EAA1BBB1BFD010DC0BD
:10555000AA1FBB1FEE1FFF1FA217B307E407F50723
:1055600020F0A21BB30BE40BF50B661F771F881FFF
:10557000991F1A9469F760957095809590959B0195
:10558000AC01BD01CF010895F894FFCFA106A70695
:10559000AA06B006C506C506C506C506C506B306F5
:1055A000B806BC06C206D306D906DD0642116A114A
:1055B0000A136A110A139D11BE110A13B912C612F9
:1055C0002D1624163A1622168716871622168716C7
:1055D00087165616871661166C1687168716871655
:1055E00087162216871687162216871648168716DC
:1055F00087168516851685168516851685168516D1
:1056000085168516771687162D1620168716871687
:1056100087168716871687168716871687168716A2
:10562000771687168716221687167D167D167D1625
:105630007D167D167D167D167D167D1677166C1BE4
:10564000701B741B821B861B8A1B8E1B941B9C1B4E
:10565000A01BA41BA81BB41BB81BBC1BC01BC61BD8
:10566000E41BCE1B7E1BAC1BB01B981BCA1BDA1B9A
:10567000ED1BF31B981C9F1CA41CA91CAE1CB31C87
:10568000B81CBD1CC21CC71CCC1CCF1CD41CD71CF6
:10569000DA1CDD1CE01CE31CE61C1E1D1E1D581D33
:1056A000581D0D1E271E891D891D321EA21EB11EEA
:1056B000B11E8D1A951A971AB31AC71ADD1AF11A64
:1056C00029262D2680269726A226C626C9262727E4
:1056D000612794269426762779277D27A027C2273D
:0656E000C527C727E727DC
:1056E6000101010201191A1B1C1D1E1F2021226720
:1056F60009380D7B0DC40DC80D6A0928081E0A1449
:105706000101000000004022B64C012A0174009EEF
:1057160001B701D7010001020202020606060909C5
:10572600090909090F0F0F0F0F0F1515151819196C
:10573600191919191919191923249391926667369B
:1057460064653332E200E900EA00B500B600B7004E
:10575600CD008301CC008A0192019401210223022B
:1057660024022502260227022A02B300B4006F0093
:025776007000C1
:00000001FF
