:100000000C940C030C9444030C9444030C9444038C
:100010000C9444030C9444030C9444030C94440344
:100020000C9444030C9444030C94891F0C94612099
:100030000C943E1F0C9444030C9444030C9444030E
:100040000C9444030C9444030C9444030C94440314
:100050000C9444030C94651F0C9444030C944403C7
:100060000C9444030C9444030C9444030C944403F4
:100070000C9444030C9444030C9444030C944403E4
:100080000C9444030C9444030C9444030C944403D4
:100090000C9444030C9444030C9444030C944403C4
:1000A0000C9444030C9444030C944403050109028A
:1000B000A10185020901A1000509190129081500FE
:1000C0002501950875018102050109300931158165
:1000D000257F95027508810609381581257F9501D0
:1000E00075088106050C0A38021581257F95017572
:1000F000088106C0C005010980A101850319012AF4
:10010000B700150126B700950175108100C0050CD8
:100110000901A101850419012AA002150126A002E6
:10012000950175108100C005010906A1018506052C
:100130000719E029E71500250195087501810205D9
:1001400007190029EF1500250195F07501810205B9
:10015000081901290595057501910295017503910D
:1001600001C00660FF0961A1010962150026FF00B8
:100170009520750881020963150026FF00952075FA
:10018000089102C005010906A101050719E029E748
:1001900015002501950875018102950175088101F9
:1001A0000507190029FF150026FF0095067508812F
:1001B000000508190129059505750191029501753C
:1001C000039101C009025B00030100A0FA090400C9
:1001D0000001030101000921110100012240000773
:1001E0000581030800010904010002030000000961
:1001F00021110100012222000705820320000107CE
:1002000005030320000109040200010300000009A6
:10021000211101000122B60007058403200001120C
:1002200001000200000008424B070001000102002B
:10023000011E03420045004C004C004100200053C9
:10024000004F004C004400450052004500440000AF
:100250000010034B0042004400460041004E005392
:1002600000000004030904290000003A003B003CA0
:10027000003D003E003F00400041000000420043BE
:1002800000440045004B0035001E001F00200021E7
:10029000002200230024002500260027002D002E28
:1002A0000035002A0049002B0014001A0008001530
:1002B0000017001C0018000C00120013002F003063
:1002C00000310000004C003900040016000700094E
:1002D000000A000B000D000E000F00330034000078
:1002E00000280000004E00E10064001D001B000615
:1002F000001900050011001000360037003800E535
:1003000000000052000000E000E300E200000000F6
:100310000000002C00000000000000E600E4005097
:1003200000000051004F0001000000010001000129
:1003300000010001000100010001000000010001B6
:1003400000010001000100010001000100010001A5
:100350000001000100010001000100010001000195
:100360000001000100010001000100010001000185
:100370000001000100010001000100010001000175
:100380000001000000010001000100010001000166
:100390000001000100010001000100010001000056
:1003A0000001000000010001000100010001000146
:1003B0000001000100010001000100010001000135
:1003C0000000000100000001000100010000000029
:1003D0000000000100000000000000010001000119
:1003E0000000000100010001000000010001000107
:1003F00000010001000100010001000000010001F6
:1004000000010001000100010001000100010001E4
:1004100000010001000100010001000100010001D4
:1004200000010001000100010001000100010001C4
:1004300000010001000100010001000100010001B4
:1004400000010000000100010001000100010001A5
:100450000001000100010001000100010001000095
:100460000001000000010001000100010001000185
:100470000001000100010001000100010001000174
:100480000000000100000001000100010000000068
:100490000000000100000000000000010001000158
:1004A0000000000100010001000000010001000146
:1004B0000001000100010001000100000001000135
:1004C0000001000100010001000100010001000124
:1004D0000001000100010001000100010001000114
:1004E0000001000100010001000100010001000104
:1004F00000010001000100010001000100010001F4
:1005000000010000000100010001000100010001E4
:1005100000010001000100010001000100010000D4
:1005200000010000000100010001000100010001C4
:1005300000010001000100010001000100010001B3
:1005400000000001000000010001000100000000A7
:100550000000000100000000000000010001000197
:100560000000000100010000000000000000000089
:10057000000000000000000000000000000000007B
:1005800000000000000000000000007E0F00D4FF0B
:10059000FFFFC70000007800000000000000002AF4
:1005A0002B280000000000000000000000000000F8
:1005B000000029000000002C1E34202122243426B3
:1005C00027252E362D3738271E1F202122232425AC
:1005D000263333362E37381F0405060708090A0B61
:1005E0000C0D0E0F101112131415161718191A1BD3
:1005F0001C1D2F3130232D350405060708090A0B71
:100600000C0D0E0F101112131415161718191A1BB2
:100610001C1D2F3130354C0011241FBECFEFDAE006
:10062000DEBFCDBF04B603FE18C080918202909158
:100630008302A0918402B09185028730904BA7403D
:10064000B04B59F4109282021092830210928402ED
:1006500010928502E0E0F8E3099511E0A0E0B1E036
:10066000E0EAF3E402C005900D92A436B107D9F791
:1006700022E0A4E6B1E001C01D92A238B207E1F782
:100680000E94FB1A0C947A210C94000081FD02C098
:10069000769A0895769808959295907FE92FE80FBD
:1006A000877041E001C0440F8A95EAF7E695E69528
:1006B000E69583E0E89FF0011124EE5EFD4F30E007
:1006C00020E070E05191DF011197CB01022E02C0B2
:1006D000969587950A94E2F7817081958527842302
:1006E00085278C932F5F3F4F2330310559F70895AD
:1006F000E92FE295E07FE80F982F9770E695E69551
:10070000E69583E0E89FF0011124EE5EFD4F50E096
:1007100040E080E0219130E0092E02C03695279517
:100720000A94E2F721703327042E01C0220F0A94A5
:10073000EAF7822B4F5F5F4F4330510559F7089519
:1007400080914B0290914A02981301C008958F5FE7
:100750008770FACF90910C019923C1F090914702D4
:1007600097FF14C0E82FE695E695E695803FF8F4EC
:10077000F0E0EA59FE4F877021E030E001C0220F1F
:100780008A95EAF78281822B82830895A8E6B1E0F8
:10079000EFEF90E02D91821751F0EF3F19F4211106
:1007A00001C0E92F9F5F9630A9F7EF3F09F4089544
:1007B0000E2E000CFF0BEA59FE4FE6CF90910C0174
:1007C0009923E1F09091470297FF18C0E82FE69532
:1007D000E695E695803FF0F4F0E0EA59FE4F877029
:1007E00021E030E0A90102C0440F551F8A95E2F7CD
:1007F000CA0180959281892382830895E8E6F1E019
:100800009191891303C0DF0111971C9251E0EE36DC
:10081000F507B1F70895982F9095809142028923AA
:100820008093420208958091430281111092430205
:1008300008959091470292FF06C0282F2871283012
:10084000F9F4877F846093FF06C0282F2871283130
:10085000F1F4877E84612091480220FF06C0382F82
:1008600038713830D9F4877F816021FF06C0282F86
:1008700028712831D1F4877E816194FD877E0895A7
:10088000282F24712430F9F68B7F8860DCCF282F45
:100890002471243101F78B7E8861DDCF382F3171CF
:1008A000313019F78E7F8860E0CF282F21712131F8
:1008B00021F78E7E8861E1CFCF93DF93EC01803EFC
:1008C000910509F460C050F58133910509F4A6C083
:1008D00090F48932910509F49AC08A9709F4A5C069
:1008E000C130D10509F462C0CE010497813A910567
:1008F00008F055C05BC089339105F1F1823891054C
:10090000D9F1C59709F47CC0C83AD10508F094C064
:10091000C53AD10528F3A497D06448C0843E910518
:1009200009F453C068F4823E9105E1F1833E9105DC
:1009300009F440C0CE01805E9109089780F536C069
:10094000863E910509F44CC0873E910509F44DC0DF
:10095000811523E5920708F09AC0811532E59307C7
:1009600008F000C18F3F910511F008F074C0803F7E
:10097000910550F2D0651AC0809147028370B1F0A2
:10098000C0EED0E013C08091470280FD15C1909168
:10099000480290FF0BC0C3EED0E084FF07C0D0E058
:1009A000C0E004C08091470282FDF5CFCE01DF9107
:1009B000CF9108958091470282FD01C19091480234
:1009C00090FDDECF84FFF2CFEACF8091480281FF15
:1009D000EDCF80914702C7EED0E084FDE0CFE6CFB7
:1009E0008091470283FDF7CFE1CF8091470283FDDD
:1009F000E9C09091480291FFE5CFC4EED0E0D6CF98
:100A00008091470285FFD2CFC9E2D0E0CFCF80915D
:100A1000470285FFCBCFC5E3D0E0C8CF8091470226
:100A200086FFC4CFCAE2D0E0C1CF8091470286FFE3
:100A3000BDCFC1E3D0E0BACFCF3BD10508F07ACF2C
:100A4000C85AD0E0CC0FDD1FCA5CDE4F0990D881B8
:100A5000C02DD464ABCFC11581E5D80798F4C1157A
:100A600020E5D20708F061C0C11530E2D30708F4D1
:100A70009DCFCE0190548115904108F090CFDF704A
:100A8000D06A94CFDC2FCC27C16FD06A8FCF81156D
:100A900039E59307A0F5C11588E5D80708F07AC0B5
:100AA000C11525E5D207C8F4C11534E5D30708F010
:100AB0006CC09E012370332781E090E002C0880F54
:100AC000991F2A95E2F7C695C69520E2C29FE001DC
:100AD0001124C82BD92BDA6869CFCE0195558F3FE9
:100AE000910511F008F05BCF8C2F0E941904C82FDC
:100AF000D0E0DC2FCC27CC27DF71D06257CF811517
:100B00003AE5930708F44BC090568115904208F0DF
:100B100046CF8D2F8F710E94190490E0982F88275F
:100B200088279F718C2BEC01E8CF9E0174E03695ED
:100B300027957A95E1F723708C2F8695869583709B
:100B400030E2839FC0011124922BC37021E030E07A
:100B500002C0220F331FCA95E2F7822B932BEC01C0
:100B6000DC6824CF9C012370332781E090E002C031
:100B7000880F991F2A95E2F7C695C69520E2C29F75
:100B8000E0011124C82BD92BEBCFDC2FCC27C46F6D
:100B9000D06A0CCFDC2FCC27C06FD06A07CF8F7004
:100BA0000E94190434E0D695C7953A95E1F7CF70C5
:100BB0009C2FEC01D069FACEC9E3D0E0F7CEC2EEAB
:100BC000D0E0F4CEC6EED0E0F1CE80E00895F89407
:100BD000E82FE295EF70F0E041A18F7021E030E066
:100BE000B90102C0660F771F8A95E2F7CB01962FF5
:100BF0009095942391A392A1892B82A37894089530
:100C00008091360280FD14C081FD14C082FD16C0A3
:100C100080913802882381F08E3180F420E5829F14
:100C2000C00111246EE170E00E94CE20862F08954D
:100C300084E1089588E2089588E0089580E50895A4
:100C40008091360280FD16C081FD16C082FD16C05F
:100C5000809137028823A1F0883280F428E0829FB7
:100C6000C001112468E270E00E94CE20862F672B1D
:100C700039F0089582E0089584E0089588E00895A9
:100C800081E00895E0E1E80FE031E0F5F0E0E458BC
:100C9000FE4D0C9404210E940006819580933C0235
:100CA00008950E940006FACF0E9400068195809365
:100CB0003B0208950E940006FACF0E94200680930E
:100CC0003D0208950E9420068195F9CF0E942006DA
:100CD000819580933E0208950E942006FACF845F9A
:100CE000990B21E030E001C0220F8A95EAF780914C
:100CF0003A02822B80933A020895809136028160F5
:100D0000809336020895809136028260F9CF8091F7
:100D100036028460F5CF40913B02803F59F48091C8
:100D20003C0287FF0DC010923C0241110BC0109293
:100D3000380208C0813F81F480913C0218169CF370
:100D4000442381F080913D0290913E02892B09F06D
:100D50005AC0109237020895823F49F447FFF0CFFE
:100D600010923B0280913C028111ECCFE0CF833F97
:100D700019F41416ACF3E4CF90913D02893F29F4A5
:100D80001916F4F610923D02DBCF8A3F19F497FF53
:100D9000D7CFF8CF90913E028B3F29F497FFD0CF69
:100DA00010923E02CDCF8C3F19F41916CCF3C8CF68
:100DB0009CE0980F953090F4845F990B21E030E02F
:100DC000B90102C0660F771F8A95E2F7CB018095C3
:100DD00090913A02892380933A02B2CF8D3F31F449
:100DE000809136028E7F80933602AACF8E3F21F407
:100DF000809136028D7FF7CF8F3F09F0A1CF809190
:100E000036028B7FF0CF0895EF92FF920F931F93DE
:100E1000CF93DF93CDB7DEB728970FB6F894DEBF38
:100E20000FBECDBF8430E8F581113CC090918000A9
:100E3000977F909380002F98A0918600B0918700B3
:100E4000282F30E00E94112169837A838B839C8351
:100E500023E030E040E050E00E94E22089019A0166
:100E600080918600909187006CE070E00E94BA202B
:100E700060177107E8F0C80169E070E00E94BA20CD
:100E800070938D0060938C0028960FB6F894DEBFA7
:100E90000FBECDBFDF91CF911F910F91FF90EF90CB
:100EA000089583E090918000986090938000C4CF73
:100EB0008091860090918700E0908600F0908700F6
:100EC000E0918600F091870066E070E00E94BA2011
:100ED000060F171F211D311DD901C80125E0880FFC
:100EE000991FAA1FBB1F2A95D1F789839A83AB83C9
:100EF000BC83C70166E070E00E94BA209F0150E009
:100F000040E0260F371F411D511D69817A818B8179
:100F10009C810E94E22029833A834B835C83E09189
:100F20008600F0918700CA01B9010E94AA20DF0162
:100F30009B01AC010E9420216D837E838F83988763
:100F40009B01AC0169817A818B819C810E94AA20DE
:100F500069837A838B839C83DC01CB013FE0B69568
:100F6000A795979587953A95D1F74091860050912E
:100F7000870070E060E0481759076A077B0720F494
:100F80008091860090918700BC017ACF282F220F94
:100F9000220F220F90913F029770922B90933F0265
:100FA000987F21E009F420E090913F0220FB90F926
:100FB00090933F020C940407E091F001F091F1014D
:100FC000309721F00190F081E02D099480E00895A0
:100FD0002091BA013091BB012817390771F0909325
:100FE000BB018093BA01E091F001F091F1013097DB
:100FF00021F00680F781E02D099408952091B80131
:101000003091B9012817390771F09093B901809395
:10101000B801E091F001F091F101309721F00084E6
:10102000F185E02D099408952FB7F8948091D001AF
:101030009091D101A091D201B091D3012FBF089519
:101040000E94140820913B0230913C02232B21F096
:101050008093CD019093CE0120913D0230913E02CC
:10106000232B21F08093CB019093CC01E091F001F0
:10107000F091F101309749F082E0809339020480C9
:10108000F581E02D89E392E0099408959C014FB722
:10109000F8948091D0019091D101A091D201B091AA
:1010A000D3014FBF821B930B08958091B701089520
:1010B0000895FC01CB0120919201309193012617F4
:1010C000370790F0009729F42091E8002E772093BD
:1010D000E80040E0009751F4411108C08091E80019
:1010E00082FF31C080E00895C901F3CF2091D4017F
:1010F0002223A9F12530A9F12091E80023FD2DC07C
:101100002091E80022FDEACF2091E80020FFE2CF05
:101110003091F3002091F200009719F0283031054A
:1011200058F041E02830310509F040E02091E80016
:101130002E772093E800CECF41914093F1000197A4
:101140002F5F3F4FE9CF8091D401882341F0853054
:1011500041F08091E80083FFC1CF81E0089582E0F3
:10116000089583E0089580918C0187FF13C08091DA
:10117000E80082FF06C08091E8008B778093E8004A
:1011800004C08091D4018111F2CF08958091D401DF
:101190008823D9F38091E80080FFF8CF8091E800A0
:1011A0008E77ECCF2091E4003091E50095E6A9011F
:1011B0002091EC00822F817020FF06C08091E80012
:1011C00080FF06C080E008952091E80022FD1AC04B
:1011D0008091D401882389F0853089F08091EB00DB
:1011E00085FD0FC02091E4003091E50042175307C0
:1011F000F9F29150E1F684E0089582E0089583E0E9
:10120000089581E00895E8EDF0E080818E7F80838D
:101210001092E2001092DA001092E100A0EEB0E02D
:101220008C9181608C9380818F77808319BCA7ED2E
:10123000B0E08C918E7F8C9380818F7E8083109222
:101240008B010895EF92FF920F931F93CF937C0130
:101250008B010E94D208C82F811117C08091E8002D
:1012600085FD0BC08091E8008E778093E8000E9496
:10127000D208882399F3C82F08C0F70181917F0114
:101280008093F1000150110949F78C2FCF911F91E4
:101290000F91FF90EF900895982F9093E900242FDD
:1012A000762F50E0891731F07091EC002091ED001D
:1012B0005091F00021FD06C09F5F973071F7809339
:1012C000E90008953091EB003E7F3093EB003091C0
:1012D000ED003D7F3093ED003091EB0031603093B5
:1012E000EB007093EC002093ED005093F000209100
:1012F000EE0027FDE1CF0895CF92DF92EF92FF92AB
:101300000F931F93CF93DF93C8EDD0E088818F7E3A
:101310008883E7EDF0E080818160808384E082BF94
:1013200081E080938B0188818E7F888302EE10E0BC
:10133000F80110821092DA0081EEC82ED12CF6014D
:10134000108288818F7788838881806888838881EC
:101350008F7D888319BC1092D40110928A0110925B
:10136000BD011092890190EEE92EF12CF7018081E8
:101370008B7F808388818160888342E060E080E0A9
:101380000E944C09F60180818E7F8083F801808164
:1013900081608083808188608083F70180818E7F77
:1013A0008083888180618883DF91CF911F910F9125
:1013B000FF90EF90DF90CF90089581E08093E00060
:1013C00080E28093D8001092C9008FE19EE40197DB
:1013D000F1F700C0000087E090EBDC01809382020F
:1013E00090938302A0938402B093850288E19CE0ED
:1013F0000FB6F894A895809360000FBE909360009C
:10140000FFCFCF93DF93D82FC92F80910C01882372
:10141000C1F18091470287FF34C060E284E080938D
:10142000E9008FEF9091E800815095FD06C095EDA1
:101430009A95F1F700008111F5CF8091E80085FFC2
:101440001DC080910C0170E050E040E0811104C0AB
:1014500050E040E068E070E08D2F9C2F0E94220950
:101460008091E8008E778093E80080E2ED2FFC2FDA
:10147000A7E9B1E001900D928A95E1F7DF91CF9154
:10148000089568E081E0CBCF24E02093E9002FEFBE
:101490003091E800215035FD06C035ED3A95F1F761
:1014A00000002111F5CF2091E80025FF0BC050E08E
:1014B00040E066E070E00E9422098091E8008E77AB
:1014C0008093E8000895809394017093960160934F
:1014D00095018091D4018430F9F48093E9008FEF75
:1014E0009091E800815095FD06C095ED9A95F1F731
:1014F00000008111F5CF8091E80085FF0DC050E01C
:1015000040E063E070E084E991E00E94220980916C
:10151000E8008E778093E8000895BC0183E00C9486
:10152000630ABC0184E00C94630A4F925F926F924D
:101530007F928F929F92AF92BF92CF92DF92EF9263
:10154000FF920F931F93CF93DF93D0E0C0E030EC76
:10155000A32EB12C8E01000F111F3E011DC0F601FC
:1015600085909490692DC7010E943921682DC7018B
:1015700001960E94392122E0C20ED11C32E0E30E16
:10158000F11C4E145F0459F7005E1F4F80E1680E96
:10159000711CA016B10681F0C301880F991F9C0130
:1015A00029593D4F6901780137E2E30EF11C28010A
:1015B00087E4480E511CD3CF20ECA20EB11CC05AB8
:1015C000DF4FC03831E0D30729F6DF91CF911F916B
:1015D0000F91FF90EF90DF90CF90BF90AF909F90D2
:1015E0008F907F906F905F904F900895682F86E066
:1015F00090E00C943921CF93C82F6FEF811162E2F4
:1016000083E290E00E9439216FEFC11164E084E22F
:1016100090E00E9439216FEFC11165E285E290E010
:10162000CF910C943921CF93DF93C7E2D3E060E0F0
:10163000CE010E9439212196C11584E0D807B9F75F
:10164000DF91CF91089580E00E94FB0A60E086E27E
:1016500090E00E9439210E94950A0E94130B81E0BC
:101660000C94FB0ACF9384E090E00E942B21C82FBA
:1016700082E290E00E942B21982F8C2FCF91089529
:1016800083E290E00E942B21823289F484E290E090
:101690000E942B21843059F485E290E00E942B2196
:1016A00091E0853209F090E0892F8170089580E003
:1016B000FCCF0F931F93CF93DF9320E2629FE00153
:1016C000112450E0440F551FC40FD51F30EC839FE9
:1016D000C00DD11D1124CE0187960E942B21082F09
:1016E00010E0102F0027CE0188960E942B21980130
:1016F000282BC901DF91CF911F910F910895462F9B
:10170000672F843030F4763020F4403110F40C949C
:10171000590B90E080E00895DF92EF92FF920F93D3
:101720001F93CF93DF937C01009145028091440287
:10173000082BC7E0D0E010E0DC2EC8010C2E02C060
:10174000959587950A94E2F780FD0CC02197A0F744
:10175000D12C8D2DDF91CF911F910F91FF90EF90A4
:10176000DF900895B7018C2F0E947F0B0E945C04CC
:10177000019761F3EECF0F931F93CF93FC0182810A
:1017800000811181882389F0662379F0C8010E94C5
:101790008C0BC82F682FC8010E944C03B8018C2FF6
:1017A000CF911F910F910C947F0BC8010E94780379
:1017B000C82FF4CFCF93DF93D82FC92F0E948C0B63
:1017C0006D2F7C2F0E947F0BDF91CF910C945C04D6
:1017D0000E94DA0B282F92959F70963091F060F45A
:1017E000925F9F70923030F481E0203F81F030F4BE
:1017F000283E30F080E008959A5FF3CF243FD1F780
:10180000089581E0283EE0F3213FA1F7F9CF089544
:101810008091420290914902892B809366019091B8
:1018200043029923A1F0892B8093660180910C01DA
:101830008823D9F18091470287FF37C08EE1E8E61F
:10184000F1E090E0815098F591110E94130440E27C
:1018500050E062EF71E086E691E00E946D21892BF5
:1018600059F180E2E6E6F1E0A2EFB1E001900D92DD
:101870008A95E1F7E091F001F091F1013097E1F004
:1018800080910C01882359F08091470287FF07C09F
:10189000809166018093670186E0809366010280F3
:1018A000F381E02D86E691E0099486E0C8CF21918E
:1018B000222341F29F5FC6CF0895CF93C82F88237C
:1018C00009F4AEC08238C1F40E94DC0781FDA8C0D3
:1018D00089E30E94AA030E94080C2FEF31EE84E0F6
:1018E000215030408040E1F700C0000089E30E94B1
:1018F000DE03CF910C94080C8338A1F40E94DC071E
:1019000080FD8EC083E50E94AA030E94080C9FEF11
:1019100021EE34E0915020403040E1F700C000005B
:1019200083E5E5CF8438A1F40E94DC0782FD78C00E
:1019300087E40E94AA030E94080C8FEF91EE24E036
:10194000815090402040E1F700C0000087E4CFCFF5
:101950008CEF8C0F813A90F580910C01882301F176
:101960008091470287FF1CC0EC2FE695E695E6952F
:10197000F0E0EA59FE4F828190E04C2F477021E061
:1019800030E002C0220F331F4A95E2F782239323EF
:10199000892B81F08C2F0E94DE030E94080C0AC064
:1019A000E8E6F1E08EE691E02191C21799F38E17F7
:1019B0009F07D1F78C2F0E94AA039BCF80E28C0F48
:1019C000883068F4C77021E030E001C0220FCA956A
:1019D000EAF780914202822B809342028ACF8BE504
:1019E0008C0F833038F42C2F2452330BC901CF9144
:1019F0000C94E807E8E5EC0FE73150F4F0E0EE0F67
:101A0000FF1FEA5CFE4F80819181CF910C94FE070D
:101A1000C03F30F08C2F0E944206CF910C942008DA
:101A2000CF910895882309F452C0823871F40E943E
:101A3000DC0781FF4CC089E30E94AA030E94080CC6
:101A400089E30E94DE030C94080C833859F40E9449
:101A5000DC0780FF3CC083E50E94AA030E94080CBB
:101A600083E5EFCF843859F40E94DC0782FF2FC052
:101A700087E40E94AA030E94080C87E4E2CF9CEF4F
:101A8000980F913AF0F290E2980F983050F48770E6
:101A900091E001C0990F8A95EAF7892F0E940B0403
:101AA000D2CF9BE5980F933020F490E080E00C9427
:101AB000E80798E5980F973120F490E080E00C94C7
:101AC000FE07803F20F00E948B060C9420080895AA
:101AD0000F931F93CF93C82F10E000E0893311F4C8
:101AE00000E510E08C2F0E945D0C0115110531F40A
:101AF0008C2FCF911F910F910C94120D8FE99FE0C5
:101B00000197F1F700C0000001501109EECF8823C2
:101B100039F090914202892B809342020C94080C78
:101B20000895882321F00E940B040C94080C08955A
:101B3000FF920F931F93CF93DF93C62FD42F122FB3
:101B40008823A9F0609340020E94140890938701B3
:101B500080938601C77081E001C0880FCA95EAF7BB
:101B6000DF91CF911F910F91FF900C94870D809181
:101B70004002681334C080918601909187010E94D1
:101B80004608883C910558F500E20D0FCD17A9F0E5
:101B9000C770FF24F3948F2D01C0880FCA95EAF710
:101BA0000E94910D083048F48D2F877001C0FF0C02
:101BB0008A95EAF78F2D0E94870D812F0E94680D6C
:101BC0000830A0F4D77081E001C0880FDA95EAF7F9
:101BD000DF91CF911F910F91FF900C94910DC770E1
:101BE00081E001C0880FCA95EAF7F2CFDF91CF916B
:101BF0001F910F91FF90089590E080E00E94E80708
:101C000090E080E00E94FE07109249020E94080CBA
:101C100086E0E9E3F2E0DF011D928A95E9F7109290
:101C2000380210923702109236020C94200810925B
:101C3000420280910C01E8E6F1E0882359F080919E
:101C4000470287FF07C08EE1DF011D928A95E9F701
:101C50000C94FC0D86E0F8CF1F93CF93DF93CDB7A4
:101C6000DEB7AA970FB6F894DEBF0FBECDBF8CE8E3
:101C700091E0FC0101962091F100208321E084395C
:101C80009207B9F780918D01893009F456C0C8F4E4
:101C9000823009F4B3C0833009F482C0813071F11D
:101CA0008091E80083FF84C280918C0190918D0126
:101CB0009A3008F07DC2E92FF0E0E457FE4D0C9415
:101CC00004218A3009F489C08B3051F780918C014E
:101CD000813231F78091900190919101892B01F728
:101CE0008091E800877F8093E8000E94B30880918C
:101CF0008E0180930C010E94170ED2CF80918C012F
:101D0000813A71F68091E800877F8093E8008091A6
:101D1000900190919101892B61F460E287E991E053
:101D200070E00E9459088091E8008B778093E8006A
:101D3000B7CF60E090E080E0F3CF80918C018132FA
:101D400009F0AECF80919001909191018D7F892B08
:101D500009F0A6CF8091E800877F8093E80080910A
:101D6000E80082FF18C09091F3008091F200029782
:101D700031F48091F100813011F0863021F48091AE
:101D8000F1008093B7018091E8008B778093E800A1
:101D90000E94B30885CF8091D4018111E0CF80CF1C
:101DA00080918C01813A09F07BCF809190019091D4
:101DB0009101892B09F074CF8091E800877F80938F
:101DC000E8008091E80080FFFCCF80910C018093B7
:101DD000F1008091E8008E77D9CF80918C0181321B
:101DE00009F05ECF8091E800877F8093E8000E9431
:101DF000B30880918F018093880152CF80918C012C
:101E0000813A09F04DCF8091E800877F8093E80008
:101E10008091E80080FFFCCF80918801D8CF803886
:101E200099F0823809F0C4C1809190018F70873099
:101E300008F0BEC18093E9008091EB0085FB882704
:101E400080F91092E90006C0809189019091BD014E
:101E5000911182609091E800977F9093E8008093C1
:101E6000F1001092F1008091E8008E779DC18823E7
:101E700009F48BC1823009F09BC180918E018111E0
:101E80008EC1809190018F702FEF280F263008F0BF
:101E90008FC18093E9002091EB0020FF80C1933037
:101EA00031F48091EB0080628093EB0078C19091D7
:101EB000EB0090619093EB0021E030E001C0220F35
:101EC0008A95EAF72093EA001092EA008091EB00ED
:101ED0008860EACF81116CC110918E011F778091CB
:101EE000E3008078812B8093E3008091E800877F76
:101EF0008093E8000E94B3088091E80080FFFCCF47
:101F00008091E30080688093E30082E0111183E018
:101F10008093D4014DC18058823008F049C140916E
:101F20008E0150918F014C3D83E0580799F583E075
:101F30008A838AE289834FB7F894DE01139620E002
:101F40003EE051E2E32FF0E050935700849120FFF0
:101F500003C082958F703F5F8F708A30C8F0895CB4
:101F600090E08D939D932F5F243161F74FBF809157
:101F7000E800877F8093E8006AE270E0CE01019676
:101F80000E9459088091E8008B778093E80010C187
:101F9000805DE6CF8091900190919101252F3327AC
:101FA0002330310509F44AC078F52130310509F4B0
:101FB00079C08BE590E0E4ECF1E02230310509F0E6
:101FC000F7C02091E800277F2093E800209192013C
:101FD000309193018217930708F49C0140E021158A
:101FE000310509F064C0411162C08091E80082FDB2
:101FF000C9CF8091D401882329F2853019F28091CC
:10200000E80083FFF2CFBECF2132310509F43BC097
:102010002232310509F0CCC08330910508F0C8C0E8
:10202000FC01EE0FFF1FEC5EFE4F0190F081E02DF2
:102030008F5E9E4FDC018C9190E011C0CA01992700
:10204000413089F082309105B1F0892B09F0B0C0A0
:10205000E3E6F2E0E4918E2F90E0E3E6F2E0009711
:1020600009F4A6C0AECFE1E5F2E0E4918E2F90E056
:10207000E1E5F2E0F4CFE1E3F2E0E4918E2F90E0CD
:10208000E1E3F2E0ECCF8330910508F091C0880FD6
:10209000991FFC01E65EFE4F0190F081E02D89E082
:1020A00090E08FCF82E190E0EFE1F2E08ACF809183
:1020B000D401882309F466CF853009F463CF809179
:1020C000E80083FD5FCF8091E80082FD8ECF809194
:1020D000E80080FF84CF9091F3008091F2002115F9
:1020E000310519F08830910550F041E0089709F06A
:1020F00040E08091E8008E778093E80070CF4491B3
:102100004093F1003196215031090196E8CF803893
:1021100009F04EC08091E800877F8093E8008091AD
:102120008A018093F1009FCE811142C010918E01EF
:102130001230F0F58091E800877F8093E8001093DB
:102140008A010E94B308112311F084E005C0809138
:10215000E30087FDFACF81E08093D40142E061EC97
:1021600081E00E944C0942E261EC84E00E944C094B
:1021700042E261EC82E00E944C0942E260EC83E0C2
:102180000E944C098091D40113C080918E0181304E
:1021900079F481E0933009F080E08093BD011092E2
:1021A000E9008091E800877F8093E8000E94B308EF
:1021B0008091E80083FF0AC08091E800877F8093C8
:1021C000E8008091EB0080628093EB00AA960FB646
:1021D000F894DEBF0FBECDBFDF91CF911F91089560
:1021E000809344020C94FC0D809345020C94FC0DEA
:1021F00021E030E001C0220F8A95EAF78091450284
:10220000822B0C94F41021E030E001C0220F8A955B
:10221000EAF720958091450282230C94F410909166
:1022200046028095892380934602282F277091F4D7
:10223000282F082E000C330B9217130659F090919B
:10224000480292FD07C08595859585950E940311EA
:10225000109246020895CF93C0914802C2FB99277D
:1022600090F9981799F080FBC2F9C09348026091E9
:10227000470284E090E00E9439216C2F82E290E0D6
:102280000E94392182E0CF910C940F11CF910895D3
:1022900080914502982F9670963019F488600C94BE
:1022A000F410877FFCCF4F925F926F927F928F9254
:1022B0009F92AF92BF92CF92DF92EF92FF920F93D5
:1022C0001F93CF93DF93CDB7DEB72C970FB6F8945B
:1022D000DEBF0FBECDBFFE0131968CE0DF011D9247
:1022E0008A95E9F790E2E92E91E0F92E8F0126E236
:1022F000622E21E0722E2F01AA24A394B12C46E372
:10230000842E41E0942EF70181917F018F3F09F4E3
:1023100045C0F894E82FE295EF70F0E021A18F70AE
:10232000A50102C0440F551F8A95E2F7CA01922FFA
:10233000982B91A392A18095892382A3789400C0C1
:10234000E6E2F1E021E030E0D12CC12C41914F3F99
:1023500009F45DC0A42FA295AF70A05EB0E08C918F
:1023600090E04F7002C0959587954A95E2F780FD01
:102370004EC0C901C82AD92A220F331F8E169F06C4
:1023800029F7F701319780818F3F11F00E94E7050F
:1023900050EA5A95F1F7D801CD92DC920E5F1F4FAB
:1023A0006E147F0409F0AFCF4CE050E0B20184EE30
:1023B00091E00E946D219C0111E0892B09F410E04D
:1023C000232B41F18CE0F201A4EEB1E001900D92DB
:1023D0008A95E1F781E08093D7010E9414089093D9
:1023E000D6018093D5018091D5019091D6010E94AC
:1023F0004608059798F08CE0E4EEF1E0A8EDB1E036
:1024000001900D928A95E1F71092D70107C080E004
:1024100090E0B0CF8091D7018111E5CF812F2C962C
:102420000FB6F894DEBF0FBECDBFDF91CF911F91E5
:102430000F91FF90EF90DF90CF90BF90AF909F9063
:102440008F907F906F905F904F90089569EE7EEF30
:1024500090E080E00E94572160E082E090E00E94DE
:10246000392160E083E090E00E943921109244021B
:1024700060E084E090E00E94392160E082E290E038
:102480000E94392160E085E090E00E94392160E0FF
:1024900086E090E00E9439216FEF87E090E00E9493
:1024A000392140E050E0BA0188E090E00E944B21E1
:1024B00060E08DE090E00E94392140E050E0BA01F8
:1024C00088E190E00E944B2160E087E190E00E946B
:1024D000392140E050E0BA018CE190E00E944B21AC
:1024E00070E060E080E290E00E94572140E050E020
:1024F000BA0188E190E00E944B2180E00E94FB0A33
:102500000E94230B40E050E0BA018FE090E00E946F
:102510004B2140E050E0BA0183E190E00C944B2164
:102520003F924F925F926F927F928F929F92AF9263
:10253000BF92CF92DF92EF92FF920F931F93CF93B0
:10254000DF9300D000D0CDB7DEB77C01FC019081D5
:10255000818123813481232B21F089238F3F09F04E
:10256000B0C50F900F900F900F90DF91CF911F91FA
:102570000F91FF90EF90DF90CF90BF90AF909F9022
:102580008F907F906F905F904F903F90089598014B
:1025900022513F452031310508F041C58FEF93E0CE
:1025A0000E942B21025147E2842E43E0942E88237F
:1025B00089F1809146028770A1F2F7018281882318
:1025C00081F28091480282FDCCCF82E00F900F9083
:1025D0000F900F90DF91CF911F910F91FF90EF908F
:1025E000DF90CF90BF90AF909F908F907F906F9033
:1025F0005F904F903F900C940F118114F4E09F0670
:10260000C1F2C4010E942B21811101C001502FEFA2
:10261000821A920A0111F1CF80910D0190910E0161
:10262000A0910F01B091100189839A83AB83BC8381
:10263000442443943AE0332E84010F5F1F4FC401BA
:102640000E942B2189831A82882309F4B2CF9FEF3D
:10265000980F9330F8F48A83498232E0830E911CFC
:10266000C8010E942B218B83882309F4A2CF8E01FD
:102670000F5F1F4FF80120812223F1F2213009F072
:1026800044C091818281913039F40E5F1F4F0E94C6
:10269000680D08C04801EBCF923039F40E5F1F4F30
:1026A0000E945D0C0F5F1F4FE5CF933029F40E5F42
:1026B0001F4F0E94120DF6CF943019F00F5F1F4F7D
:1026C000F1CF0E5F1F4F20E030E0A8014F5F5F4F5A
:1026D0008053990B8A30910560F02115310511F373
:1026E0008FE99FE00197F1F700C000002150310908
:1026F000F4CF329EB001339E700D11249C01260F41
:10270000371FF80181818A01E0CFE22FF0E0E9561E
:10271000FA4F5490822F86958695869590E0FC011D
:10272000E957FA4FE4912770F0E0022E02C0F595C8
:10273000E7950A94E2F73F0131E063227724FC0138
:10274000E958FA4FA490B12C022E02C0B594A79478
:102750000A94E2F7E1E0AE22BB24FC01E959FA4F0A
:10276000C490D12C02C0D594C7942A95E2F7F1E029
:10277000CF22DD246114710419F081EE0E945D0CFA
:10278000A114B10419F086EE0E945D0C852D0E9403
:10279000680DAB2819F086EE0E94120D672819F01B
:1027A00081EE0E94120DCD2809F47CCF8CE26FCF10
:1027B00081E00E94F8100E944811FBCE81E00E9447
:1027C0000311F9CF82E0F5CF0F3B2CE5120709F496
:1027D0006AC0003C3CE5130709F488C0033F9CE550
:1027E000190709F4B1C008F095C0083DFCE51F07C2
:1027F00009F4A6C0093D2CE5120709F4ADC026E294
:1028000041EE61EE073D3CE5130709F496C08111E6
:1028100026C406311C4509F0C5C0909142028823A8
:1028200009F4CAC1892F8A7A91E009F490E0909363
:1028300041028111BFC189E20E94AA030E94080CD3
:10284000B8CE83E00E94C60780913F020E94F60A3C
:10285000B0CE80E0F7CF80913F02982F987F09F4A7
:102860003FC0885080933F02887F91E009F490E058
:1028700080913F0290FB80F913C080913F02982F16
:10288000969596959695883140F49F5F990F990F8C
:10289000990F8770892B80933F0280913F0281605E
:1028A00080933F021BC080913F0280FF09C08E7F52
:1028B00080933F020E94F60A80E00E94040779CECE
:1028C00080913F0280FD75CE816080933F02813010
:1028D00019F489E080933F0280913F020E94F60A3A
:1028E00080913F02869586958695E7CF90913F022D
:1028F000892F8695869586958F5F8F719770843026
:1029000020F4880F880F880F982B90933F028091B6
:102910003F02AACF053F9CE51907D1F027E245EE1B
:1029200066EE063FECE51E0741F027E245EE64EE59
:10293000043FFCE51F0709F06ACF0E94980D39CECD
:1029400027E245EE65EEF9CF26E241EE60EEF5CFE7
:1029500026E241EE62EEF1CF28E241E0F3CF9801AA
:102960002A5F3C452930310508F48BC306312CE53C
:10297000120709F452CF0A352DE5120709F445C1B3
:1029800008F024C101158CE5180709F431C10E3D8A
:102990001C4541F40E9426120CCE053AFDE51F07A6
:1029A00009F46FC3F7018281C080D180882309F4C4
:1029B00030C1C6010E948C0B182F682FC6010E94DF
:1029C0004C03B601812F0E947F0B0E945C048C0196
:1029D000F7019280858082942FE0822280914602C6
:1029E0008770C1F0C92C9920B1F0812F807F80348D
:1029F00021F080E2800F883068F08091480282FDEB
:102A000009C082E00E940F11809146028770CC2499
:102A1000C3948111C12C812F82958F70A82EB12C67
:102A20008C3008F063C1F501EA56FE4D0C94042188
:102A3000F801E350FC45809147028160E331F105E4
:102A400030F5EE55FE4D0C94042103308DE518074A
:102A500078F40A3F9CE5190708F423C3F801EB5FFB
:102A6000FC45E830F10510F5EB54FE4D0C940421C3
:102A70000136EDE51E0709F496C090914702892FB3
:102A80008E7F90FF8160053A1D4509F00AC380934F
:102A9000470207C3809147028260F9CF80914702C5
:102AA0008460F5CF809147028860F1CF8091480221
:102AB000816080934802F5C2809148028260F9CF1C
:102AC000809147028061E3CF809147028062DFCF2F
:102AD000809147028064DBCF0E94170E80914702ED
:102AE0008068D5CF809147028C60D1CF8091480219
:102AF0008360DFCF809147028E7FC9CF80914702EC
:102B00008D7FC5CF809147028B7FC1CF80914702D7
:102B1000877FBDCF809148028E7FCBCF80914802C6
:102B20008D7FC7CF809147028F7EB1CF80914702C2
:102B30008F7DADCF809147028F7BA9CF0E94170E6A
:102B4000809147028F77A3CF80914702837F9FCFE9
:102B5000809148028C7FADCF8091470282FB9927FC
:102B600090F921E0922790FB82F990FB83F98FCFB7
:102B700080914802982F909591708E7F892B90FBC1
:102B800081F997CF0E94170E90914702892F97FBEA
:102B900087F980587CCF61E08EE090E00E94392177
:102BA00080C260E0F9CF90914702892F8F7E94FF19
:102BB00080616DCF85E340CE80914102811104C0D8
:102BC00089E20E94DE033ACE85E3FBCF0B35EDE5CB
:102BD0001E07E9F00C351D4509F0E4CE809148024E
:102BE00082FB882780F991E089270E942B11DACE99
:102BF0000E94170E2FEF34E38CE0215030408040CC
:102C0000E1F700C000000E94DD0981E0EECF80E026
:102C1000ECCFC6010E947803182FD3CEF12FFF709E
:102C2000DF2E107F19F0D29490EFD9229920B9F0BD
:102C3000DD2069F080E2800F883010F0011109C0BA
:102C4000809142028D29809342020E94080C802FBD
:102C50004BC0809149028D2980934902F6CF802F85
:102C60000E94120DDD2009F441C080E2800F8830FF
:102C700010F0011104C08D2D0E940B0406C0D094E9
:102C8000809149028D21809349020E94080C2EC038
:102C9000212F2F70D22E107F103219F0D29480EF96
:102CA000D822002381F0013009F485C0992009F46D
:102CB0008FC0882009F485C0F701858180FFC7CFC8
:102CC0008F7085837EC02091480222FF51C09920D9
:102CD00009F447C0DD2039F0809142028D298093AC
:102CE00042020E94080C80E00E945D0C98E0A91A44
:102CF000B108E4E0AE16B10420F40E94DC070E94A3
:102D00004603CC20A9F08091460280FD11C0F70156
:102D100012828595859585950E94F810C7010E94BD
:102D20009012809146028595859585950E940311A4
:102D300060E0C7010F900F900F900F90DF91CF913F
:102D40001F910F91FF90EF90DF90CF90BF90AF90C9
:102D50009F908F907F906F905F904F903F900C94DA
:102D6000BB0B80E00E94120DDD2009F4BFCF83CFA2
:102D70009920A1F0909143028D2D892B811003C0E1
:102D80000E94870DB3CF31E08312FACF22FDAECF80
:102D9000981709F4ABCF80934302A8CF811006C0E7
:102DA0000E9413048D2D0E94910DA0CF81E0881602
:102DB00009F49CCFF5CF992031F095E0981508F4EF
:102DC00095CF8D2DDDCFE4E0E81508F48FCFEACF65
:102DD000882041F3093349F4FFEF27EE33E0F15047
:102DE00020403040E1F700C00000802F0E94120D0B
:102DF0007DCF812F86958695837061F0813009F0B3
:102E000075CFC8019370911002C090E080E00E94DD
:102E1000FE076CCFC8019370911002C090E080E073
:102E20000E94E80763CF802F992029F00E94420674
:102E30000E9420085BCF0E948B06FACF812F8370FF
:102E4000A1F5911053CF802F829586958770880FBA
:102E5000880F402F4F70082E01C0440F0A94EAF7E4
:102E6000202F207104FF07C02FE030E001C0220FA7
:102E70008A95EAF72095169516951370123081F011
:102E8000822F842B133031F080914402113029F0CD
:102E9000242B82230E94F01029CF842B822BFACF7F
:102EA000242B809144028227F5CF992061F110FFF5
:102EB0001DCF802F829586958770880F880F402FB1
:102EC0004F70082E01C0440F0A94EAF7202F20719A
:102ED00004FF07C02FE030E001C0220F8A95EAF717
:102EE0002095169516951370123099F0822F842B29
:102EF000133031F080914502113041F0242B8223B0
:102F00000E94F410F3CE11FFF1CED3CF842B822B8D
:102F1000F7CF242B809145028227F2CF1F70992092
:102F200029F0812F0E94F810802F2ACF802F0E9435
:102F3000910D812F0E940311D9CE023F81F160F4DF
:102F4000003FB9F0013F81F0992009F458C0811089
:102F50007ECE812F8F7127C0033F41F1043FA1F73F
:102F60008091480282FF2DC0812F8F71992011F32B
:102F70001AC0992079F084E0881508F4B7CE1F7143
:102F800081E090E001C0880F1A95EAF79091450220
:102F90008927B6CF95E0981508F4A8CEF0CF812FF9
:102FA0008F719110C7CF0E94F810A0CE80E09920B9
:102FB00009F4A6CF1F7181E001C0880F1A95EAF7C6
:102FC0009FCF992089F01F71812F0E94F810809166
:102FD000480282FD07C0E8E01E9FC0011124836003
:102FE00080934602812FDFCF81E00E940F11F1E034
:102FF000F81508F07BCE82E00E940F1177CE882072
:1030000059F0093309F0F1CE2FEF37EE83E021506C
:1030100030408040E1F7E7CE812F8F718BCF0031B8
:10302000FFE51F0709F4C4CB01312FE5120709F4AE
:10303000C9CB0E3B2CE5120709F41FCC08F0C4CB1A
:103040000C3B9CE5190709F404CC0D3BECE51E078D
:1030500009F401CC0B3BFCE51F0709F4F2CB1092FD
:10306000400201362DE5120761F008F096CC0631DA
:103070009CE5190708F073CC0230ECE51E0708F454
:1030800081CC0E94320B9093480280934702063114
:103090002CE5120708F0D9CC02303CE5130708F004
:1030A000C7CC609147021091480284E090E00E94F2
:1030B0003921612F82E290E00E9439210E94170E8F
:1030C00078CA61E0C7010E94BB0B8C01F7018281C5
:1030D00081115DCA00313FE5130709F46FCB01315F
:1030E0009FE5190709F07ACB82E069CB1F93CF9354
:1030F000DF9380918102807FA9F480917E028823F2
:1031000089F080914B02C0914A0270917C026091DB
:103110007D02A0917F02B0918002D62FD72316E0C6
:10312000C81304C0DF91CF911F91089590E01097CC
:1031300011F0DF3F19F401968770F2CF189F9001CC
:10314000199F300D1124F901E45BFD4F4181641397
:10315000F2CF40814713EFCF42814111ECCF438141
:1031600054814A1B5B0B483C510528F78091810232
:103170008F70806180938102F901EF5AFD4F808149
:103180008F70806180838CE792E00E949012DF91C3
:10319000CF911F910C94A0038F929F92AF92BF92F8
:1031A000DF92EF92FF920F931F93CF93DF93CDB7F0
:1031B000DEB72B970FB6F894DEBF0FBECDBF8C01E4
:1031C00085E0F801DE01179601900D928A95E1F7EE
:1031D000F801E280A380B4808CE7882E82E0982EEC
:1031E00090917C0280917D0220917F02309180023B
:1031F0002115310529F0482F49234F3F09F028C1F7
:10320000EE2009F433C1F801808191810E94E80B1E
:10321000F82E882309F42AC186E0F801ACE7B2E071
:1032200001900D928A95E1F70E94761821C0D09006
:1032300081024D2D407F283C310508F0A8C0F801DF
:1032400021814111C3C0FE2C281325C08081891320
:1032500022C0E11020C08D2D8F708061809381028B
:103260008CE792E00E94901280918102F8018583A0
:103270008F2D2B960FB6F894DEBF0FBECDBFDF911A
:10328000CF911F910F91FF90EF90DF90BF90AF9083
:103290009F908F9008953F81AB2829F0822F832340
:1032A0008F3F09F090C080E0F82FF170DF2EE091A1
:1032B0004B0240914A0256E080FD1CC0EE20C1F254
:1032C00080918102816080938102F12CD1CF8E2F79
:1032D00090E05E9FF0011124E45BFD4F61812613B5
:1032E00006C06081361303C06281E612E7CF019603
:1032F000E82FE770E413EBCF8F8198850E94DA0BFB
:10330000292F22952F70903260F0225F2F7022308B
:1033100078F49F7051F0F8019581907F31F4D12CB1
:103320000AC09F7011F08823D1F3805E8830B8F313
:10333000C8010E949012FD2C9BCFF80180819181E1
:103340000E94E80B882309F491C0EE2009F48EC096
:1033500080918102803270F080917C0290917D0298
:103360009A8389831B82BD82AC82DE82CE01019664
:103370000E94901286E0F801ACE7B2E001900D9255
:103380008A95E1F70E947618FF24F39471CF4111DA
:1033900032C08CE792E00E94901286E0F401119214
:1033A0008A95E9F792CFF801808191810E94E80B1C
:1033B0008111E0CF80918102816080938102C801F8
:1033C0000E94901255CF81E08E256ECF2813B5CF85
:1033D000F80180818913B1CFE110AFCFD582C80148
:1033E0000E94901286E0F801ACE7B2E001900D92E5
:1033F0008A95E1F73DCFF801218182139ECFF80134
:10340000808189139ACFE11098CFD582C8010E949C
:10341000901286E0F40111928A95E9F729CFF8011C
:1034200021818213C0CFF80180818913BCCF8091A4
:10343000810280FDD7CF982F907FA1F28583903FA6
:1034400071F2982F907F905F8F70892B8583C7CF03
:10345000F0907E02A501421B530B9A01F110E7CEBA
:10346000283C3105B0F6FE2CE110D9CFC8010E94EE
:1034700090128ACF1F93CF93DF93CDB7DEB76797B4
:103480000FB6F894DEBF0FBECDBF342F4B8B252F68
:103490005C8B962F6D8B7E8B8F8B4E895F89611134
:1034A000109249021A8A3D872E879F87598B488B35
:1034B00086E0FE013D96DE01179601900D928A95F9
:1034C000E1F7CE0107960E94CC18882389F016E018
:1034D00080914B0290914A02891349C067960FB6BA
:1034E000F894DEBF0FBECDBFDF91CF911F9108953D
:1034F00086E0FE013796DE01119601900D928A95C5
:10350000E1F79F81888520914A0240914B026A85AC
:103510007B85672BE1F289238F3FC9F230E0C90137
:103520000196877099274817190671F40E94170EA3
:1035300010924A0210924B0286E0ECE7F2E0DF01C3
:103540001D928A95E9F7C3CF96E0929FD001939F91
:10355000B00D1124A45BBD4FFE01319601900D9278
:103560009A95E1F780934A020E94A003B0CF819F11
:10357000C0011124845B9D4F0E94CC18882309F45C
:10358000ADCF80914B0290E0019687709927809390
:103590004B029ECF90E080E00E943321893E9E4FF7
:1035A00011F40C94400B80E008950E94CA1A811116
:1035B0000AC00E94261280913F0284708961809324
:1035C0003F020E94F60A86E090E00E942B21809341
:1035D0003F02803220F08770886180933F02909193
:1035E0003F02892F817090FF04C0892F86958695B0
:1035F00086950C940407CDB7DEB7A4970FB6F89460
:10360000DEBF0FBECDBF84B7877F84BF0FB6F894EF
:10361000A89580916000886180936000109260009E
:103620000FBE80E890E00FB6F8948093610090930D
:1036300061000FBE85B7806885BF85B7806885BF8C
:1036400085EE95E090936501809364010E940309E3
:103650000E947C098091E20084608093E20078946B
:103660008091D401882399F08091E9001091EC00B9
:103670001795112717958F70182B1092E9008091DC
:10368000E80083FD0E942C0E1F701093E90082E079
:1036900084BD93E095BD9AEF97BD80936E000E9424
:1036A000400B811102C00E94230B00E211E0B6E240
:1036B000EB2EB1E0FB2ED8018D918D018F3F11F0E3
:1036C0000E94E705E016F106B1F706E211E0A6E375
:1036D000EA2EA1E0FA2EF80181918F018F3F11F0BF
:1036E0000E94E705E016F106B1F78CE0E8EDF1E0A5
:1036F000DF01282F1D922A95E9F7E4EEF1E0DF01C2
:103700001D928A95E9F76E9A0E94CA1A811102C029
:103710000E94261282E090E00E942B218093BE013D
:103720000E94320B90934802809347020E945311EB
:10373000EFE3FCE93197F1F700C000000E9453115C
:103740008091D80180FF08C06FEF7FEF90E080E0AC
:103750000E9457210E94DD0983E090E00E942B2106
:103760000E94F010279A2F988AE08093800089E1C8
:10377000809381008FEF9FEF909387008093860066
:103780000E94D51A0E94D51A80E091E09093F10131
:103790008093F00168E1662E712C70E4572EE4EE00
:1037A000AE2EE1E0BE2EF3E08F2E912C8091D4015D
:1037B00000E112E1853009F484C10E94531188238D
:1037C00059F08FB7F8944091D0015091D101609198
:1037D000D2017091D3018FBF58EDE52E51E0F52E47
:1037E000EFEBF1E0D70110E000E0702F8D919D919B
:1037F000219131912817390709F477C128273927F2
:1038000060E0CC24C394D12CA9014C215D21452B2F
:1038100009F465C169837A839C012C213D2191E0E3
:10382000232B09F490E09B830E9414088160782F79
:103830009D838C8349815A816B81892F0E943A1A1A
:10384000000F111FF801E154FE4F808191818C25FA
:103850009D259183808386E0E9E3F2E0DE01119605
:1038600001900D928A95E1F7C0903B02D0903C0206
:1038700000913D0210913E0210923B0210923C02D8
:1038800010923D0210923E028C2D8D2909F448C001
:103890008091CD019091CE010E9446089C018091BB
:1038A0003802882309F4E5C225313105C8F18F3F7C
:1038B00019F08F5F80933802CC2059F00E940006E7
:1038C0009FEF1C140CF491E0899F802D11248093AC
:1038D0003B02DD2059F00E9400069FEF1D140CF4FE
:1038E00091E0899F802D112480933C0230913B020E
:1038F0003323B1F020913C02222391F045EB3403B5
:10390000C0011124992309F407C190933B0255EBA0
:10391000250390011124332309F402C130933C02A2
:10392000802F812B09F448C08091CB019091CC016C
:103930000E9446089C0180913702882309F494C2B2
:1039400021353105C8F18F3F19F08F5F8093370221
:10395000002359F00E9420069FEF10160CF491E00E
:10396000899F802D112480933D02112359F00E94DC
:1039700020069FEF11160CF491E0899F802D1124F1
:1039800080933E0230913D0220913E023323A1F00C
:10399000222391F045EB3403C0011124992309F44B
:1039A000C3C090933D0255EB2503900111243323AE
:1039B00009F4BEC030933E0280913B0290913C02DC
:1039C000892B90913D02892B90913E02892B11F019
:1039D0000E94200886E0FE013196A9E3B2E0019042
:1039E0000D928A95E1F70E94DC079091CF0189172B
:1039F00021F08093CF010E9446038091D40184304E
:103A000009F0D4CE83E08093E9008091E80082FF42
:103A1000CDCE8091E80090E085FF06C00E94D208DC
:103A2000882309F489C091E08091E8008B77809326
:103A3000E800992309F4BACEE981E150E33108F0B6
:103A400008C1F0E0E354FE4D0C9404218091D401B0
:103A5000843039F180E00E94040780E00E94460330
:103A60001092BC010FB6F894A895609260000FBE4A
:103A70005092600083B7817F846083BF83B7816089
:103A800083BF7894889583B78E7F83BF0FB6F894F1
:103A9000A89580916000886180936000109260001A
:103AA0000FBE8091BD01882361F00E945311E8EDA3
:103AB000F1E081919191892B09F0B7C1AE16BF0653
:103AC000C1F78091D401853009F4C0CF0E94170E50
:103AD0000E94D51A0E94DC070E9446036ECE6F5FDB
:103AE000CC0CDD1C603109F08FCE0F5F1F4F06300C
:103AF000110509F07ACE8FEF89838A831B820E9499
:103B000014088160782F9D838C8349815A816B8151
:103B1000892F0E943A1A9FCE81E080933B02F7CE14
:103B200081E080933C02FCCE81E080933D023BCF5C
:103B300081E080933E0240CF00E210E0CE0101968A
:103B40006C018091E80085FD0AC08091E8008B77C8
:103B50008093E8000E94D208882399F364CF809173
:103B6000F100D6018D936D010150110951F75BCF22
:103B70001A8289E08B8323C08A81823009F46BC169
:103B8000833009F442C0813009F063C08FB7F894E4
:103B90002091D0013091D1014091D2015091D301B7
:103BA00029A33AA34BA35CA38FBF69A17AA18BA1E0
:103BB0009CA10E940A216B837C838D839E838091CC
:103BC000D401843009F0F2CD1091E9008091EC002D
:103BD0001F70879588278795182B82E08093E900CE
:103BE0008091E80080FF0DC050E040E060E270E0AE
:103BF000CE0101960E9422098091E8008E77809381
:103C0000E8001F701093E900D1CDFE013196D70175
:103C10008C9111969C91B2E0EB0EF11C9283838300
:103C20003296AE14BF0499F7CACF8A81823089F4E4
:103C30002B813C814D815E8129A33AA34BA35CA3D8
:103C4000CA01B9010E940A2186E290E00E9439214E
:103C5000B6CF8FEF8983B3CF4C816B818A810E946D
:103C6000590B9827892798279E838D83A8CF0D818C
:103C70001E811027012710278A81EB8030E2E39E06
:103C80007001112440EC849FE00CF11C11248C8104
:103C900090E0880F991FE80EF91E612FC7018796E3
:103CA0000E943921602FC7018896D0CF0E94950AC3
:103CB00086CF8A81893009F082CF8B8153E0859F3E
:103CC000C00111246FEF70E00E94BA20862F0E947D
:103CD000C60775CF8A81893029F08A3009F06FCF05
:103CE0001B826DCF80913F02869586958695AFEFBA
:103CF0008A9FC0011124B4010E94BA206B835FCF58
:103D000080913F020E94F60A5ACF80E18A8357CF02
:103D10001A8289ED2FCF0A811B81102701271027D6
:103D20008C816801C80ED11C7E01B5E0EB0EF11C40
:103D3000C801895D9C4FC016D10609F440CF093DEA
:103D4000110540F40E942B21F70181937F010F5F41
:103D50001F4FEECF80E0F8CF0A811B81102701278B
:103D600010279E012F5F3F4F79018C816901C80E9A
:103D7000D11CC801895D9C4FEC14FD0409F41FCFD0
:103D8000093D110528F4D70114966C910E94392140
:103D90000F5F1F4FBFEFEB1AFB0AEBCF0E94130B15
:103DA0000ECF84E0B3CF0A811B8110270127102793
:103DB0008C816801C80ED11C7E01E5E0EE0EF11C7D
:103DC000C80187960C151D0509F4F9CE0115F3E01D
:103DD0001F0740F40E942B21D7018D937D010F5FB7
:103DE0001F4FEECF80E0F8CF0A811B8110270127FB
:103DF0001027FE0131967F018C816F01C80ED11C06
:103E0000C8018796CE14DF0409F4D9CE0115F3E07A
:103E10001F0728F4D70114966C910E9439210F5F77
:103E20001F4FBFEFEB1AFB0AEBCF09BD19BD09B459
:103E300000FEFDCF8091D8008F7D8093D8008091C7
:103E4000E00082608093E0008091E00081FDFCCF83
:103E50000E94170E36CE86E290E00E942B211B8234
:103E60001C821D828E83ABCE2B30310508F06DCDC8
:103E7000A3CD2B30310508F01CCD52CD1F921FB6BB
:103E80001F9211248F939F93AF93BF938091BC0196
:103E9000811113C08091D0019091D101A091D201E4
:103EA000B091D3014196A11DB11D8093D001909393
:103EB000D101A093D201B093D301BF91AF919F9153
:103EC0008F911F901FBE1F90189578941F921FB658
:103ED0001F9211248F939F93AF93BF938091D00132
:103EE0009091D101A091D201B091D3010196A11D71
:103EF000B11D8093D0019093D101A093D201B093D2
:103F0000D301BF91AF919F918F911F901FBE1F90C2
:103F100018951F920F920FB60F9211242F933F9373
:103F20004F935F936F937F938F939F93AF93BF93C1
:103F3000EF93FF938091E10082FF09C08091E2003E
:103F400082FF05C08091E1008B7F8093E10080912A
:103F5000DA0080FF24C08091D80080FF20C08091CB
:103F6000DA008E7F8093DA008091D90080FF9BC0B9
:103F700080E189BD82E189BD09B400FEFDCF81E009
:103F80008093D40180918B01811109C00E940309A3
:103F90000E947C098091E20084608093E20080911D
:103FA000E10080FF17C08091E20080FF13C0809184
:103FB000E2008E7F8093E2008091E2008061809336
:103FC000E2008091D80080628093D80019BC85E01F
:103FD0008093D4018091E10084FF29C08091E200A8
:103FE00084FF25C080E189BD82E189BD09B400FE5E
:103FF000FDCF8091D8008F7D8093D8008091E10023
:104000008F7E8093E1008091E2008F7E8093E200BA
:104010008091E20081608093E20080918A01882390
:1040200009F447C084E08093D4018091D401809149
:10403000E10083FF27C08091E20083FF23C08091CD
:10404000E100877F8093E10082E08093D4011092A9
:104050008A018091E1008E7F8093E1008091E200EF
:104060008E7F8093E2008091E20080618093E20085
:1040700042E060E080E00E944C098091F00088609E
:104080008093F000FF91EF91BF91AF919F918F913D
:104090007F916F915F914F913F912F910F900FBE44
:1040A0000F901F90189519BC1092D40110928B019B
:1040B00076CF8091E30087FD02C081E0B4CF83E03A
:1040C000B2CF1F920F920FB60F921124FF920F934F
:1040D0001F932F933F934F935F936F937F938F9390
:1040E0009F93AF93BF93CF93DF93EF93FF9309EE2B
:1040F00010E0F8018081C091EC00C795CC27C795EE
:104100008F70FC2EF82A1082C0EFD0E08881877F64
:10411000888378940E942C0EF80110828881886030
:104120008883CF2DCF70C083FF91EF91DF91CF9126
:10413000BF91AF919F918F917F916F915F914F91BF
:104140003F912F911F910F91FF900F900FBE0F90F5
:104150001F901895DB018F939F930E942021BF91A0
:10416000AF91A29F800D911DA39F900DB29F900DC6
:1041700011240895AA1BBB1B51E107C0AA1FBB1F36
:10418000A617B70710F0A61BB70B881F991F5A95E3
:10419000A9F780959095BC01CD01089597FB072E56
:1041A00016F4009407D077FD09D00E94BA2007FCCE
:1041B00005D03EF4909581959F4F08957095619537
:1041C0007F4F0895A1E21A2EAA1BBB1BFD010DC053
:1041D000AA1FBB1FEE1FFF1FA217B307E407F507B7
:1041E00020F0A21BB30BE40BF50B661F771F881F93
:1041F000991F1A9469F760957095809590959B0129
:10420000AC01BD01CF010895EE0FFF1F0590F491A1
:10421000E02D09946927962769277827872778272B
:104220000895A29FB001B39FC001A39F700D811D8F
:104230001124911DB29F700D811D1124911D0895AF
:104240000E941121A59F900DB49F900DA49F800DF9
:10425000911D11240895F999FECF92BD81BDF89A60
:10426000992780B50895A8E1B0E042E050E00C94B1
:104270005F21262FF999FECF92BD81BDF89A019753
:1042800000B4021639F01FBA20BD0FB6F894FA9A9E
:10429000F99A0FBE08950396272F0E943A210E9493
:1042A0003921252F0E943A21242F0C943A2101967E
:1042B000272F0E943A210C943921DC01CB01FC010B
:1042C000F999FECF06C0F2BDE1BDF89A319600B46F
:1042D0000D9241505040B8F70895FB01DC0104C035
:1042E0008D910190801921F441505040C8F7881BEE
:1042F000990B0895F894FFCF4B06510654065A06C1
:104300006F066F066F066F066F065D06620666062D
:104310006C067D06830687060F0F370FD810370F00
:10432000D8106A0F8B0FD810871094100E160E1627
:1043300048164816F9161317761676161E178E1796
:104340009D179D174A154E15521560156415681571
:104350006C1572157A157E158215861592159615AF
:104360009A159E15A415C215AC155C158A158E15E7
:104370007615A815B815CB15D115B81DBC1D151E81
:104380002C1E371E561E591E6A1E801E291E291EEF
:10439000851E881E8B1EAC1ECE1ED11ED31EF41E83
:1043A0005508010A440A8D0A910A580801000000C4
:1043B000004022B684016201AC00D601EF010F0279
:1043C0003031323391366667F7F6F5F4F1F09293B7
:1043D000959496973435E200E900EA00B500B600FE
:1043E000B700CD008301CC008A0192019401210223
:1043F000230224022502260227022A02B300B40067
:044400006F007000D9
:00000001FF
