:100000000C949A030C94D2030C94D2030C94D20354
:100010000C94D2030C94D2030C94D2030C94D2030C
:100020000C94D2030C94D2030C943C240C9414250D
:100030000C94F1230C94D2030C94D2030C94D203AD
:100040000C94D2030C94D2030C94D2030C94D203DC
:100050000C94D2030C9418240C94D2030C94D20365
:100060000C94D2030C94D2030C94D2030C94D203BC
:100070000C94D2030C94D2030C94D2030C94D203AC
:100080000C94D2030C94D2030C94D2030C94D2039C
:100090000C94D2030C94D2030C94D2030C94D2038C
:1000A0000C94D2030C94D2030C94D2030501098062
:1000B000A101850319012AB700150126B700950192
:1000C00075108100C0050C0901A101850419012AE0
:1000D000A002150126A002950175108100C005013E
:1000E0000906A1018506050719E029E71500250184
:1000F0009508750181020507190029EF15002501F2
:1001000095F075018102050819012905950575010C
:100110009102950175039101C00660FF0961A1017B
:100120000962150026FF00952075088102096315F4
:100130000026FF00952075089102C005010906A15F
:1001400001050719E029E7150025019508750181CA
:10015000029501750881010507190029FF15002680
:10016000FF00950675088100050819012905950508
:1001700075019102950175039101C009025B0003AD
:100180000100A0FA09040000010301010009211186
:100190000100012240000705810308000109040154
:1001A00000020300000009211101000122220007C2
:1001B0000582032000010705030320000109040252
:1001C000000103000000092111010001226D000758
:1001D0000584032000011201000200000008424BC8
:1001E00003010100010200011203700068006100B8
:1001F000730065006F006E006500000010034B0087
:1002000042004400460061006E00730000000403D9
:10021000090429001E001F002000210022002300E5
:1002200024002500260027002D002E002A004A0069
:100230002B0014001A000800150017001C001800FD
:100240000C00120013002F00300031004B00390069
:1002500004001600070009000A000B000D000E0044
:100260000F00330034004C0028004E00E100640011
:100270001D001B00060019000500110010003600CB
:1002800037003800E50052004D00E000E300E200D6
:100290000000000000002C00000000000000E4004E
:1002A000E600500051004F0035003A003B003C0092
:1002B0003D003E003F00400041004200430044003A
:1002C00045004C00490001000100520001000100FE
:1002D00001000100010046004700480052000100F3
:1002E000010001000100500051004F000100010019
:1002F000010001004A004B0050004F00A80001001F
:1003000001000100010001000100010001000100E5
:10031000010001004D004E00510001004B000100A2
:1003200001000100010000000000000001000000C9
:1003300000000000010001004A004E004D003500A1
:100340003A003B003C003D003E003F0040004100C1
:1003500042004300440045004C00490001000100F8
:1003600052000100010001000100010046004700A9
:10037000480052000100010001000100500051003E
:100380004F0001000100010001004A004B00500035
:100390004F00A80001000100010001000100010060
:1003A000010001000100010001004D004E0051005C
:1003B00001004B00010001000100010000000000ED
:1003C00000000100000000000000010001004A00E0
:1003D0004E004D0035003A003B003C003D003E0021
:1003E0003F004000410042004300440045004C00F3
:1003F000490001000100520001000100010001005C
:1004000001004600470048005200010001000100C1
:100410000100500051004F000100010001000100E7
:100420004A004B0050004F00A800010001000100ED
:1004300001000100010001000100010001000100B4
:100440004D004E00510001004B0001000100010071
:10045000010000000000000001000000000000009A
:10046000010001004A004E004D00222325262829C4
:100470002A2C2D2F3032333536383A3B3D3E404220
:10048000434547494A4C4E5051535557595A5C5E63
:100490006062646668696B6D6F71737577797B7D77
:1004A0007F81838587898A8C8E90929496989A9C76
:1004B0009E9FA1A3A5A7A8AAACAEAFB1B3B4B6B88E
:1004C000B9BBBCBEBFC1C2C3C5C6C7C9CACBCCCDF0
:1004D000CED0D1D2D2D3D4D5D6D7D7D8D9D9DADACB
:1004E000DBDBDBDCDCDCDCDCDDDDDDDDDCDCDCDC4B
:1004F000DCDBDBDBDADAD9D9D8D7D7D6D5D4D3D27F
:10050000D2D1D0CECDCCCBCAC9C7C6C5C3C2C1BF5C
:10051000BEBCBBB9B8B6B4B3B1AFAEACAAA8A7A5C0
:10052000A3A19F9E9C9A98969492908E8C8A89877C
:100530008583817F7D7B79777573716F6D6B69685A
:10054000666462605E5C5A5957555351504E4C4A2E
:100550004947454342403E3D3B3A383635333230D9
:100560002F2D2C2A292826252322FFAA7F5540003B
:100570000101010101010101010202020202020264
:100580000202030303030303030304040404040437
:1005900004050505050506060606060707070707FD
:1005A00008080808090909090A0A0A0B0B0B0C0CB0
:1005B0000C0D0D0D0E0E0E0F0F0F1010111111124C
:1005C0001213131414151516161717181819191ACB
:1005D0001A1B1B1C1D1D1E1E1F202021222223242E
:1005E00024252626272829292A2B2C2D2D2E2F306D
:1005F000313232333435363738393A3B3C3D3E3F81
:10060000404142434445464748494A4C4D4E4F506D
:10061000515354555658595A5B5D5E5F616264652B
:100620006668696B6C6D6F7072737577787A7B7DB5
:100630007E8082838587888A8C8E8F919395969809
:100640009A9C9EA0A2A3A5A7A9ABADAFB1B3B5B725
:10065000BABCBEC0C2C4C6C9CBCDCFD1D4D6D8DBFC
:10066000DDDFE2E4E7E9EBEEF0F3F5F8FAFDFF1E7B
:100670000F0500047F3F1F643214643214783C1E5F
:100680001E140A0500000000000000000000000029
:10069000000000000000000000000000000000005A
:1006A00000000000000000007E0F00D4FFFFFFC725
:1006B0000000007800000000000000002A2B280045
:1006C0000000000000000000000000000000002901
:1006D000000000002C1E3420212224342627252E41
:1006E000362D3738271E1F20212223242526333379
:1006F000362E37381F0405060708090A0B0C0D0EA5
:100700000F101112131415161718191A1B1C1D2F70
:100710003130232D350405060708090A0B0C0D0E90
:100720000F101112131415161718191A1B1C1D2F50
:100730003130354C11241FBECFEFDAE0DEBFCDBF24
:1007400004B603FE18C08091D7029091D802A09100
:10075000D902B091DA028730904BA740B04B59F4E0
:100760001092D7021092D8021092D9021092DA0297
:10077000E0E0F8E3099522E0A0EAB1E001C01D92B3
:10078000A73DB207E1F711E0A0E0B1E0EEE6FEE43C
:1007900002C005900D92A03AB107D9F70E94321F0E
:1007A0000C94EA260C940000982F909580FD05C0CB
:1007B0005F9A91FF04C05E9A08955F98FACF5E98A1
:1007C0000895E82F2FE0929FE00D11248E2F87705F
:1007D00041E001C0440F8A95EAF7E695E695E69573
:1007E00083E0E89FF0011124E059FD4F30E020E064
:1007F00070E05191DF011197CB01022E02C0969556
:1008000087950A94E2F7817081958527842385274F
:100810008C932F5F3F4F2330310559F70895E82F10
:100820002FE0929FE00D11249E2F9770E695E6959C
:10083000E69583E0E89FF0011124E059FD4F50E078
:1008400040E080E0219130E0092E02C036952795E6
:100850000A94E2F721703327042E01C0220F0A9474
:10086000EAF7822B4F5F5F4F4330510559F70895E8
:100870008091A00290919F02981301C008958F5F0C
:100880008770FACF90911E019923C1F090919C023C
:1008900097FF14C0E82FE695E695E695803FF8F4BB
:1008A000F0E0EE55FE4F877021E030E001C0220FEE
:1008B0008A95EAF78281822B82830895A4EAB1E0C7
:1008C000EFEF90E02D91821751F0EF3F19F42111D5
:1008D00001C0E92F9F5F9630A9F7EF3F09F4089513
:1008E0000E2E000CFF0BEE55FE4FE6CF90911E0131
:1008F0009923E1F090919C0297FF18C0E82FE695AC
:10090000E695E695803FF0F4F0E0EE55FE4F8770F7
:1009100021E030E0A90102C0440F551F8A95E2F79B
:10092000CA0180959281892382830895E4EAF1E0E7
:100930009191891303C0DF0111971C9251E0EA3AAB
:10094000F507B1F70895982F909580919702892324
:1009500080939702089580919802811110929802D5
:10096000089590919C0292FF06C0282F287128308C
:10097000F9F4877F846093FF06C0282F28712831FF
:10098000F1F4877E846120919D0220FF06C0382FFC
:1009900038713830D9F4877F816021FF06C0282F55
:1009A00028712831D1F4877E816194FD877E089576
:1009B000282F24712430F9F68B7F8860DCCF282F14
:1009C0002471243101F78B7E8861DDCF382F31719E
:1009D000313019F78E7F8860E0CF282F21712131C7
:1009E00021F78E7E8861E1CFCF93DF93EC01803ECB
:1009F000910509F45EC048F58133910509F4A1C061
:100A000088F48932910509F495C08A9709F4A0C049
:100A1000C130D10529F1CE010497813A910508F042
:100A200054C01EC089339105E9F182389105D1F196
:100A3000C59709F478C0C83AD10508F090C0C53A06
:100A4000D10530F3A497D0640BC0843E910509F41E
:100A50004FC050F4823E9105D9F1833E9105E9F1F2
:100A6000CE01DF91CF910895863E910509F44BC0E8
:100A7000873E910509F44CC0811523E5920708F0E3
:100A80008BC0811532E5930708F0FDC0C11580E5E4
:100A9000D80708F077C0C11520E4D20760F2DF70F4
:100AA000D06ADECF80919C028370D1F2C0EED0E09C
:100AB000D7CF80919C0280FD11C190919D0290FF43
:100AC000CFCFC3EED0E084FFCBCFD0E0C0E0C8CF23
:100AD00080919C0282FDF5CFC3CF80919C0282FD64
:100AE00000C190919D0290FDE1CF84FFB9CFEDCF81
:100AF00080919D0281FFB4CF80919C02C7EED0E02F
:100B000084FDE3CFADCF80919C0283FDF7CFA8CFCA
:100B100080919C0283FDE8C090919D0291FFE5CFFA
:100B2000C4EED0E09DCF80919C0285FF99CFC9E2B1
:100B3000D0E096CF80919C0285FF92CFC5E3D0E0B4
:100B40008FCF80919C0286FF8BCFCAE2D0E088CF06
:100B500080919C0286FF84CFC1E3D0E081CFCF3B60
:100B6000D10508F468C0C83ED10528F4C03ED105BF
:100B700008F4ABCF75CFCE019A9581159F4108F04F
:100B8000A4CF6ECFC11581E5D80708F45FC0DC2F74
:100B9000CC27C16FD06A64CF811529E59207A0F5F3
:100BA000811538E5930708F086C0C11585E5D8079B
:100BB000C8F4C11524E5D20708F078C09E0123705F
:100BC000332781E090E002C0880F991F2A95E2F751
:100BD000C695C69530E2C39FE0011124C82BD92BDE
:100BE000DA683ECFCE0195558F3F910511F008F0A0
:100BF0006CCF8C2F0E94B104C82FD0E0DC2FCC2703
:100C0000CC27DF71D0622CCFC1158AE5D80708F454
:100C100057C0CE0190568115904208F056CF8D2FC7
:100C20008F710E94B10490E0982F882788279F71C8
:100C30008C2BEC01E7CFC85AD0E0CC0FDD1FCF588A
:100C4000DE4F0990D881C02DD4640ACF9E0174E094
:100C5000369527957A95E1F723708C2F86958695A2
:100C6000837030E2839FC0011124922BC37021E076
:100C700030E002C0220F331FCA95E2F7822B932B7C
:100C8000EC01DC68EDCE9C012370332781E090E01D
:100C900002C0880F991F2A95E2F7C695C69520E2F3
:100CA000C29FE0011124C82BD92BEBCFDC2FCC271E
:100CB000C46FD06AD5CED82FCC27C06FD06AD0CE23
:100CC0008C2F8F700E94B10434E0D695C7953A9569
:100CD000E1F7CF709C2FEC01D069C2CEC9E3D0E020
:100CE000BFCEC2EED0E0BCCEC6EED0E0B9CE80E042
:100CF0000895F894E82FE295EF70F0E041A18F702D
:100D000021E030E0B90102C0660F771F8A95E2F753
:100D1000CB01962F9095942391A392A1892B82A326
:100D20007894089508956F927F928F929F92AF92D8
:100D3000BF92CF92DF92EF92FF920F931F93CF93C8
:100D4000DF93B82EA62E8901E42FF0E0E159FA4F87
:100D5000611119C0E4918E2F2E2FD80111962C937A
:100D60001197EC9312968C93DF91CF911F910F9175
:100D7000FF90EF90DF90CF90BF90AF909F908F90BB
:100D80007F906F900895E62EF12C249186E0B89E16
:100D900060011124CFEFD0E0C601BE010E94692599
:100DA0008B2D90E0880F991F35E5369FA001379F66
:100DB000500D1124841B950B982F990F980FAE019D
:100DC0004E195F09249FD001259FB00D1124EB2FF0
:100DD000A99E50011124AB2CBB24AE014A195B091A
:100DE000249F5001259FB00C11248B2D3E01691AC0
:100DF00071086E9C40016F9C900C7E9C900C11249D
:100E0000892C9924C819D9092C9FA0012D9F500D18
:100E1000112463307105D1F09CEFC91693E0D90617
:100E200070F461307105B1F062307105B9F0FFEF17
:100E3000CF16D10408F091CF8B2FE52F8ECF6430E1
:100E4000710579F066307105B9F387CFEB2D822FEC
:100E50002B2F83CFE22F2B2D8B2F7FCF852FE22FB0
:100E6000F7CF822F252F79CF80919202982F9E7FE6
:100E700029F4817082608093920208958635E8F3A8
:100E800081708465F8CFFA0181110994FB01FDCFCF
:100E9000E0914E02F0914F02309721F00190F081E5
:100EA000E02D099480E008952091F6013091F7013A
:100EB0002817390771F09093F7018093F601E091BC
:100EC0004E02F0914F02309721F00680F781E02D1D
:100ED000099408952091F4013091F50128173907FC
:100EE00071F09093F5018093F401E0914E02F0913E
:100EF0004F02309721F00084F185E02D0994089588
:100F00002FB7F8948091330290913402A09135026A
:100F1000B09136022FBF08958091F301089508958E
:100F20000895FC01CB012091CE013091CF0126170D
:100F3000370790F0009729F42091E8002E7720934E
:100F4000E80040E0009751F4411108C08091E800AA
:100F500082FF31C080E00895C901F3CF20913202B1
:100F60002223A9F12530A9F12091E80023FD2DC00D
:100F70002091E80022FDEACF2091E80020FFE2CF97
:100F80003091F3002091F200009719F028303105DC
:100F900058F041E02830310509F040E02091E800A8
:100FA0002E772093E800CECF41914093F100019736
:100FB0002F5F3F4FE9CF80913202882341F0853087
:100FC00041F08091E80083FFC1CF81E0089582E085
:100FD000089583E008958091C80187FF13C0809130
:100FE000E80082FF06C08091E8008B778093E800DC
:100FF00004C0809132028111F2CF089580913202B3
:101000008823D9F38091E80080FFF8CF8091E80031
:101010008E77ECCF2091E4003091E50095E6A901B0
:101020002091EC00822F817020FF06C08091E800A3
:1010300080FF06C080E008952091E80022FD1AC0DC
:1010400080913202882389F0853089F08091EB000D
:1010500085FD0FC02091E4003091E5004217530751
:10106000F9F29150E1F684E0089582E0089583E07A
:10107000089581E00895E8EDF0E080818E7F80831F
:101080001092E2001092DA001092E100A0EEB0E0BF
:101090008C9181608C9380818F77808319BCA7EDC0
:1010A000B0E08C918E7F8C9380818F7E80831092B4
:1010B000C7010895EF92FF920F931F93CF937C0186
:1010C0008B010E940A08C82F811117C08091E80087
:1010D00085FD0BC08091E8008E778093E8000E9428
:1010E0000A08882399F3C82F08C0F70181917F016E
:1010F0008093F1000150110949F78C2FCF911F9176
:101100000F91FF90EF900895982F9093E900242F6E
:10111000762F50E0891731F07091EC002091ED00AE
:101120005091F00021FD06C09F5F973071F78093CA
:10113000E90008953091EB003E7F3093EB00309151
:10114000ED003D7F3093ED003091EB003160309346
:10115000EB007093EC002093ED005093F000209191
:10116000EE0027FDE1CF0895CF92DF92EF92FF923C
:101170000F931F93CF93DF93C8EDD0E088818F7ECC
:101180008883E7EDF0E080818160808384E082BF26
:1011900081E08093C70188818E7F888302EE10E012
:1011A000F80110821092DA0081EEC82ED12CF601DF
:1011B000108288818F77888388818068888388817E
:1011C0008F7D888319BC109232021092C601109252
:1011D0001F021092C50190EEE92EF12CF7018081DB
:1011E0008B7F808388818160888342E060E080E03B
:1011F0000E948408F60180818E7F8083F8018081BF
:1012000081608083808188608083F70180818E7F08
:101210008083888180618883DF91CF911F910F91B6
:10122000FF90EF90DF90CF9008958091920280FD23
:101230000AC0EFE0F2E0118210821282339652E08F
:10124000EB31F507C1F7269A35B13F7B25B1206414
:101250004FB7F8948FE092E0FC010196508168E06E
:1012600025B9000000C057FF35B9550F000000C078
:1012700000C000C035B900C06A9591F752E08B31CB
:10128000950751F74FBF8FE594E00197F1F700C044
:1012900000000895EF92FF921F93CF93DF93EC012C
:1012A0008FE0E82E82E0F82E10E08C8197014091CB
:1012B000950260919402810F0E949306115C83E075
:1012C000E80EF11C1C3F89F70E9415099A818C8158
:1012D00090FF08C08F5F8C83DF91CF911F91FF90AB
:1012E000EF9008958150F7CFCF92DF92EF92FF9267
:1012F0000F931F93CF93DF93FC018281DD24DA9457
:1013000080FD02C0DD24D394CFE0D2E010E000E005
:10131000198218821A8294E0E92EF12CC12C809156
:101320000E028C0D8530CCF18370082E000C990BC9
:101330008017910791F4809195028E9DA0018F9D59
:10134000500D112455954795559547959E016091EF
:101350009402809193020E949306CD0CF1E0EF1A63
:10136000F108E9F60F5F1F4F23960430110581F64F
:101370000E94150980910E0291E0D91212C08823B3
:1013800099F0815080930E02DF91CF911F910F91C0
:10139000FF90EF90DF90CF90089587FFC6CF8C5FCE
:1013A000C4CF8F5F8370EECF83E0ECCF0F931F939A
:1013B000CF93DF93CFE0D2E0FE0111821082128240
:1013C000339682E0EB31F807C1F710E000E080913E
:1013D0000D02082E000C990B081719078CF180914B
:1013E0000601082E000C990B801791074CF19E0105
:1013F0004091950260919402809193020E9493061D
:101400000F5F1F4F23960430110509F70E9415093D
:101410008091050190910D02980F90930D022091FB
:101420000601280F20930601121614F493301CF0C5
:10143000819580930501DF91CF911F910F910895C0
:10144000198218821A82DCCFCF92DF92EF92FF923C
:101450000F931F93CF93DF93CDB7DEB72E970FB6C1
:10146000F894DEBF0FBECDBF8D879E87AD85BE854C
:1014700014961C91212F30E0D9010E94DB269B019C
:10148000AC010E94A62669837A838B839C83E0E269
:10149000F0E0E11BF109A5E5B0E09B01AC010E9481
:1014A000A62669877A878B879C879F01DF010E9428
:1014B0009E259B01AC010E94B1266D837E838F83A4
:1014C00098879B01AC0189819A81AB81BC81280FEF
:1014D000391F4A1F5B1F69857A858B859C850E9411
:1014E000B926F22E422F50E099E29F1508F443C02E
:1014F000A3E02A9F9001112435952795122F10956E
:101500009FE0C92E92E0D92E00E085E5E82EEF1885
:10151000802F8695F1F58E2D9601412F60919402D2
:101520000E9493060F5FB3E0CB0ED11C043081F70D
:101530000E941509ED85FE85948181E0992319F0BB
:10154000903219F48FEF8093040180910401890F88
:10155000AD85BE8514968C932E960FB6F894DEBF9B
:101560000FBECDBFDF91CF911F910F91FF90EF90F4
:10157000DF90CF90089585E590E0841B950B9C014A
:10158000220F331F280F391F37FFB6CF2F5F3F4F72
:10159000B3CF8F2DC1CFEF92FF920F931F93CF93B5
:1015A000DF93EC010FE012E0F12CE12C9C816091C3
:1015B00094028091930222E0E216F104FCF4992354
:1015C000F9F09801409195020E9493068FEFE81A76
:1015D000F80A0D5F1F4F24E0E216F10439F70E946C
:1015E00015098C8190E00196817099278C83DF9199
:1015F000CF911F910F91FF90EF900895992309F3D8
:10160000980140E0E1CF9091920290FF0CC0EFE092
:10161000F2E0818360834283339692E0EB31F907F5
:10162000C1F70C94150908950F931F93CF93DF937F
:1016300000D00F92CDB7DEB78C0180910C028111E2
:101640000AC09E012F5F3F4F4FEF6FEF0E9493063E
:101650008A8180930C02F8016481613049F0623024
:10166000F1F080910C0240E0662331F040E019C0B7
:1016700060910C0240E080E00E94030BF80184813D
:1016800090E0019663E070E00E947D2584830F90D6
:101690000F900F90DF91CF911F910F91089540917E
:1016A0000C0280E060E0E8CFCF93DF9300D00F9290
:1016B000CDB7DEB79091920290FF0FC09E012F5FD1
:1016C0003F4F0E9493064B8169818A810F900F9052
:1016D0000F90DF91CF910C94030B0F900F900F9010
:1016E000DF91CF910895CF93DF93EC01EC81F0E08F
:1016F000E659FB4F4491E2E9F2E0628181810E9468
:10170000540B8C818F5F8C83DF91CF910895CF93A1
:10171000DF93EC01E2E9F2E0438162818C810E9477
:10172000540B8C818F5F8C83DF91CF91089581E082
:101730008093E00080E28093D8001092C9008FE18E
:101740009EE40197F1F700C0000087E090EBDC0118
:101750008093D7029093D802A093D902B093DA0273
:1017600088E19CE00FB6F894A895809360000FBEC6
:1017700090936000FFCFCF93DF93D82FC92F809134
:101780001E018823C1F180919C0287FF34C060E272
:1017900084E08093E9008FEF9091E800815095FDFF
:1017A00006C095ED9A95F1F700008111F5CF809173
:1017B000E80085FF1DC080911E0170E050E040E010
:1017C000811104C050E040E068E070E08D2F9C2F54
:1017D0000E945A088091E8008E778093E80080E2AA
:1017E000ED2FFC2FA3EDB1E001900D928A95E1F76A
:1017F000DF91CF91089568E081E0CBCF8093D00155
:101800007093D2016093D101809132028430F9F457
:101810008093E9008FEF9091E800815095FD06C01C
:1018200095ED9A95F1F700008111F5CF8091E800D0
:1018300085FF0DC050E040E063E070E080ED91E096
:101840000E945A088091E8008E778093E8000895FE
:10185000BC0183E00C94FE0BBC0184E00C94FE0BF5
:101860004F925F926F927F928F929F92AF92BF92B0
:10187000CF92DF92EF92FF920F931F93CF93DF935C
:1018800010E000E036E9632E712CE801CC0FDD1F7B
:1018900058011CC0F60185909490692DC7010E94E3
:1018A0005326682DC70101960E94532622E0C20EDE
:1018B000D11C32E0E30EF11C4E145F0459F76E9612
:1018C0008FE0A80EB11CC615D70581F0C501880FA1
:1018D000991F9C012E5E3D4F69017E0138E2E30EA7
:1018E000F11C2E0186E4480E511CD4CF3E0126E99E
:1018F000620E711C055B1F4F0C3231E0130729F695
:10190000DF91CF911F910F91FF90EF90DF90CF90DB
:10191000BF90AF909F908F907F906F905F904F900F
:101920000895CF93C82F6FEF811162E283E290E0B8
:101930000E9453266FEFC11164E084E290E00E94A0
:1019400053266FEFC11165E285E290E0CF910C94D0
:101950005326CF93DF93C0E8D2E060E0CE010E942F
:1019600053262196C11584E0D807B9F7DF91CF91AE
:10197000089580E00E94910C60E087E290E00E9470
:10198000532660E086E290E00E9453260E94300CCD
:101990000E94A90C81E00C94910CCF9384E090E01C
:1019A0000E943F26C82F82E290E00E943F26982F97
:1019B0008C2FCF91089583E290E00E943F268232DF
:1019C00089F484E290E00E943F26843059F485E255
:1019D00090E00E943F2691E0853209F090E0892F47
:1019E0008170089580E0FCCF0F931F93CF93DF9316
:1019F000C42FD0E0CC0FDD1F2EE1629FC00DD11DA2
:101A0000112436E9839FC00DD11D1124CE01889683
:101A10000E943F26082F10E0102F0027CE01899644
:101A20000E943F269801282BC901DF91CF911F9179
:101A30000F910895462F672F843030F4753020F4CD
:101A40004F3010F40C94F40C90E080E00895DF9295
:101A5000EF92FF920F931F93CF93DF937C0100913E
:101A60009A0280919902082BC7E0D0E010E0DC2EAA
:101A7000C8010C2E02C0959587950A94E2F780FD67
:101A80000CC02197A0F7D12C8D2DDF91CF911F9104
:101A90000F91FF90EF90DF900895B7018C2F0E9477
:101AA0001A0D0E94F404019761F3EECF0F931F9378
:101AB000CF93FC01828100811181882389F0662304
:101AC00079F0C8010E94270DC82F682FC8010E9415
:101AD000E103B8018C2FCF911F910F910C941A0D37
:101AE000C8010E940F04C82FF4CFCF93DF93D82FE3
:101AF000C92F0E94270D6D2F7C2F0E941A0DDF9198
:101B0000CF910C94F4040E94750D282F92959F702C
:101B1000963091F060F4925F9F70923030F481E0E3
:101B2000203F81F030F4283E30F080E008959A5F45
:101B3000F3CF243FD1F7089581E0283EE0F3213F21
:101B4000A1F7F9CF08958091970290919E02892B79
:101B50008093A201909198029923A1F0892B809300
:101B6000A20180911E018823D9F180919C0287FFF8
:101B700037C08EE1E4EAF1E090E0815098F59111F0
:101B80000E94AB0440E250E060E572E082EA91E03E
:101B90000E943226892B59F180E2E2EAF1E0A0E5C9
:101BA000B2E001900D928A95E1F7E0914E02F0913A
:101BB0004F023097E1F080911E01882359F0809107
:101BC0009C0287FF07C08091A2018093A30186E059
:101BD0008093A2010280F381E02D82EA91E00994D2
:101BE00086E0C8CF2191222341F29F5FC6CF08959E
:101BF000CF93C82F882309F4A6C08238C1F40E946D
:101C0000480781FDA0C089E30E9442040E94A30D01
:101C10002FEF31EE84E0215030408040E1F700C0EA
:101C2000000089E30E947604CF910C94A30D8338C1
:101C3000A1F40E94480780FD86C083E50E9442040B
:101C40000E94A30D9FEF21EE34E0915020403040E0
:101C5000E1F700C0000083E5E5CF8438A1F40E94DD
:101C6000480782FD70C087E40E9442040E94A30DD1
:101C70008FEF91EE24E0815090402040E1F700C0CA
:101C8000000087E4CFCF8CEF8C0F813A90F58091E4
:101C90001E01882301F180919C0287FF1CC0EC2F5C
:101CA000E695E695E695F0E0EE55FE4F828190E0F0
:101CB0004C2F477021E030E002C0220F331F4A95BD
:101CC000E2F782239323892B81F08C2F0E947604E4
:101CD0000E94A30D0AC0E4EAF1E08AEA91E02191B2
:101CE000C21799F38E179F07D1F78C2F0E944204D9
:101CF0009BCF80E28C0F883068F4C77021E030E021
:101D000001C0220FCA95EAF780919702822B809337
:101D100097028ACF8BE58C0F833038F42C2F245216
:101D2000330BC901CF910C945407C85AC73158F4EA
:101D3000EC2FF0E0EE0FFF1FEF58FE4F80819181F6
:101D4000CF910C946A07CF910895882309F44BC072
:101D5000823871F40E94480781FF45C089E30E94E0
:101D600042040E94A30D89E30E9476040C94A30D03
:101D7000833859F40E94480780FF35C083E50E94EC
:101D800042040E94A30D83E5EFCF843859F40E94EA
:101D9000480782FF28C087E40E9442040E94A30DE6
:101DA00087E4E2CF9CEF980F913AF0F290E2980F1F
:101DB000983050F4877091E001C0990F8A95EAF746
:101DC000892F0E94A304D2CF9BE5980F933020F473
:101DD00090E080E00C945407885A873120F490E01A
:101DE00080E00C946A0708950F931F93CF93C82F38
:101DF00010E000E0893311F400E510E08C2F0E9420
:101E0000F80D0115110531F48C2FCF911F910F9111
:101E10000C94A50E8FE99FE00197F1F700C0000038
:101E200001501109EECF882339F090919702892B48
:101E3000809397020C94A30D0895882321F00E94AB
:101E4000A3040C94A30D0895FF920F931F93CF93B7
:101E5000DF93C62FD42FF22E8823A9F060938E0231
:101E60000E9480079093C3018093C201C77081E0F4
:101E700001C0880FCA95EAF7DF91CF911F910F91AA
:101E8000FF900C94130F80918E0268133FC0209135
:101E9000C2013091C3015FB7F894809133029091F1
:101EA0003402A0913502B09136025FBF821B930BC2
:101EB000883C910558F510E2140F6417A1F0C77023
:101EC00001E0802F01C0880FCA95EAF70E941D0F1C
:101ED000183048F48D2F877001C0000F8A95EAF7FB
:101EE000802F0E94130F8F2D0E94F40E1830A8F43B
:101EF0004D2F477081E001C0880F4A95EAF7DF91C6
:101F0000CF911F910F91FF900C941D0FC77081E02E
:101F100001C0880FCA95EAF7F2CFDF91CF911F91E8
:101F20000F91FF90089590E080E00E94540790E0A8
:101F300080E00E946A0710929E020C94A30D1092FA
:101F4000970280911E01E4EAF1E0882359F0809124
:101F50009C0287FF07C08EE1DF011D928A95E9F799
:101F60000C94930F86E0F8CF1F93CF93DF93CDB7F8
:101F7000DEB7AA970FB6F894DEBF0FBECDBF88ECD0
:101F800091E0FC0101962091F100208321E0803D49
:101F90009207B9F78091C901893009F456C0C8F495
:101FA000823009F4B3C0833009F482C0813071F10A
:101FB0008091E80083FF84C28091C8019091C9019B
:101FC0009A3008F07DC2E92FF0E0E451F94D0C940D
:101FD00091258A3009F489C08B3051F78091C8016E
:101FE000813231F78091CC019091CD01892B01F79D
:101FF0008091E800877F8093E8000E94EB07809142
:10200000CA0180931E010E949F0FD2CF8091C80108
:10201000813A71F68091E800877F8093E800809193
:10202000CC019091CD01892B61F460E283ED91E0C8
:1020300070E00E9491078091E8008B778093E80020
:10204000B7CF60E090E080E0F3CF8091C8018132AB
:1020500009F0AECF8091CC019091CD018D7F892B7D
:1020600009F0A6CF8091E800877F8093E8008091F7
:10207000E80082FF18C09091F3008091F20002976F
:1020800031F48091F100813011F0863021F480919B
:10209000F1008093F3018091E8008B778093E80052
:1020A0000E94EB0785CF809132028111E0CF80CF73
:1020B0008091C801813A09F07BCF8091CC01909149
:1020C000CD01892B09F074CF8091E800877F809340
:1020D000E8008091E80080FFFCCF80911E01809392
:1020E000F1008091E8008E77D9CF8091C8018132CC
:1020F00009F05ECF8091E800877F8093E8000E941E
:10210000EB078091CB018093C40152CF8091C8012D
:10211000813A09F04DCF8091E800877F8093E800F5
:102120008091E80080FFFCCF8091C401D8CF803837
:1021300099F0823809F0C4C18091CC018F7087304A
:1021400008F0BEC18093E9008091EB0085FB8827F1
:1021500080F91092E90006C08091C50190911F029C
:10216000911182609091E800977F9093E8008093AE
:10217000F1001092F1008091E8008E779DC18823D4
:1021800009F48BC1823009F09BC18091CA01811191
:102190008EC18091CC018F702FEF280F263008F070
:1021A0008FC18093E9002091EB0020FF80C1933024
:1021B00031F48091EB0080628093EB0078C19091C4
:1021C000EB0090619093EB0021E030E001C0220F22
:1021D0008A95EAF72093EA001092EA008091EB00DA
:1021E0008860EACF81116CC11091CA011F7780917C
:1021F000E3008078812B8093E3008091E800877F63
:102200008093E8000E94EB078091E80080FFFCCFFC
:102210008091E30080688093E30082E0111183E005
:10222000809332024DC18058823008F049C14091FC
:10223000CA015091CB014C3D83E0580799F583E0EA
:102240008A838AE289834FB7F894DE01139620E0EF
:102250003EE051E2E32FF0E050935700849120FFDD
:1022600003C082958F703F5F8F708A30C8F0895CA1
:1022700090E08D939D932F5F243161F74FBF809144
:10228000E800877F8093E8006AE270E0CE01019663
:102290000E9491078091E8008B778093E80010C13D
:1022A000805DE6CF8091CC019091CD01252F332721
:1022B0002330310509F44AC078F52130310509F49D
:1022C00079C08BE590E0EBE7F1E02230310509F0D1
:1022D000F7C02091E800277F2093E8002091CE01ED
:1022E0003091CF018217930708F49C0140E021153B
:1022F000310509F064C0411162C08091E80082FD9F
:10230000C9CF80913202882329F2853019F2809159
:10231000E80083FFF2CFBECF2132310509F43BC084
:102320002232310509F0CCC08330910508F0C8C0D5
:10233000FC01EE0FFF1FEA5DFE4F0190F081E02DE2
:102340008D5D9E4FDC018C9190E011C0CA019927F0
:10235000413089F082309105B1F0892B09F0B0C08D
:10236000EEE0F2E0E4918E2F90E0EEE0F2E00097F4
:1023700009F4A6C0AECFECEFF1E0E4918E2F90E02F
:10238000ECEFF1E0F4CFE8EEF1E0E4918E2F90E095
:10239000E8EEF1E0ECCF8330910508F091C0880FB2
:1023A000991FFC01E45DFE4F0190F081E02D89E072
:1023B00090E08FCF82E190E0E6EDF1E08ACF80916E
:1023C0003202882309F466CF853009F463CF809107
:1023D000E80083FD5FCF8091E80082FD8ECF809181
:1023E000E80080FF84CF9091F3008091F2002115E6
:1023F000310519F08830910550F041E0089709F057
:1024000040E08091E8008E778093E80070CF44919F
:102410004093F1003196215031090196E8CF803880
:1024200009F04EC08091E800877F8093E80080919A
:10243000C6018093F1009FCE811142C01091CA0164
:102440001230F0F58091E800877F8093E8001093C8
:10245000C6010E94EB07112311F084E005C08091B2
:10246000E30087FDFACF81E08093320242E061EC25
:1024700081E00E94840842E261EC84E00E948408CA
:1024800042E261EC82E00E94840842E260EC83E078
:102490000E9484088091320213C08091CA01813069
:1024A00079F481E0933009F080E080931F0210926C
:1024B000E9008091E800877F8093E8000E94EB07A5
:1024C0008091E80083FF0AC08091E800877F8093B5
:1024D000E8008091EB0080628093EB00AA960FB633
:1024E000F894DEBF0FBECDBFDF91CF911F9108954D
:1024F000809399020C94930F80939A020C94930FFB
:1025000021E030E001C0220F8A95EAF780919A021B
:10251000822B0C947C1221E030E001C0220F8A95BE
:10252000EAF7209580919A0282230C947C12909174
:102530009B028095892380939B02282F277091F41A
:10254000282F082E000C330B9217130659F0909188
:102550009D0292FD07C08595859585950E948B12F9
:1025600010929B020895CF93C0919D02C2FB9927C0
:1025700090F9981799F080FBC2F9C0939D02609181
:102580009C0284E090E00E9453266C2F82E290E04F
:102590000E94532682E0CF910C949712CF91089518
:1025A00080919A02982F9670963019F488600C9456
:1025B0007C12877FFCCF4F925F926F927F928F92B7
:1025C0009F92AF92BF92CF92DF92EF92FF920F93C2
:1025D0001F93CF93DF93CDB7DEB72A970FB6F8944A
:1025E000DEBF0FBECDBFFE0131968AE0DF011D9236
:1025F0008A95E9F79DE5E92E91E0F92E8F0122E613
:10260000622E21E0722E2F01AA24A394B12C41E75F
:10261000842E41E0942EF70181917F018F3F09F4D0
:1026200045C0F894E82FE295EF70F0E021A18F709B
:10263000A50102C0440F551F8A95E2F7CA01922FE7
:10264000982B91A392A18095892382A3789400C0AE
:10265000E2E6F1E021E030E0D12CC12C41914F3F86
:1026600009F468C0A42FA295AF70A05EB0E08C9171
:1026700090E04F7002C0959587954A95E2F780FDEE
:1026800059C0C901C82AD92A220F331F8E169F06A6
:1026900029F7F701319780818F3F11F00E94790669
:1026A00050EA5A95F1F7D801CD92DC920E5F1F4F98
:1026B0006E147F0409F0AFCF4AE050E0B20184E429
:1026C00092E00E9432269C0111E0892B09F410E06F
:1026D000232B99F18AE0F201A4E4B2E001900D927B
:1026E0008A95E1F781E0809339020E9480079093F8
:1026F00038028093370220913702309138024FB769
:10270000F8948091330290913402A0913502B091F7
:1027100036024FBF821B930B059798F08AE0E4E4E2
:10272000F2E0AAE3B2E001900D928A95E1F71092EF
:10273000390207C080E090E0A5CF80913902811175
:10274000DACF812F2A960FB6F894DEBF0FBECDBF29
:10275000DF91CF911F910F91FF90EF90DF90CF907D
:10276000BF90AF909F908F907F906F905F904F90B1
:1027700008950F931F93CF93DF938B01D82FC92F09
:102780000E943407A8016D2F7C2F88E090E0DF9134
:10279000CF911F910F910C946526E2E9F2E08DE054
:1027A000808311828FEF828383838FE084836DE047
:1027B00070E08FEF9FEF0C94B913CF93DF9300D0AD
:1027C00000D0CDB7DEB780919602833018F48F5FCA
:1027D000809396028091920290919302A09194022C
:1027E000B091950289839A83AB83BC83BC01CD01F0
:1027F0000F900F900F900F90DF91CF910C94B91321
:10280000CF93DF9300D000D0CDB7DEB78091960292
:10281000882319F0815080939602809192029091C2
:102820009302A0919402B091950289839A83AB831D
:10283000BC83BC01CD010F900F900F900F90DF91E2
:10284000CF910C94B9137F928F929F92AF92BF92C7
:10285000CF92DF92EF92FF920F931F93CF93DF936C
:1028600000D000D000D00F92CDB7DEB7182FF62ED3
:10287000042FE22E9091920290FF80C0E92FE695FE
:10288000AE2FB0E0AE5CBE4F8C91809390029E7FE5
:102890009230B9F59E012F5F3F4F812F0E94930622
:1028A0004B8169818A810E94030B10939302F092FD
:1028B000940200939502EE2009F460C08091920288
:1028C00090919302A0919402B09195028C839D8384
:1028D000AE83BF83BC01CD0127960FB6F894DEBF4F
:1028E0000FBECDBFDF91CF911F910F91FF90EF9061
:1028F000DF90CF90BF90AF909F908F907F900C947F
:10290000B913823019F400919502CFCF863019F4B3
:1029100010919302CACF8930D9F3893131F6E95148
:102920002E2F2170722EE695F0E0E659FA4F859031
:10293000949099243FE0C32E32E0D32EB12CA12CE9
:10294000C5019695879596958795711013C0810F4F
:102950009601402F6F2D0E949306A80CB91CB3E07E
:10296000CB0ED11C2BE1C21622E0D20649F70E9401
:1029700015099BCFA12FA81B8A2FEACF27960FB648
:10298000F894DEBF0FBECDBFDF91CF911F910F91A5
:10299000FF90EF90DF90CF90BF90AF909F908F907F
:1029A0007F900895E2E9F2E0818121E04381628134
:1029B000865F0C942314E2E9F2E0818121E04381F7
:1029C00062818A500C942314E2E9F2E062812AE0E9
:1029D000620F08F46FEF21E0438181810C9423148E
:1029E000E2E9F2E062812AE0621B08F460E021E0A3
:1029F000438181810C942314E2E9F2E043812AE0CF
:102A0000420F08F44FEF21E0628181810C9423147E
:102A1000E2E9F2E043812AE0421B08F440E021E0D1
:102A2000628181810C94231469EE7EEF90E080E056
:102A30000E94712660E082E090E00E94532660E0F0
:102A400083E090E00E9453261092990260E084E0B7
:102A500090E00E94532660E082E290E00E945326BC
:102A600060E085E090E00E94532660E086E090E020
:102A70000E9453266FEF87E090E00E94532640E0CB
:102A800050E0BA0188E090E00E94652660E08DE0A9
:102A900090E00E94532640E050E0BA0188E190E0C7
:102AA0000E94652660E087E190E00E94532640E0A6
:102AB00050E0BA018CE190E00E94652670E060E091
:102AC00080E290E00E94712640E050E0BA0188E187
:102AD00090E00E94652680E00E94910C0E94B90C53
:102AE00040E050E0BA018FE090E00E94652640E0AF
:102AF00050E0BA0183E190E00C94652690E080E01C
:102B00000E944D26893E9E4F11F40C94DB0C80E010
:102B100008954F925F926F927F928F929F92AF92A1
:102B2000BF92CF92DF92EF92FF920F931F93CF93BA
:102B3000DF93FC016280448081E08483EAE6F4E074
:102B40007490E9EEF4E0E491C8EFD1E09FE0E92E63
:102B500092E0F92E2CE0C22E22E0D22E32E0A32EFB
:102B6000BB24B39488248A94912C55245A94E71951
:102B70000E2F10E082E0861530F08091930288835A
:102B8000809194028983411021C01B821A8297018F
:102B90004A81698188810E949306259683E0E80E28
:102BA000F11CCC16DD0631F7DF91CF911F910F910B
:102BB000FF90EF90DF90CF90BF90AF909F908F905D
:102BC0007F906F905F904F900C9415098B818823B4
:102BD000E9F081508B83859DC00111246C8170E0E8
:102BE0000E946925FB01FF27E659FB4F8491E82FDE
:102BF000E719E59DC0011124B8010E946925809163
:102C00009502689FB00111247A83C1CF0E941526D6
:102C1000AC0190919502969591589A9D90019B9D3B
:102C2000300D1124232F3327421753070CF0AFCF59
:102C300082E0861588F40E941526B4010E947D2545
:102C400088830E941526209194022695622F70E0B9
:102C50000E947D25280F29831A8280919502893C44
:102C600020F088EC8C838B8392CF8431D8F784E179
:102C7000F9CF60919202669570E04BE050E087E0FA
:102C800091E00E942526892B19F481E0809391021E
:102C90000E94800790932C0280932B020895CF937B
:102CA000DF9300D000D0CDB7DEB79091920290FFB5
:102CB00045C08823E1F18B32E0F58F77880F909142
:102CC00092029170892B80939202662381F0809109
:102CD000920290919302A0919402B09195028983FF
:102CE0009A83AB83BC83BC01CD010E94B913609170
:102CF0009202669570E04BE050E087E091E00E9420
:102D00002526892BC1F01092910281E080932E023A
:102D100020E04091950260919402809193020F907F
:102D20000F900F900F90DF91CF910C94231481E0BE
:102D3000C5CF8AE2C3CF0E943916E7CF0F900F901C
:102D40000F900F90DF91CF91089580919202869518
:102D50008F5F8B3208F081E061E00C944F16909108
:102D6000920296958FEF890F913009F48AE261E023
:102D70000C944F169091920290FF07C09695981769
:102D800020F0961710F40C94A51661E00C944F16E1
:102D90003F924F925F926F927F928F929F92AF92EB
:102DA000BF92CF92DF92EF92FF920F931F93CF9338
:102DB000DF93CDB7DEB728970FB6F894DEBF0FBE0E
:102DC000CDBF7C01DC019C9111968C9111971396DB
:102DD0002D913C91232B21F089238F3F09F0BBC516
:102DE00028960FB6F894DEBF0FBECDBFDF91CF910E
:102DF0001F910F91FF90EF90DF90CF90BF90AF9019
:102E00009F908F907F906F905F904F903F9008952C
:102E1000980122513F452031310508F042C58FEF1E
:102E200093E00E943F26025130E8832E32E0932E39
:102E30008823A1F180919B02877091F2D7011296AD
:102E40008C91882369F280919D0282FDC9CF82E036
:102E500028960FB6F894DEBF0FBECDBFDF91CF919D
:102E60001F910F91FF90EF90DF90CF90BF90AF90A8
:102E70009F908F907F906F905F904F903F900C94B9
:102E800097128114B4E09B06A9F2C4010E943F2668
:102E9000811101C00150EFEF8E1A9E0A0111F1CF8E
:102EA00080911F0190912001A0912101B0912201F8
:102EB00089839A83AB83BC83442443942AE0322ED3
:102EC00084010F5F1F4FC4010E943F2689831A822D
:102ED000882309F4AFCF9FEF980F933010F58A83C2
:102EE0004982F2E08F0E911CC8010E943F268B831D
:102EF000882309F49FCF8E010F5F1F4FD8012C91BB
:102F00002223F1F2213009F047C011969C911197CC
:102F100012968C91913039F40E5F1F4F0E94F40E7F
:102F200008C04801E8CF923039F40E5F1F4F0E946D
:102F3000F80D0F5F1F4FE2CF933029F40E5F1F4F44
:102F40000E94A50EF6CF943019F00F5F1F4FF1CFFE
:102F50000E5F1F4F20E030E0A8014F5F5F4F8053AE
:102F6000990B8A30910560F02115310511F38FE935
:102F70009FE00197F1F700C0000021503109F4CF24
:102F8000329EB001339E700D11249C01260F371F15
:102F9000F80181818A01E0CFE22FF0E0EC54F94F93
:102FA0005490822F86958695869590E0FC01EC558D
:102FB000F94FE4912770F0E0022E02C0F595E795F5
:102FC0000A94E2F73F01A1E06A227724FC01EC5663
:102FD000F94FA490B12C022E02C0B594A7940A9484
:102FE000E2F7B1E0AB22BB24FC01EC57F94FC490EF
:102FF000D12C02C0D594C7942A95E2F7E1E0CE2205
:10300000DD246114710419F081EE0E94F80DA11401
:10301000B10419F086EE0E94F80D852D0E94F40E81
:10302000AB2819F086EE0E94A50E672819F081EEF4
:103030000E94A50ECD2809F47CCF8CE26FCF81E0F1
:103040000E9480120E94D012F5CE81E00E948B1265
:10305000F9CF82E0F5CF053FBCE51B07D1F027E2B1
:1030600045EE66EE063FECE51E0741F027E245EE31
:1030700064EE043FFCE51F0709F038C40E94240FEA
:10308000D9CE27E245EE65EEF9CF26E241EE60EEBD
:10309000F5CF26E241EE62EEF1CF98012A5F3C4582
:1030A0002930310508F437C40631ACE51A07C9F4F4
:1030B00090919702882309F4EBC0892F8A7A91E0D6
:1030C00009F490E090938F028111E0C089E20E94A0
:1030D00042040E94A30DAECE053ABDE51B0709F4DC
:1030E0001AC40A35EDE51E0709F4EBC108F0CAC1A0
:1030F00001152CE5120709F4D7C10E3D1C4509F056
:10310000D7C00E94141596CEF801E350FC4580917B
:103110009C028160E331F10530F5EA50F94D0C94E1
:10312000912503302DE5120778F40A3F3CE513079B
:1031300008F401C4F801EB5FFC45E830F10510F537
:10314000E75FF84D0C94912501368DE5180709F4D9
:1031500096C090919C02892F8E7F90FF8160053AE6
:103160001D4509F0E8C380939C02E5C380919C0251
:103170008260F9CF80919C028460F5CF80919C029F
:103180008860F1CF80919D02816080939D02D3C3BE
:1031900080919D028260F9CF80919C028061E3CF93
:1031A00080919C028062DFCF80919C028064DBCFA3
:1031B0000E949F0F80919C028068D5CF80919C02D5
:1031C0008C60D1CF80919D028360DFCF80919C0283
:1031D0008E7FC9CF80919C028D7FC5CF80919C024C
:1031E0008B7FC1CF80919C02877FBDCF80919D0254
:1031F0008E7FCBCF80919D028D7FC7CF80919C0227
:103200008F7EB1CF80919C028F7DADCF80919C024B
:103210008F7BA9CF0E949F0F80919C028F77A3CFB5
:1032200080919C02837F9FCF80919D028C7FADCF48
:1032300080919C0282FB992790F921E0922790FBD4
:1032400082F990FB83F98FCF80919D02982F909502
:1032500091708E7F892B90FB81F997CF0E949F0FF1
:1032600090919C02892F97FB87F980587CCF61E071
:103270008EE090E00E9453265EC360E0F9CF90910B
:103280009C02892F8F7E94FF80616DCF85E31FCFD5
:1032900080918F02811104C089E20E94760419CFC7
:1032A00085E3FBCF6AE285E20D351D4509F4D2C006
:1032B000F7018281C080D180882309F406C1C6014C
:1032C0000E94270D182F682FC6010E94E103B60146
:1032D000812F0E941A0D0E94F4048C01D7011296CE
:1032E000BC9012971596AC90A2949FE0A922809171
:1032F0009B028770C1F0CB2CBB20B1F0812F807F67
:10330000803421F080E2800F883068F080919D0247
:1033100082FD09C082E00E94971280919B02877013
:10332000CC24C3948111C12CD12ED2948FE0D82209
:10333000B8E0DB1609F4CCC1BD1508F40AC1E3E01E
:10334000ED1508F4C7C0812F807F1F70F1E0FD15D7
:1033500008F013C1803211F01295107F002309F498
:1033600042C1013009F47CC1BB2009F486C1AA2006
:1033700009F47CC1D70115968C91159780FF12C175
:103380008F7015968C9372C18091920280FF21C03C
:103390008E7F809392028091920290919302A091ED
:1033A0009402B09195028D839E83AF83B887BC0150
:1033B000CD010E94B913109291029FEFA0E7B2E0F5
:1033C0009150A040B040E1F700C000000E941509F4
:1033D00031CD81608093920261E086950E944F1604
:1033E00029CD4FEA56E165EA76E10E94430722CDF6
:1033F00045EA56E16FEA76E1F8CF4BED54E162ED34
:1034000074E1F3CF42ED54E16BED74E1EECF40EFA8
:1034100054E164EE74E1E9CF44EE54E160EF74E10D
:10342000E4CF48E055E16CEF74E1DFCF4CEF54E1BD
:1034300068E075E1DACF40E054E16DED73E1D5CF9E
:103440004DED53E160E074E1D0CF61E081E0C6CFA3
:1034500065E082E00E94BA16EDCC68E086E0FACF23
:103460006EE089E0F7CF64E18FE0F4CF67E185E1BA
:10347000F1CF61E088E1B2CF62E289E1EBCF61E0B8
:1034800083E2ACCF0B358DE51807E9F00C351D450F
:1034900009F00ECF80919D0282FB882780F991E090
:1034A00089270E94B31204CF0E949F0FAFEFB4E3AD
:1034B000ECE0A150B040E040E1F700C000000E9405
:1034C000970B81E0EECF80E0ECCFC6010E940F04A5
:1034D000182FFDCE24E0D21609F4E0C0AD2DA8507F
:1034E000BB0B149720F40E9448070E94D403CC2001
:1034F000A9F080919B0280FD11C0F7011282859591
:10350000859585950E948012C7010E94C8168091FA
:103510009B028595859585950E948B1260E0C70179
:1035200028960FB6F894DEBF0FBECDBFDF91CF91C6
:103530001F910F91FF90EF90DF90CF90BF90AF90D1
:103540009F908F907F906F905F904F903F900C94E2
:10355000560D39E0D31609F42BC186E08D0D8F701E
:10356000823008F0BBCF023F09F031C1812F8F714B
:10357000B1102AC10E948012B1CF882311F0129598
:10358000107FBB20B9F0112369F080E2800F8830F2
:1035900010F0011109C080919702812B809397024E
:1035A0000E94A30D802F2FC080919E02812B8093BB
:1035B0009E02F6CF802F0E94A50E112309F48ECF14
:1035C00080E2800F883010F0011104C0812F0E942A
:1035D000A30406C0109580919E02812380939E02D1
:1035E0000E94A30D7BCF20919D0222FF16C0BB201D
:1035F00069F0112339F080919702812B8093970213
:103600000E94A30D80E00E94F80D68CF80E00E9428
:10361000A50E112309F462CFD9CFBB20A1F0909160
:103620009802812F892BA11003C00E94130F56CF3F
:10363000A1E0AA12FACF22FD51CF981709F44ECF7C
:10364000809398024BCFA11006C00E94AB04812F3B
:103650000E941D0F43CFB1E0AB1609F43FCFF5CF69
:10366000BB2031F0E5E0EA1508F438CF812FDDCF3B
:10367000F4E0FA1508F432CFEACFAA2041F3093377
:1036800049F4BFEFE7EEF3E0B150E040F040E1F77E
:1036900000C00000802F0E94A50E20CF812F8695AC
:1036A0008695837061F0813009F018CFC80193705E
:1036B000B11002C090E080E00E946A070FCFC801FD
:1036C0009370B11002C090E080E00E94540706CFD2
:1036D000812F8370A1F5B11001CF802F829586953F
:1036E0008770880F880F402F4F70082E01C0440F3D
:1036F0000A94EAF7202F207104FF07C02FE030E082
:1037000001C0220F8A95EAF7209516951695137039
:10371000123081F0822F842B133031F08091990286
:10372000113029F0242B82230E947812D7CE842BCB
:10373000822BFACF242B809199028227F5CFBB20D0
:1037400061F110FFCBCE802F829586958770880F10
:10375000880F402F4F70082E01C0440F0A94EAF7DB
:10376000202F207104FF07C02FE030E001C0220F9E
:103770008A95EAF72095169516951370123099F0F0
:10378000822F842B133031F080919A02113041F056
:10379000242B82230E947C12A1CE11FF9FCED3CF77
:1037A000842B822BF7CF242B80919A028227F2CF91
:1037B0001F70BB2029F0812F0E948012802F35CFEF
:1037C000802F0E941D0F812F0E948B1287CE033FF6
:1037D00060F4003FB9F0013F81F0BB2009F451C013
:1037E000A110E0CE812F8F71C5CE033F09F1043FB8
:1037F000A1F780919D0282FF26C0812F8F71BB208F
:1038000019F3B8CEBB2079F024E02A1508F466CE6F
:103810001F7181E090E001C0880F1A95EAF790913E
:103820009A028927B7CF35E03A1508F457CEF0CF82
:1038300080E0BB2009F4AECF1F7181E001C0880F8A
:103840001A95EAF7A7CFBB2089F01F71812F0E943C
:10385000801280919D0282FD07C0A8E01A9FC001DE
:103860001124836080939B02812F84CE81E00E948B
:103870009712B1E0BA1508F031CE82E00E9497129B
:103880002DCEAA2059F0093309F004CFEFEFF7EE5F
:1038900023E0E150F0402040E1F7FACE812F8F7114
:1038A00093CF0031FFE51F0709F4C9CB01312FE5A4
:1038B000120709F4CECB033FFCE51F0709F4E5CB63
:1038C00008F0C9CB083D3CE5130709F4DACB28E240
:1038D00041E0093D9CE5190709F4D5CB26E241EE0C
:1038E00061EE073DACE51A0709F4C8CB882309F45B
:1038F00048C010928E0201362DE5120761F008F0E3
:10390000EBCB06319CE5190708F0C7CB0230ACE5DC
:103910001A0708F4E6CB0E94CD0C90939D02809389
:103920009C020631ECE51E0708F0FBCB0230FCE5FB
:103930001F0708F0E9CB60919C0210919D0284E082
:1039400090E00E945326612F82E290E00E9453266D
:103950000E949F0F6FCA61E0C7010E94560D8C0143
:10396000D70112968C91811153CA00313FE513079C
:1039700009F46BCB01319FE5190709F09CCF82E078
:1039800065CB0631BCE51B0709F492CB8091970209
:103990008272063DBCE51B0708F084CC023CECE5D6
:1039A0001E0708F485CCF801E35CFC45E331F10522
:1039B00008F0EACCEF5EF84D0C9491251F93CF935D
:1039C000DF938091D602807FA9F48091D30288236F
:1039D00089F08091A002C0919F027091D102609104
:1039E000D202A091D402B091D502D62FD72316E0EF
:1039F000C81304C0DF91CF911F91089590E01097F4
:103A000011F0DF3F19F401968770F2CF189F9001F3
:103A1000199F300D1124F901EF55FD4F41816413B9
:103A2000F2CF40814713EFCF42814111ECCF438168
:103A300054814A1B5B0B483C510528F78091D60204
:103A40008F7080618093D602F901EA55FD4F808125
:103A50008F708061808381ED92E00E94C816DF91B3
:103A6000CF911F910C9438048F929F92AF92BF9286
:103A7000DF92EF92FF920F931F93CF93DF93CDB717
:103A8000DEB72B970FB6F894DEBF0FBECDBF8C010B
:103A900085E0F801DE01179601900D928A95E1F715
:103AA000F801E280A380B48081ED882E82E0982E18
:103AB0009091D1028091D2022091D4023091D5020E
:103AC0002115310529F0482F49234F3F09F028C11E
:103AD000EE2009F433C1F801808191810E94830DA9
:103AE000F82E882309F42AC186E0F801A1EDB2E09E
:103AF00001900D928A95E1F70E94DE1C21C0D090C2
:103B0000D6024D2D407F283C310508F0A8C0F801B1
:103B100021814111C3C0FE2C281325C08081891347
:103B200022C0E11020C08D2D8F7080618093D6025D
:103B300081ED92E00E94C8168091D602F80185833B
:103B40008F2D2B960FB6F894DEBF0FBECDBFDF9141
:103B5000CF911F910F91FF90EF90DF90BF90AF90AA
:103B60009F908F9008953F81AB2829F0822F832367
:103B70008F3F09F090C080E0F82FF170DF2EE091C8
:103B8000A00240919F0256E080FD1CC0EE20C1F2D1
:103B90008091D60281608093D602F12CD1CF8E2FF6
:103BA00090E05E9FF0011124EF55FD4F61812613D7
:103BB00006C06081361303C06281E612E7CF01962A
:103BC000E82FE770E413EBCF8F8198850E94750D85
:103BD000292F22952F70903260F0225F2F702230B3
:103BE00078F49F7051F0F8019581907F31F4D12CD9
:103BF0000AC09F7011F08823D1F3805E8830B8F33B
:103C0000C8010E94C816FD2C9BCFF80180819181CC
:103C10000E94830D882309F491C0EE2009F48EC020
:103C20008091D602803270F08091D1029091D202C0
:103C30009A8389831B82BD82AC82DE82CE0101968B
:103C40000E94C81686E0F801A1EDB2E001900D9245
:103C50008A95E1F70E94DE1CFF24F39471CF411195
:103C600032C081ED92E00E94C81686E0F401119204
:103C70008A95E9F792CFF801808191810E94830DA6
:103C80008111E0CF8091D60281608093D602C80175
:103C90000E94C81655CF81E08E256ECF2813B5CF70
:103CA000F80180818913B1CFE110AFCFD582C8016F
:103CB0000E94C81686E0F801A1EDB2E001900D92D5
:103CC0008A95E1F73DCFF801218182139ECFF8015B
:103CD000808189139ACFE11098CFD582C8010E94C4
:103CE000C81686E0F40111928A95E9F729CFF80108
:103CF00021818213C0CFF80180818913BCCF8091CC
:103D0000D60280FDD7CF982F907FA1F28583903F78
:103D100071F2982F907F905F8F70892B8583C7CF2A
:103D2000F090D302A501421B530B9A01F110E7CE8C
:103D3000283C3105B0F6FE2CE110D9CFC8010E9415
:103D4000C8168ACF1F93CF93DF93CDB7DEB767979F
:103D50000FB6F894DEBF0FBECDBF342F4B8B252F8F
:103D60005C8B962F6D8B7E8B8F8B4E895F8961115B
:103D700010929E021A8A3D872E879F87598B488B07
:103D800086E0FE013D96DE01179601900D928A9520
:103D9000E1F7CE0107960E94341D882389F016E0D2
:103DA0008091A00290919F02891349C067960FB637
:103DB000F894DEBF0FBECDBFDF91CF911F91089564
:103DC00086E0FE013796DE01119601900D928A95EC
:103DD000E1F79F81888520919F024091A0026A852A
:103DE0007B85672BE1F289238F3FC9F230E0C9015F
:103DF0000196877099274817190671F40E949F0F42
:103E000010929F021092A00286E0E1EDF2E0DF0145
:103E10001D928A95E9F7C3CF96E0929FD001939FB8
:103E2000B00D1124AF55BD4FFE01319601900D929A
:103E30009A95E1F780939F020E943804B0CF819F4A
:103E4000C00111248F559D4F0E94341D882309F411
:103E5000ADCF8091A00290E0019687709927809362
:103E6000A0029ECFCDB7DEB7A4970FB6F894DEBF01
:103E70000FBECDBF84B7877F84BF0FB6F894A895D7
:103E800080916000886180936000109260000FBE96
:103E900080E890E00FB6F894809361009093610001
:103EA0000FBE85B7806885BF85B7806885BF87E707
:103EB00096E09093A1018093A001549A0E943B0840
:103EC0000E94B4088091E20084608093E2007894BC
:103ED00080913202882399F08091E9001091EC00E2
:103EE0001795112717958F70182B1092E900809164
:103EF000E80083FD0E94B40F1F701093E90082E078
:103F000084BD93E095BD9AEF97BD80936E000E94AB
:103F1000DB0C811102C00E94B90C0DE511E0D80143
:103F20008D918D018F3F11F00E947906B1E002362C
:103F30001B07A9F702E611E0E1E7EE2EE1E0FE2E15
:103F4000F80181918F018F3F11F00E947906E016F0
:103F5000F106B1F78AE0EAE3F2E0DF01282F1D92D3
:103F60002A95E9F7E4E4F2E0DF011D928A95E9F78A
:103F70000E947E15811102C00E94141582E090E01B
:103F80000E943F26809320020E94CD0C90939D02B8
:103F900080939C020E94DB12EFE3FCE93197F1F77A
:103FA00000C000000E94DB1280913A0280FF08C02E
:103FB0006FEF7FEF90E080E00E9471260E94970BE8
:103FC00083E090E00E943F260E947812579A5F9A01
:103FD000569A5E9A80911B02811133C00E947E1511
:103FE000811104C00E9414150E94CD1388E090E056
:103FF0000E944726609392027093930280939402EA
:10400000909395026E7F71F40E94CD1388E090E04A
:104010000E944726609392027093930280939402C9
:10402000909395020E94340710929102809192021F
:1040300080FF04C060E086950E944F1681E0809367
:104040001B0282E191E090934F0280934E0268E15F
:10405000A62EB12C70E4772E88248394992493940F
:104060008091320200E112E1853009F415C10E940D
:10407000DB12882359F08FB7F894409133025091A6
:10408000340260913502709136028FBF5AE3E52EFB
:1040900052E0F52EE1E2F2E0D70110E000E0702FEF
:1040A0008D919D91219131912817390709F417C1FC
:1040B0002827392760E0CC24C394D12CA6014223C1
:1040C0005323452B09F405C169837A83960128237C
:1040D000392391E0232B09F490E09B830E94800711
:1040E0008160782F9D838C8349815A816B81892FD0
:1040F0000E94A21E000F111FF801EF5DFD4F80818D
:1041000091818C259D2591838083809191028823C4
:10411000D1F180919002E0919202E695E81BE09344
:104120002D02823009F0F2C0F0E0E058F94FE4913E
:104130000E2F10E023E7C22E2BE0D22E80912E020C
:10414000882361F010922E020E94800790932C0227
:1041500080932B021092300210922F020E9480074F
:1041600020912B0230912C02821B930B8F3F9F4793
:1041700050F4200F311F30932C0220932B028BE23E
:1041800092E0F60109950E94480790913102891743
:1041900021F0809331020E94D40380913202843056
:1041A00009F05ECF83E08093E9008091E80082FF10
:1041B00057CF8091E80090E085FF06C00E940A0872
:1041C000882309F413C191E08091E8008B778093F4
:1041D000E800992309F444CFE981E150E33108F084
:1041E000B6C1F0E0EC5DF84D0C949125809132025F
:1041F000843009F440C080E00E94D4031092910200
:1042000080911E02811116C090921E02809192022E
:10421000982F917090931D028E7F80939202FFEFF2
:1042200020E732E0F15020403040E1F700C00000CC
:104230000E94150910921C020FB6F894A895A0923E
:1042400060000FBE7092600083B7817F846083BF7F
:1042500083B7816083BF7894889583B78E7F83BF4F
:104260000FB6F894A89580916000886180936000F3
:10427000109260000FBE80911F02882369F00E9497
:10428000DB12EAE3F2E081919191892B09F093C26C
:1042900042E0E434F407B9F780913202853009F442
:1042A000A5CF0E949F0F0E9448070E94D40310923E
:1042B0001E0280911D02882349F080919202816044
:1042C0008093920260E086950E944F160E943916F4
:1042D000CECE6F5FCC0CDD1C6F3009F0EFCE0F5FE0
:1042E0001F4F0530110509F0DACE8FEF89838A83DD
:1042F0001B820E9480078160782F9D838C83498177
:104300005A816B81892F0E94A21EFFCE08E210E025
:1043100064E2C62E6AE0D62E883109F40FCFE8F4A5
:104320008F3009F447C060F4863069F1893009F4B0
:1043300035C000ED17E092E9C92E96E0D92EFECEE9
:104340008531B9F7F0E0EC58F94FE4910E2F10E009
:10435000F6EDCF2EF9E0DF2EF1CE04EF11E05BECAD
:10436000C52E5AE0D52E843209F4E8CE853271F19B
:104370008332F9F6E2E7F6E005911491E4E1CE2EFE
:10438000EBE0DE2EDBCEF0E0E358F94FE4910E2FA8
:1043900010E087E8C82E8BE0D82ED0CEE695F0E06E
:1043A000E658F94FE4910E2F10E0BAE4CB2EB9E0B5
:1043B000DB2EC4CEE695F0E0E958F94FE4910E2FDC
:1043C00010E0A4E7CA2EA9E0DA2EB8CE8E2F63E063
:1043D0000E945D25E92FF0E0E159F94FE4910E2F9D
:1043E00010E079E8C72E75E1D72EA8CE00E210E0E4
:1043F0009E012F5F3F4F69018091E80085FD0AC053
:104400008091E8008B778093E8000E940A08882357
:1044100099F3D9CE8091F100D6018D936D010150B1
:10442000110951F7D0CE1A8289E08B833AC08A8174
:10443000823001F1833009F45AC0813009F087C01D
:104440008FB7F894209133023091340240913502B5
:104450005091360229A33AA34BA35CA38FBF69A155
:104460007AA18BA19CA10E9497256B837C838D836D
:104470009E8317C086E290E00E943F2690E0B0E065
:10448000A0E0CC24D82EE92EFA2E87E290E00E94FC
:104490003F261B821C82C82ADC24CD24DC24DE8239
:1044A000CD8280913202843009F0DACD1091E9009A
:1044B0008091EC001F70879588278795182B82E0E4
:1044C0008093E9008091E80080FF0DC050E040E05B
:1044D00060E270E0CE0101960E945A088091E800E7
:1044E0008E778093E8001F701093E900B9CDFE012C
:1044F000319684E492E0D7012C9111963C91B2E080
:10450000EB0EF11C3283238332968E159F0599F7AB
:10451000C8CF8A818230D9F42B813C814D815E8164
:1045200029A33AA34BA35CA3CA01B9010E94972512
:104530006B017C0187E290E00E94532699278F2D22
:104540007E2D6D2D86E290E00E945326AACF8FEF3C
:104550008983A7CF4C816B818A810E94F40C9827B4
:10456000892798279E838D839CCFED80FE80FE2433
:10457000EF24FE248A810B813EE1039F80011124F8
:1045800046E9849F000D111D11248C8190E0880F55
:10459000991F080F191F6F2DC80188960E94532676
:1045A0006E2DC8018996D0CF0E94300C7ACF8A81B7
:1045B0008238D1F1F8F4803831F1813809F071CFC7
:1045C00060E08B810E944F169B8180919202911135
:1045D00023C08E7F80939202109291025FEF80E75A
:1045E00092E0515080409040E1F700C000000E94EE
:1045F000150957CF833809F054CF20E04091950238
:104600006C818B8106C020E04B8160919402809187
:1046100093020E94231445CF81608093920260E050
:1046200086950E944F163DCF8B818093960239CF9D
:104630008A818238D9F058F4803899F0813809F0AD
:1046400030CF8091920280FF0FC08695EECE8338E6
:1046500009F027CF809193028B83809194028C8301
:1046600020CF80919502E1CE80E0DFCE809196024E
:10467000DCCE2091920230919302409194025091AD
:10468000950229A33AA34BA35CA3CA01B9010E94D6
:10469000B91307CF80E18A8304CF8A8280E8C5CE30
:1046A0000A811B811027012710278C816801C80E01
:1046B000D11C7E0135E0E30EF11CC80180589D4FEE
:1046C000C016D10609F4EDCE003841E0140740F4DD
:1046D0000E943F26D7018D937D010F5F1F4FEDCFC5
:1046E00080E0F8CF0A811B81102701271027FE01E7
:1046F00031967F018C816F01C80ED11CC801805892
:104700009D4FEC14FD0409F4CCCE0038F1E01F07F6
:1047100028F4D70114966C910E9453260F5F1F4F07
:10472000BFEFEB1AFB0AEACF0E94A90CBACE84E0D5
:10473000B2CF0A811B811027012710278C816801C5
:10474000C80ED11C7E01E5E0EE0EF11CC801889672
:104750000C151D0509F4A5CE0835F2E01F0740F43D
:104760000E943F26D7018D937D010F5F1F4FEECF33
:1047700080E0F8CF0A811B81102701271027FE0156
:1047800031967F018C816F01C80ED11CC8018896BB
:10479000CE14DF0409F485CE0835F2E01F0728F4B3
:1047A000D70114966C910E9453260F5F1F4FBFEFE5
:1047B000EB1AFB0AEBCF09BD19BD09B400FEFDCF12
:1047C0008091D8008F7D8093D8008091E000826036
:1047D0008093E0008091E00081FDFCCF0E949F0F5C
:1047E0005BCD1F921FB61F9211248F939F93AF939F
:1047F000BF9380911C02811113C08091330290916C
:104800003402A0913502B09136024196A11DB11D2E
:104810008093330290933402A0933502B093360212
:10482000BF91AF919F918F911F901FBE1F901895C0
:1048300078941F921FB61F9211248F939F93AF936A
:10484000BF938091330290913402A0913502B091D0
:1048500036020196A11DB11D80933302909334025C
:10486000A0933502B0933602BF91AF919F918F9183
:104870001F901FBE1F9018951F920F920FB60F9298
:1048800011242F933F934F935F936F937F938F9355
:104890009F93AF93BF93EF93FF938091E10082FFCB
:1048A00009C08091E20082FF05C08091E1008B7F0A
:1048B0008093E1008091DA0080FF24C08091D800CD
:1048C00080FF20C08091DA008E7F8093DA00809193
:1048D000D90080FF9BC080E189BD82E189BD09B418
:1048E00000FEFDCF81E0809332028091C7018111EB
:1048F00009C00E943B080E94B4088091E2008460D5
:104900008093E2008091E10080FF17C08091E20077
:1049100080FF13C08091E2008E7F8093E20080913F
:10492000E20080618093E2008091D80080628093F1
:10493000D80019BC85E0809332028091E10084FFA9
:1049400029C08091E20084FF25C080E189BD82E119
:1049500089BD09B400FEFDCF8091D8008F7D809382
:10496000D8008091E1008F7E8093E1008091E20089
:104970008F7E8093E2008091E20081608093E2006C
:104980008091C601882309F447C084E080933202F5
:10499000809132028091E10083FF27C08091E20084
:1049A00083FF23C08091E100877F8093E10082E054
:1049B000809332021092C6018091E1008E7F809335
:1049C000E1008091E2008E7F8093E2008091E2001E
:1049D00080618093E20042E060E080E00E94840811
:1049E0008091F00088608093F000FF91EF91BF917B
:1049F000AF919F918F917F916F915F914F913F9177
:104A00002F910F900FBE0F901F90189519BC109208
:104A100032021092C70176CF8091E30087FD02C079
:104A200081E0B4CF83E0B2CF1F920F920FB60F9206
:104A30001124FF920F931F932F933F934F935F93F4
:104A40006F937F938F939F93AF93BF93CF93DF9396
:104A5000EF93FF9309EE10E0F8018081C091EC0024
:104A6000C795CC27C7958F70FC2EF82A1082C0EF0F
:104A7000D0E08881877F888378940E94B40FF80102
:104A80001082888188608883CF2DCF70C083FF918A
:104A9000EF91DF91CF91BF91AF919F918F917F91D6
:104AA0006F915F914F913F912F911F910F91FF90C7
:104AB0000F900FBE0F901F901895991B79E004C0BE
:104AC000991F961708F0961B881F7A95C9F780954D
:104AD0000895AA1BBB1B51E107C0AA1FBB1FA61745
:104AE000B70710F0A61BB70B881F991F5A95A9F797
:104AF00080959095BC01CD01089597FB072E16F483
:104B0000009407D077FD09D00E94692507FC05D0E5
:104B10003EF4909581959F4F0895709561957F4FD4
:104B20000895EE0FFF1F0590F491E02D0994692779
:104B30009627692778278727782708950E94DB26FC
:104B4000332312F48A1B9B0B0C94A8250E94DB26AE
:104B5000B7FF0895821B930B0895CF92DF92EF92D7
:104B6000FF92CF93DF93CDB7DEB72A970FB6F894B5
:104B7000DEBF0FBECDBF89879A87A985BA852D91E3
:104B80003D914D915C9129833A834B835C83232B28
:104B9000242B252B41F424E239ED4BE557E0298302
:104BA0003A834B835C8369817A818B819C812DE17F
:104BB00033EF41E050E00E94872669017A01A7EABD
:104BC000B1E49B01AC010E94A62669837A838B83A2
:104BD0009C83ACEEB4EFA70196010E94B4269B0122
:104BE000AC0189819A81AB81BC81820F931FA41F84
:104BF000B51FB7FF03C00197A109B048E985FA8541
:104C000080839183A283B3839F772A960FB6F8940B
:104C1000DEBF0FBECDBFDF91CF91FF90EF90DF9051
:104C2000CF9008950E94AD25089580E091E00E9404
:104C3000AD250895B0E0A0E08093000190930101BC
:104C4000A0930201B09303010895FC01415050402C
:104C500030F001900616D1F73197CF0108958827DB
:104C600099270895FB01DC0104C08D910190801902
:104C700021F441505040C8F7881B990B0895F999C9
:104C8000FECF92BD81BDF89A992780B50895A6E11F
:104C9000B0E044E050E00C947926A8E1B0E042E0B6
:104CA00050E00C947926262FF999FECF92BD81BD54
:104CB000F89A019700B4021639F01FBA20BD0FB65A
:104CC000F894FA9AF99A0FBE08950396272F0E9436
:104CD00054260E945326252F0E945426242F0C94DC
:104CE00054260196272F0E9454260C945326DC014B
:104CF000CB01FC01F999FECF06C0F2BDE1BDF89AE7
:104D0000319600B40D9241505040B8F70895052EE9
:104D100097FB1EF400940E949E2657FD07D00E9428
:104D2000B92607FC03D04EF40C949E26509540956E
:104D3000309521953F4F4F4F5F4F08959095809547
:104D4000709561957F4F8F4F9F4F08950E94DB268E
:104D5000A59F900DB49F900DA49F800D911D1124CF
:104D60000895B7FF0C94A6260E94A626821B930BDB
:104D70000895A1E21A2EAA1BBB1BFD010DC0AA1F9C
:104D8000BB1FEE1FFF1FA217B307E407F50720F0B4
:104D9000A21BB30BE40BF50B661F771F881F991F2F
:104DA0001A9469F760957095809590959B01AC0178
:104DB000BD01CF010895A29FB001B39FC001A39F81
:104DC000700D811D1124911DB29F700D811D112444
:104DD000911D0895F894FFCF9710BF106012BF1077
:104DE0006012F210131160120F121C12B618BA18CA
:104DF000BE18CC18D018D418D818DE18E618EA183F
:104E0000EE18F218FE18021906190A1910192E19AF
:104E10001819C818F618FA18E218141924193719AD
:104E20003D19F119F819FD19021A071A0C1A111A6D
:104E3000161A1B1A201A251A281A2D1A301A331A74
:104E4000361A391A3C1A3F1A132217228922AA222B
:104E5000B522D422D72218233923A722A7224A23F6
:0E4E60004D2350237223942397239923BA23C2
:104E6E000100000001010201191A1B1C1D1E1F204A
:104E7E0021228C07BB0B8F07280C2C0C90070100EE
:104E8E0000000040226D3B011901AC008D01A6010E
:104E9E00C6010001020202020606060909090909F5
:104EAE00090F0F0F0F0F0F151515181919191919BD
:104EBE0019191919192324252525252525303132AF
:104ECE003334356667F7F6F5F4F1C6379091929361
:104EDE0095E200E900EA00B500B600B700CD008308
:104EEE0001CC008A019201940121022302240225A1
:104EFE0002260227022A02B300B4006F00700000DF
:00000001FF
